:100000000C949D040C94D5040C94D5040C94D50444
:100010000C94D5040C94D5040C94D5040C94D504FC
:100020000C94D5040C94D5040C943C2B0C94F82A15
:100030000C94392C0C94D5040C94D5040C94D50450
:100040000C94D5040C94D5040C94D5040C94D504CC
:100050000C94D5040C94152C0C94D5040C94D50454
:100060000C94D5040C94D5040C94D5040C94D504AC
:100070000C94D5040C94D5040C94D5040C94D5049C
:100080000C94D5040C94D5040C94D5040C94D5048C
:100090000C94D5040C94D5040C94D5040C94D5047C
:1000A0000C94D5040C94D5040C94D5040501098056
:1000B000A101850319012AB700150126B700950192
:1000C00075108100C0050C0901A101850419012AE0
:1000D000A002150126A002950175108100C00660DE
:1000E000FF0961A1010962150026FF00952075082E
:1000F00081020963150026FF00952075089102C052
:1001000005010906A101050719E029E715002501E8
:10011000950875018102950175088101050719008F
:1001200029FF150026FF00950675088100050819AE
:1001300001290515002501950575019102950175A7
:10014000039101C01E0F0500047F3F1F6432146439
:100150003214783C1E1E140A05FD377A585A0000E6
:1001600004E6D6B4460200210116000000742FE513
:10017000A3E0059B01E15D003D8889C65436C317A5
:100180004FE4DCCCA45323E7E1D3F8F6021C386E2D
:100190005A419154A91FC0AA9FC8D6C26097A19086
:1001A0005B34C70ED99A472E0D970547928E24BC13
:1001B000E0F356509AC959D34F2B787F7C1073A423
:1001C00020FC5AF4F17A49CE7638D4B17785CBFE4B
:1001D0004CFA2B8DF41DB1D8323361E9B8F3FDB37D
:1001E0005C93EF79CEE7B3A2F57244CB558018DA71
:1001F000B06F714D5C410DED20863CC8006F829B55
:10020000A7EFCE193B398FD9EF25B5798A006E2734
:100210008EDE567170857069559A79D295BDEF81E1
:10022000A78F727488203ABF06037B7303829453AE
:1002300050832D1AB797198E6EE9FA45DD672F287E
:1002400058ECB3FE728E691B6DBAB561E38FED8D0C
:10025000BD0E561E7C04C6C233583D7786C2BC47CD
:1002600057FFC327A2825FF76C24B67502A3E2682A
:100270005BF9A1E55F274A3A13C7905563F2D63977
:10028000D02795D406AABE3E4D554748503FFB3F68
:10029000080D86D2CE3C6665CA4CFF1F2A16AE8773
:1002A0006685599EEAA22463150A9C582579E5A61D
:1002B0004DC6AAC6D5453FCAE02A2ADE6554D89065
:1002C0004156973BBCDD5A80B65A6F597A9EA4219D
:1002D0000C1D7B5594FC15A73FAA3470FB049C763B
:1002E000B8A186846B2D6C28D4D7F43BD58A16D25E
:1002F00042A748D5D3FC6924340C3407860CE1FBB3
:100300001E52F1CF29126730636EC67C479B27D3FC
:100310002E4B1C09C0D46E2E09BEC7CED96A3E71C1
:100320007F3C3CB2C1C2571DBF99393D269911CDC2
:10033000A28E54C9621F417BF94812A2FCC0A429B5
:10034000B00893149814B4CF8040F1F71BF5F1B4C2
:1003500032ADDAB0EE1D5C8CBF00000000434F2EC2
:100360004952088A540001FD039C0B000037153ADE
:10037000D6B1C467FB020000000004595A00010115
:100380000101010101010102020202020202020254
:100390000303030303030303040404040404040524
:1003A00005050505060606060607070707070808E8
:1003B0000808090909090A0A0A0B0B0B0C0C0C0D99
:1003C0000D0D0E0E0E0F0F0F101011111112121332
:1003D000131414151516161717181819191A1A1BAD
:1003E0001B1C1D1D1E1E1F2020212222232424250C
:1003F0002626272829292A2B2C2D2D2E2F30313245
:1004000032333435363738393A3B3C3D3E3F404154
:1004100042434445464748494A4C4D4E4F5051533C
:1004200054555658595A5B5D5E5F616264656668F3
:10043000696B6C6D6F7072737577787A7B7D7E8077
:1004400082838587888A8C8E8F91939596989A9CC3
:100450009EA0A2A3A5A7A9ABADAFB1B3B5B7BABCD7
:10046000BEC0C2C4C6C9CBCDCFD1D4D6D8DBDDDFA8
:10047000E2E4E7E9EBEEF0F3F5F8FAFDFFFFAA7F1F
:1004800055402223252628292A2C2D2F303233357A
:1004900036383A3B3D3E4042434547494A4C4E5030
:1004A00051535557595A5C5E6062646668696B6D5A
:1004B0006F71737577797B7D7F81838587898A8C5E
:1004C0008E90929496989A9C9E9FA1A3A5A7A8AA65
:1004D000ACAEAFB1B3B4B6B8B9BBBCBEBFC1C2C39A
:1004E000C5C6C7C9CACBCCCDCED0D1D2D2D3D4D534
:1004F000D6D7D7D8D9D9DADADBDBDBDCDCDCDCDC5D
:10050000DDDDDDDDDCDCDCDCDCDBDBDBDADAD9D934
:10051000D8D7D7D6D5D4D3D2D2D1D0CECDCCCBCAC2
:10052000C9C7C6C5C3C2C1BFBEBCBBB9B8B6B4B3E8
:10053000B1AFAEACAAA8A7A5A3A19F9E9C9A98967E
:100540009492908E8C8A89878583817F7D7B797751
:100550007573716F6D6B6968666462605E5C5A5931
:1005600057555351504E4C4A4947454342403E3DF2
:100570003B3A3836353332302F2D2C2A2928262580
:100580002322010001008704A41189110000020048
:1005900002008304A41189110000030001008804F3
:1005A000A41189110000040002006D04A411891136
:1005B0009207050001008904A411891100000600BA
:1005C00002006F04A41189110000070002008504D5
:1005D000A41189110000080001008A04A4118911E6
:1005E0000000120002008B04A41189110000130006
:1005F00002008D04A41189110000140001008F0471
:10060000A4118911000015000000000018076019EE
:100610000000290014001A000800150017001C0033
:1006200018000C00120013002A004C002B000400DC
:100630001600070009000A000B000D000E000F0055
:10064000340000002800E50000001D001B0006002B
:100650001900050011001000360037005200E100BB
:10066000E400E300E200000021522A002C002C00EC
:1006700022520000500051004F0001000100010013
:100680000100010001000100010001000100010062
:100690000100010001000100010001000100010052
:1006A0000100010001000100010000000100010043
:1006B0000000010001000100010001000100010033
:1006C0000100010001000100010001000100000023
:1006D0000100010001000100010000000100010013
:1006E0000100010001000100010001000100010002
:1006F00001000100010001000100010001000100F2
:1007000001000100010001000100010001000100E1
:1007100001000000010001000000010001000100D3
:1007200001000100010001000100010001000100C1
:1007300001000100010000000100010001000100B2
:1007400001000000010001000100010001000100A2
:100750000100010001000100010001000100010091
:100760000100010001000100010001000100010081
:100770000100010001000100010000000100010072
:100780000000010001000100010001000100010062
:100790000100010001000100010001000100000052
:1007A0000100010001000100010000000100010042
:1007B0000100510052004F005000010001000100F3
:1007C0000100010001000100010001000100010021
:1007D000010009025B00030100A0FA090400000106
:1007E00003010100092111010001224400070581D4
:1007F000030800010904010002030000000921119F
:1008000001000122220007058203200001070503E1
:100810000320000109040200010300000009211166
:1008200001000122320007058403200001120100AB
:100830000200000008EDFE23000100010203011C7C
:10084000037600690061006C003A006600360034EF
:10085000006300320062003300630000000C0343B9
:10086000007500720069006F0000001803700072CC
:10087000006F006A00650063007400630061006936
:10088000006E0000000403090400000000000000E6
:100890000000000000000000000000000000000058
:1008A000000000000000000000000000007E0F00BB
:1008B000D4FFFFFFC7000000780000000000000028
:1008C000002A2B28000000000000000000000000AB
:1008D0000000000029000000002C1E3420212224EA
:1008E000342627252E362D3738271E1F2021222378
:1008F0002425263333362E37381F0405060708090A
:100900000A0B0C0D0E0F10111213141516171819CF
:100910001A1B1C1D2F3130232D350405060708092D
:100920000A0B0C0D0E0F10111213141516171819AF
:100930001A1B1C1D2F3130354C0011241FBECFEF68
:10094000DAE0DEBFCDBF04B603FE18C08091E50536
:100950009091E605A091E705B091E8058730904BAE
:10096000A740B04B59F41092E5051092E60510929D
:10097000E7051092E805E0E0F8E3099525E0A2EC30
:10098000B1E001C01D92A53EB207E1F711E0A0E081
:10099000B1E0EEECFEE602C005900D92A23CB1077C
:1009A000D9F70E94602C0C942C370C940000482F2F
:1009B0002091E30590919A0559E0291302C080E047
:1009C000089530E0529FF001539FF00D1124E55639
:1009D000FA4F8181681306C08081481303C0858166
:1009E0008111EECF2F5F3F4F2770E7CFE8EDF0E0AA
:1009F00080818E7F80831092E2001092DA00109244
:100A0000E100A0EEB0E08C9181608C9380818F77C3
:100A1000808319BCA7EDB0E08C918E7F8C93808190
:100A20008F7E80831092830508952091E400309199
:100A3000E50095E6A9012091EC00822F817020FF4E
:100A400006C08091E80080FF06C080E008952091F4
:100A5000E80022FD1AC080919005882389F0853036
:100A600089F08091EB0085FD0FC02091E40030916A
:100A7000E50042175307F9F29150E1F684E008953A
:100A800082E0089583E0089581E0089580919205C1
:100A900087FF13C08091E80082FF06C08091E800C4
:100AA0008B778093E80004C0809190058111F2CF8C
:100AB0000895809190058823D9F38091E80080FF04
:100AC000F8CF8091E8008E77ECCF982F9093E900D3
:100AD000242F762F50E0891731F07091EC0020918F
:100AE000ED005091F00021FD07C09F5F973071F736
:100AF0008093E90081E008953091EB003E7F3093D0
:100B0000EB003091ED003D7F3093ED003091EB0034
:100B100031603093EB007093EC002093ED00509324
:100B2000F0002091EE0027FDE0CF80E00895B0E0D6
:100B3000A0E0EDE9F5E00C946735C8EDD0E08881E0
:100B40008F7E8883E7EDF0E080818160808384E0A0
:100B500082BF81E08093830588818E7F888302EE47
:100B600010E0F80110821092DA0081EEC82ED12C2C
:100B7000F601108288818F778883888180688883D6
:100B800088818F7D888319BC109290051092910501
:100B900010928F0510928E0590EEE92EF12CF70140
:100BA00080818B7F808388818160888342E060E0E0
:100BB00080E00E946505F60180818E7F8083F801C8
:100BC000808181608083808188608083F70180815B
:100BD0008E7F8083888180618883CDB7DEB7E8E02F
:100BE0000C948335FC0180919805909199058617A6
:100BF0009707A0F06115710529F49091E8009E77A0
:100C00009093E80090E06115710551F4911108C0CE
:100C10008091E80082FF34C080E00895BC01F2CFEB
:100C2000809190058823C1F18530C1F18091E80061
:100C300083FD30C08091E80082FDEACF8091E8001A
:100C400080FFE1CF8091F3002091F200382F6115F1
:100C5000710519F02830310558F091E02830310540
:100C600009F090E02091E8002E772093E800CBCFA8
:100C700081918093F100615071092F5F3F4FE7CF61
:100C800080919005882341F0853041F08091E80003
:100C900083FFBECF81E0089582E0089583E0089548
:100CA000089508958091850508959C014FB7F894A3
:100CB00080917F0590918005A0918105B09182057A
:100CC0004FBF821B930B08952FB7F89460917F0557
:100CD0007091800580918105909182052FBF0895C4
:100CE0002FB7F89480917F0590918005A0918105A0
:100CF000B09182052FBF0895A3E0B0E0E2E8F6E0EE
:100D00000C946D3520917C0530917D0528173907AD
:100D1000A1F090937D0580937C05E0917A05F09198
:100D20007B05309751F024E029839B838A830680DA
:100D3000F781E02DCE01019609952396E2E00C940F
:100D40008935A3E0B0E0E7EAF6E00C946D35209138
:100D500078053091790528173907A1F09093790526
:100D600080937805E0917A05F0917B05309751F0FA
:100D700023E029839B838A830680F781E02DCE01BF
:100D8000019609952396E2E00C948935E0917A0565
:100D9000F0917B05309729F00190F081E02D0995C5
:100DA000089580E008954115510511F0FA01099563
:100DB0000895DC016091720580917305962F891367
:100DC00001C00895292F30E0F901EE0FFF1FE65909
:100DD000FA4F408151814A175B07A1F487E08A9F4F
:100DE000A0018B9F500D112448565B4F81E0FA0102
:100DF00084839613E6CF2F5F3F4F237033272093D2
:100E0000720508952F5F3F4F922F9370D8CF1092A5
:100E1000960410929504E8E9F4E08581811102C0FE
:100E200014821682379685E0E130F807B1F708950D
:100E3000B0E0A0E0EEE1F7E00C9465358FEF9FEFB6
:100E40004430510508F469C040914A0441FB8827A9
:100E500080F990E0880F991F42FB002700F910E00D
:100E6000000F111F000F111F802B912B40FBCC2472
:100E7000C0F8D12C8C299D2943FB222720F9C22FB1
:100E8000E0E0DE2F53E0CC0FDD1F5A95E1F78C2B0D
:100E90009D2B44FBAA27A0F9B0E0E4E0AA0FBB1FFA
:100EA000EA95E1F78A2B9B2B45FBEE27E0F9F0E072
:100EB000A5E0EE0FFF1FAA95E1F78E2B9F2B46FBB7
:100EC000222720F930E0B6E0220F331FBA95E1F770
:100ED000822B932B47FB222720F930E03695322FC7
:100EE000222737952795822B932B20914B04322F65
:100EF0003170F32EE82EF92A26952170B22EBB0C04
:100F0000A82EBF28C501BB0CAA0BBB0BFB0180831D
:100F10009183A283B38390E080E0CDB7DEB7EAE0AF
:100F20000C94813580916D0490916E0490931B0117
:100F300080931A010895E4ECF2E090E080E068EC20
:100F400079E24FEE59E22EE339E2778366835187E7
:100F500040873387228797878687019670968F30E0
:100F6000910599F7089581152CE7920741F4209196
:100F70001E0130911F01232B11F490E080E00895B1
:100F8000FA01811101C0FB01099508958091A10228
:100F9000982F9E7F29F4817082608093A10208952A
:100FA0008635E8F381708465F8CFAF92BF92DF9207
:100FB000EF92FF920F931F93CF93DF93082F162F7B
:100FC000E901E42FF0E0E358FC4F611110C0E49117
:100FD0005E2F4E2F4983E8835A83DF91CF911F9173
:100FE0000F91FF90EF90DF90BF90AF900895E62EA5
:100FF000F12C4491D42EE42FF0E026E0829FC00132
:1010000011242FEF30E0B9010E941935802F90E0B4
:10101000880F991F55E5569FD001579FB00D112499
:101020008A1B9B0B982F990F890F5901AE18BF0887
:10103000AE9ED001AF9EB00DBE9EB00D11245B2FB1
:10104000189F80011124012F11275901A01AB10AFC
:10105000AE9E8001AF9E100DBE9E100D1124590151
:10106000A81AB108AE9CC001AF9C900DBE9C900D1B
:101070001124892F9927281B390B2E9FC0012F9FE0
:10108000900D3E9F900D1124E92F62307105A1F063
:1010900050F46115710509F49DCF6130710581F03F
:1010A000EB2F512F97CF6430710569F080F06630D7
:1010B000710509F48FCFF4CFE42F4B2F592F8ACF2E
:1010C000E42F412F87CFEB2F542F492F83CF4B2F66
:1010D0005D2DE12F7FCF80E00895F894E82FE29511
:1010E000EF70F0E031A1282F2F7081E090E001C077
:1010F000880F2A95EAF7982F9095932391A392A1B0
:10110000892B82A37894089590914A0492FF10C08D
:1011100041E0282F2471243009F040E031E0282FED
:101120002871283009F030E0431711F02CE08227B5
:1011300093FF10C041E0282F2471243109F040E0D2
:1011400031E0282F2871283109F030E0431711F0E1
:101150002CE0822730914B0430FF10C051E0282F43
:101160002171213009F050E041E0282F287128300A
:1011700009F040E0541711F029E0822731FF10C038
:1011800041E0282F2171213109F040E031E0282F82
:101190002871283109F030E0431711F029E0822747
:1011A00094FD877E089582389105B9F1B0F48133BA
:1011B000910509F47DC048F48932910509F46DC0A8
:1011C0008A32910509F47BC008958533910509F4AD
:1011D0005FC08933910509F10895833E9105D9F1E6
:1011E00038F4803E910529F1823E910579F1089508
:1011F000863E9105D9F1873E910509F43EC0843EB3
:10120000910541F520914B0421FF24C080914A04AF
:1012100084FD19C087EE90E0089520914A04237060
:1012200009F05AC020914B0423FF14C089E290E0DA
:10123000089520914A0420FD38C030914B0430FFBE
:1012400009C024FF43C090E080E0089520914A0443
:1012500022FDF7CF089520914A0422FD3AC0309133
:101260004B0430FD39C024FFF5CFEDCF20914A0467
:1012700023FFF0CF24FDE7CFCDCF20914A0423FDFB
:101280002EC030914B0431FFEECF84EE90E00895F4
:1012900020914A0425FFDECFC9CF20914A0425FDC5
:1012A00021C020914B0423FFD5CF89E390E0D2CF1A
:1012B00020914A0426FFCECF8AE290E00895209143
:1012C0004A0426FFC7CF81E390E0089583EE90E0C3
:1012D000089582EE90E0089580EE90E0089586EE05
:1012E00090E0089585E390E008951F93CF93DF93F6
:1012F0000E94D308EC01C11580E5D807F0F5C115AF
:1013000080E4D80708F09CC0C03ED10520F5CD3C54
:10131000D10508F082C0C83AD10578F4C53AD105A4
:1013200008F073C0C130D10519F1209709F1C4301C
:10133000D105F0F4D0E0C0E01BC0C33CD105D0F72C
:10134000C85AD0E0CC0FDD1FC45DDE4F0990D881B4
:10135000C02DD4640DC0C11580E2D80708F0D1C0FB
:10136000C11581E0D80708F05AC0C83ED10510F772
:10137000CE01DF91CF911F910895C03682E5D80745
:1013800018F5C03482E5D80708F06BC0C03282E59A
:10139000D80708F05FC0C11582E5D80708F497C0E8
:1013A0002C2F2695269580E2289F900111248C2FC2
:1013B0008370C1E0D0E002C0CC0FDD1F8A95E2F758
:1013C000C22BD32BDD68D4CFC03A82E5D80760F4B6
:1013D000C03882E5D80708F459C0CF71D0E0DC2FBF
:1013E000CC27C46FD06AC4CFC03C82E5D80708F4CC
:1013F00062C0C03E82E5D80708F09CCFDC2FCC2726
:10140000CC27DF71C06FD06AB3CFC55AD0E0C75DBB
:10141000DE4FC881D0E0D064ABCFD065A9CF8D2F8F
:101420000E948408182FCE0199270E94D308C12F4B
:10143000D0E0DC2FCC27CC27DF71C82BD92B98CF5D
:10144000CE0199270E94D308CC27DF70C82BD92B57
:10145000D06A8ECFCF71D0E0DC2FCC27C16FD06A9D
:1014600087CF2C2F26952695277080E2289F900104
:1014700011248C2F8370C1E0D0E002C0CC0FDD1F9F
:101480008A95E2F7C22BD32BDC6872CF2C2F2695DE
:101490002695277080E2289F900111248C2F83705D
:1014A000C1E0D0E002C0CC0FDD1F8A95E2F7C22B6D
:1014B000D32BDA685DCF8C2F8F710E948408C82FE0
:1014C000D0E0DC2FCC27CC27DF71D06251CF8C2F1E
:1014D0008F710E94840855E0D695C7955A95E1F71B
:1014E000CF70D0E0DC2FCC27282F30E084FF05C060
:1014F00044E0220F331F4A95E1F7C22BD32BD0696A
:1015000037CF8D2F8F710E948408182FCE01992715
:101510000E94D308C12FD0E0DC2FCC27CC27DF716D
:10152000C82BD92BD2CF8091FD01882331F01092A6
:10153000FD011092FC011092FB010895CF93C82F7A
:1015400080914B0482FF0CC08091FD018C1741F00B
:101550000E9470069093FC018093FB01C093FD01F3
:10156000CF9108959091FD01292F282361F0809556
:1015700089238093FD01882339F00E94700690939F
:10158000FC018093FB01089590E080E0F8CF809506
:101590009091E40598239093E405089580959091A7
:1015A0004C04982390934C04089590914C04892BFB
:1015B00080934C0408951092F2011092F101109260
:1015C000F001089580916F0490917004892B89F047
:1015D0000E9470062091FB013091FC01AC01421B7E
:1015E000530B81E020916F04309170044217530730
:1015F00008F480E0817008959091EF01292F28234D
:1016000021F0809589238093EF010895E6ECF1E0C5
:101610009191891303C0DF0111971C9291E0EC3C7A
:10162000F907B1F70895A6ECB1E0EFEF90E02D9146
:10163000821751F0EF3F19F4211101C0E92F9F5F8C
:101640009630A9F7EF3F09F408950E2E000CFF0B1A
:10165000EC53FE4F828308958091E30590919A05A3
:10166000981301C008958F5F8770FACFA82FA770D5
:1016700023E0969587952A95E1F7FC01EE0FFF1F71
:10168000E80FF91FE60FF71F50E040E080E02191DE
:1016900030E00A2E02C0369527950A94E2F72170B1
:1016A0003327042E01C0220F0A94EAF7822B4F5FE2
:1016B0005F4F4330510559F70895903FC9F094307A
:1016C00080F48D30A8F4282F30E061ED71E0A9019D
:1016D000EDE09E9F400D511D1124CA010E94360B62
:1016E00008959C5F923020F46EEC71E090E0F6CFAC
:1016F00080E00895262F277091E001C0990F2A9568
:10170000EAF723E0769567952A95E1F7FB01EE0F5E
:10171000FF1FE60FF71FE40FF51F50E040E0682FB2
:1017200070E08191DF0111979B01042E02C0369574
:1017300027950A94E2F72170219528272923282745
:101740002C934F5F5F4F4330510559F70895282F71
:10175000862F903F79F0943070F42D3058F4622F3A
:1017600070E02DE0929F600D711D112441ED51E05C
:101770000E947A0B08959C5F9230E0F7622F70E030
:101780004EEC51E0F5CF80930C02089590910C023D
:1017900021E030E0F90101C0EE0F8A95EAF7D901A6
:1017A00002C0AA0FBB1F6A95E2F7EA2B01C0220F05
:1017B0004A95EAF7892F8E23E81305C0292B822F3B
:1017C0000E94C30B089520952923F9CF21E030E032
:1017D00001C0220F8A95EAF7209580910C0282239E
:1017E0000E94C30B08959091F20180958923809304
:1017F000F201282F277069F4891759F090914B0452
:1018000092FF07C08695869586950E94E60B0E94FA
:10181000DB0A089521E030E001C0220F8A95EAF743
:1018200080910C02822B0E94C30B089590914B046F
:1018300092FF10C098E0899F90011124622B609361
:10184000F2010E940A0C0E9470069093F1018093AD
:10185000F00108950E940A0C08958093FE010895F6
:1018600092959F70963091F058F4925F9F709230ED
:1018700058F4803F19F030F4883E30F481E0089548
:101880009A5FF4CF843FD1F380E00895883EB0F3AF
:10189000813FD1F7F3CF9C013A9521153F4150F597
:1018A000FC01EE27F170BC0166277270AC01442781
:1018B00054709C012227387094FF0EC080E1EF2BFA
:1018C00009F480E0672B09F08062452B09F0806401
:1018D000232B89F08068089581E0EF2B09F480E0E4
:1018E000672B09F08260452B09F08460232B19F0E7
:1018F0008860089580E008950F931F93CF93DF933E
:101900008B01EA0190919005943061F58093E90094
:101910008FEF9091E800815095FD06C095ED9A9566
:10192000F1F700008111F5CF8091E80085FF1AC022
:101930000E941505811111C08091E80085FD06C047
:101940008091E8008E778093E800F2CFF8018191D2
:101950008F018093F100219779F78091E8008E77CD
:101960008093E800DF91CF911F910F91089543E09C
:1019700050E0BC0184E00E947C0C0895CF93DF937B
:10198000EC0148E050E0BC0181E00E947C0C88E062
:10199000FE01A6E8B5E001900D928A95E1F7DF918E
:1019A000CF91089581E08093E00080E28093D80099
:1019B0001092C9008FE19EE40197F1F700C000008A
:1019C00087E090EBDC018093E5059093E605A0931A
:1019D000E705B093E80588E19CE00FB6F894A89578
:1019E000809360000FBE90936000FFCF019708F4D2
:1019F0000895EFE9FFE03197F1F700C00000F6CF5E
:101A00008091A10280FD0AC0E1E4F2E0118210821F
:101A10001282339652E0E536F507C1F7509A3BB192
:101A20003E7F2BB121604FB7F89481E492E0FC0136
:101A30005191CF0168E02BB9000000C057FF3BB9BE
:101A4000550F000000C000C000C03BB900C06A953F
:101A500091F7F2E085369F0751F74FBF8FE594E08D
:101A60000197F1F700C000000895EF92FF920F93E5
:101A70001F93CF93DF938C01C1E4D2E0F12CE12CD2
:101A8000F80194816091A3028091A202F6E0EF1622
:101A9000F104ECF49923E9F09E014091A4020E9424
:101AA000D5072FEFE21AF20A23968CE0E816F1042C
:101AB00039F70E94000DF801848190E00196817051
:101AC00099278483CDB7DEB7E6E00C94853599235A
:101AD00019F39E0140E0E3CFB0E0A0E0E2E7FDE0D3
:101AE0000C946335EC014C81042F10E09801D8016F
:101AF0000E941D379B01AC010E94E8364B015C013E
:101B0000E0E2F0E0E01BF10BA5E5B0E0AC019B01E9
:101B10000E94E8366B017C019F01DF010E944E3577
:101B20009B01AC010E94F3369B01AC01280D391DCD
:101B30004A1D5B1DC701B6010E94FB36F22E822FA3
:101B400090E039E23F1598F143E0249F9001112481
:101B500035952795122F109591E4C92E92E0D92E34
:101B600000E085E5E82EEF188E2D01FD8F2D960102
:101B7000412F6091A3020E94D5070F5F53E0C50E6D
:101B8000D11C0C3089F70E94000D9C8181E09923C3
:101B900019F0903219F48FEF809319018091190197
:101BA000890F8C83CDB7DEB7ECE00C947F3525E54B
:101BB00030E0A901481B590BCA019A01220F331FBB
:101BC000280F391F37FFC4CF2F5F3F4FC1CF0F936F
:101BD0001F93CF93DF93C1E4D2E0FE011182108204
:101BE0001282339682E0E536F807C1F710E000E094
:101BF00080913F02082E000C990B081719078CF1F1
:101C000080911801082E000C990B801791074CF158
:101C10009E014091A4026091A3028091A2020E94C1
:101C2000D5070F5F1F4F23960C30110509F70E944F
:101C3000000D8091170190913F02980F90933F0201
:101C400020911801280F20931801121614F49B30CC
:101C50001CF0819580931701DF91CF911F910F9117
:101C60000895198218821A82DCCFB0E0A0E0EBE37D
:101C7000FEE00C946635FC018281DD24DA9480FD5F
:101C800002C0DD24D39401E412E0D0E0C0E02CE0F7
:101C9000B22EF80111821082128294E0E92EF12C0A
:101CA000C12C80913E028C0D8D30C4F16B2D0E94B1
:101CB0000B35892F082E000C990B8C179D0791F47A
:101CC0008091A4028E9DA0018F9D500D11245595E9
:101CD00047955595479598016091A3028091A2027E
:101CE0000E94D507CD0CF1E0EF1AF108D1F621964C
:101CF0000D5F1F4FCC30D10561F60E94000D809121
:101D00003E0291E0D91210C081110CC08BE080938B
:101D10003E02CDB7DEB7E9E00C94823587FFCACF2B
:101D2000845FC8CF8150F3CF90E00196BE010E943E
:101D30002D35EDCFEF92FF921F93CF93DF93EC0100
:101D400081E4E82E82E0F82E10E08C81970140912A
:101D5000A4026091A302810F0E94D5071B5E83E05D
:101D6000E80EF11C1C3F89F70E94000D9A818C81BE
:101D700090FF08C08F5F8C83DF91CF911F91FF9000
:101D8000EF9008958150F7CF9091A10290FF0CC081
:101D9000E1E4F2E0818360834283339692E0E536AA
:101DA000F907C1F70E94000D0895A3E0B0E0EBED44
:101DB000FEE00C946B358C018091400281110AC0C9
:101DC0009E012F5F3F4F4FEF6FEF0E94D5078A8133
:101DD00080934002F8016481613069F08091400293
:101DE00040E0662361F040E0623011F4409140022F
:101DF00080E060E004C06091400240E080E00E942A
:101E0000C40EF801848190E0019663E070E00E94C6
:101E10002D3584832396E4E00C948735A3E0B0E06D
:101E2000E4E1FFE00C946D359091A10290FF0AC0AF
:101E30009E012F5F3F4F0E94D5074B8169818A81A8
:101E40000E94C40E2396E2E00C948935CF93DF9371
:101E5000EC01E1EAF2E0438162818C810E940E0F85
:101E60008C818F5F8C83DF91CF910895CF93DF9327
:101E7000EC01EC81F0E0EE57FB4F4491E1EAF2E037
:101E8000628181810E940E0F8C818F5F8C83DF9134
:101E9000CF910895CF93DF93C9E3D3E060E0CE0103
:101EA0000E948D362196C11584E0D807B9F7DF91DD
:101EB000CF9108950F931F93CF93DF93142F022F89
:101EC000843020F5623010F598E0899FE0011124FC
:101ED00084E0689FB0011124C60FD71FC753DE4F9F
:101EE00082E090E0442311F090E080E0632F8C0FBB
:101EF0009D1F0E948D3683E090E0112311F081E058
:101F000090E0602F8C0F9D1F0E948D36DF91CF9146
:101F10001F910F9108951F93CF93DF93122F843059
:101F2000E0F46430D0F44D30C0F4C42FD0E0CC0FD6
:101F3000DD1F9AE1699FC00DD11D112498E6899F8C
:101F4000C00DD11D1124632FCE0189960E948D36BC
:101F5000612FCE018A960E948D36DF91CF911F911D
:101F60000895CF93C82F6FEF811168EF85E290E05D
:101F70000E948D366FEFC11163E986E290E00E9406
:101F80008D366FEFC11165E587E290E00E948D36D6
:101F9000CF9108959B018F3070F49AE0899FB00132
:101FA0001124635F7D4F4AE050E0C9010E94593619
:101FB00090E080E008958FEF9FEF0895AAE0B0E0F1
:101FC000E4EEFFE00C946D359C0137552F3F310551
:101FD00009F068F4BE016F5F7F4F0E94CA0F892B22
:101FE00031F489859A852A96E2E00C9489358091AE
:101FF000850490918604F7CFFF920F931F93CF93A0
:10200000DF93F42E843070F5623060F528E0829F13
:102010008001112434E0639FB0011124060F171FC3
:1020200007531E4F82E090E0442311F090E080E0DF
:10203000800F911F0E946936C82FD0E0DC2FCC277B
:1020400083E090E0FF2011F081E090E0800F911F8D
:102050000E9469369E01282BC901CDB7DEB7E5E0A5
:102060000C94863590E080E0F8CF0F931F93CF93C8
:10207000DF93843030F5643020F54D3010F5C42FF7
:10208000D0E0CC0FDD1F2AE1629FC00DD11D1124CD
:1020900038E6839FC00DD11D1124CE0189960E9480
:1020A0006936082F10E0102F0027CE018A960E9473
:1020B00069369801282BC901DF91CF911F910F91AB
:1020C000089590E080E0F8CF2091340230913502FD
:1020D000232BD9F4703F39F4603FB9F48091A90201
:1020E0009091AA020895743048F46D3070F48430F1
:1020F00060F4462F672F0E94351008957D3F41F40C
:10210000623018F441E0843050F090E080E00895AF
:102110007C3FD9F76230C8F78430B8F740E00E94BE
:10212000FC0F0895CF92DF92FF920F931F93CF93EE
:10213000DF936C0100910C028091FE01082BC3E03B
:10214000D0E010E0FC2EC8010C2E02C095958795BA
:102150000A94E2F780FD0CC02197A0F7F12C8F2D97
:10216000DF91CF911F910F91FF90DF90CF90089555
:10217000B6018C2F0E9464100E947509019761F3CB
:10218000EECFCF93DF93EC010E949210BE010E942C
:1021900064100E947509DF91CF910895FC0184813C
:1021A000882371F087819085009729F00E94750936
:1021B0000E94300C0895808191810E94C110F8CF57
:1021C00080E00895A6E0B0E0E8EEF0E10C946C3514
:1021D00049835A8349815A819923A1F0222391F09E
:1021E000CA010E949210182F682F89819A810E943B
:1021F000A70B69817A81812F0E9464102696E3E003
:102200000C948835CA010E945D0B182FF2CFFC0197
:10221000262F87819085009741F44081518162810A
:102220007381848195810E94E21008950F931F931A
:10223000CF93DF930DE614E0C9EED1E0CE010E940A
:102240006936F80161918F01681719F0CE010E947B
:102250008D362196CD30F2E0DF0781F7DF91CF9107
:102260001F910F9108950F931F93CF93DF930DE666
:1022700014E0C9EED1E0CE010E946936F8018193E5
:102280008F012196CD30F2E0DF07A9F7CCE8D5E049
:10229000FE0185919491009711F0FC0109952C960F
:1022A000F6E0CC31DF07A1F7DF91CF911F910F91BD
:1022B000089585E290E00E946936883F89F486E2BD
:1022C00090E00E946936833959F487E290E00E94D9
:1022D000693691E0853509F090E0892F8170089585
:1022E00080E0FCCF90914B0492FB222720F9281725
:1022F00079F080FB92F990934B0460914A047091BD
:102300004B0484E090E00E94AB3682E00E94F30B25
:102310000895DA019C012E5F3F4FF90145915491D8
:10232000F90125913491A217B30758F0FC013496B6
:10233000859194910E9449360E94161190E080E0A8
:1023400008958FEF9FEF0895DB01FC0132962591F0
:1023500034914217530758F0FC01349665917491FB
:10236000A901CD010E94493690E080E008958FEFE9
:102370009FEF0895AAE0B0E0E0ECF1E10C9467353E
:10238000E4EBF3E086E9DF011D928A95E9F7E8E9DD
:10239000F4E089E6DF011D928A95E9F784EBC82E07
:1023A00083E0D82E7F0103EA12E0F701D182C082D8
:1023B0004AE050E0B801CE0101960E94593688E00B
:1023C000FE013196D60101900D928A95E1F789853B
:1023D0009A85D70113969C938E931297BAE0CB0EF1
:1023E000D11CE7E0EE0EF11C065F1F4F0933F3E04E
:1023F0001F07D9F62A96E8E00C948335B0E0A0E0F8
:10240000E4E0F2E10C945F35FC016280448081E0FD
:102410008483E2E8F4E07490E1E0F5E0E491009177
:10242000A4020695015810E0000F111F012F11277B
:10243000C5E6D2E021E4C22E22E0D22E31EA832E7C
:1024400032E0932EAA24AA94B12C55245A94E71969
:10245000EE2EF12C82E0861530F08091A202888366
:102460008091A3028983411016C01B821A829601B3
:102470004A81698188810E94D507259683E0C80E2C
:10248000D11C8C169D0631F70E94000DCDB7DEB72A
:10249000E0E10C947B358B818823E9F081508B83BC
:1024A000859DC00111246C8170E00E941935FB01EB
:1024B000FF27EE57FB4F8491E82FE719E59DC001F8
:1024C0001124B7010E9419358091A402689FB001C0
:1024D00011247A83CCCF0E941636B5010E942D3587
:1024E0008017910724F682E0861588F40E9416363C
:1024F000B5010E942D3588830E9416362091A302D3
:102500002695622F70E00E942D35280F29831A82AC
:102510008091A402893C20F088EC8C838B83A7CF28
:102520008431D8F784E1F9CFB0E0A0E0EAE9F2E144
:102530000C94633549015A016B017C010E94C60766
:102540008401A4016A2D7B2D88E090E00E949F36D3
:1025500094014A2D5B2DB601C70100E20E94AF3500
:10256000622F84E290E00E948D36CDB7DEB7ECE0BA
:102570000C947F35A3E0B0E0E0ECF2E10C94603520
:10258000F82E762EE42E622E9091A10290FF2EC09E
:10259000E92FE695AE2FB0E0A957BE4F8C918093FE
:1025A0003C029E7F923031F59E012F5F3F4F8F2D71
:1025B0000E94D5074B8169818A810E94C40EF092E6
:1025C000A2027092A302E092A402662079F0209108
:1025D000A1026091A5027091A6023F2D472D5E2DAC
:1025E0008091A7029091A8020E9494122396EFE096
:1025F0000C947C35823019F4E090A402E0CF863050
:1026000019F4F090A202DBCF8930D9F38931B9F601
:10261000E9518E2F8170582EE695F0E0E358FB4F7C
:10262000E4910E2F10E081E4C82E82E0D82EB12C68
:10263000A12C9CE0892E912CC501B4010E94193572
:102640008F2D511013C0860F96014E2D672D0E94BD
:10265000D507A00EB11E83E0C80ED11C85E6C816B2
:1026600082E0D80649F70E94000DA9CF861BECCF67
:10267000E1EAF2E0438121E1421B08F440E021E07D
:10268000628181810E94BA120895E1EAF2E04381F9
:1026900021E1420F08F44FEF21E0628181810E9425
:1026A000BA120895E1EAF2E0628121E1621B08F4C6
:1026B00060E021E0438181810E94BA120895E1EA3D
:1026C000F2E0628121E1620F08F46FEF21E04381C3
:1026D00081810E94BA120895E1EAF2E0818121E04D
:1026E0004381628188500E94BA120895E1EAF2E0C3
:1026F000818121E043816281885F0E94BA1208953E
:102700008091A502882319F081508093A502209121
:10271000A1023091A2024091A3025091A4026091C3
:10272000A5027091A6028091A7029091A8020E9432
:10273000941208958091A502833018F48F5F8093DE
:10274000A5022091A1023091A2024091A3025091D2
:10275000A4026091A5027091A6028091A7029091B7
:10276000A8020E94941208959091A10290FF34C093
:102770009170811132C092609093A102662391F012
:102780002091A1023091A2024091A3025091A40293
:102790006091A5027091A6028091A7029091A80273
:1027A0000E9494126091A102669570E04BE050E0A7
:1027B0008CE091E00E942F36892BB1F010923D02FF
:1027C00081E08093390220E04091A4026091A3024D
:1027D0008091A2020E94BA1208958B3210F0946583
:1027E000CBCF880F982BC8CF81E080933D020E9409
:1027F00070069093370280933602E2CF8091A10257
:102800008695815009F48AE261E00E94B41308952C
:102810008091A10286958F5F8B3208F081E061E0A4
:102820000E94B41308959091A10290FF08C096955C
:10283000981728F0961718F40E940814089561E07C
:102840000E94B4130895E1EAF2E083E080831182EC
:102850008FEF828383831482758123E030E04FEF12
:102860005FEF60E0868197810E949412089590E066
:1028700080E00E947736863E9E4F19F40E945911DF
:10288000089580E00895A8E0B0E0E9E4F4E10C9454
:1028900063358E010F5F1F4F88E0F80111928A9512
:1028A000E9F792E6E92E91E0F92E6801AA24A394B3
:1028B000B12CF70181917F018F3F09F446C0F89454
:1028C000E82FE295EF70F0E021A18F70A50102C022
:1028D000440F551F8A95E2F7CA01922F982B91A3B6
:1028E00092A18095892382A3789400C0E6E6F1E066
:1028F00021E030E0912C812C41914F3F09F467C0D9
:10290000A42FA295AF70B0E090968C9190E04F709C
:1029100002C0959587954A95E2F780FD58C0C90198
:10292000882A992A220F331F51E0E337F50721F750
:10293000F701319780818F3F11F00E946D0880EA86
:102940008A95F1F7F60191828082F2E0CF0ED11CD8
:1029500046E6E41641E0F40609F0ABCF48E050E06B
:10296000B80184E092E00E943C36892B99F188E01E
:10297000F801A4E0B2E001900D928A95E1F781E0C0
:10298000809303020E9470069093020280930102DA
:1029900080910102909102020E9455060597F0F085
:1029A00048E050E064E072E08CE292E00E943C3645
:1029B000892BC9F088E0E4E0F2E0ACE2B2E00190FB
:1029C0000D928A95E1F781E01092030208C090E031
:1029D00080E0A6CF809103028111DACF80E02896B3
:1029E000ECE00C947F3580E0EFCF80914C04909127
:1029F000E405892B8093C4018091FD01882309F1AE
:102A000080916F0490917004892B29F00E94E20A52
:102A100081110E94930A8091C4019091FD01892B3C
:102A20008093C40120E086EC91E0FC013191CF015C
:102A300031112F5FF1E08C3C9F07B9F721110E9403
:102A4000930A48E050E063EF71E084EC91E00E946B
:102A50003C36892BA9F088E0E4ECF1E0A3EFB1E08B
:102A600001900D928A95E1F7E0917A05F0917B054E
:102A7000309731F00280F381E02D84EC91E00995EC
:102A80000895CF93DF93EC014A855B856E857F8542
:102A90000E94D3068B810E94C70A8C810E94CE0AB5
:102AA0000E94F51486E0FE0111928A95E9F7DF9104
:102AB000CF910895CF93DF93EC018D8181FD14C0F8
:102AC00082608D838091E4059B81892B8093E4054E
:102AD0008C810E94D50A0E94F514488559856E851F
:102AE0007F85CE010E94D30610927705109276055D
:102AF0008D8180FD03C0CE010E944115DF91CF91F1
:102B0000089580911C01877F80931C0182E00E94C0
:102B1000C70A80911C0184FF06C08F7E80931C0130
:102B200082E00E94D50A80911C0185FF06C08F7D3E
:102B300080931C0180E20E94D50A0E94F51408953A
:102B400010924C04E6ECF1E086E0DF011D928A95DC
:102B5000E9F790E080E00E94A10690E080E00E940A
:102B60007C061092E4050E94F5140895AAE2B0E0F4
:102B7000ECEBF5E10C946C3582E995E02091F100E5
:102B8000DC012D93CD01B5E08A399B07B9F780911F
:102B90009305833009F472C0B8F4813009F449C058
:102BA000823009F4B3C08091E80083FF96C280911F
:102BB0009205909193059A3008F08FC2E92FF0E0CA
:102BC000E25DF84C0C9441358A3009F48EC08B30AC
:102BD00009F471C0893039F780919205813219F773
:102BE0008091960590919705009711F00297D9F67C
:102BF0008091E800877F8093E8008091E80082FF61
:102C000038C09091F3008091F200029731F48091E6
:102C1000F100813011F0863021F48091F100809331
:102C200085058091E8008B778093E8000E94460537
:102C3000BACF80919205813A09F0B5CF8091E80032
:102C4000877F8093E8008091960590919705892B66
:102C500061F468E086E895E070E00E94F2058091FA
:102C6000E8008B778093E8009ECF60E090E080E002
:102C7000F3CF809190058111C0CF95CF80919205BF
:102C8000813A09F090CF8091960590919705892B14
:102C900009F089CF8091E800877F8093E8008091D8
:102CA000E80080FFFCCF809120018093F1008091AB
:102CB000E8008E77B9CF80919205813209F073CF09
:102CC0008091960590919705892B09F06CCF8091A2
:102CD000E800877F8093E8000E9446058091940574
:102CE000809320010E94A0155ECF809192058132D1
:102CF00009F059CF8091E800877F8093E8000E9417
:102D0000460580919505809384054DCF809192056D
:102D1000813A09F048CF8091E800877F8093E800EE
:102D20008091E80080FFFCCF80918405BECF803881
:102D300099F0823809F0D1C1809196058F70873063
:102D400008F0CBC18093E9008091EB0085FB8827D8
:102D500080F91092E90006C080918E0590918F0550
:102D6000911182609091E800977F9093E8008093A2
:102D7000F1001092F1008091E8008E77AAC18823BB
:102D800009F498C1823009F0A8C18091940581119D
:102D90009BC1809196058F702FEF280F263008F089
:102DA0009CC18093E9002091EB0020FF8DC19330FE
:102DB00031F48091EB0080628093EB0085C19091AB
:102DC000EB0090619093EB0021E030E001C0220F16
:102DD0008A95EAF72093EA001092EA008091EB00CE
:102DE0008860EACF811179C1109194051F77809195
:102DF000E3008078812B8093E3008091E800877F57
:102E00008093E8000E9446058091E80080FFFCCF97
:102E10008091E30080688093E30082E0111183E0F9
:102E2000809390055AC18058823008F056C1209195
:102E30009405309195052C3DE3E03E07A1F583E034
:102E40008A838AE289834FB7F894DE01139620E0E3
:102E50003EE051E2E32FF0E050935700E49120FF71
:102E600003C0E295EF703F5FEF708E2F90E0EA3085
:102E7000C0F0C7968D939D932F5F243159F74FBFB4
:102E80008091E800877F8093E8006AE270E0CE01DD
:102E900001960E94F2058091E8008B778093E8000C
:102EA0001CC1C096E7CF8091960590919705432F5E
:102EB00055274330510509F44AC078F54130510592
:102EC00009F485C08BE590E0E2EDF7E04230510572
:102ED00009F003C12091E800277F2093E8002091AA
:102EE0009805309199058217930708F49C0140E0FA
:102EF0002115310509F070C041116EC08091E800C4
:102F000082FDC9CF80919005882329F2853019F27E
:102F10008091E80083FFF2CFBECF4132510509F422
:102F200047C04232510509F0D8C08330910508F0FE
:102F3000D4C0FC01EE0FFF1FEB54FE4F0190F08157
:102F4000E02D8E549E4FDC018C9190E01DC0332704
:102F500021303105E9F02115310579F022303105B4
:102F6000F9F02330310509F0B8C0EFE3F8E0E4915F
:102F70008E2F90E0EFE3F8E007C0E5E8F8E0E49199
:102F80008E2F90E0E5E8F8E0009709F4A6C0A2CF04
:102F9000EBE6F8E0E4918E2F90E0EBE6F8E0F4CF7A
:102FA000EDE5F8E0E4918E2F90E0EDE5F8E0ECCF70
:102FB0008330910508F091C0880F991FFC01E554FA
:102FC000FE4F0190F081E02D89E090E083CF82E117
:102FD00090E0EDE2F8E07ECF80919005882309F43F
:102FE0005ACF853009F457CF8091E80083FD53CF45
:102FF0008091E80082FD82CF8091E80080FF78CF49
:103000009091F3008091F2002115310519F088307C
:10301000910550F041E0089709F040E08091E80008
:103020008E778093E80064CF44914093F10031960D
:10303000215031090196E8CF803809F04EC08091C7
:10304000E800877F8093E800809191058093F100EC
:1030500092CE811142C0109194051230F0F580910A
:10306000E800877F8093E800109391050E94460551
:10307000112311F084E005C08091E30087FDFACFB1
:1030800081E08093900542E061EC81E00E9465055B
:1030900042E261EC84E00E94650542E261EC82E07C
:1030A0000E94650542E260EC83E00E946505809124
:1030B000900513C080919405813079F481E09330BC
:1030C00009F080E080938F051092E9008091E8007C
:1030D000877F8093E8000E9446058091E80083FF87
:1030E0000AC08091E800877F8093E8008091EB0020
:1030F00080628093EB00AA96E3E00C948835EDE6BD
:10310000F4E0128E138E8FEA90E09183808385E045
:10311000848F28E833E13383228322E330E0378B46
:10312000268B28EC30E0318F208F158E178E168E6F
:1031300020E530E031A320A382A30E9416110E9453
:10314000A01510924B0410924A04EBE4F4E0808145
:103150008460808360914A0470914B0484E090E025
:103160000E94AB360E9433110895A4E1B0E0EBEB6E
:10317000F8E10C946035C0901E01D0901F0181E0F1
:1031800090E090931F0180931E0182EBE82E87E070
:10319000F82E92E1A92E96E0B92E10E0450100E04C
:1031A00015C0F30125913491452D602F812F0E9488
:1031B0008B0F82E0680E711C5394EDE05E12F1CF2C
:1031C000FAE18F0E911C0F5F043019F03401512C7D
:1031D000E8CFF7012591349141E060E0812F0E9412
:1031E0005A0FF70132962591349140E060E0812F2B
:1031F0000E945A0FF70134962591349141E061E025
:10320000812F0E945A0FF70136962591349140E0A4
:1032100061E0812F0E945A0F88E0E80EF11C1F5FC9
:10322000E8E6AE0EB11C143009F0B8CF0E947F184A
:103230001A8219821C821B821E821D8218861F829E
:1032400088EC90E09A8789870DE012E04AE050E030
:10325000B801CE0101960E94B136065F1F4F033AB6
:10326000F2E01F0799F77E018BE0E80EF11C8AE07F
:10327000F70111928A95E9F74AE050E0B801C701D9
:103280000E94B136065F1F4F0933F3E01F07A1F715
:10329000D0921F01C0921E016496EFE00C947C3521
:1032A00080E00E94B10F60E088E290E00E948D36DD
:1032B0000E94B5180E944A0F81E00E94B10F089544
:1032C000CF92DF92EF92FF928FEF9FEF4430510544
:1032D00008F46CC0FB01C080D180E280F3800E94C2
:1032E000A01580914A04C0FA80F9B701A60176952D
:1032F00067955795479540FB81F9B701A60122E0F4
:1033000076956795579547952A95D1F740FB82F9B1
:10331000B701A60133E076956795579547953A959D
:10332000D1F740FB83F9B701A601E4E076956795F4
:1033300057954795EA95D1F740FB84F9B701A60167
:10334000F5E07695679557954795FA95D1F740FB47
:1033500085F9B701A601A6E076956795579547953B
:10336000AA95D1F740FB86F9B701A601B7E076959B
:10337000679557954795BA95D1F740FB87F98093A4
:103380004A0480914B04D0FA80F9D1FACC24C0F8D9
:10339000C0FA81F980934B0460914A0470914B0408
:1033A00084E090E00E94AB3690E080E0FF90EF90E8
:1033B000DF90CF9008950E94A0152FEF84E39CE04A
:1033C000215080409040E1F700C0000088E19CE07F
:1033D0000FB6F894A895809360000FBE909360009C
:1033E000FFCF882321F00E94C70A0E94F514089598
:1033F000882339F09091E405982B9093E4050E947E
:10340000F5140895882321F00E94CE0A0E94F51435
:103410000895882321F00E94D50A0E94F51408958A
:10342000882309F44DC0823879F40E94C60681FFD2
:1034300047C089E30E94130B0E94F51489E30E94A0
:10344000060B0E94F5140895833859F40E94C606AD
:1034500080FF36C083E50E94130B0E94F51483E5BC
:10346000EECF843859F40E94C60682FF29C087E453
:103470000E94130B0E94F51487E4E1CF9CEF980F94
:10348000913AE8F290E2980F983050F4877091E00A
:1034900001C0990F8A95EAF7892F0E94CE0AD1CFF1
:1034A0009BE5980F933028F490E080E00E94A106FD
:1034B0000895885A8B3120F490E080E00E947C06C9
:1034C0000895CF93DF93EC010E94101ACE010E9461
:1034D0004B0C9E01205E31092830310510F0CD2BB8
:1034E00029F40E94021ADF91CF9108950E94F119E8
:1034F000FACFCF93C82F8823C9F08238C9F40E942D
:10350000C60681FD13C089E30E94130B0E94F514C7
:103510002FEF87EE93E0215080409040E1F700C00C
:10352000000089E30E94060B0E94F514CF910895D4
:103530008338A1F40E94C60680FDF8CF83E50E947F
:10354000130B0E94F5142FEF81EE94E02150804080
:103550009040E1F700C0000083E5E4CF8438A1F497
:103560000E94C60682FDE2CF87E40E94130B0E94F0
:10357000F5142FEF81EE94E0215080409040E1F768
:1035800000C0000087E4CECF8CEF8C0F813A70F43E
:10359000E6ECF1E08CEC91E02191C21779F18E1705
:1035A0009F07D1F78C2F0E94130BBECF80E28C0FA8
:1035B000883048F4C77081E001C0880FCA95EAF7E7
:1035C0000E94D50AB1CFEBE5EC0FE33040F4F0E018
:1035D000E75DFE4F808190E00E94A106A7CFC85A08
:1035E000CB3108F0A3CFEC2FF0E0EE0FFF1FE45D2E
:1035F000FE4F808191810E947C0698CF8C2F0E9483
:10360000060B0E94F514CECF1F93CF93DF93182F94
:10361000C0918D04D0918E04893321F0C0918B0428
:10362000D0918C04812F0E94791A209739F4812F30
:103630000E94101ADF91CF911F9108958FE99FE0AA
:103640000197F1F700C000002197EFCFB0E0A0E0B4
:10365000ECE2FBE10C946535EC018AE0A82E2881B0
:10366000222309F48FC02130C9F599818A819130D4
:1036700021F422960E94041B05C0923029F4229660
:103680000E94791A2196EBCF933021F422960E9462
:10369000101AF8CF943011F02196F4CF229630E032
:1036A00020E0AE014F5F5F4F8053990B8A30910548
:1036B00050F02150310930F38FE99FE00197F1F785
:1036C00000C00000F6CFA29EB001A39E700D112491
:1036D0009C01260F371F8981EA01E3CFE22FF0E03A
:1036E000E754F74FB490822F86958695869590E0A3
:1036F000FC01E755F74FE4902770F12C022E02C031
:10370000F594E7940A94E2F731E0E322FF24FC0108
:10371000E756F74FC490D12C022E02C0D594C7941F
:103720000A94E2F731E0C322DD24FC01E757F74FAA
:10373000049110E002C0159507952A95E2F70170F3
:103740001127E114F10419F081EE0E94791AC114D5
:10375000D10419F086EE0E94791A8B2D0E94041B69
:10376000C114D10419F086EE0E94101AE114F1047C
:1037700019F081EE0E94101A0115110509F482CF8B
:103780008CE278CFCDB7DEB7EAE00C948135CF93E9
:10379000DF93EC010E944B0C9E01205E3109283022
:1037A000310510F0209741F40E94091A8C2F0E94D5
:1037B000791ADF91CF9108950E94F819F7CF662307
:1037C00029F02091E40522602093E4059C01305209
:1037D0002115304308F499270E94C71B0895B0E0D3
:1037E000A0E0E5EFFBE10C9467356C018B01E42E62
:1037F00080911C0182FF87C0C0919304D0919404F2
:10380000CC15DD0521F0C114D10409F07CC08091F4
:103810001C018B7F80931C0181FD6EC080919104FF
:1038200090919204A801481B590B81E020911A0144
:1038300030911B014217530708F480E08170F82E85
:1038400080911C01F0FA81F980931C01FE0183E054
:10385000F695E7958A95E1F7EE71FF27E35BFB4F5D
:1038600020813181AE014F70552781E090E002C088
:10387000880F991F4A95E2F7FF2009F43FC0822B79
:10388000932B9183808380914C0481FF08C08091A9
:103890001C01806180931C0182E00E94CE0A80910D
:1038A0004C0485FF08C080911C01806280931C013C
:1038B00080E20E94CE0A6F2DCE010E94DF1BEE2017
:1038C00031F08091880485FF02C086FF30C080916E
:1038D0008B0490918C040E94F60C8091930490913B
:1038E00094049C0130522115304308F499270E941A
:1038F000611A0E94811517C081E0A0CF8095909534
:1039000082239323BECFC601905281159043A0F429
:10391000C60199270E94611A8091930490919404A2
:103920008C159D0531F31093920400939104CDB74B
:10393000DEB7E8E00C948335C601ECCFA4E0B0E03C
:10394000E4EAFCE10C9463357C01DC0114968C9173
:10395000882309F4DDC261E0C7010E9407118C01D0
:10396000F7018581882319F180917605909177057B
:103970000097E9F008171907D1F09927E4E0880FBC
:10398000991FEA95E1F7FC01E753FD4F2081246080
:1039900020838C539D4FDC010D931C930E945A157C
:1039A0001092E40561E0C7010E9407118C01F70144
:1039B0008581882309F4B1C0980137572038310533
:1039C00008F0ABC0D02EFFE0F01708F491C28FEFE3
:1039D00093E00E94693681118BC209E313E0D11094
:1039E00036C019821A821B821C8299249A9468011B
:1039F0003FEFC31AD30AC8010E94693689831A822D
:103A0000882309F475C2813009F081C0580142E071
:103A1000A40EB11CC6010E946936C82E8A83882371
:103A200009F466C2C5010E946936D82E8FEF8C0D4D
:103A30008330D8F4580153E0A50EB11CDB82DD20A1
:103A400021F0CE0101960E94261B8501D0CF0115E1
:103A500024E0120709F44CC2C8010E9469368111A2
:103A600001C0DA940F5F1F4FBACF8BEF8C0D8330FC
:103A700030F5C8010396DB825C01DD2031F358018B
:103A8000A4E0AA0EB11C0E9469368C838823E9F257
:103A90008B819C818130BFEF9B0710F0982F882786
:103AA000E6E0CE1631F0F7E0CF1631F00E94B729EC
:103AB000CCCF0E949229C9CF0E941929C6CF24E0F9
:103AC000C212C3CF580134E0A30EB11CC801039643
:103AD0000E946936DD2009F40BC2882309F408C26C
:103AE0008150990B989E9001999E300D11244D2D77
:103AF0004150550BCA01820F931F019708F4A5CFBF
:103B0000AFE9BFE01197F1F700C00000F6CFCE019A
:103B100001960E94261B560198CF6801E7E5DE1A40
:103B2000811179C0FFEFCF16D10411F008F079C0F0
:103B30006AEB72E08C2D0E94CA0F892B29F5C60111
:103B400064E0880F991F6A95E1F7FC01EC53FD4F83
:103B50002281213009F04CC02091BA023091BB0281
:103B6000232B91F02091BC023091BD02232B61F0F8
:103B70002091BE023091BF024091C0025091C1021B
:103B8000242B352B232BE1F1F801FF2784E0EE0FE6
:103B9000FF1F8A95E1F79F012C533D4F6901D70123
:103BA00015968C91E753FD4F908180FB90F990839F
:103BB00081117FC0D6011C964D915C911D971E9678
:103BC0006D917C91C6010E94D306F601858181FF2B
:103BD00028C0C6010E944115809176059091770515
:103BE00008171907F1F4109277051092760519C09D
:103BF000223051F62091BE023091BF02232B21F2D8
:103C0000FC01E753FD4F20812E7F20838C539D4F75
:103C10000E945A15B9CF2FEFC216D10409F008F44B
:103C2000B3CF8091880480FF32C00E9470066C017F
:103C3000D70115968C91882309F47DC080911C01D1
:103C400082FF08C029E132E040E0B60190E080E068
:103C50000E94EF1B0431BCE71B0709F468C0053163
:103C6000ECE71E0709F458C00331FCE71F0729F4ED
:103C700080911C01816080931C01C80190528115C4
:103C8000904308F066C01092940410929304F701D8
:103C900085818111E1C480914C048272F801E05267
:103CA000F847E531F10508F0D3C1E85CF84C0C9415
:103CB00041350E9470069093180280931702D60136
:103CC00012968C9112978F5F12968C931297809117
:103CD000E40590914C04892B13968C931397809153
:103CE000FD0114968C93149716964D915C9117973D
:103CF0001E966D917C91C6010E94D306F6018581C6
:103D000081FF07C090E080E090937605809377056F
:103D100088CF902F812FF8CF90911C01892F8E7F13
:103D200090FF816080931C010E948115A6CF809135
:103D30001C018E7FF7CF80911C018F7E013E110503
:103D400031F0053E1105C9F480911C018F7D8093EF
:103D50001C0180911C0180FF9ACFD70115968C9190
:103D60000832110500F50E31110508F06DC0043060
:103D7000110558F5811187CF8ACFC801905281155E
:103D8000904338F780911C0182FF81CF80918A0493
:103D900081FD7DCF29E132E040E0B60190E080E096
:103DA0000E94EF1B74CF0933110558F40D32110531
:103DB00018F40B321105F1F69091880492FDDACFD8
:103DC00008C004361105C1F3D5CF9091880494FD45
:103DD000D1CF882309F4BCC08091FD0190914C049F
:103DE000892B8D7FB1F110929404109293048091ED
:103DF000880481FD2EC0F80153E0F695E7955A95A9
:103E0000E1F7EE71FF27E35BFB4F98012F7033273B
:103E100081E090E002C0880F991F2A95E2F7809513
:103E2000909520813181822393239183808360E068
:103E3000C8010E94DF1B8091FD018D7F0E949E0AB8
:103E400082E00E94F30B54C09091880493FD92CFBE
:103E5000C0CF89E0F701A9E1B2E001900D928A9507
:103E6000E1F710921E0210921C0210921B02809128
:103E70009304909194040817190709F04DC02091FC
:103E8000880425FF49C030911C0131FF02C026FF84
:103E900043C020919104309192045601A21AB30AB2
:103EA000B7010E94DE0FA816B906B0F580914C0448
:103EB00081FF08C080911C01806180931C0182E019
:103EC0000E94CE0A80914C0485FF08C080911C019D
:103ED000806280931C0180E20E94CE0A60911C01E6
:103EE0006695617080919304909194040E94DF1B09
:103EF0008091F201877061F0D70115968C9188232B
:103F000039F080914B0482FF03C082E00E94F30BE2
:103F10002496ECE00C947F358091FD0190914C0447
:103F2000982B20911C0191FB21F920931C018D7F7E
:103F30000E949E0A1093940400939304D0929204DA
:103F4000C092910480911C01846080931C0178CF01
:103F5000970140E0B601C8010E94EF1BC9CF8091D4
:103F6000A10280FF19C0282F2E7F2093A10230913B
:103F7000A2024091A3025091A4026091A502709107
:103F8000A6028091A7029091A8020E94941210921A
:103F90003D020E94000DACCF81608093A10261E0E0
:103FA00086950E94B413A4CF4EEF53E168E074E10C
:103FB0000E94C0079DCF48E054E16EEF73E1F8CF57
:103FC0004CE653E166E773E1F3CF46E753E16CE675
:103FD00073E1EECF42E553E16FE573E1E9CF4FE5E1
:103FE00053E162E573E1E4CF48E353E165E473E153
:103FF000DFCF45E453E168E373E1DACF40E853E112
:104000006AE973E1D5CF4AE953E160E873E1D0CFC3
:1040100061E081E0C6CF65E082E00E94131468CFC2
:1040200068E086E0FACF6EE089E0F7CF64E18FE0E8
:10403000F4CF67E185E1F1CF61E088E1B2CF62E2E0
:1040400089E1EBCF61E083E2ACCF6AE285E2E5CFC4
:104050000737FCE71F0709F44FC008372CE71207A2
:1040600009F44EC0F70187819085009709F478C064
:104070000E947509182F092FF701B580C680C294D8
:104080004FE0C4228091F2018770F1F0AB2CBB208D
:10409000E1F0892F807F803451F080E2810F8830F9
:1040A00098F0C11004C0892F807E803269F0809121
:1040B0004B0482FF09C082E00E94F30B8091F20161
:1040C0008770AA24A3948111A12C902E92943FE092
:1040D0009322FBE0F91508F4D3C0E92DF0E0E35B8F
:1040E000F84C0C94413581E00E940A0C43E062E0F8
:1040F00081E00E94C60BFCCE81E00E94E60BF6CF69
:1041000082E0FBCF0B359CE7190741F10C35ACE79A
:104110001A07D1F00A351C4709F0A4CF81E01BC073
:104120000E94A015EFEFF4E32CE0E150F0402040B6
:10413000E1F700C000000E94D20C6FEF7FEF90E02B
:1041400080E00E94AB36A3C280914B0482FB88279B
:1041500080F991E089270E94721184CF80E0FBCF23
:10416000858100811181882369F0C8010E94921025
:10417000D82E682FC8010E94A70BB8018D2D0E9470
:10418000641076CFC8010E945D0BD82EF6CF202F89
:104190002F70D22E802F807F19F0D29420EFD22260
:1041A000BB20A9F0DD2059F080E2810F883010F0AB
:1041B000111107C08D2D0E94D50A0E94F514812F80
:1041C0005DC08091E405D82AD092E405F6CF812F16
:1041D0000E94101ADD2009F453C080E2810F88305C
:1041E00010F0111104C08D2D0E94CE0A03C08D2D38
:1041F0000E94C70A0E94F51443C0302F3F70D32E8F
:10420000802F807F803219F0D29490EFD922112331
:1042100039F1113009F4B6C0BB2009F4C2C0CC207A
:1042200009F466C020E0D7014C9111965C9111977A
:1042300012966C91129713967C91139714968C9109
:10424000149715969C910E94E21080918A0481FD3A
:10425000B6CFF701868180FFB2CF8F70868348C0CA
:1042600080914B0482FD40C0BB20C1F1DD2029F0CC
:104270008D2D0E94D50A0E94F51480E00E94791AC3
:10428000A92DA850BB0B149710F40E94C606812FCD
:10429000902F0E94300C8111BFC11092CD0110925D
:1042A000CC01AA20B1F08091F20180FD12C0D701AB
:1042B00015961C928695869586950E940A0CC701D4
:1042C0000E949E1C8091F2018695869586950E949B
:1042D000E60B60E0C7010E9407111ACE80E00E9441
:1042E000101ADD2069F27FCFBB2091F1C11004C00C
:1042F0008D2D0E94091AC4CF41E0C41211C08090D4
:10430000FD018D2D8821D81609F4BACF0E947006C0
:104310009093FC018093FB01D828D092FD01B0CF8F
:1043200080918904823008F4ABCFC812A9CF8D2DBB
:104330000E94091A8D2D0E94B20A8091EF019D2DD5
:104340009823D91609F49CCFD82AD092EF0198CFA0
:10435000C1100AC08D2D0E94021A8D2D0E94B20A32
:104360008D2D0E94FC0A8CCF80918904823008F444
:1043700087CF51E0C51284CF80914C048D2109F480
:104380007FCFE8CF80918F04BB2021F08C1508F4FB
:1043900077CFAECFC81608F073CF8D2D0E94021ACA
:1043A0006FCFCC20D1F380918D0490918E0419337E
:1043B00021F080918B0490918C040E94F60C812F47
:1043C0000E94101A5DCF802F86958695837069F0C4
:1043D000813009F055CF812F902F9370B11002C01A
:1043E00080E090E00E947C064BCF812F902F93704D
:1043F000B11002C080E090E00E94A10641CF802F62
:10440000837091F5B1103CCF412F4295469547708E
:10441000440F440F812F8F70042E01C0880F0A941F
:10442000EAF7212F207114FF07C02FE030E001C010
:10443000220F4A95EAF72095302F3695369533703E
:10444000323069F050F44091FE01313029F0822B76
:1044500084230E942D0C14CF842B822BFACF282B7F
:104460008091FE018227F5CF8695BB2011F0802F29
:104470008170882309F404CF412F429546954770F7
:10448000440F440F812F8F70042E01C0880F0A94AF
:10449000EAF7212F207114FF07C02FE030E001C0A0
:1044A000220F4A95EAF72095302F369536953370CE
:1044B000323069F050F440910C02313029F0822BF7
:1044C00084230E94C30BDCCE842B822BFACF282BB3
:1044D00080910C028227F5CFF02FFF70DF2EBB20DA
:1044E00029F08F2F0E940A0C812F03CF812F0E9469
:1044F000021A8D2D0E94E60BC3CE123F89F160F4A3
:10450000103FB9F0113F81F0BB2009F480C0C11009
:1045100056CE802F8F7128C0133F49F1143FA1F769
:1045200080914B0482FD2FC0802F8F71BB2011F32F
:104530001BC080918F04BB2079F0C81608F0A0CE74
:10454000202F2F7181E090E001C0880F2A95EAF7B3
:1045500090910C028927B5CF8C1508F491CEF0CF3D
:10456000802F8F71B110C6CF0E940A0C89CE80E0D7
:10457000BB2009F4A6CF81E0902F9F7101C0880F66
:104580009A95EAF79ECF80918904823040F1BB2052
:10459000D1F09091F2019770943041F40E94DB0ABF
:1045A000802F8F710E94E60BA12C6ACEC816E0F70F
:1045B000202F2F71D22E822F0E940A0C63E08D2DA6
:1045C0000E94160CF1CFC81630F00E94DB0A64E09E
:1045D000802F8F71F5CF81E00E94F30BE5CFBB20D8
:1045E00059F0302F3F71D32E832F0E940A0C63E0C5
:1045F0008D2D0E94160C44CE81E00E94F30B41E009
:104600004C1508F03DCE82E00E94F30B39CEC1106C
:10461000CACE802F8F716ECFBB2019F0C1103DCE56
:1046200040CEC1103ACE20E0F70140815181628135
:104630007381848195810E94E21080918A0483FFB6
:104640002CCE8091CC019091CD01029709F025CE1E
:10465000812F0E94041B21CE0737BCE71B0709F4FA
:1046600042CD82E00837ECE71E0709F43DCD033068
:104670003CE7130709F461CD08F044CD01155CE770
:10468000150709F44DCD01301C4709F0EBCC0E9411
:10469000DB19B0E0A0E0EFE4F3E20C946835809120
:1046A000EC01807F09F054C08091EB01882309F46C
:1046B0004FC0E091E30589E0D82E80919A058E17CE
:1046C00009F446C00E2F10E0ED9DF0011124E556CF
:1046D000FA4F8481882309F440C0D09EE001D19E26
:1046E000D00D1124FE01E556FA4F91818091E7012A
:1046F000981333C090818091E60198132EC0858174
:1047000081112BC0E280F3808091E8019091E90152
:10471000E81AF90A60E086EE91E00E94071166EE61
:1047200071E00E94DE0FE816F906B8F48091EC0102
:104730008F7080618093EC01CF55DA4F88818F7044
:104740008061888386EE91E00E949E1C0E942C0B63
:10475000CDB7DEB7E7E00C948435F8013196E77009
:10476000ACCFA8E1B0E0E7EBF3E20C9460358C014C
:1047700086E0F801DE01539601900D928A95E1F7EB
:10478000D80114967C9014971596EC9086EEA82E7E
:1047900081E0B82E8091EA0181112AC0711003C016
:1047A000FF24F3941CC0EE20F9F0C8010E94CE1043
:1047B000F82E8823C9F089E0F801A6EEB1E0019057
:1047C0000D928A95E1F78091EA01813031F4809170
:1047D000E6019091E7010E94C1100E9449238F2DAC
:1047E0006896EFE00C947C35C8010E949E1CD8CFDF
:1047F000F80150806180C280D38060E086EE91E055
:104800000E940711F090EB018091E8019091E9017D
:104810004601881A990A60E086EE91E0FF2009F4CB
:1048200028C10E94071166EE71E00E94DE0F881613
:10483000990608F0D1C0772009F4B2CF8091EC013D
:10484000382F307F2091E701D80111969C91119764
:10485000311171C029131FC02091E6019C912913C9
:104860001AC04091ED015091EE0117962D913C91A7
:104870004217530781F4E11054C08F708061809318
:10488000EC0186EE91E00E949E1C8091EC01F80103
:104890008683F12CA4CFE11044C0662D852D0E94A3
:1048A000D704E82E882381F080918A0480FFF1CF1D
:1048B00086EE91E00E949E1C89E0E6EEF1E0DF01C9
:1048C0001D928A95E9F7E5CF5B8A6C8A8B899C8972
:1048D0000E94C110292F22952F70243058F49F7008
:1048E000223088F0992399F0F8019681907F79F42D
:1048F000FE2C75CF2A5F2F70223068F0C8010E940D
:104900009E1CEF2CF5CF992311F0882389F3805E4C
:10491000883070F3F3CF803F58F3815F833070F7B6
:10492000E7CF8091EC0181608093EC0180918A0453
:1049300081FDAFCFBDCF291320C02091E6019C910E
:1049400029131BC04091ED015091EE0117962D9156
:104950003C9118974217530781F4E1100EC0169648
:104960008C93C8010E949E1C89E0F801A6EEB1E07C
:1049700001900D928A95E1F732CFC8010E94CE10C6
:10498000882309F431CFEE2009F42ECF8091EC0179
:104990008032B8F02091E6013091E7013B872A8709
:1049A000DD86CC869091EA019E871F86888B809158
:1049B000ED019091EE019A8B898BCE010A960E94AF
:1049C0009E1C89E0F801A6EEB1E001900D928A9557
:1049D000E1F70E944923E4CE8091EC01982F907F6B
:1049E00009F466CF772009F4DBCE2091E701F801C6
:1049F000918129131AC02091E6019081291315C0D5
:104A00004091ED015091EE01278130854217530707
:104A100061F4E1100AC08683C8010E949E1C89E0EF
:104A2000D5011D928A95E9F7DACEC8010E94CE1011
:104A3000882309F4D9CEEE2009F4D6CE8091EC017A
:104A4000803208F4BECF2091E6013091E7013A832D
:104A50002983DC82CB829091EA019D831E828F8321
:104A60008091ED019091EE0199878887CE010196A2
:104A7000A6CF0E94071166EE71E00E94DE0F881635
:104A8000990608F04AC0772009F48ACEFE2CEE2061
:104A900009F4AACE9091E701F801818198132FC003
:104AA0009091E601808198132AC02091ED01309108
:104AB000EE01878190852817390709F58091E80173
:104AC0009091E901C81AD90AF8ECCF16D10408F080
:104AD0004BCF9091EC0190FD47CF907F09F444CFEC
:104AE0008091EC01D80116968C931697903F09F4AB
:104AF00038CF982F907F905F8F70892B30CFC8016F
:104B00000E94CE1081115DCF8091EC018160809375
:104B1000EC01C8010E949E1C62CE89E0F501119251
:104B20008A95E9F75CCEA2E1B0E0E9E9F5E20C9400
:104B30006B350A871B872C873D874E875F87688B7D
:104B4000798B8A8BCE010A960E94B12381110CC009
:104B500089E0FE013A96DE01119601900D928A9548
:104B6000E1F78E8581110BC019E08091E3059091EA
:104B70009A05891331C06296E4E00C948735209140
:104B80009A0530E0C9010196877099274091E305A5
:104B90004817190699F099E0929FD001939FB00DA4
:104BA0001124A556BA4FFE01319601900D929A95A7
:104BB000E1F780939A050E942C0BD6CF0E94A01596
:104BC00010929A051092E30589E0E6EEF1E0DF012C
:104BD0001D928A95E9F7C8CF819FC001112485569F
:104BE0009A4F0E94B123882331F28091E30590E02F
:104BF0000196877099278093E305B7CFEF92FF92D4
:104C00000F931F93CF93DF9380910105882361F069
:104C1000E09197048DE0F82E80910105E81748F0A7
:104C20001092010510929704CDB7DEB7E6E00C9420
:104C30008535EE24E394EE0EE0929704CE2FD0E07B
:104C4000EF9DF0011124EE5FFA4F84818823E9F093
:104C500087819085892B21F481859285019659F46D
:104C60000081118122813381448155816681778160
:104C700080850E949325FC9EF001FD9EF00D11247D
:104C8000EE5FFA4F14821092E405EE2DC5CF10921C
:104C900075051092740510921D0180917305809323
:104CA00072050E9407070E94FE250895B0E0A0E06B
:104CB000ECE5F6E20C945E35C091720597E0992E12
:104CC00001E010E02DE0322E34E0432E55245394C1
:104CD000809173058C1309C00E94FE250E9407076E
:104CE000CDB7DEB7E1E10C947A35D0E0FE01EE0FEE
:104CF000FF1FE659FA4F80819181989ED001999EBD
:104D0000B00D1124A856BB4F14962C911497211165
:104D100059C060900105E2E0F5E030E020E0812C30
:104D20005D01261508F04CC0E384F484D501CD90D4
:104D3000DC906FEF7FEF712C472D50E0DA01AA0F66
:104D4000BB1FAC0DBD1D0D90BC91A02D109731F077
:104D5000EA16FB0609F4BA017394EECF6F3F7607AB
:104D6000A9F1D80102C0AA0FBB1F6A95E2F78A2AEF
:104D7000B801072C02C0660F771F0A94E2F7AB0157
:104D8000415051098416150601F5329EF001339EFB
:104D9000F00D1124EE5FFA4F989ED001999EB00D50
:104DA0001124A856BB4F12962D913C911397308732
:104DB00027834482108211829287818715965C92A4
:104DC0000E94D9062196C37083CF14822F5F3F4F74
:104DD0003D96A7CFAEE1B0E0E0EFF6E20C945D3592
:104DE0004B8B5C8B6D8B7E8B8F8B988F882349F0E0
:104DF0008091CC019091CD0101969093CD0180934B
:104E0000CC01888D81111092E405188A198A1A8ABA
:104E100086E0FE017396DE011A9601900D928A9546
:104E2000E1F780914B0482FF1EC080916F04909146
:104E30007004892BC1F00E9470062091F00130911E
:104E4000F101821B930B20916F0430917004821743
:104E5000930720F08091F20182FFE7C10E94E20AED
:104E600081110E94930A8E85882389F061E0CE012A
:104E70000A960E9407116C018F8520E5C2162CE767
:104E8000D20689F4882329F181E080931D010A85E7
:104E90001B852C853D854E855F85688979898A8942
:104EA0000E949325CDC031E5C3163CE7D30629F413
:104EB000882379F00E944726EACF42E5C4164CE7E2
:104EC000D40639F4882329F080911D018111F2CF95
:104ED000DBCF98E9E92E94E0F92E412CB12CA12CDE
:104EE00088248394912CBE016F5F7F4F7A8F698FE6
:104EF00022242394F7014081518166246A94762C00
:104F000020E0822F90E0FC01EE0FFF1FE40FF51F61
:104F1000608171816115710531F0C616D70609F4FB
:104F20003C012F5FEECF312CFFEF6F167F0609F4A7
:104F300048C0F701448130901D01832D411180E06C
:104F4000F82FF1703F2EF701558086819F859923B8
:104F500009F4F7C0332009F4F4C0009183041091E0
:104F60008404511013C0A401062C01C0440F0A94FC
:104F7000EAF7842B8683809195049091960480179C
:104F8000910720F41093960400939504C40102C085
:104F9000880F991F2A95E2F70197F70126812817B4
:104FA000190679F48091740590917505009709F4BC
:104FB0004BC00E9455060817190708F045C0F701B5
:104FC00024824328FFEFAF1ABF0A27E0E20EF11C4C
:104FD0003FE0A316B10409F08DCF8F85882309F433
:104FE00010C1442009F40DC10E947006909375050C
:104FF0008093740580910105883010F591E0980F39
:105000009093010599E0FE013A96DE011196019018
:105010000D929A95E1F74DE0849FC00111248E5FB7
:105020009A4F29E0FE013196DC0101900D922A95FC
:10503000E1F72FEF3FEFFC0132872187D486C3864B
:105040006E96E2E10C94793580917205509173056A
:10505000982FF0E0E0E0851314C090937205EE16EF
:10506000FF0609F4AECF90E0FC01EE0FFF1FE659FA
:10507000FA4FB182A08201968370992780937305BD
:10508000A0CF682E712CF301EE0FFF1FE659FA4FE7
:1050900020813181F7E0F29FD001F39FB00D112400
:1050A000A856BB4F2D913C9111973E8F2D8F40E01C
:1050B00020E030E0E32FF0E0EE0FFF1F6D8D7E8DDE
:1050C000E60FF71F0081118101151105E1F0F701CD
:1050D0000190F081E02DFC8FEB8F20E005C00617DA
:1050E000170709F4432D2F5FE22FF0E0EE0FFF1FAB
:1050F0006B8D7C8DE60FF71F6081718161157105E5
:1051000071F73F5FD7CF4423C9F0F701231708F0A9
:10511000FD012482EE16FF0621F490937205342ED1
:1051200050CF981305C0AE17BF0711F49F5F93705F
:1051300093012F5F3F4F822F83708DCFF0E0E0E02F
:10514000F7CF90E0511020C0B40102C0660F771F66
:105150002A95E2F79B01215031098217930731F418
:10516000442309F44CC0C5010E94D906C401062C91
:1051700001C0880F0A94EAF7982F9095F70186816D
:1051800089238683352C1DCFAC01062C02C0559592
:1051900047950A94E2F7BA01617077279C01215084
:1051A000310982239323892B31F5672B21F1F701F4
:1051B00082819381892BE1F0E98DFA8D27E01192AC
:1051C0002A95E9F70E947006282F8B839C8334E090
:1051D0003D83F70182819381782F888799870981A0
:1051E0001A813C8144E05E816F81892F0E94932562
:1051F000F7011582BBCFF42FF1705F2EB7CF532C80
:10520000B5CF9091720580917305981729F00E948F
:105210005626411015CF3BCE0E94FE2510927505F3
:10522000109274050E940707F4CF82E00E94F30BEE
:1052300015CEA6E0B0E0EFE1F9E20C946D35909365
:10524000AA028093A902811520E2920730F40E94FD
:10525000611A2696E2E00C94893580EF89838A836F
:105260000E9470068160682F9C838B8349815A81DC
:105270007C8181E090E00E94EA26EBCF0F931F93A0
:10528000CF93DF938C01EB016AEB72E08C2F0E94CD
:10529000CA0F892BA1F480918B0490918C040E94F9
:1052A000F60CDD27C555DD4F8881F8011282188282
:1052B0008330F1F048F4813059F0823081F0DF9191
:1052C000CF911F910F9108958430B9F08530B9F7CF
:1052D0008091BA029091BB02009789F306C0809139
:1052E000BC029091BD02009799F30E941929E7CF63
:1052F0008091BE029091BF02F6CF8091C002909142
:10530000C102009791F72091BA023091BB028091BF
:10531000BC029091BD0221153105F1F2009729F7E9
:10532000C901E3CFA6E0B0E0E8E9F9E20C946D35FD
:105330009093AA028093A902811520E2920730F48B
:105340000E94C71B2696E2E00C94893580EF898382
:105350008A830E9470068160682F9C838B834981B9
:105360005A817C8181E091E00E94EA26EBCFCF93C5
:10537000DF93EC010E94922980918B0490918C0420
:105380000E94F60CCE010E941929DF91CF91089559
:105390000F931F93CF93DF938C01862F6AEB72E0FC
:1053A0000E94CA0F892BB1F4C091BA02D091BB02FE
:1053B000209781F0F8018281833051F4CE010E9460
:1053C000B729CE010E94B729CE010E94B72902C099
:1053D0008430D0F7DF91CF911F910F9108950F93F3
:1053E0001F93CF93DF938C01EB016AEB72E08C2F5C
:1053F0000E94CA0F892B09F05CC0FE01FF27D8016B
:1054000012968C911297E555FD4F8130B9F415969F
:105410009C9192FF02C080830AC090FFFCCF82E083
:1054200080838091BC029091BD020097B9F4809175
:10543000BA029091BB020097E1F110C08230B9F539
:1054400015968C9182FD28C080FD0BC083E080837F
:105450008091BE029091BF02009701F10E949229B3
:1054600028C084E080838091C0029091C10200979F
:10547000A9F78091BA029091BB020097F9F00E94BF
:10548000B7298091BC029091BD02009739F78091B5
:10549000BA029091BB02E2CF85E080838091BA028C
:1054A0009091BB02009729F00E94B729F0CF86E0C7
:1054B0008083DF91CF911F910F9108958091BC025D
:1054C0009091BD02B8CFA6E0B0E0E9E6FAE20C9414
:1054D0006B350E9470068C018091FF019091000253
:1054E0008017910781F019821A820E947006682F36
:1054F00049815A81792F80E090E00E94EA2610933A
:1055000000020093FF012696E4E00C948735A8E0A2
:10551000B0E0EDE8FAE20C946D3566EE7EEF90E0D7
:1055200080E00E94AB3660E082E090E00E948D3621
:1055300060E083E090E00E948D361092FE0160E012
:1055400074E184E090E00E94AB3660E086E090E099
:105550000E948D366FEF87E090E00E948D3640E02C
:1055600050E0BA0188E090E00E949F3660E084E25B
:1055700090E00E948D3660E087E190E00E948D36D9
:1055800060E08CE090E00E948D3660E08DE090E07D
:105590000E948D3619821A821B821C821D821E82F5
:1055A0001F82188648E050E068E170E0CE01019665
:1055B0000E947D3640E050E0BA0180E290E00E9417
:1055C0009F3680E00E94B10F0E94501940E050E0E9
:1055D000BA018FE090E00E949F3640E050E0BA01AF
:1055E00083E190E00E949F362896E2E00C94893592
:1055F0001F920F920FB60F9211242F933F934F9348
:105600005F936F937F938F939F93AF93BF93CF934A
:10561000DF93EF93FF93D091E900DF708091EC006E
:10562000C82FC17080FDC0E81092E9008091F000A1
:10563000877F8093F00078940E94B6151092E9005D
:105640008091F00088608093F000CD2BCF70C093E4
:10565000E900FF91EF91DF91CF91BF91AF919F91C1
:105660008F917F916F915F914F913F912F910F900B
:105670000FBE0F901F9018951F920F920FB60F92AA
:1056800011242F933F934F935F936F937F938F9347
:105690009F93AF93BF93EF93FF938091E10082FFBD
:1056A00009C08091E20082FF05C08091E1008B7FFC
:1056B0008093E1008091DA0080FF24C08091D800BF
:1056C00080FF20C08091DA008E7F8093DA00809185
:1056D000D90080FF9DC080E189BD82E189BD09B408
:1056E00000FEFDCF81E080939005809183058111BC
:1056F00009C00E94F6040E9497058091E200846030
:105700008093E2008091E10080FF17C08091E20069
:1057100080FF13C08091E2008E7F8093E200809131
:10572000E20080618093E2008091D80080628093E3
:10573000D80019BC85E0809390058091E10084FF3A
:105740002BC08091E20084FF27C080E189BD82E107
:1057500089BD89B5982F917080FFFBCF8091D800CB
:105760008F7D8093D8008091E1008F7E8093E1004F
:105770008091E2008F7E8093E2008091E200816060
:105780008093E20080919105882309F447C084E06A
:1057900080939005809190058091E10083FF27C060
:1057A0008091E20083FF23C08091E100877F809396
:1057B000E10082E080939005109291058091E100D4
:1057C0008E7F8093E1008091E2008E7F8093E200E3
:1057D0008091E20080618093E20042E060E080E03E
:1057E0000E9465058091F00088608093F000FF9131
:1057F000EF91BF91AF919F918F917F916F915F9149
:105800004F913F912F910F900FBE0F901F901895C1
:1058100019BC109290051092830574CF8091E3001B
:1058200087FD93E090939005B5CF78941F921FB6B3
:105830001F9211248F939F93AF93BF9380917F0505
:1058400090918005A0918105B09182050196A11DDE
:10585000B11D80937F0590938005A0938105B0933F
:105860008205BF91AF919F918F911F901FBE1F9096
:1058700018951F921FB61F9211248F939F93AF9379
:10588000BF9380917E05811113C080917F05909117
:105890008005A0918105B09182054196A11DB11DA1
:1058A00080937F0590938005A0938105B093820536
:1058B000BF91AF919F918F911F901FBE1F90189520
:1058C000CDB7DEB7C155D1090FB6F894DEBF0FBE14
:1058D000CDBF85B7806885BF85B7806885BF84B731
:1058E000877F84BF0FB6F894A89580916000886187
:1058F00080936000109260000FBE80E890E00FB6C9
:10590000F89480936100909361000FBE8BE698E05D
:105910009093C3018093C2010E949B070E94BA1119
:105920000E9433110E94F6040E9497058091E200C4
:1059300084608093E2007894809190058823A1F0A0
:105940001091E9001F709091EC00892F817090FDFB
:1059500080E8182B1092E9008091E80083FD0E94F6
:10596000B6151F701093E90082E084BD93E095BDE9
:105970009AEF97BD80936E000E945911811102C069
:105980000E94501982E08093260295E8892E91E0CA
:10599000992E43E851E027E8E22E21E0F22E8A0119
:1059A000940161E070E0D9018D919D01E82FE295AD
:1059B000EF70F0E0B1A08F706B0101C0CC0C8A9544
:1059C000EAF79C2D90959B2191A382A18C2982A31B
:1059D000F80181918F01E82FE295EF70F0E0B1A01E
:1059E0008F706B0101C0CC0C8A95EAF79C2D9095C5
:1059F0009B2191A382A18C2982A3EA16FB0699F62A
:105A00008FE891E00197F1F700C0000010912602A5
:105A100067E272E0FB018E2F861B811708F454C0E9
:105A200087E90E946D0882E30E946D0885E30E9469
:105A30006D0884E30E946D0806E611E083E7E82E16
:105A400081E0F82EF80181918F018F3F11F00E94C3
:105A50006D08E016F106B1F788E0ECE2F2E0DF0154
:105A6000282F1D922A95E9F7E4E0F2E0DF011D926C
:105A70008A95E9F70E943714811102C00E94872A93
:105A800082E090E00E94693680930E0284E090E00C
:105A90000E94773690934B0480934A040E944314EB
:105AA000EFE3FCE93197F1F700C000000E944314D6
:105AB00080912C0280FF31C06FEF7FEF90E080E09B
:105AC0000E94AB360E94D20CD4012D914D01822F41
:105AD00082958F7090E0DC0190968C9190E02F7011
