:100000000C9493040C94CB040C94CB040C94CB046C
:100010000C94CB040C94CB040C94CB040C94CB0424
:100020000C94CB040C94CB040C94F9330C94D13481
:100030000C94AE330C94CB040C94CB040C94CB04F2
:100040000C94CB040C94CB040C94CB040C94CB04F4
:100050000C94CB040C94D5330C94CB040C94CB04AB
:100060000C94CB040C94CB040C94CB040C94CB04D4
:100070000C94CB040C94CB040C94CB040C94CB04C4
:100080000C94CB040C94CB040C94CB040C94CB04B4
:100090000C94CB040C94CB040C94CB040C94CB04A4
:1000A0000C94CB040C94CB040C94CB040501098074
:1000B000A101850319012AB700150126B700950192
:1000C00075108100C0050C0901A101850419012AE0
:1000D000A002150126A002950175108100C00660DE
:1000E000FF0961A1010962150026FF00952075082E
:1000F00081020963150026FF00952075089102C052
:1001000005010906A101050719E029E715002501E8
:10011000950875018102950175088101050719008F
:1001200029FF150026FF00950675088100050819AE
:1001300001290515002501950575019102950175A7
:10014000039101C009025B00030100A0FA09040049
:1001500000010301010009211101000122440007EF
:1001600005810308000109040100020300000009E1
:10017000211101000122220007058203200001074E
:100180000503032000010904020001030000000927
:100190002111010001223200070584032000011211
:1001A000010002000000081100264D0100010203B9
:1001B000011C037600690061006C003A006600369D
:1001C0000034006300320062003300630000000C62
:1001D0000363007500720069006F00000014036D76
:1001E000006500630068007600610075006C0074B3
:1001F00000000004030904290014001A0008001577
:100200000017001C0018000C00120013002A004CFC
:10021000002B0004001600070009000A000B000D67
:10022000000E000F00340000002800E50000001D53
:10023000001B0006001900050011001000360037F1
:10024000005200E100E400E300E200000021522A35
:10025000002C002C0022520000500051004F0001E1
:100260000001000100010001000100010001000186
:100270000001000100010001000100010001000176
:100280000001000100010001000100010001000067
:100290000001000100000001000100010001000157
:1002A0000001000100010001000100010001000146
:1002B0000001000000010001000100010001000038
:1002C0000001000100010001000100010001000126
:1002D0000001000100010001000100010001000116
:1002E0000001000100010001000100010001000106
:1002F00000010001000100000001000100000001F8
:1003000000010001000100010001000100010001E5
:1003100000010001000100010001000000010001D6
:1003200000010001000100000001000100010001C6
:1003300000010001000100010001000100010001B5
:1003400000010001000100010001000100010001A5
:100350000001000100010001000100010001000096
:100360000001000100000001000100010001000186
:100370000001000100010001000100010001000175
:100380000001000000010001000100010001000067
:1003900000010001000100510052004F0050000117
:1003A0000001000100010001000100010001000145
:1003B000000100010001000000000000000000003A
:1003C000000000000000000000000000000000002D
:1003D00000000000000000000000007E0F00D4FFBD
:1003E000FFFFC70000007800000000000000002AA6
:1003F0002B280000000000000000000000000000AA
:10040000000029000000002C1E3420212224342664
:1004100027252E362D3738271E1F2021222324255D
:10042000263333362E37381F0405060708090A0B12
:100430000C0D0E0F101112131415161718191A1B84
:100440001C1D2F3130232D350405060708090A0B22
:100450000C0D0E0F101112131415161718191A1B64
:100460001C1D2F3130354C2223252628292A2C2DDE
:100470002F3032333536383A3B3D3E4042434547D4
:10048000494A4C4E5051535557595A5C5E6062640C
:100490006668696B6D6F71737577797B7D7F81831A
:1004A0008587898A8C8E90929496989A9C9E9FA11B
:1004B000A3A5A7A8AAACAEAFB1B3B4B6B8B9BBBC3C
:1004C000BEBFC1C2C3C5C6C7C9CACBCCCDCED0D1B1
:1004D000D2D2D3D4D5D6D7D7D8D9D9DADADBDBDBA9
:1004E000DCDCDCDCDCDDDDDDDDDCDCDCDCDCDBDB4A
:1004F000DBDADAD9D9D8D7D7D6D5D4D3D2D2D1D09E
:10050000CECDCCCBCAC9C7C6C5C3C2C1BFBEBCBB9A
:10051000B9B8B6B4B3B1AFAEACAAA8A7A5A3A19F12
:100520009E9C9A98969492908E8C8A8987858381D6
:100530007F7D7B79777573716F6D6B6968666462B7
:10054000605E5C5A5957555351504E4C4A49474585
:100550004342403E3D3B3A3836353332302F2D2C26
:100560002A29282625232200010101010101010178
:100570000102020202020202020203030303030356
:100580000303040404040404040505050505060624
:1005900006060607070707070808080809090909E2
:1005A0000A0A0A0B0B0B0C0C0C0D0D0D0E0E0E0F88
:1005B0000F0F101011111112121313141415151618
:1005C000161717181819191A1A1B1B1C1D1D1E1E89
:1005D0001F202021222223242425262627282929DA
:1005E0002A2B2C2D2D2E2F30313232333435363705
:1005F00038393A3B3C3D3E3F404142434445464703
:1006000048494A4C4D4E4F50515354555658595ADB
:100610005B5D5E5F616264656668696B6C6D6F707F
:1006200072737577787A7B7D7E8082838587888AEE
:100630008C8E8F91939596989A9C9EA0A2A3A5A725
:10064000A9ABADAFB1B3B5B7BABCBEC0C2C4C6C921
:10065000CBCDCFD1D4D6D8DBDDDFE2E4E7E9EBEEDA
:10066000F0F3F5F8FAFDFF643214783C1E1E140A0C
:1006700005010001007205682A7E2A0000020002BE
:10068000006E05682A7E2A000003000100730568D9
:100690002A7E2A0000040002005805682A7E2A3CAF
:1006A00009050001007405682A7E2A000006000280
:1006B000005A05682A7E2A000007000200700568BB
:1006C0002A7E2A0000080001007505682A7E2A009B
:1006D00000120002007605682A7E2A00001300023C
:1006E000007805682A7E2A0000140001007A056857
:1006F0002A7E2A0000150000000000450941120072
:1007000000FD377A585A000004E6D6B446020021AC
:100710000116000000742FE5A3E0059B01E15D00D8
:100720003D8889C65436C3174FE4DCCCA45323E775
:10073000E1D3F8F6021C386E5A419154A91FC0AAA1
:100740009FC8D6C26097A1905B34C70ED99A472E36
:100750000D970547928E24BCE0F356509AC959D3A1
:100760004F2B787F7C1073A420FC5AF4F17A49CE89
:100770007638D4B17785CBFE4CFA2B8DF41DB1D8E9
:10078000323361E9B8F3FDB35C93EF79CEE7B3A2FE
:10079000F57244CB558018DAB06F714D5C410DEDA8
:1007A00020863CC8006F829BA7EFCE193B398FD9BA
:1007B000EF25B5798A006E278EDE567170857069D7
:1007C000559A79D295BDEF81A78F727488203ABF70
:1007D00006037B730382945350832D1AB797198EA7
:1007E0006EE9FA45DD672F2858ECB3FE728E691B5F
:1007F0006DBAB561E38FED8DBD0E561E7C04C6C289
:1008000033583D7786C2BC4757FFC327A2825FF7A4
:100810006C24B67502A3E2685BF9A1E55F274A3A4A
:1008200013C7905563F2D639D02795D406AABE3E99
:100830004D554748503FFB3F080D86D2CE3C66657C
:10084000CA4CFF1F2A16AE876685599EEAA224630A
:10085000150A9C582579E5A64DC6AAC6D5453FCAB6
:10086000E02A2ADE6554D8904156973BBCDD5A8079
:10087000B65A6F597A9EA4210C1D7B5594FC15A77E
:100880003FAA3470FB049C76B8A186846B2D6C283B
:10089000D4D7F43BD58A16D242A748D5D3FC6924D5
:1008A000340C3407860CE1FB1E52F1CF291267305D
:1008B000636EC67C479B27D32E4B1C09C0D46E2E7B
:1008C00009BEC7CED96A3E717F3C3CB2C1C2571D3A
:1008D000BF99393D269911CDA28E54C9621F417B23
:1008E000F94812A2FCC0A429B00893149814B4CFFC
:1008F0008040F1F71BF5F1B432ADDAB0EE1D5C8C3F
:10090000BF00000000434F2E4952088A540001FDE9
:10091000039C0B000037153AD6B1C467FB020000F8
:10092000000004595A0011241FBECFEFDAE0DEBFE9
:10093000CDBF04B603FE18C080918005909181055B
:10094000A0918205B09183058730904BA740B04BB2
:1009500059F4109280051092810510928205109230
:100960008305E0E0F8E3099511E0A0E0B1E0E4E9F7
:10097000FDE602C005900D92A639B107D9F725E032
:10098000A6E9B1E001C01D92A038B207E1F70E94CC
:10099000482B0C945F360C9400009C01FB019A9547
:1009A00081159F4120F5D901AA27B270832F81704C
:1009B000B90166277470A9014427587034FF0DC02F
:1009C0008295807FAB2B09F08062672B09F08064F1
:1009D000452B09F0806809950895AB2B09F08260DA
:1009E000672B09F08460452BB1F38860F4CF80E079
:1009F000F2CF282F92959F70963091F060F4925F1D
:100A00009F70923030F481E0203F79F030F4283E3E
:100A100030F080E008959A5FF3CF243FD1F7089536
:100A200081E0283EE0F3213FF9CF089580937204DE
:100A3000089580935705089521E030E001C0220F0A
:100A40008A95EAF780915705822B0E94190508952F
:100A500021E030E0A90102C0440F551F8A95E2F75A
:100A6000CA0180959091570589230E941905089520
:100A70009B01677091E001C0990F6A95EAF763E006
:100A8000369527956A95E1F7B901660F771F260F0E
:100A9000371FFA01E20FF31F40E050E0682F70E0CB
:100AA0008191DF0111979B01042E02C03695279595
:100AB0000A94E2F7217021952827292328272C93CF
:100AC0004F5F5F4F4330510559F708959C01A82FA0
:100AD000A77083E0369527958A95E1F7C901880FBD
:100AE000991F820F931FFB01E80FF91F40E050E0B0
:100AF00080E0219130E00A2E02C0369527950A94B5
:100B0000E2F721703327042E01C0220F0A94EAF77E
:100B1000822B4F5F5F4F4330510559F70895282FBF
:100B2000862F903F79F0943070F42D3058F4622F76
:100B300070E02DE0929F600D711D112441E453E09F
:100B40000E94380508959C5F9230E0F7622F70E0B4
:100B50004EE353E0F5CF903FC9F0943080F48D30F0
:100B6000A8F4282F30E061E473E0A901EDE09E9F36
:100B7000400D511D1124CA010E94660508959C5F15
:100B8000923020F46EE373E090E0F6CF80E00895B9
:100B90009091570521E030E0F90101C0EE0F8A95F0
:100BA000EAF7D90102C0AA0FBB1F6A95E2F7EA2B48
:100BB00001C0220F4A95EAF7892F8E23E81305C05A
:100BC000892F822B0E94190508952095822F892351
:100BD000F9CF8091EC029091EB02981301C0089537
:100BE0008F5F8770FACFAAE9B1E0EFEF90E02D9127
:100BF000821751F0EF3F19F4211101C0E92F9F5FD7
:100C00009630A9F7EF3F09F408950E2E000CFF0B64
:100C1000E856FE4F82830895EAE9F1E09191891345
:100C200003C0DF0111971C9291E0E03AF907B1F798
:100C30000895909174048095892380937404282FDB
:100C40002770211111C0891779F090917D0592FFCD
:100C50000BC08695869586950E942805109274048F
:100C60001092760410927504089590917004982B58
:100C7000909370040895982F909580917004892323
:100C800080937004089580916F04882331F010924E
:100C90006F0410926E0410926D040895803E9105C9
:100CA000D1F1C8F48133910509F47FC048F4893249
:100CB000910509F46FC08A32910509F47DC0089549
:100CC00089339105E1F082389105C9F085339105AA
:100CD00009F45BC00895843E9105D1F148F4823E49
:100CE000910531F1833E910541F181EE90E0089547
:100CF000863E9105C1F1873E9105E1F1089520916D
:100D00007C052370211165C020917D0523FF14C04F
:100D100089E290E0089520917C0520FD43C0309148
:100D20007D0530FF09C024FF4EC080E090E00895AB
:100D300020917C0522FDF7CF089520917C0522FDAE
:100D400045C030917D0530FD44C024FFF5CFEDCF87
:100D500020917D0521FFF0CF80917C0584FDE5CFBA
:100D600087EE90E0089520917C0523FFE5CF24FDD8
:100D7000DCCFF6CF20917C0523FD2EC030917D0580
:100D800031FFE3CF84EE90E0089520917C0525FFAC
:100D9000D3CFBECF20917C0525FD21C020917D05BC
:100DA00023FFCACF89E390E0089520917C0526FFB8
:100DB000C3CF8AE290E0089520917C0526FFBCCF46
:100DC00081E390E0089583EE90E0089582EE90E054
:100DD000089580EE90E0089586EE90E0089585E312
:100DE00090E0AACF90917C0592FF10C041E0282F9F
:100DF0002471243009F040E031E0282F2871283098
:100E000009F030E0431711F02CE0822793FF10C067
:100E100041E0282F2471243109F040E031E0282FEF
:100E20002871283109F030E0431711F02CE08227B7
:100E300030917D0530FF10C051E0282F2171213005
:100E400009F050E041E0282F2871283009F040E0F7
:100E5000541711F029E0822731FF10C041E0282FFC
:100E60002171213109F040E031E0282F287128312B
:100E700009F030E0431711F029E0822794FD877EC6
:100E800008951F93CF93DF930E944E06EC018115C6
:100E900022E5920708F053C0811540E5940708F059
:100EA000DDC0803E9105F8F48D3C910508F0AEC0A0
:100EB000883A910580F4853A910508F099C081300F
:100EC000910521F00497813A910550F4CE01DF910C
:100ED000CF911F910895885A91094B9708F48BC0C0
:100EE000C0E0D0E0F3CF811550E49507F8F4C115C8
:100EF00080E2D80708F0CBC0C83ED10538F3CE0158
:100F00009A9581159F4160F78D2F0E94F206182F48
:100F1000CE0199270E944E06212F30E0322F222742
:100F2000E901CC27DF71C82BD92BD0CF99270E949C
:100F30004E06CC27DF70C82BD92BD06AC7CF80389C
:100F400042E59407C8F5803652E5950708F067C07A
:100F5000C03482E5D807B0F08C2F869586958770CF
:100F600020E2829FC0011124C37021E030E0A9017A
:100F700002C0440F551FCA95E2F7EA01C82BD92BCE
:100F8000DC68A4CFC03252E5D50708F041C08C2FF1
:100F90008695869520E2829FC0011124C37021E0CE
:100FA00030E0A90102C0440F551FCA95E2F7EA01DB
:100FB000C82BD92BDD688ACF803C52E5950760F4B9
:100FC0008F71C03AD24508F03FC090E0982F882733
:100FD000EC01C46FD06A7ACF805C9245809708F0AC
:100FE0007FCFDC2FCC27CC27DF71C06FD06A6ECFCC
:100FF000A497D0646BCFC85AD0E0CC0FDD1FC05A85
:10100000DE4F0990D881C02DD46460CFD0655ECF0B
:10101000CF71D0E0DC2FCC27C16FD06A57CF869537
:101020008695877020E2829FC0011124C37021E061
:1010300030E0A90102C0440F551FCA95E2F7EA014A
:10104000C82BD92BDA6842CF0E94F206C82FD0E015
:10105000DC2FCC27CC27DF71D06238CF8F710E9474
:10106000F20665E0D695C7956A95E1F7CF70D0E0B6
:10107000DC2FCC27282F30E084FF05C054E0220F5E
:10108000331F5A95E1F7C22BD32BD0691FCF8D2F79
:101090008F710E94F206182FCE0199270E944E06EA
:1010A000212F30E0322F222722273F71282B392B86
:1010B000E901D2CF80E00895F894E82FE295EF702F
:1010C000F0E041A18F7021E030E0B90102C0660F6D
:1010D000771F8A95E2F7CB01962F9095942391A3E1
:1010E00092A1892B82A3789408950895A0E0B0E09E
:1010F000ECE7F8E00C945735E901E42FF0E0E9590A
:10110000FA4F61110BC0E4919E2F8E2F8983E883E3
:101110009A83CDB7DEB7EAE00C947335282F30E020
:10112000062F10E0F491EF2F86E0829F6001839FED
:10113000D00C1124EE24EA94F12CC601B7010E94D0
:101140001A35220F331F45E5469FC001479F900D7A
:101150001124281B390B822F880F280FC701801BF1
:10116000910BF89FA001F99F500D1124952F209FFE
:101170005001219FB00C1124AB2CBB24D701AA191C
:10118000BB095D01FA9DD001FB9DB00D11248B2F91
:101190005701A21AB1089501209F5001219FB00C60
:1011A000309FB00C1124AB2CBB24EA18FB08FE9D29
:1011B0009001FF9D300D112463307105C9F01CEFC3
:1011C000C11613E0D10650F46130710509F49ECFC9
:1011D0006230710589F08E2FE32F98CF643071054E
:1011E00071F066307105B9F3E52F9B2F8F2F8ECFED
:1011F000EB2F852F9F2F8ACF852F932F87CF832F7C
:10120000E52FF8CF80916504823028F481708260E8
:101210008093650408958E31E8F381708C61F8CF76
:10122000FA01882311F009950895FB01FCCF81157F
:101230002CE7920741F420910C0130910D01232BF2
:1012400011F480E090E00895E4E6F3E080E090E0BF
:1012500068E779E24FE959E224E13AE2778366836D
:1012600051874087338722879787868701967096B4
:101270008F30910599F708958091580590915905FF
:1012800090930B0180930A010895A0E0B0E0EBE495
:10129000F9E00C945535FB018FEF9FEF4430510579
:1012A00008F465C040917C0541FB882780F990E0F7
:1012B000880F991F42FBAA24A0F8B12CAA0CBB1CD2
:1012C000AA0CBB1C8A299B2940FB882480F8912CFE
:1012D0008829992943FBCC24C0F8D12C53E0CC0CAD
:1012E000DD1C5A95E1F78C299D2944FBEE24E0F89A
:1012F000F12C64E0EE0CFF1C6A95E1F78E299F2922
:1013000045FB002700F910E075E0000F111F7A95EA
:10131000E1F7802B912B46FB222720F9C22F20E0FA
:10132000D22FA6E0CC0FDD1FAA95E1F78C2B9D2BC9
:1013300047FB442740F920E8429FA0011124842B59
:10134000952B20917D05322F3170932B269521709E
:10135000B22FBB0FA0E08A2B9B2B092E000CAA0BEF
:10136000BB0B80839183A283B38380E090E0CDB7F1
:10137000DEB7ECE00C947135AC0123E096958795CF
:101380002A95E1F78E719927FC01ED53FE4F0190EC
:10139000F081E02D4F70552721E030E002C0220F90
:1013A000331F4A95E2F7662341F0E22BF32B8D536E
:1013B0009E4FDC01ED93FC93089520953095E22338
:1013C000F323F5CF1092E9041092E804E7E7F4E084
:1013D0008581811102C014821682379684E0E03E36
:1013E000F807B1F70895AC013091EB046091EA047D
:1013F000232F621301C00895822F90E0FC01EE0FAD
:10140000FF1FE052FB4F0190F081E02DE417F5073C
:1014100091F467E0649FF001659FF00D1124E95895
:10142000FB4F41E044832313E6CF01968370992755
:101430008093EB0408950196282F2370DACFFA01E8
:10144000309709F009950895E091E102F091E202E8
:10145000309729F00190F081E02D0995089580E002
:101460000895A3E0B0E0E7E3FAE00C945F359C0157
:101470008091C0019091C10182179307A1F0309330
:10148000C1012093C001E091E102F091E2023097A6
:1014900051F083E089833B832A830680F781E02D26
:1014A000CE01019609952396E2E00C947B35A3E0EA
:1014B000B0E0EDE5FAE00C945F359C018091BE014F
:1014C0009091BF0182179307A1F03093BF01209341
:1014D000BE01E091E102F091E202309751F084E028
:1014E00089833B832A830680F781E02DCE01019614
:1014F00009952396E2E00C947B352FB7F894809100
:10150000BA019091BB01A091BC01B091BD012FBF68
:10151000089580915A0590915B05892B91F00E9466
:101520007D0A20916D0430916E04AC01421B530B77
:101530009A0181E040915A0550915B0524173507C7
:1015400008F480E08170089590917D0592FF10C0AD
:1015500098E0899F90011124622B609374040E948B
:101560001C050E947D0A909376048093750408956B
:101570000E941C05089590916F04292F282322238F
:1015800061F08095892380936F04882339F00E944D
:101590007D0A80936D0490936E04089580E090E03E
:1015A000F8CFCF93C82F80917D0582FF0CC080912A
:1015B0006F048C1741F00E947D0A90936E04809313
:1015C0006D04C0936F04CF910895A4E0B0E0EBEEFA
:1015D000FAE00C945F358FB7F8942091BA013091FE
:1015E000BB014091BC015091BD0129833A834B83DB
:1015F0005C838FBF69817A818B819C812496E2E034
:101600000C947B359C014FB7F8948091BA0190916E
:10161000BB01A091BC01B091BD014FBF821B930BD8
:1016200008958091B90108950895FC019B0180916E
:10163000AF019091B0018617970740F0672B29F40E
:101640008091E8008E778093E800C90140E0009720
:1016500041F4411106C08091E80082FF2FC080E074
:1016600008952091DA022223A9F12530A9F12091D1
:10167000E80023FD2DC02091E80022FDECCF209151
:10168000E80020FFE4CF3091F3002091F2000097B2
:1016900019F02830310558F041E02830310509F0C3
:1016A00040E02091E8002E772093E800D0CF4191D0
:1016B0004093F10001972F5F3F4FE9CF8091DA020D
:1016C000882341F0853041F08091E80083FFC3CF4B
:1016D00081E0089582E0089583E008958091A90152
:1016E00087FF13C08091E80082FF06C08091E80068
:1016F0008B778093E80004C08091DA028111F2CFE9
:1017000008958091DA028823D9F38091E80080FF60
:10171000F8CF8091E8008E77ECCF2091E4003091F3
:10172000E50095E6A9018091EC008170882331F0F5
:101730008091E80080FF06C080E008952091E800D5
:1017400022FD1BC08091DA02882391F0853091F050
:101750008091EB0085FD10C02091E4003091E50000
:101760004217530701F391509111DCCF84E00895A3
:1017700082E0089583E0089581E00895E8EDF0E0C7
:1017800080818E7F80831092E2001092DA001092A6
:10179000E100A0EEB0E08C9181608C9380818F7726
:1017A000808319BCA7EDB0E08C918E7F8C938081F3
:1017B0008F7E80831092A8010895982FE42FE27005
:1017C0009093E900891308C0762F242F50E0E1118F
:1017D00011C091E0980FF4CF7091EC002091ED00D2
:1017E0005091F00021FD06C09F5F973049F780932C
:1017F000E90008953091EB003E7F3093EB0030918B
:10180000ED003D7F3093ED003091EB00316030937F
:10181000EB007093EC002093ED005093F0002091CA
:10182000EE0027FDE1CF0895A0E0B0E0EAE1FCE0A2
:101830000C945935C8EDD0E088818F7E8883E7ED20
:10184000F0E080818160808384E082BF81E08093CA
:10185000A80188818E7F888302EE10E0F801108253
:101860001092DA0081EEC82ED12CF6011082888108
:101870008F77888388818068888388818F7D88833B
:1018800019BC1092DA021092A7011092B8021092BD
:10189000A60190EEE92EF12CF70180818B7F8083E9
:1018A00088818160888342E060E080E00E94DD0BF7
:1018B000F60180818E7F8083F80180818160808342
:1018C000808188608083F70180818E7F808388811A
:1018D00080618883CDB7DEB7E8E00C9475359C0154
:1018E0002115310509F408958FE99FE00197F1F77B
:1018F00000C0000021503109F3CF8091650480FDC4
:101900000AC0E8E8F2E0118210821282339652E0B7
:10191000EC3AF507C1F7509A3BB13E7F2BB12160FD
:101920004FB7F89488E892E0FC010196508168E096
:101930002BB9000000C057FF3BB9550F000000C095
:1019400000C000C03BB900C06A9591F752E08C3AE4
:10195000950751F74FBF8FE594E00197F1F700C06D
:1019600000000895EF92FF921F93CF93DF93EC0155
:1019700088E8E82E82E0F82E10E08C8197014091F3
:10198000680460916704810F0E9476081B5E83E003
:10199000E80EF11C1C3F89F70E947D0C9A818C8116
:1019A00090FF08C08F5F8C83DF91CF911F91FF90D4
:1019B000EF9008958150F7CF9091650490FF0CC08F
:1019C000E8E8F2E0818360834283339692E0EC3A68
:1019D000F907C1F70E947D0C0895A3E0B0E0E3EFA2
:1019E000FCE00C945F359091650490FF0AC09E0165
:1019F0002F5F3F4F0E9476084B8169818A810E9448
:101A0000DC0C2396E2E00C947B35CF93DF93EC0162
:101A1000EC81F0E0E959FB4F4491E5E6F4E06281A6
:101A200081810E94ED0C8C818F5F8C83DF91CF913F
:101A30000895CF93DF93EC01E5E6F4E04381628102
:101A40008C810E94ED0C8C818F5F8C83DF91CF9114
:101A5000089581E08093E00080E28093D8001092A6
:101A6000C9008FE19EE40197F1F700C0000087E014
:101A700090EBDC018093800590938105A093820513
:101A8000B093830588E19CE00FB6F894A895809305
:101A900060000FBE90936000FFCF0F931F93CF9312
:101AA000DF93EB018A019091DA02943079F580930B
:101AB000E9008FEF9091E80095FD07C095ED9A95AC
:101AC000F1F7000081508111F5CF8091E80085FF8A
:101AD0001DC00E948D0B811114C08091E80085FD0E
:101AE00006C08091E8008E778093E800F2CF88816D
:101AF0008093F100015011090115110511F0219693
:101B0000ECCF8091E8008E778093E800DF91CF9151
:101B10001F910F910895CF93DF93D82FC92F48E0DD
:101B200050E0682F792F81E00E944D0D88E0ED2F65
:101B3000FC2FA1EBB1E001900D928A95E1F7DF91C6
:101B4000CF910895BC0143E050E084E00E944D0D28
:101B5000089590917D0592FB222720F9281779F0AE
:101B600080FB92F990937D0560917C0570917D05D5
:101B700084E090E00E94413682E00E9419060895B8
:101B8000882381F06EEB85E290E00E9423366DE9B8
:101B900086E290E00E9423366AEA87E290E00E94A3
:101BA000233608956FEF85E290E00E9423366FEFB1
:101BB00086E290E00E9423366FEFEFCF1F93CF9322
:101BC000DF93962F122F632F282F292B2430C8F450
:101BD0004D30B8F4C42FD0E0CC0FDD1F2AE1929F26
:101BE000C00DD11D112498E6899FC00DD11D11246F
:101BF000CE0189960E942336612FCE018A960E94DB
:101C00002336DF91CF911F9108951F93CF93DF93D8
:101C1000962F122F632F8430D0F49230C0F428E036
:101C2000829FE001112424E0929FC0011124C80F7B
:101C3000D91FC753DE4FCE01442369F00E942336DB
:101C400081E090E0612F8C0F9D1F0E942336DF9171
:101C5000CF911F91089502960E94233683E090E071
:101C6000F1CFCF93DF93C9E3D3E060E0CE010E94D0
:101C700023362196C11584E0D807B9F7DF91CF91BB
:101C8000089585E290E00E94FF358E3B89F486E25C
:101C900090E00E94FF358D3959F487E290E00E9470
:101CA000FF3591E08A3A09F090E0892F817008951C
:101CB00080E0FCCF0F931F93CF93DF9308E515E0EF
:101CC000C9EED1E0CE010E94FF35F80161918F018C
:101CD000861719F0CE010E9423362196CD30F2E00E
:101CE000DF0781F7DF91CF911F910F9108950F9337
:101CF0001F93CF93DF9308E515E0C9EED1E0CE0145
:101D00000E94FF35F80181938F012196CD30F2E0DA
:101D1000DF07A9F7CBE7D6E0FE0185919491009704
:101D200011F0FC0109952C96F7E0CB30DF07A1F705
:101D3000DF91CF911F910F9108950F931F93CF9330
:101D4000DF93982F962B943020F54D3010F5C42F4B
:101D5000D0E0CC0FDD1F2AE1629FC00DD11D112400
:101D600038E6839FC00DD11D1124CE0189960E94B3
:101D7000FF35082F10E0102F0027CE018A960E9411
:101D8000FF359801282BC901DF91CF911F910F9149
:101D9000089580E090E0F8CF0F931F93CF93DF93E7
:101DA000843078F5623068F528E0829F8001112444
:101DB00034E0639FB0011124060F171F07531E4F15
:101DC000C8014423A1F00E94FF35C82FD0E0DC2FCA
:101DD000CC2781E090E0800F911F0E94FF359E018B
:101DE000282BC901DF91CF911F910F910895029681
:101DF0000E94FF35C82FD0E0DC2FCC2783E090E095
:101E0000EACF80E090E0EECF2091DD023091DE025B
:101E1000232BD9F4703F39F4603FB9F48091DB0291
:101E20009091DC020895743048F46D3070F4843081
:101E300060F4462F672F0E949D0E08957D3F41F468
:101E4000623018F441E0843050F080E090E0089572
:101E50007C3FD9F76230C8F78430B8F740E00E9481
:101E6000CC0E0895A0E0B0E0E8E3FFE00C945A3512
:101E70007C010091570580917204082BC3E0D0E0EB
:101E800010E0C8010C2E02C0959587950A94E2F7E0
:101E900080FD09C02197A8F7D12C8D2DCDB7DEB7D5
:101EA000E7E00C947635DC2EB7018C2F0E94040FEE
:101EB0000E944107019771F3F0CFCF93DF93D82FA2
:101EC000C92F0E94320F6D2F7C2F0E94040F0E9499
:101ED0004107DF91CF910895FC018481882371F03F
:101EE00087819085009729F00E9441070E94F9049C
:101EF0000895808191810E945D0FF8CF80E0089560
:101F00001F93CF93DF93182FD92F662399F0442383
:101F100089F00E94320FC82F682F812F9D2F0E94B9
:101F20008F05612F7D2F8C2F0E94040FDF91CF91A1
:101F30001F9108950E94AB05C82FF3CFFC01462FD7
:101F400087819085009729F46581808191810E9425
:101F5000800F08958091700490917304892B809371
:101F6000980180916F04882309F180915A0590911E
:101F70005B05892B29F00E94890A81110E94430682
:101F80008091980190916F04892B8093980120E0B3
:101F90008AE991E0FC013081019631112F5F31E037
:101FA000803A9307B9F721110E94430648E050E0B8
:101FB00063EE72E088E991E00E94D235892BA9F0A6
:101FC00088E0E8E9F1E0A3EEB2E001900D928A9595
:101FD000E1F7E091E102F091E202309731F0028006
:101FE000F381E02D88E991E009950895882321F097
:101FF0000E9435060E94AA0F0895882339F0909117
:102000007304892B809373040E94AA0F0895882378
:1020100021F00E943B060E94AA0F0895882341F0F8
:102020008095909173048923809373040E94AA0F72
:102030000895CF93C82F8823C9F08238C9F40E942D
:10204000240A81FD13C089E30E94F3050E94AA0FB0
:102050002FEF37EE83E0215030408040E1F700C0A1
:10206000000089E30E940C060E94AA0FCF910895F8
:102070008338A1F40E94240A80FDF8CF83E50E94F2
:10208000F3050E94AA0F9FEF21EE34E0915020400B
:102090003040E1F700C0000083E5E4CF8438A1F4CC
:1020A0000E94240A82FDE2CF87E40E94F3050E9489
:1020B000AA0F8FEF91EE24E0815090402040E1F78D
:1020C00000C0000087E4CECF8CEF8C0F813A70F413
:1020D000EAE9F1E080EA91E02191C21771F18E17EF
:1020E0009F07D1F78C2F0E94F305BECF80E28C0FA3
:1020F000883048F4C77081E001C0880FCA95EAF7BC
:102100000E943506B1CF8BE58C0F833038F42C2F2D
:102110002452330BC9010E94310AA8CFC85ACB31CF
:1021200008F0A4CFEC2FF0E0EE0FFF1FE05AFE4FB7
:10213000808191810E94570A99CF8C2F0E940C06B2
:102140000E94AA0FCFCFCF93DF93EC01805E91095D
:10215000089720F06DEF7FE0209711F466EF7FE0A5
:10216000CE010E94CD048C2F0E941910DF91CF91D7
:102170000895662329F0209173042260209373044C
:102180009C0130522115304308F499270E94A31076
:102190000895882309F44DC0823879F40E94240AF6
:1021A00081FF47C089E30E94F3050E94AA0F89E3DB
:1021B0000E940C060E94AA0F0895833859F40E94C9
:1021C000240A80FF36C083E50E94F3050E94AA0F0F
:1021D00083E5EECF843859F40E94240A82FF29C097
:1021E00087E40E94F3050E94AA0F87E4E1CF9CEFE9
:1021F000980F913AE8F290E2980F983050F4877077
:1022000091E001C0990F8A95EAF7892F0E943B0659
:10221000D1CF9BE5980F933028F480E090E00E94A6
:10222000310A0895885A8B3120F480E090E00E94B2
:10223000570A0895CF93DF93EC010E94C910CE0195
:10224000805E9109089720F06EE070E1209711F40C
:1022500067E070E1CE010E94CD04DF91CF91089537
:102260000F931F93CF93C82F009178051091790594
:10227000893321F000917605109177058C2F0E940B
:1022800019100115110539F48C2F0E94C910CF9136
:102290001F910F9108958FE99FE00197F1F700C01A
:1022A000000001501109EDCFA0E0B0E0EAE5F1E156
:1022B0000C945935EC01C62E9881992309F4B0C0CD
:1022C000913009F04DC08981813091F48E010E5F0B
:1022D0001F4F8A810E943011E80121968C2D815078
:1022E00058F3EFE9FFE03197F1F700C00000F7CFB6
:1022F000823039F48E010E5F1F4F8A810E941910BF
:10230000EBCF833039F48E010E5F1F4F8A810E941C
:10231000C910E2CF843011F02196DFCF2A812296B6
:1023200080E090E06AE0AE014F5F5F4F2053330BD7
:102330002A30310550F0009781F2EFE9FFE0319744
:10234000F1F700C000000197F6CF689FF001699F88
:10235000F00D1124C9018E0F9F1F2981EA01E3CFDF
:10236000E92FF0E0E951FC4FD490292F26952695CE
:10237000269530E0F901E952FC4F84919770F901FC
:10238000E953FC4FE490F12C092E02C0F594E79438
:102390000A94E2F7F1E0EF22FF24F901E954FC4F3F
:1023A000049110E0092E02C0159507950A94E2F7F2
:1023B00001701127E82FF0E002C0F595E7959A9596
:1023C000E2F7E0FD0EC0E114F104B1F48D2D0E949E
:1023D00030110115110509F480CF8CE20E943011F3
:1023E0007CCF81EE0E941910E114F10479F48D2D57
:1023F0000E94301181EE07C086EE0E9419108D2DCB
:102400000E94301186EE0E94C910E3CF86EE0E9432
:1024100019108D2D0E94301186EE0E94C910EACF4E
:10242000CDB7DEB7E8E00C94753510927004EAE998
:10243000F1E086E0DF011D928A95E9F780E090E007
:102440000E94310A80E090E00E94570A10927304C3
:102450000E94AA0F08950E9415122FEF84E39CE0BA
:10246000215080409040E1F700C0000088E19CE0EE
:102470000FB6F894A895809360000FBE909360000B
:10248000FFCFCF92DF92EF92FF92FB018FEF9FEF92
:102490004430510508F481C0C080D180E280F380CF
:1024A0000E941512D701C601B695A79597958795F5
:1024B0008170282F220FD701C60181709927AA2782
:1024C000BB27822BB701A60132E076956795579519
:1024D00047953A95D1F74170440F440F842BB701CB
:1024E000A601E3E07695679557954795EA95D1F76C
:1024F0004170440F440F440F842BB701A601F4E050
:102500007695679557954795FA95D1F7417042951D
:10251000407F842BB701A601A5E076956795579576
:102520004795AA95D1F741704295440F407E842B80
:10253000B701A601B6E07695679557954795BA9588
:10254000D1F741704295440F440F407C842BB70172
:10255000A60197E076956795579547959A95D1F797
:10256000479544274795842B80937C05D1FA88278B
:1025700080F9880F9D2D9170892B90917D059C7F0E
:10258000892B80937D0560917C0570917D0584E0A9
:1025900090E00E94413680E090E0FF90EF90DF9065
:1025A000CF900895E8E5F5E0128E138E8FEA90E063
:1025B0009183808385E0848F28E833E1338322830D
:1025C00022E330E0378B268B28EC30E0318F208FF0
:1025D000158E2AE030E0378F268F20E530E031A3DA
:1025E00020A382A30E945A0E0E94151210927D050C
:1025F00010927C0580E0846080937D0560E074E04B
:1026000084E090E00E9441360E94770E0895AAE28D
:10261000B0E0EDE0F3E10C945E3589EA91E0FC0175
:1026200001962091F100208321E0813B9207B9F7C8
:102630008091AA01893009F456C0C8F4823009F4A7
:10264000B3C0833009F482C0813071F18091E80019
:1026500083FFE7C08091A9019091AA019A3008F008
:10266000E0C0E92FF0E0EF59F94C0C9442358A3084
:1026700009F489C08B3051F78091A901813231F77B
:102680008091AD019091AE01892B01F78091E80016
:10269000877F8093E8000E946E0B8091AB0180934E
:1026A00000010E941512D2CF8091A901813A71F6E2
:1026B0008091E800877F8093E8008091AD01909140
:1026C000AE01892B61F060E080E090E070E00E9454
:1026D000150B8091E8008B778093E800B7CF68E016
:1026E00081EB91E0F3CF8091A901813209F0AECF67
:1026F0008091AD019091AE018D7F892B09F0A6CF1D
:102700008091E800877F8093E8008091E80082FF55
:1027100018C09091F3008091F200029731F48091FB
:10272000F100813011F0863021F48091F100809326
:10273000B9018091E8008B778093E8000E946E0BCE
:1027400085CF8091DA028111E0CF80CF8091A901FD
:10275000813A09F07BCF8091AD019091AE01892B38
:1027600009F074CF8091E800877F8093E800809122
:10277000E80080FFFCCF809100018093F100809100
:10278000E8008E77D9CF8091A901813209F05ECF20
:102790008091E800877F8093E8000E946E0B809113
:1027A000AC018093A50152CF8091A901813A09F033
:1027B0004DCF8091E800877F8093E8008091E8000A
:1027C00080FFFCCF8091A501D8CF803889F0823876
:1027D00041F58091AD018F70873018F58093E90045
:1027E0008091EB0085FB882780F91092E90006C0F4
:1027F0008091A6019091B802911182609091E800B9
:10280000977F9093E8008093F1001092F1008091FF
:10281000E8008E7723C0811116C08091AB01813012
:1028200011F18091E80083FF0AC08091E800877F62
:102830008093E8008091EB0080628093EB00AA9681
:10284000E3E00C947A35823061F78091AB01882304
:1028500089F01092E9008091E800877F8093E8007A
:102860000E946E0BDECF81E0933009F080E0809310
:10287000B802EFCF8091AD018F702FEF280F263077
:1028800080F68093E9002091EB0020FFE2CF9330A7
:1028900031F48091EB0080628093EB00DACF90916D
:1028A000EB0090619093EB0021E030E0A90102C0C1
:1028B000440F551F8A95E2F74093EA001092EA0010
:1028C0008091EB008860E8CF8111ABCF1091AB0114
:1028D0001F778091E3008078812B8093E3008091C3
:1028E000E800877F8093E8000E946E0B8091E800EB
:1028F00080FFFCCF8091E30080688093E30083E059
:10290000111101C082E08093DA028BCF80588230AF
:1029100008F087CF4091AB015091AC014C3D83E072
:10292000580799F583E08A838AE289834FB7F89440
:10293000DE01139620E03EE051E2E32FF0E05093F9
:102940005700849120FF03C082958F703F5F8F7086
:102950008A30C8F0895C90E08D939D932F5F24317D
:1029600061F74FBF8091E800877F8093E8006AE2BB
:1029700070E0CE0101960E94150B8091E8008B77E4
:102980008093E8004ECF805DE6CF8091AD019091BD
:10299000AE01252F33272330310509F44AC078F5DD
:1029A0002130310509F483C08BE590E0E4E4F1E0E7
:1029B0002230310509F035CF2091E800277F2093A0
:1029C000E8002091AF013091B0018217930708F41D
:1029D0009C0140E02115310509F06EC041116CC029
:1029E0008091E80082FDC9CF8091DA02882329F224
:1029F000853019F28091E80083FFF2CFBECF2132FB
:102A0000310509F445C02232310509F00ACF83307F
:102A1000910508F006CFFC01EE0FFF1FE05EFE4FB0
:102A20000190F081E02D835E9E4FDC018C9190E05F
:102A300010C0CA019927423019F18330910568F41A
:102A4000892BB1F4E3EFF1E0E4918E2F90E0E3EF16
:102A5000F1E0009709F4E5CEAFCF039709F0E1CE9E
:102A6000E1EBF1E0E4918E2F90E0E1EBF1E0F1CFCA
:102A7000EDEDF1E0E4918E2F90E0EDEDF1E0E9CFA6
:102A8000EFECF1E0E4918E2F90E0EFECF1E0E1CF9C
:102A90008330910508F0C5CEFC01EE0FFF1FEA5D03
:102AA000FE4F0190F081E02D89E090E085CF82E13A
:102AB00090E0EFE9F1E080CF8091DA02882309F419
:102AC0005CCF853009F459CF8091E80083FD55CF64
:102AD0008091E80082FD84CF8091E80080FF7ACF6A
:102AE0009091F3008091F2002115310519F08830A2
:102AF000910550F041E0089709F040E08091E8002E
:102B00008E778093E80066CF44914093F100319630
:102B1000215031090196E8CF803809F082CE8091AA
:102B2000E800877F8093E8008091A7018093F100FF
:102B30006ECE811176CE1091AB01123008F071CEBD
:102B40008091E800877F8093E8001093A7010E949E
:102B50006E0B1123D1F084E08093DA0242E061EC45
:102B600081E00E94DD0B42E261EC84E00E94DD0B1B
:102B700042E261EC82E00E94DD0B42E260EC83E025
:102B80000E94DD0B8091DA024CCE8091E30087FD3C
:102B9000E2CF81E0E1CF80910E01877F80930E012B
:102BA000909173049D7F9093730484FF06C08F7E81
:102BB00080930E0182E00E94350680910E0185FF10
:102BC00006C08F7D80930E0180E20E9435060E9430
:102BD000AA0F0895CF92DF92FF920F931F93CF9386
:102BE000DF93EC018B01F42E80910E0182FF66C011
:102BF000C0905604D0905704CC16DD0619F02097EB
:102C000009F05CC080910E018B7F80930E01C1E0C2
:102C100081FD10C080915404909155049801281BA7
:102C2000390BC1E080910A0190910B0128173907F7
:102C300008F4C0E0C17080910E01C0FB81F980935F
:102C40000E016C2FC6010E94BC098091700481FFA7
:102C500008C080910E01806180930E0182E00E9485
:102C60003B068091700485FF08C080910E01806250
:102C700080930E0180E20E943B066C2FC6010E94E9
:102C8000B910FF2031F08091730585FF02C086FFE7
:102C900029C080917605909177050E946F0C8091F4
:102CA0005604909157049C0130522115304308F48A
:102CB00099270E941A110E94CB1510C0CE01905284
:102CC00081159043B8F4CE0199270E941A11809182
:102CD000560490915704C817D90769F31093550407
:102CE00000935404DF91CF911F910F91FF90DF90DB
:102CF000CF900895CE01E9CFCF93DF93EC014A85C1
:102D00005B856E857F850E941F0A9B8190958091CF
:102D100073048923809373048C810E943B060E9474
:102D2000AA0F86E0FE0111928A95E9F7DF91CF9113
:102D30000895CF93DF93EC018D8181FD14C08260F3
:102D40008D83809173049B81892B809373048C8184
:102D50000E9435060E94AA0F488559856E857F8599
:102D6000CE010E941F0A10926103109260038D81B0
:102D700080FD03C0CE010E947C16DF91CF910895A3
:102D8000A0E0B0E0E6ECF6E10C9459358901D42FCF
:102D9000C52F6B017C010E940209A8016D2F7C2FB9
:102DA00088E090E00E94353698014D2F5C2FB601E7
:102DB000C70100E20E94A135622F84E290E00E94E8
:102DC0002336CDB7DEB7E8E00C947535E5E6F4E0E0
:102DD00083E0808311828FEF8283838314827581E5
:102DE00023E030E04FEF5FEF60E0868197810E9443
:102DF000C016089580916904833018F48F5F809322
:102E000069042091650430916604409167045091F3
:102E100068046091690470916A0480916B049091D8
:102E20006C040E94C016089580916904882319F0EB
:102E3000815080936904209165043091660440912B
:102E40006704509168046091690470916A048091EC
:102E50006B0490916C040E94C0160895A3E0B0E04A
:102E6000E4E3F7E10C945B35082FF62E142FE22EE5
:102E70008091650480FF2DC0E82FE695F0E0E45DC9
:102E8000FE4F9081909363048E7F823031F59E01D6
:102E90002F5F3F4F802F0E9476084B8169818A8186
:102EA0000E94DC0C00936604F0926704109368049F
:102EB000EE2079F0209165046091690470916A04B4
:102EC000302F4F2D512F80916B0490916C040E94F4
:102ED000C0162396E6E00C947735923019F41091E1
:102EE0006804E0CF963019F400916604DBCF993086
:102EF000C9F6FACFE5E6F4E0818121E04381628101
:102F0000885F0E942E170895E5E6F4E0818121E0B4
:102F10004381628188500E942E170895E5E6F4E00F
:102F2000628121E1620F08F46FEF21E0438181812A
:102F30000E942E170895E5E6F4E0628121E1621B0C
:102F400008F460E021E0438181810E942E170895FA
:102F5000E5E6F4E0438121E1420F08F44FEF21E080
:102F6000628181810E942E170895E5E6F4E0438195
:102F700021E1421B08F440E021E0628181810E944E
:102F80002E170895A4E1B0E0E8ECF7E10C94523577
:102F9000C0900C01D0900D0181E090E090930D0164
:102FA00080930C0137E9E32E33E0F32EA12CB12CF2
:102FB00010E0350100E015C0F40125913491452D54
:102FC000602F812F0E94DE0D22E0820E911C53940F
:102FD0003DE05312F1CF8DE0680E711C0F5F04309D
:102FE00049F0C301880F991FDC01A950BE4F4D0164
:102FF000512CE2CFF7012591349141E060E0812F1F
:103000000E94050EF70132962591349140E060E070
:10301000812F0E94050EF70134962591349141E0ED
:1030200061E0812F0E94050EF701369625913491BB
:1030300040E061E0812F0E94050EB8E0EB0EF11C2C
:103040001F5F24E3A20EB11C143009F0B2CF0E941E
:10305000D2121A8219821C821B821E821D8218863D
:103060001F8288EC90E09A8789870DE012E04AE0A1
:1030700050E0B801CE0101960E944736065F1F4F0F
:10308000033A32E0130799F7FE013B968AE0DF012D
:103090001D928A95E9F77F014AE050E0B801C70127
:1030A0000E944736065F1F4F0933B3E01B07A1F7A5
:1030B000D0920D01C0920C016496EFE00C946E3535
:1030C00080E00E94C00D60E088E290E00E9423361C
:1030D0000E94C2170E94310E81E00E94C00D089527
:1030E000A8E0B0E0E6E7F8E10C945F3566EE7EEF2D
:1030F00080E090E00E94413660E082E090E00E9433
:10310000233660E083E090E00E9423361092720440
:1031100060E074E184E090E00E94413660E086E087
:1031200090E00E9423366FEF87E090E00E94233604
:1031300040E050E0BA0188E090E00E94353660E05F
:1031400084E290E00E94233660E087E190E00E94F4
:10315000233660E08CE090E00E94233660E08DE052
:1031600090E00E94233619821A821B821C821D82E3
:103170001E821F82188648E050E068E170E0CE01B0
:1031800001960E94133640E050E0BA0180E290E0E0
:103190000E94353680E00E94C00D0E94601840E019
:1031A00050E0BA018FE090E00E94353640E050E0F8
:1031B000BA0183E190E00E9435362896E2E00C9453
:1031C0007B35AAE0B0E0E7EEF8E10C945935E3EE88
:1031D000F1E086E9DF011D928A95E9F7E7E7F4E07F
:1031E00089E6DF011D928A95E9F783EEC82E81E01A
:1031F000D82E7F0103EA12E0F701D182C0824AE0B3
:1032000050E0B801CE0101960E94EF3588E0FE0142
:103210003196D60101900D928A95E1F789859A85BC
:10322000D70113969C938E931297BAE0CB0ED11CC4
:10323000E7E0EE0EF11C065F1F4F0933F3E01F07B6
:10324000D9F62A96E8E00C947535282FCB012F305B
:1032500070F44AE0249F90011124B901635F7D4F0F
:103260004AE050E00E94EF3580E090E008958FEF53
:103270009FEF0895AAE0B0E0E0E4F9E10C945F3537
:103280009C0197558F3F910509F070F4BE016F5F67
:103290007F4F822F0E942519892B31F489859A85C9
:1032A0002A96E2E00C947B3580917005909171052F
:1032B000F7CFA0E0B0E0EFE5F9E10C945A35D62E57
:1032C000172FC42FD22F8823A9F0409361040E94A6
:1032D0007D0A9093A4018093A301C77081E001C08F
:1032E000880FCA95EAF70E94F60FCDB7DEB7E7E080
:1032F0000C94763580916104481337C08091A30106
:103300009091A4010E94020B7C018D2D912F0E94AF
:103310003A19E816F90648F5CD130CC0802F0E9423
:103320003011D77081E001C0880FDA95EAF70E946A
:103330000710DBCFC77011E0812F01C0880FCA953D
:10334000EAF70E94071080E28D0F883050F48D2F2D
:10335000877001C0110F8A95EAF7812F0E94F60F3E
:10336000DDCF802F0E943011C0CFC77081E001C037
:10337000880FCA95EAF7DBCF60916504669570E027
:1033800041E050E081E091E00E94C535892B19F4BD
:1033900081E0809364040E947D0A9093C30280932D
:1033A000C20208959091650490FF39C08823C1F14D
:1033B0008F30C0F58F77282F220F809165048170A0
:1033C000282B20936504662381F030916604409198
:1033D0006704509168046091690470916A04809157
:1033E0006B0490916C040E94C01660916504669510
:1033F00070E041E050E081E091E00E94C535892B0A
:1034000099F01092640481E08093C50220E040911D
:10341000680460916704809166040E942E170895E5
:1034200081E0C9CF8EE0C7CF0E94BC19ECCF80915C
:10343000650486958F5F8F3008F081E061E00E941F
:10344000D21908959091650496958FEF890F913068
:1034500009F48EE061E00E94D2190895909165040C
:1034600090FF08C09695981728F0961718F40E94B8
:10347000171A089561E00E94D2190895A4E0B0E0FF
:10348000E4E4FAE10C9457357C01DC0114968C914C
:10349000882309F4D2C361E0C7010E949E0F8C010A
:1034A000F7018581882319F1809160039091610370
:1034B0000097E9F008171907D1F0992744E0880F21
:1034C000991F4A95E1F7FC01E759FC4F20812460E0
:1034D00020838C599C4FDC010D931C930E949916FC
:1034E0001092730461E0C7010E949E0F8C01F701E6
:1034F0008581882309F4BCC0C8019757803891059D
:1035000008F0DFC1D02EFFE0F01708F485C38FEF7D
:1035100093E00E94FF3581117FC309E313E0D110CE
:103520003DC08091100190911101A0911201B091C4
:10353000130189839A83AB83BC8368014FEFC41A5C
:10354000D40AC8010E94FF3589831A82882309F4AE
:1035500063C3813009F085C0580152E0A50EB11C4B
:10356000C6010E94FF35D82E8A83882309F454C3EC
:10357000C5010E94FF35C82E8FEF8D0D8330E0F41A
:10358000CB82CC2029F060E0CE0101960E9454113C
:10359000580183E0A80EB11C8501CFCF011524E0AE
:1035A000120709F439C3C8010E94FF350F5F1F4F8E
:1035B0008111F4CFDA94B3CF8BEF8D0D833040F5CA
:1035C000580193E0A90EB11CCB82CC2029F3C50190
:1035D0000E94FF358C83882381F08B819C81813010
:1035E000AFEF9A0710F0982F8827B6E0DB1651F05E
:1035F000E7E0DE1651F00E9465295801F4E0AF0EB5
:10360000B11CCACF0E942129F8CF0E944329F5CFCF
:1036100024E0D212C1CF580144E0A40EB11CC8016D
:1036200003960E94FF35CC2009F4F6C2882309F4E2
:10363000F3C28150990B4FEF489F9001499F300D85
:103640001124AC2DA150BB0B2A0F3B1F2150310977
:1036500008F4A2CFEFE9FFE03197F1F700C00000D6
:10366000F5CF6AE0CE0101960E945411560194CF25
:10367000011527E5120708F460C1011548E5140794
:1036800008F026C1680157E5D51A66E573E08C2D70
:103690000E942519892B31F5C60124E0880F991F56
:1036A0002A95E1F7FC01EC59FC4F2281213009F009
:1036B000F3C02091560330915703232B99F02091AA
:1036C000580330915903232B69F020915A0330910C
:1036D0005B0340915C0350915D03242B352B232B1E
:1036E00009F4E4C0F801FF2794E0EE0FFF1F9A955C
:1036F000E1F7CF018C599C4F6C01D70115968C9145
:10370000E759FC4F908180FB90F99083882309F45E
:10371000F3C00E947D0A9093630380936203F601D5
:1037200082818F5F82838091730490917004892BD2
:10373000838380916F048483468157816685778572
:10374000C6010E941F0AD60115968C9181FDD1C039
:10375000902F812F90936003809361038091730574
:1037600080FFC4C10E947D0A5C01F701858181113F
:10377000F6C0013E110509F070C180910E018F7EE7
:1037800080930E018581882309F416C48823B1F043
:103790000A35FCE71F0709F450C408F026C40130BD
:1037A0004CE7140709F447C403305CE7150709F434
:1037B0003CC401158CE7180709F42AC4F701878176
:1037C0009085009709F43DC40E944107D82E192F17
:1037D000F701B580C680C2948FE0C822809174043E
:1037E00087708823F1F0AB2CBB20E1F0892F807F1C
:1037F000803451F080E28D0D883098F0C11004C003
:10380000892F807E803269F080917D0582FF09C01A
:1038100082E00E941906809174048770AA24A39400
:103820008111A12C812F82958F70883009F470C589
:1038300008F02FC4843008F01BC4012F0F708230B1
:1038400008F439C4812F807F803211F00295007F07
:10385000DD2009F466C421E0D21609F409C5BB20B5
:1038600009F421C5CC2009F419C540E0D70115960B
:103870006C9115978D919C910E94800F8091750598
:1038800081FD08C5F701868180FF04C58F7086839E
:10389000802F0E94F60F8CC4223009F023CF209194
:1038A0005A0330915B03232B09F41CCFFC01E75929
:1038B000FC4F20812E7F20838C599C4F0E949916AB
:1038C00011CFC80197558F3F910509F008F40ACF31
:1038D0008091730580FD46CFF7018581F801E8519D
:1038E000FC47E730F10508F001C1E559F94C0C94AB
:1038F000423590E080E02ECFD6011C964D915C9130
:103900001D971E966D917C91C6010E941F0AF601BB
:10391000858181FF23CFC6010E947C162091600320
:1039200030916103809173050217130709F018CFD6
:10393000109261031092600313CF8091730580FD94
:1039400011CF809170048272F801E052F847E5319E
:10395000F10508F031C3EE58F94C0C9442358091D2
:103960000E0182FF06C040E0B50180E090E00E94B9
:10397000EA150431FCE71F0709F446C005312CE7BE
:10398000120769F1D70115968C910331BCE71B072B
:1039900009F04BC090910E01916090930E01882325
:1039A00081F2109257041092560410926104C801DB
:1039B0009057839708F054C284E090E00E940D363F
:1039C00090937D0580937C05F801E150F047E23249
:1039D000F10508F088C1E957F94C0C9442359091F3
:1039E0000E01892F8E7F90FF816080930E010E94CF
:1039F000CB1580910E0180FF73C1D70115968C9174
:103A0000882309F473C05DC080910E018E7F80937E
:103A10000E010E94CB1580910E0180FDEECFD701E3
:103A200015968C918111C1CF8CCF98013052211500
:103A3000304388F51092570410925604882309F4F5
:103A4000BDCE109261040837ECE71E0709F09ECE48
:103A5000882309F4C8C282E0BAC2053E110539F4D0
:103A600080910E018F7D80930E0185818CCEC801DF
:103A700090528115904378F480910E0182FF61CFBE
:103A80008091750581FD5DCF40E0B50180E090E05B
:103A90000E94EA15C4CFF701858190910E0190FF35
:103AA0001BCF0832110590F40E31110508F061C0EA
:103AB0009801245031092A31310598F1882309F4FD
:103AC00040CF109257041092560410C009331105CC
:103AD000E8F40D32110520F40B32110509F05FCF27
:103AE0009091730592FF21C0811116C0D7011596E0
:103AF0008C91811110926104F7019581911157CF3A
:103B00000631BCE71B0709F01CCFB0C10436110514
:103B100039F3882309F4E0CE10925704109256042A
:103B2000DBCE9091730594FDC9CF882309F4A6C01C
:103B300080916F0490917004892B8D7F8823F1F020
:103B400010925704109256048091730581FD16C09F
:103B500060E0C8010E94BC0960E0C8010E94B91081
:103B600080916F048D7F0E94D10A82E00E94190625
:103B700053C09091730593FDA1CFD7CF89E0F70192
:103B8000A8E5B4E001900D928A95E1F710925D04EA
:103B900010925B0410925A0480915604909157043D
:103BA0000817190709F04DC02091730525FF49C07A
:103BB00030910E0131FF02C026FF43C02091540412
:103BC000309155046501C21AD30A0E943A19C816E9
:103BD000D906B8F58091700481FF08C080910E016C
:103BE000806180930E0182E00E943B068091700408
:103BF00085FF08C080910E01806280930E0180E2F3
:103C00000E943B0660910E0166956170809156049A
:103C1000909157040E94B910809174048770882392
:103C200061F0D70115968C91882339F080917D053C
:103C300082FF03C082E00E9419062496EAE00C94F9
:103C4000733580916F04D0907004D82AD1FADD24A6
:103C5000D0F88D7F0E94D10A109357040093560428
:103C6000B0925504A0925404DD0C6894D2F890915F
:103C70000E01997FD92AD0920E0177CF40E0B5018D
:103C8000C8010E94EA15C8CF06E221EE41EE6AE1C2
:103C90007CE70E945919C0CF07E225EE45EE6BE1A3
:103CA0007CE7F7CF06E221EE40EE68E17CE7F1CF5A
:103CB00007E225EE44EE69E17CE7EBCF06E221EE78
:103CC00042EE6CE17CE7E5CF07E225EE46EE6DE1E2
:103CD0007CE7DFCF08E221E045EE6EE17CE7D9CF5B
:103CE000F70185819FCE80917C05816080937C0562
:103CF00060917C0570917D0584E090E00E944136E2
:103D00000E94151289CF80917D05886080937D0582
:103D1000EFCF80917C058260E9CF80917C05846043
:103D2000E5CF80917C058860E1CF80917D05816041
:103D3000EDCF80917D058260E9CF80917C05806127
:103D4000D5CF80917C058062D1CF80917C05806445
:103D5000CDCF0E94151280917C058068C7CF8091DD
:103D60007C058C60C3CF80917D058360CFCF80912F
:103D70007C058E7FBBCF80917D05877FC7CF8091EB
:103D80007C058D7FB3CF80917C058B7FAFCF8091F9
:103D90007C05877FABCF80917D058E7FB7CF8091EB
:103DA0007D058D7FB3CF80917C058F7E9FCF8091E5
:103DB0007C058F7D9BCF80917C058F7B97CF0E9468
:103DC000151280917C058F7791CF80917C05837F40
:103DD0008DCF80917D058C7F99CF80917C0582FB72
:103DE000992790F921E0922790FB82F990FB83F9C3
:103DF0007DCF80917D05982F909591708E7F892B36
:103E000090FB81F983CF90917C05892F8F7B96FF62
:103E100080646CCF0E94151290917C05892F97FBCE
:103E200087F9805863CF61E08EE090E00E942336EE
:103E30005FCF60E0F9CF90917C05892F8F7E94FF52
:103E4000806154CF90917C05892F8E7F90FF816097
:103E50004DCF90917D05892F877F93FF886056CF46
:103E60000631FCE71F0709F0A7C091E080917004BC
:103E70003091720530FF04C0282F247421111CC01A
:103E8000282F2A7A31FF04C0482F4171411120E0C8
:103E9000432F487032FF12C0382F3878332371F027
:103EA00041111FC0911114C0809162048823D9F080
:103EB00085E30E940C0612C020E0E4CF442319F0F1
:103EC00082728111EFCF992379F385E3211102C02A
:103ED00090E089E2909362040E94F3050E94AA0F89
:103EE0009BCE20E0EDCF89E2E4CF8091650480FF96
:103EF00019C0282F2E7F20936504309166044091CD
:103F00006704509168046091690470916A0480911B
:103F10006B0490916C040E94C016109264040E947D
:103F20007D0C7ACE81608093650461E086950E9465
:103F3000D21972CE42E25AE167E17AE10E94100999
:103F40006BCE47E15AE162E27AE1F8CF44E857E10B
:103F50006AE777E1F3CF4AE757E164E877E1EECF2C
:103F60004BE957E16EE877E1E9CF4EE857E16BE9BD
:103F700077E1E4CF45EB57E168EA77E1DFCF48EA44
:103F800057E165EB77E1DACF44E157E16AEF76E19B
:103F9000D5CF4AEF56E164E177E1D0CF61E081E02F
:103FA000C6CF65E082E00E942E1A36CE68E086E039
:103FB000FACF6EE089E0F7CFD70115968C910737DD
:103FC000BCE71B0709F03FCD882349F081E00E9440
:103FD0001C0543E062E081E00E94C8051DCE81E03F
:103FE0000E942805F6CF82E0FBCF0B359CE719072E
:103FF00031F10C35ACE71A0709F0E0CB80917D0573
:1040000082FB882780F991E089270E94A90DD6CBF1
:104010000E941512BFEFE4E3FCE0B150E040F04035
:10402000E1F700C000000E94290D6FEF7FEF80E0F4
:1040300090E00E9441360E942B1281E0E6CF80E0A2
:10404000E4CF8581C080D180882369F0C6010E94B9
:10405000320F182F682FC6010E948F05B601812FDD
:104060000E94040FB1CBC6010E94AB05182FF6CFFA
:10407000843009F430C18D2D912F0E94F9048823DA
:1040800009F496C0BB2009F4A9C2CC2009F46DC084
:104090008FC0893009F4ADC18A5F8F70823058F7C4
:1040A0000B2DF2EFDF12B7C1812F8F71B110B0C1AC
:1040B0000E941C055BC1103110F00295007FBB20EF
:1040C000B9F0002359F080E28D0D883010F0D11046
:1040D00009C0802F0E9435060E94AA0F8D2D0E94D4
:1040E0001910C9CF80917304802B80937304F4CF8F
:1040F0008D2D0E94C910002309F4BDCF80E28D0DE3
:10410000883010F0D11004C0802F0E943B0606C0FA
:104110000095809173048023809373040E94AA0FFA
:10412000AACF80917D0582FD12C0BB2049F00023FB
:1041300029F0802F0E9435060E94AA0F80E0CFCF81
:1041400080E00E94C910002309F495CFDDCFBB2089
:1041500009F453C0C11023C0802F0E94F60F80E0E5
:10416000912F0E94F904882319F1AA2009F431C281
:104170008091740480FD2DC2D70115961C928695FE
:10418000869586950E941C05C7010E943E1A809163
:1041900074048695869586950E9428051AC241E08A
:1041A000C41215C0D0906F04802F8D21081305C054
:1041B00010927F0510927E05D8CF0E947D0A9093C1
:1041C0006E0480936D04D02AD0926F04F1CF809159
:1041D0007405823068F3C812EBCF802F0E94F60F6F
:1041E000802F0E94BB0A80917104902F9823091799
:1041F000F9F2802B80937104DBCFC11019C0802F9E
:104200000E940710802F0E94BB0A80917104902F9A
:104210009823911108C080E0912F0E94F90488230F
:1042200039F20A2D88C10095082300937104F3CF59
:1042300080917405823008F4BBCF51E0C512B8CF2D
:10424000809170048023882309F4B2CF802F0E94CC
:104250000710802F0E94BB0A80917104902F982331
:10426000992309F4A5CF0095082300937104A0CFEA
:1042700080917A05BB2039F08C1508F499CF802FF6
:104280000E94F60FF8CEC81608F0F5CE802F0E94D7
:104290000710F1CE8D2D0E9419108ACF802F0E9419
:1042A000F60F8D2D5DCFCC2089F0F9E38091780554
:1042B00090917905DF1621F0809176059091770530
:1042C0000E946F0C8D2D0E94C91072CF802F0E940A
:1042D00007108D2DA1CF812F869586958370882319
:1042E00069F0813009F0C7CE8D2D912F9370B110F8
:1042F00002C080E090E00E94570ABDCE8D2D912F24
:104300009370B11002C080E090E00E94310AB3CEF9
:10431000812F8370811135C0B11028C04D2D429579
:1043200046954770440F440F8D2D8F70042E01C0A9
:10433000880F0A94EAF72D2D2071222339F02FE0FF
:1043400030E001C0220F4A95EAF72095312F3695CB
:1043500036953370323081F0333061F04091720421
:10436000313039F0822B84230E9416050E94240AE2
:1043700082CE842B822BF8CF822B909172048927D6
:10438000F3CFBB2059F110FFF1CF4D2D429546954B
:104390004770440F440F8D2D8F70042E01C0880F7D
:1043A0000A94EAF72D2D2071222339F02FE030E016
:1043B00001C0220F4A95EAF72095312F36953695A0
:1043C0003370323089F0333069F040915705313025
:1043D00041F0822B84230E941905C8CF823030F22D
:1043E000D4CF842B822BF7CF822B9091570589272E
:1043F000F2CF012F0F70BB2039F0802F0E941C05D7
:104400008D2D0E94F60FB2CF8D2D0E940710802FA8
:104410000E942805ABCF22EF2D1580F040EFD41677
:10442000D1F051EFD516D9F1BB2009F4BCC0CC2096
:1044300009F4B6C08D2D0E94191098CF83EFD816BD
:10444000F1F094EFD91639F1B110F1CFC110B5C028
:10445000812F8F71DDCF80917A05BB2061F0C81666
:1044600008F084CF212F2F7181E090E001C0880FE8
:104470002A95EAF7BACF8C1508F478CFF3CF80E00D
:10448000BB2009F4A8CF81E0912F9F7101C0880F54
:104490009A95EAF7A0CF80917D0582FD06C0812F15
:1044A0008F71BB2009F4B4CF03CE809174058230A4
:1044B00008F45FC0BB2041F1909174049770943070
:1044C000B9F4109274041092760410927504812F3E
:1044D0008F710E9428050E94240A84EF912F0E9468
:1044E000F904811174C010927F0510927E0571C08D
:1044F000C81688F7012F0F71802F0E941C0563E0FA
:10450000802F0E94A40AE7CFC81678F11092740495
:10451000109276041092750464E0812F8F710E94CE
:10452000A40A0E94240A84EF912F0E94F904882390
:10453000D1F2C110D8CF40E0F7016581808191812F
:104540000E94800F8091750583FF09C080917E05D0
:1045500090917F05029719F48D2D0E9430111092D1
:104560007F0510927E05A02E00CE81E00E941906E4
:10457000D8CFBB2051F0012F0F71802F0E941C0556
:1045800063E0802F0E94A40AF1CE81E00E94190608
:10459000A1E0AC1508F0EACE82E00E941906E6CE52
:1045A000812F8F7185CDCC2009F452CFB9E3809152
:1045B000780590917905DB1621F080917605909130
:1045C00077050E946F0C8D2D0E94C910CFCEC110AF
:1045D0008ACF60E0C7010E949E0F2FCBC110E8CDAB
:1045E00020CEA0E0B0E0E7EFF2E20C945A358091E3
:1045F0003B03803108F049C080913A03882309F4D5
:1046000044C0C091EC0289E0D82E8091EB028C1757
:10461000E1F1EC2EF12CDC9EE0011124FE01E351CE
:10462000FD4F84818823B1F19181809136039813E5
:1046300031C090818091350398132CC08581811100
:1046400029C0028113818091370390913803081BA0
:10465000190B60E085E393E00E949E0F0E943A19D7
:1046600008171907B8F480913B038F70806180931D
:104670003B03CD50DD4F88818F708061888385E357
:1046800093E00E943E1A0E94E905CDB7DEB7E7E04D
:104690000C947635E7012196C770B7CFAFE0B0E054
:1046A000E4E5F3E20C9452358C0186E0F801DE017A
:1046B0001A9601900D928A95E1F7D801CC90119647
:1046C0007C90119715966C9015971296ED90FC9032
:1046D000139714965C9085E3A82E83E0B82E809102
:1046E0003903811118C0552099F0662009F4BFC123
:1046F000C8010E946C0F882309F4B9C189E0F80150
:10470000A5E3B3E001900D928A95E1F70E94F122B2
:10471000FF24F3944BC060E085E393E00E949E0F7A
:10472000D0903A038091370390913803DD2009F44B
:1047300049C14701881A990A60E085E393E00E9425
:104740009E0F0E943A198816990608F0F6C0552067
:10475000F9F2B0903B0390913603F8018181FFE0BC
:10476000FB1508F4A1C0F62C981325C090913503D1
:10477000D8018C9198131FC020913C0330913D03C8
:1047800017968D919C9128173907A9F4611077C06D
:104790008B2D8F70806180933B0385E393E00E94B3
:1047A0003E1A80913B03F8018683F12C8F2D2F96C2
:1047B000EFE00C946E35611062C0E091EC028091E4
:1047C000EB02AE2F99E0A81302C099E02AC02A2F6D
:1047D00030E09A9FD0011124A351BD4F11964C9106
:1047E0001197741207C04C91C41204C015964C91D5
:1047F000411147C1D9011196A770E5CF2E2F30E0A6
:104800009E9FF0011124E351FD4F4181741206C0B7
:104810004081C41203C045814111C7CFF9013196CF
:10482000E7708E13EBCF8A859B850E945D0F292F41
:1048300022952F70903448F02A5F2F702230C8F0F4
:10484000C8010E943E1AFD2CB1CF9F70223038F073
:10485000992351F0F8019681903130F4A7CF992334
:1048600019F0882309F4A2CF805E883008F49ECF27
:10487000E7CF803F08F49ACF815F8230F7CF8091F5
:104880003B03816080933B038091750581FD8DCF53
:1048900085E393E00E943E1A89E0E5E3F3E0DF015F
:1048A0001D928A95E9F781CF981321C09091350325
:1048B000D8018C9198131BC020913C0330913D038B
:1048C00017968D919C9118972817390781F46110DC
:1048D0000EC01696BC92C8010E943E1A89E0F801EB
:1048E000A5E3B3E001900D928A95E1F711CFC801DD
:1048F0000E946C0F882309F4BAC0662009F4B7C07F
:1049000080913B03803208F4F9CE80913503909179
:1049100036039A838983FC82EB82809139038D83ED
:104920001E82BF8280913C0390913D0399878887C6
:10493000CE0101960E943E1AE1CED0903B03BFE02B
:10494000BD1508F0A5CF552009F4E2CE90913603AD
:10495000F801818198131AC09091350380819813D2
:1049600015C020913C0330913D0387819085281725
:10497000390761F461100AC0D682C8010E943E1A4C
:1049800089E0D5011D928A95E9F7C2CEC8010E943F
:104990006C0F882309F46BC0662009F468C080910D
:1049A0003B03803208F4AACE809135039091360300
:1049B0009A838983FC82EB82809139038D831E82E6
:1049C000DF82B0CF6701C81AD90A60E085E393E0BF
:1049D0000E949E0F0E943A19C816D90608F04BC0D3
:1049E000552009F495CE662009F441C09091360314
:1049F000F8018181981331C090913503808198131B
:104A00002CC020913C0330913D038781908528176D
:104A1000390719F58091370390913803E81AF90A9C
:104A2000F8ECEF16F10408F059CF80913B0380FDBC
:104A300055CF803108F452CFD80116968C93169733
:104A4000982F907F903F09F446CF982F907F905FEA
:104A50008F70892B16968C933ECFC8010E946C0FE5
:104A600081114CCE80913B03816080933B03C80150
:104A70000E943E1A4DCE89E0F50111928A95E9F720
:104A800094CE9091750590FFA0CE02CFA2E1B0E048
:104A9000ECE4F5E20C945D350A871B872C873D8793
:104AA0004E875F87688B798B8A8BCE010A960E942E
:104AB0004E2381112BC089E0FE013A96DE0111964A
:104AC00001900D928A95E1F72091EB024091EC0262
:104AD0008E858823D9F030E0C90101968770992727
:104AE00050E084179507E9F099E0929FD001939FD9
:104AF000B00D1124A351BD4FFE01319601900D92CE
:104B00009A95E1F78093EB020E94E90519E0809104
:104B1000EC029091EB02891312C06296E4E00C94CF
:104B200079350E9415121092EB021092EC0289E086
:104B3000E5E3F3E0DF011D928A95E9F7E7CF189FDF
:104B4000C001112483519D4F0E944E23882329F3D5
:104B50008091EC0290E00196877099278093EC0297
:104B6000D6CFA0E0B0E0E7EBF5E20C9458358091A9
:104B70005405882369F0C091C201F12C8DE0E82E24
:104B800080915405C81748F0109254051092C20144
:104B9000CDB7DEB7E9E00C947435BB24B394BC0EFA
:104BA000B092C201CC2ED12CEC9EE0011124C45154
:104BB000DB4F8C81882361F18F819885892B21F4CB
:104BC00089859A85019659F4088119812A813B814A
:104BD0004C815D816E817F8188850E944625EC9C99
:104BE000F001ED9CF00D1124E451FB4F1482109262
:104BF0007304F1100BC0CE010E946C0F811108C02C
:104C00008FE39CE90197F1F700C00000FF24F394C3
:104C1000CB2DB6CFA4E0B0E0E0E1F6E20C94503545
:104C20002091EB04298317E0912E01E010E08DE044
:104C3000382E94E0492E552453948091EA049981AA
:104C4000891308C00E94B1250E94E2092496E1E17F
:104C50000C946C355981452F50E05C834B83FA01ED
:104C6000EE0FFF1FE052FB4F80819181989ED00193
:104C7000999EB00D1124FD01E958FB4FFA83E98399
:104C8000248121115DC070905405ECEEF4E060E0E9
:104C900070E0812C671508F051C0A384B484A98109
:104CA000BA81CD90DC904FEF5FEF612C262D30E084
:104CB0007901EE0CFF1CEC0CFD1CD701ED90FC9073
:104CC000E114F10439F0AE14BF0409F09A016394C1
:104CD000A901ECCF4F3F5407E1F1D80102C0AA0F60
:104CE000BB1F4A95E2F78A2AA801062C02C0440F8E
:104CF000551F0A94E2F79A0121503109482D50E0DE
:104D00002417350729F5369EF001379EF00D112442
:104D1000E451FB4F989ED001999EB00D1124A958E3
:104D2000BB4F12962D913C91139730872783448275
:104D3000108211829287818715965C920E94F309F6
:104D40008B819C8101969A8389838370898375CF37
:104D500014826F5F7F4F3D969DCF10925605109243
:104D6000550510920F018091EA048093EB040E9494
:104D7000E2090E94B1250895ACE1B0E0E2ECF6E270
:104D80000C944F354B8B5C8B6D8B7E8B8F8B988F00
:104D9000882349F080917E0590917F05019690933C
:104DA0007F0580937E05588C511010927304188AE9
:104DB000198A1A8A86E0FE017396DE011A9601901E
:104DC0000D928A95E1F780917D0582FF21C0809147
:104DD0005A0590915B05892BD9F00E947D0A20919C
:104DE000750430917604821B930B20915A05309103
:104DF0005B058217930738F08091740482FD03C02D
:104E000082E00E9419060E94890A81110E944306CD
:104E10008E85882379F061E0CE010A960E949E0F6C
:104E20005C0180352CE7920789F4552011F181E06F
:104E300080930F010A851B852C853D854E855F85F6
:104E4000688979898A890E944625C8C081353CE7EE
:104E5000930729F4552069F00E94AD26EBCF8235E7
:104E60009C4739F4552029F080910F018111F4CF2E
:104E7000DECF87E7E82E84E0F82E412C812C912CA0
:104E800066246394712CD7014D915C91CC24CA9413
:104E9000DD24DA9420E0822F90E0FC01EE0FFF1F6A
:104EA000E40FF51F608171816115710539F0A61657
:104EB000B70609F0C6012F5F6C01EDCFBFEFCB162F
:104EC000DB0609F473C1F701548135814681511124
:104ED00004C180910F01882309F411C1552009F400
:104EE0000EC100916E0510916F05311114C081E063
:104EF00090E00C2C01C0880F0A94EAF7482B4683F7
:104F00008091E8049091E9048017910720F41093B0
:104F1000E9040093E804A30102C0440F551F2A9539
:104F2000E2F79A0121503109D70116968C9190E051
:104F30002817390781F480915505909156050097FF
:104F400009F450C00E94020B0817190708F04AC064
:104F500081E0F7018483852D482ABFEF8B1A9B0AD5
:104F6000E7E0EE0EF11CFFE08F16910409F08BCF05
:104F7000552009F42FC1442009F41AC10E947D0A6A
:104F8000909356058093550580915405883030F5EF
:104F900091E0980F9093540599E0FE013A96DE0156
:104FA000119601900D929A95E1F72DE0829FC00134
:104FB000112484519B4F29E0FE013196DC010190C0
:104FC0000D922A95E1F72FEF3FEFDC011A963C9303
:104FD0002E9319971C96BC92AE921B976C96E2E1A9
:104FE0000C946B352091EB048091EA04922FE0E061
:104FF000F0E06701281314C09093EB04EE15FF0551
:1050000009F4A9CF90E0FC01EE0FFF1FE052FB4F27
:10501000918280820196837099278093EA049BCFC6
:10502000022F10E0F801EE0FFF1FE052FB4F6081EE
:105030007181F7E0F69FD001F79FB00D1124A958B8
:10504000BB4F4D915C9111975C8F4B8F50E030E0DE
:1050500040E0E42FF0E0EE0FFF1F6B8D7C8DE60F3C
:10506000F71F2080318021143104E1F0F701019015
:10507000F081E02DFA8FE98F30E005C02616370663
:1050800009F4552D3F5FE32FF0E0EE0FFF1F698D10
:105090007A8DE60FF71F608171816115710571F7D7
:1050A0004F5FD7CF5523B1F0F601341708F0FD015B
:1050B00031E03483EE15FF0509F49ECF291305C0B6
:1050C000EA17FB0711F49F5F937098012F5F3F4F22
:1050D000237090CFE0E0F0E0F8CF50E031112FC026
:1050E000B30102C0660F771F2A95E2F7CB01019743
:1050F0004817590799F4C4010E94F3090FC050E002
:1051000031111DC0D30102C0AA0FBB1F2A95E2F7BF
:105110009D01215031094217530709F080E0F30146
:1051200002C0EE0FFF1FCA94E2F76F01C094D701CF
:1051300016969C9116979C2116969C930DCFCA01AA
:105140000C2C02C0959587950A94E2F79A0121509C
:10515000310924233523232B39F580FF25C0F7019E
:1051600082819381892BD9F087E0FE013196DF019E
:105170001D928A95E9F70E947D0A9C018B839C838E
:1051800084E08D83F70192818381792F98878987C5
:1051900009811A8144E05E816F810E944625D70112
:1051A00015961C9281E0BBCF8170B9CF80E0D4CE40
:1051B0009091EA048091EB04981309C00E94B125F4
:1051C00010925605109255050E94E20933CE0E94B6
:1051D0000A2630CE9091EB048091EA04981729F0CA
:1051E0000E940A264110FACE25CE0E94B1251092C7
:1051F0005605109255050E94E209F4CFA6E0B0E0F2
:10520000E4E0F9E20C945D350E947D0A8C01809106
:10521000DF029091E0028017910779F019821A82DB
:105220000E947D0ABC0149815A8180E090E00E9481
:10523000BC261093E0020093DF022696E4E00C9473
:105240007935A6E0B0E0E7E2F9E20C945F3590939F
:10525000DC028093DB02811520E2920730F40E9489
:10526000A3102696E2E00C947B3580EF89838A8335
:105270000E947D0A8160BC0149815A8181E091E0F0
:105280000E94BC26EECFA6E0B0E0E9E4F9E20C947F
:105290005F359093DC028093DB02811520E2920758
:1052A00030F40E941A112696E2E00C947B3580EFD0
:1052B00089838A830E947D0A8160BC0149815A8169
:1052C00081E090E00E94BC26EECFCF93DF93D82FF1
:1052D000C92F0E94212980917605909177050E941F
:1052E0006F0C8D2F9C2F0E944329DF91CF91089541
:1052F0000F931F93CF93DF938C01862F66E573E0A6
:105300000E942519892BB1F4C0915603D0915703FF
:10531000209781F0F8018281833051F4CE010E9400
:105320006529CE010E946529CE010E94652902C02F
:105330008430D0F7DF91CF911F910F9108950F9393
:105340001F93CF93DF938C01EB0166E573E08C2F05
:105350000E942519892B09F05AC0FE01FF27D801A8
:1053600012968C911297E758FD4F8130A9F415964B
:105370008C9182FD51C080FF4FC082E0808380917C
:105380005803909159030097B9F480915603909176
:1053900057030097E1F110C08230B9F515968C9152
:1053A00082FD28C080FD0BC083E0808380915A037A
:1053B00090915B03009701F10E94212928C084E0AD
:1053C000808380915C0390915D030097A9F78091A1
:1053D000560390915703009711F10E94652980911F
:1053E000580390915903009739F780915603909193
:1053F0005703E2CF85E08083809156039091570355
:10540000009729F00E946529F0CF86E08083DF9124
:10541000CF911F910F91089581E08083B6CF809145
:10542000580390915903B5CF0F931F93CF93DF93F8
:105430008C01EB0166E573E08C2F0E942519892B06
:10544000A1F480917605909177050E946F0CDD277D
:10545000C758DD4F8881F801128218828330F1F03D
:1054600048F4813059F0823081F0DF91CF911F9163
:105470000F9108958430B9F08530B9F780915603C3
:1054800090915703009789F306C08091580390913B
:105490005903009799F30E944329E7CF80915A035B
:1054A00090915B03F6CF80915C0390915D03009730
:1054B00091F72091560330915703809158039091B2
:1054C000590321153105F1F2009729F7C901E3CFFE
:1054D0009C01CB01BA01F9013296459154916417B0
:1054E000750748F0F9013496659174910E94DF3593
:1054F00080E090E008958FEF9FEF08959C01DA011E
:105500000296FC0145915491FC0185919491A81754
:10551000B90758F0F9013496859194910E94DF35CE
:105520000E945A0E80E090E008958FEF9FEF08955B
:10553000A8E0B0E0EEE9FAE20C945335FE013196B2
:1055400088E0DF011D928A95E9F79BE3A92E91E09F
:10555000B92E8F012FE3E22E21E0F22E3F01CC2461
:10556000C394D12CF50181915F018F3F09F447C0AD
:10557000F894E82FE295EF70F0E021A18F70A6017A
:1055800002C0440F551F8A95E2F7CA01922F982B4B
:1055900091A392A18095892382A3789400C0EFE320
:1055A000F1E021E030E0812C912C41914F3F09F452
:1055B00064C0A42FA295AF70A05EB0E08C9190E083
:1055C0004F7002C0959587954A95E2F781708111D9
:1055D00054C0C901882A992A220F331F51E0EC34A4
:1055E000F50719F7F501319780818F3F11F00E947F
:1055F0005C0880EA8A95F1F7D8018D929C920E5F43
:105600001F4FEA14FB0409F0ADCF48E050E0B301AE
:105610008CEA92E00E94D235892B91F188E0F30167
:10562000ACEAB2E001900D928A95E1F781E08093B7
:10563000A2010E947D0A9093A1018093A001809114
:10564000A0019091A1010E94020B0597E8F048E0AB
:1056500050E06CEA72E082ED92E00E94D235892B34
:1056600049F088E0ECEAF2E0A2EDB2E001900D92A0
:105670008A95E1F71092A20107C080E090E0AACFDE
:105680008091A2018111DBCF2896EEE00C946F355A
:10569000CDB7DEB7C654D1090FB6F894DEBF0FBE42
:1056A000CDBF85B7806885BF85B7806885BF84B763
:1056B000877F84BF0FB6F894A895809160008861B9
:1056C00080936000109260000FBE80E890E00FB6FB
:1056D000F89480936100909361000FBE8AE598E092
:1056E00090939701809396010E9424090E94E118EB
:1056F0000E94770E0E94BE0B0E94140C8091E20063
:1057000084608093E20078948091DA02882399F093
:105710008091E9001091EC001795112717958F7073
:10572000182B1092E9008091E80083FD0E94071376
:105730001F701093E90082E084BD93E095BD9AEF5D
:1057400097BD80936E000E94410E811102C00E949D
:10575000601882E08093CC026EE571E04CE551E088
:1057600000E611E05A01FB0121E030E08191E82ED2
:10577000E294AFE0EA22F12CD7019196DC908F7091
:10578000D90102C0AA0FBB1F8A95E2F7CD019A2F5B
:1057900090959D21D70191969C93919792969C917B
:1057A0009297892B92968C93D5018D915D01E82E6D
:1057B000E294BFE0EB22F12CD7019196DC908F7040
:1057C000D90102C0AA0FBB1F8A95E2F7CD019A2F1B
:1057D00090959D21D70191969C93919792969C913B
:1057E0009297892B92968C930E171F0709F0BECFC4
:1057F000EFE8F1E03197F1F700C000001091CC0222
:10580000FDECEF2EF2E0FF2EEEE5F1E08E2F861B91
:10581000811708F45BC087E90E945C0882E30E945C
:105820005C0885E30E945C0884E30E945C080FE347
:1058300011E0ECE4EE2EE1E0FE2EF80181918F0103
:105840008F3F11F00E945C08E016F106B1F788E086
:10585000E2EDF2E0DF01282F1D922A95E9F7ECEA4C
:10586000F2E0DF011D928A95E9F780E090E00E9466
:105870000D36863E9E4F21F40E94410E811102C0DA
:105880000E94701882E090E00E94FF358093B90278
:1058900084E090E00E940D3690937D0580937C0516
:1058A0000E94982AEFE3FCE93197F1F700C000006D
:1058B0000E94982A8091D20280FF30C06FEF7FEF64
:1058C00080E090E00E9441360E94290D0191802FD6
:1058D00082958F70805E90E0DC012C91DA013D9121
:1058E000AD01832F82958F70805E90E0DC018C91FA
:1058F00090E03F7002C0959587953A95E2F78170E8
:10590000880F30E00F7002C0359527950A95E2F7B1
:105910002170822BD7018D937D0178CF83E090E0B9
:105920000E94FF350E9416058091B402811191C03A
:1059300080E090E00E940D36863E9E4F21F40E944A
:10594000410E811104C00E9470180E94E61688E082
:1059500090E00E9407366B017C0184E290E00E9497
:10596000FF35282F30E040E050E060E070E080E05C
:1059700090E000E20E948635E22FA32EB42EB52FD0
:10598000A62FF72F9701860140E050E0BA01EC29DD
:10599000A12AB22AB32BA42BF52B862B972BE093AD
:1059A0006504A0926604B0926704B0936804A09363
:1059B0006904F0936A0480936B0490936C04E23062
:1059C000C8F50E94E61688E090E00E9407366B0159
:1059D0007C0184E290E00E94FF35282F30E040E017
:1059E00050E060E070E080E090E000E20E948635E8
:1059F0005901B42FA52FF62FE72F9701860140E01C
:105A000050E0BA01AC28B12AB22BA32BF42BE52B22
:105A1000862B972BA0926504B0926604B09367041E
:105A2000A0936804F0936904E0936A0480936B0484
:105A300090936C040E9402091092640480916504A2
:105A400080FF04C060E086950E94D21981E08093B7
:105A5000B40282E091E09093E2028093E10278E167
:105A6000472E512C8091DA0210E401E0853009F4D0
:105A7000A4C00E94982A6AEBA62E62E0B62E02ED20
:105A800012E042EC52E0D801F501219131918D9163
:105A90009D914E175F0709F4C3C028173907A9F372
:105AA00052ED852E52E0952E312CD401ED90FD90D3
:105AB0004D01F501619071905F016E147F0461F1F9
:105AC0006E247F24212CCC24C394D12CC3018C219F
:105AD0009D21892BB9F029823A820E947D0A9C83FC
