:100000000C9488030C94C0030C94C0030C94C0039C
:100010000C94C0030C94C0030C94C0030C94C00354
:100020000C94C0030C94C0030C94122E0C94EA2E72
:100030000C94C72D0C94C0030C94C0030C94C00303
:100040000C94C0030C94C0030C94C0030C94C00324
:100050000C94C0030C94EE2D0C94C0030C94C003BC
:100060000C94C0030C94C0030C94C0030C94C00304
:100070000C94C0030C94C0030C94C0030C94C003F4
:100080000C94C0030C94C0030C94C0030C94C003E4
:100090000C94C0030C94C0030C94C0030C94C003D4
:1000A0000C94C0030C94C0030C94C0030501098098
:1000B000A101850319012AB700150126B700950192
:1000C00075108100C0050C0901A101850419012AE0
:1000D000A002150126A002950175108100C00660DE
:1000E000FF0961A1010962150026FF00952075082E
:1000F00081020963150026FF00952075089102C052
:1001000005010906A101050719E029E715002501E8
:10011000950875018102950175088101050719008F
:1001200029FF150026FF00950675088100050819AE
:1001300001290515002501950575019102950175A7
:10014000039101C009025B00030100A0FA09040049
:1001500000010301010009211101000122440007EF
:1001600005810308000109040100020300000009E1
:10017000211101000122220007058203200001074E
:100180000503032000010904020001030000000927
:100190002111010001223200070584032000011211
:1001A000010002000000081100264D0100010203B9
:1001B000011C037600690061006C003A006600369D
:1001C0000034006300320062003300630000000C62
:1001D0000368007900640072006100000014036D80
:1001E000006500630068007600610075006C0074B3
:1001F00000000004030904290014001A0008001577
:100200000017001C0018000C00120013002A004CFC
:10021000002B0004001600070009000A000B000D67
:10022000000E000F00340000002800E50000001D53
:10023000001B0006001900050011001000360037F1
:10024000005200E100E400E300E200000021522A35
:10025000002C002C0022520000500051004F0001E1
:100260000001000100010001000100010001000186
:100270000001000100010001000100010001000176
:100280000001000100010001000100010001000067
:100290000001000100000001000100010001000157
:1002A0000001000100010001000100010001000146
:1002B0000001000000010001000100010001000038
:1002C0000001000100010001000100010001000126
:1002D0000001000100010001000100010001000116
:1002E0000001000100010001000100010001000106
:1002F00000010001000100000001000100000001F8
:1003000000010001000100010001000100010001E5
:1003100000010001000100010001000000010001D6
:1003200000010001000100000001000100010001C6
:1003300000010001000100010001000100010001B5
:1003400000010001000100010001000100010001A5
:100350000001000100010001000100010001000096
:100360000001000100000001000100010001000186
:100370000001000100010001000100010001000175
:100380000001000000010001000100010001000067
:1003900000010001000100510052004F0050000018
:1003A0000000000100010001000100000000000148
:1003B0000001000100010000000000010001000137
:1003C000000100000000000000000000000000002C
:1003D000000000000000000000000000000000001D
:1003E00000000000000000000000007E0F00D4FFAD
:1003F000FFFFC70000007800000000000000002A96
:100400002B28000000000000000000000000000099
:10041000000029000000002C1E3420212224342654
:1004200027252E362D3738271E1F2021222324254D
:10043000263333362E37381F0405060708090A0B02
:100440000C0D0E0F101112131415161718191A1B74
:100450001C1D2F3130232D350405060708090A0B12
:100460000C0D0E0F101112131415161718191A1B54
:100470001C1D2F3130354C010001003005A925BF6E
:10048000250000020002002C05A925BF250000035D
:100490000001003105A925BF250000040002001657
:1004A00005A925BF258F07050001003205A925BF35
:1004B000250000060002001805A925BF2500000739
:1004C0000002002E05A925BF250000080001003309
:1004D00005A925BF250000120002003405A925BF8B
:1004E000250000130002003605A925BF25000014D1
:1004F0000001003805A925BF2500001500000000F7
:10050000009807E60F0000FD377A585A000004E60D
:10051000D6B4460200210116000000742FE5A3E0C6
:10052000056001C85D003D8889C65436C3174FE495
:10053000DFBC1BC3A96EF970F2E2F4242E9DFE3AD3
:10054000B59CF3D0B4BFDEB56B1DBC9ACA34E7CC02
:100550009197C52B6E825F8F153443A7D99FBE1626
:100560005725D989A1675EE5AA80C2B0889F1FDFA1
:10057000E30E875CF9A6FBE77CB005FD9B09A102B1
:10058000EDE28397ED2549073BC8494B01610B39E3
:1005900035E579BF09C716899B687D2F44B98BA8BB
:1005A0004F3E1F032B217174A39D2DF61127D841B7
:1005B000D669EA3566DD3DA3B2F7838CE3E8E8ACA3
:1005C000812F559B3BFE9E84FE6E83554373925D47
:1005D00022B0ECC9C6857A12F09B6BBA0168480B51
:1005E0005E6EBD63C67848209B62989C0935AA3927
:1005F00030870966AAA2BE0000713A5F0918AACE28
:10060000CE3083D2C580EFCE2E72F6DFE689E902C6
:1006100013B7E10F7A7699DBC994C7DE2F43EECB8F
:100620000A389765558881B897E88F60EB2D7F7CF5
:10063000FB6EFC2D75728635AB400AB36AF02070F4
:1006400092EF25A232540ACF577DEA20E481393F48
:10065000B93D748C6BEAAE4EAFCFEC1ACC4C17A5FB
:1006600014D38639A1818EE5DFD457E0133822896F
:100670006D75DD0E5F01C15378F0AFC1CA193D9FA2
:10068000D7AD702C07FAA6170E482D427864EB9C64
:10069000FB534EF7E42A034336605E5F6ADA009646
:1006A00030670C10C27EF0B3D22B07D89E80A0EB2F
:1006B0009CA856A51CC4C37AA6B0C443F7D46A62EA
:1006C0005B883996C6A2E68D2A1F918A95ECE9A926
:1006D00001A0614E7B9E33A67CCE4CC1BFB58A552E
:1006E0000102F07E2EF8AC1F014267168A00003A24
:1006F000BD1E5CA1547B7F0001E403E10A000012EF
:1007000054746AB1C467FB020000000004595A0027
:1007100011241FBECFEFDAE0DEBFCDBF04B603FE6B
:1007200018C080913E0590913F05A0914005B09181
:1007300041058730904BA740B04B59F410923E05CD
:1007400010923F051092400510924105E0E0F8E359
:10075000099511E0A0E0B1E0EAE0F1E602C0059001
:100760000D92A838B107D9F725E0A8E8B1E001C09B
:100770001D92AE33B207E1F70E9489260C942F3008
:100780000C9400009C01FB019A9581159F4120F576
:10079000D901AA27B270832F8170B90166277470BE
:1007A000A9014427587034FF0DC08295807FAB2B80
:1007B00009F08062672B09F08064452B09F080689E
:1007C00009950895AB2B09F08260672B09F08460CE
:1007D000452BB1F38860F4CF80E0F2CF282F9295BB
:1007E0009F70963091F060F4925F9F70923030F479
:1007F00081E0203F79F030F4283E30F080E0089529
:100800009A5FF3CF243FD1F7089581E0283EE0F3CB
:10081000213FF9CF08958093300408958093150502
:10082000089521E030E001C0220F8A95EAF7809117
:100830001505822B0E940E04089521E030E0A901E5
:1008400002C0440F551F8A95E2F7CA018095909126
:10085000150589230E940E0408959B01677091E09D
:1008600001C0990F6A95EAF763E0369527956A9576
:10087000E1F7B901660F771F260F371FFA01E20F64
:10088000F31F40E050E0682F70E08191DF01119785
:100890009B01042E02C0369527950A94E2F7217039
:1008A00021952827292328272C934F5F5F4F43301A
:1008B000510559F708959C01A82FA77083E036953C
:1008C00027958A95E1F7C901880F991F820F931F19
:1008D000FB01E80FF91F40E050E080E0219130E09B
:1008E0000A2E02C0369527950A94E2F72170332725
:1008F000042E01C0220F0A94EAF7822B4F5F5F4F4C
:100900004330510559F70895282F862F903F79F0ED
:10091000943070F42D3058F4622F70E02DE0929FE7
:10092000600D711D112449E053E00E942D040895CB
:100930009C5F9230E0F7622F70E046E053E0F5CF25
:10094000903FC9F0943080F48D30A8F4282F30E027
:1009500069E073E0A901EDE09E9F400D511D112457
:10096000CA010E945B0408959C5F923020F466E007
:1009700073E090E0F6CF80E008959091150521E0B6
:1009800030E0F90101C0EE0F8A95EAF7D90102C003
:10099000AA0FBB1F6A95E2F7EA2B01C0220F4A9506
:1009A000EAF7892F8E23E81305C0892F822B0E9436
:1009B0000E0408952095822F8923F9CF8091B402E7
:1009C0009091B302981301C008958F5F8770FACF9A
:1009D000ACE8B1E0EFEF90E02D91821751F0EF3FDE
:1009E00019F4211101C0E92F9F5F9630A9F7EF3F5D
:1009F00009F408950E2E000CFF0BE657FE4F82837C
:100A00000895ECE8F1E09191891303C0DF0111979B
:100A10001C9291E0E239F907B1F708959091320400
:100A20008095892380933204282F2770211111C0CB
:100A3000891779F090913B0592FF0BC086958695BA
:100A400086950E941D041092320410923404109274
:100A50003304089590912E04982B90932E040895BA
:100A6000982F909580912E04892380932E040895C9
:100A700080912D04882331F010922D0410922C04C3
:100A800010922B040895803E9105D1F1C8F4813372
:100A9000910509F47FC048F48932910509F46FC0CB
:100AA0008A32910509F47DC0089589339105E1F0FA
:100AB00082389105C9F08533910509F45BC008952A
:100AC000843E9105D1F148F4823E910531F1833E97
:100AD000910541F181EE90E00895863E9105C1F1C6
:100AE000873E9105E1F1089520913A052370211187
:100AF00065C020913B0523FF14C089E290E0089572
:100B000020913A0520FD43C030913B0530FF09C0DC
:100B100024FF4EC080E090E0089520913A0522FD28
:100B2000F7CF089520913A0522FD45C030913B054D
:100B300030FD44C024FFF5CFEDCF20913B0521FFD0
:100B4000F0CF80913A0584FDE5CF87EE90E00895DF
:100B500020913A0523FFE5CF24FDDCCFF6CF20918D
:100B60003A0523FD2EC030913B0531FFE3CF84EEE3
:100B700090E0089520913A0525FFD3CFBECF209174
:100B80003A0525FD21C020913B0523FFCACF89E30B
:100B900090E0089520913A0526FFC3CF8AE290E0C5
:100BA000089520913A0526FFBCCF81E390E0089597
:100BB00083EE90E0089582EE90E0089580EE90E05C
:100BC000089586EE90E0089585E390E0AACF909195
:100BD0003A0592FF10C041E0282F2471243009F01B
:100BE00040E031E0282F2871283009F030E0431729
:100BF00011F02CE0822793FF10C041E0282F2471D0
:100C0000243109F040E031E0282F2871283109F023
:100C100030E0431711F02CE0822730913B0530FF84
:100C200010C051E0282F2171213009F050E041E03F
:100C3000282F2871283009F040E0541711F029E0DE
:100C4000822731FF10C041E0282F2171213109F0A6
:100C500040E031E0282F2871283109F030E04317B7
:100C600011F029E0822794FD877E08951F93CF938A
:100C7000DF930E944305EC01811522E5920708F0FD
:100C800053C0811540E5940708F0DDC0803E910512
:100C9000F8F48D3C910508F0AEC0883A910580F4D7
:100CA000853A910508F099C08130910521F00497AB
:100CB000813A910550F4CE01DF91CF911F910895B3
:100CC000885A91094B9708F48BC0C0E0D0E0F3CF6D
:100CD000811550E49507F8F4C11580E2D80708F0B3
:100CE000CBC0C83ED10538F3CE019A9581159F41FE
:100CF00060F78D2F0E94E705182FCE0199270E94DB
:100D00004305212F30E0322F2227E901CC27DF7164
:100D1000C82BD92BD0CF99270E944305CC27DF7051
:100D2000C82BD92BD06AC7CF803842E59407C8F5C5
:100D3000803652E5950708F067C0C03482E5D807D1
:100D4000B0F08C2F86958695877020E2829FC00137
:100D50001124C37021E030E0A90102C0440F551FE7
:100D6000CA95E2F7EA01C82BD92BDC68A4CFC032C0
:100D700052E5D50708F041C08C2F8695869520E274
:100D8000829FC0011124C37021E030E0A90102C09C
:100D9000440F551FCA95E2F7EA01C82BD92BDD682D
:100DA0008ACF803C52E5950760F48F71C03AD245F6
:100DB00008F03FC090E0982F8827EC01C46FD06AFC
:100DC0007ACF805C9245809708F07FCFDC2FCC27CC
:100DD000CC27DF71C06FD06A6ECFA497D0646BCF81
:100DE000C85AD0E0CC0FDD1FCE5ADE4F0990D88113
:100DF000C02DD46460CFD0655ECFCF71D0E0DC2F42
:100E0000CC27C16FD06A57CF86958695877020E230
:100E1000829FC0011124C37021E030E0A90102C00B
:100E2000440F551FCA95E2F7EA01C82BD92BDA689F
:100E300042CF0E94E705C82FD0E0DC2FCC27CC277B
:100E4000DF71D06238CF8F710E94E70565E0D695DB
:100E5000C7956A95E1F7CF70D0E0DC2FCC27282F1B
:100E600030E084FF05C054E0220F331F5A95E1F7AC
:100E7000C22BD32BD0691FCF8D2F8F710E94E70516
:100E8000182FCE0199270E944305212F30E0322FE1
:100E9000222722273F71282B392BE901D2CF80E06E
:100EA0000895F894E82FE295EF70F0E041A18F707B
:100EB00021E030E0B90102C0660F771F8A95E2F7A2
:100EC000CB01962F9095942391A392A1892B82A375
:100ED0007894089581152CE7920741F420910B0135
:100EE00030910C01232B11F480E090E00895ECE2A6
:100EF000F3E080E090E069EB74E240EE54E225E537
:100F000035E27783668351874087338722879787C7
:100F10008687019670968F30910599F70895809194
:100F200016059091170590930A0180930901089581
:100F3000A0E0B0E0EEE9F7E00C945A2FFB018FEF50
:100F40009FEF4430510508F465C040913A0541FBDC
:100F5000882780F990E0880F991F42FBAA24A0F807
:100F6000B12CAA0CBB1CAA0CBB1C8A299B2940FBD8
:100F7000882480F8912C8829992943FBCC24C0F837
:100F8000D12C53E0CC0CDD1C5A95E1F78C299D291E
:100F900044FBEE24E0F8F12C64E0EE0CFF1C6A95B3
:100FA000E1F78E299F2945FB002700F910E075E045
:100FB000000F111F7A95E1F7802B912B46FB22271A
:100FC00020F9C22F20E0D22FA6E0CC0FDD1FAA957A
:100FD000E1F78C2B9D2B47FB442740F920E8429FEB
:100FE000A0011124842B952B20913B05322F3170C9
:100FF000932B26952170B22FBB0FA0E08A2B9B2B41
:10100000092E000CAA0BBB0B80839183A283B383B0
:1010100080E090E0CDB7DEB7ECE00C94762FAC0129
:1010200023E0969587952A95E1F78E719927FC0123
:10103000EB54FE4F0190F081E02D4F70552721E0D9
:1010400030E002C0220F331F4A95E2F7662341F0D9
:10105000E22BF32B8B549E4FDC01ED93FC93089510
:1010600020953095E223F323F5CF1092A704109238
:10107000A604E5E3F4E08581811102C014821682A2
:10108000379684E0EE39F807B1F70895AC01309156
:10109000A9046091A804232F621301C00895822F30
:1010A00090E0FC01EE0FFF1FE256FB4F0190F08134
:1010B000E02DE417F50791F467E0649FF001659F68
:1010C000F00D1124EB5CFB4F41E044832313E6CF8A
:1010D0000196837099278093A90408950196282F7B
:1010E0002370DACFFA01309709F009950895E0915D
:1010F000A902F091AA02309729F00190F081E02D29
:101100000995089580E00895A3E0B0E0EAE8F8E0EA
:101110000C94642F9C018091B2019091B3018217CD
:101120009307A1F03093B3012093B201E091A9029B
:10113000F091AA02309751F083E089833B832A83A0
:101140000680F781E02DCE01019609952396E2E015
:101150000C94802FA3E0B0E0E0EBF8E00C94642F57
:101160009C018091B0019091B10182179307A1F089
:101170003093B1012093B001E091A902F091AA024D
:10118000309751F084E089833B832A830680F7817E
:10119000E02DCE01019609952396E2E00C94802F74
:1011A0002FB7F8948091AC019091AD01A091AE0160
:1011B000B091AF012FBF0895809118059091190546
:1011C000892B91F00E94D00820912B0430912C049F
:1011D000AC01421B530B9A0181E0409118055091DC
:1011E00019052417350708F480E08170089590915F
:1011F0003B0592FF10C098E0899F90011124622B5B
:10120000609332040E9411040E94D0089093340429
:101210008093330408950E941104089590912D0441
:10122000292F2823222361F08095892380932D0480
:10123000882339F00E94D00880932B0490932C04CB
:10124000089580E090E0F8CFCF93C82F80913B05C0
:1012500082FF0CC080912D048C1741F00E94D008B1
:1012600090932C0480932B04C0932D04CF91089568
:10127000A4E0B0E0EEE3F9E00C94642F8FB7F894AB
:101280002091AC013091AD014091AE015091AF0180
:1012900029833A834B835C838FBF69817A818B81F9
:1012A0009C812496E2E00C94802F9C014FB7F89427
:1012B0008091AC019091AD01A091AE01B091AF01D0
:1012C0004FBF821B930B08958091AB010895089541
:1012D000FC019B018091A1019091A20186179707C3
:1012E00040F0672B29F48091E8008E778093E80026
:1012F000C90140E0009741F4411106C08091E80027
:1013000082FF2FC080E008952091A2022223A9F13C
:101310002530A9F12091E80023FD2DC02091E8009F
:1013200022FDECCF2091E80020FFE4CF3091F300C4
:101330002091F200009719F02830310558F041E073
:101340002830310509F040E02091E8002E77209305
:10135000E800D0CF41914093F10001972F5F3F4FBC
:10136000E9CF8091A202882341F0853041F080913D
:10137000E80083FFC3CF81E0089582E0089583E011
:10138000089580919B0187FF13C08091E80082FF40
:1013900006C08091E8008B778093E80004C08091BC
:1013A000A2028111F2CF08958091A2028823D9F37D
:1013B0008091E80080FFF8CF8091E8008E77ECCF35
:1013C0002091E4003091E50095E6A9018091EC00C0
:1013D0008170882331F08091E80080FF06C080E0B2
:1013E00008952091E80022FD1BC08091A20288236D
:1013F00091F0853091F08091EB0085FD10C0209137
:10140000E4003091E5004217530701F39150911128
:10141000DCCF84E0089582E0089583E0089581E0C0
:101420000895E8EDF0E080818E7F80831092E200E5
:101430001092DA001092E100A0EEB0E08C91816091
:101440008C9380818F77808319BCA7EDB0E08C915D
:101450008E7F8C9380818F7E808310929A01089575
:10146000982FE42FE2709093E900891308C0762F3B
:10147000242F50E0E11111C091E0980FF4CF70914A
:10148000EC002091ED005091F00021FD06C09F5F1F
:10149000973049F78093E90008953091EB003E7F43
:1014A0003093EB003091ED003D7F3093ED003091B3
:1014B000EB0031603093EB007093EC002093ED0073
:1014C0005093F0002091EE0027FDE1CF0895A0E0B9
:1014D000B0E0EDE6FAE00C945E2FC8EDD0E0888134
:1014E0008F7E8883E7EDF0E080818160808384E0F7
:1014F00082BF81E080939A0188818E7F888302EE8B
:1015000010E0F80110821092DA0081EEC82ED12C82
:10151000F601108288818F7788838881806888832C
:1015200088818F7D888319BC1092A2021092990144
:10153000109283021092980190EEE92EF12CF7019F
:1015400080818B7F808388818160888342E060E036
:1015500080E00E94300AF60180818E7F8083F8014E
:10156000808181608083808188608083F7018081B1
:101570008E7F8083888180618883CDB7DEB7E8E085
:101580000C947A2F9C012115310509F408958FE9F7
:101590009FE00197F1F700C0000021503109F3CF1F
:1015A00081E08093E00080E28093D8001092C9002F
:1015B0008FE19EE40197F1F700C0000087E090EB17
:1015C000DC0180933E0590933F05A0934005B093C6
:1015D000410588E19CE00FB6F894A89580936000DF
:1015E0000FBE90936000FFCF0F931F93CF93DF93B5
:1015F000EB018A019091A202943079F58093E90081
:101600008FEF9091E80095FD07C095ED9A95F1F761
:10161000000081508111F5CF8091E80085FF1DC049
:101620000E94E009811114C08091E80085FD06C088
:101630008091E8008E778093E800F2CF88818093D4
:10164000F100015011090115110511F02196ECCF9F
:101650008091E8008E778093E800DF91CF911F9111
:101660000F910895CF93DF93D82FC92F48E050E012
:10167000682F792F81E00E94F40A88E0ED2FFC2F7B
:10168000A3EAB1E001900D928A95E1F7DF91CF9145
:101690000895BC0143E050E084E00E94F40A0895FC
:1016A00090913B0592FB222720F9281779F080FBC7
:1016B00092F990933B0560913A0570913B0584E067
:1016C00090E00E94113082E00E940E050895882368
:1016D00081F061E085E290E00E94F32F60EA86E20B
:1016E00090E00E94F32F64E487E290E00E94F32FE1
:1016F00008956FEF85E290E00E94F32F6FEF86E28E
:1017000090E00E94F32F6FEFEFCF1F93CF93DF9303
:10171000962F122F632F282F292B2430C8F44D30F9
:10172000B8F4C42FD0E0CC0FDD1F2AE1929FC00D8A
:10173000D11D112498E6899FC00DD11D1124CE0121
:1017400089960E94F32F612FCE018A960E94F32F73
:10175000DF91CF911F9108951F93CF93DF93C62FF1
:10176000122F632F8430C8F4C330B8F494E0C99FBB
:10177000E00111249CE0899FC00DD11D1124C753A5
:10178000DE4FCE01442369F00E94F32F81E090E008
:10179000612F8C0F9D1F0E94F32FDF91CF911F911E
:1017A000089502960E94F32F83E090E0F1CFCF934B
:1017B000DF93C9E4D3E060E0CE010E94F32F2196CD
:1017C000C11584E0D807B9F7DF91CF91089585E27C
:1017D00090E00E94D52F813089F486E290E00E944B
:1017E000D52F803A59F487E290E00E94D52F91E0FE
:1017F000843409F090E0892F8170089580E0FCCF57
:101800000F931F93CF93DF9306E115E0C9EFD1E06B
:10181000CE010E94D52FF80161918F01861719F032
:10182000CE010E94F32F2196CD31F2E0DF0781F740
:10183000DF91CF911F910F9108950F931F93CF9335
:10184000DF9306E115E0C9EFD1E0CE010E94D52F6C
:10185000F80181938F012196CD31F2E0DF07A9F7DE
:10186000C1E8D4E0FE0185919491009711F0FC014C
:1018700009952C96F5E0C131DF07A1F7DF91CF91F3
:101880001F910F9108950F931F93CF93DF93982F7C
:10189000962B943020F54D3010F5C42FD0E0CC0FAE
:1018A000DD1F2AE1629FC00DD11D112438E6839F00
:1018B000C00DD11D1124CE0189960E94D52F082F6D
:1018C00010E0102F0027CE018A960E94D52F980194
:1018D000282BC901DF91CF911F910F91089580E0CE
:1018E00090E0F8CF0F931F93CF93DF93843070F580
:1018F000633060F524E0629F800111243CE0839F07
:10190000000D111D112407531E4FC8014423A1F0DF
:101910000E94D52FC82FD0E0DC2FCC2781E090E0AB
:10192000800F911F0E94D52F9E01282BC901DF91A6
:10193000CF911F910F91089502960E94D52FC82F25
:10194000D0E0DC2FCC2783E090E0EACF80E090E08D
:10195000EECF2091A5023091A602232BD9F4703F3F
:1019600039F4603FB9F48091A3029091A4020895E4
:10197000743048F46D3070F4843060F4462F672F73
:101980000E94430C08957D3F41F4633018F441E018
:10199000843050F080E090E008957C3FD9F76330C8
:1019A000C8F78430B8F740E00E94720C0895A0E0B8
:1019B000B0E0EDEDFCE00C945F2F7C01009115058B
:1019C00080913004082BC3E0D0E010E0C8010C2E59
:1019D00002C0959587950A94E2F780FD09C021978A
:1019E000A8F7D12C8D2DCDB7DEB7E7E00C947B2F77
:1019F000DC2EB7018C2F0E94A90C0E94360601979D
:101A000071F3F0CFCF93DF93D82FC92F0E94D70C5B
:101A10006D2F7C2F0E94A90C0E943606DF91CF917A
:101A20000895FC018481882371F087819085009757
:101A300029F00E9436060E94EE030895808191816C
:101A40000E94020DF8CF80E008951F93CF93DF939B
:101A5000182FD92F662399F0442389F00E94D70CC0
:101A6000C82F682F812F9D2F0E948404612F7D2F06
:101A70008C2F0E94A90CDF91CF911F9108950E9495
:101A8000A004C82FF3CFFC01462F878190850097D3
:101A900029F46581808191810E94250D08958091AE
:101AA0002E0490913104892B80938A0180912D041A
:101AB000882309F18091180590911905892B29F047
:101AC0000E94DC0881110E94380580918A01909162
:101AD0002D04892B80938A0120E08CE891E0FC01A1
:101AE0003081019631112F5F31E082399307B9F7C8
:101AF00021110E94380548E050E06BEA72E08AE864
:101B000091E00E94A82F892BA9F088E0EAE8F1E093
:101B1000ABEAB2E001900D928A95E1F7E091A9025B
:101B2000F091AA02309731F00280F381E02D8AE82B
:101B300091E009950895882321F00E942A050E94CA
:101B40004F0D0895882339F090913104892B8093AB
:101B500031040E944F0D0895882321F00E94300522
:101B60000E944F0D0895882341F080959091310493
:101B70008923809331040E944F0D0895CF93C82F7D
:101B80008823C9F08238C9F40E94770881FD13C008
:101B900089E30E94E8040E944F0D2FEF37EE83E0A7
:101BA000215030408040E1F700C0000089E30E94EE
:101BB00001050E944F0DCF9108958338A1F40E9432
:101BC000770880FDF8CF83E50E94E8040E944F0D5E
:101BD0009FEF21EE34E0915020403040E1F700C00B
:101BE000000083E5E4CF8438A1F40E94770882FDE9
:101BF000E2CF87E40E94E8040E944F0D8FEF91EE40
:101C000024E0815090402040E1F700C0000087E4CC
:101C1000CECF8CEF8C0F813A70F4ECE8F1E082E9E2
:101C200091E02191C21771F18E179F07D1F78C2F88
:101C30000E94E804BECF80E28C0F883048F4C77061
:101C400081E001C0880FCA95EAF70E942A05B1CF4A
:101C50008BE58C0F833038F42C2F2452330BC901C1
:101C60000E948408A8CFC85ACB3108F0A4CFEC2F2B
:101C7000F0E0EE0FFF1FEE5AFE4F808191810E942F
:101C8000AA0899CF8C2F0E9401050E944F0DCFCF3B
:101C9000CF93DF93EC01805E9109089720F062EA10
:101CA0007DE0209711F46BE97DE0CE010E94C20334
:101CB0008C2F0E94BE0DDF91CF910895662329F0ED
:101CC000209131042260209331049C01305221156F
:101CD000304308F499270E94480E0895882309F498
:101CE0004DC0823879F40E94770881FF47C089E3AC
:101CF0000E94E8040E944F0D89E30E9401050E94A2
:101D00004F0D0895833859F40E94770880FF36C03C
:101D100083E50E94E8040E944F0D83E5EECF8438EE
:101D200059F40E94770882FF29C087E40E94E804E2
:101D30000E944F0D87E4E1CF9CEF980F913AE8F2B3
:101D400090E2980F983050F4877091E001C0990F9D
:101D50008A95EAF7892F0E943005D1CF9BE5980F2D
:101D6000933028F480E090E00E9484080895885A17
:101D70008B3120F480E090E00E94AA080895CF9370
:101D8000DF93EC010E946E0ECE01805E91090897F0
:101D900020F063EB7DE0209711F46CEA7DE0CE014A
:101DA0000E94C203DF91CF9108950F931F93CF93A9
:101DB000C82F0091360510913705893321F0009125
:101DC0003405109135058C2F0E94BE0D01151105AB
:101DD00039F48C2F0E946E0ECF911F910F910895B0
:101DE0008FE99FE00197F1F700C000000150110951
:101DF000EDCFA0E0B0E0EFEFFEE00C945E2FEC0141
:101E0000C62E9881992309F4B0C0913009F04DC0D5
:101E10008981813091F48E010E5F1F4F8A810E946B
:101E2000D50EE80121968C2D815058F3EFE9FFE0A3
:101E30003197F1F700C00000F7CF823039F48E01FE
:101E40000E5F1F4F8A810E94BE0DEBCF833039F4A5
:101E50008E010E5F1F4F8A810E946E0EE2CF84308A
:101E600011F02196DFCF2A81229680E090E06AE08F
:101E7000AE014F5F5F4F2053330B2A30310550F0D6
:101E8000009781F2EFE9FFE03197F1F700C0000021
:101E90000197F6CF689FF001699FF00D1124C901E9
:101EA0008E0F9F1F2981EA01E3CFE92FF0E0E9506F
:101EB000FC4FD490292F26952695269530E0F901E0
:101EC000E951FC4F84919770F901E952FC4FE4907D
:101ED000F12C092E02C0F594E7940A94E2F7F1E0A0
:101EE000EF22FF24F901E953FC4F049110E0092E81
:101EF00002C0159507950A94E2F701701127E82FA3
:101F0000F0E002C0F595E7959A95E2F7E0FD0EC086
:101F1000E114F104B1F48D2D0E94D50E01151105C7
:101F200009F480CF8CE20E94D50E7CCF81EE0E9416
:101F3000BE0DE114F10479F48D2D0E94D50E81EED1
:101F400007C086EE0E94BE0D8D2D0E94D50E86EE36
:101F50000E946E0EE3CF86EE0E94BE0D8D2D0E9474
:101F6000D50E86EE0E946E0EEACFCDB7DEB7E8E062
:101F70000C947A2F10922E04ECE8F1E086E0DF0159
:101F80001D928A95E9F780E090E00E94840880E045
:101F900090E00E94AA08109231040E944F0D08950B
:101FA0000E94BA0F2FEF84E39CE0215080409040C4
:101FB000E1F700C0000088E19CE00FB6F894A89516
:101FC000809360000FBE90936000FFCFCF92DF92AE
:101FD000EF92FF92FB018FEF9FEF4430510508F421
:101FE00081C0C080D180E280F3800E94BA0FD70107
:101FF000C601B695A795979587958170282F220FD2
:10200000D701C60181709927AA27BB27822BB70168
:10201000A60132E076956795579547953A95D1F7A1
:102020004170440F440F842BB701A601E3E076957D
:10203000679557954795EA95D1F74170440F440F3E
:10204000440F842BB701A601F4E076956795579568
:102050004795FA95D1F741704295407F842BB7019F
:10206000A601A5E07695679557954795AA95D1F76E
:1020700041704295440F407E842BB701A601B6E023
:102080007695679557954795BA95D1F741704295E2
:10209000440F440F407C842BB701A60197E076954E
:1020A0006795579547959A95D1F747954427479552
:1020B000842B80933A05D1FA882780F9880F9D2DCB
:1020C0009170892B90913B059C7F892B80933B05D8
:1020D00060913A0570913B0584E090E00E941130D8
:1020E00080E090E0FF90EF90DF90CF900895E6E1E0
:1020F000F5E0128E138E8FEA90E09183808385E065
:10210000848F28E833E13383228322E330E0378B66
:10211000268B28EC30E0318F208F158E2AE030E0BE
:10212000378F268F20E530E031A320A382A30E94C1
:10213000000C0E94BA0F10923B0510923A0580E005
:10214000846080933B0560E074E084E090E00E944E
:1021500011300E941D0C0895AAE2B0E0E2EBF0E11C
:102160000C94632F8BE991E0FC0101962091F10022
:10217000208321E0833A9207B9F780919C0189304E
:1021800009F456C0C8F4823009F4B3C0833009F4AE
:1021900082C0813071F18091E80083FFE7C08091B7
:1021A0009B0190919C019A3008F0E0C0E92FF0E08B
:1021B000EF5CFF4C0C94472F8A3009F489C08B30B8
:1021C00051F780919B01813231F780919F0190916D
:1021D000A001892B01F78091E800877F8093E800B8
:1021E0000E94C10980919D01809300010E94BA0F55
:1021F000D2CF80919B01813A71F68091E800877F70
:102200008093E80080919F019091A001892B61F05B
:1022100060E080E090E070E00E9468098091E80052
:102220008B778093E800B7CF68E083EA91E0F3CF43
:1022300080919B01813209F0AECF80919F019091F6
:10224000A0018D7F892B09F0A6CF8091E800877FC0
:102250008093E8008091E80082FF18C09091F3001D
:102260008091F200029731F48091F100813011F0F9
:10227000863021F48091F1008093AB018091E800D9
:102280008B778093E8000E94C10985CF8091A202DC
:102290008111E0CF80CF80919B01813A09F07BCF03
:1022A00080919F019091A001892B09F074CF8091BA
:1022B000E800877F8093E8008091E80080FFFCCFF2
:1022C000809100018093F1008091E8008E77D9CF52
:1022D00080919B01813209F05ECF8091E800877F79
:1022E0008093E8000E94C10980919E01809397012C
:1022F00052CF80919B01813A09F04DCF8091E80047
:10230000877F8093E8008091E80080FFFCCF809178
:102310009701D8CF803889F0823841F580919F01AC
:102320008F70873018F58093E9008091EB0085FB72
:10233000882780F91092E90006C080919801909159
:102340008302911182609091E800977F9093E8005A
:102350008093F1001092F1008091E8008E7723C005
:10236000811116C080919D01813011F18091E800AA
:1023700083FF0AC08091E800877F8093E800809106
:10238000EB0080628093EB00AA96E3E00C947F2F31
:10239000823061F780919D01882389F01092E900D5
:1023A0008091E800877F8093E8000E94C109DECF1A
:1023B00081E0933009F080E080938302EFCF809139
:1023C0009F018F702FEF280F263080F68093E90051
:1023D0002091EB0020FFE2CF933031F48091EB00AD
:1023E00080628093EB00DACF9091EB009061909344
:1023F000EB0021E030E0A90102C0440F551F8A958F
:10240000E2F74093EA001092EA008091EB008860C6
:10241000E8CF8111ABCF10919D011F778091E30030
:102420008078812B8093E3008091E800877F809300
:10243000E8000E94C1098091E80080FFFCCF8091F4
:10244000E30080688093E30083E0111101C082E023
:102450008093A2028BCF8058823008F087CF4091C2
:102460009D0150919E014C3D83E0580799F583E012
:102470008A838AE289834FB7F894DE01139620E0BD
:102480003EE051E2E32FF0E050935700849120FFAB
:1024900003C082958F703F5F8F708A30C8F0895C6F
:1024A00090E08D939D932F5F243161F74FBF809112
:1024B000E800877F8093E8006AE270E0CE01019631
:1024C0000E9468098091E8008B778093E8004ECFE6
:1024D000805DE6CF80919F019091A001252F332749
:1024E0002330310509F44AC078F52130310509F46B
:1024F00083C08BE590E0E4E4F1E02230310509F09F
:1025000035CF2091E800277F2093E8002091A1019A
:102510003091A2018217930708F49C0140E0211535
:10252000310509F06EC041116CC08091E80082FD58
:10253000C9CF8091A202882329F2853019F28091B7
:10254000E80083FFF2CFBECF2132310509F445C048
:102550002232310509F00ACF8330910508F006CF09
:10256000FC01EE0FFF1FE15EFE4F0190F081E02DB8
:10257000845E9E4FDC018C9190E010C0CA019927C7
:10258000423019F18330910568F4892BB1F4E3EFFF
:10259000F1E0E4918E2F90E0E3EFF1E0009709F491
:1025A000E5CEAFCF039709F0E1CEE1EBF1E0E491A6
:1025B0008E2F90E0E1EBF1E0F1CFEDEDF1E0E49171
:1025C0008E2F90E0EDEDF1E0E9CFEFECF1E0E4915A
:1025D0008E2F90E0EFECF1E0E1CF8330910508F031
:1025E000C5CEFC01EE0FFF1FEB5DFE4F0190F081A9
:1025F000E02D89E090E085CF82E190E0EFE9F1E025
:1026000080CF8091A202882309F45CCF853009F441
:1026100059CF8091E80083FD55CF8091E80082FD7D
:1026200084CF8091E80080FF7ACF9091F300809171
:10263000F2002115310519F08830910550F041E084
:10264000089709F040E08091E8008E778093E800D9
:1026500066CF44914093F1003196215031090196A3
:10266000E8CF803809F082CE8091E800877F8093A0
:10267000E800809199018093F1006ECE811176CEB1
:1026800010919D01123008F071CE8091E800877F93
:102690008093E800109399010E94C1091123D1F0A1
:1026A00084E08093A20242E061EC81E00E94300A63
:1026B00042E261EC84E00E94300A42E261EC82E096
:1026C0000E94300A42E260EC83E00E94300A80916E
:1026D000A2024CCE8091E30087FDE2CF81E0E1CF02
:1026E00080910D01877F80930D01909131049D7F32
:1026F0009093310484FF06C08F7E80930D0182E0A9
:102700000E942A0580910D0185FF06C08F7D809370
:102710000D0180E20E942A050E944F0D0895CF927C
:10272000DF92FF920F931F93CF93DF93EC018B0106
:10273000F42E80910D0182FF66C0C0901E04D090DF
:102740001F04CC16DD0619F0209709F05CC08091BB
:102750000D018B7F80930D01C1E081FD10C0809140
:102760001C0490911D049801281B390BC1E0809135
:10277000090190910A012817390708F4C0E0C170D7
:1027800080910D01C0FB81F980930D016C2FC60172
:102790000E940F0880912E0481FF08C080910D01D6
:1027A000806180930D0182E00E94300580912E04AB
:1027B00085FF08C080910D01806280930D0180E249
:1027C0000E9430056C2FC6010E945E0EFF2031F082
:1027D0008091310585FF02C086FF29C080913405B4
:1027E000909135050E94C20A80911E0490911F04A9
:1027F0009C0130522115304308F499270E94BF0EE6
:102800000E94701310C0CE01905281159043B8F40D
:10281000CE0199270E94BF0E80911E0490911F0443
:10282000C817D90769F310931D0400931C04DF91A6
:10283000CF911F910F91FF90DF90CF900895CE011F
:10284000E9CFCF93DF93EC014A855B856E857F8569
:102850000E9472089B819095809131048923809316
:1028600031048C810E9430050E944F0D86E0FE01EC
:1028700011928A95E9F7DF91CF910895CF93DF9375
:10288000EC018D8181FD14C082608D8380913104C3
:102890009B81892B809331048C810E942A050E94A0
:1028A0004F0D488559856E857F85CE010E9472083F
:1028B00010922903109228038D8180FD03C0CE0160
:1028C0000E942114DF91CF910895A4E1B0E0EBE6DE
:1028D000F4E10C94572FA0900B01B0900C0181E013
:1028E00090E090930C0180930B0137E9832E33E045
:1028F000932EC12CD12C10E0360100E015C0F70159
:1029000025913491452D602F812F0E94850B22E067
:10291000E20EF11C53943DE05312F1CF8DE0680EAE
:10292000711C0F5F043049F0C301880F991FDC014F
:10293000A950BE4F7D01512CE2CF740100E0F70198
:102940002591349141E0602F812F0E94AC0BF7015B
:1029500032962591349140E0602F812F0E94AC0B7C
:10296000B4E0EB0EF11C0F5F033049F72CE0820E50
:10297000911C1F5F34E3C30ED11C143009F0BCCF8F
:102980000E9477101A8219821C821B821E821D826D
:1029900018861F8288EC90E09A8789870DE112E003
:1029A0004AE050E0B801CE0101960E941730065F60
:1029B0001F4F033B82E0180799F7FE013B968AE020
:1029C000DF011D928A95E9F77F014AE050E0B801E6
:1029D000C7010E941730065F1F4F0934B3E01B0781
:1029E000A1F7B0920C01A0920B016496EFE00C9459
:1029F000732F80E00E94670B60E088E290E00E9405
:102A0000F32F0E9465140E94D70B81E00E94670B90
:102A10000895AAE0B0E0EFE0F5E10C945E2FE5ED5B
:102A2000F1E086E9DF011D928A95E9F7E5E3F4E03C
:102A300089E6DF011D928A95E9F785EDC82E81E0D0
:102A4000D82E7F0103EB12E0F701D182C0824AE069
:102A500050E0B801CE0101960E94C52F88E0FE012A
:102A60003196D60101900D928A95E1F789859A8574
:102A7000D70113969C938E931297BAE0CB0ED11C7C
:102A8000E7E0EE0EF11C065F1F4F0934F3E01F076D
:102A9000D9F62A96E8E00C947A2F282FCB012F3014
:102AA00070F44AE0249F90011124B901635E7D4FC8
:102AB0004AE050E00E94C52F80E090E008958FEF3B
:102AC0009FEF0895AAE0B0E0E8E6F5E10C94642FEA
:102AD0009C0197558F3F910509F070F4BE016F5F1F
:102AE0007F4F822F0E944D15892B31F489859A855D
:102AF0002A96E2E00C94802F80912E0590912F056C
:102B0000F7CFA0E0B0E0E7E8F5E10C945F2FD62E18
:102B1000172FC42FD22F8823A9F0409329040E9495
:102B2000D0089093960180939501C77081E001C011
:102B3000880FCA95EAF70E949B0DCDB7DEB7E7E094
:102B40000C947B2F80912904481337C08091950104
:102B5000909196010E9455097C018D2D912F0E9424
:102B60006215E816F90648F5CD130CC0802F0E94B7
:102B7000D50ED77081E001C0880FDA95EAF70E9480
:102B8000AC0DDBCFC77011E0812F01C0880FCA9553
:102B9000EAF70E94AC0D80E28D0F883050F48D2F43
:102BA000877001C0110F8A95EAF7812F0E949B0D53
:102BB000DDCF802F0E94D50EC0CFC77081E001C04D
:102BC000880FCA95EAF7DBCFA4E0B0E0EAEEF5E1C2
:102BD0000C945C2F7C01DC0114968C91882309F401
:102BE000F6C361E0C7010E94430D8C01F7018581A6
:102BF000882319F180912803909129030097E9F027
:102C000008171907D1F0992744E0880F991F4A95B2
:102C1000E1F7FC01EF5CFC4F208124602083845DA0
:102C20009C4FDC010D931C930E943E1410923104C2
:102C300061E0C7010E94430D8C01F7018581882363
:102C400009F4BCC0C80197578038910508F056C1F7
:102C5000D02EFFE0F01708F4AAC38FEF93E00E9494
:102C6000D52F8111A4C309E413E0D1103DC0809198
:102C70000F0190911001A0911101B091120189836F
:102C80009A83AB83BC8368014FEFC41AD40AC8018E
:102C90000E94D52F89831A82882309F488C3813042
:102CA00009F085C0580152E0A50EB11CC6010E9472
:102CB000D52FD82E8A83882309F479C3C5010E94B1
:102CC000D52FC82E8FEF8D0D8330E0F4CB82CC2032
:102CD00029F060E0CE0101960E94F90E580183E0D0
:102CE000A80EB11C8501CFCF011524E0120709F40D
:102CF0005EC3C8010E94D52F0F5F1F4F8111F4CF13
:102D0000DA94B3CF8BEF8D0D833040F5580193E00B
:102D1000A90EB11CCB82CC2029F3C5010E94D52F6E
:102D20008C83882381F08B819C818130AFEF9A075F
:102D300010F0982F8827B6E0DB1651F0E7E0DE169A
:102D400051F00E94A6245801F4E0AF0EB11CCACF86
:102D50000E946224F8CF0E948424F5CF24E0D2128E
:102D6000C1CF580144E0A40EB11CC80103960E94D3
:102D7000D52FCC2009F41BC3882309F418C3815034
:102D8000990B4FEF489F9001499F300D1124AC2DB6
:102D9000A150BB0B2A0F3B1F2150310908F4A2CFD1
:102DA000EFE9FFE03197F1F700C00000F5CF6AE0EE
:102DB000CE0101960E94F90E560194CF011527E528
:102DC000120708F4D7C0011548E5140708F09DC0A4
:102DD000680157E5D51A6EE173E08C2D0E944D1500
:102DE000892B31F5C60124E0880F991F2A95E1F758
:102DF000FC01E45DFC4F2281213009F06AC0209182
:102E00001E0330911F03232B99F020912003309152
:102E10002103232B69F02091220330912303409159
:102E2000240350912503242B352B232B09F45BC05D
:102E3000F801FF2794E0EE0FFF1F9A95E1F7CF010D
:102E4000845D9C4F6C01D70115968C91EF5CFC4F13
:102E5000908180FB90F99083882309F46AC00E94D6
:102E6000D00890932B0380932A03F60182818F5F11
:102E700082838091310490912E04892B83838091E9
:102E80002D0484834681578166857785C6010E941B
:102E90007208D60115968C9181FD48C0902F812F24
:102EA00090932803809329038091310580FFFAC114
:102EB0000E94D0085C01F701858181116BC0013E41
:102EC000110509F0C6C080910D018F7E80930D0120
:102ED000A7C0223009F0ACCF209122033091230308
:102EE000232B09F4A5CFFC01EF5CFC4F20812E7F42
:102EF0002083845D9C4F0E943E149ACFC801975551
:102F00008F3F910509F008F493CF8091310580FD42
:102F1000CFCFF7018581F801E851FC47E730F10593
:102F200008F0C0C1E55CFF4C0C94472F90E080E0B6
:102F3000B7CFD6011C964D915C911D971E966D9151
:102F40007C91C6010E947208F601858181FFACCF99
:102F5000C6010E94211420912803309129038091F9
:102F600031050217130709F0A1CF1092290310921F
:102F700028039CCF8091310580FD9ACF07375CE70D
:102F8000150709F46EC308378CE7180709F06EC0FF
:102F900082E068C380910D0182FF06C040E0B50168
:102FA00080E090E00E948F130431FCE71F0769F175
:102FB00005312CE71207A1F0D70115968C9103314A
:102FC000BCE71B0789F590910D01916090930D016D
:102FD000882309F44BC010921F0410921E04ECC009
:102FE00090910D01892F8E7F90FF816080930D015C
:102FF0000E94701380910D0180FF34C0D701159697
:103000008C91882309F44EC1FBC080910D018E7F05
:1030100080930D010E94701380910D0180FDEECF11
:10302000D70115968C9120C098013052211530435C
:1030300008F0D0C010921F0410921E04882389F15A
:103040001092290407372CE7120709F0FCC281E02F
:1030500000C3053E110509F096C080910D018F7DDA
:1030600080930D01F70185818111A6C0D7011596C6
:103070008C918823B1F00A35BCE71B0709F41DC306
:1030800008F0F3C20130FCE71F0709F414C3033052
:103090002CE7120709F409C301154CE7140709F4DA
:1030A000F7C2D70117968D919C91009709F409C337
:1030B0000E943606D82E192FD7011596BC90159769
:1030C0001696CC90C2948FE0C8228091320487700B
:1030D0008823F1F0AB2CBB20E1F0892F807F803476
:1030E00051F080E28D0D883098F0C11004C0892F16
:1030F000807E803269F080913B0582FF09C082E0CA
:103100000E940E05809132048770AA24A394811135
:10311000A12C812F82958F70883009F43AC408F071
:10312000F9C2843008F0E5C2012F0F70823008F434
:1031300003C3812F807F803211F00295007FDD2054
:1031400009F430C3E1E0DE1609F4D3C3BB2009F46F
:10315000EBC3CC2009F4E3C340E0D70115966C9192
:1031600015978D919C910E94250D8091330581FDCD
:10317000D2C3F701868180FFCEC38F708683802FF4
:103180000E949B0D56C3C80190528115904310F5C3
:1031900080910D0182FFF2CE8091330581FDEECE4C
:1031A00040E0B50180E090E00E948F13D7011596B2
:1031B0008C91882309F4E2CE10922904C80190571B
:1031C000839708F457C10631FCE71F0709F03ACF8F
:1031D00091E077C0F701858190910D0190FF99CE24
:1031E0000832110590F40E31110508F050C0980115
:1031F000245031092A31310508F1882309F4BECE63
:1032000010921F0410921E044DC00933110558F48A
:103210000D32110508F040C00B321105E9F1882389
:1032200009F4ACCED8CE04361105B1F1882309F4E7
:1032300070CE10921F0410921E046BCE9091310537
:1032400094FDDBCF882309F4E3C080912D04909195
:103250002E04892B8D7F882309F45BC010921F04F4
:1032600010921E048091310581FD53C060E0C801B9
:103270000E940F0860E0C8010E945E0E80912D043C
:103280008D7F0E94240982E00E940E0590C09091DB
:10329000310593FDB2CFD6CF9091310592FFD2CFB9
:1032A0008111C7CFD70115968C91811110922904F5
:1032B000F7019581911182CF06314CE7140709F08F
:1032C0005DCE80912E043091300530FF04C0282F50
:1032D000247421119EC1282F2A7A31FF04C0482F5F
:1032E0004171411120E0432F487032FF94C1382FC3
:1032F0003878332309F48FC14111A1C1911196C1CE
:1033000080912A04882309F49CC185E30E94010569
:1033100093C189E0F701A0E2B4E001900D928A9593
:10332000E1F7109225041092230410922204809158
:103330001E0490911F040817190709F04CC0209132
:10334000310525FF48C030910D0131FF02C026FF35
:1033500042C020911C0430911D046501C21AD30A99
:103360000E946215C816D906B0F580912E0481FF1F
:1033700008C080910D01806180930D0182E00E9460
:10338000300580912E0485FF08C080910D01806278
:1033900080930D0180E20E94300560910D016695D9
:1033A000617080911E0490911F040E945E0E8091B6
:1033B00032048770882359F0F7018581882339F01A
:1033C00080913B0582FF03C082E00E940E05249697
:1033D000EAE00C94782F80912D04D0902E04D82A06
:1033E000D1FADD24D0F88D7F0E94240910931F04A8
:1033F00000931E04B0921D04A0921C04DD0C68947E
:10340000D2F890910D01997FD92AD0920D013BCF2E
:1034100040E0B501C8010E948F13C9CF06E221EE3A
:1034200041EE6AE17CE70E948115C1CF07E225EEFB
:1034300045EE6BE17CE7F7CF06E221EE40EE68E176
:103440007CE7F1CF07E225EE44EE69E17CE7EBCFC4
:1034500006E221EE42EE6CE17CE7E5CF07E225EEE5
:1034600046EE6DE17CE7DFCF08E221E045EE6EE15C
:103470007CE7D9CF84E090E00E94DD2F90933B055C
:1034800080933A05F801E150F047E232F10520F46B
:10349000EE5BFF4C0C94472F80913A05816080933E
:1034A0003A0560913A0570913B0584E090E00E94F6
:1034B00011300E94BA0F7BCF80913B0588608093CA
:1034C0003B05EFCF80913A058260E9CF80913A05C4
:1034D0008460E5CF80913A058860E1CF80913B051B
:1034E0008160EDCF80913B058260E9CF80913A0504
:1034F0008061D5CF80913A058062D1CF80913A0525
:103500008064CDCF0E94BA0F80913A058068C7CF02
:1035100080913A058C60C3CF80913B058360CFCF0B
:1035200080913A058E7FBBCF80913B05877FC7CFC7
:1035300080913A058D7FB3CF80913A058B7FAFCFD5
:1035400080913A05877FABCF80913B058E7FB7CFC7
:1035500080913B058D7FB3CF80913A058F7E9FCFC1
:1035600080913A058F7D9BCF80913A058F7B97CFD5
:103570000E94BA0F80913A058F7791CF80913A05DA
:10358000837F8DCF80913B058C7F99CF80913A05C9
:1035900082FB992790F921E0922790FB82F990FB1A
:1035A00083F97DCF80913B05982F909591708E7F08
:1035B000892B90FB81F983CF90913A05892F8F7BDE
:1035C00096FF80646CCF0E94BA0F90913A05892FC4
:1035D00097FB87F9805863CF61E08EE090E00E940E
:1035E000F32F5FCF60E0F9CF90913A05892F8F7E5E
:1035F00094FF806154CF90913A05892F8E7F90FF80
:1036000081604DCF90913B05892F877F93FF886024
:1036100056CF20E062CE442319F0827281116ECE23
:10362000992309F46DCE85E3211102C090E089E26F
:1036300090932A040E94E8040E944F0DB8CE20E027
:10364000ECCF89E263CE82E008379CE7190709F0E6
:103650000DCD0E94110443E062E081E00E94BD04B0
:10366000A6CE81E00E941D04F6CF0B355CE715075E
:1036700031F10C358CE7180709F013CD80913B052B
:1036800082FB882780F991E089270E94500B09CDA1
:103690000E94BA0F9FEFA4E3BCE09150A040B0405D
:1036A000E1F700C000000E94D00A6FEF7FEF80E0DA
:1036B00090E00E9411300E94D00F81E0E6CF80E0C0
:1036C000E4CFF7018581C080D180882369F0C601ED
:1036D0000E94D70C182F682FC6010E948404B601DF
:1036E000812F0E94A90CE4CCC6010E94A004182FCF
:1036F000F6CF843009F430C18D2D912F0E94EE0356
:10370000882309F496C0BB2009F4A9C2CC2009F48F
:103710006DC08FC0893009F4ADC18A5F8F7082306F
:1037200058F70B2DB2EFDB12B7C1812F8F71B1109B
:10373000B0C10E9411045BC1103110F00295007FEE
:10374000BB20B9F0002359F080E28D0D883010F0D5
:10375000D11009C0802F0E942A050E944F0D8D2D87
:103760000E94BE0DC9CF80913104802B809331041B
:10377000F4CF8D2D0E946E0E002309F4BDCF80E2A0
:103780008D0D883010F0D11004C0802F0E943005BC
:1037900006C00095809131048023809331040E94FB
:1037A0004F0DAACF80913B0582FD12C0BB2049F08E
:1037B000002329F0802F0E942A050E944F0D80E0EF
:1037C000CFCF80E00E946E0E002309F495CFDDCFAD
:1037D000BB2009F453C0C11023C0802F0E949B0D51
:1037E00080E0912F0E94EE03882319F1AA2009F4AA
:1037F00031C28091320480FD2DC2D70115961C92F2
:103800008695869586950E941104C7010E94E4154D
:10381000809132048695869586950E941D041AC271
:10382000F1E0CF1215C0D0902D04802F8D21081308
:1038300005C010923D0510923C05D8CF0E94D008DB
:1038400090932C0480932B04D02AD0922D04F1CF96
:1038500080913205823068F3C812EBCF802F0E942E
:103860009B0D802F0E940E0980912F04902F98238A
:103870000917F9F2802B80932F04DBCFC11019C0F8
:10388000802F0E94AC0D802F0E940E0980912F0482
:10389000902F9823911108C080E0912F0E94EE0391
:1038A000882339F20A2D88C10095082300932F043C
:1038B000F3CF80913205823008F4BBCF21E0C212F1
:1038C000B8CF80912E048023882309F4B2CF802FB3
:1038D0000E94AC0D802F0E940E0980912F04902F22
:1038E0009823992309F4A5CF0095082300932F046A
:1038F000A0CF80913805BB2039F08C1508F499CF02
:10390000802F0E949B0DF8CEC81608F0F5CE802FB0
:103910000E94AC0DF1CE8D2D0E94BE0D8ACF802F5E
:103920000E949B0D8D2D5DCFCC2089F0F9E3809115
:10393000360590913705DF1621F08091340590917E
:1039400035050E94C20A8D2D0E946E0E72CF802F07
:103950000E94AC0D8D2DA1CF812F86958695837009
:10396000882369F0813009F0C7CE8D2D912F937097
:10397000B11002C080E090E00E94AA08BDCE8D2D5B
:10398000912F9370B11002C080E090E00E948408F3
:10399000B3CE812F8370811135C0B11028C04D2D59
:1039A000429546954770440F440F8D2D8F70042E1D
:1039B00001C0880F0A94EAF72D2D2071222339F0D7
:1039C0002FE030E001C0220F4A95EAF72095312F11
:1039D000369536953370323081F0333061F0409156
:1039E0003004313039F0822B84230E940B040E9472
:1039F000770882CE842B822BF8CF822B90913004D3
:103A00008927F3CFBB2059F110FFF1CF4D2D4295FF
:103A100046954770440F440F8D2D8F70042E01C0C2
:103A2000880F0A94EAF72D2D2071222339F02FE018
:103A300030E001C0220F4A95EAF72095312F3695E4
:103A400036953370323089F0333069F04091150586
:103A5000313041F0822B84230E940E04C8CF823083
:103A600030F2D4CF842B822BF7CF822B9091150587
:103A70008927F2CF012F0F70BB2039F0802F0E94D1
:103A800011048D2D0E949B0DB2CF8D2D0E94AC0D87
:103A9000802F0E941D04ABCF22EF2D1580F040EF48
:103AA000D416D1F051EFD516D9F1BB2009F4BCC022
:103AB000CC2009F4B6C08D2D0E94BE0D98CF83EFA7
:103AC000D816F1F094EFD91639F1B110F1CFC11039
:103AD000B5C0812F8F71DDCF80913805BB2061F09B
:103AE000C81608F084CF212F2F7181E090E001C02B
:103AF000880F2A95EAF7BACF8C1508F478CFF3CF60
:103B000080E0BB2009F4A8CF81E0912F9F7101C014
:103B1000880F9A95EAF7A0CF80913B0582FD06C0F9
:103B2000812F8F71BB2009F4B4CF03CE8091320571
:103B3000823008F45FC0BB2041F19091320497704D
:103B40009430B9F410923204109234041092330479
:103B5000812F8F710E941D040E94770884EF912F9E
:103B60000E94EE03811174C010923D0510923C0535
:103B700071C0C81688F7012F0F71802F0E941104A1
:103B800063E0802F0E94F708E7CFC81678F1109203
:103B90003204109234041092330464E0812F8F7148
:103BA0000E94F7080E94770884EF912F0E94EE038D
:103BB0008823D1F2C110D8CF40E0F7016581808120
:103BC00091810E94250D8091330583FF09C080916A
:103BD0003C0590913D05029719F48D2D0E94D50E5C
:103BE00010923D0510923C05A02E00CE81E00E946F
:103BF0000E05D8CFBB2051F0012F0F71802F0E94EE
:103C0000110463E0802F0E94F708F1CE81E00E944A
:103C10000E05A1E0AC1508F0EACE82E00E940E0588
:103C2000E6CE812F8F7185CDCC2009F452CFB9E338
:103C30008091360590913705DB1621F0809134058F
:103C4000909135050E94C20A8D2D0E946E0ECFCE36
:103C5000C1108ACF60E0C7010E94430DB8CBC110EC
:103C6000E8CD20CEA0E0B0E0E8E3FEE10C945F2FC9
:103C700080910303803108F049C0809102038823BA
:103C800009F444C0C091B40289E0D82E8091B302F7
:103C90008C17E1F1EC2EF12CDC9EE0011124FE01E9
:103CA000EB54FD4F84818823B1F191818091FE0214
:103CB000981331C090818091FD0298132CC08581AA
:103CC000811129C0028113818091FF02909100032C
:103CD000081B190B60E08DEF92E00E94430D0E94DB
:103CE000621508171907B8F4809103038F7080617B
:103CF00080930303C554DD4F88818F708061888372
:103D00008DEF92E00E94E4150E94DE04CDB7DEB78D
:103D1000E7E00C947B2FE7012196C770B7CFAFE0A7
:103D2000B0E0E5E9FEE10C94572F8C0186E0F80144
:103D3000DE011A9601900D928A95E1F7D801CC9098
:103D400011967C90119715966C9015971296ED90A0
:103D5000FC90139714965C908DEFA82E82E0B82EFD
:103D600080910103811118C0552099F0662009F453
:103D7000BFC1C8010E94110D882309F4B9C189E0AF
:103D8000F801ADEFB2E001900D928A95E1F70E9443
:103D9000321EFF24F3944BC060E08DEF92E00E944E
:103DA000430DD09002038091FF0290910003DD202B
:103DB00009F449C14701881A990A60E08DEF92E041
:103DC0000E94430D0E9462158816990608F0F6C0FD
:103DD0005520F9F2B09003039091FE02F801818121
:103DE000FFE0FB1508F4A1C0F62C981325C09091B4
:103DF000FD02D8018C9198131FC0209104033091CB
:103E0000050317968D919C9128173907A9F4611025
:103E100077C08B2D8F708061809303038DEF92E0CC
:103E20000E94E41580910303F8018683F12C8F2D05
:103E30002F96EFE00C94732F611062C0E091B402F2
:103E40008091B302AE2F99E0A81302C099E02AC076
:103E50002A2F30E09A9FD0011124AB54BD4F119608
:103E60004C911197741207C04C91C41204C015965E
:103E70004C91411147C1D9011196A770E5CF2E2F62
:103E800030E09E9FF0011124EB54FD4F41817412EC
:103E900006C04081C41203C045814111C7CFF9015A
:103EA0003196E7708E13EBCF8A859B850E94020DB9
:103EB000292F22952F70903448F02A5F2F702230DE
:103EC000C8F0C8010E94E415FD2CB1CF9F702230CC
:103ED00038F0992351F0F8019681903130F4A7CF52
:103EE000992319F0882309F4A2CF805E883008F462
:103EF0009ECFE7CF803F08F49ACF815F8230F7CF23
:103F0000809103038160809303038091330581FDD9
:103F10008DCF8DEF92E00E94E41589E0EDEFF2E0A5
:103F2000DF011D928A95E9F781CF981321C0909106
:103F3000FD02D8018C9198131BC02091040330918D
:103F4000050317968D919C9118972817390781F4CE
:103F500061100EC01696BC92C8010E94E41589E05B
:103F6000F801ADEFB2E001900D928A95E1F711CF23
:103F7000C8010E94110D882309F4BAC0662009F413
:103F8000B7C080910303803208F4F9CE8091FD021E
:103F90009091FE029A838983FC82EB8280910103D7
:103FA0008D831E82BF8280910403909105039987BF
:103FB0008887CE0101960E94E415E1CED0900303DC
:103FC000BFE0BD1508F0A5CF552009F4E2CE9091D1
:103FD000FE02F801818198131AC09091FD02808140
:103FE000981315C0209104033091050387819085B3
:103FF0002817390761F461100AC0D682C8010E94EF
:10400000E41589E0D5011D928A95E9F7C2CEC80171
:104010000E94110D882309F46BC0662009F468C062
:1040200080910303803208F4AACE8091FD02909122
:10403000FE029A838983FC82EB82809101038D8347
:104040001E82DF82B0CF6701C81AD90A60E08DEF07
:1040500092E00E94430D0E946215C816D90608F02E
:104060004BC0552009F495CE662009F441C09091CB
:10407000FE02F8018181981331C09091FD02808188
:1040800098132CC0209104033091050387819085FB
:104090002817390719F58091FF0290910003E81A5B
:1040A000F90AF8ECEF16F10408F059CF80910303F8
:1040B00080FD55CF803108F452CFD80116968C93ED
:1040C0001697982F907F903F09F446CF982F907FB6
:1040D000905F8F70892B16968C933ECFC8010E94FB
:1040E000110D81114CCE80910303816080930303F5
:1040F000C8010E94E4154DCE89E0F50111928A9520
:10410000E9F794CE9091330590FFA0CE02CFA2E1C3
:10411000B0E0EDE8F0E20C94622F0A871B872C8751
:104120003D874E875F87688B798B8A8BCE010A9695
:104130000E948F1E81112BC089E0FE013A96DE019C
:10414000119601900D928A95E1F72091B30240916A
:10415000B4028E858823D9F030E0C90101968770BA
:10416000992750E084179507E9F099E0929FD001D4
:10417000939FB00D1124AB54BD4FFE0131960190B9
:104180000D929A95E1F78093B3020E94DE0419E044
:104190008091B4029091B302891312C06296E4E058
:1041A0000C947E2F0E94BA0F1092B3021092B402A8
:1041B00089E0EDEFF2E0DF011D928A95E9F7E7CFA4
:1041C000189FC00111248B549D4F0E948F1E88237D
:1041D00029F38091B40290E001968770992780932B
:1041E000B402D6CFA0E0B0E0E8EFF0E20C945D2F8F
:1041F00080911205882369F0C091B401F12C8DE003
:10420000E82E80911205C81748F0109212051092FE
:10421000B401CDB7DEB7E9E00C94792FBB24B39499
:10422000BC0EB092B401CC2ED12CEC9EE001112436
:10423000C655DB4F8C81882361F18F819885892B4E
:1042400021F489859A85019659F4088119812A817A
:104250003B814C815D816E817F8188850E948720B2
:10426000EC9CF001ED9CF00D1124E655FB4F1482FF
:1042700010923104F1100BC0CE010E94110D81117A
:1042800008C08FE39CE90197F1F700C00000FF240C
:10429000F394CB2DB6CFA4E0B0E0E1E5F1E20C94CD
:1042A000552F2091A904298317E0912E01E010E0F9
:1042B0008DE0382E94E0492E552453948091A80423
:1042C0009981891308C00E94F2200E943508249623
:1042D000E1E10C94712F5981452F50E05C834B83B1
:1042E000FA01EE0FFF1FE256FB4F80819181989EED
:1042F000D001999EB00D1124FD01EB5CFB4FFA83B8
:10430000E983248121115DC070901205EAEAF4E08E
:1043100060E070E0812C671508F051C0A384B4847C
:10432000A981BA81CD90DC904FEF5FEF612C262DF3
:1043300030E07901EE0CFF1CEC0CFD1CD701ED9078
:10434000FC90E114F10439F0AE14BF0409F09A01B5
:104350006394A901ECCF4F3F5407E1F1D80102C0AB
:10436000AA0FBB1F4A95E2F78A2AA801062C02C0B1
:10437000440F551F0A94E2F79A0121503109482D44
:1043800050E02417350729F5369EF001379EF00DD1
:104390001124E655FB4F989ED001999EB00D112433
:1043A000AB5CBB4F12962D913C91139730872783BE
:1043B0004482108211829287818715965C920E94B6
:1043C00046088B819C8101969A83898383708983B7
:1043D00075CF14826F5F7F4F3D969DCF109214056D
:1043E0001092130510920E018091A8048093A904E5
:1043F0000E9435080E94F2200895ACE1B0E0E3E0AD
:10440000F2E20C94542F4B8B5C8B6D8B7E8B8F8BDD
:10441000988F882349F080913C0590913D05019645
:1044200090933D0580933C05588C511010923104B7
:10443000188A198A1A8A86E0FE017396DE011A9696
:1044400001900D928A95E1F780913B0582FF21C092
:104450008091180590911905892BD9F00E94D008F8
:104460002091330430913404821B930B2091180562
:10447000309119058217930738F08091320482FD3C
:1044800003C082E00E940E050E94DC0881110E9498
:1044900038058E85882379F061E0CE010A960E9466
:1044A000430D5C0180352CE7920789F4552011F10A
:1044B00081E080930E010A851B852C853D854E8504
:1044C0005F85688979898A890E948720C8C081357B
:1044D0003CE7930729F4552069F00E94EE21EBCFC9
:1044E00082359C4739F4552029F080910E018111C5
:1044F000F4CFDECF85E3E82E84E0F82E412C812C2A
:10450000912C66246394712CD7014D915C91CC243D
:10451000CA94DD24DA9420E0822F90E0FC01EE0FB3
:10452000FF1FE40FF51F608171816115710539F07E
:10453000A616B70609F0C6012F5F6C01EDCFBFEFDD
:10454000CB16DB0609F473C1F7015481358146812E
:10455000511104C180910E01882309F411C1552025
:1045600009F40EC100912C0510912D05311114C0D4
:1045700081E090E00C2C01C0880F0A94EAF7482BE8
:1045800046838091A6049091A7048017910720F498
:104590001093A7040093A604A30102C0440F551F63
:1045A0002A95E2F79A0121503109D70116968C918C
:1045B00090E02817390781F4809113059091140534
:1045C000009709F450C00E9455090817190708F010
:1045D0004AC081E0F7018483852D482ABFEF8B1AFA
:1045E0009B0AE7E0EE0EF11CFFE08F16910409F044
:1045F0008BCF552009F42FC1442009F41AC10E9421
:10460000D00890931405809313058091120588308B
:1046100030F591E0980F9093120599E0FE013A96DB
:10462000DE01119601900D929A95E1F72DE0829F9F
:10463000C001112486559B4F29E0FE013196DC0113
:1046400001900D922A95E1F72FEF3FEFDC011A96CA
:104650003C932E9319971C96BC92AE921B976C9626
:10466000E2E10C94702F2091A9048091A804922F6C
:10467000E0E0F0E06701281314C09093A904EE1560
:10468000FF0509F4A9CF90E0FC01EE0FFF1FE256F1
:10469000FB4F918280820196837099278093A804B2
:1046A0009BCF022F10E0F801EE0FFF1FE256FB4FE9
:1046B00060817181F7E0F69FD001F79FB00D112462
:1046C000AB5CBB4F4D915C9111975C8F4B8F50E071
:1046D00030E040E0E42FF0E0EE0FFF1F6B8D7C8DAB
:1046E000E60FF71F2080318021143104E1F0F7013B
:1046F0000190F081E02DFA8FE98F30E005C0261699
:10470000370609F4552D3F5FE32FF0E0EE0FFF1F52
:10471000698D7A8DE60FF71F6081718161157105D2
:1047200071F74F5FD7CF5523B1F0F601341708F07A
:10473000FD0131E03483EE15FF0509F49ECF291306
:1047400005C0EA17FB0711F49F5F937098012F5F74
:104750003F4F237090CFE0E0F0E0F8CF50E0311110
:104760002FC0B30102C0660F771F2A95E2F7CB0175
:1047700001974817590799F4C4010E9446080FC0D1
:1047800050E031111DC0D30102C0AA0FBB1F2A95F2
:10479000E2F79D01215031094217530709F080E0EB
:1047A000F30102C0EE0FFF1FCA94E2F76F01C0943D
:1047B000D70116969C9116979C2116969C930DCF27
:1047C000CA010C2C02C0959587950A94E2F79A01CC
:1047D0002150310924233523232B39F580FF25C0AF
:1047E000F70182819381892BD9F087E0FE01319610
:1047F000DF011D928A95E9F70E94D0089C018B8306
:104800009C8384E08D83F70192818381792F98873F
:10481000898709811A8144E05E816F810E94872027
:10482000D70115961C9281E0BBCF8170B9CF80E093
:10483000D4CE9091A8048091A904981309C00E9435
:10484000F22010921405109213050E94350833CE01
:104850000E944B2130CE9091A9048091A804981712
:1048600029F00E944B214110FACE25CE0E94F22061
:1048700010921405109213050E943508F4CFA6E09B
:10488000B0E0E5E4F4E20C94622F0E94D0088C01C1
:104890008091A7029091A8028017910779F0198260
:1048A0001A820E94D008BC0149815A8180E090E0C0
:1048B0000E94FD211093A8020093A7022696E4E02F
:1048C0000C947E2FA6E0B0E0E8E6F4E20C94642FAE
:1048D0009093A4028093A302811520E2920730F402
:1048E0000E94480E2696E2E00C94802F80EF898388
:1048F0008A830E94D0088160BC0149815A8181E08D
:1049000091E00E94FD21EECFA6E0B0E0EAE8F4E2FB
:104910000C94642F9093A4028093A302811520E24B
:10492000920730F40E94BF0E2696E2E00C94802F8E
:1049300080EF89838A830E94D0088160BC0149810D
:104940005A8181E090E00E94FD21EECFCF93DF936A
:10495000D82FC92F0E94622480913405909135058B
:104960000E94C20A8D2F9C2F0E948424DF91CF9138
:1049700008950F931F93CF93DF938C01862F6EE1E1
:1049800073E00E944D15892BB1F4C0911E03D091A4
:104990001F03209781F0F8018281833051F4CE010A
:1049A0000E94A624CE010E94A624CE010E94A62425
:1049B00002C08430D0F7DF91CF911F910F910895FD
:1049C0000F931F93CF93DF938C01EB016EE173E0A4
:1049D0008C2F0E944D15892B09F05AC0FE01FF272C
:1049E000D80112968C911297E559FD4F8130A9F4A8
:1049F00015968C9182FD51C080FF4FC082E080836C
:104A000080912003909121030097B9F480911E03B7
:104A100090911F030097E1F110C08230B9F515960F
:104A20008C9182FD28C080FD0BC083E08083809143
:104A3000220390912303009701F10E94622428C071
:104A400084E0808380912403909125030097A9F747
:104A500080911E0390911F03009711F10E94A624DC
:104A60008091200390912103009739F780911E03D4
:104A700090911F03E2CF85E0808380911E03909187
:104A80001F03009729F00E94A624F0CF86E08083C0
:104A9000DF91CF911F910F91089581E08083B6CF70
:104AA0008091200390912103B5CF0F931F93CF9353
:104AB000DF938C01EB016EE173E08C2F0E944D15AA
:104AC000892BA1F480913405909135050E94C20A8A
:104AD000DD27C559DD4F8881F801128218828330A5
:104AE000F1F048F4813059F0823081F0DF91CF91BC
:104AF0001F910F9108958430B9F08530B9F78091F6
:104B00001E0390911F03009789F306C08091200334
:104B100090912103009799F30E948424E7CF80911C
:104B2000220390912303F6CF8091240390912503D3
:104B3000009791F720911E0330911F03809120036D
:104B40009091210321153105F1F2009729F7C90150
:104B5000E3CF9C01CB01BA01F90132964591549102
:104B60006417750748F0F9013496659174910E94B5
:104B7000B52F80E090E008958FEF9FEF08959C019E
:104B8000DA010296FC0145915491FC0185919491C2
:104B9000A817B90758F0F9013496859194910E94AD
:104BA000B52F0E94000C80E090E008958FEF9FEFFA
:104BB0000895A8E0B0E0EFEDF5E20C94582FFE0167
:104BC000319688E0DF011D928A95E9F79BE2A92ED4
:104BD00091E0B92E8F012FE2E22E21E0F22E3F016B
:104BE000CC24C394D12CF50181915F018F3F09F44E
:104BF00047C0F894E82FE295EF70F0E021A18F70A4
:104C0000A60102C0440F551F8A95E2F7CA01922FF0
:104C1000982B91A392A18095892382A3789400C0B8
:104C2000EFE2F1E021E030E0812C912C41914F3F07
:104C300009F464C0A42FA295AF70A05EB0E08C917F
:104C400090E04F7002C0959587954A95E2F7817084
:104C5000811154C0C901882A992A220F331F51E0BB
:104C6000EC33F50719F7F501319780818F3F11F08B
:104C70000E94510780EA8A95F1F7D8018D929C92A3
:104C80000E5F1F4FEA14FB0409F0ADCF48E050E07F
:104C9000B3018AE792E00E94A82F892B91F188E066
:104CA000F301AAE7B2E001900D928A95E1F781E065
:104CB000809394010E94D008909393018093920175
:104CC00080919201909193010E9455090597E8F017
:104CD00048E050E06AE772E08AE992E00E94A82F7B
:104CE000892B49F088E0EAE7F2E0AAE9B2E0019016
:104CF0000D928A95E1F71092940107C080E090E050
:104D0000AACF809194018111DBCF2896EEE00C941C
:104D1000742FCDB7DEB7C654D1090FB6F894DEBFF5
:104D20000FBECDBF85B7806885BF85B7806885BF5A
:104D300084B7877F84BF0FB6F894A89580916000F0
:104D4000886180936000109260000FBE80E890E060
:104D50000FB6F89480936100909361000FBE8FE4CA
:104D600097E090938901809388010E9477070E94C1
:104D700009150E941D0C0E94110A0E94670A809169
:104D8000E20084608093E20078948091A2028823FC
:104D900099F08091E9001091EC0017951127179573
:104DA0008F70182B1092E9008091E80083FD0E941B
:104DB000AC101F701093E90082E084BD93E095BDB4
:104DC0009AEF97BD80936E000E94E70B811102C09D
:104DD0000E94F91483E0809393026FE471E0BCE4D5
:104DE000AB2EB1E0BB2E02E511E0A501FB0121E0F5
:104DF00030E08191E82EE2947FE0E722F12CD701A8
:104E00009196DC908F70D90102C0AA0FBB1F8A95C2
:104E1000E2F7CD019A2F90959D21D70191969C9311
:104E2000919792969C919297892B92968C93DA0106
:104E30008D91AD01E82EE294AFE0EA22F12CD7018A
:104E40009196DC908F70D90102C0AA0FBB1F8A9582
:104E5000E2F7CD019A2F90959D21D70191969C93D1
:104E6000919792969C919297892B92968C930E177C
:104E70001F0709F0BECFEFE8F1E03197F1F700C06E
:104E800000001091930244E952E0EFE4F1E08E2F2C
:104E9000861B811708F4BDC087E90E94510782E391
:104EA0000E94510785E30E94510784E30E94510745
:104EB0000FE211E0F80181918F018F3F11F00E9404
:104EC0005107F1E00C331F07A9F788E0EAE9F2E0A7
:104ED000DF01282F1D922A95E9F7EAE7F2E0DF01CA
:104EE0001D928A95E9F780E090E00E94DD2F863ED2
:104EF0009E4F21F40E94E70B811167C066EE7EEFA2
:104F000080E090E00E94113060E082E090E00E943A
:104F1000F32F60E083E090E00E94F32F10923004C2
:104F200060E074E184E090E00E94113060E086E08F
:104F300090E00E94F32F6FEF87E090E00E94F32F44
:104F400040E050E0BA0188E090E00E94053060E067
:104F500084E290E00E94F32F60E087E190E00E94FD
:104F6000F32F60E08CE090E00E94F32F60E08DE092
:104F700090E00E94F32F19821A821B821C821D82EC
:104F80001E821F82188648E050E068E170E0CE0182
:104F900001960E94E32F40E050E0BA0180E290E0E9
:104FA0000E94053080E00E94670B0E94F91440E0E7
:104FB00050E0BA018FE090E00E94053040E050E000
:104FC000BA0183E190E00E94053082E090E00E9407
:104FD000D52F8093840284E090E00E94DD2F90938F
:104FE0003B0580933A050E94D925EFE3FCE9319710
:104FF000F1F700C000000E94D92580919A0280FF3D
:1050000030C06FEF7FEF80E090E00E9411300E948F
:10501000D00A0191802F82958F70805E90E0DC0134
:105020002C91D5013D915D01832F82958F70805E1B
:1050300090E0DC018C9190E03F7002C095958795DF
:105040003A95E2F78170880F30E00F7002C0359515
:1050500027950A95E2F72170822BDA018D93AD0135
:1050600016CF83E090E00E94D52F0E940B0481E0D0
:1050700091E09093AA028093A90228E1422E512C3C
:105080008091A20210E4853009F490C00E94D925D5
:1050900095E8A92E92E0B92E0AE912E04DE852E017
:1050A000D801F501219131918D919D914E175F07A6
:1050B00009F49EC028173907A9F38AE9882E82E0EF
:1050C000982E312CD401ED90FD904D01F5016190A9
:1050D00071905F016E147F0461F16E247F24212C96
:1050E000CC24C394D12CC3018C219D21892BB9F0F0
:1050F00029823A820E94D0089C838B83F1E0FD8351
:1051000091E097012C213D21232B09F490E09E830F
:1051100049815A816B817C818D810E94FD2123947C
:10512000CC0CDD1C2DE02212DECFF5013297F1828E
:10513000E082339434E03312C5CF0E9438095EC058
:105140008091A202843009F1109282020FB6F89485
:10515000A895409260000FBE1093600083B7817FD6
:10516000846083BF83B7816083BF7894889583B759
:105170008E7F83BF0FB6F894A895809160008861F8
:1051800080936000109260000FBE8091830288239C
:1051900069F00E94D925EAE9F2E082EA92E02191E1
:1051A0003191232B69F48E179F07C9F78091A202D2
:1051B000853009F4C5CF0E94BA0F0E94770866CFE8
:1051C00080E189BD82E189BD09B400FEFDCF8091F7
:1051D000D8008F7D8093D8008091E000826080931A
:1051E000E0008091E00081FDFCCF0E94BA0FDECF8D
:1051F0002817390709F061CF0E943F24C090280387
:10520000D0902903C114D10409F180912A0390910F
:105210002B030E9455097C01C6010E9462158E1560
:105220009F05A0F480912803909129039927F4E029
:10523000880F991FFA95E1F7FC01EF5CFC4F208184
:1052400022FD04C0845D9C4F0E943E1480910E019B
:105250008823F9F080911305909114050097C9F007
:105260000E9455092091A6043091A70428173907F8
:1052700080F49091A9048091A8049817B9F10E9434
:105280004B211092A7041092A604109214051092BC
:1052900013058091310580FF1CC080910D0182FFB4
:1052A00018C00E94D008BC0180911C0490911D047C
:1052B0009B01281B390B8091090190910A01281745
:1052C000390738F041E080911E0490911F040E943C
:1052D0008F13D12CC12C5DEF952E62E0862E7724A2
:1052E00073947CEF672EE3E03E2EC7C00E94F2204D
:1052F00010921405109213050E943508CACFED2CA8
:10530000F12CF701E15BFE4F4081E42FE295EF7055
:10531000E05EF0E02081F701E45BFE4F3081E32F97
:10532000E295EF70E05EF0E0808190E03F7002C0B7
:10533000959587953A95E2F78170880F30E04F7028
:1053400002C0359527954A95E2F72170822BD70147
:10535000AC56BD4FEC919E2F9370891709F48CC009
:10536000EE0FEE0FE82BEC93EF70F0E0E45CFE4FF5
:10537000C70180579D4F5C018081D5019C91890FA9
:105380008C9320E08430BCF1F701E357FD4F80811E
:105390008F5F8083DFAA68AE0E94D008BC0189AF0E
:1053A0009AAF3BAE7CAE4FA958AD83E091E00E942E
:1053B000FD21EFE3FCE93197F1F700C00000DDAE1D
:1053C0006EAE0E94D008BC018FAF21969FAF21978F
:1053D00022963FAE229723961FAE23974DAD5EAD2A
:1053E00083E090E00E94FD218FE39CE90197F1F7B3
:1053F00000C0000021E0D5018C918D3F8CF5F701B4
:10540000E357FD4F808181508083DBA69CA60E94DC
:10541000D008BC018DA79EA78FA678AA4BA55CA536
:1054200082E091E00E94FD21EFE3FCE93197F1F782
:1054300000C00000D9AA9AAA0E94D008BC018BAB78
:105440009CAB8DAA1EAA49A95AA982E090E00E94AD
:10545000FD218FE39CE90197F1F700C0000021E0F6
:10546000D5018C91082E000C990B64E070E00E942D
:10547000332FF5018083C22AD39480919302D816EA
:1054800008F43DCFC1100E9438090E94770890911E
:105490009702891721F0809397020E943809809122
:1054A000A202843009F0ECCD83E08093E900809182
:1054B000E80082FFE5CD8091E80085FD06C080917F
:1054C000E8008B778093E800DBCD0E94E009882319
:1054D00001F18091E8008B778093E800E090A502CD
:1054E000F090A602E981E114F104B1F1EE3F09F078
:1054F00056C08A81833020F08550833008F04FC039
:10550000EA81EE3008F04BC0F0E0EC59FF4C0C940F
:10551000472F40E2C42ED12C9E012F5F3F4F7901CF
:105520008091E80085FD0AC08091E8008B77809328
:10553000E8000E94E009882399F3CBCF8091F10025
:10554000D7018C93B1E0CB1AD108C114D10409F270
:10555000EFEFEE1AFE0AE4CFE43150F4EE2351F0FF
:10556000E150E33138F4F0E0EE58FF4C0C94472F53
:10557000EE3F31F28FEF25C21A8289E08B830FC094
:105580008A818230A9F08330E1F0813099F70E945E
:1055900038090E944D2F6B837C838D839E8340E26C
:1055A00050E0BE016F5F7F4F82E00E94F40A68CD39
:1055B00088E290E00E94D52F1B821C821D828E8380
:1055C000EECF80910B0190910C01892B41F3FE01EC
:1055D0003196D8018C9111969C910E5F1F4F92834A
:1055E00083833296B2E0023A1B0799F7D8CF8A81BB
:1055F000823009F0BFCF8B819C81AD81BE8127961F
:105600008CAF9DAFAEAFBFAF2797BC01CD010E945D
:105610004D2F88E290E00E94F32FC1CF4C816B8127
:105620008A810E94430C9827892798279E838D831F
:10563000B6CF2D813E813227232732274C816B81C3
:105640008A810E94850BABCF0E946514A8CF80E1B0
:105650008A83A5CF1A8287EB91CF8C81E82EF12C1B
:105660008D3108F09CCF0A811B811027012710275C
:10567000E00EF11E6E0195E0C90ED11CE016F10698
:1056800009F48DCF80E0073B110528F4C801875B42
:105690009C4F0E94D52FD6018D936D010F5F1F4F38
:1056A000EDCF80910B0190910C01892B09F477CFFC
:1056B0008C81C82ED12C8D3108F071CF0A811B81CD
:1056C000102701271027FE0131967F01CE0EDF1E25
:1056D000CE14DF0409F463CF073B110540F4D70172
:1056E00014966C91C801875B9C4F0E94F32F0F5F4B
:1056F0001F4FBFEFEB1AFB0AEBCF0E94D70B4FCF28
:1057000084E0A6CF8C81E82EF12C8D3108F047CFB4
:105710000A811B81102701271027E00EF11E6E0160
:10572000E5E0CE0ED11CE016F10609F438CF80E09A
:10573000003AF1E01F0720F4C80189960E94D52F96
:10574000D6018D936D010F5F1F4FEDCF2C81C22EBF
:10575000D12C2D3108F023CF0A811B81102701277E
:105760001027003AB1E01B0708F019CF20EA31E01A
:10577000201B310B2C153D0508F411CFFE0131968D
:105780007F01CE0EDF1ECE14DF0409F408CF003AED
:10579000F1E01F0738F4D70114966C91C80189967F
:1057A0000E94F32F0F5F1F4FBFEFEB1AFB0AEBCFE7
:1057B00088E0E3E1F1E0DE01919601900D928A9597
:1057C000E1F7FE0132968FE1DF011D928A95E9F73C
:1057D00086E0898388E07F96DE01159601900D9220
:1057E0008A95E1F7DCCE88E0898382E08A831B8298
:1057F0001C82D5CE8B819C81092E000CAA0BBB0B81
:1058000035E0880F991FAA1FBB1F3A95D1F7AC014D
:10581000BD01405E5F4F6F4F7F4F803EEFEF9E07B1
:10582000AE07BE0708F0BBCE8830F2E09F07A105A7
:10583000B10508F0B4CE493022E052076105710588
:1058400020F048E052E060E070E0481B590BBC01DA
:10585000695F7A4FCE0101960E949F2FA0CE1B81D7
:105860000C8140E0602F812F0E94720C98278927BD
:1058700098279A83898341E0602F812F0E94720CC0
:105880009827892798279C838B8389CE8E819F8137
:105890009827892798270E946A079C0141E08D81FB
:1058A000811101C040E06C818B810E94AC0B77CEEE
:1058B0004EE150E06FEF70E0CE0103960E94BE2FE4
:1058C00080910B018983EA826ACE81E090E0909317
:1058D000A6028093A50282E390E0909399028093C0
:1058E00098020E94D0085BCE80910B018983EA82E6
:1058F0008091980243CE0B811C8140E250E06FEF13
:1059000070E0CE0101960E94BE2F87E794E0ABEFD6
:10591000B4E020E030E042E050E0FC016591749199
:105920000617170750F0A817B90709F438CEB901C0
:105930006E5F7F4F0C96A90115C0E1E0F0E0EC0F1F
:10594000FD1F2E0F3F1FF90171836083A817B90750
:1059500009F425CEBA016E5F7F4F0C966132710556
:1059600008F01DCE9A01AB01D8CF2B813C81E7E72F
:10597000F4E0859194912817390791F083E894E039
:10598000F5E087309F0709F4F5CDFC01659174912E
:10599000AC01445F5F4F2617370721F0CA01F0CFF3
:1059A00087E794E0FC013696259134912115310565
:1059B00009F4E0CD4FE150E0BE016E5F7F4FF90189
:1059C00009958983ECCD2B813C81E7E7F4E0859153
:1059D000949103E814E08217930741F507E714E078
:1059E000F8013896259134912115310519F14CE1D2
:1059F00050E0BE016B5F7F4FC801F90109957C0142
:105A0000892B41F4F8013A9685919491009711F011
:105A1000FC010995E982C3CDF80165917491A80153
:105A2000445F5F4F62177307D9F28A01F5E00730D0
:105A30001F0791F7EE24EA94FE2CECCF0E9477101A
:105A4000AECD8B81823009F44EC060F4811134C038
:105A5000FE0133968EE1DF011D928A95E9F78FE012
:105A60008983F6CD833009F474C0843009F097CD72
:105A70001C818AE0FE013596DE01919601900D921F
:105A80008A95E1F789A59AA50E946A079AA789A72E
:105A90008FEF1F3068F4FAE01F9FB00111246D549E
:105AA0007D4F4AE050E0CE0181960E94173080E0A1
:105AB00089830E94091573CD8C819AE0F92E8E019D
:105AC0000F5D1F4FF8012F2D11922A95E9F7B801AC
:105AD0000E944D158983F801DE01129601900D9206
