:100000000C949B030C94E2030C94E2030C94E20323
:100010000C94E2030C94E2030C94E2030C94E203CC
:100020000C94E2030C94E2030C9416290C94D2284D
:100030000C94132A0C94E2030C94E2030C94E20354
:100040000C94E2030C94E2030C94E2030C94E2039C
:100050000C94E2030C94EF290C94E2030C94E20359
:100060000C94E2030C94E2030C94E2030C94E2037C
:100070000C94E2030C94E2030C94E2030C94E2036C
:100080000C94E2030C94E2030C94E2030C94E2035C
:100090000C94E2030C94E2030C94E2030C94E2034C
:1000A0000C94E2030C94E2030C94E20305010902B0
:1000B000A10185020901A100050919012905150001
:1000C00025019505750181029501750381010501E1
:1000D000093009311581257F950275088106093897
:1000E0001581257F950175088106050C0A380215D2
:1000F00081257F950175088106C0C005010980A191
:1001000001850319012AB700150126B7009501756D
:10011000108100C0050C0901A101850419012AA064
:1001200002150126A002950175108100C00660FF2E
:100130000961A1010962150026FF0095207508815B
:10014000020963150026FF00952075089102C0057D
:10015000010906A101050719E029E7150025019508
:1001600008750181029501750881010507190029AB
:10017000FF150026FF009506750881000508190186
:100180002905950575019102950175039101C0003E
:10019000000000000000000000000000000000005F
:1001A000000000000000000000000000000000004F
:1001B0000000007E0F00D4FFFFFFC70000007800A2
:1001C000000000000000002A2B28000000000000B2
:1001D0000000000000000000000029000000002CCA
:1001E0001E3420212224342627252E362D37382769
:1001F0001E1F202122232425263333362E37381F75
:100200000405060708090A0B0C0D0E0F1011121336
:100210001415161718191A1B1C1D2F3130232D35D4
:100220000405060708090A0B0C0D0E0F1011121316
:100230001415161718191A1B1C1D2F3130354CFDBB
:10024000377A585A000004E6D6B446020021011657
:10025000000000742FE5A3E0056001C85D003D8843
:1002600089C65436C3174FE4DFBC1BC3A96EF970AF
:10027000F2E2F4242E9DFE3AB59CF3D0B4BFDEB575
:100280006B1DBC9ACA34E7CC9197C52B6E825F8FE9
:10029000153443A7D99FBE165725D989A1675EE5B6
:1002A000AA80C2B0889F1FDFE30E875CF9A6FBE738
:1002B0007CB005FD9B09A102EDE28397ED2549077E
:1002C0003BC8494B01610B3935E579BF09C7168930
:1002D0009B687D2F44B98BA84F3E1F032B2171745F
:1002E000A39D2DF61127D841D669EA3566DD3DA3D9
:1002F000B2F7838CE3E8E8AC812F559B3BFE9E84EC
:10030000FE6E83554373925D22B0ECC9C6857A12A6
:10031000F09B6BBA0168480B5E6EBD63C6784820DF
:100320009B62989C0935AA3930870966AAA2BE004B
:1003300000713A5F0918AACECE3083D2C580EFCEC5
:100340002E72F6DFE689E90213B7E10F7A7699DBC0
:10035000C994C7DE2F43EECB0A389765558881B81C
:1003600097E88F60EB2D7F7CFB6EFC2D75728635D8
:10037000AB400AB36AF0207092EF25A232540ACF44
:10038000577DEA20E481393FB93D748C6BEAAE4E6B
:10039000AFCFEC1ACC4C17A514D38639A1818EE5CA
:1003A000DFD457E0133822896D75DD0E5F01C1532C
:1003B00078F0AFC1CA193D9FD7AD702C07FAA617C8
:1003C0000E482D427864EB9CFB534EF7E42A03431E
:1003D00036605E5F6ADA009630670C10C27EF0B35A
:1003E000D22B07D89E80A0EB9CA856A51CC4C37A2C
:1003F000A6B0C443F7D46A625B883996C6A2E68D7C
:100400002A1F918A95ECE9A901A0614E7B9E33A633
:100410007CCE4CC1BFB58A550102F07E2EF8AC1FD0
:10042000014267168A00003ABD1E5CA1547B7F0022
:1004300001E403E10A00001254746AB1C467FB02CC
:100440000000000004595A290014001A0008001581
:100450000017001C0018000C00120013002A004CAA
:10046000002B0004001600070009000A000B000D15
:10047000000E000F00340000002800E50000001D01
:10048000001B00060019000500110010003600379F
:10049000005200E100E400E300E200000001512A04
:1004A000002C002C0002510000500051004F0001B0
:1004B0000001000100010001000100010001000134
:1004C0000001000100010001000100010001000124
:1004D0000001000100010001000100010001000015
:1004E0000001000100000001000100010001000105
:1004F00000010001000100010001000100010001F4
:1005000000010000000100010001000100010000E5
:1005100000010001000100010001000100010001D3
:1005200000010001000100010001000100010001C3
:1005300000010001000100010001000100010001B3
:1005400000010001000100000001000100000001A5
:100550000001000100010001000100010001000193
:100560000001000100010001000100000001000184
:100570000001000100010000000100010001000174
:100580000001000100010001000100010001000163
:100590000001000100010001000100010001000153
:1005A0000001000100010001000100010001000044
:1005B0000001000100000001000100010001000134
:1005C0000001000100010001000100010001000123
:1005D0000001000000010001000100010001000015
:1005E00000010001000100010001008D0300000274
:1005F00000020089030000030001008E03000004D4
:1006000000020073033406050001008F030000069A
:1006100000020075030000070002008B03000008C1
:10062000000100900300000900020077030F060A92
:1006300000020079030F060B0002007B030F060C7B
:100640000002007D030F060D0002007F030F060E5F
:1006500000020081030F060F00020083030F061043
:1006600000020085030F061100020087030F061227
:100670000002009103000013000200930300000930
:10068000025B00030100A0FA09040000010301015C
:100690000009211101000122400007058103080023
:1006A0000A090401000203000000092111010001F0
:1006B0002222000705820320000107050303200012
:1006C00001090402000103000000092111010001D9
:1006D0002281000705840320000A120100020000A5
:1006E0000008EDFE12000100010203011C03760068
:1006F000690061006C003A00660036003400630057
:10070000320062003300630000000C0368007900CF
:1007100064007200610000001803700072006F0036
:100720006A006500630074006300610069006E0088
:1007300000000403090411241FBECFEFDAE0DEBF7E
:10074000CDBF04B603FE27C080917104909172045E
:10075000A0917304B09174048730904BA740B04BC4
:10076000D1F41092710410927204109273041092DA
:10077000740414BE84B7877F84BF0FB6F894A8951D
:1007800080916000886180936000109260000FBECD
:10079000E0E0F8E3099511E0A0E0B1E0E8E7F4E675
:1007A00002C005900D92AC38B107D9F724E0ACE84F
:1007B000B1E001C01D92A137B207E1F70E943A2AC9
:1007C0000C9408320C940000E8EDF0E080818E7FFC
:1007D00080831092E2001092DA001092E100A0EE05
:1007E000B0E08C9181608C9380818F77808319BC7D
:1007F000A7EDB0E08C918E7F8C9380818F7E80837B
:100800001092580408952091E4003091E50095E697
:10081000A9012091EC00822F817020FF06C08091F9
:10082000E80080FF06C080E008952091E80022FDE6
:100830001AC080916504882389F0853089F0809101
:10084000EB0085FD0FC02091E4003091E5004217D8
:100850005307F9F29150E1F684E0089582E008959B
:1008600083E0089581E00895EF92FF920F931F9324
:10087000CF937C018B010E940304C82F811117C004
:100880008091E80085FD0BC08091E8008E77809311
:10089000E8000E940304882399F3C82F08C0F701D9
:1008A00081917F018093F1000150110949F78C2F4C
:1008B000CF911F910F91FF90EF9008958091670461
:1008C00087FF13C08091E80082FF06C08091E80096
:1008D0008B778093E80004C0809165048111F2CF8A
:1008E0000895809165048823D9F38091E80080FF02
:1008F000F8CF8091E8008E77ECCF982F9093E900A5
:10090000242F762F50E0891731F07091EC00209160
:10091000ED005091F00021FD07C09F5F973071F707
:100920008093E90081E008953091EB003E7F3093A1
:10093000EB003091ED003D7F3093ED003091EB0006
:1009400031603093EB007093EC002093ED005093F6
:10095000F0002091EE0027FDE0CF80E00895CF92D7
:10096000DF92EF92FF920F931F93CF93DF93C8ED27
:10097000D0E088818F7E8883E7EDF0E08081816020
:10098000808384E082BF81E08093580488818E7FD9
:10099000888302EE10E0F80110821092DA0081EEF6
:1009A000C82ED12CF601108288818F7788838881A8
:1009B0008068888388818F7D888319BC1092650444
:1009C00010926604109264041092630490EEE92E73
:1009D000F12CF70180818B7F8083888181608883FF
:1009E00042E060E080E00E947D04F60180818E7F1D
:1009F0008083F8018081816080838081886080832A
:100A0000F70180818E7F8083888180618883DF9178
:100A1000CF911F910F91FF90EF90DF90CF900895AD
:100A2000FC0180916D0490916E0486179707A0F0E9
:100A30006115710529F49091E8009E779093E80084
:100A400090E06115710551F4911108C08091E800A2
:100A500082FF34C080E00895BC01F2CF809165042C
:100A60008823C1F18530C1F18091E80083FD30C059
:100A70008091E80082FDEACF8091E80080FFE1CF1D
:100A80008091F3002091F200382F6115710519F063
:100A90002830310558F091E02830310509F090E018
:100AA0002091E8002E772093E800CBCF81918093AE
:100AB000F100615071092F5F3F4FE7CF80916504CE
:100AC000882341F0853041F08091E80083FFBECF5C
:100AD00081E0089582E0089583E00895089580916B
:100AE0005A0408959C014FB7F89480915104909155
:100AF0005204A0915304B09154044FBF821B930B36
:100B000008952FB7F8948091510490915204A091C8
:100B10005304B09154042FBF089520914E04309196
:100B20004F042817390771F090934F0480934E04B7
:100B3000E0914C04F0914D04309721F00084F18550
:100B4000E02D0994089520914A0430914B04281710
:100B5000390771F090934B0480934A04E0914C0460
:100B6000F0914D04309721F00680F781E02D099433
:100B70000895E0914C04F0914D04309721F00190DC
:100B8000F081E02D099480E00895452B39F0682329
:100B900081E06F3F09F080E08170089581E0FCCF33
:100BA000DC0160916F0380917003962F891301C05F
:100BB0000895292F30E0F901EE0FFF1FE959FC4F8E
:100BC000408151814A175B07A1F487E08A9FA00109
:100BD0008B9F500D1124415D5C4F81E0FA018483AD
:100BE0009613E6CF2F5F3F4F2370332720936F0379
:100BF00008952F5F3F4F922F9370D8CF1092CC0261
:100C00001092CB02EFE2F3E08581811102C01482E1
:100C10001682379683E0E736F807B1F70895E3E7E1
:100C2000F3E0848195812AE030E0B9010E945331DC
:100C30006093170186818093160182858093150148
:100C400084858093140186859785B9010E9453316C
:100C5000609313018089809312018289809311012E
:100C60008489809310010895809173039091740397
:100C7000909319018093180108950E9481059C01A9
:100C800090913B0280913C02982B21F030933802E6
:100C90002093370290913D0280913E02982B21F0E3
:100CA0003093360220933502E0914C04F0914D04CC
:100CB000309749F082E0809339020480F581E02D7D
:100CC00089E392E00994089590913B02803F59F4A2
:100CD00080913C0287FF0DC010923C0291110BC025
:100CE0001092330208C0813F81F480913C021816B3
:100CF0009CF3992381F080913D0290913E02892BD3
:100D000009F064C0109232020895823F49F497FFBF
:100D1000F0CF10923B0280913C028111ECCFE0CFEA
:100D2000833F19F41916ACF3E4CF20913D02893FBB
:100D300029F41216F4F610923D02DBCF8A3F19F423
:100D400027FFD7CFF8CF20913E028B3F29F427FF12
:100D5000D0CF10923E02CDCF8C3F19F41216CCF3B7
:100D6000C8CF843F31F480913A028E7F80933A025B
:100D7000C0CF853F21F480913A028D7FF7CF863F27
:100D800021F480913A028B7FF1CF873F21F480914B
:100D90003A02877FEBCF883F21F480913A028F7E21
:100DA000E5CF8D3F31F4809134028E7F8093340201
:100DB000A0CF8E3F21F4809134028D7FF7CF8F3FFB
:100DC00009F097CF809134028B7FF0CF0895809106
:100DD000340280FF0CC06091110170E07595679539
:100DE000759567956115710549F1862F089581FF05
:100DF00006C06091110170E075956795F3CF609121
:100E0000110182FD0BC0909132029923A1F06091F3
:100E1000100180911101961738F0682F70E060384A
:100E2000710500F38FE70895899FC001112470E0D8
:100E30000E946731F4CF61E070E0D7CF81E0089580
:100E40008091340260917B0370917C0380FF16C017
:100E500020911501269FC001279F900D1124BC01F0
:100E600076956795769567956038710508F043C06B
:100E70006115710509F441C0862F089581FF0BC0EB
:100E800020911501269FC001279F900D1124BC01C0
:100E900076956795E9CF82FF09C0809115019B0186
:100EA000829FB001839F700D1124DECF2091330209
:100EB0002223D1F29091140180911501482F50E026
:100EC000291748F0CB01849FB001859F700D949F36
:100ED000700D1124C9CF289F90011124269FA001D5
:100EE000279F500D369F500D1124692F70E0CA01C5
:100EF0000E945331B9CF8FE7089581E00895803F74
:100F000031F40E942007819580933C020895813F2F
:100F100019F40E942007F8CF823F31F40E94200785
:100F2000819580933B020895833F19F40E94200726
:100F3000F8CF893F29F40E94E70680933D02089587
:100F40008A3F21F40E94E7068195F7CF8B3F31F469
:100F50000E94E706819580933E0208958C3F19F424
:100F60000E94E706F8CF843F31F480913A02816015
:100F700080933A020895853F21F480913A0282607D
:100F8000F7CF863F21F480913A028460F1CF873F0A
:100F900021F480913A028860EBCF883F21F4809160
:100FA0003A028061E5CF8D3F31F480913402816057
:100FB0008093340208958E3F21F480913402826040
:100FC000F7CF8F3FB9F7809134028460F1CF80E092
:100FD0000895F894E82FE295EF70F0E031A1282F02
:100FE0002F7081E090E001C0880F2A95EAF7982FD2
:100FF0009095932391A392A1892B82A3789408952D
:1010000090910B0292FF06C0282F28712830F9F426
:10101000877F846093FF06C0282F28712831F1F460
:10102000877E846120910C0220FF06C0382F387122
:101030003830D9F4877F816021FF06C0282F2871BE
:101040002831D1F4877E816194FD877E0895282F11
:1010500024712430F9F68B7F8860DCCF282F24712F
:10106000243101F78B7E8861DDCF382F317131302B
:1010700019F78E7F8860E0CF282F2171213121F769
:101080008E7E8861E1CFCF93DF93EC0182389105AA
:10109000A9F1D8F58133910509F496C048F5893254
:1010A000910509F48AC08A9709F495C0C11521E514
:1010B000D20708F0BCC0C11530E5D30708F014C151
:1010C000C83ED10508F09CC0C03ED10560F5C83AC5
:1010D000D10508F087C0C53AD10508F0FDC0C13080
:1010E000D10509F12097F9F0C430D105E0F440C0F2
:1010F0008533910509F45AC0C997C1F680910B0256
:10110000837089F0C0EED0E00EC0833E910599F166
:1011100070F4803E910501F1823E910539F680918F
:101120000B0282FD21C0CE01DF91CF910895863E52
:10113000910561F1873E910571F1843E910509F0B9
:10114000B5CF80910C0281FFEECF80910B02C7EEEC
:10115000D0E084FD0DC0E7CF80910B0280FD12C16D
:1011600090910C0290FFDFCFC3EED0E084FFDBCF85
:10117000D0E0C0E0D8CF80910B0282FD06C19091F3
:101180000C0290FDBFCF84FFCECFF2CF80910B0237
:1011900083FDDDCFC8CF80910B0283FDF9C0909114
:1011A0000C0291FFF0CFC4EED0E0BDCF80910B02D6
:1011B00085FFB9CFC9E2D0E0B6CF80910B0285FFA1
:1011C000B2CFC5E3D0E0AFCF80910B0286FFABCFAB
:1011D000CAE2D0E0A8CF80910B0286FFA4CFC1E382
:1011E000D0E0A1CFCF3BD10518F6C85AD0E0CC0F44
:1011F000DD1FC85DDE4F0990D881C02DD46493CF28
:10120000C11540E2D40758F4C11581E0D80708F0B1
:101210008ACFC03FD10508F4ABCFD06584CFC115CC
:1012200090E4D90708F4A4CFDF70D06A7CCFC11551
:1012300025E5D20700F5C11534E5D30708F08AC0CB
:10124000C11543E5D40708F071C0C11582E5D80780
:1012500008F467C0CE018370992721E030E002C016
:10126000220F331F8A95E2F7C695C69580E2C89F84
:10127000E001112452C0C11599E5D907A8F4C115A0
:1012800028E5D20708F06BC0C11536E5D30708F092
:101290006FCF8C2F0E940008C82FD0E0DC2FCC2706
:1012A000CC27DF71D0623FCFC1154AE5D40708F4DF
:1012B0005BC0CE0190568115904208F059CF8D2F1A
:1012C0008F710E94000890E0982F882788279F71CF
:1012D0009C012C2BE901E6CFC55AD0E0CB5DDE4F57
:1012E000C881D0E0D0641FCFCE01E4E09695879509
:1012F000EA95E1F783702C2F26952695237040E21E
:10130000249F90011124382B8C2F8370C1E0D0E0F2
:1013100002C0CC0FDD1F8A95E2F7C22BD32BDC680D
:1013200002CFDC2FCC27C16FD06AFDCECE018370F7
:10133000992721E030E002C0220F331F8A95E2F79F
:10134000C695C69590E2C99FE0011124C22BD32B0C
:10135000DA68E9CEDC2FCC27C46FD06AE4CEDC2F6C
:10136000CC27C06FD06ADFCE8C2F8F700E94000810
:1013700034E0D695C7953A95E1F7CF709C2FEC01F4
:10138000D069D1CEC9E3D0E0CECEC2EED0E0CBCE94
:10139000C6EED0E0C8CE8091FF01882331F01092D4
:1013A000FF011092FE011092FD010895CF93C82F06
:1013B00080910C0282FD0CC08091FF018C1741F0DE
:1013C0000E9481059093FE018093FD01C093FF016F
:1013D000CF91089580959091700498239093700414
:1013E000089580959091A60298239093A60208955F
:1013F0009091A602892B8093A60208951092FB017A
:101400001092FA011092F90108958091750390915C
:101410007603892B89F00E9481052091FD0130918E
:10142000FE01AC01421B530B81E02091750330910A
:1014300076034217530708F480E081700895809185
:10144000A60290917004892B9091FC01892B8093C6
:101450008E018091FF01882309F18091750390919D
:101460007603892B29F00E94050A81110E94CB097D
:1014700080918E019091FF01892B80938E0120E055
:1014800080E991E0FC013191CF0131112F5FF1E052
:1014900086399F07B9F721110E94CB09E0914C04CE
:1014A000F0914D04309731F00280F381E02D8EE809
:1014B00091E009940895EF92FF920F931F93CF93B9
:1014C000DF93EC018A85811134C0EB80FC8087E5D5
:1014D000F81A26E12E9DC0012F9D900D1124DC01EC
:1014E000A656BC4F1496ED91FC911597309731F0AC
:1014F00054966D917C9180569C4F099586E18E9D06
:1015000080018F9D100D112406561C4FF801878114
:101510000E94F109F80180850E94EA090E941F0AD1
:10152000188219861B861E821D82109299031092C2
:101530009803DF91CF911F910F91FF90EF90089545
:10154000CF93DF93EC018989811118C081E0898BE9
:101550008F810E94F809809170049885892B80936F
:1015600070040E941F0AEA81FB81309739F06C8970
:101570007D89CE010696DF91CF910994DF91CF91BD
:10158000089580911A01877F80931A0182E00E945A
:10159000EA0980911A0184FF06C08F7E80931A01A8
:1015A00082E00E94F80980911A0185FF06C08F7DB4
:1015B00080931A0180E20E94F8090C941F0A80911E
:1015C000F80181111092F8010895E0E9F1E091919C
:1015D000891303C0DF0111971C9291E0E639F907E6
:1015E000B1F70895A0E9B1E0EFEF90E02D918217F7
:1015F00051F0EF3F19F4211101C0E92F9F5F9630A0
:10160000A9F7EF3F09F408950E2E000CFF0BE257E7
:10161000FE4F828308952091F7019091B60129131E
:1016200002C080E0089530E0F90153E0EE0FFF1FA3
:101630005A95E1F7E954FE4F5181561306C0508187
:10164000581303C05281541304C02F5F3F4F2770BB
:10165000E6CF81E008958091F7019091B60198134B
:1016600001C008958F5F8770FACF9E3F49F1E82F40
:101670002DE0929FE00D11249E2F9770E695E69540
:10168000E69583E0E89FF0011124E756FE4F50E015
:1016900040E080E0219130E0092E02C03695279588
:1016A0000A94E2F721703327042E01C0220F0A9416
:1016B000EAF7822B4F5F5F4F4330510559F708958A
:1016C00080E008959E3F69F1E82F2DE0929FE00DA4
:1016D00011248E2F877041E001C0440F8A95EAF7EC
:1016E000E695E695E69583E0E89FF0011124E7563C
:1016F000FE4F30E020E070E05191DF011197CB0107
:10170000022E02C0969587950A94E2F78170819522
:101710008527842385278C932F5F3F4F2330310506
:1017200059F70895E92FE295EF70E250EE3070F42A
:10173000F0E0E65FFD4C0C947B31803F19F020F423
:10174000883E20F481E00895843FE1F380E008952D
:10175000883EC0F3813FD1F7F5CF93FB882780F90E
:10176000089590E080E00E94A30590E080E00E9450
:101770008D05109270041092FC010E941F0A86E0F1
:10178000E9E3F2E0DF011D928A95E9F71092330256
:1017900010923202109234020C943D0680936F0432
:1017A0000C94B10B80916F04982F9670963019F4B9
:1017B00088600C94CE0B877FFCCF21E030E001C025
:1017C000220F8A95EAF7209580916F0482230C946A
:1017D000CE0B9091FB01809589238093FB01282FEC
:1017E000277091F4282F082E000C330B9217130644
:1017F00059F090910C0292FD07C0859585958595CD
:101800000E94DD0B0C94FE09089521E030E001C038
:10181000220F8A95EAF780916F04822B0C94CE0BED
:1018200090910C0292FD10C098E0899F90011124C4
:10183000622B6093FB010E94050C0E94810590932E
:10184000FA018093F90108950C94050C80933F02EE
:101850000C94B10B882321F00E94EA090C941F0A12
:101860000895882339F090917004982B9093700418
:101870000C941F0A0895882321F00E94F1090C940A
:101880001F0A0895882321F00E94F8090C941F0A6A
:101890000895882309F452C0823871F40E94B90572
:1018A00081FF4CC089E30E94F20A0E941F0A89E36B
:1018B0000E94E50A0C941F0A833859F40E94B90566
:1018C00080FF3CC083E50E94F20A0E941F0A83E564
:1018D000EFCF843859F40E94B90582FF2FC087E406
:1018E0000E94F20A0E941F0A87E4E2CF9CEF980F41
:1018F000913AF0F290E2980F983050F4877091E0AE
:1019000001C0990F8A95EAF7892F0E94F109D2CF79
:101910009BE5980F933020F490E080E00C94A305B1
:1019200098E5980F973120F490E080E00C948D05B5
:10193000803F20F00E9464060C943D0608959C01AF
:101940003A9521153F4150F5FC01EE27F170BC019D
:1019500066277270AC01442754709C0122273870AE
:1019600094FF0EC080E1EF2B09F480E0672B09F0B3
:101970008062452B09F08064232B89F080680895EC
:1019800081E0EF2B09F480E0672B09F08260452BA2
:1019900009F08460232B19F08860089580E0089591
:1019A000CF93DF93EC010E94490CCE010E949F0C63
:1019B0009E01205E31092830310510F0CD2B21F435
:1019C000DF91CF910C943B0CDF91CF910C942A0CBA
:1019D0008093550470935704609356048091650476
:1019E0008430F9F48093E9008FEF9091E800815002
:1019F00095FD06C095ED9A95F1F700008111F5CFA0
:101A00008091E80085FF0DC050E040E063E070E0A9
:101A100085E594E00E9434048091E8008E778093FD
:101A2000E8000895BC0184E00C94E80CBC0183E05C
:101A30000C94E80C9C0184E08093E9009FEF809176
:101A4000E800915085FD06C085ED8A95F1F700000C
:101A50009111F5CF8091E80085FF0CC050E040E087
:101A600066E070E0C9010E9434048091E8008E773E
:101A70008093E8000895CF93DF93EC0181E0809399
:101A8000E9008FEF9091E800815095FD06C095ED3B
:101A90009A95F1F700008111F5CF8091E80085FF5C
:101AA00014C050E040E068E070E0CE010E943404D1
:101AB0008091E8008E778093E80088E0FE01ABE536
:101AC000B4E001900D928A95E1F7DF91CF910895EE
:101AD00081E08093E00080E28093D8001092C900FA
:101AE0008FE19EE40197F1F700C0000087E090EBE2
:101AF000DC018093710490937204A0937304B093FB
:101B0000740488E19CE00FB6F894A8958093600077
:101B10000FBE90936000FFCF019708F40895EFE99E
:101B2000FFE03197F1F700C00000F6CFCF93C82F48
:101B3000882309F48CC08238C1F40E94B90581FD64
:101B400086C089E30E94F20A0E941F0A2FEF81EEED
:101B500094E0215080409040E1F700C0000089E30C
:101B60000E94E50ACF910C941F0A8338A1F40E94C9
:101B7000B90580FD6CC083E50E94F20A0E941F0A2D
:101B80002FEF81EE94E0215080409040E1F700C0BB
:101B9000000083E5E5CF8438A1F40E94B90582FDF9
:101BA00056C087E40E94F20A0E941F0A2FEF81EEBE
:101BB00094E0215080409040E1F700C0000087E4AD
:101BC000CFCF8CEF8C0F813A68F4E0E9F1E081919E
:101BD000C817B9F121E0E639F207C9F78C2F0E9446
:101BE000F20AC0CF80E28C0F883048F4C77081E0E1
:101BF00001C0880FCA95EAF70E94F809B3CFEBE558
:101C0000EC0FE33040F4F0E0EB5DFE4F808190E0BC
:101C1000CF910C94A305E8E5EC0FE73150F4F0E028
:101C2000EE0FFF1FE85DFE4F80819181CF910C94F4
:101C30008D05C03F60F08C2F0E947F07CF910C94E0
:101C40003D068C2F0E94E50A0E941F0AC7CFCF9144
:101C500008951F93CF93DF93182FC0919303D091D2
:101C60009403893321F0C0919103D0919203812F85
:101C70000E94960D209731F4812FDF91CF911F9113
:101C80000C94490C8FE99FE00197F1F700C0000028
:101C90002197F0CF0F931F93CF93DF93C42FD22FB1
:101CA000FC0182818823A1F0409397030E94810563
:101CB0009093960380939503C77081E001C0880FCD
:101CC000CA95EAF7DF91CF911F910F910C94420CC6
:101CD00010919703141339C0809195039091960346
:101CE0000E94720520918B0330918C038217930719
:101CF00060F5C0E2CD0F1D17B9F080E2810F88308A
:101D000040F4177081E001C0880F1A95EAF70E942D
:101D10003B0CC83048F481E09D2F977001C0880FBC
:101D20009A95EAF70E94420C802F0E94290EC83033
:101D300098F4D77081E001C0880FDA95EAF7DF9157
:101D4000CF911F910F910C943B0CC77081E001C0A3
:101D5000880FCA95EAF7F3CFDF91CF911F910F91CA
:101D60000895CF93DF93EC010E949F0C9E01205EAB
:101D700031092830310510F0209739F40E94420CC7
:101D80008C2FDF91CF910C94960D0E94310CF8CFDF
:101D9000662329F0209170042260209370049C0136
:101DA0003056211540E2340720F0305E21153041D5
:101DB00008F499270C94B10EDF92EF92FF920F93E3
:101DC0001F93CF93DF937C018B01D42E80911A0156
:101DD00082FF8CC0C091C902D091CA02CE15DF0526
:101DE00021F0E114F10409F081C080911A018B7F88
:101DF00080931A0181FD73C08091C7029091C8023F
:101E0000A801481B590B81E020911801309119015C
:101E10004217530708F480E08170F82E80911A0170
:101E2000F0FA81F980931A01FE0183E0F695E795B7
:101E30008A95E1F7EE71FF27E955FD4F2081318149
:101E4000AE014F70552781E090E002C0880F991FC6
:101E50004A95E2F7FF2009F444C0822B932B91832B
:101E600080838091A60281FF08C080911A01806161
:101E700080931A0182E00E94F1098091A60285FFF9
:101E800008C080911A01806280931A0180E20E944A
:101E9000F1096F2DCE010E94C80EDD2031F0809136
:101EA0008E0385FF02C086FF3BC080919103909115
:101EB00092030E948C0D8091C9029091CA029C01EC
:101EC0003056211540E2340720F0305E21153041B4
:101ED00008F499270E94D00C0E94C10A1DC081E01D
:101EE0009BCF8095909582239323B9CFC7019927E3
:101EF00097013056211540E2340728F0305E211555
:101F0000304108F0C7010E94D00C8091C902909125
:101F1000CA028E159F0501F31093C8020093C702F1
:101F2000DF91CF911F910F91FF90EF90DF90089577
:101F3000AF92BF92CF92DF92EF92FF920F931F93D7
:101F4000CF93DF93EC018AE0A82E2881222309F4A5
:101F50008CC02130C9F599818A81913021F4229673
:101F60000E94290E05C0923029F422960E94960DF7
:101F70002196EBCF933021F422960E94490CF8CFA2
:101F8000943011F02196F4CF229630E020E0AE019B
:101F90004F5F5F4F8053990B8A30910550F021506D
:101FA000310930F38FE99FE00197F1F700C000009D
:101FB000F6CFA29EB001A39E700D11249C01260FA6
:101FC000371F8981EA01E3CFE22FF0E0E154FE4FB1
:101FD000B490822F86958695869590E0FC01E15518
:101FE000FE4FE4902770F12C022E02C0F594E79486
:101FF0000A94E2F731E0E322FF24FC01E156FE4FB0
:10200000C490D12C022E02C0D594C7940A94E2F752
:1020100031E0C322DD24FC01E157FE4F049110E0C2
:1020200002C0159507952A95E2F701701127E11472
:10203000F10419F081EE0E94960DC114D10419F03B
:1020400086EE0E94960D8B2D0E94290ECD2819F048
:1020500086EE0E94490CEF2819F081EE0E94490C8F
:10206000012B09F485CF8CE27BCFDF91CF911F91BB
:102070000F91FF90EF90DF90CF90BF90AF900895B9
:102080000F931F93CF93DF9303E713E0C7EFD1E0E4
:10209000CE010E94BE31F80181938F012196C93192
:1020A000F2E0DF07A9F7CDEED5E0FE01859194912E
:1020B000009711F0FC0109952896F6E0C538DF0776
:1020C000A1F7DF91CF911F910F9108950F931F9367
:1020D000CF93DF93843028F5633018F524E0629FB6
:1020E000E00111243CE0839FC00DD11D112450E07C
:1020F000440F551FC40FD51FC953DE4FCE010E9498
:10210000BE31082F10E0102F0027CE0101960E944B
:10211000BE319801282BC901DF91CF911F910F91FA
:10212000089590E080E0F8CF0F931F93CF93DF9353
:10213000843030F5643020F54D3010F5C42FD0E0F8
:10214000CC0FDD1F2AE1629FC00DD11D112438E69E
:10215000839FC00DD11D1124CE0187960E94BE31F0
:10216000082F10E0102F0027CE0188960E94BE3164
:102170009801282BC901DF91CF911F910F910895EC
:1021800090E080E0F8CF462F2091A4023091A50284
:10219000232B91F47E3F39F46E3F71F48091A202BB
:1021A0009091A3020895843038F4743028F46D308F
:1021B00018F4672F0C94941090E080E00895CF926B
:1021C000DF92FF920F931F93CF93DF936C010091E7
:1021D0006F0480913F02082BC7E0D0E010E0FC2E96
:1021E000C8010C2E02C0959587950A94E2F780FDF0
:1021F0000CC02197A0F7F12C8F2DDF91CF911F916B
:102200000F91FF90DF90CF900895B6018C2F0E9420
:10221000C3100E944308019761F3EECFCF93DF9381
:10222000EC010E94DF10BE010E94C310DF91CF912C
:102230000C944308FC0186819781009721F00E944D
:1022400043080C94920B808191810E940E11F9CF6A
:102250001F93CF93DF9300D000D00F92CDB7DEB79E
:1022600049835A8389819A816623B9F02223A9F090
:102270000E94DF10182F682F89819A810E94620BBB
:1022800069817A81812F0F900F900F900F900F909E
:10229000DF91CF911F910C94C3100E94350B182F22
:1022A000EFCFFC01262F86819781009739F440817A
:1022B00051816281738184810C942811089583E295
:1022C00090E00E94BE318A3589F484E290E00E9459
:1022D000BE318A3C59F485E290E00E94BE3191E023
:1022E000883809F090E0892F8170089580E0FCCF54
:1022F000CF9384E090E00E94BE31C82F82E290E04C
:102300000E94BE31982F8C2FCF9108950F931F9369
:10231000CF93DF9303E713E0C7EFD1E0CE010E9434
:10232000BE31F80161918F01681719F0CE010E944A
:10233000CC312196C931F2E0DF0781F7DF91CF91EF
:102340001F910F910895E3E7F3E0128E138E8FEA49
:1023500090E09183808385E0848F88E893E1938384
:1023600082834CE251E05583448322E330E037839B
:10237000268385E090E0918780878AE090E09387CC
:10238000828764E170E0758764875787468744E6F3
:1023900050E0518B408B48E050E0538B428B48E239
:1023A00050E0558B448B378B268B28EC30E0318FF7
:1023B000208F158E978F868F80E590E091A380A364
:1023C0000E9486110C944010CF93DF93C9EBD2E0AA
:1023D00060E0CE010E94CC312196C11584E0D8077F
:1023E000B9F7DF91CF9108950F931F93CF93DF93A8
:1023F0008901843050F5633040F5423030F52115C5
:102400003C4531F420910E0130910F01232BE9F06E
:1024100094E0699FE00111249CE0899FC00DD11DCB
:10242000112450E0440F551FC40FD51FC953DE4F70
:10243000612FCE010E94CC31602FCE010196DF9139
:10244000CF911F910F910C94CC31DF91CF911F91BF
:102450000F9108950F931F93CF93DF9389018430D9
:1024600048F5643038F54D3028F521153C4531F4F8
:1024700020910E0130910F01232BE1F0C42FD0E009
:10248000CC0FDD1F9AE1699FC00DD11D112498E684
:10249000899FC00DD11D1124612FCE0187960E9406
:1024A000CC31602FCE018896DF91CF911F910F9193
:1024B0000C94CC31DF91CF911F910F910895CF9360
:1024C000C82F6FEF81116AE583E290E00E94CC3162
:1024D0006FEFC1116AEC84E290E00E94CC316FEFA3
:1024E000C11168E885E290E0CF910C94CC31CF9394
:1024F000C0910C02C2FB992790F9981799F080FBC4
:10250000C2F9C0930C0260910B0284E090E00E943B
:10251000CC316C2F82E290E00E94CC3182E0CF91EE
:102520000C94E90BCF9108957F928F929F92AF9276
:10253000BF92CF92DF92EF92FF920F931F93CF93B0
:10254000DF93CDB7DEB764970FB6F894DEBF0FBE4A
:10255000CDBFC0900E01D0900F0181E090E090932C
:102560000F0180930E0187E4A82E84E0B82E10E0BE
:10257000750100E015C0F40125913491472D602FBD
:10258000812F0E942A1282E0880E911C7394EDE044
:102590007E12F1CFFAE1EF0EF11C0F5F043019F05B
:1025A0004701712CE8CF00E021E030E040E0602FEF
:1025B000812F0E94F41121E030E041E0602F812F53
:1025C0000E94F4110F5F033079F71F5F88E6A80EB1
:1025D000B11C143069F60E94A3111A8219821C8260
:1025E0001B821E821D8218861F8288EC90E09A87CB
:1025F000898709E112E04AE050E0B801CE01019676
:102600000E94F031065F1F4F0936E2E01E0799F77E
:102610007E01FBE0EF0EF11C8AE0F70111928A9532
:10262000E9F74AE050E0B801C7010E94F031065FC7
:102630001F4F093BF2E01F07A1F7D0920F01C09294
:102640000E0164960FB6F894DEBF0FBECDBFDF91CA
:10265000CF911F910F91FF90EF90DF90CF90BF909F
:10266000AF909F908F907F90089580E00E945F12BE
:1026700060E086E290E00E94CC310E9494120E94B9
:10268000E41181E00C945F129B01883070F49AE0B1
:10269000899FB0011124675E7D4F4AE050E0C90177
:1026A0000E94AE3190E080E008958FEF9FEF089593
:1026B0008F929F92AF92BF92CF92DF92EF92FF9252
:1026C0000F931F93CF93DF93CDB7DEB72A970FB643
:1026D000F894DEBF0FBECDBF0AE913E0F12CE12C68
:1026E0008CE2C82E88E2D82E96E5A92E98E2B92E63
:1026F00021E4822E27E2922EF801D182C082B38299
:10270000A28295828482F58AE48ABE016F5F7F4F40
:102710008E2D0E944413892B29F489859A85F8010E
:10272000938B828BFFEFEF1AFF0A0A5E1F4F88E040
:10273000E816F10409F72A960FB6F894DEBF0FBE2B
:10274000CDBFDF91CF911F910F91FF90EF90DF9060
:10275000CF90BF90AF909F908F900895CF92DF92CF
:10276000EF92FF920F931F93CF93DF93CDB7DEB716
:102770002A970FB6F894DEBF0FBECDBFE2E5F2E0B8
:1027800080E5DF011D928A95E9F7EFE2F3E088E347
:10279000DF011D928A95E9F782E5C82E82E0D82EE6
:1027A0007F0109E612E0F701D182C0824AE050E0E1
:1027B000B801CE0101960E94AE3188E0FE0131964B
:1027C000D60101900D928A95E1F789859A85D70106
:1027D00013969C938E931297BAE0CB0ED11CE7E030
:1027E000EE0EF11C065F1F4F093BF2E01F07D9F602
:1027F0002A960FB6F894DEBF0FBECDBFDF91CF9102
:102800001F910F91FF90EF90DF90CF90089510925D
:10281000A602E0E9F1E086E0DF011D928A95E9F782
:102820000C94B10B1F93CF93DF93CDB7DEB7AA976C
:102830000FB6F894DEBF0FBECDBF87E694E02091BF
:10284000F100DC012D93CD01B4E08F369B07B9F781
:1028500080916804833009F472C0B8F4813009F4BF
:1028600049C0823009F4B3C08091E80083FF96C26A
:1028700080916704909168049A3008F08FC2E92F24
:10288000F0E0E85EFD4C0C947B318A3009F48EC098
:102890008B3009F471C0893039F780916704813237
:1028A00019F780916B0490916C04009711F00297D6
:1028B000D9F68091E800877F8093E8008091E80056
:1028C00082FF38C09091F3008091F200029731F4BA
:1028D0008091F100813011F0863021F48091F10077
:1028E00080935A048091E8008B778093E8000E94DF
:1028F0005E04BACF80916704813A09F0B5CF809128
:10290000E800877F8093E80080916B0490916C04CD
:10291000892B61F468E08BE594E070E00E9410057B
:102920008091E8008B778093E8009ECF60E090E094
:1029300080E0F3CF809165048111C0CF95CF809165
:102940006704813A09F090CF80916B0490916C04F8
:10295000892B09F089CF8091E800877F8093E80078
:102960008091E80080FFFCCF80911C018093F100F2
:102970008091E8008E77B9CF80916704813209F0A9
:1029800073CF80916B0490916C04892B09F06CCF0C
:102990008091E800877F8093E8000E945E04809128
:1029A000690480931C010E9407145ECF8091670424
:1029B000813209F059CF8091E800877F8093E80049
:1029C0000E945E0480916A04809359044DCF8091E7
:1029D0006704813A09F048CF8091E800877F8093AF
:1029E000E8008091E80080FFFCCF80915904BECFC1
:1029F000803899F0823809F0D1C180916B048F70D2
:102A0000873008F0CBC18093E9008091EB0085FB13
:102A1000882780F91092E90006C0809163049091A4
:102A20006404911182609091E800977F9093E80090
:102A30008093F1001092F1008091E8008E77AAC196
:102A4000882309F498C1823009F0A8C180916904F3
:102A500081119BC180916B048F702FEF280F26305E
:102A600008F09CC18093E9002091EB0020FF8DC10C
:102A7000933031F48091EB0080628093EB0085C14C
:102A80009091EB0090619093EB0021E030E001C069
:102A9000220F8A95EAF72093EA001092EA008091CB
:102AA000EB008860EACF811179C1109169041F772A
:102AB0008091E3008078812B8093E3008091E8008F
:102AC000877F8093E8000E945E048091E80080FF89
:102AD000FCCF8091E30080688093E30082E01111D5
:102AE00083E0809365045AC18058823008F056C153
:102AF0002091690430916A042C3DE3E03E07A1F582
:102B000083E08A838AE289834FB7F894DE011396C3
:102B100020E03EE051E2E32FF0E050935700E491D3
:102B200020FF03C0E295EF703F5FEF708E2F90E0C3
:102B3000EA30C0F0C7968D939D932F5F243159F7EB
:102B40004FBF8091E800877F8093E8006AE270E0E1
:102B5000CE0101960E9410058091E8008B7780934A
:102B6000E8001CC1C096E7CF80916B0490916C0483
:102B7000432F55274330510509F44AC078F54130B9
:102B8000510509F485C08BE590E0EFE7F6E04230AF
:102B9000510509F003C12091E800277F2093E80048
:102BA00020916D0430916E048217930708F49C0104
:102BB00040E02115310509F070C041116EC08091CF
:102BC000E80082FDC9CF80916504882329F2853011
:102BD00019F28091E80083FFF2CFBECF4132510558
:102BE00009F447C04232510509F0D8C0833091053D
:102BF00008F0D4C0FC01EE0FFF1FE058FE4F01901B
:102C0000F081E02D83589E4FDC018C9190E01DC037
:102C1000332721303105E9F02115310579F02230D3
:102C20003105F9F02330310509F0B8C0ECEEF6E0DB
:102C3000E4918E2F90E0ECEEF6E007C0E2E3F7E0DF
:102C4000E4918E2F90E0E2E3F7E0009709F4A6C04C
:102C5000A2CFE8E1F7E0E4918E2F90E0E8E1F7E021
:102C6000F4CFEAE0F7E0E4918E2F90E0EAE0F7E0BD
:102C7000ECCF8330910508F091C0880F991FFC01BB
:102C8000EA57FE4F0190F081E02D89E090E083CF7C
:102C900082E190E0EAEDF6E07ECF80916504882342
:102CA00009F45ACF853009F457CF8091E80083FDAD
:102CB00053CF8091E80082FD82CF8091E80080FFB1
:102CC00078CF9091F3008091F2002115310519F031
:102CD0008830910550F041E0089709F040E080917C
:102CE000E8008E778093E80064CF44914093F10030
:102CF0003196215031090196E8CF803809F04EC055
:102D00008091E800877F8093E8008091660480933B
:102D1000F10092CE811142C0109169041230F0F599
:102D20008091E800877F8093E800109366040E94FA
:102D30005E04112311F084E005C08091E30087FD5B
:102D4000FACF81E08093650442E061EC81E00E946B
:102D50007D0442E261EC84E00E947D0442E261EC89
:102D600082E00E947D0442E260EC83E00E947D04E8
:102D70008091650413C080916904813079F481E009
:102D8000933009F080E0809364041092E900809110
:102D9000E800877F8093E8000E945E048091E8004D
:102DA00083FF0AC08091E800877F8093E8008091CC
:102DB000EB0080628093EB00AA960FB6F894DEBF1A
:102DC0000FBECDBFDF91CF911F9108956AEE7EEFC8
:102DD00090E080E00E94EA3160E082E090E00E94B2
:102DE000CC3160E083E090E00E94CC3110923F0251
:102DF00060E084E090E00E94CC3160E082E290E00C
:102E00000E94CC3160E085E090E00E94CC3160E02F
:102E100086E090E00E94CC316FEF87E090E00E9466
:102E2000CC3140E050E0BA0188E090E00E94DE3111
:102E300060E08DE090E00E94CC3140E050E0BA01CB
:102E400088E190E00E94DE3160E087E190E00E943E
:102E5000CC3140E050E0BA018CE190E00E94DE31DC
:102E600070E060E080E290E00E94EA3140E050E0F3
:102E7000BA0188E190E00E94DE3180E00E945F129A
:102E80000E94351340E050E0BA018FE090E00E94CC
:102E9000DE3140E050E0BA0183E190E00C94DE3195
:102EA0008F929F92AF92BF92CF92DF92EF92FF925A
:102EB0000F931F93CF93DF9300D000D0CDB7DEB731
:102EC0007C01DC0113964D915C91149711966C91E5
:102ED00011978C910E94C505811179C061E0C701ED
:102EE0000E9451118C01F7018281811111C0D7011B
:102EF00012968C91811149C00031FFE51F0709F43A
:102F0000EEC001312FE5120709F007C782E0E8C0E3
:102F10008091000190910101019649F36AE9C62E62
:102F200063E0D62EB12CA12C9924939480910001BA
:102F3000909101018A159B05D4F2F60186818823C0
:102F4000E9F0818592850817190739F48091980373
:102F5000909199030817190789F0D6011F969C9242
:102F60001F971C961C930E931B97C6010E94A00AE4
:102F7000C60106960E945B0A10927004BFEFAB1A5E
:102F8000BB0AE6E1CE0ED11CD1CF980122513F45BC
:102F90002031310508F0B7C68FEF93E00E94BE31B3
:102FA0005EEED52ED00E09EB12E0882369F18091F8
:102FB000FB01877061F0D70112968C91882339F05C
:102FC00080910C0282FD03C082E00E94E90B0F9009
:102FD0000F900F900F90DF91CF911F910F91FF9065
:102FE000EF90DF90CF90BF90AF909F908F9008951B
:102FF0000115F4E01F07D9F2C8010E94BE3181110A
:1030000001C0DA940F5F1F4FD110F2CF19821A82DC
:103010001B821C82CC24CA9448012FEF821A920A88
:10302000C8010E94BE3189831A82882309F4BFCF68
:10303000813009F048C0580132E0A30EB11CC40130
:103040000E94BE31982E8A83882309F4B0CFC5012F
:103050000E94BE31D82E8FEF890D833068F458015D
:1030600043E0A40EB11CDB82DD2021F0CE010196ED
:103070000E94980F8501D0CF54E09512FBCF5801E4
:1030800084E0A80EB11CC80103960E94BE31DD2069
:1030900009F48DCF882309F48ACF8150990BC89EFB
:1030A0009001C99E300D1124AD2DA150BB0BCD0157
:1030B000820F931F0197F0F2EFE9FFE03197F1F7EC
:1030C00000C00000F7CFCE0101960E94980F540176
:1030D000D1CF81E00E94050C0E94D20B68CF81E025
:1030E0000E94DD0BF9CF82E0F5CF4FEFC416D1047B
:1030F00011F008F01EC668E472E08C2D0E944413A3
:10310000892B29F586E18C9DF0018D9DF00D112410
:10311000E656FC4F8681813009F062C080914802FA
:1031200090914902892B99F080914A0290914B022B
:10313000892B69F080914C0290914D0220914E02B2
:1031400030914F02822B932B892B09F453C080912D
:103150000001909101018C159D0524F4D09201018C
:10316000C0920001F701828196E19C9D50019D9DD6
:10317000B00C1124950126563C4F6901D901509697
:103180008C935097928116968C911697992309F4F7
:103190003FC01A961C930E9319978F5F16968C93C7
:1031A0000E948105F601968785878091FF018783BC
:1031B000809170049091A602892B80870190F08104
:1031C000E02D309741F0D60154966D917C91C50168
:1031D00080569C4F09951093990300939803A9C5B5
:1031E000823009F0B4CF80914C0290914D02892B2E
:1031F00009F4ADCF26E12C9DC0012D9D900D112429
:1032000086569C4FDC0150961C920E94A00A9FCFCC
:10321000882309F48EC5F9018189882309F489C5B9
:10322000C50180569C4F0E945B0A83C580911A019C
:10323000816080931A01ABC580911A018E7F8093C3
:103240001A010E94C10AA3C580911A018F7E013E16
:10325000110531F0053E1105C9F480911A018F7DE9
:1032600080931A0180911A0180FFA0C5D7011296A0
:103270008C910832110528F50E31110508F074C043
:103280000430110580F581118DC590C5C801905697
:10329000811540E2940720F0905E8115904110F76F
:1032A00080911A0182FF82C58091900381FD7EC5C5
:1032B00023E032E040E0B60190E080E00E94DC0EC6
:1032C00075C50933110558F40D32110518F40B3288
:1032D0001105C9F690918E0392FDD5CF08C0043632
:1032E0001105C1F3D0CF90918E0394FDCCCF8823EC
:1032F00009F4A1C09091A6028091FF01282F292BEB
:10330000322F3D7FB1F11092CA021092C902309162
:103310008E0331FD2EC0F80143E0F695E7954A95FE
:10332000E1F7EE71FF27E955FD4F98012F70332724
:1033300081E090E002C0880F991F2A95E2F78095FE
:10334000909520813181822393239183808360E053
:10335000C8010E94C80E8091FF018D7F0E94D6098E
:1033600082E00E94E90B23CE90918E0393FD8BCFD8
:10337000BECF38E0F701A3E0B2E001900D923A959C
:10338000E1F7109205021092070210920602A09037
:10339000C902B090CA020A151B05B1F530918E031F
:1033A00035FF32C040911A0141FB992490F841FF4A
:1033B00002C036FF29C04091C7025091C802B60131
:1033C000641B750B40918B0350918C036417750738
:1033D000D8F491FF08C080911A01806180931A018E
:1033E00082E00E94F1098091A60285FF08C08091C9
:1033F0001A01806280931A0180E20E94F109692D0E
:10340000C5010E94C80ED3CD90911A0121FB91F9FC
:1034100090931A018D7F0E94D6091093CA020093DF
:10342000C902D092C802C092C70280911A0184607A
:1034300080931A0195CF970140E0B601C8010E9420
:10344000DC0EB5CD053F4CE5140709F467C008F460
:103450005FC0063F8CE5180709F466C0D7011296D5
:103460003C91332309F4C1C4109297030330BDE5A6
:103470001B0708F065C00A3FECE51E0730F4C801E1
:1034800082509C45449708F060C00E947811909348
:103490000C0280930B0200312CE5120709F461C184
:1034A00008F0DDC008304CE5140709F448C108F005
:1034B000AFC004308CE5180709F433C108F095C09B
:1034C0000230ACE51A0709F426C180910B02826034
:1034D00003301C4509F422C160910B0210910C02CB
:1034E00084E090E00E94CC31612F82E290E00E9463
:1034F000CC310E9407145BCD07E225EE45EE68ED66
:103500007CE56FC406E221EE40EE63EF7CE569C422
:1035100007E225EE44EE64EF7CE563C406E221EEAB
:1035200042EE65EF7CE55DC407E225EE46EE66EF10
:103530007CE557C408E221E045EE69ED7CE551C425
:103540000136FDE51F0709F4A0CF06315CE515073C
:1035500009F44FC40A354DE5140709F453C108F0C6
:103560002FC101158CE5180709F43CC10E3D1C451F
:1035700009F445C1F70186819781009709F446C196
:103580000E944308182F092FF701D280C580C294EA
:103590003FE0C3228091FB018770C1F0AD2CDD209C
:1035A000B1F0892F807F803421F080E2810F883054
:1035B00068F080910C0282FD09C082E00E94E90B54
:1035C0008091FB018770AA24A3948111A12C902ED5
:1035D00092942FE09222FBE0F91508F4A4C1E92DA2
:1035E000F0E0EE5DFD4C0C947B3180910B0280612C
:1035F0000630ECE51E0709F491C080910B0288604B
:1036000007301C4508F48AC080910B02806286C096
:1036100080910B028D7F0C302CE5120709F47EC0DF
:1036200070F480910B028C600A304CE5140709F4A9
:1036300075C008F488C080910B028E7F6FC00E3079
:103640008CE5180709F485C080910B028B7F0F3041
:103650001C4508F463C080910B028F7E5FC00C3F55
:10366000ACE51A0709F479C068F50431ECE51E07EA
:1036700009F48BC080F402312CE5120709F475C0FF
:1036800080910B028F7B03311C4508F447C0809169
:103690000B02837F43C00A3F4CE5140709F445C081
:1036A00008F049C005311C4509F016CF80910B0286
:1036B00082FB992790F921E0922790FB82F990FBF9
:1036C00083F92CC001159DE5190709F454C088F44D
:1036D00080910C0283600E3FBCE51B0749F180918D
:1036E0000C028D7F0F3F1C4518F180910C028C7FDE
:1036F0001FC00230FDE51F0709F456C008F44EC094
:1037000001361D4509F0E8CE90910B02892F8F7E7E
:1037100094FF806103C080910B02816080930B0253
:10372000DBCE80910B028460F9CF80910C02816026
:1037300080930C02D1CE80910C028260F9CF8091EF
:103740000B028064EBCF0E94071480910B0280680B
:10375000E5CF80910B02877FE1CF80910C028E7FB5
:10376000E7CF80910B028F7DD9CF0E940714809103
:103770000B028F77D3CF80910C02982F9095917088
:103780008E7F892B90FB81F9D3CF0E9407149091F3
:103790000B02892F97FB87F98058C0CF61E08EE03C
:1037A00090E00E94CC3198CE60E0F9CF80919601F4
:1037B000811104C089E20E94E50A46C385E3FBCF7C
:1037C0000B35ADE51A0701F10C351D4509F0D2CED8
:1037D00080910C0282FB882780F991E089270E9462
:1037E0007712C8CE0E940714EFEFF4E32CE0E1500B
:1037F000F0402040E1F700C000000E94680D0E94E8
:10380000E616D5CB81E0EBCF80E0E9CF8281008165
:103810001181882369F0C8010E94DF10D82E682F1B
:10382000C8010E94620BB8018D2D0E94C310A8CE62
:10383000C8010E94350BD82EF6CF202F2F70B22E44
:10384000802F807F19F0B29490EFB922DD20A9F08B
:10385000BB2059F080E2810F883010F0111107C0B1
:103860008B2D0E94F8090E941F0A812F5AC0809157
:103870007004B82AB0927004F6CF812F0E94490CD0
:10388000BB2009F450C080E2810F883010F0111184
:1038900004C08B2D0E94F10903C08B2D0E94EA0900
:1038A0000E941F0A40C0302F3F70B32E802F807FB0
:1038B000803219F0B29480EFB822112321F1113037
:1038C00009F4A4C0DD2009F4ADC0CC2009F47DC00A
:1038D00020E0D7014C9111965C91119712966C9152
:1038E000129713967C91139714968C910E9428112D
:1038F0008091900381FDB9CFF701858180FFB5CF1D
:103900008F70858362C080910C0282FF40C0DD20F1
:10391000C1F1BB2029F08B2D0E94F8090E941F0ADB
:1039200080E00E94960DA92DA850BB0B149710F4AF
:103930000E94B905812F902F0E94920B8111C4C162
:103940001092980110929701AA20B1F08091FB018A
:1039500080FD12C0D70112961C928595859585959C
:103960000E94050CC7010E9450178091FB018595AC
:10397000859585950E94DD0B60E0C7010E9451117D
:1039800026CB80E00E94490CBB2069F282CFDD206B
:1039900001F1C11004C08091FF018B2917C041E0E3
:1039A000C41206C08091FF018B290E94D609BBCFAB
:1039B00080918F03823078F3C812EDCF0E94CB093B
:1039C0008091F801B812B092F8018B2D0E94420C40
:1039D000AACFC11006C00E94CB098B2D0E943B0CC0
:1039E000A2CF80918F0351E0C5120BC0823008F442
:1039F0009ACF8091A6028B2109F495CF0E94DF0A0D
:103A0000EACF823040F3C812E6CF8DCFDD2029F017
:103A100085E08C1508F487CFD8CF94E09C1508F486
:103A200082CFDBCFCC20C9F2809193039091940395
:103A3000193321F080919103909192030E948C0D93
:103A4000812F0E94490C6FCF802F869586958370B9
:103A500069F0813009F067CF812F902F9370D110DA
:103A600002C090E080E00E948D055DCF812F902FF5
:103A70009370D11002C090E080E00E94A30553CF64
:103A8000812FDD2029F00E947F070E943D064BCF49
:103A90000E946406FACF802F837091F5D11043CF36
:103AA000412F429546954770440F440F812F8F70E8
:103AB000042E01C0880F0A94EAF7212F207114FF09
:103AC00007C02FE030E001C0220F4A95EAF72095A9
:103AD000302F369536953370323069F050F440917E
:103AE0003F02313029F0822B84230E94260C1BCF09
:103AF000842B822BFACF282B80913F028227F5CF8F
:103B00008695DD2011F0802F8170882309F40BCF7A
:103B1000412F429546954770440F440F812F8F7077
:103B2000042E01C0880F0A94EAF7212F207114FF98
:103B300007C02FE030E001C0220F4A95EAF7209538
:103B4000302F369536953370323069F050F440910D
:103B50006F04313029F0822B84230E94CE0BE3CEF8
:103B6000842B822BFACF282B80916F048227F5CFEC
:103B7000F02FFF70BF2EDD2029F08F2F0E94050C43
:103B8000812F24CF812F0E943B0C8B2D0E94DD0BB7
:103B9000CACE123F89F160F4103FB9F0113F81F0B5
:103BA000DD2009F48CC0C11060CE802F8F7128C039
:103BB000133F49F1143FA1F780910C0282FF2FC0FF
:103BC000802F8F71DD2011F31BC0DD2081F024E0F8
:103BD0002C1508F4A8CE202F2F7181E090E001C0B1
:103BE000880F2A95EAF790916F048927B6CF35E0C0
:103BF0003C1508F498CEEFCF802F8F71D110C6CF2F
:103C00000E94050C90CE80E0DD2009F4A6CF81E073
:103C1000902F9F7101C0880F9A95EAF79ECF8091EF
:103C20008F038230A0F18091F801DD20F1F00E9435
:103C3000F1098091FB018770843041F40E94FE09F4
:103C4000802F8F710E94DD0BA12C6DCE80918F0390
:103C5000C816D0F7402F4F71B42E842F0E94050C48
:103C600063E08B2D0E94100CEFCF0E94F809809129
:103C70008F03C81640F00E94FE090E94DF0A64E02C
:103C8000802F8F71EFCF81E00E94E90BDDCFDD2027
:103C900059F0502F5F71B52E852F0E94050C63E0FF
:103CA0008B2D0E94100C3FCE81E00E94E90B81E039
:103CB0008C1508F038CE82E00E94E90B34CEC1109A
:103CC000B3CE802F8F7162CFDD2019F0C11038CEB6
:103CD0003BCEC11035CE20E0F70140815181628199
:103CE000738184810E9428118091900383FF28CEE4
:103CF0008091970190919801029709F021CE812F30
:103D00000E94290E1DCE0031BFE51B0709F4E1C951
:103D10000131EFE51E0709F4E6C9680127E5D21A6B
:103D2000882309F4E2C93FEFC316D10409F008F46F
:103D30000ECA80918E0380FF39C00E9481056C01FC
:103D4000D70112968C91882309F47ECA80911A01BA
:103D500082FF08C023E032E040E0B60190E080E05E
:103D60000E94DC0E0B31BCE51B0709F45FCA0C3165
:103D7000ECE51E0709F460CA90911A01892F8E7F25
:103D800090FF81600A31FCE51F0709F458CAC80199
:103D90009056811520E2920728F0905E811590419F
:103DA00008F060CA1092CA021092C902033FBCE533
:103DB0001B0709F4A7CB08F045CB083DFCE51F071E
:103DC00009F49ACB093D2CE5120709F4B3CB073D62
:103DD0003CE5130709F042CB06E221EE41EE67ED28
:103DE0007CE5C7010E944A0EE2C806311C4509F075
:103DF000C1CB8091A602982F9A7A20918D0320FF43
:103E000004C0482F447409F090E021FF04C0482FFB
:103E1000417109F090E022FF04C0482F487809F072
:103E200090E023FF03C0827209F090E0332309F48D
:103E3000BDCC81E0911101C080E08093960189E2C0
:103E4000911185E30E94F20A0E941F0AB0C8CF9226
:103E5000DF92EF92FF920F931F93CF93DF938091A6
:103E6000B301807F31F48091B001C091F7018111DD
:103E70000BC0DF91CF911F910F91FF90EF90DF90DA
:103E8000CF9008952196C7708091B6018C1789F361
:103E9000F090AE01E090AF01C090B101D090B201BE
:103EA000A6016E2D8F2D0E94C505D0E08111EACFAD
:103EB0008E0183E0000F111F8A95E1F7F801E954A4
:103EC000FE4F81818E11DECF80818F11DBCF828109
:103ED0008111D8CFE380F480EC18FD0860E08EEA11
:103EE00091E00E94511180918B0390918C03E81610
:103EF000F90640F68091B3018F7080618093B30121
:103F0000F801E454FE4F80818F70806180838EEAD7
:103F100091E00E945017DF91CF911F910F91FF9078
:103F2000EF90DF90CF900C942B0B3F924F925F92CB
:103F30006F927F928F929F92AF92BF92CF92DF92B9
:103F4000EF92FF920F931F93CF93DF93CDB7DEB71E
:103F500065970FB6F894DEBF0FBECDBF8C0185E02C
:103F6000F801DE01519601900D928A95E1F7D80192
:103F70004C9011965C9011971296EC9012971396B4
:103F8000CD90DC9060E08EEA91E00E9451118EEAC3
:103F9000A82E81E0B82E8090B1019090B201A401CA
:103FA0006091AF018091AE010E94C5058111CAC127
:103FB000F090B001F601E819F9094F0160E0FF2027
:103FC00009F46DC1C5010E94511160908B0370907E
:103FD0008C033090B3018614970408F013C140910C
:103FE000B1015091B201B090AE01A090AF01832D0C
:103FF000807F6A2D09F0ADC08B2D0E94C505FE2C77
:1040000081113BC0D80111968C9111978A1135C04E
:104010008C918B1132C02091B4013091B50116966C
:104020008D919C912817390741F5E11026C0832D09
:104030008F7080618093B3018EEA91E00E945017E7
:104040008091B301F80185838F2D65960FB6F894A2
:10405000DEBF0FBECDBFDF91CF911F910F91FF90BB
:10406000EF90DF90CF90BF90AF909F908F907F9018
:104070006F905F904F903F900895F4EF6F16F1E0CE
:104080007F0620F48091900380FF21C0A601652D5A
:10409000842D0E94C505811118C081E08E2580FF06
:1040A00016C04E2D652D842D0E940B0B882379F0B0
:1040B0008EEA91E00E94501788E0EEEAF1E0DF011D
:1040C0001D928A95E9F7F12CBFCF80E0E8CFA601D9
:1040D000652D842D0E94C505811124C081E08E25A7
:1040E000B82FB170CB2E80FF2BC04E2D652D842DA7
:1040F0000E940B0BD82E811123C0498A5A8A8989C4
:104100009A890E940E11292F22952F70223060F07B
:10411000243088F49F7061F0F8019581907F41F41C
:10412000FD2C92CF80E0DCCF9F7011F08823C1F38B
:10413000805E8830A8F3C8010E945017DC2CF0CFB5
:10414000EE2009F481CF8091B30181608093B301A7
:10415000BACF8B2D0E94C505811124C0D8011196BC
:104160008C9111978A111EC08C918B111BC02091CC
:10417000B4013091B50116968D919C91179728172F
:10418000390781F4E1100EC015963C92C8010E94D7
:10419000501788E0F801AEEAB1E001900D928A95DF
:1041A000E1F752CFC8010E941A11882339F1EE209D
:1041B00029F18091B3018032A0F02091AE013091BD
:1041C000AF013A8729871B86DD86CC868E87809152
:1041D000B4019091B501988B8F87CE0109960E940A
:1041E000501788E0F801AEEAB1E001900D928A958F
:1041F000E1F70E94271FFF24F39426CFC8010E94F5
:104200005017F9CF832D807F09F452CF9090AE01E3
:104210008090AF014091B1015091B201682D892D7C
:104220000E94C50581111CC0F8018181881118C048
:104230008081891115C02091B4013091B50186812A
:1042400097812817390761F4E1100AC03582C80147
:104250000E94501788E0D5011D928A95E9F7F4CEA7
:10426000C8010E941A11882349F2EE2039F2809188
:10427000B301803208F4B5CF2091AE013091AF0187
:104280003A8329831B82DD82CC828E838091B401A4
:104290009091B50198878F83CE010196A0CF8EEAC9
:1042A00091E00E94511180918B0390918C038816AC
:1042B000990680F6FE2CEE2009F4A0CFE090AE0126
:1042C000D090AF014091B1015091B2016D2D8E2D72
:1042D0000E94C505811128C0F80181818D1124C07B
:1042E00080818E1121C02091B4013091B501868169
:1042F000978128173907C1F48091900382FD49CF37
:104300009091B30190FD45CF907F09F442CF809109
:10431000B3018583903F09F439CF982F907F905F48
:104320008F70892B858332CFC8010E941A118111A9
:1043300058CF8091B30181608093B301C8010E947E
:10434000501782CEEE2009F459CFC8010E941A11ED
:10435000F82E882309F452CF88E0F801AEEAB1E0E4
:1043600001900D928A95E1F78091AE019091AF0195
:104370000E940E110E94271F67CECF93DF93CDB707
:10438000DEB760970FB6F894DEBF0FBECDBF2987AA
:104390003A874B875C876D877E878F87988BCE01A6
:1043A00009960E94951F81112FC088E0FE01399661
:1043B000DE01119601900D928A95E1F74C855D859D
:1043C0006A8589850E94C50581111EC0A091B6012C
:1043D000B0E0CD010196877099272091F701281749
:1043E000190609F193E0AA0FBB1F9A95E1F7A954AA
:1043F000BE4F98E0FE01319601900D929A95E1F73B
:104400008093B6010E942B0B8091F7019091B60129
:10441000891317C060960FB6F894DEBF0FBECDBFEC
:10442000DF91CF9108950E9407141092B601109267
:10443000F70188E0EEEAF1E0DF011D928A95E9F7E5
:10444000E3CFB8E08B9FC001112489549E4F0E9496
:10445000951F8823F9F28091F70190E0019687700B
:1044600099278093F701D0CFEF92FF920F931F937C
:10447000CF93DF938091CE02882361F0C091CD026B
:104480008CE0F82E8091CE02C81758F01092CE0220
:104490001092CD02DF91CF911F910F91FF90EF907D
:1044A0000895EE24E394EC0EE092CD020C2F10E080
:1044B000CF9DE0011124C153DD4F4B815C816981A7
:1044C00088810E94C50581111BC08E819F81892B27
:1044D00021F488859985019651F4288139814A8192
:1044E0005B816C817D818E819F810E94BD21F09EC8
:1044F000F001F19EF00D1124E153FD4F148213825F
:10450000CE2DC0CF109272031092710310921B0136
:104510008091700380936F030E94FE050C943422F7
:104520003F924F925F926F927F928F929F92AF9243
:10453000BF92CF92DF92EF92FF920F931F93CF9390
:10454000DF93C0916F0397E0892E01E010E02CE02B
:10455000322E3EEF932E44244394809170038C13AB
:1045600015C00E943422DF91CF911F910F91FF90CF
:10457000EF90DF90CF90BF90AF909F908F907F9003
:104580006F905F904F903F900C94FE05D0E0FE013D
:10459000EE0FFF1FE959FC4F80819181889ED00169
:1045A000899EB00D1124A15DBC4F14962C911497D7
:1045B000211157C05090CE02EFECF2E030E020E045
:1045C000712C5D01251508F04AC0E284F384D50101
:1045D000CD90DC906FEF7FEF612C462D50E0DA013B
:1045E000AA0FBB1FAC0DBD1D0D90BC91A02D109747
:1045F00031F0EA16FB0609F4BA016394EECF6F3F7F
:104600007607A1F1D80102C0AA0FBB1F6A95E2F795
:104610007A2AB80102C0660F771F6A94E2F7AB01ED
:104620004150510974161506F9F4329EF001339E7B
:10463000F00D1124E153FD4F889ED001899EB00DED
:104640001124A15DBC4F12962D913C911397378395
:104650002683908291829187808715964C920E9442
:10466000D0052196C37079CF148213822F5F3F4FFC
:104670003C96A8CF4F925F926F927F928F929F92BB
:10468000AF92BF92CF92DF92EF92FF920F931F9360
:10469000CF93DF93CDB7DEB728970FB6F894DEBF80
:1046A0000FBECDBF8E010F5F1F4F88E0F801119242
:1046B0008A95E9F796E5E92E91E0F92E68012AE559
:1046C000422E21E0522E66246394712C47E6842EFC
:1046D00041E0942EF70181917F018F3F09F445C09D
:1046E000F894E82FE295EF70F0E021A18F70A3011C
:1046F00002C0440F551F8A95E2F7CA01922F982BEA
:1047000091A392A18095892382A3789400C0EAE5C1
:10471000F1E021E030E0B12CA12C41914F3F09F4B0
:1047200076C0A42FA295AF70B0E090968C9190E0E7
:104730004F7002C0959587954A95E2F780FD67C056
:10474000C901A82AB92A220F331F8E169F0629F7FE
:10475000F701319780818F3F11F00E94E90750EAFD
:104760005A95F1F7F601B182A082F2E0CF0ED11C8A
:104770004E145F0409F0AECF48E050E0B8018DE080
:1047800092E00E949131DD24D394009709F4D12C5A
:10479000892B09F43FC088E0F801ADE0B2E0019058
:1047A0000D928A95E1F781E0809302020E948105D3
:1047B0009093010280930002809100029091010287
:1047C0000E947205059750F180910D0290910E02A2
:1047D00090932B0280932A0280910F0290911002F5
:1047E00090932D0280932C028091110290911202DD
:1047F00090932F0280932E028091130290911402C5
:1048000090933102809330021092020207C090E030
:1048100080E097CF809102028111CECF809100017C
:104820009091010110E006E1019609F06DC08091C0
:104830001B01811173C080918E0380FF1EC0809187
:104840001A0182FF1AC00E9481052091C70230918F
:10485000C802AC01421B530B209118013091190181
:104860004217530750F023E032E041E0BC01809151
:10487000C9029091CA020E94DC0E8D2D28960FB6B7
:10488000F894DEBF0FBECDBFDF91CF911F910F9186
:10489000FF90EF90DF90CF90BF90AF909F908F9060
:1048A0007F906F905F904F900895089FF001099F4F
:1048B000F00D1124E656FC4FE288F388E114F10470
:1048C00021F4E0908B03F0908C03089FF001099F86
:1048D000F00D1124E656FC4F86818823A1F08585D2
:1048E00096850E947205E816F90668F4109F70011B
:1048F0001124C70186569C4F0E94A00AC70180560A
:104900009C4F0E945B0A1F5F812F90E02091000165
:10491000309101012817390744F689CF809171033E
:1049200090917203009709F486CF0E94720520913E
:10493000CB023091CC022817390708F07CCF909138
:104940006F0380917003981759F00E949022109283
:10495000CC021092CB0210927203109271036BCFB3
:104960000E94342210927203109271030E94FE057D
:1049700062CF2F923F924F925F926F927F928F926F
:104980009F92AF92BF92CF92DF92EF92FF920F93DE
:104990001F93CF93DF93CDB7DEB769970FB6F89427
:1049A000DEBF0FBECDBF942F498B252F5A8B6B8B4B
:1049B0007C8B8D8B4C895D89622F892F0E94C50568
:1049C000811109C08091970190919801019690936F
:1049D0009801809397018B898111109270041D8634
:1049E0001E861F86188A85E0FE017196DE011996E3
:1049F00001900D928A95E1F780910C0282FD1EC014
:104A00008091750390917603892BC1F00E948105F6
:104A10002091F9013091FA01821B930B20917503CB
:104A2000309176038217930720F08091FB0182FF7B
:104A3000F5C10E94050A81110E94CB094C855D8554
:104A40006A8589850E94C505811111C061E0CE018A
:104A500009960E9451116C018B8527EFC2162CE537
:104A6000D20681F4882321F181E080931B012985FE
:104A70003A854B855C856D857E858F8598890E94FA
:104A8000BD21C5C038EFC3163CE5D30629F4882301
:104A900079F00E948222EBCF49EFC4164CE5D40690
:104AA00039F4882329F080911B018111F2CFDCCFEA
:104AB0000FE213E0512CB12CA12C22242394312C91
:104AC0002EEF422EF8014081518188248A94982C3F
:104AD00020E0822F90E0FC01EE0FFF1FE40FF51F96
:104AE000608171816115710531F0C616D70609F430
:104AF0004C012F5FEECFF12CFFEF8F169F0609F4CC
:104B000048C0F8014481F0901B018F2D411180E0D5
:104B1000F82FF170FF2EF801E58086819B8599239F
:104B200009F40CC1FF2009F409C160908903709059
:104B30008A03E11012C0A10101C0440F8A94EAF770
:104B4000842B86838091CB029091CC0286159705A9
:104B500020F47092CC026092CB02C10102C0880F97
:104B6000991F2A95E2F70197F8012681281719065F
:104B700081F48091710390917203009709F460C0F1
:104B80000E9472056816790608F05AC021E0F80103
:104B900024835F28FFEFAF1ABF0A095F1F4F28E089
:104BA000A216B10409F08ECF8B85882309F421C1A8
:104BB000552009F41EC10E948105909372038093D1
:104BC00071038091CE02883010F591E0980F909398
:104BD000CE0298E0FE013996DE01119601900D9209
:104BE0009A95E1F73CE0839FC001112481539D4FCA
:104BF00028E0FE013196DC0101900D922A95E1F743
:104C00002FEF3FEFFC0131872087D386C28669965C
:104C10000FB6F894DEBF0FBECDBFDF91CF911F91CD
:104C20000F91FF90EF90DF90CF90BF90AF909F904B
:104C30008F907F906F905F904F903F902F9008954E
:104C400080916F0350917003982FF0E0E0E085139E
:104C500014C090936F03E017F10709F49ACF90E026
:104C6000FC01EE0FFF1FE959FC4FB182A0820196B3
:104C700083709927809370038CCF682E712CF30179
:104C8000EE0FFF1FE959FC4F2081318147E0429F21
:104C9000D001439FB00D1124A15DBC4F6D917C915B
:104CA0001197798F688F40E020E030E0E32FF0E04B
:104CB000EE0FFF1F688D798DE60FF71F80809180C2
:104CC00081149104E1F0F8010190F081E02DFF8B57
:104CD000EE8B20E005C08616970609F44F2D2F5F56
:104CE000E22FF0E0EE0FFF1F6E897F89E60FF71FBE
:104CF000608171816115710571F73F5FD7CF4423E2
:104D0000D1F0F801231708F0FD0121E024830E17EC
:104D10001F0721F490936F03F42E3BCF981305C027
:104D2000AE17BF0711F49F5F937093012F5F3F4F42
:104D3000822F83708CCFF0E0E0E0F7CF90E0E110BD
:104D40001FC0B10102C0660F771F2A95E2F79B01D1
:104D5000215031098217930731F4442309F447C0E5
:104D6000C5010E94D005C10101C0880F8A94EAF7ED
:104D7000982F9095F801868189238683FE2C09CF90
:104D80009C01082C02C0359527950A94E2F7A901E9
:104D900041705527BC016150710986239723892BE7
:104DA00011F5452B01F1F80182819381892BC1F026
:104DB0001B821C821D821E8249824A820E948105BA
:104DC0008160582F9D838C83F801828193818F832A
:104DD000988729813A814B816D817E810E94BD2116
:104DE000F8011582C0CFF22FF170EF2EBCCFEF2C5F
:104DF000BACF90916F0380917003981731F00E94A1
:104E00009022552009F433CE02CF0E943422109212
:104E10007203109271030E94FE05F3CF82E00E949C
:104E2000E90B07CECF93DF9300D000D00F92CDB720
:104E3000DEB79093A3028093A202811520E292072D
:104E400048F40F900F900F900F900F90DF91CF913B
:104E50000C94D00C8EEF89838A831B820E9481057B
:104E60008160782F9D838C8349815A816B818D81EC
:104E70000F900F900F900F900F90DF91CF910C94A7
:104E8000B9240F931F93CF93DF938C01EB0168E458
:104E900072E08C2F0E944413892BA1F4809191031E
:104EA000909192030E948C0DDD27C05CDD4F8881BC
:104EB000F80110821882833009F148F4813059F0EA
:104EC000823081F0DF91CF911F910F91089584304E
:104ED000D1F08530B9F7809148029091490200974E
:104EE00089F306C080914A0290914B02009799F392
:104EF000DF91CF911F910F910C94122780914C025A
:104F000090914D02F3CF80914E0290914F02009705
:104F100079F7209148023091490280914A0290919C
:104F20004B0221153105D9F2009711F7C901E0CFE5
:104F3000CF93DF9300D000D00F92CDB7DEB7909320
:104F4000A3028093A202811520E2920748F40F90F9
:104F50000F900F900F900F90DF91CF910C94B10EA6
:104F60008EEF89838A8381E08B830E948105816033
:104F7000782F9D838C8349815A816B818D810F901D
:104F80000F900F900F900F90DF91CF910C94B92458
:104F9000AF92BF92CF92DF92EF92FF920F931F9347
:104FA000CF93DF93B82EA62EC0906F0480913F025E
:104FB000C82AC7E0D0E0D12CF12CE12CD701C601E2
:104FC0000C2E04C0B695A795979587950A94D2F7AD
:104FD00080FF20C04A2D6B2D8C2F0E9466108C0103
:104FE00081309105B9F00E9498278FE39CE90197E1
:104FF000F1F700C00000C8010E94122781E0DF9194
:10500000CF911F910F91FF90EF90DF90CF90BF90C5
:10501000AF900895219790F64A2D6B2D80E00E9465
:105020006610EC010E9498278FE39CE90197F1F745
:1050300000C00000CE01E0CFCF93DF93EC010E94CF
:10504000982780919103909192030E948C0DCE013C
:10505000DF91CF910C9412270F931F93CF93DF937F
:105060008C01862F68E472E00E944413892BC9F4F6
:10507000C0914802D0914902209799F0F8018081AF
:10508000833069F4CE010E941C28CE010E941C28A6
:10509000CE01DF91CF911F910F910C941C28843089
:1050A000B8F7DF91CF911F910F9108950F931F9340
:1050B000CF93DF938C01EB0168E472E08C2F0E94A8
:1050C0004413892B09F064C0FE01FF27D8018C919D
:1050D000E05CFD4F8130D9F419969C911997992382
:1050E00011F080830CC01A969C919923D1F382E031
:1050F000808380914A0290914B020097D9F480916D
:10510000480290914902009709F442C013C08230CE
:10511000E9F519968C91199781112DC01A968C91E9
:1051200081110EC083E0808380914C0290914D02EA
:10513000009719F1DF91CF911F910F910C9498274F
:1051400084E0808380914E0290914F02009791F706
:1051500080914802909149020097F9F00E941C2822
:1051600080914A0290914B02009721F7809148026A
:1051700090914902DFCF85E0808380914802909131
:105180004902009729F00E941C28F0CF86E0808316
:10519000DF91CF911F910F91089580914A029091D4
:1051A0004B02B1CF1F920F920FB60F9211242F9383
:1051B0003F934F935F936F937F938F939F93AF939F
:1051C000BF93CF93DF93EF93FF93D091E900DF700C
:1051D0008091EC00C82FC17080FDC0E81092E900FA
:1051E0008091F000877F8093F00078940E941214E1
:1051F0001092E9008091F00088608093F000CD2B40
:10520000CF70C093E900FF91EF91DF91CF91BF91F3
:10521000AF919F918F917F916F915F914F913F914E
:105220002F910F900FBE0F901F9018951F920F9205
:105230000FB60F9211242F933F934F935F936F9369
:105240007F938F939F93AF93BF93EF93FF9380913F
:10525000E10082FF09C08091E20082FF05C08091D9
:10526000E1008B7F8093E1008091DA0080FF24C011
:105270008091D80080FF20C08091DA008E7F8093DB
:10528000DA008091D90080FF9DC080E189BD82E174
:1052900089BD09B400FEFDCF81E080936504809153
:1052A0005804811109C00E94E4030E94AF04809158
:1052B000E20084608093E2008091E10080FF17C0EB
:1052C0008091E20080FF13C08091E2008E7F809386
:1052D000E2008091E20080618093E2008091D8003A
:1052E00080628093D80019BC85E08093650480912A
:1052F000E10084FF2BC08091E20084FF27C080E1A1
:1053000089BD82E189BD89B5982F917080FFFBCF5F
:105310008091D8008F7D8093D8008091E1008F7EAE
:105320008093E1008091E2008F7E8093E200809183
:10533000E20081608093E20080916604882309F492
:1053400047C084E080936504809165048091E1000A
:1053500083FF27C08091E20083FF23C08091E1009A
:10536000877F8093E10082E0809365041092660459
:105370008091E1008E7F8093E1008091E2008E7F3A
:105380008093E2008091E20080618093E20042E03D
:1053900060E080E00E947D048091F000886080934E
:1053A000F000FF91EF91BF91AF919F918F917F910D
:1053B0006F915F914F913F912F910F900FBE0F9082
:1053C0001F90189519BC109265041092580474CF60
:1053D0008091E30087FD93E090936504B5CF7894C6
:1053E0001F921FB61F9211248F939F93AF93BF9369
:1053F0008091510490915204A0915304B0915404AF
:105400000196A11DB11D8093510490935204A09365
:105410005304B0935404BF91AF919F918F911F900B
:105420001FBE1F9018951F921FB61F9211248F93B5
:105430009F93AF93BF9380915004811113C08091CB
:10544000510490915204A0915304B0915404419698
:10545000A11DB11D8093510490935204A093530455
:10546000B0935404BF91AF919F918F911F901FBE35
:105470001F901895CDB7DEB7E4970FB6F894DEBF4E
:105480000FBECDBF84B7877F84BF0FB6F894A895B1
:1054900080916000886180936000109260000FBE70
:1054A00080E890E00FB6F8948093610090936100DB
:1054B0000FBE85B7806885BF85B7806885BF87EEDA
:1054C00097E090938D0180938C010E9458130E9465
:1054D000AE130E9440100E94E4030E94AF0480912A
:1054E000E20084608093E2007894809165048823D0
:1054F000A1F01091E9001F709091EC00892F81704C
:1055000090FD80E8182B1092E9008091E80083FD5F
:105510000E9412141F701093E90082E084BD93E092
:1055200095BD9AEF97BD80936E000E945F11811127
:1055300002C00E94351387E90E94E90782E30E94B6
:10554000E90785E30E94E90784E30E94E9070AE589
:1055500011E0F7E6EF2EF1E0FF2ED8018D918D01DD
:105560008F3F11F00E94E907E016F106B1F788E0DD
:10557000EAE2F2E0DF01282F1D922A95E9F7EDE03B
:10558000F2E0DF011D928A95E9F790E080E00E9449
:10559000C6318A3E9E4F21F40E945F11811102C0E4
:1055A0000E94E61682E090E00E94BE3180931F02C6
:1055B0000E94781190930C0280930B020E943A2370
:1055C000EFE3FCE93197F1F700C000000E943A23B5
:1055D00080912A0280FF08C06FEF7FEF90E080E0AB
:1055E0000E94EA310E94680D83E090E00E94BE3183
:1055F0000E94260C6DE771E0EBE18E2EE2E09E2E1C
:1056000027E731E0EAE7F1E041E050E01191812F36
:1056100082958F7090E0DC019196FC9091971F70BD
:10562000E12E6A0101C0CC0C1A95EAF70C2D009509
:105630000F2191960C93919792961C9192971C2909
:1056400092961C93D901FD909D010F2D02950F702C
:1056500010E0D8019196BC90BF2DBF70FB2E6A015F
:1056600001C0CC0CBA95EAF7DC2CD094DB20D80131
:105670009196DC9291979296DC909297DC28929684
:10568000DC92DC0190968C9190E002C09595879514
:10569000EA94E2F78170D80190960C9110E002C074
:1056A00015950795FA94E2F790E000FD92E0892BBA
:1056B000D4018D934D016E177F0709F0A7CF82E0CB
:1056C00091E090934D0480934C0452E3452E52E0B8
:1056D000552E8091650400E112E1853009F4B2C1D4
:1056E0000E943A23882359F08FB7F89440915104CF
:1056F0005091520460915304709154048FBFAAE2F8
:10570000B2E0E0E2F2E010E000E0702F8D919D91B8
:10571000219131912817390709F4A4C12827392785
:1057200060E0EE24E394F12CA9014E215F21452B8A
:1057300009F492C16BA77CA79C012E213F2191E027
:10574000232B09F490E09DA70E9481058160782FAA
:105750009FA78EA74BA55CA56DA58FA50E94B92418
:10576000000F111FF801E05EFD4F80819181E82656
:10577000F926F182E08268E1E62E62E0F62E05E18C
:1057800012E077E7A72E71E0B72EEAE78E2EE1E070
:105790009E2EFBE1CF2EF2E0DF2E212C312CA4E057
:1057A0006A2E712CD601ED916D01EE0FEE0FD40132
:1057B0008D914D01A82FA295AF70B0E090962C91DD
:1057C00030E08F7002C0359527958A95E2F72170F9
:1057D0003327D5014D915D01A42FA295AF70B0E0A4
:1057E00090968C9190E04F7002C0959587954A9560
:1057F000E2F7AC014170552780FF02C042E050E063
:10580000242BE22BD6011197EC93EF70F0E0E959CD
:10581000FE4F8081F7019081890F808320E08430E2
:105820004CF0D8018C918F5F8C9360E0832D0E94A7
:10583000C82721E0F70180818D3F4CF4D8018C917D
:1058400081508C9361E0832D0E94C82721E0F701ED
:105850008081082E000C990BB3010E946731D7019B
:105860008D937D01222A33940F5F1F4FB3E03B12CB
:1058700099CF222059F08FB7F8944091510450915C
:10588000520460915304709154048FBF86E0E9E3A1
:10589000F2E08E010F5F1F4FD80101900D928A95A3
:1058A000E1F7C0903B02D0903C02E0903D02F090C6
:1058B0003E0210923B0210923C0210923D02109266
:1058C0003E028C2D8D2991F0809137029091380203
:1058D0000E947205AC0190913302992309F4D9C05A
:1058E000809116018417150608F4E1C08E2D8F29CA
:1058F00091F080913502909136020E947205AC01C0
:1059000090913202992309F411C1809112018417F8
:10591000150608F419C180913B0290913C02892B35
:1059200090913D02892B90913E02892B11F00E94AB
:105930003D0686E0F801A9E3B2E001900D928A9558
:10594000E1F70E94B90590911E02891721F00E948B
:10595000B90580931E0280916504843009F0B9CEA8
:1059600083E08093E9008091E80082FFB2CE8091CD
:10597000E80090E085FF0AC00E94030450E2C52EB3
:10598000D12C7801882309F428C191E08091E800A6
:105990008B778093E800992309F49BCEE090A402D2
:1059A000F090A5028981E114F10409F424C18E3F2D
:1059B00009F06CC18A81833020F08550833008F073
:1059C00065C1EA81EE3008F061C1F0E0E25DFD4CB6
:1059D0000C947B3180916504843021F11092500445
:1059E000E8E1F0E020E40FB6F894A895E0936000B9
:1059F0000FBE2093600083B7817F846083BF83B72D
:105A0000816083BF7894889583B78E7F83BF0FB6FC
:105A1000F894A8958091600088618093600010924E
:105A200060000FBE80916404882361F00E943A23D5
:105A3000EAE2F2E081919191892B09F0DDC34E16E3
:105A40005F06C1F780916504853009F4C3CF0E94D9
:105A500007140E94B90544CE6F5FEE0CFF1C6D3039
:105A600009F062CE0F5F1F4F0430110509F04DCED3
:105A70008FEF88AB89AB1AAA0E9481058160782FCD
:105A80009CAB8BAB48A959A96AA98CA90E94B924DF
:105A900072CE20911701EAE02E9F90011124241765
:105AA000350708F023CF9F5F9093330202C09F3FDA
:105AB000D1F7CC2059F00E9420079FEF1C140CF462
:105AC00091E0899F802D112480933B02DD2059F0C5
:105AD0000E9420079FEF1D140CF491E0899F802DF8
