:100000000C9435030C946D030C946D030C946D03E8
:100010000C946D030C946D030C946D030C946D03A0
:100020000C946D030C946D030C94BD2D0C94952EC3
:100030000C94722D0C946D030C946D030C946D0351
:100040000C946D030C946D030C946D030C946D0370
:100050000C946D030C94992D0C946D030C946D030A
:100060000C946D030C946D030C946D030C946D0350
:100070000C946D030C946D030C946D030C946D0340
:100080000C946D030C946D030C946D030C946D0330
:100090000C946D030C946D030C946D030C946D0320
:1000A0000C946D030C946D030C946D030501098091
:1000B000A101850319012AB700150126B700950192
:1000C00075108100C0050C0901A101850419012AE0
:1000D000A002150126A002950175108100C005013E
:1000E0000906A1018506050719E029E71500250184
:1000F0009508750181020507190029EF15002501F2
:1001000095F075018102050819012905950575010C
:100110009102950175039101C00660FF0961A1017B
:100120000962150026FF00952075088102096315F4
:100130000026FF00952075089102C005010906A15F
:1001400001050719E029E7150025019508750181CA
:10015000029501750881010507190029FF15002680
:10016000FF0095067508810005081901290515008D
:100170002501950575019102950175039101C0094D
:10018000025B00030100A0FA090400000103010161
:100190000009211101000122440007058103080024
:1001A00001090401000203000000092111010001FE
:1001B0002222000705820320000107050303200017
:1001C00001090402000103000000092111010001DE
:1001D000226D0007058403200001120100020000C7
:1001E00000081100264D0100010203011C037600E6
:1001F000690061006C003A0066003600340063005C
:10020000320062003300630000000C0372006500DE
:100210006C0069006300000014036D00650063005A
:1002200068007600610075006C0074000000040333
:10023000090414001A000800150017001C0018001B
:100240000C00120013002A00040016000700090029
:100250000A000B000D000E000F00340000001D000E
:100260001B000600190005001100100036003700C1
:10027000380000000000E000E3002152E5002C00FF
:100280002252E200E4000000000001000100010031
:100290000100010001000100010001000100010056
:1002A0000100010001000100010001000100010046
:1002B0000100010000000100010001000100010037
:1002C0000100010001000100010000000000010028
:1002D0000100010001000100010001000100000017
:1002E0000000010001000100010001000100010007
:1002F00001000100010001000100010001000100F6
:1003000001000100010001000100010000000100E6
:1003100001000100010001000100010001000100D5
:1003200001000000000001000100010001000100C7
:1003300001000100010000000000010001000100B7
:1003400001000100010001000100010001000100A5
:100350000100010001000100010001000100010095
:100360000100010000000100010001000100010086
:100370000100010001000100010000000000010077
:100380000100010001000100010001000100000066
:1003900000005100520001000100010001000100B5
:1003A000010000000000000000000000000000004C
:1003B000000000000000000000000000000000003D
:1003C0000000000000007E0F00D4FFFFFFC7000008
:1003D000007800000000000000002A2B2800000028
:1003E00000000000000000000000000000290000E4
:1003F00000002C1E3420212224342627252E362DC1
:100400003738271E1F202122232425263333362E5A
:1004100037381F0405060708090A0B0C0D0E0F10CC
:100420001112131415161718191A1B1C1D2F313011
:10043000232D350405060708090A0B0C0D0E0F10B5
:100440001112131415161718191A1B1C1D2F3130F1
:10045000354C010001007904D225E8250000020096
:1004600002007504D225E8250000030001007A048B
:10047000D225E8250000040002005F04D225E8250B
:100480007707050001007B04D225E825000006005F
:1004900002006104D225E82500000700020077046D
:1004A000D225E8250000080001007C04D225E825BB
:1004B0000000120002007D04D225E8250000130090
:1004C00002007F04D225E825000014000100810409
:1004D000D225E82500001500000000008007171055
:1004E0000000FD377A585A000004E6D6B4460200F0
:1004F000210116000000742FE5A3E0031301475DFE
:10050000003D8889C65436C3174FE4E59260CD514B
:100510003001899B6393EDB7DC781AAC4371C387D4
:1005200011EADDEB51A33E1FE85F99371C693EFFDE
:100530009497C7E817AE6C513CCC2211ED8EA260A7
:10054000CB83197B0A6646DE13EF46D9B2E3867089
:100550002C1C895C8F7862C7BFFA7D1E133C8B1AF6
:10056000836017E0AA943E87F75C66A4EE8FA2AF83
:100570008A20945B0D4D71BA7D9489B095904B5D46
:1005800027D35CDDB3FB611C583E99ED9CCCF34B4B
:10059000D6F044A9B77C22B825444208F2B6D080F0
:1005A000EE2046A54AE9B0F759E6FBE74A9BBD9E17
:1005B00078DFF39A68AA8016404248AD5847E7F8BA
:1005C000D3F582F33CFB308DC149D5512191394C93
:1005D0006CA6B892F8698A6AAFFE16BB7F9409CE02
:1005E000F4C586CC455887633E8BF0C20F27B554BF
:1005F000D4786AF80B4286B6BAF0C6CEB7BF737924
:1006000028D1EC1EF817CF2D78E344E3BE8D13F00C
:10061000D4B1A22E8BFBB359A50C7B8C2BE9F533FF
:1006200094BF82044ED32A9AF5FAE520DC321EA24A
:100630005945083CCE78A53B5D8EAE1A0454E7E5DB
:100640008C307FC50ADE189500006F7C6EC13BF4CC
:100650001B4D0001E30294060000D0E4EA1FB1C480
:1006600067FB020000000004595A11241FBECFEF9F
:10067000DAE0DEBFCDBF04B603FE18C08091870468
:1006800090918804A0918904B0918A048730904B9E
:10069000A740B04B59F4109287041092880410922E
:1006A000890410928A04E0E0F8E3099511E0A0E0E3
:1006B000B1E0E0E6F0E602C005900D92A038B10787
:1006C000D9F724E0A0E8B1E001C01D92A738B20735
:1006D000E1F70E94B2260C94DA2F0C9400009C01E2
:1006E000FB019A9581159F4120F5D901AA27B27087
:1006F000832F8170B90166277470A901442758704F
:1007000034FF0DC08295807FAB2B09F08062672B90
:1007100009F08064452B09F0806809950895AB2B9A
:1007200009F08260672B09F08460452BB1F3886083
:10073000F4CF80E0F2CF282F92959F70963091F001
:1007400060F4925F9F70923030F481E0203F79F046
:1007500030F4283E30F080E008959A5FF3CF243FD4
:10076000D1F7089581E0283EE0F3213FF9CF0895C5
:100770008093AA03089580935E04089521E030E0F9
:1007800001C0220F8A95EAF780915E04822B0E94B5
:10079000BB03089521E030E0A90102C0440F551FBA
:1007A0008A95E2F7CA01809590915E0489230E94A0
:1007B000BB0308959B01677091E001C0990F6A9592
:1007C000EAF763E0369527956A95E1F7B901660F78
:1007D000771F260F371FFA01E20FF31F40E050E0AA
:1007E000682F70E08191DF0111979B01042E02C0F8
:1007F000369527950A94E2F7217021952827292319
:1008000028272C934F5F5F4F4330510559F70895C8
:100810009C01A82FA77083E0369527958A95E1F76C
:10082000C901880F991F820F931FFB01E80FF91F61
:1008300040E050E080E0219130E00A2E02C0369581
:1008400027950A94E2F721703327042E01C0220F66
:100850000A94EAF7822B4F5F5F4F4330510559F7F7
:100860000895282F862F903F79F0943070F42B3024
:1008700058F4622F70E02BE0929F600D711D1124DF
:1008800046EF52E00E94DA0308959C5F9230E0F751
:10089000622F70E043EF52E0F5CF903FC9F0943003
:1008A00080F48B30A8F4282F30E066EF72E0A901C5
:1008B000EBE09E9F400D511D1124CA010E940804C7
:1008C00008959C5F923020F463EF72E090E0F6CFE1
:1008D00080E0089590915E0421E030E0F90101C0CC
:1008E000EE0F8A95EAF7D90102C0AA0FBB1F6A95DD
:1008F000E2F7EA2B01C0220F4A95EAF7892F8E23EF
:10090000E81305C0892F822B0E94BB030895209510
:10091000822F8923F9CF8091A1029091A002981390
:1009200001C008958F5F8770FACF90910C019923D1
:10093000C1F09091830497FF14C0E82FE695E695E7
:10094000E695803FF8F4F0E0EE57FE4F877021E027
:1009500030E001C0220F8A95EAF78281822B8283E0
:100960000895A4E8B1E0EFEF90E02D91821751F0E7
:10097000EF3F19F4211101C0E92F9F5F9630A9F7CD
:10098000EF3F09F408950E2E000CFF0BEE57FE4FBB
:10099000E6CF90910C019923E1F09091830497FFA9
:1009A00018C0E82FE695E695E695803FF0F4F0E074
:1009B000EE57FE4F877021E030E0A90102C0440FDE
:1009C000551F8A95E2F7CA01809592818923828317
:1009D0000895E4E8F1E09191891303C0DF011197D4
:1009E0001C9251E0EA38F507B1F708959091AC03F5
:1009F000809589238093AC03282F2770211111C083
:100A0000891779F09091840492FF0BC086958695A2
:100A100086950E94CA031092AC031092AE03109206
:100A2000AD0308959091A803982B9093A80308957F
:100A3000982F90958091A80389238093A803089507
:100A40008091A703882331F01092A7031092A60388
:100A50001092A5030895803E9105D1F1C8F4813329
:100A6000910509F47FC048F48932910509F46FC0FB
:100A70008A32910509F47DC0089589339105E1F02A
:100A800082389105C9F08533910509F45BC008955A
:100A9000843E9105D1F148F4823E910531F1833EC7
:100AA000910541F181EE90E00895863E9105C1F1F6
:100AB000873E9105E1F1089520918304237021116F
:100AC00065C02091840423FF14C089E290E008955A
:100AD0002091830420FD43C03091840430FF09C07D
:100AE00024FF4EC080E090E008952091830422FD11
:100AF000F7CF08952091830422FD45C030918404EE
:100B000030FD44C024FFF5CFEDCF2091840421FFB8
:100B1000F0CF8091830484FDE5CF87EE90E00895C7
:100B20002091830423FFE5CF24FDDCCFF6CF209175
:100B3000830423FD2EC03091840431FFE3CF84EE83
:100B400090E008952091830425FFD3CFBECF20915C
:100B5000830425FD21C02091840423FFCACF89E3AB
:100B600090E008952091830426FFC3CF8AE290E0AD
:100B700008952091830426FFBCCF81E390E008957F
:100B800083EE90E0089582EE90E0089580EE90E08C
:100B9000089586EE90E0089585E390E0AACF9091C5
:100BA000830492FF10C041E0282F2471243009F003
:100BB00040E031E0282F2871283009F030E0431759
:100BC00011F02CE0822793FF10C041E0282F247100
:100BD000243109F040E031E0282F2871283109F054
:100BE00030E0431711F02CE082273091840430FF6D
:100BF00010C051E0282F2171213009F050E041E070
:100C0000282F2871283009F040E0541711F029E00E
:100C1000822731FF10C041E0282F2171213109F0D6
:100C200040E031E0282F2871283109F030E04317E7
:100C300011F029E0822794FD877E08951F93CF93BA
:100C4000DF930E942B05EC01811522E5920708F045
:100C500053C0811540E5940708F0DDC0803E910542
:100C6000F8F48D3C910508F0AEC0883A910580F407
:100C7000853A910508F099C08130910521F00497DB
:100C8000813A910550F4CE01DF91CF911F910895E3
:100C9000885A91094B9708F48BC0C0E0D0E0F3CF9D
:100CA000811550E49507F8F4C11580E2D80708F0E3
:100CB000CBC0C83ED10538F3CE019A9581159F412E
:100CC00060F78D2F0E94CF05182FCE0199270E9423
:100CD0002B05212F30E0322F2227E901CC27DF71AD
:100CE000C82BD92BD0CF99270E942B05CC27DF709A
:100CF000C82BD92BD06AC7CF803842E59407C8F5F6
:100D0000803652E5950708F067C0C03482E5D80701
:100D1000B0F08C2F86958695877020E2829FC00167
:100D20001124C37021E030E0A90102C0440F551F17
:100D3000CA95E2F7EA01C82BD92BDC68A4CFC032F0
:100D400052E5D50708F041C08C2F8695869520E2A4
:100D5000829FC0011124C37021E030E0A90102C0CC
:100D6000440F551FCA95E2F7EA01C82BD92BDD685D
:100D70008ACF803C52E5950760F48F71C03AD24526
:100D800008F03FC090E0982F8827EC01C46FD06A2C
:100D90007ACF805C9245809708F07FCFDC2FCC27FC
:100DA000CC27DF71C06FD06A6ECFA497D0646BCFB1
:100DB000C85AD0E0CC0FDD1FC65BDE4F0990D8814A
:100DC000C02DD46460CFD0655ECFCF71D0E0DC2F72
:100DD000CC27C16FD06A57CF86958695877020E261
:100DE000829FC0011124C37021E030E0A90102C03C
:100DF000440F551FCA95E2F7EA01C82BD92BDA68D0
:100E000042CF0E94CF05C82FD0E0DC2FCC27CC27C3
:100E1000DF71D06238CF8F710E94CF0565E0D69523
:100E2000C7956A95E1F7CF70D0E0DC2FCC27282F4B
:100E300030E084FF05C054E0220F331F5A95E1F7DC
:100E4000C22BD32BD0691FCF8D2F8F710E94CF055E
:100E5000182FCE0199270E942B05212F30E0322F29
:100E6000222722273F71282B392BE901D2CF80E09E
:100E70000895F894E82FE295EF70F0E041A18F70AB
:100E800021E030E0B90102C0660F771F8A95E2F7D2
:100E9000CB01962F9095942391A392A1892B82A3A5
:100EA0007894089581152CE7920741F420910A0166
:100EB00030910B01232B11F480E090E00895E6E1DE
:100EC000F3E080E090E062EE74E249E055E22EE764
:100ED00035E27783668351874087338722879787F8
:100EE0008687019670968830910599F708958091CC
:100EF0005F04909160049093090180930801089524
:100F0000A0E0B0E0E6E8F7E00C94052FFB018FEFDE
:100F10009FEF4430510508F465C04091830441FBC4
:100F2000882780F990E0880F991F42FBAA24A0F837
:100F3000B12CAA0CBB1CAA0CBB1C8A299B2940FB08
:100F4000882480F8912C8829992943FBCC24C0F867
:100F5000D12C53E0CC0CDD1C5A95E1F78C299D294E
:100F600044FBEE24E0F8F12C64E0EE0CFF1C6A95E3
:100F7000E1F78E299F2945FB002700F910E075E075
:100F8000000F111F7A95E1F7802B912B46FB22274A
:100F900020F9C22F20E0D22FA6E0CC0FDD1FAA95AA
:100FA000E1F78C2B9D2B47FB442740F920E8429F1B
:100FB000A0011124842B952B20918404322F3170B1
:100FC000932B26952170B22FBB0FA0E08A2B9B2B71
:100FD000092E000CAA0BBB0B80839183A283B383E1
:100FE00080E090E0CDB7DEB7ECE00C94212FAC01AF
:100FF00023E0969587952A95E1F78E719927FC0154
:10100000E352FE4F0190F081E02D4F70552721E013
:1010100030E002C0220F331F4A95E2F7662341F009
:10102000E22BF32B83529E4FDC01ED93FC9308954A
:1010300020953095E223F323F5CF1092F003109220
:10104000EF03EFEAF3E08581811102C0148216827A
:10105000379683E0E73EF807B1F70895AC01309189
:10106000F2036091F103232F621301C00895822FD0
:1010700090E0FC01EE0FFF1FE951FC4F0190F08161
:10108000E02DE417F50791F467E0649FF001659F98
:10109000F00D1124E155FC4F41E044832313E6CFCA
:1010A0000196837099278093F20308950196282F63
:1010B0002370DACFFA01309709F009950895E0918D
:1010C0007E02F0917F02309729F00190F081E02DAF
:1010D0000995089580E00895A3E0B0E0E2E7F8E024
:1010E0000C940F2F9C018091DA019091DB01821703
:1010F0009307A1F03093DB012093DA01E0917E02A7
:10110000F0917F02309751F083E089833B832A83FB
:101110000680F781E02DCE01019609952396E2E045
:101120000C942B2FA3E0B0E0E8E9F8E00C940F2F2B
:101130009C018091D8019091D90182179307A1F069
:101140003093D9012093D801E0917E02F0917F0283
:10115000309751F084E089833B832A830680F781AE
:10116000E02DCE01019609952396E2E00C942B2FF9
:101170002FB7F8948091D4019091D501A091D60118
:10118000B091D7012FBF08958091610490916204BE
:10119000892B91F00E94B8082091A5033091A603F5
:1011A000AC01421B530B9A0181E0409161045091C4
:1011B00062042417350708F480E081700895909147
:1011C000840492FF10C098E0899F90011124622B43
:1011D0006093AC030E94BE030E94B8089093AE03D4
:1011E0008093AD0308950E94BE0308959091A703D4
:1011F000292F2823222361F0809589238093A70338
:10120000882339F00E94B8088093A5039093A60321
:10121000089580E090E0F8CFCF93C82F80918404A8
:1012200082FF0CC08091A7038C1741F00E94B80880
:101230009093A6038093A503C093A703CF9108952D
:10124000A4E0B0E0E6E2F9E00C940F2F8FB7F89439
:101250002091D4013091D5014091D6015091D70110
:1012600029833A834B835C838FBF69817A818B8129
:101270009C812496E2E00C942B2F9C014FB7F894AC
:101280008091D4019091D501A091D601B091D70160
:101290004FBF821B930B08958091D3010895089549
:1012A000FC019B018091B1019091B20186179707D3
:1012B00040F0672B29F48091E8008E778093E80056
:1012C000C90140E0009741F4411106C08091E80057
:1012D00082FF2FC080E00895209177022223A9F198
:1012E0002530A9F12091E80023FD2DC02091E800D0
:1012F00022FDECCF2091E80020FFE4CF3091F300F5
:101300002091F200009719F02830310558F041E0A3
:101310002830310509F040E02091E8002E77209335
:10132000E800D0CF41914093F10001972F5F3F4FEC
:10133000E9CF80917702882341F0853041F0809198
:10134000E80083FFC3CF81E0089582E0089583E041
:1013500008958091AB0187FF13C08091E80082FF60
:1013600006C08091E8008B778093E80004C08091EC
:1013700077028111F2CF0895809177028823D9F303
:101380008091E80080FFF8CF8091E8008E77ECCF65
:101390002091E4003091E50095E6A9018091EC00F0
:1013A0008170882331F08091E80080FF06C080E0E2
:1013B00008952091E80022FD1BC0809177028823C8
:1013C00091F0853091F08091EB0085FD10C0209167
:1013D000E4003091E5004217530701F39150911159
:1013E000DCCF84E0089582E0089583E0089581E0F1
:1013F0000895E8EDF0E080818E7F80831092E20016
:101400001092DA001092E100A0EEB0E08C918160C1
:101410008C9380818F77808319BCA7EDB0E08C918D
:101420008E7F8C9380818F7E80831092AA01089595
:10143000982FE42FE2709093E900891308C0762F6B
:10144000242F50E0E11111C091E0980FF4CF70917A
:10145000EC002091ED005091F00021FD06C09F5F4F
:10146000973049F78093E90008953091EB003E7F73
:101470003093EB003091ED003D7F3093ED003091E3
:10148000EB0031603093EB007093EC002093ED00A3
:101490005093F0002091EE0027FDE1CF0895A0E0E9
:1014A000B0E0E5E5FAE00C94092FC8EDD0E08881C2
:1014B0008F7E8883E7EDF0E080818160808384E027
:1014C00082BF81E08093AA0188818E7F888302EEAB
:1014D00010E0F80110821092DA0081EEC82ED12CB3
:1014E000F601108288818F7788838881806888835D
:1014F00088818F7D888319BC109277021092A90190
:1015000010925E021092A80190EEE92EF12CF701E4
:1015100080818B7F808388818160888342E060E066
:1015200080E00E94180AF60180818E7F8083F80196
:10153000808181608083808188608083F7018081E1
:101540008E7F8083888180618883CDB7DEB7E8E0B5
:101550000C94252F9C012115310509F408958FE97C
:101560009FE00197F1F700C0000021503109F3CF4F
:1015700081E08093E00080E28093D8001092C9005F
:101580008FE19EE40197F1F700C0000087E090EB47
:10159000DC018093870490938804A0938904B0931E
:1015A0008A0488E19CE00FB6F894A89580936000C7
:1015B0000FBE90936000FFCF0F931F93CF93DF93E5
:1015C000EB018A0190917702943079F58093E900DC
:1015D0008FEF9091E80095FD07C095ED9A95F1F792
:1015E000000081508111F5CF8091E80085FF1DC07A
:1015F0000E94C809811114C08091E80085FD06C0D1
:101600008091E8008E778093E800F2CF8881809304
:10161000F100015011090115110511F02196ECCFCF
:101620008091E8008E778093E800DF91CF911F9141
:101630000F910895CF93DF93D82FC92F80910C017C
:10164000811113C048E050E06D2F792F81E00E9496
:10165000DC0A80E2ED2FFC2FA3EBB1E001900D92AC
:101660008A95E1F7DF91CF9108958091830487FDFA
:1016700006C048E081E050E06D2F7C2FE8CF40E2CB
:1016800084E0F9CFBC0143E050E084E00E94DC0A32
:1016900008959091840492FB222720F9281779F06D
:1016A00080FB92F990938404609183047091840488
:1016B00084E090E00E94BC2F82E00E94F60408952E
:1016C000882381F06DE485E290E00E949E2F6FEF09
:1016D00086E290E00E949E2F6DE187E290E00E94FA
:1016E0009E2F08956FEF85E290E00E949E2F6FEF8E
:1016F00086E290E00E949E2F6FEFEFCF1F93CF9373
:10170000DF93962F122F632F282F292B2430C8F414
:101710004B30B8F4C42FD0E0CC0FDD1F26E1929FF0
:10172000C00DD11D112498E5899FC00DD11D112434
:10173000CE0189960E949E2F612FCE018A960E942B
:101740009E2FDF91CF911F9108951F93CF93DF9329
:10175000962F122F632F8430A0F4911112C094E0C1
:10176000899FE0011124C757DE4FCE01442369F061
:101770000E949E2F81E090E0612F8C0F9D1F0E94A0
:101780009E2FDF91CF911F91089502960E949E2F68
:1017900083E090E0F1CFCF93DF93CDE5D2E060E03E
:1017A000CE010E949E2F2196C11584E0D807B9F77B
:1017B000DF91CF91089585E290E00E94802F8D34D3
:1017C00089F486E290E00E94802F8F3F59F487E2EF
:1017D00090E00E94802F91E08D3109F090E0892FF8
:1017E0008170089580E0FCCF0F931F93CF93DF9318
:1017F0000FE514E0C9E9D1E0CE010E94802FF80185
:1018000061918F01861719F0CE010E949E2F2196BB
:10181000CD3BF1E0DF0781F7DF91CF911F910F9171
:1018200008950F931F93CF93DF930FE514E0C9E959
:10183000D1E0CE010E94802FF80181938F01219683
:10184000CD3BF1E0DF07A9F7CCE5D4E0FE018591BF
:101850009491009711F0FC0109952C96F4E0CC3E90
:10186000DF07A1F7DF91CF911F910F9108950F939B
:101870001F93CF93DF93982F962B943020F54B3006
:1018800010F5C42FD0E0CC0FDD1F26E1629FC00D04
:10189000D11D112438E5839FC00DD11D1124CE0127
:1018A00089960E94802F082F10E0102F0027CE016C
:1018B0008A960E94802F9801282BC901DF91CF9131
:1018C0001F910F91089580E090E0F8CF0F931F9340
:1018D000CF93DF93843048F5611127C024E0829FC5
:1018E0008001112407571E4FC8014423A1F00E9414
:1018F000802FC82FD0E0DC2FCC2781E090E0800F34
:10190000911F0E94802F9E01282BC901DF91CF914A
:101910001F910F91089502960E94802FC82FD0E04A
:10192000DC2FCC2783E090E0EACF80E090E0EECFA0
:10193000462F672F20917A0230917B02232BC9F426
:10194000703F39F4403FA9F4809178029091790278
:101950000895743038F44B3060F4843050F40E94B1
:10196000370C08957D3F41F4411103C041E08430BC
:1019700048F080E090E008957C3FD9F74111F9CF1D
:101980008430B8F760E00E94660C0895A0E0B0E0F3
:10199000ECECFCE00C940A2F7C0100915E04809139
:1019A000AA03082BC3E0D0E010E0C8010C2E02C04F
:1019B000959587950A94E2F780FD09C02197A8F7CD
:1019C000D12C8D2DCDB7DEB7E7E00C94262FDC2E81
:1019D000B7018C2F0E94980C0E941E06019771F38C
:1019E000F0CFCF93DF93D82FC92F0E94C60C6D2F55
:1019F0007C2F0E94980C0E941E06DF91CF910895C3
:101A0000FC018481882371F087819085009729F0FB
:101A10000E941E060E949B030895808191810E946E
:101A2000F10CF8CF80E008951F93CF93DF93182F28
:101A3000D92F662399F0442389F00E94C60CC82F41
:101A4000682F812F9D2F0E943104612F7D2F8C2FB5
:101A50000E94980CDF91CF911F9108950E944D0430
:101A6000C82FF3CFFC01462F87819085009729F47A
:101A70006581808191810E94140D08958091A80351
:101A80009091AB03892B809382018091A7038823D7
:101A900051F18091610490916204892B29F00E9498
:101AA000C40881110E942005809182019091A703B2
:101AB000892B8093820180910C01882309F442C014
:101AC0008091830487FF3EC08DE190E024E831E0FF
:101AD000F90140812F5F3F4F41119F5F8150C0F757
:101AE00091110E94200540E250E060E872E082E837
:101AF00091E00E94532F892B21F180E2E2E8F1E08E
:101B0000A0E8B2E001900D928A95E1F7E0917E02A3
:101B1000F0917F023097A9F080910C01882359F051
:101B20008091830487FF07C08091820180938301A5
:101B300086E0809382010280F381E02D82E891E0CB
:101B40000995089585E0C1CF882321F00E941205F0
:101B50000E943E0D0895882339F09091AB03892BA4
:101B60008093AB030E943E0D0895882321F00E94CC
:101B700018050E943E0D0895882341F080959091AC
:101B8000AB0389238093AB030E943E0D0895CF934E
:101B9000C82F8823C9F08238C9F40E945F0881FDEC
:101BA00013C089E30E9495040E943E0D2FEF37EE8B
:101BB00083E0215030408040E1F700C0000089E31D
:101BC0000E94C9040E943E0DCF9108958338A1F46C
:101BD0000E945F0880FDF8CF83E50E9495040E9473
:101BE0003E0D9FEF21EE34E0915020403040E1F770
:101BF00000C0000083E5E4CF8438A1F40E945F08B0
:101C000082FDE2CF87E40E9495040E943E0D8FEF93
:101C100091EE24E0815090402040E1F700C00000A8
:101C200087E4CECF8CEF8C0F813A90F580910C0138
:101C3000882301F18091830487FF1CC0EC2FE69577
:101C4000E695E695F0E0EE57FE4F828190E04C2F4E
:101C5000477021E030E002C0220F331F4A95E2F7BF
:101C600082239323892B81F08C2F0E94C9040E9428
:101C70003E0D0AC0E4E8F1E08AE891E02191C21744
:101C800099F38E179F07D1F78C2F0E9495049ACF56
:101C900080E28C0F883048F4C77081E001C0880F63
:101CA000CA95EAF70E9412058DCF8BE58C0F833021
:101CB00038F42C2F2452330BC9010E946C0884CFB6
:101CC000C85ACB3108F080CFEC2FF0E0EE0FFF1FA9
:101CD000E65BFE4F808191810E94920875CFCF9381
:101CE000DF93EC01805E9109089720F06BEA7DE0BC
:101CF000209711F464EA7DE0CE010E946F038C2FDF
:101D00000E94C70DDF91CF910895662329F020919D
:101D1000AB0322602093AB039C013052211530436A
:101D200008F499270E946F0E0895882309F44DC086
:101D3000823879F40E945F0881FF47C089E30E94DE
:101D400095040E943E0D89E30E94C9040E943E0D45
:101D50000895833859F40E945F0880FF36C083E5F8
:101D60000E9495040E943E0D83E5EECF843859F41D
:101D70000E945F0882FF29C087E40E9495040E94A8
:101D80003E0D87E4E1CF9CEF980F913AE8F290E2A4
:101D9000980F983050F4877091E001C0990F8A95A0
:101DA000EAF7892F0E941805D1CF9BE5980F933051
:101DB00028F480E090E00E946C080895885A8B31E6
:101DC00020F480E090E00E9492080895CF93DF9382
:101DD000EC010E94950ECE01805E9109089720F0DB
:101DE0006CEB7DE0209711F465EB7DE0CE010E9465
:101DF0006F03DF91CF9108950F931F93CF93C82F57
:101E000000917F0410918004893321F000917D04BA
:101E100010917E048C2F0E94C70D0115110539F415
:101E20008C2F0E94950ECF911F910F9108958FE9ED
:101E30009FE00197F1F700C0000001501109EDCFBC
:101E4000A0E0B0E0E6E2FFE00C94092FEC01C62E22
:101E50009881992309F4B0C0913009F04DC089816F
:101E6000813091F48E010E5F1F4F8A810E94FC0E1B
:101E7000E80121968C2D815058F3EFE9FFE031976E
:101E8000F1F700C00000F7CF823039F48E010E5F09
:101E90001F4F8A810E94C70DEBCF833039F48E012A
:101EA0000E5F1F4F8A810E94950EE2CF843011F0A1
:101EB0002196DFCF2A81229680E090E06AE0AE0191
:101EC0004F5F5F4F2053330B2A30310550F000979E
:101ED00081F2EFE9FFE03197F1F700C000000197D0
:101EE000F6CF689FF001699FF00D1124C9018E0F94
:101EF0009F1F2981EA01E3CFE92FF0E0EE52FC4F6A
:101F0000D490292F26952695269530E0F901EE5399
:101F1000FC4F84919770F901EE54FC4FE490F12C42
:101F2000092E02C0F594E7940A94E2F7F1E0EF225B
:101F3000FF24F901EE55FC4F049110E0092E02C078
:101F4000159507950A94E2F701701127E82FF0E044
:101F500002C0F595E7959A95E2F7E0FD0EC0E11411
:101F6000F104B1F48D2D0E94FC0E0115110509F448
:101F700080CF8CE20E94FC0E7CCF81EE0E94C70DC8
:101F8000E114F10479F48D2D0E94FC0E81EE07C05E
:101F900086EE0E94C70D8D2D0E94FC0E86EE0E94DB
:101FA000950EE3CF86EE0E94C70D8D2D0E94FC0E8C
:101FB00086EE0E94950EEACFCDB7DEB7E8E00C942E
:101FC000252F1092A80380910C01E4E8F1E088230A
:101FD000B1F08091830487FF12C08EE1DF011D9272
:101FE0008A95E9F780E090E00E946C0880E090E03C
:101FF0000E9492081092AB030E943E0D089586E065
:10200000EDCF0E94E10F2FEF84E39CE02150804050
:102010009040E1F700C0000088E19CE00FB6F89422
:10202000A895809360000FBE90936000FFCFCF9281
:10203000DF92EF92FF92FB018FEF9FEF443051054B
:1020400008F481C0C080D180E280F3800E94E10F5B
:10205000D701C601B695A795979587958170282FCA
:10206000220FD701C60181709927AA27BB27822B8F
:10207000B701A60132E076956795579547953A9551
:10208000D1F74170440F440F842BB701A601E3E060
:102090007695679557954795EA95D1F74170440F26
:1020A000440F440F842BB701A601F4E076956795A1
:1020B00057954795FA95D1F741704295407F842B0B
:1020C000B701A601A5E07695679557954795AA951E
:1020D000D1F741704295440F407E842BB701A60191
:1020E000B6E07695679557954795BA95D1F74170C3
:1020F0004295440F440F407C842BB701A60197E022
:1021000076956795579547959A95D1F747954427C2
:102110004795842B80938304D1FA882780F9880F10
:102120009D2D9170892B909184049C7F892B8093A5
:102130008404609183047091840484E090E00E94A0
:10214000BC2F80E090E0FF90EF90DF90CF9008955B
:10215000EFE5F4E0128E138E8FEA90E09183808396
:1021600085E0848F28E833E13383228322E330E063
:10217000378B268B28EC30E0318F208F158E2AE0AC
:1021800030E0378F268F20E530E031A320A382A3F3
:102190000E94F40B0E94E10F1092840410928304B9
:1021A00080E084608093840460E074E084E090E0E8
:1021B0000E94BC2F0E94110C0895AAE2B0E0E3EE49
:1021C000F0E10C940E2F8BEA91E0FC010196209136
:1021D000F100208321E0833B9207B9F78091AC01A5
:1021E000893009F456C0C8F4823009F4B3C0833092
:1021F00009F482C0813071F18091E80083FFE7C06B
:102200008091AB019091AC019A3008F0E0C0E92FC9
:10221000F0E0E452F04D0C94F22E8A3009F489C0BB
:102220008B3051F78091AB01813231F78091AF0152
:102230009091B001892B01F78091E800877F80930E
:10224000E8000E94A9098091AD0180930C010E94D1
:10225000E10FD2CF8091AB01813A71F68091E80015
:10226000877F8093E8008091AF019091B001892B26
:1022700061F060E080E090E070E00E9450098091A1
:10228000E8008B778093E800B7CF60E283EB91E0C2
:10229000F3CF8091AB01813209F0AECF8091AF01D5
:1022A0009091B0018D7F892B09F0A6CF8091E80035
:1022B000877F8093E8008091E80082FF18C09091AA
:1022C000F3008091F200029731F48091F1008130A7
:1022D00011F0863021F48091F1008093D301809138
:1022E000E8008B778093E8000E94A90985CF809150
:1022F00077028111E0CF80CF8091AB01813A09F064
:102300007BCF8091AF019091B001892B09F074CF00
:102310008091E800877F8093E8008091E80080FF4B
:10232000FCCF80910C018093F1008091E8008E77C2
:10233000D9CF8091AB01813209F05ECF8091E80066
:10234000877F8093E8000E94A9098091AE01809365
:10235000A70152CF8091AB01813A09F04DCF809116
:10236000E800877F8093E8008091E80080FFFCCF41
:102370008091A701D8CF803889F0823841F58091CB
:10238000AF018F70873018F58093E9008091EB00E2
:1023900085FB882780F91092E90006C08091A8018A
:1023A00090915E02911182609091E800977F9093E6
:1023B000E8008093F1001092F1008091E8008E77A0
:1023C00023C0811116C08091AD01813011F180913F
:1023D000E80083FF0AC08091E800877F8093E800CF
:1023E0008091EB0080628093EB00AA96E3E00C946E
:1023F0002A2F823061F78091AD01882389F01092F5
:10240000E9008091E800877F8093E8000E94A90995
:10241000DECF81E0933009F080E080935E02EFCF61
:102420008091AF018F702FEF280F263080F68093B8
:10243000E9002091EB0020FFE2CF933031F480914E
:10244000EB0080628093EB00DACF9091EB0090611B
:102450009093EB0021E030E0A90102C0440F551F2A
:102460008A95E2F74093EA001092EA008091EB002F
:102470008860E8CF8111ABCF1091AD011F778091BB
:10248000E3008078812B8093E3008091E800877FD0
:102490008093E8000E94A9098091E80080FFFCCFAA
:1024A0008091E30080688093E30083E0111101C014
:1024B00082E0809377028BCF8058823008F087CFFC
:1024C0004091AD015091AE014C3D83E0580799F524
:1024D00083E08A838AE289834FB7F894DE011396FA
:1024E00020E03EE051E2E32FF0E05093570084916A
:1024F00020FF03C082958F703F5F8F708A30C8F0D5
:10250000895C90E08D939D932F5F243161F74FBFDD
:102510008091E800877F8093E8006AE270E0CE0156
:1025200001960E9450098091E8008B778093E80023
:102530004ECF805DE6CF8091AF019091B001252F05
:1025400033272330310509F44AC078F521303105AD
:1025500009F483C08BE590E0EFE7F1E0223031052C
:1025600009F035CF2091E800277F2093E8002091E3
:10257000B1013091B2018217930708F49C0140E049
:102580002115310509F06EC041116CC08091E80041
:1025900082FDC9CF80917702882329F2853019F214
:1025A0008091E80083FFF2CFBECF2132310509F4DC
:1025B00045C02232310509F00ACF8330910508F079
:1025C00006CFFC01EE0FFF1FE15EFE4F0190F08190
:1025D000E02D845E9E4FDC018C9190E010C0CA011A
:1025E0009927423019F18330910568F4892BB1F4B1
:1025F000EEE2F2E0E4918E2F90E0EEE2F2E000975E
:1026000009F4E5CEAFCF039709F0E1CEECEEF1E0AF
:10261000E4918E2F90E0ECEEF1E0F1CFE8E1F2E012
:10262000E4918E2F90E0E8E1F2E0E9CFEAE0F2E019
:10263000E4918E2F90E0EAE0F2E0E1CF8330910563
:1026400008F0C5CEFC01EE0FFF1FEB5DFE4F0190C1
:10265000F081E02D89E090E085CF82E190E0EAED25
:10266000F1E080CF80917702882309F45CCF853038
:1026700009F459CF8091E80083FD55CF8091E8009F
:1026800082FD84CF8091E80080FF7ACF9091F300A3
:102690008091F2002115310519F08830910550F034
:1026A00041E0089709F040E08091E8008E77809340
:1026B000E80066CF44914093F100319621503109F2
:1026C0000196E8CF803809F082CE8091E800877FBC
:1026D0008093E8008091A9018093F1006ECE811172
:1026E00076CE1091AD01123008F071CE8091E800E5
:1026F000877F8093E8001093A9010E94A909112304
:10270000D1F084E08093770242E061EC81E00E94A6
:10271000180A42E261EC84E00E94180A42E261EC8D
:1027200082E00E94180A42E260EC83E00E94180AEC
:10273000809177024CCE8091E30087FDE2CF81E06B
:10274000E1CF80910D01877F80930D019091AB03C4
:102750009D7F9093AB0384FF06C08F7E80930D0115
:1027600082E00E94120580910D0185FF06C08F7DD9
:1027700080930D0180E20E9412050E943E0D089593
:10278000CF92DF92FF920F931F93CF93DF93EC01D1
:102790008B01F42E80910D0182FF66C0C0909803DA
:1027A000D0909903CC16DD0619F0209709F05CC093
:1027B00080910D018B7F80930D01C1E081FD10C0E0
:1027C00080919603909197039801281B390BC1E0E3
:1027D00080910801909109012817390708F4C0E099
:1027E000C17080910D01C0FB81F980930D016C2FA8
:1027F000C6010E94F7078091A80381FF08C080915D
:102800000D01806180930D0182E00E941805809186
:10281000A80385FF08C080910D01806280930D019F
:1028200080E20E9418056C2FC6010E94850EFF20D1
:1028300031F080917A0485FF02C086FF29C0809123
:102840007D0490917E040E94AA0A80919803909141
:1028500099039C0130522115304308F499270E94B6
:10286000E60E0E94A11310C0CE0190528115904334
:10287000B8F4CE0199270E94E60E809198039091BA
:102880009903C817D90769F3109397030093960328
:10289000DF91CF911F910F91FF90DF90CF9008951E
:1028A000CE01E9CFCF93DF93EC014A855B856E853E
:1028B0007F850E945A089B8190958091AB03892364
:1028C0008093AB038C810E9418050E943E0D86E028
:1028D000FE0111928A95E9F7DF91CF910895CF9388
:1028E000DF93EC018D8181FD14C082608D83809126
:1028F000AB039B81892B8093AB038C810E941205D3
:102900000E943E0D488559856E857F85CE010E94C7
:102910005A0810921303109212038D8180FD03C098
:10292000CE010E945214DF91CF910895A4E1B0E04E
:10293000ECE9F4E10C94022FC0900A01D0900B0155
:1029400081E090E090930B0180930A0132E9E32E3D
:1029500033E0F32EA12CB12C10E0350100E015C0BE
:10296000F40125913491452D602F812F0E947E0B1B
:1029700022E0820E911C53943BE05312F1CF8BE086
:10298000680E711C0F5F043049F0C301880F991F56
:10299000DC01AE5CBD4F4D01512CE2CFF70125911A
:1029A000349141E060E0812F0E94A50BF70132963F
:1029B0002591349140E060E0812F0E94A50BB4E0A6
:1029C000EB0EF11C1F5F2CE2A20EB11C143009F0BB
:1029D000C4CF0E94A8101A8219821C821B821E82F8
:1029E0001D8218861F8288EC90E09A8789870DEBFC
:1029F00011E04AE050E0B801CE0101960E94C22FDA
:102A0000065F1F4F0D3032E0130799F7FE013B962A
:102A10008AE0DF011D928A95E9F77F014AE050E0E4
:102A2000B801C7010E94C22F065F1F4F0D35B2E0EB
:102A30001B07A1F7D0920B01C0920A016496EFE048
:102A40000C941E2F80E00E94600B60E088E290E012
:102A50000E949E2F0E9496140E94CB0B81E00E9440
:102A6000600B0895AAE0B0E0E8E3F5E10C94092FCB
:102A7000EDEFF1E080E5DF011D928A95E9F7EFEADD
:102A8000F3E088E3DF011D928A95E9F78DEFC82E08
:102A900081E0D82E7F010DE012E0F701D182C082E3
:102AA0004AE050E0B801CE0101960E94702F88E004
:102AB000FE013196D60101900D928A95E1F7898544
:102AC0009A85D70113969C938E931297BAE0CB0EFA
:102AD000D11CE7E0EE0EF11C065F1F4F0D35F2E052
:102AE0001F07D9F62A96E8E00C94252F282FCB0152
:102AF000283070F44AE0249F90011124B9016354F6
:102B00007E4F4AE050E00E94702F80E090E00895F0
:102B10008FEF9FEF0895AAE0B0E0E1E9F5E10C94B2
:102B20000F2F9C0197558F3F910509F070F4BE015E
:102B30006F5F7F4F822F0E947615892B31F4898534
:102B40009A852A96E2E00C942B2F8091770490913D
:102B50007804F7CFA0E0B0E0E0EBF5E10C940A2FA9
:102B6000D62E172FC42FD22F8823A9F04093A3036A
:102B70000E94B8089093A6018093A501C77081E0D8
:102B800001C0880FCA95EAF70E94A40DCDB7DEB741
:102B9000E7E00C94262F8091A303481337C080915F
:102BA000A5019091A6010E943D097C018D2D912FD8
:102BB0000E948B15E816F90648F5CD130CC0802F3E
:102BC0000E94FC0ED77081E001C0880FDA95EAF709
:102BD0000E94B50DDBCFC77011E0812F01C0880FB7
:102BE000CA95EAF70E94B50D80E28D0F883050F447
:102BF0008D2F877001C0110F8A95EAF7812F0E94EF
:102C0000A40DDDCF802F0E94FC0EC0CFC77081E0E5
:102C100001C0880FCA95EAF7DBCFA4E0B0E0E3E19A
:102C2000F6E10C94072F7C01DC0114968C9188232B
:102C300009F4F6C361E0C7010E94320D8C01F7016F
:102C40008581882319F180911203909113030097D5
:102C5000E9F008171907D1F0992744E0880F991F68
:102C60004A95E1F7FC01E55EFC4F2081246020835A
:102C70008A5E9C4FDC010D931C930E946F1410928E
:102C8000AB0361E0C7010E94320D8C01F701858121
:102C9000882309F4BCC0C80197578038910508F013
:102CA00056C1D02EFFE0F01708F4AAC38FEF93E0CF
:102CB0000E94802F8111A4C30DE512E0D1103DC008
:102CC00080910F0190911001A0911101B09112011A
:102CD00089839A83AB83BC8368014FEFC41AD40AFB
:102CE000C8010E94802F89831A82882309F488C32F
:102CF000813009F085C0580152E0A50EB11CC60113
:102D00000E94802FD82E8A83882309F479C3C501B5
:102D10000E94802FC82E8FEF8D0D8330E0F4CB8280
:102D2000CC2029F060E0CE0101960E94200F5801CE
:102D300083E0A80EB11C8501CFCF011524E0120756
:102D400009F45EC3C8010E94802F0F5F1F4F8111DD
:102D5000F4CFDA94B3CF8BEF8D0D833040F558016B
:102D600093E0A90EB11CCB82CC2029F3C5010E94AF
:102D7000802F8C83882381F08B819C818130AFEF01
:102D80009A0710F0982F8827B6E0DB1651F0E7E09D
:102D9000DE1651F00E94CF245801F4E0AF0EB11CB2
:102DA000CACF0E948B24F8CF0E94AD24F5CF24E037
:102DB000D212C1CF580144E0A40EB11CC801039641
:102DC0000E94802FCC2009F41BC3882309F418C368
:102DD0008150990B4FEF489F9001499F300D11246E
:102DE000AC2DA150BB0B2A0F3B1F2150310908F419
:102DF000A2CFEFE9FFE03197F1F700C00000F5CF77
:102E00006AE0CE0101960E94200F560194CF011571
:102E100027E5120708F4D7C0011548E5140708F0A4
:102E20009DC0680157E5D51A68E073E08C2D0E94BB
:102E30007615892B31F5C60124E0880F991F2A9554
:102E4000E1F7FC01EA5EFC4F2281213009F06AC003
:102E50002091080330910903232B99F020910A0354
:102E600030910B03232B69F020910C0330910D035B
:102E700040910E0350910F03242B352B232B09F483
:102E80005BC0F801FF2794E0EE0FFF1F9A95E1F772
:102E9000CF018A5E9C4F6C01D70115968C91E55E3F
:102EA000FC4F908180FB90F99083882309F46AC0DD
:102EB0000E94B8089093150380931403F601828151
:102EC0008F5F82838091AB039091A803892B8383CA
:102ED0008091A70384834681578166857785C601E3
:102EE0000E945A08D60115968C9181FD48C0902FFA
:102EF000812F909312038093130380917A0480FFB3
:102F0000FAC10E94B8085C01F701858181116BC08C
:102F1000013E110509F0C6C080910D018F7E80939E
:102F20000D01A7C0223009F0ACCF20910C033091E5
:102F30000D03232B09F4A5CFFC01E55EFC4F208196
:102F40002E7F20838A5E9C4F0E946F149ACFC80107
:102F500097558F3F910509F008F493CF80917A043B
:102F600080FDCFCFF7018581F801E851FC47E730BC
:102F7000F10508F0C0C1EA51F04D0C94F22E90E03A
:102F800080E0B7CFD6011C964D915C911D971E969F
:102F90006D917C91C6010E945A08F601858181FFDE
:102FA000ACCFC6010E94521420911203309113033A
:102FB00080917A040217130709F0A1CF109213032E
:102FC000109212039CCF80917A0480FD9ACF07372C
:102FD0005CE7150709F46EC308378CE7180709F09A
:102FE0006EC082E068C380910D0182FF06C040E0A0
:102FF000B50180E090E00E94C0130431FCE71F0798
:1030000069F105312CE71207A1F0D70115968C91D3
:103010000331BCE71B0789F590910D0191609093F6
:103020000D01882309F44BC0109299031092980364
:10303000ECC090910D01892F8E7F90FF816080936D
:103040000D010E94A11380910D0180FF34C0D701B2
:1030500015968C91882309F44EC1FBC080910D0117
:103060008E7F80930D010E94A11380910D0180FD40
:10307000EECFD70115968C9120C0980130522115C2
:10308000304308F0D0C0109299031092980388231F
:1030900089F11092A30307372CE7120709F0FCC24D
:1030A00081E000C3053E110509F096C080910D0135
:1030B0008F7D80930D01F70185818111A6C0D70115
:1030C00015968C918823B1F00A35BCE71B0709F4EB
:1030D0001DC308F0F3C20130FCE71F0709F414C355
:1030E00003302CE7120709F409C301154CE7140754
:1030F00009F4F7C2D70117968D919C91009709F4B6
:1031000009C30E941E06D82E192FD7011596BC9010
:1031100015971696CC90C2948FE0C8228091AC038C
:1031200087708823F1F0AB2CBB20E1F0892F807FE2
:10313000803451F080E28D0D883098F0C11004C0C9
:10314000892F807E803269F08091840482FF09C0DB
:1031500082E00E94F6048091AC038770AA24A394B5
:103160008111A12C812F82958F70883009F43AC487
:1031700008F0F9C2843008F0E5C2012F0F708230E8
:1031800008F403C3812F807F803211F00295007F05
:10319000DD2009F430C3E1E0DE1609F4D3C3BB201F
:1031A00009F4EBC3CC2009F4E3C340E0D701159642
:1031B0006C9115978D919C910E94140D80917C04C7
:1031C00081FDD2C3F701868180FFCEC38F708683D5
:1031D000802F0E94A40D56C3C801905281159043C0
:1031E00010F580910D0182FFF2CE80917C0481FD6B
:1031F000EECE40E0B50180E090E00E94C013D70120
:1032000015968C91882309F4E2CE1092A303C8018D
:103210009057839708F457C10631FCE71F0709F060
:103220003ACF91E077C0F701858190910D0190FF31
:1032300099CE0832110590F40E31110508F050C0F6
:103240009801245031092A31310508F1882309F405
:10325000BECE10929903109298034DC00933110508
:1032600058F40D32110508F040C00B321105E9F198
:10327000882309F4ACCED8CE04361105B1F18823E9
:1032800009F470CE10929903109298036BCE90912E
:103290007A0494FDDBCF882309F4E3C08091A7036F
:1032A0009091A803892B8D7F882309F45BC010922D
:1032B00099031092980380917A0481FD53C060E0D5
:1032C000C8010E94F70760E0C8010E94850E809146
:1032D000A7038D7F0E940C0982E00E94F60490C033
:1032E00090917A0493FDB2CFD6CF90917A0492FF59
:1032F000D2CF8111C7CFD70115968C918111109231
:10330000A303F7019581911182CF06314CE7140791
:1033100009F05DCE8091A8033091790430FF04C09C
:10332000282F247421119EC1282F2A7A31FF04C02E
:10333000482F4171411120E0432F487032FF94C162
:10334000382F3878332309F48FC14111A1C191116D
:1033500096C18091A403882309F49CC185E30E944F
:10336000C90493C189E0F701AAE9B3E001900D9285
:103370008A95E1F710929F0310929D0310929C038F
:1033800080919803909199030817190709F04CC090
:1033900020917A0425FF48C030910D0131FF02C011
:1033A00026FF42C020919603309197036501C21A0F
:1033B000D30A0E948B15C816D906B0F58091A803D0
:1033C00081FF08C080910D01806180930D0182E032
:1033D0000E9418058091A80385FF08C080910D0107
:1033E000806280930D0180E20E94180560910D01BA
:1033F0006695617080919803909199030E94850E63
:103400008091AC038770882359F0F7018581882368
:1034100039F08091840482FF03C082E00E94F604A8
:103420002496EAE00C94232F8091A703D090A80360
:10343000D82AD1FADD24D0F88D7F0E940C09109390
:10344000990300939803B0929703A0929603DD0C22
:103450006894D2F890910D01997FD92AD0920D01EC
:103460003BCF40E0B501C8010E94C013C9CF06E2BE
:1034700021EE41EE6AE17CE70E94AA15C1CF07E286
:1034800025EE45EE6BE17CE7F7CF06E221EE40EE5C
:1034900068E17CE7F1CF07E225EE44EE69E17CE7E5
:1034A000EBCF06E221EE42EE6CE17CE7E5CF07E2EE
:1034B00025EE46EE6DE17CE7DFCF08E221E045EE48
:1034C0006EE17CE7D9CF84E090E00E94882F909352
:1034D000840480938304F801E150F047E232F1055F
:1034E00020F4E351F04D0C94F22E8091830481601E
:1034F00080938304609183047091840484E090E05D
:103500000E94BC2F0E94E10F7BCF809184048860D1
:1035100080938404EFCF809183048260E9CF80910F
:1035200083048460E5CF809183048860E1CF80913B
:1035300084048160EDCF809184048260E9CF809122
:1035400083048061D5CF809183048062D1CF809144
:1035500083048064CDCF0E94E10F80918304806852
:10356000C7CF809183048C60C3CF80918404836033
:10357000CFCF809183048E7FBBCF80918404877FDF
:10358000C7CF809183048D7FB3CF809183048B7FDD
:10359000AFCF80918304877FABCF809184048E7FEF
:1035A000B7CF809184048D7FB3CF809183048F7EC9
:1035B0009FCF809183048F7D9BCF809183048F7BED
:1035C00097CF0E94E10F809183048F7791CF8091F4
:1035D0008304837F8DCF809184048C7F99CF8091E9
:1035E000830482FB992790F921E0922790FB82F9CE
:1035F00090FB83F97DCF80918404982F90959170F2
:103600008E7F892B90FB81F983CF90918304892F42
:103610008F7B96FF80646CCF0E94E10F90918304B2
:10362000892F97FB87F9805863CF61E08EE090E0A7
:103630000E949E2F5FCF60E0F9CF90918304892F85
:103640008F7E94FF806154CF90918304892F8E7F69
:1036500090FF81604DCF90918404892F877F93FFE5
:10366000886056CF20E062CE442319F08272811127
:103670006ECE992309F46DCE85E3211102C090E04E
:1036800089E29093A4030E9495040E943E0DB8CE57
:1036900020E0ECCF89E263CE82E008379CE719078F
:1036A00009F00DCD0E94BE0343E062E081E00E947C
:1036B0006A04A6CE81E00E94CA03F6CF0B355CE710
:1036C000150731F10C358CE7180709F013CD8091FF
:1036D000840482FB882780F991E089270E94490BA6
:1036E00009CD0E94E10F9FEFA4E3BCE09150A04000
:1036F000B040E1F700C000000E94B80A6FEF7FEF12
:1037000080E090E00E94BC2F0E94011081E0E6CF93
:1037100080E0E4CFF7018581C080D180882369F003
:10372000C6010E94C60C182F682FC6010E943104E2
:10373000B601812F0E94980CE4CCC6010E944D0472
:10374000182FF6CF843009F430C18D2D912F0E94AF
:103750009B03882309F496C0BB2009F4A9C2CC209E
:1037600009F46DC08FC0893009F4ADC18A5F8F70D4
:10377000823058F70B2DB2EFDB12B7C1812F8F715A
:10378000B110B0C10E94BE035BC1103110F00295B0
:10379000007FBB20B9F0002359F080E28D0D883006
:1037A00010F0D11009C0802F0E9412050E943E0D1A
:1037B0008D2D0E94C70DC9CF8091AB03802B8093C4
:1037C000AB03F4CF8D2D0E94950E002309F4BDCFDD
:1037D00080E28D0D883010F0D11004C0802F0E943F
:1037E000180506C000958091AB0380238093AB033E
:1037F0000E943E0DAACF8091840482FD12C0BB209E
:1038000049F0002329F0802F0E9412050E943E0DEE
:1038100080E0CFCF80E00E94950E002309F495CF81
:10382000DDCFBB2009F453C0C11023C0802F0E94FC
:10383000A40D80E0912F0E949B03882319F1AA20F8
:1038400009F431C28091AC0380FD2DC2D7011596D9
:103850001C928695869586950E94BE03C7010E949C
:103860000D168091AC038695869586950E94CA03B5
:103870001AC2F1E0CF1215C0D090A703802F8D217E
:10388000081305C01092860410928504D8CF0E94B8
:10389000B8089093A6038093A503D02AD092A703DB
:1038A000F1CF80917B04823068F3C812EBCF802F78
:1038B0000E94A40D802F0E94F6088091A903902FEA
:1038C00098230917F9F2802B8093A903DBCFC1104D
:1038D00019C0802F0E94B50D802F0E94F60880919C
:1038E000A903902F9823911108C080E0912F0E9486
:1038F0009B03882339F20A2D88C100950823009381
:10390000A903F3CF80917B04823008F4BBCF21E080
:10391000C212B8CF8091A8038023882309F4B2CFC4
:10392000802F0E94B50D802F0E94F6088091A90378
:10393000902F9823992309F4A5CF0095082300938D
:10394000A903A0CF80918104BB2039F08C1508F425
:1039500099CF802F0E94A40DF8CEC81608F0F5CE9E
:10396000802F0E94B50DF1CE8D2D0E94C70D8ACFFC
:10397000802F0E94A40D8D2D5DCFCC2089F0F9E31E
:1039800080917F0490918004DF1621F080917D0466
:1039900090917E040E94AA0A8D2D0E94950E72CFEE
:1039A000802F0E94B50D8D2DA1CF812F86958695F4
:1039B0008370882369F0813009F0C7CE8D2D912F57
:1039C0009370B11002C080E090E00E949208BDCEDA
:1039D0008D2D912F9370B11002C080E090E00E9475
:1039E0006C08B3CE812F8370811135C0B11028C00F
:1039F0004D2D429546954770440F440F8D2D8F7085
:103A0000042E01C0880F0A94EAF72D2D207122237D
:103A100039F02FE030E001C0220F4A95EAF72095F7
:103A2000312F369536953370323081F0333061F076
:103A30004091AA03313039F0822B84230E94B803CD
:103A40000E945F0882CE842B822BF8CF822B90912C
:103A5000AA038927F3CFBB2059F110FFF1CF4D2DD9
:103A6000429546954770440F440F8D2D8F70042E5C
:103A700001C0880F0A94EAF72D2D2071222339F016
:103A80002FE030E001C0220F4A95EAF72095312F50
:103A9000369536953370323089F0333069F0409185
:103AA0005E04313041F0822B84230E94BB03C8CFD7
:103AB000823030F2D4CF842B822BF7CF822B90919F
:103AC0005E048927F2CF012F0F70BB2039F0802FC1
:103AD0000E94BE038D2D0E94A40DB2CF8D2D0E9499
:103AE000B50D802F0E94CA03ABCF22EF2D1580F0B9
:103AF00040EFD416D1F051EFD516D9F1BB2009F41F
:103B0000BCC0CC2009F4B6C08D2D0E94C70D98CF43
:103B100083EFD816F1F094EFD91639F1B110F1CF47
:103B2000C110B5C0812F8F71DDCF80918104BB2082
:103B300061F0C81608F084CF212F2F7181E090E04A
:103B400001C0880F2A95EAF7BACF8C1508F478CF10
:103B5000F3CF80E0BB2009F4A8CF81E0912F9F71C3
:103B600001C0880F9A95EAF7A0CF8091840482FD66
:103B700006C0812F8F71BB2009F4B4CF03CE809192
:103B80007B04823008F45FC0BB2041F19091AC030C
:103B900097709430B9F41092AC031092AE03109267
:103BA000AD03812F8F710E94CA030E945F0884EFCA
:103BB000912F0E949B03811174C010928604109271
:103BC000850471C0C81688F7012F0F71802F0E94DD
:103BD000BE0363E0802F0E94DF08E7CFC81678F1AC
:103BE0001092AC031092AE031092AD0364E0812FEB
:103BF0008F710E94DF080E945F0884EF912F0E945E
:103C00009B038823D1F2C110D8CF40E0F701658132
:103C1000808191810E94140D80917C0483FF09C0F2
:103C20008091850490918604029719F48D2D0E944D
:103C3000FC0E1092860410928504A02E00CE81E026
:103C40000E94F604D8CFBB2051F0012F0F71802FB6
:103C50000E94BE0363E0802F0E94DF08F1CE81E066
:103C60000E94F604A1E0AC1508F0EACE82E00E94C2
:103C7000F604E6CE812F8F7185CDCC2009F452CF8A
:103C8000B9E380917F0490918004DB1621F080914C
:103C90007D0490917E040E94AA0A8D2D0E94950EAB
:103CA000CFCEC1108ACF60E0C7010E94320DB8CBE1
:103CB000C110E8CD20CEA0E0B0E0E1E6FEE10C943A
:103CC0000A2F8091F002803108F049C08091EF0204
:103CD000882309F444C0C091A10289E0D82E8091C4
:103CE000A0028C17E1F1EC2EF12CDC9EE0011124F6
:103CF000FE01EE55FD4F84818823B1F191818091C1
:103D0000EB02981331C090818091EA0298132CC085
:103D10008581811129C0028113818091EC029091EB
:103D2000ED02081B190B60E08AEE92E00E94320D52
:103D30000E948B1508171907B8F48091F0028F7054
:103D400080618093F002C855DD4F88818F7080615B
:103D500088838AEE92E00E940D160E948B04CDB7F4
:103D6000DEB7E7E00C94262FE7012196C770B7CFA6
:103D7000AFE0B0E0EEEBFEE10C94022F8C0186E0A8
:103D8000F801DE011A9601900D928A95E1F7D801AB
:103D9000CC9011967C90119715966C901597129671
:103DA000ED90FC90139714965C908AEEA82E82E01A
:103DB000B82E8091EE02811118C0552099F066202E
:103DC00009F4BFC1C8010E94000D882309F4B9C1DC
:103DD00089E0F801AAEEB2E001900D928A95E1F730
:103DE0000E945B1EFF24F3944BC060E08AEE92E0D9
:103DF0000E94320DD090EF028091EC029091ED0282
:103E0000DD2009F449C14701881A990A60E08AEE69
:103E100092E00E94320D0E948B158816990608F0D8
:103E2000F6C05520F9F2B090F0029091EB02F80143
:103E30008181FFE0FB1508F4A1C0F62C981325C082
:103E40009091EA02D8018C9198131FC02091F10241
:103E50003091F20217968D919C9128173907A9F499
:103E6000611077C08B2D8F7080618093F0028AEE95
:103E700092E00E940D168091F002F8018683F12CE9
:103E80008F2D2F96EFE00C941E2F611062C0E091F1
:103E9000A1028091A002AE2F99E0A81302C099E080
:103EA0002AC02A2F30E09A9FD0011124AE55BD4F71
:103EB00011964C911197741207C04C91C41204C012
:103EC00015964C91411147C1D9011196A770E5CFC4
:103ED0002E2F30E09E9FF0011124EE55FD4F4181C1
:103EE000741206C04081C41203C045814111C7CF7E
:103EF000F9013196E7708E13EBCF8A859B850E947E
:103F0000F10C292F22952F70903448F02A5F2F70E2
:103F10002230C8F0C8010E940D16FD2CB1CF9F7051
:103F2000223038F0992351F0F8019681903130F425
:103F3000A7CF992319F0882309F4A2CF805E883097
:103F400008F49ECFE7CF803F08F49ACF815F82309C
:103F5000F7CF8091F00281608093F00280917C0421
:103F600081FD8DCF8AEE92E00E940D1689E0EAEE87
:103F7000F2E0DF011D928A95E9F781CF981321C005
:103F80009091EA02D8018C9198131BC02091F10204
:103F90003091F20217968D919C9118972817390746
:103FA00081F461100EC01696BC92C8010E940D16D5
:103FB00089E0F801AAEEB2E001900D928A95E1F74E
:103FC00011CFC8010E94000D882309F4BAC06620F1
:103FD00009F4B7C08091F002803208F4F9CE8091E4
:103FE000EA029091EB029A838983FC82EB828091B2
:103FF000EE028D831E82BF828091F1029091F202C7
:1040000099878887CE0101960E940D16E1CED09047
:10401000F002BFE0BD1508F0A5CF552009F4E2CEAF
:104020009091EB02F801818198131AC09091EA02F5
:104030008081981315C02091F1023091F20287819E
:1040400090852817390761F461100AC0D682C8012B
:104050000E940D1689E0D5011D928A95E9F7C2CE1E
:10406000C8010E94000D882309F46BC0662009F482
:1040700068C08091F002803208F4AACE8091EA02F2
:104080009091EB029A838983FC82EB828091EE020D
:104090008D831E82DF82B0CF6701C81AD90A60E023
:1040A0008AEE92E00E94320D0E948B15C816D90646
:1040B00008F04BC0552009F495CE662009F441C0A4
:1040C0009091EB02F8018181981331C09091EA023E
:1040D000808198132CC02091F1023091F2028781E7
:1040E00090852817390719F58091EC029091ED021F
:1040F000E81AF90AF8ECEF16F10408F059CF8091AC
:10410000F00280FD55CF803108F452CFD8011696C9
:104110008C931697982F907F903F09F446CF982F55
:10412000907F905F8F70892B16968C933ECFC8013D
:104130000E94000D81114CCE8091F002816080932D
:10414000F002C8010E940D164DCE89E0F5011192D2
:104150008A95E9F794CE90917C0490FFA0CE02CF8F
:10416000A2E1B0E0E6EBF0E20C940D2F0A871B878A
:104170002C873D874E875F87688B798B8A8BCE0132
:104180000A960E94B81E81112BC089E0FE013A9662
:10419000DE01119601900D928A95E1F72091A0021F
:1041A0004091A1028E858823D9F030E0C9010196A3
:1041B0008770992750E084179507E9F099E0929F5E
:1041C000D001939FB00D1124AE55BD4FFE01319625
:1041D00001900D929A95E1F78093A0020E948B04C2
:1041E00019E08091A1029091A002891312C06296F9
:1041F000E4E00C94292F0E94E10F1092A00210928B
:10420000A10289E0EAEEF2E0DF011D928A95E9F76A
:10421000E7CF189FC00111248E559D4F0E94B81EF4
:10422000882329F38091A10290E001968770992755
:104230008093A102D6CFA0E0B0E0E1E2F1E20C94DD
:10424000082F80915B04882369F0C091DC01F12C78
:104250008DE0E82E80915B04C81748F010925B0453
:104260001092DC01CDB7DEB7E9E00C94242FBB241B
:10427000B394BC0EB092DC01CC2ED12CEC9EE001AC
:104280001124CD50DC4F8C81882361F18F8198857A
:10429000892B21F489859A85019659F40881198121
:1042A0002A813B814C815D816E817F8188850E945E
:1042B000B020EC9CF001ED9CF00D1124ED50FC4F72
:1042C00014821092AB03F1100BC0CE010E94000DBE
:1042D000811108C08FE39CE90197F1F700C000004D
:1042E000FF24F394CB2DB6CFA4E0B0E0EAE7F1E2EF
:1042F0000C94002F2091F203298317E0912E01E006
:1043000010E08DE0382E94E0492E5524539480918E
:10431000F1039981891308C00E941B210E941D0886
:104320002496E1E10C941C2F5981452F50E05C83C9
:104330004B83FA01EE0FFF1FE951FC4F8081918101
:10434000989ED001999EB00D1124FD01E155FC4FBE
:10435000FA83E983248121115DC070905B04E3EF4F
:10436000F3E060E070E0812C671508F051C0A38491
:10437000B484A981BA81CD90DC904FEF5FEF612CBE
:10438000262D30E07901EE0CFF1CEC0CFD1CD70152
:10439000ED90FC90E114F10439F0AE14BF0409F083
:1043A0009A016394A901ECCF4F3F5407E1F1D80182
:1043B00002C0AA0FBB1F4A95E2F78A2AA801062C61
:1043C00002C0440F551F0A94E2F79A0121503109A7
:1043D000482D50E02417350729F5369EF001379E09
:1043E000F00D1124ED50FC4F989ED001999EB00D18
:1043F0001124A155BC4F12962D913C9113973087F3
:1044000027834482108211829287818715965C925D
:104410000E942E088B819C8101969A8389838370E8
:10442000898375CF14826F5F7F4F3D969DCF109229
:104430005D0410925C0410920E018091F103809350
:10444000F2030E941D080E941B210895ACE1B0E018
:10445000ECE2F2E20C94FF2E4B8B5C8B6D8B7E8B2F
:104460008F8B988F882349F08091850490918604E2
:1044700001969093860480938504588C5110109275
:10448000AB03188A198A1A8A86E0FE017396DE0148
:104490001A9601900D928A95E1F78091840482FF2B
:1044A00021C08091610490916204892BD9F00E940F
:1044B000B8082091AD033091AE03821B930B20917D
:1044C0006104309162048217930738F08091AC0345
:1044D00082FD03C082E00E94F6040E94C40881119C
:1044E0000E9420058E85882379F061E0CE010A962E
:1044F0000E94320D5C0180352CE7920789F455202B
:1045000011F181E080930E010A851B852C853D8584
:104510004E855F85688979898A890E94B020C8C0E4
:1045200081353CE7930729F4552069F00E94172252
:10453000EBCF82359C4739F4552029F080910E014C
:104540008111F4CFDECF8FEAE82E83E0F82E412CE4
:10455000812C912C66246394712CD7014D915C9130
:10456000CC24CA94DD24DA9420E0822F90E0FC0170
:10457000EE0FFF1FE40FF51F60817181611571055A
:1045800039F0A616B70609F0C6012F5F6C01EDCF12
:10459000BFEFCB16DB0609F473C1F70154813581F7
:1045A0004681511104C180910E01882309F411C183
:1045B000552009F40EC10091750410917604311153
:1045C00014C081E090E00C2C01C0880F0A94EAF737
:1045D000482B46838091EF039091F0038017910759
:1045E00020F41093F0030093EF03A30102C0440FE3
:1045F000551F2A95E2F79A0121503109D7011696E5
:104600008C9190E02817390781F480915C04909197
:104610005D04009709F450C00E943D09081719076E
:1046200008F04AC081E0F7018483852D482ABFEF56
:104630008B1A9B0AE7E0EE0EF11CF8E08F1691044E
:1046400009F08BCF552009F42FC1442009F41AC179
:104650000E94B80890935D0480935C0480915B0491
:10466000883030F591E0980F90935B0499E0FE015B
:104670003A96DE01119601900D929A95E1F72DE0A0
:10468000829FC00111248D509C4F29E0FE0131967C
:10469000DC0101900D922A95E1F72FEF3FEFDC014D
:1046A0001A963C932E9319971C96BC92AE921B9728
:1046B0006C96E2E10C941B2F2091F2038091F103A0
:1046C000922FE0E0F0E06701281314C09093F2030A
:1046D000EE15FF0509F4A9CF90E0FC01EE0FFF1FD6
:1046E000E951FC4F918280820196837099278093D3
:1046F000F1039BCF022F10E0F801EE0FFF1FE951ED
:10470000FC4F60817181F7E0F69FD001F79FB00DFB
:104710001124A155BC4F4D915C9111975C8F4B8F2B
:1047200050E030E040E0E42FF0E0EE0FFF1F6B8D33
:104730007C8DE60FF71F2080318021143104E1F0D9
:10474000F7010190F081E02DFA8FE98F30E005C08C
:104750002616370609F4552D3F5FE32FF0E0EE0FE4
:10476000FF1F698D7A8DE60FF71F608171816115DA
:10477000710571F74F5FD7CF5523B1F0F6013417AC
:1047800008F0FD0131E03483EE15FF0509F49ECFFA
:10479000291305C0EA17FB0711F49F5F9370980176
:1047A0002F5F3F4F237090CFE0E0F0E0F8CF50E074
:1047B00031112FC0B30102C0660F771F2A95E2F7AF
:1047C000CB0101974817590799F4C4010E942E089C
:1047D0000FC050E031111DC0D30102C0AA0FBB1F92
:1047E0002A95E2F79D01215031094217530709F03C
:1047F00080E0F30102C0EE0FFF1FCA94E2F76F01E1
:10480000C094D70116969C9116979C2116969C935E
:104810000DCFCA010C2C02C0959587950A94E2F73A
:104820009A012150310924233523232B39F580FFA8
:1048300025C0F70182819381892BD9F087E0FE01A1
:104840003196DF011D928A95E9F70E94B8089C0114
:104850008B839C8384E08D83F70192818381792F00
:104860009887898709811A8144E05E816F810E945F
:10487000B020D70115961C9281E0BBCF8170B9CFD3
:1048800080E0D4CE9091F1038091F203981309C097
:104890000E941B2110925D0410925C040E941D086E
:1048A00033CE0E94742130CE9091F2038091F103B7
:1048B000981729F00E9474214110FACE25CE0E944B
:1048C0001B2110925D0410925C040E941D08F4CF1D
:1048D000A6E0B0E0EEE6F4E20C940D2F0E94B808DA
:1048E0008C0180917C0290917D028017910779F074
:1048F00019821A820E94B808BC0149815A8180E05D
:1049000090E00E94262210937D0200937C0226965E
:10491000E4E00C94292FA6E0B0E0E1E9F4E20C9485
:104920000F2F9093790280937802811520E29207ED
:1049300030F40E946F0E2696E2E00C942B2F80EF4D
:1049400089838A830E94B8088160BC0149815A81A9
:1049500081E091E00E942622EECFA6E0B0E0E3EBFA
:10496000F4E20C940F2F90937902809378028115D2
:1049700020E2920730F40E94E60E2696E2E00C94C4
:104980002B2F80EF89838A830E94B8088160BC0145
:1049900049815A8181E090E00E942622EECFCF9398
:1049A000DF93D82FC92F0E948B2480917D04909192
:1049B0007E040E94AA0A8D2F9C2F0E94AD24DF91B5
:1049C000CF9108950F931F93CF93DF938C01862F80
:1049D00068E073E00E947615892BB1F4C09108035A
:1049E000D0910903209781F0F8018281833051F43E
:1049F000CE010E94CF24CE010E94CF24CE010E947E
:104A0000CF2402C08430D0F7DF91CF911F910F9156
:104A100008950F931F93CF93DF938C01EB0168E010
:104A200073E08C2F0E947615892B09F05AC0FE0185
:104A3000FF27D80112968C911297E35BFD4F8130CE
:104A4000A9F415968C9182FD51C080FF4FC082E081
:104A5000808380910A0390910B030097B9F48091B1
:104A60000803909109030097E1F110C08230B9F575
:104A700015968C9182FD28C080FD0BC083E0808359
:104A800080910C0390910D03009701F10E948B24FB
:104A900028C084E0808380910E0390910F030097DB
:104AA000A9F78091080390910903009711F10E94E2
:104AB000CF2480910A0390910B03009739F78091DE
:104AC000080390910903E2CF85E080838091080379
:104AD00090910903009729F00E94CF24F0CF86E03F
:104AE0008083DF91CF911F910F91089581E08083A2
:104AF000B6CF80910A0390910B03B5CF0F931F930C
:104B0000CF93DF938C01EB0168E073E08C2F0E9460
:104B10007615892BA1F480917D0490917E040E94EA
:104B2000AA0ADD27C35BDD4F8881F8011282188253
:104B30008330F1F048F4813059F0823081F0DF9118
:104B4000CF911F910F9108958430B9F08530B9F756
:104B50008091080390910903009789F306C0809122
:104B60000A0390910B03009799F30E94AD24E7CFBD
:104B700080910C0390910D03F6CF80910E039091DC
:104B80000F03009791F7209108033091090380915A
:104B90000A0390910B0321153105F1F2009729F7D3
:104BA000C901E3CF9C01CB01BA01F90132964591CD
:104BB00054916417750748F0F90134966591749122
:104BC0000E94602F80E090E008958FEF9FEF08959E
:104BD0009C01DA010296FC0145915491FC018591FA
:104BE0009491A817B90758F0F901349685919491DA
:104BF0000E94602F0E94F40B80E090E008958FEFF8
:104C00009FEF0895A8E0B0E0E8E0F6E20C94032FEF
:104C1000FE01319688E0DF011D928A95E9F79BE25B
:104C2000A92E91E0B92E8F012FE2E22E21E0F22E83
:104C30003F01CC24C394D12CF50181915F018F3FBA
:104C400009F447C0F894E82FE295EF70F0E021A155
:104C50008F70A60102C0440F551F8A95E2F7CA0162
:104C6000922F982B91A392A18095892382A3789467
:104C700000C0EFE2F1E021E030E0812C912C419185
:104C80004F3F09F464C0A42FA295AF70A05EB0E0BE
:104C90008C9190E04F7002C0959587954A95E2F708
:104CA0008170811154C0C901882A992A220F331FAB
:104CB00051E0EA33F50719F7F501319780818F3F0D
:104CC00011F00E94390780EA8A95F1F7D8018D9298
:104CD0009C920E5F1F4FEA14FB0409F0ADCF48E031
:104CE00050E0B30185E592E00E94532F892B91F1AA
:104CF00088E0F301A5E5B2E001900D928A95E1F715
:104D000081E08093A4010E94B8089093A30180934E
:104D1000A2018091A2019091A3010E943D090597F3
:104D2000E8F048E050E065E572E08FE692E00E942E
:104D3000532F892B49F088E0E5E5F2E0AFE6B2E0D9
:104D400001900D928A95E1F71092A40107C080E0CE
:104D500090E0AACF8091A4018111DBCF2896EEE0EC
:104D60000C941F2FCDB7DEB7C654D1090FB6F894F7
:104D7000DEBF0FBECDBF85B7806885BF85B78068B1
:104D800085BF84B7877F84BF0FB6F894A8958091BC
:104D90006000886180936000109260000FBE80E820
:104DA00090E00FB6F89480936100909361000FBE7D
:104DB00087E397E090938101809380010E945F07D1
:104DC0000E9432150E94110C0E94F9090E944F0A9C
:104DD0008091E20084608093E20078948091770271
:104DE000882399F08091E9001091EC001795112724
:104DF00017958F70182B1092E9008091E80083FDC1
:104E00000E94DD101F701093E90082E084BD93E0E2
:104E100095BD9AEF97BD80936E000E94DB0B8111C8
:104E200002C00E94221581E080936A0256985E9A21
:104E300054985C9A8FE891E00197F1F700C0000068
:104E400020916A024BE652E0FA018E2F841B8217F2
:104E500008F4C0C087E90E94390782E30E9439073D
:104E600086E30E94390785E30E9439070FE211E0CB
:104E70003AE3E32E31E0F32ED8018D918D018F3F7F
:104E800011F00E943907E016F106B1F788E0EFE66D
:104E9000F2E0DF01282F1D922A95E9F7E5E5F2E01F
:104EA000DF011D928A95E9F780E090E00E94882F4B
:104EB000863E9E4F21F40E94DB0B811167C066EE97
:104EC0007EEF80E090E00E94BC2F60E082E090E006
:104ED0000E949E2F60E083E090E00E949E2F10923F
:104EE000AA0360E074E184E090E00E94BC2F60E0DF
:104EF00086E090E00E949E2F6FEF87E090E00E9496
:104F00009E2F40E050E0BA0188E090E00E94B02F70
:104F100060E084E290E00E949E2F60E087E190E0F4
:104F20000E949E2F60E08CE090E00E949E2F60E047
:104F30008DE090E00E949E2F19821A821B821C82B3
:104F40001D821E821F82188648E050E068E170E0F2
:104F5000CE0101960E948E2F40E050E0BA0180E21F
:104F600090E00E94B02F80E00E94600B0E9422150A
:104F700040E050E0BA018FE090E00E94B02F40E0A6
:104F800050E0BA0183E190E00E94B02F82E090E00F
:104F90000E94802F80935F0284E090E00E94882F1F
:104FA00090938404809383040E940226EFE3FCE93B
:104FB0003197F1F700C000000E94022680916F0235
:104FC00080FF13C06FEF7FEF80E090E00E94BC2F66
:104FD0000E94B80A99B189B182958170880F96FBB9
:104FE000992790F9892B819330CF83E090E00E943C
:104FF000802F0E94B80380E091E090937F0280931D
:105000007E0228E1422E512C8091770210E48530F7
:1050100009F490C00E94022690E6A92E92E0B92ED3
:105020000FE612E048E652E0D801F50121913191F6
:105030008D919D914E175F0709F49EC0281739077F
:10504000A9F38FE6882E82E0982E312CD401ED90C2
:10505000FD904D01F501619071905F016E147F0428
:1050600061F16E247F24212CCC24C394D12CC60161
:1050700086219721892BB9F029823A820E94B808AB
:105080009C838B83F1E0FD8391E096012E213F21EB
:10509000232B09F490E09E8349815A816B817C81A6
:1050A0008D810E9426222394CC0CDD1C2BE0221241
:1050B000DECFF5013297F182E082339434E033128F
:1050C000C5CF0E9420095EC080917702843009F12B
:1050D00010925D020FB6F894A895409260000FBE42
:1050E0001093600083B7817F846083BF83B7816042
:1050F00083BF7894889583B78E7F83BF0FB6F8946B
:10510000A895809160008861809360001092600093
:105110000FBE80915E02882369F00E940226EFE6AE
:10512000F2E087E792E021913191232B69F48E1709
:105130009F07C9F780917702853009F4C5CF0E9497
:10514000E10F0E945F0866CF80E189BD82E189BDE1
:1051500009B400FEFDCF8091D8008F7D8093D800E8
:105160008091E00082608093E0008091E00081FD0A
:10517000FCCF0E94E10FDECF2817390709F061CF7D
:105180000E946824C0901203D0901303C114D1046C
:1051900009F180911403909115030E943D097C014F
:1051A000C6010E948B158E159F05A0F480911203F5
:1051B000909113039927F4E0880F991FFA95E1F76E
:1051C000FC01E55EFC4F208122FD04C08A5E9C4FFD
:1051D0000E946F1480910E018823F9F080915C0485
:1051E00090915D040097C9F00E943D092091EF0362
:1051F0003091F0032817390780F49091F2038091E1
:10520000F1039817B9F10E9474211092F0031092E3
:10521000EF0310925D0410925C0480917A0480FF89
:105220001CC080910D0182FF18C00E94B808BC010B
:1052300080919603909197039B01281B390B8091D5
:105240000801909109012817390738F041E0809151
:105250009803909199030E94C013F12CE12C5DEF0B
:10526000952E62E0862E772473947CEF672EE3E020
:105270003E2EAAC00E941B2110925D0410925C0475
:105280000E941D08CACFCF2CD12C99B189B182952B
:105290008170880F96FB992790F9892BD601A55923
:1052A000BD4FEC919E2F9370891709F48CC0EE0FBF
:1052B000EE0FE82BEC93EF70F0E0E65CFE4FC601DA
:1052C00087599D4F5C018081D5019C91890F8C93FA
:1052D00020E08430BCF1F601E859FD4F80818F5FFA
:1052E0008083FFAA68AE0E94B808BC0189AF9AAF5C
:1052F0003BAE7CAE4FA958AD83E091E00E942622E0
:10530000EFE3FCE93197F1F700C00000FDAE6EAEAF
:105310000E94B808BC018FAF21969FAF21972296BB
:105320003FAE229723961FAE23974DAD5EAD83E02F
:1053300090E00E9426228FE39CE90197F1F700C0DC
:10534000000021E0D5018C918D3F8CF5F601E859E4
:10535000FD4F808181508083FBA69CA60E94B808E7
:10536000BC018DA79EA78FA678AA4BA55CA582E05D
:1053700091E00E942622EFE3FCE93197F1F700C0AB
:105380000000F9AA9AAA0E94B808BC018BAB9CAB9A
:105390008DAA1EAA49A95AA982E090E00E9426225D
:1053A0008FE39CE90197F1F700C0000021E0D501EF
:1053B0008C91082E000C990B64E070E00E94DE2EA8
:1053C000F5018083E22AF39480916A02F81608F4CA
:1053D0005ACFE1100E9420090E945F0890916C0250
:1053E000891721F080936C020E9420098091770236
:1053F000843009F009CE83E08093E9008091E800D1
:1054000082FF02CE8091E80085FD06C08091E80011
:105410008B778093E800F8CD0E94C809882301F1BA
:105420008091E8008B778093E800E0907A02F0901A
:105430007B02E981E114F104B1F1EE3F09F056C0BD
:105440008A81833020F08550833008F04FC0EA8194
:10545000EE3008F04BC0F0E0E15FFF4C0C94F22E10
:1054600040E2C42ED12C9E012F5F3F4F79018091E5
:10547000E80085FD0AC08091E8008B778093E80002
:105480000E94C809882399F3CBCF8091F100D701FE
:105490008C93B1E0CB1AD108C114D10409F2EFEF1B
:1054A000EE1AFE0AE4CFE43150F4EE2351F0E1505D
:1054B000E33138F4F0E0E35EFF4C0C94F22EEE3F63
:1054C00031F28FEF29C21A8289E08B830FC08A8163
:1054D0008230A9F08330E1F0813099F70E942009F1
:1054E0000E94F82E6B837C838D839E8340E250E084
:1054F000BE016F5F7F4F82E00E94DC0A85CD88E2AB
:1055000090E00E94802F1B821C821D828E83EECF32
:1055100080910A0190910B01892B41F3FE01319694
:10552000D8018C9111969C910E5F1F4F92838383BB
:105530003296B2E007371B0799F7D8CF8A818230BD
:1055400009F0BFCF8B819C81AD81BE8127968CAF46
:105550009DAFAEAFBFAF2797BC01CD010E94F82E23
:1055600088E290E00E949E2FC1CF4C816B818A819E
:105570000E94370C9827892798279E838D83B6CF62
:105580002D813E813227232732274C816B818A81EE
:105590000E947E0BABCF0E949614A8CF80E18A8335
:1055A000A5CF81E08A8383EA90CF8C81E82EF12C0D
:1055B0008D3108F09BCF0A811B811027012710270E
:1055C000E00EF11E6E0195E0C90ED11CE016F10649
:1055D00009F48CCF80E0033AA1E01A0728F4C8014F
:1055E000835A9D4F0E94802FF60181936F010F5FB8
:1055F0001F4FECCF80910A0190910B01892B09F488
:1056000075CF8C81C82ED12C8D3108F06FCF0A81D7
:105610001B811027012710279E012F5F3F4F790123
:10562000C20ED31ECE14DF0409F460CF033A31E07A
:10563000130740F4D70114966C91C801835A9D4F0B
:105640000E949E2F0F5F1F4FBFEFEB1AFB0AEACF9E
:105650000E94CB0B4BCF84E0A2CF8C81E82EF12CA3
:105660008D3108F043CF0A811B81102701271027B5
:10567000E00EF11E6E01E5E0CE0ED11CE016F10643
:1056800009F434CF80E00036F1E01F0720F4C801B0
:1056900089960E94802FD6018D936D010F5F1F4F59
:1056A000EDCF2C81C22ED12C2D3108F01FCF0A81D5
:1056B0001B811027012710270036B1E01B0708F0D7
:1056C00015CF20E631E0201B310B2C153D0508F4E9
:1056D0000DCFFE0131967F01CE0EDF1EEC14FD04CE
:1056E00009F404CF0036F1E01F0738F4D70114960F
:1056F0006C91C80189960E949E2F0F5F1F4FBFEFCC
:10570000EB1AFB0AEBCF88E0E3E1F1E0DE019196D2
:1057100001900D928A95E1F7FE0132968FE1DF014B
:105720001D928A95E9F786E0898388E07F96DE01FD
:10573000159601900D928A95E1F7D8CE88E8898375
:1057400081E08A831B821C82D1CE8B819C81092EB1
:10575000000CAA0BBB0B35E0880F991FAA1FBB1FBB
:105760003A95D1F7AC01BD01405E5F4F6F4F7F4F5F
:10577000803EEFEF9E07AE07BE0708F0B7CE883831
:10578000F1E09F07A105B10508F0B0CE493821E04E
:1057900052076105710520F048E851E060E070E0D3
:1057A000481B590BBC016E517B4FCE0101960E94E4
:1057B0004A2F9CCE1B810C8140E0602F812F0E94DC
:1057C000660C9827892798279A83898341E0602F60
:1057D000812F0E94660C9827892798279C838B83AA
:1057E00085CE8E819F819827892798270E9452070E
:1057F0009C0141E08D81811101C040E06C818B8171
:105800000E94A50B73CE4EE150E06FEF70E0CE0129
:1058100003960E94692F80910A018983EA8266CEED
:1058200081E090E090937B0280937A0282E390E0A3
:1058300090936E0280936D020E94B80857CE8091BB
:105840000A018983EA8280916D023FCE0B811C811F
:1058500040E250E06FEF70E0CE0101960E94692FA8
:1058600082E594E0A6EDB4E020E030E042E050E0D4
:10587000FC01659174910617170750F0A817B90736
:1058800009F434CEB9016E5F7F4F0C96A90115C0A3
:10589000E1E0F0E0EC0FFD1F2E0F3F1FF9017183D7
:1058A0006083A817B90709F421CEBA016E5F7F4F54
:1058B0000C966132710508F019CE9A01AB01D8CF70
:1058C0002B813C81E2E5F4E0859194918217930766
:1058D00091F08EE594E0F4E0823E9F0709F4F1CD6B
:1058E000FC0165917491AC01445F5F4F62177307CF
:1058F00021F0CA01F0CF82E594E0FC0136962591B3
:1059000034912115310509F4DCCD4FE150E0BE01A1
:105910006E5F7F4FF90109958983E8CD2B813C812A
:10592000E2E5F4E0859194910EE514E08217930787
:1059300041F502E514E0F8013896259134912115DE
:10594000310519F14CE150E0BE016B5F7F4FC8019A
:10595000F90109957C01892B41F4F8013A9685916A
:105960009491009711F0FC010995E982BFCDF801EF
:1059700065917491A801445F5F4F26173707D9F2EC
:105980008A01F4E0023E1F0791F7EE24EA94FE2C10
:10599000ECCF0E94A810AACD8B81823009F44EC0B2
:1059A00060F4811134C0FE0133968EE1DF011D9257
:1059B0008A95E9F788E08983F2CD833009F474C0D1
:1059C000843009F093CD1C818AE0FE013596DE011A
:1059D000919601900D928A95E1F789A59AA50E946A
:1059E00052079AA789A78FEF183068F4FAE01F9F33
:1059F000B0011124635F7D4F4AE050E0CE018196F3
:105A00000E94C22F80E089830E9432156FCD8C8165
:105A10009AE0F92E8E010F5D1F4FF8012F2D119284
:105A20002A95E9F7B8010E9476158983F801DE010D
:105A3000129601900D92FA94E1F758CD1C818AE0FC
:105A4000FE013596DE01919601900D928A95E1F75F
:105A500089A19AA10E9452079AA389A38BA19CA114
:105A60000E9452079CA38BA38DA19EA10E94520766
:105A70009EA38DA38FA198A50E94520798A78FA3DC
:105A80008FEF183068F43AE0139FB001112463548B
:105A90007E4F4AE050E0CE0181960E94C22F80E006
:105AA00089830E945F0722CD2C816AE0CE01819616
:105AB000DC01E62F1D92EA95E9F7283088F4629F11
:105AC000B0011124635F7D4F4AE050E00E94702FC7
:105AD00080E089838AE0FE01B196DE01129629CE2C
