:100000000C949B050C94E2050C94E2050C94E2051B
:100010000C94E2050C94E2050C94E2050C94E205C4
:100020000C94E2050C94E2050C94B62B0C94722B04
:100030000C94092D0C94E2050C94E2050C94E20555
:100040000C94E2050C94E2050C94E2050C94E20594
:100050000C94E2050C94E52C0C94E2050C94E2055A
:100060000C94E2050C94E2050C94E2050C94E20574
:100070000C94E2050C94E2050C94E2050C94E20564
:100080000C94E2050C94E2050C94E2050C94E20554
:100090000C94E2050C94E2050C94E2050C94E20544
:1000A0000C94E2050C94E2050C94E2050631FF097C
:1000B00074A1010975150026FF00952075088102BD
:1000C0000976150026FF00952075089102C00501EC
:1000D0000980A101850319012AB700150126B7007F
:1000E000950175108100C0050C0901A10185041955
:1000F000012AA002150126A002950175108100C0F9
:100100000660FF0961A1010962150026FF00952024
:10011000750881020963150026FF00952075089176
:1001200002C005010906A101050719E029E715002C
:100130002501950875018102950175088101050762
:10014000190029FF150026FF009506750881000596
:10015000081901290595057501910295017503910D
:1001600001C00000000000000000000000000000CE
:10017000000000000000000000000000000000007F
:100180000000000000007E0F00D4FFFFFFC700004A
:10019000007800000000000000002A2B280000006A
:1001A0000000000000000000000000000029000026
:1001B00000002C1E3420212224342627252E362D03
:1001C0003738271E1F202122232425263333362E9D
:1001D00037381F0405060708090A0B0C0D0E0F100F
:1001E0001112131415161718191A1B1C1D2F313054
:1001F000232D350405060708090A0B0C0D0E0F10F8
:100200001112131415161718191A1B1C1D2F313033
:10021000354C3F00433E20005B735D000A002530F3
:10022000313662003A200025303258000A722F63BE
:100230002030313233343536373839414243444542
:10024000460A00FD377A585A000004E6D6B4460242
:1002500000210116000000742FE5A3E003130147FD
:100260005D003D8889C65436C3174FE4E59260CDE2
:10027000513001899B6393EDB7DC781AAC4371C3AD
:100280008711EADDEB51A33E1FE85F99371C693EF9
:10029000FF9497C7E817AE6C513CCC2211ED8EA2AB
:1002A00060CB83197B0A6646DE13EF46D9B2E3863C
:1002B000702C1C895C8F7862C7BFFA7D1E133C8B43
:1002C0001A836017E0AA943E87F75C66A4EE8FA2BB
:1002D000AF8A20945B0D4D71BA7D9489B095904B97
:1002E0005D27D35CDDB3FB611C583E99ED9CCCF3DC
:1002F0004BD6F044A9B77C22B825444208F2B6D0C8
:1003000080EE2046A54AE9B0F759E6FBE74A9BBDD7
:100310009E78DFF39A68AA8016404248AD5847E7B6
:10032000F8D3F582F33CFB308DC149D55121913989
:100330004C6CA6B892F8698A6AAFFE16BB7F940926
:10034000CEF4C586CC455887633E8BF0C20F27B5E7
:1003500054D4786AF80B4286B6BAF0C6CEB7BF73EB
:100360007928D1EC1EF817CF2D78E344E3BE8D1326
:10037000F0D4B1A22E8BFBB359A50C7B8C2BE9F5E5
:100380003394BF82044ED32A9AF5FAE520DC321E5C
:10039000A25945083CCE78A53B5D8EAE1A0454E7C1
:1003A000E58C307FC50ADE189500006F7C6EC13B7E
:1003B000F41B4D0001E30294060000D0E4EA1FB1F3
:1003C000C467FB020000000004595A14001A000818
:1003D00000150017001C0018000C00120013002A62
:1003E0000004001600070009000A000B000D000EB3
:1003F000000F00340000001D001B0006001900055E
:1004000000110010003600370038000000E000E363
:1004100000000001512A002C002C000251E20000D3
:100420005C00000100010001000100010001000169
:1004300000010001000100010001000100010001B4
:1004400000010001000100010001000100000001A5
:100450000001000100010001000100010001000194
:100460000001000000010001000000010001000186
:100470000001000100010001000000010001000175
:100480000001000100010001000100010001000164
:100490000001000100010001000100010001000154
:1004A0000001000100000001000100010001000145
:1004B0000001000100010001000100000001000135
:1004C0000000000100010001000100010001000125
:1004D0000000000100010001000100010001000115
:1004E0000001000100010001000100010001000104
:1004F00000010001000100010001000100000001F5
:1005000000010001000100010001000100010001E3
:1005100000010000000100010000000100010001D5
:100520000001000100010001000000010001006D58
:100530000300000200020069030000030001006ED6
:10054000030000040002005303CA08050001006F05
:100550000300000600020055030000070002006BC4
:100560000300000800010070030000120002007187
:1005700003000013000200730300006B65796D61D6
:10058000705F636F6E6669672E7261773A202530FF
:1005900032580A2E737761705F636F6E74726F6C7E
:1005A0005F636170736C6F636B3A2025750A2E630D
:1005B0006170736C6F636B5F746F5F636F6E747287
:1005C0006F6C3A2025750A2E737761705F6C6374C7
:1005D0006C5F6C6775693A2025750A2E73776170B8
:1005E0005F7263746C5F726775693A2025750A2EB5
:1005F000737761705F6C616C745F6C6775693A20CA
:1006000025750A2E737761705F72616C745F726713
:1006100075693A2025750A2E6E6F5F6775693A20F5
:1006200025750A2E737761705F67726176655F6505
:1006300073633A2025750A2E737761705F62616378
:100640006B736C6173685F6261636B737061636528
:100650003A2025750A2E6E6B726F3A2025750A00B6
:1006600064656275675F636F6E6669672E72617736
:100670003A20253032580A2E656E61626C653A2048
:1006800025750A2E6D61747269783A2025750A2ED7
:100690006B6579626F6172643A2025750A2E6D6F01
:1006A0007573653A2025750A006565636F6E666926
:1006B000673A0A64656661756C745F6C617965722E
:1006C0003A2025750A000A092D204D6167696320CB
:1006D0002D0A443A094465627567204D657373615C
:1006E000676520546F67676C650A583A094D6174F5
:1006F000726978204465627567204D6F6465205487
:100700006F67676C65202D2053686F77206B657964
:100710007072657373657320696E206D61747269A0
:100720007820677269640A4B3A094B6579626F6198
:10073000726420446562756720546F67676C65203A
:100740002D2053686F77206B657970726573732005
:100750007265706F72740A4D3A094465627567205C
:100760004D6F75736520546F67676C650A563A095B
:1007700056657273696F6E0A533A095374617475E2
:10078000730A433A09416374697661746520436F63
:100790006E736F6C65204D6F64650A46312D46316E
:1007A000303A0953776974636820746F204C61791B
:1007B000657220302D392028463130203D204C30C4
:1007C000290A302D393A0953776974636820746FA8
:1007D000204C6179657220302D390A4752415645C7
:1007E0003A0953776974636820746F204C617965A6
:1007F0007220302028616C7465726E617465290AFC
:10080000423A094A756D7020746F20426F6F746CA4
:100810006F616465720A4553433A094A756D7020E9
:10082000746F20426F6F746C6F6164657220286111
:100830006C7465726E617465290A453A0950726973
:100840006E7420454550524F4D2053657474696E47
:1008500067730A4253504143453A09436C656172DC
:1008600020454550524F4D0A000A092D20436F6E16
:10087000736F6C65202D0A4553432F713A097175CA
:1008800069740A000A092D2056657273696F6E201B
:100890002D0A5649443A2030783444343528707251
:1008A0006F6A6563746361696E29205049443A2018
:1008B0003078303031302872656C696329205645B4
:1008C000523A203078303030310A4255494C443A5F
:1008D0002020284A616E2020342032303232290A0A
:1008E0004F5054494F4E533A204C5546412045589D
:1008F0005452414B455920434F4E534F4C45204392
:100900004F4D4D414E44204C544F20343039360A1F
:100910004743433A20382E342E30204156522D4C36
:100920004942433A20322E302E30204156525F4108
:100930005243483A20617672350A000A092D205345
:100940007461747573202D0A686F73745F6B6579B9
:10095000626F6172645F6C65647328293A20253088
:1009600032580A6B6579626F6172645F70726F747E
:100970006F636F6C3A20253032580A6B6579626F6D
:100980006172645F69646C653A20253032580A747C
:10099000696D65725F72656164333228293A20257A
:1009A00030386C580A003F000A6D6F7573653A2045
:1009B0006F66660A000A6D6F7573653A206F6E0A7E
:1009C000000A6B6579626F6172643A206F66660A2D
:1009D000000A6B6579626F6172643A206F6E0A007B
:1009E0000A6D61747269783A206F66660A000A6D52
:1009F00061747269783A206F6E0A000A64656275E4
:100A0000673A206F66660A000A64656275673A2075
:100A10006F6E0A000A0A4A756D70696E6720746FFE
:100A200020626F6F746C6F616465722E2E2E2000D1
:100A3000433E2000436C656172696E6720454550F6
:100A4000524F4D0A004C25640A005B435D005B4435
:100A50005D005B535D005B575D005B525D0009020A
:100A60007B00040100A0FA09040000010301010059
:100A70000921110100012240000705810308000A35
:100A800009040100020300000009211101000122F4
:100A9000220007058203200001070503032000014F
:100AA00009040200010300000009211101000122D4
:100AB00032000705840320000A0904030002030032
:100AC00000000921110100012222000705850320F1
:100AD00000010705050320000112010002000000CB
:100AE00008454D10000100010203011C0376006956
:100AF0000061006C003A006600360034006300328A
:100B00000062003300630000000C03720065006C9B
:100B1000006900630000001803700072006F006A33
:100B2000006500630074006300610069006E0000EE
:100B300000040309040011241FBECFEFDAE0DEBF7A
:100B4000CDBF04B603FE27C0809155049091560492
:100B5000A0915704B09158048730904BA740B04BF8
:100B6000D1F410925504109256041092570410922A
:100B7000580414BE84B7877F84BF0FB6F894A89535
:100B800080916000886180936000109260000FBEC9
:100B9000E0E0F8E3099511E0A0E0B1E0E8ECF7E669
:100BA00002C005900D92A238B107D9F724E0A2E85F
:100BB000B1E001C01D92A535B207E1F70E94302DCA
:100BC0000C94B0330C940000FF93EF93E0918201FA
:100BD000F0918301309709F00995EF91FF91089505
:100BE000FC018591803011F0EFDFFBCF0895FF27E6
:100BF000E0E230E247FF0CC0419597FF09C0EDE20B
:100C00006095709580959095611D711D811D911D58
:100C100027FF02C0219530E350E2AA27660F771F15
:100C2000881F991FAA1FA41710F0A41B63955A953B
:100C3000A9F7AA3008F0A95FA05DAF93F3956115FD
:100C400071058105910541F7ED3211F4EF93F395AC
:100C5000F21718F43F93F395FBCF8F91B5DFFA9518
:100C6000E1F70895E991F9918591803021F085327D
:100C700019F0AADFF9CF089520E0E8945591553294
:100C8000C1F3503311F4689455915A3348F45053DA
:100C900090F3220F022E220F220F200D250FF4CFEA
:100CA0000EF4219589919991533619F3533729F10F
:100CB000533559F1BC0188279927E8945C3621F413
:100CC0008991999168945591543639F446EF7EF0A4
:100CD00077FF0DC08FEF9FEF0AC055374AE039F01C
:100CE000583540E121F0523642E009F00895FF9373
:100CF000EF937DDFEF91FF91B7CFFF93EF93FC016F
:100D000081918030B9F360DFFBCFFF93EF9368DF11
:100D1000F1CFDF93CF93CDB7DEB72596A3DFCF9189
:100D2000DF910895E8EDF0E080818E7F808310925E
:100D3000E2001092DA001092E100A0EEB0E08C9197
:100D400081608C9380818F77808319BCA7EDB0E0A0
:100D50008C918E7F8C9380818F7E808310923B0458
:100D600008952091E4003091E50095E6A9012091D5
:100D7000EC00822F817020FF06C08091E80080FF88
:100D800006C080E008952091E80022FD1AC08091FD
:100D90004804882389F0853089F08091EB0085FD37
:100DA0000FC02091E4003091E50042175307F9F29B
:100DB0009150E1F684E0089582E0089583E008957B
:100DC00081E00895EF92FF920F931F93CF937C01E0
:100DD0008B010E94B106C82F811117C08091E800D5
:100DE00085FD0BC08091E8008E778093E8000E941B
:100DF000B106882399F3C82F08C0F70181917F01BC
:100E00008093F1000150110949F78C2FCF911F9168
:100E10000F91FF90EF90089580914A0487FF13C0CF
:100E20008091E80082FF06C08091E8008B77809374
:100E3000E80004C0809148048111F2CF08958091A8
:100E400048048823D9F38091E80080FFF8CF80918F
:100E5000E8008E77ECCF982F9093E900242F762F1F
:100E600050E0891731F07091EC002091ED00509125
:100E7000F00021FD07C09F5F973071F78093E90074
:100E800081E008953091EB003E7F3093EB0030918C
:100E9000ED003D7F3093ED003091EB0031603093F9
:100EA000EB007093EC002093ED005093F000209144
:100EB000EE0027FDE0CF80E00895CF92DF92EF9221
:100EC000FF920F931F93CF93DF93C8EDD0E08881FB
:100ED0008F7E8883E7EDF0E080818160808384E00D
:100EE00082BF81E080933B0488818E7F888302EEFD
:100EF00010E0F80110821092DA0081EEC82ED12C99
:100F0000F601108288818F77888388818068888342
:100F100088818F7D888319BC1092480410924904FF
:100F2000109247041092460490EEE92EF12CF7013E
:100F300080818B7F808388818160888342E060E04C
:100F400080E00E942B07F60180818E7F8083F8016C
:100F5000808181608083808188608083F7018081C7
:100F60008E7F8083888180618883DF91CF911F91FC
:100F70000F91FF90EF90DF90CF900895FC0180914A
:100F800050049091510486179707A0F061157105E0
:100F900029F49091E8009E779093E80090E0611525
:100FA000710551F4911108C08091E80082FF34C0AE
:100FB00080E00895BC01F2CF809148048823C1F1FC
:100FC0008530C1F18091E80083FD30C08091E80058
:100FD00082FDEACF8091E80080FFE1CF8091F300AD
:100FE0002091F200382F6115710519F02830310574
:100FF00058F091E02830310509F090E02091E800A8
:101000002E772093E800CBCF81918093F10061503F
:1010100071092F5F3F4FE7CF80914804882341F04B
:10102000853041F08091E80083FFBECF81E00895D4
:1010300082E0089583E008950895089580913D0425
:1010400008959C014FB7F894809131049091320437
:10105000A0913304B09134044FBF821B930B0895C9
:101060002FB7F89460913104709132048091330469
:10107000909134042FBF08952FB7F89480913104D4
:1010800090913204A0913304B09134042FBF08959D
:1010900020912E0430912F042817390771F0909376
:1010A0002F0480932E04E0912C04F0912D043097AE
:1010B00021F00084F185E02D0994089520912A04FF
:1010C00030912B042817390771F090932B048093EB
:1010D0002A04E0912C04F0912D04309721F0068031
:1010E000F781E02D09940895E0912C04F0912D04EE
:1010F000309721F00190F081E02D099480E008956F
:10110000452B39F0682381E06F3F09F080E0817062
:10111000089581E0FCCFDC0160914D0380914E0386
:10112000962F891301C00895292F30E0F901EE0FA1
:10113000FF1FEB5BFC4F408151814A175B07A1F415
:1011400087E08A9FA0018B9F500D1124435F5C4F65
:1011500081E0FA0184839613E6CF2F5F3F4F23701F
:10116000332720934D0308952F5F3F4F922F9370A5
:10117000D8CF1092AA021092A902EDE0F3E0858187
:10118000811102C014821682379683E0E534F80795
:10119000B1F70895809153039091540390930F01F8
:1011A00080930E010895F894E82FE295EF70F0E037
:1011B00031A1282F2F7081E090E001C0880F2A957F
:1011C000EAF7982F9095932391A392A1892B82A35C
:1011D000789408959091FE0192FF06C0282F2871FF
:1011E0002830F9F4877F846093FF06C0282F287188
:1011F0002831F1F4877E84612091FF0120FF06C031
:10120000382F38713830D9F4877F816021FF06C0CC
:10121000282F28712831D1F4877E816194FD877E43
:101220000895282F24712430F9F68B7F8860DCCF55
:10123000282F2471243101F78B7E8861DDCF382F70
:101240003171313019F78E7F8860E0CF282F2171FE
:10125000213121F78E7E8861E1CFCF93DF93EC01BE
:1012600082389105A9F1D8F58133910509F496C02A
:1012700048F58932910509F48AC08A9709F495C026
:10128000C11522E5D20708F0B6C0C11531E5D30774
:1012900008F026C1C83ED10508F09CC0C03ED1056B
:1012A00060F5C83AD10508F087C0C53AD10508F005
:1012B000EFC0C130D10509F12097F9F0C430D10554
:1012C000E0F440C08533910509F45AC0C997C1F6CE
:1012D0008091FE01837089F0C0EED0E00EC0833EA5
:1012E000910599F170F4803E910501F1823E9105DE
:1012F00039F68091FE0182FD21C0CE01DF91CF91B0
:101300000895863E910561F1873E910571F1843E15
:10131000910509F0B5CF8091FF0181FFEECF80915B
:10132000FE01C7EED0E084FD0DC0E7CF8091FE0145
:1013300080FD07C19091FF0190FFDFCFC3EED0E0A9
:1013400084FFDBCFD0E0C0E0D8CF8091FE0182FDEA
:10135000FBC09091FF0190FDBFCF84FFCECFF2CFB5
:101360008091FE0183FDDDCFC8CF8091FE0183FD1A
:10137000EEC09091FF0191FFF0CFC4EED0E0BDCF61
:101380008091FE0185FFB9CFC9E2D0E0B6CF809150
:10139000FE0185FFB2CFC5E3D0E0AFCF8091FE0163
:1013A00086FFABCFCAE2D0E0A8CF8091FE0186FFD6
:1013B000A4CFC1E3D0E0A1CFCF3BD10518F6C85AE6
:1013C000D0E0CC0FDD1FC05EDE4F0990D881C02D6C
:1013D000D46493CFC11540E5D40708F064C0C115AB
:1013E00080E4D80708F05CC0CE019A9581159F4132
:1013F00008F483CFA7CFC11536E5D30718F5C1157B
:1014000045E5D40708F084C0C11584E5D80708F085
:101410007AC09C2F969596959E0123703327C1150F
:10142000D34508F462C0C1E0D0E002C0CC0FDD1F9C
:101430002A95E2F730E2939FC0011124C82BD92BE3
:10144000DA685BCFC1158AE5D80778F4C11599E54C
:10145000D90708F068C0C11528E5D20708F472CF93
:10146000DC2FCC27C06FD06A48CFCE0190568115B3
:10147000904208F067CF8D2F8F710E94EA0890E0AC
:10148000982F882788279F719C012C2BE90149C040
:10149000C55AD0E0C35EDE4FC881D0E0D0642DCF06
:1014A000DF70D06A2ACFCE01E4E096958795EA9561
:1014B000E1F783702C2F26952695237040E2249F18
:1014C00090011124382B8C2F8370C1E0D0E002C032
:1014D000CC0FDD1F8A95E2F7C22BD32BDC680DCF32
:1014E000DC2FCC27C16FD06A08CFC1E0D0E002C0AA
:1014F000CC0FDD1F2A95E2F720E2929FC001112454
:10150000C82BD92BEBCFDC2FCC27C46FD06AF5CEFC
:101510008C2F0E94EA08C82FD0E0DC2FCC27CC27E4
:10152000DF71D062EACE8C2F8F700E94EA0834E01F
:10153000D695C7953A95E1F7CF709C2FEC01D0690D
:10154000DCCEC9E3D0E0D9CEC2EED0E0D6CEC6EE36
:10155000D0E0D3CE8091F201882331F01092F201D5
:101560001092F1011092F0010895CF93C82F80914D
:10157000FF0182FD0CC08091F2018C1741F00E94A6
:101580003C089093F1018093F001C093F201CF9158
:10159000089580959091540498239093540408954D
:1015A000809590918402982390938402089590915D
:1015B0008402892B8093840208951092EE01109288
:1015C000ED011092EC01089580915503909156031E
:1015D000892B89F00E943C082091F0013091F101A3
:1015E000AC01421B530B81E020915503309156030F
:1015F0004217530708F480E08170089580918402B7
:1016000090915404892B9091EF01892B8093840150
:101610008091F201882309F180915503909156033E
:10162000892B29F00E94E40A81110E94AA0A809164
:1016300084019091F201892B8093840120E086E857
:1016400091E0FC013191CF0131112F5FF1E08C3835
:101650009F07B9F721110E94AA0AE0912C04F0918A
:101660002D04309731F00280F381E02D84E891E081
:1016700009940895EF92FF920F931F93CF93DF93F6
:10168000EC018A85811134C0EB80FC8087E5F81A73
:1016900026E12E9DC0012F9D900D1124DC01A6583E
:1016A000BC4F1496ED91FC911597309731F05496FC
:1016B0006D917C9180589C4F099586E18E9D8001AB
:1016C0008F9D100D112406581C4FF80187810E9430
:1016D000D00AF80180850E94C90A0E94FE0A188279
:1016E00019861B861E821D82109279031092780340
:1016F000DF91CF911F910F91FF90EF900895CF93BD
:10170000DF93EC018989811118C081E0898B8F8179
:101710000E94D70A809154049885892B80935404A1
:101720000E94FE0AEA81FB81309739F06C897D893D
:10173000CE010696DF91CF910994DF91CF91089564
:1017400080911001877F8093100182E00E94C90A76
:101750008091100184FF06C08F7E8093100182E08B
:101760000E94D70A8091100185FF06C08F7D80936B
:10177000100180E20E94D70A0C94FE0A8091EB01CE
:1017800081111092EB010895E6E8F1E0919189133F
:1017900003C0DF0111971C9291E0EC38F907B1F713
:1017A0000895A6E8B1E0EFEF90E02D91821751F097
:1017B000EF3F19F4211101C0E92F9F5F9630A9F77F
:1017C000EF3F09F408950E2E000CFF0BEC57FE4F6F
:1017D000828308952091EA019091A901291302C002
:1017E00080E0089530E0F90153E0EE0FFF1F5A95B5
:1017F000E1F7E655FE4F5181561306C0508158134C
:1018000003C05281541304C02F5F3F4F2770E6CFAF
:1018100081E008958091EA019091A901981301C097
:1018200008958F5F8770FACF9E3F49F1E82F2BE034
:10183000929FE00D11249E2F9770E695E695E69510
:1018400083E0E89FF0011124E157FE4F50E040E0B3
:1018500080E0219130E0092E02C0369527950A9448
:10186000E2F721703327042E01C0220F0A94EAF711
:10187000822B4F5F5F4F4330510559F7089580E049
:1018800008959E3F69F1E82F2BE0929FE00D11240F
:101890008E2F877041E001C0440F8A95EAF7E695E4
:1018A000E695E69583E0E89FF0011124E157FE4FAD
:1018B00030E020E070E05191DF011197CB01022E62
:1018C00002C0969587950A94E2F7817081958527E5
:1018D000842385278C932F5F3F4F2330310559F7A1
:1018E0000895E92FE295EF70E250EE3070F4F0E0E9
:1018F000EE54FC4C0C940F33803F19F020F4883EDA
:1019000020F481E00895843FE1F380E00895883E6B
:10191000C0F3813FD1F7F5CF93FB882780F9089575
:1019200090E080E00E945E0890E080E00E9448081D
:10193000109254041092EF010C94FE0A8093530409
:101940000C94900C80915304982F9670963019F453
:1019500088600C949E0C877FFCCF21E030E001C0B2
:10196000220F8A95EAF720958091530482230C94E4
:101970009E0C9091EE01809589238093EE01282F93
:10198000277091F4282F082E000C330B92171306A2
:1019900059F09091FF0192FD07C085958595859539
:1019A0000E94AD0C0C94DD0A089521E030E001C0E6
:1019B000220F8A95EAF780915304822B0C949E0C97
:1019C0009091FF0192FD10C098E0899F9001112431
:1019D000622B6093EE010E94D50C0E943C0890930C
:1019E000ED018093EC0108950C94D50C8093520482
:1019F0000C94900C882321F00E94C90A0C94FE0AD2
:101A00000895882339F090915404982B90935404AE
:101A10000C94FE0A0895882321F00E94D00A0C94A9
:101A2000FE0A0895882321F00E94D70A0C94FE0A2A
:101A30000895882309F44BC0823871F40E94740819
:101A400081FF45C089E30E94D10B0E94FE0A89E311
:101A50000E94C40B0C94FE0A833859F40E94740847
:101A600080FF35C083E50E94D10B0E94FE0A83E50A
:101A7000EFCF843859F40E94740882FF28C087E4AD
:101A80000E94D10B0E94FE0A87E4E2CF9CEF980FE0
:101A9000913AF0F290E2980F983050F4877091E00C
:101AA00001C0990F8A95EAF7892F0E94D00AD2CFF8
:101AB0009BE5980F933020F490E080E00C945E0852
:101AC000885A873120F490E080E00C94480808950B
:101AD000829590E09C01220F331F220F331F2C7C34
:101AE00095958795959587958373282B30E0C90147
:101AF000880F991F8A7A359527952575822B089529
:101B00009C013A9521153F4150F5FC01EE27F170FB
:101B1000BC0166277270AC01442754709C012227D7
:101B2000387094FF0EC080E1EF2B09F480E0672B42
:101B300009F08062452B09F08064232B89F08068CE
:101B4000089581E0EF2B09F480E0672B09F08260B3
:101B5000452B09F08460232B19F08860089580E0FC
:101B60000895CF93DF93EC010E94190DCE010E94DE
:101B7000800D9E01205E31092830310510F0CD2BFB
:101B800021F4DF91CF910C940B0DDF91CF910C9448
:101B9000FA0C9FB7F894109239049FBF90914804B3
:101BA000943009F048C02091E9002F703091EC008A
:101BB000932F917030FD90E8922B25E02093E9005F
:101BC0002091EB0020FF34C02091EE0027FF30C0B1
:101BD00020913804222321F02091E80025FF28C01D
:101BE0001092380426E03091E80035FF14C080934D
:101BF000F1008091E80085FD27C08091E80080FF1A
:101C0000FCCF8091E8008E778093E8009F709093DE
:101C1000E90080E0089530914804343049F430916F
:101C2000EB0035FD05C0215041F481E0809338047C
:101C30009F709093E9008FEF0895EFE9FFE03197EF
:101C4000F1F700C00000CFCF8FB7F89421E02093C8
:101C500039048FBFDBCF80933504709337046093D2
:101C60003604809148048430F9F48093E9008FEFC2
:101C70009091E800815095FD06C095ED9A95F1F799
:101C800000008111F5CF8091E80085FF0DC050E084
:101C900040E063E070E085E394E00E94E20680911A
:101CA000E8008E778093E8000895BC0184E00C94EE
:101CB0002B0EBC0183E00C942B0ECF93DF93EC0131
:101CC00081E08093E9008FEF9091E800815095FDCD
:101CD00006C095ED9A95F1F700008111F5CF80913E
:101CE000E80085FF14C050E040E068E070E0CE01FD
:101CF0000E94E2068091E8008E778093E80088E0F9
:101D0000FE01AEE3B4E001900D928A95E1F7DF9118
:101D1000CF91089581E08093E00080E28093D80025
:101D20001092C9008FE19EE40197F1F700C0000016
:101D300087E090EBDC018093550490935604A093C8
:101D40005704B093580488E19CE00FB6F894A89526
:101D5000809360000FBE90936000FFCF019708F45E
:101D60000895EFE9FFE03197F1F700C00000F6CFEA
:101D70000F931F93CF93DF9303E513E0C7E9D1E0FF
:101D8000CE010E946633F80181938F012196C93BF1
:101D9000F1E0DF07A9F7C1E3D5E0FE018591949159
:101DA000009711F0FC0109952896F5E0C138DF078E
:101DB000A1F7DF91CF911F910F9108950F931F937A
:101DC000CF93DF93843000F561111EC024E0829F21
:101DD0008001112450E0440F551F040F151F0957AF
:101DE0001E4FC8010E946633C82FD0E0DC2FCC27DD
:101DF000C80101960E9466339E01282BC901DF911C
:101E0000CF911F910F91089590E080E0F8CF0F934C
:101E10001F93CF93DF93843030F5643020F54B303F
:101E200010F5C42FD0E0CC0FDD1F26E1629FC00D5E
:101E3000D11D112438E5839FC00DD11D1124CE0181
:101E400087960E946633082F10E0102F0027CE01DE
:101E500088960E9466339801282BC901DF91CF91A3
:101E60001F910F91089590E080E0F8CF462F2091C8
:101E7000820230918302232B91F47E3F39F46E3F2E
:101E800071F480918002909181020895843038F439
:101E9000743028F46B3018F4672F0C94070F90E01F
:101EA00080E00895CF92DF92FF920F931F93CF931C
:101EB000DF936C010091530480915204082BC7E01A
:101EC000D0E010E0FC2EC8010C2E02C0959587953D
:101ED0000A94E2F780FD0CC02197A0F7F12C8F2D1A
:101EE000DF91CF911F910F91FF90DF90CF900895D8
:101EF000B6018C2F0E94360F0E942D09019761F3C5
:101F0000EECFCF93DF93EC010E94520FBE010E94EF
:101F1000360FDF91CF910C942D09FC0186819781BA
:101F2000009721F00E942D090C94710C8081918101
:101F30000E94810FF9CF1F93CF93DF9300D000D081
:101F40000F92CDB7DEB749835A8389819A81662380
:101F5000B9F02223A9F00E94520F182F682F89810F
:101F60009A810E94410C69817A81812F0F900F9094
:101F70000F900F900F90DF91CF911F910C94360F1F
:101F80000E94140C182FEFCFFC01262F8681978119
:101F9000009739F4408151816281738184810C946E
:101FA0009B0F089583E290E00E9466338C3E89F493
:101FB00084E290E00E9466338F3959F485E290E024
:101FC0000E94663391E08A3509F090E0892F817094
:101FD000089580E0FCCFCF9384E090E00E946633C8
:101FE000C82F82E290E00E946633982F8C2FCF9109
:101FF00008950F931F93CF93DF9303E513E0C7E991
:10200000D1E0CE010E946633F80161918F0168171B
:1020100019F0CE010E9474332196C93BF1E0DF072D
:1020200081F7DF91CF911F910F910895E3E5F3E0E0
:10203000128E138E8FEA90E09183808385E0848FE7
:1020400088E893E19383828382E390E0978B868B89
:1020500088EC90E0918F808F158E8AE090E0978FCA
:10206000868F80E590E091A380A30E94F90F0C94E5
:10207000B80ECF93DF93C9E5D2E060E0CE010E94B5
:1020800074332196C11584E0D807B9F7DF91CF9159
:1020900008950F931F93CF93DF938901843028F520
:1020A000611123C0423008F521153C4531F42091DF
:1020B000120130911301232BC1F094E0899FE001BC
:1020C000112450E0440F551FC40FD51FC957DE4FD0
:1020D000612FCE010E947433602FCE010196DF91F3
:1020E000CF911F910F910C947433DF91CF911F9179
:1020F0000F9108950F931F93CF93DF93890184303D
:1021000048F5643038F54B3028F521153C4531F45D
:102110002091120130911301232BE1F0C42FD0E064
:10212000CC0FDD1F96E1699FC00DD11D112498E5EC
:10213000899FC00DD11D1124612FCE0187960E9469
:102140007433602FCE018896DF91CF911F910F914C
:102150000C947433DF91CF911F910F910895CF9319
:10216000C82F6FEF81116CEE83E290E00E94743310
:102170006FEFC1116FE984E290E00E9474336FEF5A
:10218000C1116AE585E290E0CF910C947433CF934E
:10219000C091FF01C2FB992790F9981799F080FB35
:1021A000C2F9C093FF016091FE0184E090E00E94BB
:1021B00074336C2F82E290E00E94743382E0CF91FE
:1021C0000C94B90CCF9108957F928F929F92AF9209
:1021D000BF92CF92DF92EF92FF920F931F93CF9314
:1021E000DF93CDB7DEB764970FB6F894DEBF0FBEAE
:1021F000CDBFA0901201B090130181E090E09093C8
:102200001301809312018BECC82E83E0D82E10E0CE
:10221000760100E015C0F40125913491472D602F1F
:10222000812F0E947A1082E0880E911C7394EBE05B
:102230007E12F1CFF6E1EF0EF11C0F5F043019F0C2
:102240004701712CE8CF21E030E040E060E0812FD1
:102250000E94491021E030E041E060E0812F0E94BF
:1022600049101F5F88E5C80ED11C143089F60E9402
:1022700016101A8219821C821B821E821D821886E9
:102280001F8288EC90E09A87898709EB11E04AE089
:1022900050E0B801CE0101960E949833065F1F4FAF
:1022A0000930E2E01E0799F77E01FBE0EF0EF11C1A
:1022B0008AE0F70111928A95E9F74AE050E0B80107
:1022C000C7010E949833065F1F4F0935F2E01F07D0
:1022D000A1F7B0921301A092120164960FB6F89480
:1022E000DEBF0FBECDBFDF91CF911F910F91FF9049
:1022F000EF90DF90CF90BF90AF909F908F907F90A6
:10230000089580E00E94AF1060E086E290E00E94B5
:1023100074330E94E4100E94391081E00C94AF10D5
:102320009B01883070F49AE0899FB00111246754B2
:102330007E4F4AE050E0C9010E94563390E080E0B1
:1023400008958FEF9FEF08958F929F92AF92BF9263
:10235000CF92DF92EF92FF920F931F93CF93DF9371
:10236000CDB7DEB72A970FB6F894DEBF0FBECDBF4C
:102370000AE713E0F12CE12C8CECC82E8AE2D82E6F
:1023800096EFA92E9AE2B92E24EE822E29E2922E01
:10239000F801D182C082B382A28295828482F58ABA
:1023A000E48ABE016F5F7F4F8E2D0E949011892BB2
:1023B00029F489859A85F801938B828BFFEFEF1AB8
:1023C000FF0A0A5E1F4F88E0E816F10409F72A9613
:1023D0000FB6F894DEBF0FBECDBFDF91CF911F9136
:1023E0000F91FF90EF90DF90CF90BF90AF909F90B4
:1023F0008F900895CF92DF92EF92FF920F931F93E9
:10240000CF93DF93CDB7DEB72A970FB6F894DEBF30
:102410000FBECDBFE0E3F2E080E5DF011D928A95BB
:10242000E9F7EDE0F3E088E3DF011D928A95E9F733
:1024300080E3C82E82E0D82E7F0109E012E0F70188
:10244000D182C0824AE050E0B801CE0101960E94DC
:10245000563388E0FE013196D60101900D928A959F
:10246000E1F789859A85D70113969C938E931297ED
:10247000BAE0CB0ED11CE7E0EE0EF11C065F1F4F59
:102480000935F2E01F07D9F62A960FB6F894DEBF99
:102490000FBECDBFDF91CF911F910F91FF90EF90B5
:1024A000DF90CF90089510928402E6E8F1E086E094
:1024B000DF011D928A95E9F70C94900C1F93CF933E
:1024C000DF93CDB7DEB7AA970FB6F894DEBF0FBE85
:1024D000CDBF8AE494E02091F100DC012D93CD0181
:1024E000B4E082359B07B9F780914B04833009F43F
:1024F00072C0B8F4813009F449C0823009F4B3C025
:102500008091E80083FF9CC280914A0490914B0423
:102510009A3008F095C2E92FF0E0E054FC4C0C949E
:102520000F338A3009F48EC08B3009F471C08930C2
:1025300039F780914A04813219F780914E049091C5
:102540004F04009711F00297D9F68091E800877F39
:102550008093E8008091E80082FF38C09091F300FA
:102560008091F200029731F48091F100813011F0F6
:10257000863021F48091F10080933D048091E80041
:102580008B778093E8000E940C07BACF80914A04B1
:10259000813A09F0B5CF8091E800877F8093E80009
:1025A00080914E0490914F04892B61F468E08EE392
:1025B00094E070E00E94BE078091E8008B778093E2
:1025C000E8009ECF60E090E080E0F3CF8091480487
:1025D0008111C0CF95CF80914A04813A09F090CF04
:1025E00080914E0490914F04892B09F089CF8091FE
:1025F000E800877F8093E8008091E80080FFFCCFAF
:10260000809114018093F1008091E8008E77B9CF1A
:1026100080914A04813209F073CF80914E049091E9
:102620004F04892B09F06CCF8091E800877F80935D
:10263000E8000E940C0780914C04809314010E94D2
:1026400053125ECF80914A04813209F059CF8091B4
:10265000E800877F8093E8000E940C0780914D047A
:1026600080933C044DCF80914A04813A09F048CFD1
:102670008091E800877F8093E8008091E80080FFE8
:10268000FCCF80913C04BECF803899F0823809F0AD
:10269000D7C180914E048F70873008F0D1C18093EC
:1026A000E9008091EB0085FB882780F91092E90012
:1026B00006C08091460490914704911182609091E8
:1026C000E800977F9093E8008093F1001092F1006A
:1026D0008091E8008E77B0C1882309F49EC18230D2
:1026E00009F0AEC180914C048111A1C180914E04CA
:1026F0008F702FEF280F263008F0A2C18093E900D9
:102700002091EB0020FF93C1933031F48091EB00D6
:1027100080628093EB008BC19091EB00906190936D
:10272000EB0021E030E001C0220F8A95EAF7209308
:10273000EA001092EA008091EB008860EACF8111F4
:102740007FC110914C041F778091E3008078812B2A
:102750008093E3008091E800877F8093E8000E94E7
:102760000C078091E80080FFFCCF8091E300806837
:102770008093E30082E0111183E08093480460C1FC
:102780008058823008F05CC120914C0430914D0497
:102790002C3DE3E03E07A1F583E08A838AE289834A
:1027A0004FB7F894DE01139620E03EE051E2E32FAC
:1027B000F0E050935700E49120FF03C0E295EF70E2
:1027C0003F5FEF708E2F90E0EA30C0F0C7968D9398
:1027D0009D932F5F243159F74FBF8091E800877F89
:1027E0008093E8006AE270E0CE0101960E94BE0785
:1027F0008091E8008B778093E80022C1C096E7CFF4
:1028000080914E0490914F04432F5527433051053A
:1028100009F44AC078F54130510509F485C08BE7C9
:1028200090E0EEE5FAE04230510509F009C120914F
:10283000E800277F2093E800209150043091510454
:102840008217930708F49C0140E02115310509F037
:1028500070C041116EC08091E80082FDC9CF8091A7
:102860004804882329F2853019F28091E80083FF1B
:10287000F2CFBECF4132510509F447C04232510573
:1028800009F0DEC08430910508F0DAC0FC01EE0FDB
:10289000FF1FEF58FE4F0190F081E02D83599E4FAE
:1028A000DC018C9190E01DC0332721303105E9F027
:1028B0002115310579F022303105F9F02330310549
:1028C00009F0BEC0EBEEFAE0E4918E2F90E0EBEE63
:1028D000FAE007C0E1E3FBE0E4918E2F90E0E1E352
:1028E000FBE0009709F4ACC0A2CFE7E1FBE0E49184
:1028F0008E2F90E0E7E1FBE0F4CFE9E0FBE0E4912C
:102900008E2F90E0E9E0FBE0ECCF8430910508F0F9
:1029100097C0880F991FFC01E758FE4F0190F08186
:10292000E02D89E090E083CF82E190E0E9EDFAE0EC
:102930007ECF80914804882309F45ACF853009F46A
:1029400057CF8091E80083FD53CF8091E80082FD4E
:1029500082CF8091E80080FF78CF9091F300809142
:10296000F2002115310519F08830910550F041E051
:10297000089709F040E08091E8008E778093E800A6
:1029800064CF44914093F100319621503109019672
:10299000E8CF803809F054C08091E800877F8093A9
:1029A000E800809149048093F10092CE811148C0E3
:1029B00010914C04123008F043C08091E800877FEA
:1029C0008093E800109349040E940C07112311F032
:1029D00084E005C08091E30087FDFACF81E0809319
:1029E000480442E061EC81E00E942B0742E261EC86
:1029F00084E00E942B0742E261EC82E00E942B07F8
:102A000042E260EC83E00E942B0742E261EC85E049
:102A10000E942B078091480413C080914C048130A0
:102A200079F481E0933009F080E0809347041092BC
:102A3000E9008091E800877F8093E8000E940C07FE
:102A40008091E80083FF0AC08091E800877F80932F
:102A5000E8008091EB0080628093EB00AA960FB6AD
:102A6000F894DEBF0FBECDBFDF91CF911F910895C7
:102A7000CF93C82F1F928F9385E49AE09F938F93F3
:102A80000E94890681E001C0880FCA95EAF70E947A
:102A9000F60C0F900F900F900F90CF910C94531253
:102AA0006AEE7EEF90E080E00E94923360E082E088
:102AB00090E00E94743360E083E090E00E94743301
:102AC0001092520460E084E090E00E94743360E071
:102AD00082E290E00E94743360E085E090E00E9422
:102AE000743360E086E090E00E9474336FEF87E01B
:102AF00090E00E94743340E050E0BA0188E090E03A
:102B00000E94863360E08DE090E00E94743340E0E4
:102B100050E0BA0188E190E00E94863360E087E1EE
:102B200090E00E94743340E050E0BA018CE190E004
:102B30000E94863370E060E080E290E00E94923371
:102B400040E050E0BA0188E190E00E94863380E0E6
:102B50000E94AF100E94811140E050E0BA018FE066
:102B600090E00E94863340E050E0BA0183E190E0BB
:102B70000C948633EF92FF920F931F93CF93DF93C2
:102B80008B3109F415C108F0A3C08B3009F4CFC014
:102B900008F081C0863009F4DDC048F4853009F4BE
:102BA000A5C086EA99E00E94F00580E0E3C0873086
:102BB00009F4E7C08830A9F783E090E00E9466330B
:102BC0001F928F9389EA96E09F938F930E948906C4
:102BD00082E090E00E94663383FB992790F91F9270
:102BE0009F9382FB992790F91F929F9381FB9927CE
:102BF00090F91F929F93982F91701F929F931F920D
:102C00008F9380E696E09F938F930E9489060E949F
:102C1000EB0F87FB222720F91F922F9386FB222799
:102C200020F91F922F9385FB222720F91F922F93C3
:102C300084FB222720F91F922F9383FB222720F960
:102C40001F922F9382FB222720F91F922F9391FB33
:102C5000222720F91F922F93292F21701F922F9343
:102C600081FB222720F91F922F93282F21701F927A
:102C70002F939F938F938BE795E09F938F930E9461
:102C800089068DB79EB788960FB6F8949EBF0FBE83
:102C90008DBF81E06FC0803109F4A2C080F48E3016
:102CA00009F07FCF90915203892F8B7F92FF846030
:102CB0008093520382FF91C081ED99E085C08631F7
:102CC00009F49EC0893109F06CCF84E898E031C0E6
:102CD0008A32C9F110F5873291F128F48E3108F467
:102CE00060CF8D512DC0893209F05BCF84E19AE02D
:102CF0000E94F0058091120190911301892B49F2F5
:102D00000E9453129FEF24E38CE0915020408040BA
:102D1000E1F700C000000E948A0E833468F48A3311
:102D200008F093C0853359F0883309F03ACF86EC28
:102D300096E00E94F005ADCF833409F032CF80E0F9
:102D40000E943815A6CF84E39AE00E94F0050E9405
:102D500050159FCF80915203807F8093520389E664
:102D600098E00E94F00580E39AE00E94F00581E07F
:102D700080935103DF91CF911F910F91FF90EF90BE
:102D8000089590915203892F8E7F90FF81608093E8
:102D9000520380FF03C088E09AE0CBCF8BEF99E02D
:102DA0000E94F00580915203817F8093520371CF7E
:102DB00090915203892F8D7F91FF826080935203FF
:102DC00081FF08C08EEE99E00E94F00580915203C9
:102DD0008160EBCF80EE99E0ACCF81EC99E0A9CF98
:102DE00090915203892F877F93FF886080935203CD
:102DF00083FF03C085EB99E0E7CF88EA99E099CF9C
:102E00000E943008162F072FF82EE92ED0913C048F
:102E1000C09114010E947408EF92FF920F931F93C8
:102E20001F92DF931F92CF931F928F938BE399E0B2
:102E30009F938F930E9489068DB79EB70C960FB60D
:102E4000F8949EBF0FBE8DBF24CF895379CFCF9307
:102E5000C82F882309F46BC08238C1F40E9474081B
:102E600081FD65C089E30E94D10B0E94FE0A2FEF0D
:102E700081EE94E0215080409040E1F700C00000D6
:102E800089E30E94C40BCF910C94FE0A8338A1F40D
:102E90000E94740880FD4BC083E50E94D10B0E9404
:102EA000FE0A2FEF81EE94E0215080409040E1F740
:102EB00000C0000083E5E5CF8438A1F40E947408C7
:102EC00082FD35C087E40E94D10B0E94FE0A2FEFDD
:102ED00081EE94E0215080409040E1F700C0000076
:102EE00087E4CFCF8CEF8C0F813A08F043C08091FC
:102EF0005103882399F08130E1F010925103E6E804
:102F0000F1E08CE891E02191C21709F45AC08E17C4
:102F10009F07C9F78C2F0E94D10BB5CF80918402F7
:102F2000823269F78C2F0E94BA15882341F3CF9122
:102F30000895809184028232A9F3C431B9F038F443
:102F4000CB3049F082E192E00E94F00511C0C93215
:102F500069F0C833B9F789E698E00E94F00584E18A
:102F600092E00E94F00581E08170DFCF1092510362
:102F700080E0FACF80E28C0F883048F4C77081E09F
:102F800001C0880FCA95EAF70E94D70A7CCFEBE50B
:102F9000EC0FE33040F4F0E0E35EFE4F808190E020
:102FA000CF910C945E08C85AC73108F6EC2FF0E0B8
:102FB000EE0FFF1FE05EFE4F80819181CF910C9458
:102FC00048088C2F0E94C40B0E94FE0AA3CF1F93B7
:102FD000CF93DF93182FC0917303D091740389337B
:102FE00021F0C0917103D0917203812F0E942717A5
:102FF000209731F4812FDF91CF911F910C94190DFF
:103000008FE99FE00197F1F700C000002197F0CF12
:103010000F931F93CF93DF93C42FD22FFC01828194
:103020008823A1F0409377030E943C089093760395
:1030300080937503C77081E001C0880FCA95EAF7D5
:10304000DF91CF911F910F910C94120D1091770386
:10305000141339C080917503909176030E94210862
:1030600020916B0330916C038217930760F5C0E2E7
:10307000CD0F1D17B9F080E2810F883040F4177032
:1030800081E001C0880F1A95EAF70E940B0DC83045
:1030900048F481E09D2F977001C0880F9A95EAF758
:1030A0000E94120D802F0E94E717C83098F4D77045
:1030B00081E001C0880FDA95EAF7DF91CF911F9187
:1030C0000F910C940B0DC77081E001C0880FCA9559
:1030D000EAF7F3CFDF91CF911F910F910895AF924F
:1030E000BF92CF92DF92EF92FF920F931F93CF93F5
:1030F000DF93EC018AE0A82E2881222309F48CC0FA
:103100002130C9F599818A81913021F422960E945B
:10311000E71705C0923029F422960E9427172196BE
:10312000EBCF933021F422960E94190DF8CF943002
:1031300011F02196F4CF229630E020E0AE014F5FEF
:103140005F4F8053990B8A30910550F0215031091F
:1031500030F38FE99FE00197F1F700C00000F6CF50
:10316000A29EB001A39E700D11249C01260F371F53
:103170008981EA01E3CFE22FF0E0EE56FE4FB490F2
:10318000822F86958695869590E0FC01EE57FE4F3E
:10319000E4902770F12C022E02C0F594E7940A9473
:1031A000E2F731E0E322FF24FC01EE58FE4FC49029
:1031B000D12C022E02C0D594C7940A94E2F731E0D4
:1031C000C322DD24FC01EE59FE4F049110E002C041
:1031D000159507952A95E2F701701127E114F1047E
:1031E00019F081EE0E942717C114D10419F086EE60
:1031F0000E9427178B2D0E94E717CD2819F086EE25
:103200000E94190DEF2819F081EE0E94190D012B73
:1032100009F485CF8CE27BCFDF91CF911F910F9185
:10322000FF90EF90DF90CF90BF90AF900895CF9335
:10323000DF93EC010E94800D9E01205E3109283051
:10324000310510F0209739F40E94120D8C2FDF9178
:10325000CF910C9427170E94010DF8CF662329F017
:10326000209154042260209354049C01305621156F
:1032700040E2340720F0305E2115304108F49927F0
:103280000C941719DF92EF92FF920F931F93CF9335
:10329000DF937C018B01D42E8091100182FF8CC0C2
:1032A000C091A702D091A802CE15DF0521F0E1144C
:1032B000F10409F081C0809110018B7F809310018F
:1032C00081FD73C08091A5029091A602A801481BC0
:1032D000590B81E020910E0130910F0142175307E5
:1032E00008F480E08170F82E80911001F0FA81F9E5
:1032F00080931001FE0183E0F695E7958A95E1F74A
:10330000EE71FF27EB57FD4F20813181AE014F70E9
:10331000552781E090E002C0880F991F4A95E2F797
:10332000FF2009F444C0822B932B918380838091EA
:10333000840281FF08C08091100180618093100198
:1033400082E00E94D00A8091840285FF08C08091AB
:10335000100180628093100180E20E94D00A6F2DDC
:10336000CE010E942E19DD2031F080916E0385FF81
:1033700002C086FF3BC080917103909172030E944E
:10338000AE0E8091A7029091A8029C0130562115A3
:1033900040E2340720F0305E2115304108F49927CF
:1033A0000E94B10D0E94A00B1DC081E09BCF8095B3
:1033B000909582239323B9CFC7019927970130565F
:1033C000211540E2340728F0305E2115304108F025
:1033D000C7010E94B10D8091A7029091A8028E159D
:1033E0009F0501F31093A6020093A502DF91CF91F0
:1033F0001F910F91FF90EF90DF9008958F929F9211
:10340000AF92BF92CF92DF92EF92FF920F931F93F2
:10341000CF93DF9300D000D0CDB7DEB77C01DC01C5
:1034200013964D915C91149711966C9111978C9114
:103430000E948008811179C061E0C7010E94C40F19
:103440008C01F7018281811111C0D70112968C91F4
:10345000811149C00031FFE51F0709F4EEC00131B9
:103460002FE5120709F0FCC682E0E8C08091000158
:1034700090910101019649F36AE7C62E63E0D62ECA
:10348000B12CA12C99249394809100019091010179
:103490008A159B05D4F2F60186818823E9F081859F
:1034A00092850817190739F4809178039091790370
:1034B0000817190789F0D6011F969C921F971C9632
:1034C0001C930E931B97C6010E947F0BC6010696A4
:1034D0000E943A0B10925404BFEFAB1ABB0AE6E10C
:1034E000CE0ED11CD1CF980122513F45203131055C
:1034F00008F0ACC68FEF93E00E9466335EEED52EE7
:10350000D00E09E512E0882369F18091EE01877001
:1035100061F0D70112968C91882339F08091FF01D8
:1035200082FD03C082E00E94B90C0F900F900F90B3
:103530000F90DF91CF911F910F91FF90EF90DF904F
:10354000CF90BF90AF909F908F9008950115F4E0B9
:103550001F07D9F2C8010E946633811101C0DA94B5
:103560000F5F1F4FD110F2CF19821A821B821C826B
:10357000CC24CA9448012FEF821A920AC8010E94F3
:10358000663389831A82882309F4BFCF813009F01A
:1035900048C0580132E0A30EB11CC4010E9466333A
:1035A000982E8A83882309F4B0CFC5010E94663320
:1035B000D82E8FEF890D833068F4580143E0A40EB4
:1035C000B11CDB82DD2021F0CE0101960E946F1834
:1035D0008501D0CF54E09512FBCF580184E0A80EAE
:1035E000B11CC80103960E946633DD2009F48DCF1B
:1035F000882309F48ACF8150990BC89E9001C99EF7
:10360000300D1124AD2DA150BB0BCD01820F931FA6
:103610000197F0F2EFE9FFE03197F1F700C0000009
:10362000F7CFCE0101960E946F185401D1CF81E0EF
:103630000E94D50C0E94A20C68CF81E00E94AD0CC4
:10364000F9CF82E0F5CF4FEFC416D10411F008F0A6
:1036500013C666E272E08C2D0E949011892B29F529
:1036600086E18C9DF0018D9DF00D1124E658FC4FF4
:103670008681813009F062C08091260290912702F4
:10368000892B99F08091280290912902892B69F069
:1036900080912A0290912B0220912C0230912D02D0
:1036A000822B932B892B09F453C0809100019091B8
:1036B00001018C159D0524F4D0920101C0920001F6
:1036C000F701828196E19C9D50019D9DB00C1124D3
:1036D000950126583C4F6901D90150968C9350971B
:1036E000928116968C911697992309F43FC01A96E9
:1036F0001C930E9319978F5F16968C930E943C082B
:10370000F601968785878091F20187838091540422
:1037100090918402892B80870190F081E02D309771
:1037200041F0D60154966D917C91C50180589C4F13
:10373000099510937903009378039EC5823009F0B0
:10374000B4CF80912A0290912B02892B09F4ADCF3E
:1037500026E12C9DC0012D9D900D112486589C4F73
:10376000DC0150961C920E947F0B9FCF882309F4A6
:1037700083C5F9018189882309F47EC5C501805874
:103780009C4F0E943A0B78C5809110018160809314
:103790001001A0C5809110018E7F809310010E94BE
:1037A000A00B98C5809110018F7E013E110531F06C
:1037B000053E1105C9F4809110018F7D80931001A1
:1037C0008091100180FF95C5D70112968C91083227
:1037D000110528F50E31110508F074C004301105EB
:1037E00080F5811182C585C5C8019056811540E2DA
:1037F000940720F0905E8115904110F780911001A0
:1038000082FF77C58091700381FD73C526EF31E09B
:1038100040E0B60190E080E00E9442196AC5093399
:10382000110558F40D32110518F40B321105C9F6C3
:1038300090916E0392FDD5CF08C004361105C1F3F7
:10384000D0CF90916E0394FDCCCF882309F4A1C012
:10385000909184028091F201282F292B322F3D7FF5
:10386000B1F11092A8021092A70230916E0331FDBF
:103870002EC0F80143E0F695E7954A95E1F7EE7121
:10388000FF27EB57FD4F98012F70332781E090E021
:1038900002C0880F991F2A95E2F7809590952081A4
:1038A0003181822393239183808360E0C8010E9449
:1038B0002E198091F2018D7F0E94B50A82E00E944C
:1038C000B90C23CE90916E0393FD8BCFBECF38E021
:1038D000F701A6EFB1E001900D923A95E1F7109251
:1038E000F8011092FA011092F901A090A702B0908D
:1038F000A8020A151B05B1F530916E0335FF32C0E1
:103900004091100141FB992490F841FF02C036FF1D
:1039100029C04091A5025091A602B601641B750B07
:1039200040916B0350916C0364177507D8F491FFB5
:1039300008C08091100180618093100182E00E9494
:10394000D00A8091840285FF08C0809110018062B6
:103950008093100180E20E94D00A692DC5010E9467
:103960002E19D3CD9091100121FB91F99093100164
:103970008D7F0E94B50A1093A8020093A702D092EF
:10398000A602C092A502809110018460809310016C
:1039900095CF970140E0B601C8010E944219B5CD0C
:1039A000053F4CE5140709F467C008F45FC0063F03
:1039B0008CE5180709F466C0D70112963C913323B1
:1039C00009F4B6C4109277030330BDE51B0708F075
:1039D00065C00A3FECE51E0730F4C80182509C45E3
:1039E000449708F060C00E94EB0F9093FF01809312
:1039F000FE0100312CE5120709F461C108F0DDC0B9
:103A000008304CE5140709F448C108F0AFC0043091
:103A10008CE5180709F433C108F095C00230ACE515
:103A20001A0709F426C18091FE01826003301C450B
:103A300009F422C16091FE011091FF0184E090E041
:103A40000E947433612F82E290E00E9474330E94DE
:103A500053125BCD07E225EE45EE68ED7CE564C4CC
:103A600006E221EE40EE63EF7CE55EC407E225EE60
:103A700044EE64EF7CE558C406E221EE42EE65EFC9
:103A80007CE552C407E225EE46EE66EF7CE54CC4C9
:103A900008E221E045EE69ED7CE546C40136FDE52E
:103AA0001F0709F4A0CF06315CE5150709F444C4EB
:103AB0000A354DE5140709F453C108F02FC101156B
:103AC0008CE5180709F43CC10E3D1C4509F445C1BD
:103AD000F70186819781009709F446C10E942D095C
:103AE000182F092FF701C280D580D2943FE0D3224E
:103AF0008091EE018770C1F0AC2CCC20B1F0892F01
:103B0000807F803421F080E2810F883068F08091DE
:103B1000FF0182FD09C082E00E94B90C8091EE0194
:103B20008770AA24A3948111A12C902E92942FE047
:103B30009222FBE0F91508F4A4C1E92DF0E0E65368
:103B4000FC4C0C940F338091FE0180610630ECE553
:103B50001E0709F491C08091FE01886007301C4562
:103B600008F48AC08091FE01806286C08091FE01C7
:103B70008D7F0C302CE5120709F47EC070F4809123
:103B8000FE018C600A304CE5140709F475C008F496
:103B900088C08091FE018E7F6FC00E308CE51807C3
:103BA00009F485C08091FE018B7F0F301C4508F41D
:103BB00063C08091FE018F7E5FC00C3FACE51A07A9
:103BC00009F479C068F50431ECE51E0709F48BC0EF
:103BD00080F402312CE5120709F475C08091FE01D2
:103BE0008F7B03311C4508F447C08091FE01837F21
:103BF00043C00A3F4CE5140709F445C008F049C02A
:103C000005311C4509F016CF8091FE0182FB9927F2
:103C100090F921E0922790FB82F990FB83F92CC068
:103C200001159DE5190709F454C088F48091FF013E
:103C300083600E3FBCE51B0749F18091FF018D7F3A
:103C40000F3F1C4518F18091FF018C7F1FC002308F
:103C5000FDE51F0709F456C008F44EC001361D45A6
:103C600009F0E8CE9091FE01892F8F7E94FF80614C
:103C700003C08091FE0181608093FE01DBCE8091C4
:103C8000FE018460F9CF8091FF0181608093FF0184
:103C9000D1CE8091FF018260F9CF8091FE018064D6
:103CA000EBCF0E9453128091FE018068E5CF809196
:103CB000FE01877FE1CF8091FF018E7FE7CF80916A
:103CC000FE018F7DD9CF0E9453128091FE018F7724
:103CD000D3CF8091FF01982F909591708E7F892B83
:103CE00090FB81F9D3CF0E9453129091FE01892F4E
:103CF00097FB87F98058C0CF61E08EE090E00E948A
:103D0000743398CE60E0F9CF80918C01811104C0AA
:103D100089E20E94C40B3BC385E3FBCF0B35ADE5C5
:103D20001A0701F10C351D4509F0D2CE8091FF0133
:103D300082FB882780F991E089270E94C710C8CEAE
:103D40000E945312EFEFF4E32CE0E150F0402040EA
:103D5000E1F700C000000E948A0E0E945015D5CBEA
:103D600081E0EBCF80E0E9CF82810081118188235F
:103D700069F0C8010E94520FD82E682FC8010E9416
:103D8000410CB8018D2D0E94360FA8CEC8010E94AB
:103D9000140CD82EF6CF202F2F70B22E802F807FBC
:103DA00019F0B29490EFB922CC20A9F0BB2059F0C1
:103DB00080E2810F883010F0111107C08B2D0E9416
:103DC000D70A0E94FE0A812F5AC080915404B82A53
:103DD000B0925404F6CF812F0E94190DBB2009F434
:103DE00050C080E2810F883010F0111104C08B2D7B
:103DF0000E94D00A03C08B2D0E94C90A0E94FE0AAD
:103E000040C0302F3F70B32E802F807F803219F05A
:103E1000B29480EFB822112321F1113009F4A4C02B
:103E2000CC2009F4ADC0DD2009F47DC020E0D7012D
:103E30004C9111965C91119712966C911297139672
:103E40007C91139714968C910E949B0F8091700324
:103E500081FDB9CFF701858180FFB5CF8F70858354
:103E600062C08091FF0182FF40C0CC20C1F1BB2025
:103E700029F08B2D0E94D70A0E94FE0A80E00E9442
:103E80002717A92DA850BB0B149710F40E94740893
:103E9000812F902F0E94710C8111B9C110928E0157
:103EA00010928D01AA20B1F08091EE0180FD12C028
:103EB000D70112961C928595859585950E94D50C03
:103EC000C7010E94FE198091EE0185958595859523
:103ED0000E94AD0C60E0C7010E94C40F26CB80E0B9
:103EE0000E94190DBB2069F282CFCC2001F1D110C4
:103EF00004C08091F2018B2917C041E0D41206C0A2
:103F00008091F2018B290E94B50ABBCF80916F038B
:103F1000823078F3D812EDCF0E94AA0A8091EB018B
:103F2000B812B092EB018B2D0E94120DAACFD110C6
:103F300006C00E94AA0A8B2D0E940B0DA2CF809171
:103F40006F0351E0D5120BC0823008F49ACF8091F4
:103F500084028B2109F495CF0E94BE0BEACF8230F8
:103F600040F38D11E6CF8DCFCC2029F085E08D1563
:103F700008F487CFD8CF94E09D1508F482CFDBCF2B
:103F8000DD20C9F28091730390917403193321F0FD
:103F900080917103909172030E94AE0E812F0E9456
:103FA000190D6FCF802F86958695837069F08130CB
:103FB00009F067CF812F902F9370C11002C090E05D
:103FC00080E00E9448085DCF812F902F9370C11030
:103FD00002C090E080E00E945E0853CF802F837083
:103FE00091F5C1104ECF412F429546954770440F31
:103FF000440F812F8F70042E01C0880F0A94EAF7B6
:10400000212F207114FF07C02FE030E001C0220FE4
:104010004A95EAF72095302F369536953370323031
:1040200069F050F440915204313029F0822B8423FE
:104030000E94F60C26CF842B822BFACF282B80915E
:1040400052048227F5CF8695CC2011F0802F817005
:10405000882309F416CF412F429546954770440FA7
:10406000440F812F8F70042E01C0880F0A94EAF745
:10407000212F207114FF07C02FE030E001C0220F74
:104080004A95EAF72095302F3695369533703230C1
:1040900069F050F440915304313029F0822B84238D
:1040A0000E949E0CEECE842B822BFACF282B80917F
:1040B00053048227F5CFF02FFF70BF2ECC2029F0BC
:1040C0008F2F0E94D50C812F2FCF812F0E940B0D97
:1040D0008B2D0E94AD0CD5CE123F89F160F4103FBC
:1040E000B9F0113F81F0CC2009F48CC0D1106BCE17
:1040F000802F8F7128C0133F49F1143FA1F78091A1
:10410000FF0182FF2FC0802F8F71CC2011F31BC0C5
:10411000CC2081F024E02D1508F4B3CE202F2F7190
:1041200081E090E001C0880F2A95EAF7909153044E
:104130008927B6CF35E03D1508F4A3CEEFCF802F09
:104140008F71C110C6CF0E94D50C9BCE80E0CC20D1
:1041500009F4A6CF81E0902F9F7101C0880F9A9536
:10416000EAF79ECF80916F038230A0F18091EB013E
:10417000CC20F1F00E94D00A8091EE01877084304B
:1041800041F40E94DD0A802F8F710E94AD0CA12C9A
:1041900078CE80916F03D816D0F7402F4F71B42E90
:1041A000842F0E94D50C63E08B2D0E94E00CEFCF92
:1041B0000E94D70A80916F03D81640F00E94DD0A52
:1041C0000E94BE0B64E0802F8F71EFCF81E00E94D0
:1041D000B90CDDCFCC2059F0502F5F71B52E852F53
:1041E0000E94D50C63E08B2D0E94E00C4ACE81E04A
:1041F0000E94B90C81E08D1508F043CE82E00E9448
:10420000B90C3FCED110BECE802F8F7162CFCC20A3
:1042100019F0D11043CE46CED11040CE20E0F701A8
:10422000408151816281738184810E949B0F8091C2
:10423000700383FF33CE80918D0190918E010297A0
:1042400009F02CCE812F0E94E71728CE0031BFE560
:104250001B0709F4ECC90131EFE51E0709F4F1C9A8
:10426000680127E5D21A882309F4EDC93FEFC31688
:10427000D10409F008F419CA80916E0380FF39C097
:104280000E943C086C01D70112968C91882309F496
:1042900089CA8091100182FF08C026EF31E040E01A
:1042A000B60190E080E00E9442190B31BCE51B078B
:1042B00009F46ACA0C31ECE51E0709F46BCA909147
:1042C0001001892F8E7F90FF81600A31FCE51F0766
:1042D00009F463CAC8019056811520E2920728F0BC
:1042E000905E8115904108F06BCA1092A80210925E
:1042F000A702033FBCE51B0709F4B2CB08F050CB83
:10430000083DFCE51F0709F4A5CB093D2CE5120784
:1043100009F4BECB073D3CE5130709F04DCB06E29F
:1043200021EE41EE67ED7CE5C7010E940818EDC85B
:1043300006311C4509F0CCCB80918402982F9A7AE3
:1043400020916D0320FF04C0482F447409F090E0D1
:1043500021FF04C0482F417109F090E022FF04C002
:10436000482F487809F090E023FF03C0827209F0DB
:1043700090E0332309F4C8CC81E0911101C080E0C2
:1043800080938C0189E2911185E30E94D10B0E94F8
:10439000FE0ABBC8CF92DF92EF92FF920F931F935A
:1043A000CF93DF938091A601807F31F48091A301A8
:1043B000C091EA0181110BC0DF91CF911F910F9144
:1043C000FF90EF90DF90CF9008952196C770809175
:1043D000A9018C1789F3F090A101E090A201C0908F
:1043E000A401D090A501A6016E2D8F2D0E948008FA
:1043F000D0E08111EACF8E0183E0000F111F8A9572
:10440000E1F7F801E655FE4F81818E11DECF808104
:104410008F11DBCF82818111D8CFE380F480EC183B
:10442000FD0860E081EA91E00E94C40F80916B0377
:1044300090916C03E816F90640F68091A6018F7002
:1044400080618093A601F801E155FE4F80818F7055
:104450008061808381EA91E00E94FE19DF91CF9113
:104460001F910F91FF90EF90DF90CF900C940A0C6A
:104470003F924F925F926F927F928F929F92AF92F4
:10448000BF92CF92DF92EF92FF920F931F93CF9341
:10449000DF93CDB7DEB765970FB6F894DEBF0FBEDA
:1044A000CDBF8C0185E0F801DE01519601900D929F
:1044B0008A95E1F7D8014C9011965C90119712966D
:1044C000EC9012971396CD90DC9060E081EA91E039
:1044D0000E94C40F81EAA82E81E0B82E8090A4012A
:1044E0009090A501A4016091A2018091A1010E9478
:1044F00080088111CAC1F090A301F601E819F909F9
:104500004F0160E0FF2009F46DC1C5010E94C40F96
:1045100060906B0370906C033090A6018614970432
:1045200008F013C14091A4015091A501B090A101E0
:10453000A090A201832D807F6A2D09F0ADC08B2D44
:104540000E948008FE2C81113BC0D80111968C91ED
:1045500011978A1135C08C918B1132C02091A7011F
:104560003091A80116968D919C912817390741F535
:10457000E11026C0832D8F7080618093A60181EAAF
:1045800091E00E94FE198091A601F80185838F2D8C
:1045900065960FB6F894DEBF0FBECDBFDF91CF9109
:1045A0001F910F91FF90EF90DF90CF90BF90AF9051
:1045B0009F908F907F906F905F904F903F90089565
:1045C000F4EF6F16F1E07F0620F48091700380FF16
:1045D00021C0A601652D842D0E948008811118C07C
:1045E00081E08E2580FF16C04E2D652D842D0E9402
:1045F000EA0B882379F081EA91E00E94FE1988E0B5
:10460000E1EAF1E0DF011D928A95E9F7F12CBFCFD5
:1046100080E0E8CFA601652D842D0E9480088111DD
:1046200024C081E08E25B82FB170CB2E80FF2BC027
:104630004E2D652D842D0E94EA0BD82E811123C0AA
:10464000498A5A8A89899A890E94810F292F22953D
:104650002F70223060F0243088F49F7061F0F801F0
:104660009581907F41F4FD2C92CF80E0DCCF9F704C
:1046700011F08823C1F3805E8830A8F3C8010E943E
:10468000FE19DC2CF0CFEE2009F481CF8091A60139
:1046900081608093A601BACF8B2D0E948008811182
:1046A00024C0D80111968C9111978A111EC08C914B
:1046B0008B111BC02091A7013091A80116968D91F6
:1046C0009C9117972817390781F4E1100EC01596B1
:1046D0003C92C8010E94FE1988E0F801A1EAB1E00D
:1046E00001900D928A95E1F752CFC8010E948D0F7B
:1046F000882339F1EE2029F18091A6018032A0F0C3
:104700002091A1013091A2013A8729871B86DD867D
:10471000CC868E878091A7019091A801988B8F8776
:10472000CE0109960E94FE1988E0F801A1EAB1E0E5
:1047300001900D928A95E1F70E94CA21FF24F3941B
:1047400026CFC8010E94FE19F9CF832D807F09F47E
:1047500052CF9090A1018090A2014091A40150916C
:10476000A501682D892D0E94800881111CC0F801C7
:104770008181881118C08081891115C02091A701FD
:104780003091A801868197812817390761F4E110DB
:104790000AC03582C8010E94FE1988E0D5011D9229
:1047A0008A95E9F7F4CEC8010E948D0F882349F25B
:1047B000EE2039F28091A601803208F4B5CF209125
:1047C000A1013091A2013A8329831B82DD82CC8230
:1047D0008E838091A7019091A80198878F83CE0145
:1047E0000196A0CF81EA91E00E94C40F80916B03F3
:1047F00090916C038816990680F6FE2CEE2009F441
:10480000A0CFE090A101D090A2014091A4015091CD
:10481000A5016D2D8E2D0E948008811128C0F80100
:1048200081818D1124C080818E1121C02091A7012A
:104830003091A8018681978128173907C1F48091AA
:10484000700382FD49CF9091A60190FD45CF907FE6
:1048500009F442CF8091A6018583903F09F439CFB6
:10486000982F907F905F8F70892B858332CFC801FE
:104870000E948D0F811158CF8091A6018160809395
:10488000A601C8010E94FE1982CEEE2009F459CF7C
:10489000C8010E948D0FF82E882309F452CF88E0BA
:1048A000F801A1EAB1E001900D928A95E1F78091BB
:1048B000A1019091A2010E94810F0E94CA2167CE9E
:1048C000CF93DF93CDB7DEB760970FB6F894DEBF16
:1048D0000FBECDBF29873A874B875C876D877E8760
:1048E0008F87988BCE0109960E94382281112FC0A4
:1048F00088E0FE013996DE01119601900D928A95AD
:10490000E1F74C855D856A8589850E948008811163
:104910001EC0A091A901B0E0CD0101968770992732
:104920002091EA012817190609F193E0AA0FBB1F8D
:104930009A95E1F7A655BE4F98E0FE013196019099
:104940000D929A95E1F78093A9010E940A0C80913B
:10495000EA019091A901891317C060960FB6F894E7
:10496000DEBF0FBECDBFDF91CF9108950E945312DD
:104970001092A9011092EA0188E0E1EAF1E0DF017A
:104980001D928A95E9F7E3CFB8E08B9FC00111240F
:1049900086559E4F0E9438228823F9F28091EA01C1
:1049A00090E00196877099278093EA01D0CFEF922B
:1049B000FF920F931F93CF93DF938091AC028823D4
:1049C00061F0C091AB028CE0F82E8091AC02C81768
:1049D00058F01092AC021092AB02DF91CF911F9170
:1049E0000F91FF90EF900895EE24E394EC0EE09287
:1049F000AB020C2F10E0CF9DE0011124C355DD4F19
:104A00004B815C81698188810E94800881111BC073
:104A10008E819F81892B21F488859985019651F497
:104A2000288139814A815B816C817D818E819F8162
:104A30000E946024F09EF001F19EF00D1124E355D8
:104A4000FD4F14821382CE2DC0CF109250031092CE
:104A50004F031092110180914E0380934D030E94E9
:104A6000B9080C94D7243F924F925F926F927F9235
:104A70008F929F92AF92BF92CF92DF92EF92FF926E
:104A80000F931F93CF93DF93C0914D0397E0892E2F
:104A900001E010E02CE0322E3EEF932E44244394AC
:104AA00080914E038C1315C00E94D724DF91CF91C3
:104AB0001F910F91FF90EF90DF90CF90BF90AF903C
:104AC0009F908F907F906F905F904F903F900C944D
:104AD000B908D0E0FE01EE0FFF1FEB5BFC4F8081B9
:104AE0009181889ED001899EB00D1124A35FBC4F97
:104AF00014962C911497211157C05090AC02EDEAF6
:104B0000F2E030E020E0712C5D01251508F04AC08C
:104B1000E284F384D501CD90DC906FEF7FEF612CC0
:104B2000462D50E0DA01AA0FBB1FAC0DBD1D0D9044
:104B3000BC91A02D109731F0EA16FB0609F4BA01DA
:104B40006394EECF6F3F7607A1F1D80102C0AA0FA0
:104B5000BB1F6A95E2F77A2AB80102C0660F771F79
:104B60006A94E2F7AB014150510974161506F9F445
:104B7000329EF001339EF00D1124E355FD4F889EC7
:104B8000D001899EB00D1124A35FBC4F12962D91C8
:104B90003C911397378326839082918291878087F7
:104BA00015964C920E948B082196C37079CF14827F
:104BB00013822F5F3F4F3C96A8CF4F925F926F9228
:104BC0007F928F929F92AF92BF92CF92DF92EF929D
:104BD000FF920F931F93CF93DF93CDB7DEB7289744
:104BE0000FB6F894DEBF0FBECDBF8E010F5F1F4F13
:104BF00088E0F80111928A95E9F79EE4E92E91E0A8
:104C0000F92E680122E5422E21E0522E662463949B
:104C1000712C4DE5842E41E0942EF70181917F01A6
:104C20008F3F09F445C0F894E82FE295EF70F0E06B
:104C300021A18F70A30102C0440F551F8A95E2F78E
:104C4000CA01922F982B91A392A18095892382A3C8
:104C5000789400C0E2E5F1E021E030E0B12CA12C35
:104C600041914F3F09F476C0A42FA295AF70B0E0F8
:104C700090968C9190E04F7002C0959587954A95DB
:104C8000E2F780FD67C0C901A82AB92A220F331FA5
:104C90008E169F0629F7F701319780818F3F11F01B
:104CA0000E94D30850EA5A95F1F7F601B182A0822A
:104CB000F2E0CF0ED11C4E145F0409F0AECF48E0F5
:104CC00050E0B80180E092E00E943933DD24D394B3
:104CD000009709F4D12C892B09F43FC088E0F80132
:104CE000A0E0B2E001900D928A95E1F781E0809317
:104CF000F5010E943C089093F4018093F3018091A8
:104D0000F3019091F4010E942108059750F18091E0
:104D100000029091010290931702809316028091F5
:104D200002029091030290931902809318028091DD
:104D300004029091050290931B0280931A028091C5
:104D400006029091070290931D0280931C0210921C
:104D5000F50107C090E080E097CF8091F5018111C7
:104D6000CECF809100019091010110E006E1019603
:104D700009F06DC080911101811173C080916E03A3
:104D800080FF1EC08091100182FF1AC00E943C0863
:104D90002091A5023091A602AC01421B530B209139
:104DA0000E0130910F014217530750F026EF31E00A
:104DB00041E0BC018091A7029091A8020E94421993
:104DC0008D2D28960FB6F894DEBF0FBECDBFDF91B4
:104DD000CF911F910F91FF90EF90DF90CF90BF90F8
:104DE000AF909F908F907F906F905F904F900895BD
:104DF000089FF001099FF00D1124E658FC4FE2884E
:104E0000F388E114F10421F4E0906B03F0906C035B
:104E1000089FF001099FF00D1124E658FC4F868190
:104E20008823A1F0858596850E942108E816F90659
:104E300068F4109F70011124C70186589C4F0E948E
:104E40007F0BC70180589C4F0E943A0B1F5F812F38
:104E500090E020910001309101012817390744F6B4
:104E600089CF80914F0390915003009709F486CF2A
:104E70000E9421082091A9023091AA02281739071F
:104E800008F07CCF90914D0380914E03981759F014
:104E90000E9433251092AA021092A9021092500388
:104EA00010924F036BCF0E94D724109250031092A0
:104EB0004F030E94B90862CF2F923F924F925F92A8
:104EC0006F927F928F929F92AF92BF92CF92DF921A
:104ED000EF92FF920F931F93CF93DF93CDB7DEB77F
:104EE00069970FB6F894DEBF0FBECDBF942F498BE4
:104EF000252F5A8B6B8B7C8B8D8B4C895D89622F18
:104F0000892F0E948008811109C080918D019091A4
:104F10008E01019690938E0180938D018B89811172
:104F2000109254041D861E861F86188A85E0FE0195
:104F30007196DE01199601900D928A95E1F78091A4
:104F4000FF0182FD1EC08091550390915603892B6D
:104F5000C1F00E943C082091EC013091ED01821BD0
:104F6000930B20915503309156038217930720F03D
:104F70008091EE0182FFF5C10E94E40A81110E9436
:104F8000AA0A4C855D856A8589850E948008811101
:104F900011C061E0CE0109960E94C40F6C018B859F
:104FA00027EFC2162CE5D20681F4882321F181E097
:104FB0008093110129853A854B855C856D857E85B9
:104FC0008F8598890E946024C5C038EFC3163CE5E0
:104FD000D30629F4882379F00E942525EBCF49EFE9
:104FE000C4164CE5D40639F4882329F080911101C8
:104FF0008111F2CFDCCF0DE013E0512CB12CA12CAC
:1050000022242394312C2EEF422EF801408151812D
:1050100088248A94982C20E0822F90E0FC01EE0FE7
:10502000FF1FE40FF51F608171816115710531F07B
:10503000C616D70609F44C012F5FEECFF12CFFEF17
:105040008F169F0609F448C0F8014481F0901101C1
:105050008F2D411180E0F82FF170FF2EF801E580CF
:1050600086819B85992309F40CC1FF2009F409C1AD
:105070006090690370906A03E11012C0A10101C041
:10508000440F8A94EAF7842B86838091A902909139
:10509000AA028615970520F47092AA026092A902CE
:1050A000C10102C0880F991F2A95E2F70197F80104
:1050B00026812817190681F480914F03909150039F
:1050C000009709F460C00E9421086816790608F06C
:1050D0005AC021E0F80124835F28FFEFAF1ABF0A0E
:1050E000095F1F4F28E0A216B10409F08ECF8B850F
:1050F000882309F421C1552009F41EC10E943C08EF
:105100009093500380934F038091AC02883010F548
:1051100091E0980F9093AC0298E0FE013996DE0181
:10512000119601900D929A95E1F73CE0839FC001A2
:10513000112483559D4F28E0FE013196DC0101903A
:105140000D922A95E1F72FEF3FEFFC013187208781
:10515000D386C28669960FB6F894DEBF0FBECDBF68
:10516000DF91CF911F910F91FF90EF90DF90CF9043
:10517000BF90AF909F908F907F906F905F904F9077
:105180003F902F90089580914D0350914E03982F9A
:10519000F0E0E0E0851314C090934D03E017F107B1
:1051A00009F49ACF90E0FC01EE0FFF1FEB5BFC4F80
:1051B000B182A08201968370992780934E038CCF91
:1051C000682E712CF301EE0FFF1FEB5BFC4F20816B
:1051D000318147E0429FD001439FB00D1124A35F6E
:1051E000BC4F6D917C911197798F688F40E020E0E2
:1051F00030E0E32FF0E0EE0FFF1F688D798DE60FB2
:10520000F71F8080918081149104E1F0F8010190F2
:10521000F081E02DFF8BEE8B20E005C0861697060F
:1052200009F44F2D2F5FE22FF0E0EE0FFF1F6E8984
:105230007F89E60FF71F608171816115710571F734
:105240003F5FD7CF4423D1F0F801231708F0FD01C9
:1052500021E024830E171F0721F490934D03F42EB1
:105260003BCF981305C0AE17BF0711F49F5F937033
:1052700093012F5F3F4F822F83708CCFF0E0E0E0EF
:10528000F7CF90E0E1101FC0B10102C0660F771F99
:105290002A95E2F79B01215031098217930731F4D7
:1052A000442309F447C0C5010E948B08C10101C015
:1052B000880F8A94EAF7982F9095F80186818923C0
:1052C0008683FE2C09CF9C01082C02C035952795BA
:1052D0000A94E2F7A90141705527BC016150710998
:1052E00086239723892B11F5452B01F1F801828143
:1052F0009381892BC1F01B821C821D821E824982F0
:105300004A820E943C088160582F9D838C83F8015B
:10531000828193818F83988729813A814B816D8126
:105320007E810E946024F8011582C0CFF22FF170B7
:10533000EF2EBCCFEF2CBACF90914D0380914E034E
:10534000981731F00E943325552009F433CE02CF4F
:105350000E94D7241092500310924F030E94B90864
:10536000F3CF82E00E94B90C07CECF93DF9300D039
:1053700000D00F92CDB7DEB7909381028093800268
:10538000811520E2920748F40F900F900F900F9034
:105390000F90DF91CF910C94B10D8EEF89838A83AA
:1053A0001B820E943C088160782F9D838C834981F9
:1053B0005A816B818D810F900F900F900F900F90FD
:1053C000DF91CF910C945C270F931F93CF93DF93C2
:1053D0008C01EB0166E272E08C2F0E949011892B08
:1053E000A1F480917103909172030E94AE0EDD27AB
:1053F000C25EDD4F8881F80110821882833009F186
:1054000048F4813059F0823081F0DF91CF911F91C3
:105410000F9108958430D1F08530B9F7809126023C
:1054200090912702009789F306C0809128029091FD
:105430002902009799F3DF91CF911F910F910C945E
:10544000B52980912A0290912B02F3CF80912C02F2
:1054500090912D02009779F7209126023091270232
:10546000809128029091290221153105D9F20097E7
:1054700011F7C901E0CFCF93DF9300D000D00F9296
:10548000CDB7DEB79093810280938002811520E230
:10549000920748F40F900F900F900F900F90DF91AC
:1054A000CF910C9417198EEF89838A8381E08B83C7
:1054B0000E943C088160782F9D838C8349815A81AA
:1054C0006B818D810F900F900F900F900F90DF9157
:1054D000CF910C945C27BF92CF92DF92EF92FF9214
:1054E0000F931F93CF93DF93B82EC09053048091F6
:1054F0005204C82AC7E0D0E0D12CF12CE12CD7010E
:10550000C6010C2E04C0B695A795979587950A9469
:10551000D2F780FF1FC04B2D60E08C2F0E94DE0E63
:105520008C0181309105B1F00E943B2A8FE39CE908
:105530000197F1F700C00000C8010E94B52981E081
:10554000DF91CF911F910F91FF90EF90DF90CF905F
:10555000BF900895219798F64B2D60E080E00E945F
:10556000DE0EEC010E943B2A8FE39CE90197F1F7E4
:1055700000C00000CE01E1CFCF93DF93EC010E9489
:105580003B2A80917103909172030E94AE0ECE016E
:10559000DF91CF910C94B5290F931F93CF93DF9395
:1055A0008C01862F66E272E00E949011892BC9F46B
:1055B000C0912602D0912702209799F0F8018081AE
:1055C000833069F4CE010E94BC2ACE010E94BC2A1D
:1055D000CE01DF91CF911F910F910C94BC2A8430A2
:1055E000B8F7DF91CF911F910F9108950F931F93FB
:1055F000CF93DF938C01EB0166E272E08C2F0E9467
:105600009011892B09F064C0FE01FF27D8018C910D
:10561000E25EFD4F8130D9F419969C911997992338
:1056200011F080830CC01A969C919923D1F382E0EB
:10563000808380912802909129020097D9F480916B
:10564000260290912702009709F442C013C08230CD
:10565000E9F519968C91199781112DC01A968C91A4
:1056600081110EC083E0808380912A0290912B02E9
:10567000009719F1DF91CF911F910F910C943B2A64
:1056800084E0808380912C0290912D02009791F705
:1056900080912602909127020097F9F00E94BC2A7F
:1056A0008091280290912902009721F7809126028B
:1056B00090912702DFCF85E0808380912602909130
:1056C0002702009729F00E94BC2AF0CF86E0808351
:1056D000DF91CF911F910F910895809128029091B1
:1056E0002902B1CF1F920F920FB60F9211242F9360
:1056F0003F934F935F936F937F938F939F93AF935A
:10570000BF93CF93DF93EF93FF93D091E900DF70C6
:105710008091EC00C82FC17080FDC0E81092E900B4
:105720008091F000877F8093F00078940E945E1251
:105730001092E9008091F00088608093F000CD2BFA
:10574000CF70C093E900FF91EF91DF91CF91BF91AE
:10575000AF919F918F917F916F915F914F913F9109
:105760002F910F900FBE0F901F9018951F920F92C0
:105770000FB60F9211242F933F934F935F936F9324
:105780007F938F939F93AF93BF93EF93FF938091FA
:10579000E10082FF15C08091E20082FF11C080917C
:1057A000E1008B7F8093E10020913A042F5F822FEC
:1057B00062E30E94EF32992309F4C0C020933A04B7
:1057C0008091DA0080FF28C08091D80080FF24C03B
:1057D0008091DA008E7F8093DA008091D90080FF7B
:1057E000E3C080E189BD82E189BD09B400FEFDCF3F
:1057F00081E0809348048AE49AE00E94F005809159
:105800003B04811109C00E9492060E945D078091AD
:10581000E20084608093E2008091E10080FF1BC081
:105820008091E20080FF17C08091E2008E7F80931C
:10583000E2008091E20080618093E2008091D800D4
:1058400080628093D80019BC85E08093480482E58B
:105850009AE00E94F0058091E10084FF2FC08091C2
:10586000E20084FF2BC080E189BD82E189BD89B55A
:10587000982F917080FFFBCF8091D8008F7D80930F
:10588000D8008091E1008F7E8093E1008091E2005A
:105890008F7E8093E2008091E20081608093E2003D
:1058A00080914904882309F489C084E080934804E6
:1058B00086E59AE00E94F005809148048091E1001D
:1058C00083FF2BC08091E20083FF27C08091E1001D
:1058D000877F8093E10082E080934804109249041E
:1058E0008091E1008E7F8093E1008091E2008E7FC5
:1058F0008093E2008091E20080618093E20042E0C8
:1059000060E080E00E942B078091F0008860809327
:10591000F0008AE59AE00E94F005FF91EF91BF91B7
:10592000AF919F918F917F916F915F914F913F9137
:105930002F910F900FBE0F901F90189510923A0460
:1059400080913904882309F43BCF80914804843046
:10595000C1F49091E9009F702091EC00822F81703A
:1059600020FD80E8892B95E09093E9009091EB0071
:1059700090FF04C09091EE0097FD08C08F70809357
:10598000E900109239041CCF1092F1009091E800C8
:1059900095FDFACF9091E80090FFF0CF9091E8004C
:1059A0009E779093E800EACF19BC109248048EE4E9
:1059B0009AE00E94F00510923B042ECF8091E30004
:1059C00087FD93E09093480473CF78941F921FB69D
:1059D0001F9211248F939F93AF93BF9380913104B3
:1059E00090913204A0913304B09134040196A11D2A
:1059F000B11D8093310490933204A0933304B0938B
:105A00003404BF91AF919F918F911F901FBE1F9043
:105A100018951F921FB61F9211248F939F93AF93D7
:105A2000BF9380913004811113C080913104909113
:105A30003204A0913304B09134044196A11DB11DEC
:105A40008093310490933204A0933304B0933404D0
:105A5000BF91AF919F918F911F901FBE1F9018957E
:105A6000CDB7DEB7E7970FB6F894DEBF0FBECDBF58
:105A700084B7877F84BF0FB6F894A89580916000A3
:105A8000886180936000109260000FBE80E890E013
:105A90000FB6F89480936100909361000FBE85B7B4
:105AA000806885BF85B7806885BF89EC9DE090934D
:105AB0008301809382010E94A4110E94FA110E9426
:105AC000B80E0E9492060E945D078091E2008460F9
:105AD0008093E2007894809148048823A1F010918B
