:100000000C94A7040C94DF040C94DF040C94DF041C
:100010000C94DF040C94DF040C94DF040C94DF04D4
:100020000C94DF040C94DF040C9471340C94493567
:100030000C9426340C94DF040C94DF040C94DF043D
:100040000C94DF040C94DF040C94DF040C94DF04A4
:100050000C94DF040C944D340C94DF040C94DF04F6
:100060000C94DF040C94DF040C94DF040C94DF0484
:100070000C94DF040C94DF040C94DF040C94DF0474
:100080000C94DF040C94DF040C94DF040C94DF0464
:100090000C94DF040C94DF040C94DF040C94DF0454
:1000A0000C94DF040C94DF040C94DF040501098038
:1000B000A101850319012AB700150126B700950192
:1000C00075108100C0050C0901A101850419012AE0
:1000D000A002150126A002950175108100C005013E
:1000E0000906A1018506050719E029E71500250184
:1000F0009508750181020507190029EF15002501F2
:1001000095F075018102050819012905950575010C
:100110009102950175039101C00660FF0961A1017B
:100120000962150026FF00952075088102096315F4
:100130000026FF00952075089102C005010906A15F
:1001400001050719E029E7150025019508750181CA
:10015000029501750881010507190029FF15002680
:10016000FF0095067508810005081901290515008D
:100170002501950575019102950175039101C0094D
:10018000025B00030100A0FA090400000103010161
:100190000009211101000122440007058103080024
:1001A00001090401000203000000092111010001FE
:1001B0002222000705820320000107050303200017
:1001C00001090402000103000000092111010001DE
:1001D000226D0007058403200001120100020000C7
:1001E00000081100264D0100010203011C037600E6
:1001F000690061006C003A0066003600340063005C
:1002000032006200330063000000120376006100D8
:1002100075006C00740020003300350000001403EA
:100220006D006500630068007600610075006C0079
:10023000740000000403090414001A0008001500EB
:1002400017001C0018000C00120013002A00040004
:100250001600070009000A000B000D000E000F0039
:10026000340000001D001B000600190005001100ED
:10027000100036003700380000000000E300215273
:100280002A002C002C002252E00000000000000098
:100290000100010001000100010001000100010056
:1002A0000100010001000100010001000100010046
:1002B0000100010001000100010000000100010037
:1002C0000100010001000100010001000100010026
:1002D0000000000001000100010001000100010018
:1002E0000100000000000000010001000100010009
:1002F00001000100010001000100010001000100F6
:1003000001000100010001000100010001000100E5
:1003100001000000010001000100010001000100D6
:1003200001000100010001000000000001000100C7
:1003300001000100010001000100000000000000B8
:1003400001000100010001000100010001000100A5
:100350000100010001000100010001000100010095
:100360000100010001000100010000000100010086
:100370000100010001000100010001000100010075
:100380000000000001000100010001000100010067
:1003900001000000000000005100520001000100B7
:1003A0000100010001000100000000000000000049
:1003B000000000000000000000000000000000003D
:1003C0000000000000000000000000007E0F00D4CC
:1003D000FFFFFFC7000000780000000000000000E1
:1003E0002A2B280000000000000000000000000090
:1003F00000000029000000002C1E3420212224349B
:100400002627252E362D3738271E1F20212223246C
:1004100025263333362E37381F0405060708090A08
:100420000B0C0D0E0F101112131415161718191AA4
:100430001B1C1D2F3130232D350405060708090A22
:100440000B0C0D0E0F101112131415161718191A84
:100450001B1C1D2F3130354C2223252628292A2C00
:100460002D2F3032333536383A3B3D3E40424345FE
:1004700047494A4C4E5051535557595A5C5E606239
:10048000646668696B6D6F71737577797B7D7F8149
:10049000838587898A8C8E90929496989A9C9E9F49
:1004A000A1A3A5A7A8AAACAEAFB1B3B4B6B8B9BB67
:1004B000BCBEBFC1C2C3C5C6C7C9CACBCCCDCED0D6
:1004C000D1D2D2D3D4D5D6D7D7D8D9D9DADADBDBC3
:1004D000DBDCDCDCDCDCDDDDDDDDDCDCDCDCDCDB5A
:1004E000DBDBDADAD9D9D8D7D7D6D5D4D3D2D2D1A3
:1004F000D0CECDCCCBCAC9C7C6C5C3C2C1BFBEBC96
:10050000BBB9B8B6B4B3B1AFAEACAAA8A7A5A3A106
:100510009F9E9C9A98969492908E8C8A89878583C8
:10052000817F7D7B79777573716F6D6B69686664A8
:1005300062605E5C5A5957555351504E4C4A494778
:10054000454342403E3D3B3A3836353332302F2D1D
:100550002C2A292826252322FFAA7F5540000101A5
:100560000101010101010102020202020202020272
:100570000303030303030303040404040404040542
:100580000505050506060606060707070707080806
:100590000808090909090A0A0A0B0B0B0C0C0C0DB7
:1005A0000D0D0E0E0E0F0F0F101011111112121350
:1005B000131414151516161717181819191A1A1BCB
:1005C0001B1C1D1D1E1E1F2020212222232424252A
:1005D0002626272829292A2B2C2D2D2E2F30313263
:1005E00032333435363738393A3B3C3D3E3F404173
:1005F00042434445464748494A4C4D4E4F5051535B
:1006000054555658595A5B5D5E5F61626465666811
:10061000696B6C6D6F7072737577787A7B7D7E8095
:1006200082838587888A8C8E8F91939596989A9CE1
:100630009EA0A2A3A5A7A9ABADAFB1B3B5B7BABCF5
:10064000BEC0C2C4C6C9CBCDCFD1D4D6D8DBDDDFC6
:10065000E2E4E7E9EBEEF0F3F5F8FAFDFF643214BB
:10066000643214783C1E1E140A0501000100D904EE
:100670007A2B902B000002000200D5047A2B902BDD
:10068000000003000100DA047A2B902B0000040024
:100690000200BF047A2B902B8B0905000100DB04BC
:1006A0007A2B902B000006000200C1047A2B902BBD
:1006B000000007000200D7047A2B902B00000800EE
:1006C0000100DC047A2B902B000012000200DD04F4
:1006D0007A2B902B000013000200DF047A2B902B62
:1006E000000014000100E1047A2B902B000015009B
:1006F0000000000094093C130000FD377A585A00AE
:100700000004E6D6B4460200210116000000742F52
:10071000E5A3E009E402145D003D8889C65436C3B0
:10072000174FE4E7E954216F66A3454351D631954D
:10073000C0501472BFB4447A2852B5CABBE6D2E3A3
:1007400037F5BDE72E51FEB8D99B3DB024A5ED721B
:100750003B7DBF22549A1894309528C26CE4EDF882
:100760003D7AF2F128BAC625142DAD7BA99DAB6D5B
:100770006ADBDF9642B910EF16677A2838E9552D03
:100780000354DA1722791BB32925F3B93640BA6826
:10079000E8BFAC4CC3C0A0712A48E14DCB031A910D
:1007A0007A4E079A336F8D8C2FEE44E58143F19298
:1007B000EC1D60D0F2B1C1B53C3ED4EDEDFEA99088
:1007C0003B221895847879A0EFD198B01D08234674
:1007D0008122740608A3CF965B75DB535562429B5A
:1007E0008815949C6905DA76E99BFA63FCFFF06151
:1007F000D9319F0C722E7AAD91A93F562709D2EFBD
:10080000F759BF018D97AB1F1E0AE5BD975F83C0E7
:10081000E0CB24CC1ED83378F768A42DB7B2612E74
:10082000E7CFE3758F29B1201107CB6057511C200A
:1008300087AA8D62252C5476CEA9DEF53B66413E13
:10084000B2E72FF1FE294D2CB72213FA4A0F283CAC
:10085000EE6784A812E9E97DA0576C3EDA19E22D13
:100860000972B0A732FEB0C8E6CDA2BA3BF1F84992
:10087000A482DA4193279E724032529DBE035AA948
:10088000D383202C248144E35B986C44A018275226
:10089000BA86C5E0BFB9A225DE67BDE21DAAEBDDC1
:1008A000B23A4F4D88A70A62FBC3B1A7ABA07AA0AA
:1008B0002713C4E13AD48D5C9F0657E72ABBE9D7DA
:1008C0004B1CD164B219056D081DB3A5DE30387616
:1008D0005A8828F16F5BCAC2746264E733646409A2
:1008E000EB8AAD7A7B2F6284024D5A8101960554C2
:1008F00022973F92E808A8390F71E26C2D24CBECC7
:10090000A1463D6BFFFEBE32B59A66A3E023B0BDA3
:1009100000ED5A2FACE1548981024133ED2D20DAEC
:10092000E1AEBD468BAE799D80594EA00000C23A23
:10093000639E0666CBDF0001B004E51300004BCDDB
:10094000DED3B1C467FB020000000004595A112431
:100950001FBECFEFDAE0DEBFCDBF04B603FE18C086
:100960008091E7049091E804A091E904B091EA0431
:100970008730904BA740B04B59F41092E704109287
:10098000E8041092E9041092EA04E0E0F8E3099523
:1009900011E0A0E0B1E0E8EBFEE602C005900D92A8
:1009A000AA3AB107D9F724E0AAEAB1E001C01D9242
:1009B000A73EB207E1F70E945A2C0C94F1360C9432
:1009C00000009C01FB019A9581159F4120F5D901FA
:1009D000AA27B270832F8170B90166277470A901AC
:1009E0004427587034FF0DC08295807FAB2B09F0EF
:1009F0008062672B09F08064452B09F080680995B7
:100A00000895AB2B09F08260672B09F08460452BB9
:100A1000B1F38860F4CF80E0F2CF282F92959F70D9
:100A2000963091F060F4925F9F70923030F481E0E4
:100A3000203F79F030F4283E30F080E008959A5F4E
:100A4000F3CF243FD1F7089581E0283EE0F3213F22
:100A5000F9CF089580930A0408958093BE04089501
:100A600021E030E001C0220F8A95EAF78091BE04B0
:100A7000822B0E942D05089521E030E0A90102C0DB
:100A8000440F551F8A95E2F7CA0180959091BE04E4
:100A900089230E942D0508959B01677091E001C094
:100AA000990F6A95EAF763E0369527956A95E1F71D
:100AB000B901660F771F260F371FFA01E20FF31FE8
:100AC00040E050E0682F70E08191DF0111979B01B9
:100AD000042E02C0369527950A94E2F721702195DD
:100AE0002827292328272C934F5F5F4F4330510538
:100AF00059F708959C01A82FA77083E03695279594
:100B00008A95E1F7C901880F991F820F931FFB0196
:100B1000E80FF91F40E050E080E0219130E00A2E1C
:100B200002C0369527950A94E2F721703327042EE8
:100B300001C0220F0A94EAF7822B4F5F5F4F4330C8
:100B4000510559F70895282F862F903F79F094305A
:100B500070F42B3058F4622F70E02BE0929F600D00
:100B6000711D11244CE453E00E944C0508959C5FD4
:100B70009230E0F7622F70E049E453E0F5CF903F08
:100B8000C9F0943080F48B30A8F4282F30E06CE466
:100B900073E0A901EBE09E9F400D511D1124CA0195
:100BA0000E947A0508959C5F923020F469E473E016
:100BB00090E0F6CF80E008959091BE0421E030E00F
:100BC000F90101C0EE0F8A95EAF7D90102C0AA0F18
:100BD000BB1F6A95E2F7EA2B01C0220F4A95EAF79C
:100BE000892F8E23E81305C0892F822B0E942D05A3
:100BF00008952095822F8923F9CF8091F702909153
:100C0000F602981301C008958F5F8770FACF909114
:100C100017019923C1F09091E30497FF14C0E82FC6
:100C2000E695E695E695803FF8F4F0E0E455FE4F52
:100C3000877021E030E001C0220F8A95EAF78281B7
:100C4000822B82830895AEEAB1E0EFEF90E02D9120
:100C5000821751F0EF3F19F4211101C0E92F9F5F76
:100C60009630A9F7EF3F09F408950E2E000CFF0B04
:100C7000E455FE4FE6CF909117019923E1F0909152
:100C8000E30497FF18C0E82FE695E695E695803FC8
:100C9000F0F4F0E0E455FE4F877021E030E0A90168
:100CA00002C0440F551F8A95E2F7CA0180959281D0
:100CB000892382830895EEEAF1E09191891303C0BC
:100CC000DF0111971C9251E0E43BF507B1F708955D
:100CD00090910C048095892380930C04282F277011
:100CE000211111C0891779F09091E40492FF0BC093
:100CF0008695869586950E943C0510920C0410926C
:100D00000E0410920D04089590910804982B90936E
:100D100008040895982F9095809108048923809362
:100D20000804089580910704882331F01092070485
:100D300010920604109205040895803E9105D1F1A9
:100D4000C8F48133910509F47FC048F489329105D4
:100D500009F46FC08A32910509F47DC00895893382
:100D60009105E1F082389105C9F08533910509F4C8
:100D70005BC00895843E9105D1F148F4823E91050F
:100D800031F1833E910541F181EE90E00895863E78
:100D90009105C1F1873E9105E1F108952091E304A9
:100DA0002370211165C02091E40423FF14C089E25F
:100DB00090E008952091E30420FD43C03091E404C5
:100DC00030FF09C024FF4EC080E090E008952091DC
:100DD000E30422FDF7CF08952091E30422FD45C0EE
:100DE0003091E40430FD44C024FFF5CFEDCF2091D5
:100DF000E40421FFF0CF8091E30484FDE5CF87EE8A
:100E000090E008952091E30423FFE5CF24FDDCCF9B
:100E1000F6CF2091E30423FD2EC03091E40431FF8E
:100E2000E3CF84EE90E008952091E30425FFD3CF33
:100E3000BECF2091E30425FD21C02091E40423FFCF
:100E4000CACF89E390E008952091E30426FFC3CF41
:100E50008AE290E008952091E30426FFBCCF81E36D
:100E600090E0089583EE90E0089582EE90E008957A
:100E700080EE90E0089586EE90E0089585E390E09E
:100E8000AACF9091E30492FF10C041E0282F247173
:100E9000243009F040E031E0282F2871283009F093
:100EA00030E0431711F02CE0822793FF10C041E09F
:100EB000282F2471243109F040E031E0282F2871D7
:100EC000283109F030E0431711F02CE082273091EF
:100ED000E40430FF10C051E0282F2171213009F0C7
:100EE00050E041E0282F2871283009F040E05417E5
:100EF00011F029E0822731FF10C041E0282F217135
:100F0000213109F040E031E0282F2871283109F023
:100F100030E0431711F029E0822794FD877E089581
:100F20001F93CF93DF930E949D06EC01811522E56C
:100F3000920708F053C0811540E5940708F0DDC022
:100F4000803E9105F8F48D3C910508F0AEC0883ADA
:100F5000910580F4853A910508F099C0813091059A
:100F600021F00497813A910550F4CE01DF91CF91A1
:100F70001F910895885A91094B9708F48BC0C0E0DF
:100F8000D0E0F3CF811550E49507F8F4C11580E265
:100F9000D80708F0CBC0C83ED10538F3CE019A95EA
:100FA00081159F4160F78D2F0E944107182FCE01B8
:100FB00099270E949D06212F30E0322F2227E90138
:100FC000CC27DF71C82BD92BD0CF99270E949D0643
:100FD000CC27DF70C82BD92BD06AC7CF803842E529
:100FE0009407C8F5803652E5950708F067C0C0340D
:100FF00082E5D807B0F08C2F86958695877020E221
:10100000829FC0011124C37021E030E0A90102C019
:10101000440F551FCA95E2F7EA01C82BD92BDC68AB
:10102000A4CFC03252E5D50708F041C08C2F869579
:10103000869520E2829FC0011124C37021E030E038
:10104000A90102C0440F551FCA95E2F7EA01C82B57
:10105000D92BDD688ACF803C52E5950760F48F710B
:10106000C03AD24508F03FC090E0982F8827EC01A5
:10107000C46FD06A7ACF805C9245809708F07FCFAA
:10108000DC2FCC27CC27DF71C06FD06A6ECFA4973E
:10109000D0646BCFC85AD0E0CC0FDD1FCC58DE4FE8
:1010A0000990D881C02DD46460CFD0655ECFCF7158
:1010B000D0E0DC2FCC27C16FD06A57CF86958695BC
:1010C000877020E2829FC0011124C37021E030E0CC
:1010D000A90102C0440F551FCA95E2F7EA01C82BC7
:1010E000D92BDA6842CF0E944107C82FD0E0DC2F0D
:1010F000CC27CC27DF71D06238CF8F710E94410797
:1011000065E0D695C7956A95E1F7CF70D0E0DC2F02
:10111000CC27282F30E084FF05C054E0220F331F76
:101120005A95E1F7C22BD32BD0691FCF8D2F8F712A
:101130000E944107182FCE0199270E949D06212F5A
:1011400030E0322F222722273F71282B392BE9014B
:10115000D2CF80E00895F894E82FE295EF70F0E0A8
:1011600041A18F7021E030E0B90102C0660F771F06
:101170008A95E2F7CB01962F9095942391A392A1A3
:10118000892B82A3789408950895A0E0B0E0EBEC59
:10119000F8E00C94DD35E901E42FF0E0E35AFA4F72
:1011A00061110BC0E4919E2F8E2F8983E8839A836F
:1011B000CDB7DEB7EAE00C94F935282F30E0062FE2
:1011C00010E0F491EF2F86E0829F6001839FD00CA6
:1011D0001124EE24EA94F12CC601B7010E94A03537
:1011E000220F331F45E5469FC001479F900D1124F4
:1011F000281B390B822F880F280FC701801B910BEA
:10120000F89FA001F99F500D1124952F209F5001A8
:10121000219FB00C1124AB2CBB24D701AA19BB0908
:101220005D01FA9DD001FB9DB00D11248B2F57015C
:10123000A21AB1089501209F5001219FB00C309F48
:10124000B00C1124AB2CBB24EA18FB08FE9D9001C6
:10125000FF9D300D112463307105C9F01CEFC116DC
:1012600013E0D10650F46130710509F49ECF62306D
:10127000710589F08E2FE32F98CF6430710571F0DE
:1012800066307105B9F3E52F9B2F8F2F8ECFEB2F93
:10129000852F9F2F8ACF852F932F87CF832FE52FE1
:1012A000F8CF8091FD03823028F4817082608093B2
:1012B000FD0308958E33E8F381708C63F8CFFA0153
:1012C000882311F009950895FB01FCCF81152CE7C7
:1012D000920741F42091150130911601232B11F44E
:1012E00080E090E00895ECE6F3E080E090E06AE8CA
:1012F0007AE241EB5AE226E23BE27783668351874A
:101300004087338722879787868701967096883033
:10131000910599F708958091BF049091C00490932E
:101320001401809313010895A0E0B0E0EAE9F9E028
:101330000C94DB35FB018FEF9FEF4430510508F42F
:1013400065C04091E30441FB882780F990E0880F55
:10135000991F42FBAA24A0F8B12CAA0CBB1CAA0C12
:10136000BB1C8A299B2940FB882480F8912C882962
:10137000992943FBCC24C0F8D12C53E0CC0CDD1CC4
:101380005A95E1F78C299D2944FBEE24E0F8F12CD5
:1013900064E0EE0CFF1C6A95E1F78E299F2945FB5E
:1013A000002700F910E075E0000F111F7A95E1F7B2
:1013B000802B912B46FB222720F9C22F20E0D22F31
:1013C000A6E0CC0FDD1FAA95E1F78C2B9D2B47FBE8
:1013D000442740F920E8429FA0011124842B952B3B
:1013E0002091E404322F3170932B26952170B22F77
:1013F000BB0FA0E08A2B9B2B092E000CAA0BBB0B6A
:1014000080839183A283B38380E090E0CDB7DEB781
:10141000ECE00C94F735AC0123E0969587952A957E
:10142000E1F78E719927FC01E95FFD4F0190F08192
:10143000E02D4F70552721E030E002C0220F331F0E
:101440004A95E2F7662341F0E22BF32B895F9D4F2B
:10145000DC01ED93FC93089520953095E223F3236E
:10146000F5CF1092500410924F04EFE0F4E0858124
:10147000811102C014821682379684E0E734F8079F
:10148000B1F70895AC013091520460915104232FBB
:10149000621301C00895822F90E0FC01EE0FFF1F40
:1014A000E95BFB4F0190F081E02DE417F50791F423
:1014B00067E0649FF001659FF00D1124E15FFB4F31
:1014C00041E044832313E6CF0196837099278093EC
:1014D000520408950196282F2370DACFFA0130972D
:1014E00009F009950895E091D402F091D502309762
:1014F00029F00190F081E02D0995089580E008958C
:10150000A3E0B0E0E6E8FAE00C94E5359C018091B8
:1015100004029091050282179307A1F0309305020F
:1015200020930402E091D402F091D502309751F05B
:1015300083E089833B832A830680F781E02DCE01F7
:10154000019609952396E2E00C940136A3E0B0E001
:10155000ECEAFAE00C94E5359C018091020290914E
:10156000030282179307A1F0309303022093020233
:10157000E091D402F091D502309751F084E0898354
:101580003B832A830680F781E02DCE0101960995E1
:101590002396E2E00C9401362FB7F8948091FE0177
:1015A0009091FF01A0910002B09101022FBF089518
:1015B0008091C1049091C204892B91F00E94CC0AC1
:1015C0002091050430910604AC01421B530B9A0193
:1015D00081E04091C1045091C2042417350708F4FA
:1015E00080E0817008959091E40492FF10C098E02B
:1015F000899F90011124622B60930C040E94300596
:101600000E94CC0A90930E0480930D0408950E94CA
:101610003005089590910704292F2823222361F093
:101620008095892380930704882339F00E94CC0A8F
:101630008093050490930604089580E090E0F8CF2D
:10164000CF93C82F8091E40482FF0CC080910704DF
:101650008C1741F00E94CC0A9093060480930504F5
:10166000C0930704CF910895A4E0B0E0EAE3FBE063
:101670000C94E5358FB7F8942091FE013091FF016D
:10168000409100025091010229833A834B835C838D
:101690008FBF69817A818B819C812496E2E00C94D2
:1016A00001369C014FB7F8948091FE019091FF01A3
:1016B000A0910002B09101024FBF821B930B0895CD
:1016C0008091FD0108950895FC019B018091DB014B
:1016D0009091DC018617970740F0672B29F48091E1
:1016E000E8008E778093E800C90140E0009741F45C
:1016F000411106C08091E80082FF2FC080E008956C
:101700002091CD022223A9F12530A9F12091E800F2
:1017100023FD2DC02091E80022FDECCF2091E800B0
:1017200020FFE4CF3091F3002091F200009719F0F0
:101730002830310558F041E02830310509F040E00B
:101740002091E8002E772093E800D0CF419140937C
:10175000F10001972F5F3F4FE9CF8091CD028823A1
:1017600041F0853041F08091E80083FFC3CF81E0F4
:10177000089582E0089583E008958091D50187FF60
:1017800013C08091E80082FF06C08091E8008B774B
:101790008093E80004C08091CD028111F2CF0895BA
:1017A0008091CD028823D9F38091E80080FFF8CFA3
:1017B0008091E8008E77ECCF2091E4003091E50035
:1017C00095E6A9018091EC008170882331F0809129
:1017D000E80080FF06C080E008952091E80022FD27
:1017E0001BC08091CD02882391F0853091F08091CB
:1017F000EB0085FD10C02091E4003091E500421718
:10180000530701F391509111DCCF84E0089582E0F9
:10181000089583E0089581E00895E8EDF0E0808187
:101820008E7F80831092E2001092DA001092E10025
:10183000A0EEB0E08C9181608C9380818F77808363
:1018400019BCA7EDB0E08C918E7F8C9380818F7E48
:1018500080831092D4010895982FE42FE270909322
:10186000E900891308C0762F242F50E0E11111C040
:1018700091E0980FF4CF7091EC002091ED00509121
:10188000F00021FD06C09F5F973049F78093E90083
:1018900008953091EB003E7F3093EB003091ED00E6
:1018A0003D7F3093ED003091EB0031603093EB00E1
:1018B0007093EC002093ED005093F0002091EE0027
:1018C00027FDE1CF0895A0E0B0E0E9E6FCE00C944C
:1018D000DF35C8EDD0E088818F7E8883E7EDF0E0CA
:1018E00080818160808384E082BF81E08093D40125
:1018F00088818E7F888302EE10E0F80110821092BA
:10190000DA0081EEC82ED12CF601108288818F7703
:10191000888388818068888388818F7D888319BCCB
:101920001092CD021092D3011092AE021092D20109
:1019300090EEE92EF12CF70180818B7F80838881E6
:101940008160888342E060E080E00E942C0CF60118
:1019500080818E7F8083F801808181608083808197
:1019600088608083F70180818E7F80838881806199
:101970008883CDB7DEB7E8E00C94FB359C012115D8
:10198000310509F408958FE99FE00197F1F700C050
:10199000000021503109F3CF8091FD0380FD0AC082
:1019A000E0E8F2E0118210821282339652E0E43ACB
:1019B000F507C1F7559A3BB13F7D2BB120624FB778
:1019C000F89480E892E0FC010196508168E02BB920
:1019D000000000C057FF3BB9550F000000C000C019
:1019E00000C03BB900C06A9591F752E0843A950770
:1019F00051F74FBF8FE594E00197F1F700C0000069
:101A00000895A0E0B0E0E7E0FDE00C94DF35FC01D4
:101A10008281DD24D39480FF02C0DD24DA9400E8C3
:101A200012E0C0E0D0E0F80111821082128294E04E
:101A3000E92EF12CC12C80917F028C0D8D30D4F1D8
:101A40006CE00E949235892F082E000C990B8C17A0
:101A50009D0791F4809100048E9DA0018F9D500DF3
:101A60001124559547955595479598016091FF0329
:101A70008091FE030E94C508CD0CF1E0EF1AF10839
:101A8000E114F104C1F621960D5F1F4FCC30D10552
:101A900051F60E94CC0C80917F0291E0D9120EC0C9
:101AA000882391F0815080937F02CDB7DEB7E8E0C4
:101AB0000C94FB3587FFC8CF845FC6CF90E00196BA
:101AC000BE010E94B435EFCF8BE0EDCFEF92FF92D5
:101AD0001F93CF93DF93EC0180E8E82E82E0F82E8D
:101AE00010E08C819701409100046091FF03810F09
:101AF0000E94C5081B5E83E0E80EF11C1C3F89F7BD
:101B00000E94CC0C9A818C8190FF08C08F5F8C83DF
:101B1000DF91CF911F91FF90EF9008958150F7CF03
:101B20009091FD0390FF0CC0E0E8F2E081836083B8
:101B30004283339692E0E43AF907C1F70E94CC0C55
:101B40000895A3E0B0E0E7EAFDE00C94E53590915C
:101B5000FD0390FF0AC09E012F5F3F4F0E94C50802
:101B60004B8169818A810E94900D2396E2E00C945A
:101B70000136CF93DF93EC01EC81F0E0E85AFB4FA4
:101B80004491EDEFF3E0628181810E94A10D8C818F
:101B90008F5F8C83DF91CF910895CF93DF93EC011A
:101BA000EDEFF3E0438162818C810E94A10D8C8175
:101BB0008F5F8C83DF91CF91089581E08093E00067
:101BC00080E28093D8001092C9008FE19EE40197D3
:101BD000F1F700C0000087E090EBDC018093E704A0
:101BE0009093E804A093E904B093EA0488E19CE0B0
:101BF0000FB6F894A895809360000FBE9093600094
:101C0000FFCF0F931F93CF93DF93EB018A01909146
:101C1000CD02943079F58093E9008FEF9091E80040
:101C200095FD07C095ED9A95F1F70000815081115F
:101C3000F5CF8091E80085FF1DC00E94DC0B81116B
:101C400014C08091E80085FD06C08091E8008E7781
:101C50008093E800F2CF88818093F1000150110950
:101C60000115110511F02196ECCF8091E8008E77D7
:101C70008093E800DF91CF911F910F910895CF934A
:101C8000DF93D82FC92F80911701811113C048E02D
:101C900050E06D2F792F81E00E94010E80E2ED2F40
:101CA000FC2FADEDB1E001900D928A95E1F7DF9147
:101CB000CF9108958091E30487FD06C048E081E05C
:101CC00050E06D2F7C2FE8CF40E284E0F9CFBC01DB
:101CD00043E050E084E00E94010E08959091E404F6
:101CE00092FB222720F9281779F080FB92F9909334
:101CF000E4046091E3047091E40484E090E00E94C5
:101D0000D33682E00E9468060895882381F063ED4F
:101D100085E290E00E94B53665E386E290E00E949D
:101D2000B53666EB87E290E00E94B53608956FEF16
:101D300085E290E00E94B5366FEF86E290E00E9467
:101D4000B5366FEFEFCF1F93CF93DF93962F122F00
:101D5000632F282F292B2430C8F44B30B8F4C42F1C
:101D6000D0E0CC0FDD1F26E1929FC00DD11D1124C4
:101D700098E5899FC00DD11D1124CE0189960E943E
:101D8000B536612FCE018A960E94B536DF91CF918C
:101D90001F9108951F93CF93DF93962F122F632FD8
:101DA0008430A0F4911112C094E0899FE0011124C5
:101DB000C757DE4FCE01442369F00E94B53681E05B
:101DC00090E0612F8C0F9D1F0E94B536DF91CF915F
:101DD0001F91089502960E94B53683E090E0F1CFFE
:101DE000CF93DF93CDE5D2E060E0CE010E94B5361F
:101DF0002196C11584E0D807B9F7DF91CF910895F6
:101E000085E290E00E949136833D89F486E290E07D
:101E10000E949136853359F487E290E00E94913612
:101E200091E0863B09F090E0892F8170089580E071
:101E3000FCCF0F931F93CF93DF930FEB14E0C9E90F
:101E4000D1E0CE010E949136F80161918F01861791
:101E500019F0CE010E94B5362196CD3BF1E0DF07A7
:101E600081F7DF91CF911F910F9108950F931F93E9
:101E7000CF93DF930FEB14E0C9E9D1E0CE010E94CC
:101E80009136F80181938F012196CD3BF1E0DF0778
:101E9000A9F7C4E7D6E0FE0185919491009711F06F
:101EA000FC0109952C96F7E0C430DF07A1F7DF911C
:101EB000CF911F910F9108950F931F93CF93DF93AD
:101EC000982F962B943020F54B3010F5C42FD0E08E
:101ED000CC0FDD1F26E1629FC00DD11D112438E516
:101EE000839FC00DD11D1124CE0189960E94913689
:101EF000082F10E0102F0027CE018A960E949136FD
:101F00009801282BC901DF91CF911F910F9108955E
:101F100080E090E0F8CF0F931F93CF93DF9384304E
:101F200048F5611127C024E0829F800111240757E2
:101F30001E4FC8014423A1F00E949136C82FD0E063
:101F4000DC2FCC2781E090E0800F911F0E9491361A
:101F50009E01282BC901DF91CF911F910F91089508
:101F600002960E949136C82FD0E0DC2FCC2783E068
:101F700090E0EACF80E090E0EECF462F672F2091EF
:101F8000D0023091D102232BC9F4703F39F4403F85
:101F9000A9F48091CE029091CF020895743038F464
:101FA0004B3060F4843050F40E945C0F08957D3F04
:101FB00041F4411103C041E0843048F080E090E0FA
:101FC00008957C3FD9F74111F9CF8430B8F760E02C
:101FD0000E948B0F0895A0E0B0E0E1EFFFE00C94C9
:101FE000E0357C010091BE0480910A04082BC3E017
:101FF000D0E010E0C8010C2E02C0959587950A9498
:10200000E2F780FD09C02197A8F7D12C8D2DCDB71F
:10201000DEB7E7E00C94FC35DC2EB7018C2F0E9474
:10202000BD0F0E949007019771F3F0CFCF93DF931C
:10203000D82FC92F0E94EB0F6D2F7C2F0E94BD0F50
:102040000E949007DF91CF910895FC01848188233D
:1020500071F087819085009729F00E9490070E9477
:102060000D050895808191810E941610F8CF80E0BF
:1020700008951F93CF93DF93182FD92F662399F0DC
:10208000442389F00E94EB0FC82F682F812F9D2FCA
:102090000E94A305612F7D2F8C2F0E94BD0FDF9121
:1020A000CF911F9108950E94BF05C82FF3CFFC0167
:1020B000462F87819085009729F4658180819181E1
:1020C0000E94391008958091080490910B04892B87
:1020D0008093AC0180910704882351F18091C10461
:1020E0009091C204892B29F00E94D80A81110E9484
:1020F00092068091AC0190910704892B8093AC01EA
:1021000080911701882309F442C08091E30487FF7E
:102110003EC08DE190E02EEA31E0F90140812F5F71
:102120003F4F41119F5F8150C0F791110E9492066D
:1021300040E250E066ED72E08CEA91E00E94643685
:10214000892B21F180E2ECEAF1E0A6EDB2E001900A
:102150000D928A95E1F7E091D402F091D502309783
:10216000A9F080911701882359F08091E30487FF3B
:1021700007C08091AC018093AD0186E08093AC01F3
:102180000280F381E02D8CEA91E00995089585E0C5
:10219000C1CF882321F00E9484060E946310089515
:1021A000882339F090910B04892B80930B040E94B3
:1021B00063100895882321F00E948A060E9463100C
:1021C0000895882341F0809590910B048923809392
:1021D0000B040E9463100895CF93C82F8823C9F081
:1021E0008238C9F40E94730A81FD13C089E30E94FA
:1021F00007060E9463102FEF37EE83E02150304036
:102200008040E1F700C0000089E30E943B060E9485
:102210006310CF9108958338A1F40E94730A80FD62
:10222000F8CF83E50E9407060E9463109FEF21EE1E
:1022300034E0915020403040E1F700C0000083E5D9
:10224000E4CF8438A1F40E94730A82FDE2CF87E4D0
:102250000E9407060E9463108FEF91EE24E08150E8
:1022600090402040E1F700C0000087E4CECF8CEF23
:102270008C0F813A90F580911701882301F18091AC
:10228000E30487FF1CC0EC2FE695E695E695F0E0A9
:10229000E455FE4F828190E04C2F477021E030E002
:1022A00002C0220F331F4A95E2F782239323892B22
:1022B00081F08C2F0E943B060E9463100AC0EEEA58
:1022C000F1E084EB91E02191C21799F38E179F07FB
:1022D000D1F78C2F0E9407069ACF80E28C0F8830AE
:1022E00048F4C77081E001C0880FCA95EAF70E94E0
:1022F00084068DCF8BE58C0F833038F42C2F24523D
:10230000330BC9010E94800A84CFC85ACB3108F030
:1023100080CFEC2FF0E0EE0FFF1FEC58FE4F8081D6
:1023200091810E94A60A75CFCF93DF93EC01805E66
:102330009109089720F060ED70E1209711F469ECA5
:1023400070E1CE010E94E1048C2F0E94EC10DF911D
:10235000CF910895662329F020910B0422602093E9
:102360000B049C0130522115304308F499270E9438
:1023700094110895882309F44DC0823879F40E949D
:10238000730A81FF47C089E30E9407060E94631019
:1023900089E30E943B060E9463100895833859F434
:1023A0000E94730A80FF36C083E50E9407060E94E0
:1023B000631083E5EECF843859F40E94730A82FFDC
:1023C00029C087E40E9407060E94631087E4E1CFDA
:1023D0009CEF980F913AE8F290E2980F983050F401
:1023E000877091E001C0990F8A95EAF7892F0E94C2
:1023F0008A06D1CF9BE5980F933028F480E090E0D7
:102400000E94800A0895885A8B3120F480E090E081
:102410000E94A60A0895CF93DF93EC010E94BA119F
:10242000CE01805E9109089720F061EE70E120975F
:1024300011F46AED70E1CE010E94E104DF91CF91C9
:1024400008950F931F93CF93C82F0091DF0410912D
:10245000E004893321F00091DD041091DE048C2F1B
:102460000E94EC100115110539F48C2F0E94BA114D
:10247000CF911F910F9108958FE99FE00197F1F798
:1024800000C0000001501109EDCFA0E0B0E0EBE486
:10249000F2E10C94DF35EC01C62E9881992309F402
:1024A000B0C0913009F04DC08981813091F48E0126
:1024B0000E5F1F4F8A810E942112E80121968C2D08
:1024C000815058F3EFE9FFE03197F1F700C00000C9
:1024D000F7CF823039F48E010E5F1F4F8A810E9440
:1024E000EC10EBCF833039F48E010E5F1F4F8A81E1
:1024F0000E94BA11E2CF843011F02196DFCF2A81F9
:10250000229680E090E06AE0AE014F5F5F4F20537B
:10251000330B2A30310550F0009781F2EFE9FFE0EC
:102520003197F1F700C000000197F6CF689FF001E6
:10253000699FF00D1124C9018E0F9F1F2981EA01A7
:10254000E3CFE92FF0E0E852FC4FD490292F2695F5
:102550002695269530E0F901E853FC4F8491977059
:10256000F901E854FC4FE490F12C092E02C0F594D7
:10257000E7940A94E2F7F1E0EF22FF24F901E8552D
:10258000FC4F049110E0092E02C0159507950A949E
:10259000E2F701701127E82FF0E002C0F595E7950A
:1025A0009A95E2F7E0FD0EC0E114F104B1F48D2D2F
:1025B0000E9421120115110509F480CF8CE20E94BE
:1025C00021127CCF81EE0E94EC10E114F10479F429
:1025D0008D2D0E94211281EE07C086EE0E94EC1024
:1025E0008D2D0E94211286EE0E94BA11E3CF86EE55
:1025F0000E94EC108D2D0E94211286EE0E94BA11CD
:10260000EACFCDB7DEB7E8E00C94FB3510920804B2
:1026100080911701EEEAF1E08823B1F08091E304A4
:1026200087FF12C08EE1DF011D928A95E9F780E0F5
:1026300090E00E94800A80E090E00E94A60A10923A
:102640000B040E946310089586E0EDCF0E940613EC
:102650002FEF84E39CE0215080409040E1F700C0E0
:10266000000088E19CE00FB6F894A8958093600084
:102670000FBE90936000FFCFCF92DF92EF92FF9258
:10268000FB018FEF9FEF4430510508F481C0C080FB
:10269000D180E280F3800E940613D701C601B6956F
:1026A000A795979587958170282F220FD701C6018E
:1026B00081709927AA27BB27822BB701A60132E098
:1026C00076956795579547953A95D1F74170440FA0
:1026D000440F842BB701A601E3E0769567955795E3
:1026E0004795EA95D1F74170440F440F440F842B6E
:1026F000B701A601F4E07695679557954795FA9549
:10270000D1F741704295407F842BB701A601A5E027
:102710007695679557954795AA95D1F7417042955B
:10272000440F407E842BB701A601B6E076956795ED
:1027300057954795BA95D1F741704295440F440F8C
:10274000407C842BB701A60197E076956795579555
:1027500047959A95D1F7479544274795842B8093C1
:10276000E304D1FA882780F9880F9D2D9170892B79
:102770009091E4049C7F892B8093E4046091E304AE
:102780007091E40484E090E00E94D33680E090E011
:10279000FF90EF90DF90CF900895EFEBF4E0128E72
:1027A000138E8FEA90E09183808385E0848F28E800
:1027B00033E13383228322E330E0378B268B28EC0E
:1027C00030E0318F208F158E2AE030E0378F268F52
:1027D00020E530E031A320A382A30E94190F0E94BC
:1027E00006131092E4041092E30480E08460809366
:1027F000E40460E074E084E090E00E94D3360E943C
:10280000360F0895AAE2B0E0E8E0F4E10C94E43574
:1028100085ED91E0FC0101962091F100208321E0FB
:102820008D3D9207B9F78091D601893009F456C0E1
:10283000C8F4823009F4B3C0833009F482C0813017
:1028400071F18091E80083FFE7C08091D5019091FC
:10285000D6019A3008F0E0C0E92FF0E0ED50F94CD5
:102860000C94C8358A3009F489C08B3051F78091B7
:10287000D501813231F78091D9019091DA01892B0C
:1028800001F78091E800877F8093E8000E94BD0BEC
:102890008091D701809317010E940613D2CF8091B7
:1028A000D501813A71F68091E800877F8093E80036
:1028B0008091D9019091DA01892B61F060E080E08C
:1028C00090E070E00E94640B8091E8008B77809329
:1028D000E800B7CF60E28DED91E0F3CF8091D501B4
:1028E000813209F0AECF8091D9019091DA018D7FCC
:1028F000892B09F0A6CF8091E800877F8093E800BC
:102900008091E80082FF18C09091F3008091F2005E
:10291000029731F48091F100813011F0863021F47A
:102920008091F1008093FD018091E8008B77809386
:10293000E8000E94BD0B85CF8091CD028111E0CFD0
:1029400080CF8091D501813A09F07BCF8091D90168
:102950009091DA01892B09F074CF8091E800877F8C
:102960008093E8008091E80080FFFCCF8091170100
:102970008093F1008091E8008E77D9CF8091D501C6
:10298000813209F05ECF8091E800877F8093E80074
:102990000E94BD0B8091D8018093D10152CF8091CC
:1029A000D501813A09F04DCF8091E800877F80936F
:1029B000E8008091E80080FFFCCF8091D101D8CF62
:1029C000803889F0823841F58091D9018F70873045
:1029D00018F58093E9008091EB0085FB882780F94A
:1029E0001092E90006C08091D2019091AE0291113F
:1029F00082609091E800977F9093E8008093F100C7
:102A00001092F1008091E8008E7723C0811116C0EA
:102A10008091D701813011F18091E80083FF0AC0D5
:102A20008091E800877F8093E8008091EB008062CE
:102A30008093EB00AA96E3E00C940036823061F7B5
:102A40008091D701882389F01092E9008091E800F5
:102A5000877F8093E8000E94BD0BDECF81E093303A
:102A600009F080E08093AE02EFCF8091D9018F70A2
:102A70002FEF280F263080F68093E9002091EB009D
:102A800020FFE2CF933031F48091EB00806280939D
:102A9000EB00DACF9091EB0090619093EB0021E096
:102AA00030E0A90102C0440F551F8A95E2F7409318
:102AB000EA001092EA008091EB008860E8CF811173
:102AC000ABCF1091D7011F778091E3008078812BE5
:102AD0008093E3008091E800877F8093E8000E9464
:102AE000BD0B8091E80080FFFCCF8091E3008068FF
:102AF0008093E30083E0111101C082E08093CD0256
:102B00008BCF8058823008F087CF4091D701509109
:102B1000D8014C3D83E0580799F583E08A838AE227
:102B200089834FB7F894DE01139620E03EE051E22E
:102B3000E32FF0E050935700849120FF03C082956B
:102B40008F703F5F8F708A30C8F0895C90E08D9302
:102B50009D932F5F243161F74FBF8091E800877FFD
:102B60008093E8006AE270E0CE0101960E94640B57
:102B70008091E8008B778093E8004ECF805DE6CFB0
:102B80008091D9019091DA01252F33272330310527
:102B900009F44AC078F52130310509F483C08BE58A
:102BA00090E0EFE7F1E02230310509F035CF2091D8
:102BB000E800277F2093E8002091DB013091DC01C1
:102BC0008217930708F49C0140E02115310509F0B4
:102BD0006EC041116CC08091E80082FDC9CF809128
:102BE000CD02882329F2853019F28091E80083FF15
:102BF000F2CFBECF2132310509F445C02232310572
:102C000009F00ACF8330910508F006CFFC01EE0FE2
:102C1000FF1FE65DFE4F0190F081E02D895D9E4F24
:102C2000DC018C9190E010C0CA019927423019F163
:102C30008330910568F4892BB1F4E4E3F2E0E49188
:102C40008E2F90E0E4E3F2E0009709F4E5CEAFCFF9
:102C5000039709F0E1CEECEEF1E0E4918E2F90E0E5
:102C6000ECEEF1E0F1CFEEE1F2E0E4918E2F90E0B6
:102C7000EEE1F2E0E9CFEAE0F2E0E4918E2F90E0BD
:102C8000EAE0F2E0E1CF8330910508F0C5CEFC0127
:102C9000EE0FFF1FE05DFE4F0190F081E02D89E017
:102CA00090E085CF82E190E0EAEDF1E080CF809185
:102CB000CD02882309F45CCF853009F459CF809187
:102CC000E80083FD55CF8091E80082FD84CF80919C
:102CD000E80080FF7ACF9091F3008091F2002115F7
:102CE000310519F08830910550F041E0089709F05E
:102CF00040E08091E8008E778093E80066CF4491B1
:102D00004093F1003196215031090196E8CF803887
:102D100009F082CE8091E800877F8093E80080915F
:102D2000D3018093F1006ECE811176CE1091D70140
:102D3000123008F071CE8091E800877F8093E80020
:102D40001093D3010E94BD0B1123D1F084E0809336
:102D5000CD0242E061EC81E00E942C0C42E261EC89
:102D600084E00E942C0C42E261EC82E00E942C0C78
:102D700042E260EC83E00E942C0C8091CD024CCEAC
:102D80008091E30087FDE2CF81E0E1CF80911801DF
:102D9000877F8093180190910B049D7F90930B0483
:102DA00084FF06C08F7E8093180182E00E94840613
:102DB0008091180185FF06C08F7D8093180180E205
:102DC0000E9484060E9463100895CF92DF92FF92C2
:102DD0000F931F93CF93DF93EC018B01F42E80911F
:102DE000180182FF66C0C090EE03D090EF03CC16AE
:102DF000DD0619F0209709F05CC0809118018B7FE7
:102E000080931801C1E081FD10C08091EC03909186
:102E1000ED039801281B390BC1E0809113019091BB
:102E200014012817390708F4C0E0C1708091180117
:102E3000C0FB81F9809318016C2FC6010E940B0A18
:102E40008091080481FF08C08091180180618093FF
:102E5000180182E00E948A068091080485FF08C05C
:102E60008091180180628093180180E20E948A0696
:102E70006C2FC6010E94AA11FF2031F08091DA0464
:102E800085FF02C086FF29C08091DD049091DE0499
:102E90000E94BE0C8091EE039091EF039C01305292
:102EA0002115304308F499270E940B120E94C61680
:102EB00010C0CE01905281159043B8F4CE019927ED
:102EC0000E940B128091EE039091EF03C817D9076F
:102ED00069F31093ED030093EC03DF91CF911F9101
:102EE0000F91FF90DF90CF900895CE01E9CFCF935F
:102EF000DF93EC014A855B856E857F850E946E0AB3
:102F00009B81909580910B04892380930B048C8185
:102F10000E948A060E94631086E0FE0111928A9543
:102F2000E9F7DF91CF910895CF93DF93EC018D8185
:102F300081FD14C082608D8380910B049B81892B5D
:102F400080930B048C810E9484060E946310488544
:102F500059856E857F85CE010E946E0A10926903A5
:102F6000109268038D8180FD03C0CE010E94771707
:102F7000DF91CF910895A0E0B0E0E1ECF7E10C948F
:102F8000DF358901D42FC52F6B017C010E945109C7
:102F9000A8016D2F7C2F88E090E00E94C736980131
:102FA0004D2F5C2FB601C70100E20E942736622F29
:102FB00084E290E00E94B536CDB7DEB7E8E00C942D
:102FC000FB35EDEFF3E083E0808311828FEF8283A6
:102FD00083831482758123E030E04FEF5FEF60E080
:102FE000868197810E94BB170895809101048330E8
:102FF00018F48F5F809301042091FD033091FE034C
:103000004091FF035091000460910104709102040B
:1030100080910304909104040E94BB17089580914D
:103020000104882319F08150809301042091FD034D
:103030003091FE034091FF03509100046091010420
:103040007091020480910304909104040E94BB17C4
:103050000895A3E0B0E0EFE2F8E10C94D835F82E43
:10306000762EE42E622E9091FD0390FF2EC0E92F64
:10307000E695AE2FB0E0AA5CBE4F8C918093FB0327
:103080009E7F923031F59E012F5F3F4F8F2D0E9422
:10309000C5084B8169818A810E94900DF092FE03E0
:1030A0007092FF03E0920004662079F02091FD0306
:1030B00060910104709102043F2D472D5E2D809197
:1030C0000304909104040E94BB172396EFE00C9434
:1030D000F435823019F4E0900004E0CF863019F422
:1030E000F090FE03DBCF8930D9F38531B9F6E55195
:1030F0008E2F8170582EE695F0E0E85AFA4FE49151
:103100000E2F10E080E8C82E82E0D82EA12CB12C22
:103110009CE0892E912CC501B4010E94A0358F2D11
:10312000511013C0860F96014E2D672D0E94C508C1
:10313000A00EB11E83E0C80ED11C84EAC81682E03E
:10314000D80649F70E94CC0CA9CF861BECCFEDEF37
:10315000F3E0818121E043816281885F0E94291828
:103160000895EDEFF3E0818121E043816281885091
:103170000E9429180895EDEFF3E0628121E1620FCA
:1031800008F46FEF21E0438181810E94291808959E
:10319000EDEFF3E0628121E1621B08F460E021E0E1
:1031A000438181810E9429180895EDEFF3E0438166
:1031B00021E1420F08F44FEF21E0628181810E94FA
:1031C00029180895EDEFF3E0438121E1421B08F453
:1031D00040E021E0628181810E9429180895A4E1E4
:1031E000B0E0E5EFF8E10C94D835C0901501D0902F
:1031F000160181E090E0909316018093150138E963
:10320000E32E33E0F32EA12CB12C10E0350100E0C9
:1032100015C0F40125913491452D602F812F0E9416
:10322000A30E22E0820E911C53943BE05312F1CF87
:103230008BE0680E711C0F5F043049F0C301880FEA
:10324000991FDC01A85CBD4F4D01512CE2CFF70165
:103250002591349141E060E0812F0E94CA0EF70170
:1032600032962591349140E060E0812F0E94CA0E91
:10327000B4E0EB0EF11C1F5F2CE2A20EB11C143067
:1032800009F0C4CF0E94CD131A8219821C821B82BE
:103290001E821D8218861F8288EC90E09A8789879B
:1032A0000DEB11E04AE050E0B801CE0101960E941A
:1032B000D936065F1F4F0D3032E0130799F7FE0134
:1032C0003B968AE0DF011D928A95E9F77F014AE08B
:1032D00050E0B801C7010E94D936065F1F4F0D3577
:1032E000B2E01B07A1F7D0921601C09215016496B7
:1032F000EFE00C94F43580E00E94850E60E088E2F7
:1033000090E00E94B5360E94EF180E94F00E81E016
:103310000E94850E0895A8E0B0E0E1E9F9E10C947F
:10332000E53566EE7EEF80E090E00E94D33660E007
:1033300082E090E00E94B53660E083E090E00E9479
:10334000B53610920A0460E074E184E090E00E94D7
:10335000D33660E086E090E00E94B5366FEF87E0FC
:1033600090E00E94B53640E050E0BA0188E090E07D
:103370000E94C73660E084E290E00E94B53660E0CB
:1033800087E190E00E94B53660E08CE090E00E941A
:10339000B53660E08DE090E00E94B53619821A8261
:1033A0001B821C821D821E821F82188648E050E00C
:1033B00068E170E0CE0101960E94A53640E050E041
:1033C000BA0180E290E00E94C73680E00E94850E3C
:1033D0000E947B1940E050E0BA018FE090E00E942B
:1033E000C73640E050E0BA0183E190E00E94C73662
:1033F0002896E2E00C940136AAE0B0E0E2E0FAE1BF
:103400000C94DF35E7E2F2E080E5DF011D928A955A
:10341000E9F7EFE0F4E088E3DF011D928A95E9F730
:1034200087E2C82E82E0D82E7F010DE012E0F7017E
:10343000D182C0824AE050E0B801CE0101960E94DC
:10344000813688E0FE013196D60101900D928A9571
:10345000E1F789859A85D70113969C938E931297ED
:10346000BAE0CB0ED11CE7E0EE0EF11C065F1F4F59
:103470000D35F2E01F07D9F62A96E8E00C94FB35EB
:10348000282FCB01283070F44AE0249F90011124AA
:10349000B90163547E4F4AE050E00E94813680E0DB
:1034A00090E008958FEF9FEF0895AAE0B0E0EBE57C
:1034B000FAE10C94E5359C0197558F3F910509F091
:1034C00070F4BE016F5F7F4F822F0E94401A892BDC
:1034D00031F489859A852A96E2E00C940136809130
:1034E000D7049091D804F7CFA0E0B0E0EAE7FAE182
:1034F0000C94E035D62E172FC42FD22F8823A9F095
:103500004093F9030E94CC0A9093D0018093CF019D
:10351000C77081E001C0880FCA95EAF70E94C91000
:10352000CDB7DEB7E7E00C94FC358091F903481382
:1035300037C08091CF019091D0010E94510B7C0146
:103540008D2D912F0E94551AE816F90648F5CD13D6
:103550000CC0802F0E942112D77081E001C0880F1B
:10356000DA95EAF70E94DA10DBCFC77011E0812FFD
:1035700001C0880FCA95EAF70E94DA1080E28D0F29
:10358000883050F48D2F877001C0110F8A95EAF7AB
:10359000812F0E94C910DDCF802F0E942112C0CF41
:1035A000C77081E001C0880FCA95EAF7DBCF909120
:1035B000FD0390FF39C08823C1F18F31C0F58F77AB
:1035C000282F220F8091FD038170282B2093FD036B
:1035D000662381F03091FE034091FF035091000477
:1035E000609101047091020480910304909104049D
:1035F0000E94BB176091FD03669570E04BE050E0C0
:1036000080E091E00E945736892B99F01092FC03DC
:1036100081E08093BB0220E0409100046091FF03B1
:103620008091FE030E942918089581E0C9CF8EE1A0
:10363000C7CF81E08093FC030E94CC0A9093B9022B
:103640008093B802E5CF8091FD0386958F5F8F311F
:1036500008F081E061E00E94D71A08959091FD037F
:1036600096958FEF890F913009F48EE161E00E9409
:10367000D71A08959091FD0390FF08C0969598176A
:1036800028F0961718F40E94231B089561E00E9409
:10369000D71A0895A4E0B0E0E0E5FBE10C94DD3535
:1036A0007C01DC0114968C91882309F4D2C361E07B
:1036B000C7010E9457108C01F7018581882319F1F9
:1036C00080916803909169030097E9F00817190742
:1036D000D1F0992744E0880F991F4A95E1F7FC0142
:1036E000EF58FC4F20812460208384599C4FDC01DB
:1036F0000D931C930E94941710920B0461E0C70174
:103700000E9457108C01F7018581882309F4BCC001
:10371000C80197578038910508F0DFC1D02EFFE02F
:10372000F01708F485C38FEF93E00E949136811162
:103730007FC30DE512E0D1103DC080911A01909138
:103740001B01A0911C01B0911D0189839A83AB8359
:10375000BC8368014FEFC41AD40AC8010E94913695
:1037600089831A82882309F463C3813009F085C0F4
:10377000580152E0A50EB11CC6010E949136D82E08
:103780008A83882309F454C3C5010E949136C82E48
:103790008FEF8D0D8330E0F4CB82CC2029F060E0F8
:1037A000CE0101960E944512580183E0A80EB11C7B
:1037B0008501CFCF011524E0120709F439C3C801F0
:1037C0000E9491360F5F1F4F8111F4CFDA94B3CF6F
:1037D0008BEF8D0D833040F5580193E0A90EB11C9D
:1037E000CB82CC2029F3C5010E9491368C8388239B
:1037F00081F08B819C818130AFEF9A0710F0982F78
:103800008827B6E0DB1651F0E7E0DE1651F00E94A3
:10381000772A5801F4E0AF0EB11CCACF0E94332AB8
:10382000F8CF0E94552AF5CF24E0D212C1CF58011B
:1038300044E0A40EB11CC80103960E949136CC202E
:1038400009F4F6C2882309F4F3C28150990B4FEFB3
:10385000489F9001499F300D1124AC2DA150BB0B06
:103860002A0F3B1F2150310908F4A2CFEFE9FFE0F6
:103870003197F1F700C00000F5CF6AE0CE01019664
:103880000E944512560194CF011527E5120708F44E
:1038900060C1011548E5140708F026C1680157E525
:1038A000D51A6EE573E08C2D0E94401A892B31F5F4
:1038B000C60124E0880F991F2A95E1F7FC01E4591D
:1038C000FC4F2281213009F0F3C020915E0330913A
:1038D0005F03232B99F02091600330916103232B28
:1038E00069F0209162033091630340916403509129
:1038F0006503242B352B232B09F4E4C0F801FF27A3
:1039000094E0EE0FFF1F9A95E1F7CF0184599C4F89
:103910006C01D70115968C91EF58FC4F908180FB7C
:1039200090F99083882309F4F3C00E94CC0A909305
:103930006B0380936A03F60182818F5F828380919B
:103940000B0490910804892B83838091070484835E
:103950004681578166857785C6010E946E0AD60129
:1039600015968C9181FDD1C0902F812F9093680383
:10397000809369038091DA0480FFC4C10E94CC0A5D
:103980005C01F70185818111F6C0013E110509F046
:1039900070C1809118018F7E8093180185818823E2
:1039A00009F41CC48823B1F00A35FCE71F0709F4A9
:1039B00056C408F02CC401304CE7140709F44DC478
:1039C00003305CE7150709F442C401158CE71807BA
:1039D00009F430C4F70187819085009709F443C446
:1039E0000E949007D82E192FF701B580C680C29487
:1039F0008FE0C82280910C0487708823F1F0AB2CF3
:103A0000BB20E1F0892F807F803451F080E28D0D62
:103A1000883098F0C11004C0892F807E803269F010
:103A20008091E40482FF09C082E00E9468068091D0
:103A30000C048770AA24A3948111A12C812F829554
:103A40008F70883009F476C508F035C4843008F0EA
:103A500021C4012F0F70823008F43FC4812F807F72
:103A6000803211F00295007FDD2009F46CC421E062
:103A7000D21609F40FC5BB2009F427C5CC2009F4E0
:103A80001FC540E0D70115966C9115978D919C91BB
:103A90000E9439108091DC0481FD0EC5F7018681FA
:103AA00080FF0AC58F708683802F0E94C91092C440
:103AB000223009F023CF2091620330916303232B3E
:103AC00009F41CCFFC01EF58FC4F20812E7F20838E
:103AD00084599C4F0E94941711CFC80197558F3F6E
:103AE000910509F008F40ACF8091DA0480FD46CFF1
:103AF000F7018581F801E851FC47E730F10508F04E
:103B000001C1E350F94C0C94C83590E080E02ECF11
:103B1000D6011C964D915C911D971E966D917C91DE
:103B2000C6010E946E0AF601858181FF23CFC6017E
:103B30000E94771720916803309169038091DA041D
:103B40000217130709F018CF109269031092680347
:103B500013CF8091DA0480FD11CF80910804827226
:103B6000F801E052F847E531F10508F037C3EC5FA2
:103B7000F84C0C94C8358091180182FF06C040E0D3
:103B8000B50180E090E00E94E5160431FCE71F07D4
:103B900009F446C005312CE7120769F1D7011596E3
:103BA0008C910331BCE71B0709F04BC090911801C1
:103BB000916090931801882381F21092EF03109284
:103BC000EE031092F903C8019057839708F054C28E
:103BD00084E090E00E949F369093E4048093E30495
:103BE000F801E150F047E232F10508F088C1E75EE4
:103BF000F84C0C94C83590911801892F8E7F90FF56
:103C00008160809318010E94C6168091180180FF80
:103C100073C1D70115968C91882309F473C05DC0D8
:103C2000809118018E7F809318010E94C6168091A2
:103C3000180180FDEECFD70115968C918111C1CF6F
:103C40008CCF980130522115304388F51092EF0344
:103C50001092EE03882309F4BDCE1092F9030837C1
:103C6000ECE71E0709F09ECE882309F4CEC282E05D
:103C7000C0C2053E110539F4809118018F7D8093F3
:103C8000180185818CCEC80190528115904378F43B
:103C90008091180182FF61CF8091DC0481FD5DCFAE
:103CA00040E0B50180E090E00E94E516C4CFF70146
:103CB00085819091180190FF1BCF0832110590F477
:103CC0000E31110508F061C09801245031092A31E4
:103CD000310598F1882309F440CF1092EF03109238
:103CE000EE0310C009331105E8F40D32110520F47C
:103CF0000B32110509F05FCF9091DA0492FF21C0D9
:103D0000811116C0D70115968C9181111092F9037B
:103D1000F7019581911157CF0631BCE71B0709F0D8
:103D20001CCFB0C10436110539F3882309F4E0CE65
:103D30001092EF031092EE03DBCE9091DA0494FD23
:103D4000C9CF882309F4A6C0809107049091080484
:103D5000892B8D7F8823F1F01092EF031092EE03F0
:103D60008091DA0481FD16C060E0C8010E940B0A50
:103D700060E0C8010E94AA11809107048D7F0E9413
:103D8000200B82E00E94680653C09091DA0493FDF4
:103D9000A1CFD7CF89E0F701A0EFB3E001900D925A
:103DA0008A95E1F71092F5031092F3031092F20353
:103DB0008091EE039091EF030817190709F04DC0A9
:103DC0002091DA0425FF49C03091180131FF02C06B
:103DD00026FF43C02091EC033091ED036501C21A28
:103DE000D30A0E94551AC816D906B8F5809108045E
:103DF00081FF08C08091180180618093180182E0E2
:103E00000E948A068091080485FF08C080911801ED
:103E100080628093180180E20E948A0660911801F6
:103E2000669561708091EE039091EF030E94AA1154
:103E300080910C048770882361F0D70115968C91CE
:103E4000882339F08091E40482FF03C082E00E945D
:103E500068062496EAE00C94F93580910704D09026
:103E60000804D82AD1FADD24D0F88D7F0E94200BD7
:103E70001093EF030093EE03B092ED03A092EC03D6
:103E8000DD0C6894D2F890911801997FD92AD092CC
:103E9000180177CF40E0B501C8010E94E516C8CFF0
:103EA00006E221EE41EE6AE17CE70E94741AC0CF7F
:103EB00007E225EE45EE6BE17CE7F7CF06E221EE67
:103EC00040EE68E17CE7F1CF07E225EE44EE69E1E0
:103ED0007CE7EBCF06E221EE42EE6CE17CE7E5CF3A
:103EE00007E225EE46EE6DE17CE7DFCF08E221E058
:103EF00045EE6EE17CE7D9CFF70185819FCE8091B9
:103F0000E30481608093E3046091E3047091E4042E
:103F100084E090E00E94D3360E94061389CF8091FE
:103F2000E40488608093E404EFCF8091E30482602E
:103F3000E9CF8091E3048460E5CF8091E304886059
:103F4000E1CF8091E4048160EDCF8091E404826050
:103F5000E9CF8091E3048061D5CF8091E304806252
:103F6000D1CF8091E3048064CDCF0E94061380916D
:103F7000E3048068C7CF8091E3048C60C3CF809155
:103F8000E4048360CFCF8091E3048E7FBBCF809128
:103F9000E404877FC7CF8091E3048D7FB3CF809106
:103FA000E3048B7FAFCF8091E304877FABCF809119
:103FB000E4048E7FB7CF8091E4048D7FB3CF8091EE
:103FC000E3048F7E9FCF8091E3048F7D9BCF809110
:103FD000E3048F7B97CF0E9406138091E3048F77D1
:103FE00091CF8091E304837F8DCF8091E4048C7F17
:103FF00099CF8091E30482FB992790F921E09227E1
:1040000090FB82F990FB83F97DCF8091E404982F97
:10401000909591708E7F892B90FB81F983CF909141
:10402000E304892F8F7B96FF80646CCF0E94061378
:104030009091E304892F97FB87F9805863CF61E063
:104040008EE090E00E94B5365FCF60E0F9CF9091AE
:10405000E304892F8F7E94FF806154CF9091E30415
:10406000892F8E7F90FF81604DCF9091E404892F3E
:10407000877F93FF886056CF0631FCE71F0709F062
:10408000ADC091E0809108043091D90430FF04C0A4
:10409000282F247421111CC0282F2A7A31FF04C034
:1040A000482F4171411120E0432F487032FF12C068
:1040B000382F3878332371F041111FC0911114C08B
:1040C0008091FA038823D9F085E30E943B0612C051
:1040D00020E0E4CF442319F082728111EFCF9923BD
:1040E00079F385E3211102C090E089E29093FA030D
:1040F0000E9407060E9463109BCE20E0EDCF89E26C
:10410000E4CF8091FD0380FF19C0282F2E7F2093DC
:10411000FD033091FE034091FF0350910004609134
:1041200001047091020480910304909104040E94A0
:10413000BB171092FC030E94CC0C7ACE8160809356
:10414000FD0361E086950E94D71A72CE4EE25BE1D4
:1041500063E27BE10E945F096BCE43E25BE16EE2CA
:104160007BE1F8CF41EB58E167EA78E1F3CF47EA2A
:1041700058E161EB78E1EECF48EC58E16BEB78E188
:10418000E9CF4BEB58E168EC78E1E4CF42EE58E13F
:1041900065ED78E1DFCF45ED58E162EE78E1DACF09
:1041A0004FE058E165EF77E1D5CF45EF57E16FE09C
:1041B00078E1D0CF61E081E0C6CF65E082E00E9487
:1041C0003A1B36CE68E086E0FACF6EE089E0F7CFA2
:1041D00064E18FE0F4CF6EE185E1F1CFD701159670
:1041E0008C910737BCE71B0709F039CD882349F0CC
:1041F00081E00E94300543E062E081E00E94DC053E
:1042000017CE81E00E943C05F6CF82E0FBCF0B3554
:104210009CE7190731F10C35ACE71A0709F0DACB46
:104220008091E40482FB882780F991E089270E942D
:104230006E0ED0CB0E940613BFEFE4E3FCE0B1505A
:10424000E040F040E1F700C000000E94DD0D6FEF9C
:104250007FEF80E090E00E94D3360E94261381E039
:10426000E6CF80E0E4CF8581C080D180882369F0EB
:10427000C6010E94EB0F182F682FC6010E94A305EC
:10428000B601812F0E94BD0FABCBC6010E94BF05B6
:10429000182FF6CF843009F430C18D2D912F0E9454
:1042A0000D05882309F496C0BB2009F4A9C2CC20CF
:1042B00009F46DC08FC0893009F4ADC18A5F8F7079
:1042C000823058F70B2DF2EFDF12B7C1812F8F71BB
:1042D000B110B0C10E9430055BC1103110F00295E1
:1042E000007FBB20B9F0002359F080E28D0D8830AB
:1042F00010F0D11009C0802F0E9484060E94631024
:104300008D2D0E94EC10C9CF80910B04802B8093DF
:104310000B04F4CF8D2D0E94BA11002309F4BDCFF8
:1043200080E28D0D883010F0D11004C0802F0E94E3
:104330008A0606C0009580910B04802380930B04AD
:104340000E946310AACF8091E40482FD12C0BB20BA
:1043500049F0002329F0802F0E9484060E946310F8
:1043600080E0CFCF80E00E94BA11002309F495CFFE
:10437000DDCFBB2009F453C0C11023C0802F0E94A1
:10438000C91080E0912F0E940D05882319F1AA2001
:1043900009F431C280910C0480FD2DC2D70115961D
:1043A0001C928695869586950E943005C7010E94CD
:1043B0004A1B80910C048695869586950E943C0543
:1043C0001AC241E0C41215C0D0900704802F8D217D
:1043D000081305C01092E6041092E504D8CF0E949D
:1043E000CC0A9093060480930504D02AD092070447
:1043F000F1CF8091DB04823068F3C812EBCF802FBD
:104400000E94C910802F0E940A0B80910904902FEE
:1044100098230917F9F2802B80930904DBCFC11090
:1044200019C0802F0E94DA10802F0E940A0B809101
:104430000904902F9823911108C080E0912F0E94C9
:104440000D05882339F20A2D88C1009508230093B1
:104450000904F3CF8091DB04823008F4BBCF51E034
:10446000C512B8CF809108048023882309F4B2CF05
:10447000802F0E94DA10802F0E940A0B809109047D
:10448000902F9823992309F4A5CF00950823009332
:104490000904A0CF8091E104BB2039F08C1508F409
:1044A00099CF802F0E94C910F8CEC81608F0F5CE1B
:1044B000802F0E94DA10F1CE8D2D0E94EC108ACF51
:1044C000802F0E94C9108D2D5DCFCC2089F0F9E39B
:1044D0008091DF049091E004DF1621F08091DD04EB
:1044E0009091DE040E94BE0C8D2D0E94BA1172CFF5
:1044F000802F0E94DA108D2DA1CF812F8695869571
:104500008370882369F0813009F0C7CE8D2D912FFB
:104510009370B11002C080E090E00E94A60ABDCE68
:104520008D2D912F9370B11002C080E090E00E9419
:10453000800AB3CE812F8370811135C0B11028C09D
:104540004D2D429546954770440F440F8D2D8F7029
:10455000042E01C0880F0A94EAF72D2D2071222322
:1045600039F02FE030E001C0220F4A95EAF720959C
:10457000312F369536953370323081F0333061F01B
:1045800040910A04313039F0822B84230E942A059D
:104590000E94730A82CE842B822BF8CF822B9091BB
:1045A0000A048927F3CFBB2059F110FFF1CF4D2D1D
:1045B000429546954770440F440F8D2D8F70042E01
:1045C00001C0880F0A94EAF72D2D2071222339F0BB
:1045D0002FE030E001C0220F4A95EAF72095312FF5
:1045E000369536953370323089F0333069F040912A
:1045F000BE04313041F0822B84230E942D05C8CFA8
:10460000823030F2D4CF842B822BF7CF822B909143
:10461000BE048927F2CF012F0F70BB2039F0802F05
:104620000E9430058D2D0E94C910B2CF8D2D0E94A1
:10463000DA10802F0E943C05ABCF22EF2D1580F0C1
:1046400040EFD416D1F051EFD516D9F1BB2009F4C3
:10465000BCC0CC2009F4B6C08D2D0E94EC1098CFC0
:1046600083EFD816F1F094EFD91639F1B110F1CFEC
:10467000C110B5C0812F8F71DDCF8091E104BB20C7
:1046800061F0C81608F084CF212F2F7181E090E0EF
:1046900001C0880F2A95EAF7BACF8C1508F478CFB5
:1046A000F3CF80E0BB2009F4A8CF81E0912F9F7168
:1046B00001C0880F9A95EAF7A0CF8091E40482FDAB
:1046C00006C0812F8F71BB2009F4B4CF03CE809137
:1046D000DB04823008F45FC0BB2041F190910C04F0
:1046E00097709430B9F410920C0410920E0410924A
:1046F0000D04812F8F710E943C050E94730A84EF84
:10470000912F0E940D05811174C01092E604109241
:10471000E50471C0C81688F7012F0F71802F0E9421
:10472000300563E0802F0E94F30AE7CFC81678F1C6
:1047300010920C0410920E0410920D0464E0812F6C
:104740008F710E94F30A0E94730A84EF912F0E94D6
:104750000D058823D1F2C110D8CF40E0F701658163
:10476000808191810E9439108091DC0483FF09C00F
:104770008091E5049091E604029719F48D2D0E9432
:1047800021121092E6041092E504A02E00CE81E0E2
:104790000E946806D8CFBB2051F0012F0F71802FE7
:1047A0000E94300563E0802F0E94F30AF1CE81E081
:1047B0000E946806A1E0AC1508F0EACE82E00E94F3
:1047C0006806E6CE812F8F7185CDCC2009F452CFBB
:1047D000B9E38091DF049091E004DB1621F0809131
:1047E000DD049091DE040E94BE0C8D2D0E94BA1152
:1047F000CFCEC1108ACF60E0C7010E94571029CBED
:10480000C110E8CD20CEA0E0B0E0E9E0F4E20C94E5
:10481000E03580914603803108F049C0809145031E
:10482000882309F444C0C091F70289E0D82E809112
:10483000F6028C17E1F1EC2EF12CDC9EE001112444
:10484000FE01E850FD4F84818823B1F19181809170
:104850004103981331C090818091400398132CC07C
:104860008581811129C00281138180914203909139
:104870004303081B190B60E080E493E00E9457108B
:104880000E94551A08171907B8F4809146038F70D3
:10489000806180934603C250DD4F88818F708061B4
:1048A000888380E493E00E944A1B0E94FD05CDB7F7
:1048B000DEB7E7E00C94FC35E7012196C770B7CF6F
:1048C000AFE0B0E0E6E6F4E20C94D8358C0186E087
:1048D000F801DE011A9601900D928A95E1F7D80150
:1048E000CC9011967C90119715966C901597129616
:1048F000ED90FC90139714965C9080E4A82E83E0D2
:10490000B82E80914403811118C0552099F066207B
:1049100009F4BFC1C8010E942510882309F4B9C158
:1049200089E0F801A0E4B3E001900D928A95E1F7E7
:104930000E940324FF24F3944BC060E080E493E0E2
:104940000E945710D09045038091420390914303F9
:10495000DD2009F449C14701881A990A60E080E422
:1049600093E00E9457100E94551A8816990608F085
:10497000F6C05520F9F2B090460390914103F8013A
:104980008181FFE0FB1508F4A1C0F62C981325C027
:1049900090914003D8018C9198131FC02091470338
:1049A0003091480317968D919C9128173907A9F4E7
:1049B000611077C08B2D8F7080618093460380E4F7
:1049C00093E00E944A1B80914603F8018683F12CF4
:1049D0008F2D2F96EFE00C94F435611062C0E091BA
:1049E000F7028091F602AE2F99E0A81302C099E079
:1049F0002AC02A2F30E09A9FD0011124A850BD4F21
:104A000011964C911197741207C04C91C41204C0B6
:104A100015964C91411147C1D9011196A770E5CF68
:104A20002E2F30E09E9FF0011124E850FD4F418170
:104A3000741206C04081C41203C045814111C7CF22
:104A4000F9013196E7708E13EBCF8A859B850E9422
:104A50001610292F22952F70903448F02A5F2F705E
:104A60002230C8F0C8010E944A1BFD2CB1CF9F70B4
:104A7000223038F0992351F0F8019681903130F4CA
:104A8000A7CF992319F0882309F4A2CF805E88303C
:104A900008F49ECFE7CF803F08F49ACF815F823041
:104AA000F7CF809146038160809346038091DC04B8
:104AB00081FD8DCF80E493E00E944A1B89E0E0E411
:104AC000F3E0DF011D928A95E9F781CF981321C0A9
:104AD00090914003D8018C9198131BC020914703FB
:104AE0003091480317968D919C9118972817390794
:104AF00081F461100EC01696BC92C8010E944A1B38
:104B000089E0F801A0E4B3E001900D928A95E1F705
:104B100011CFC8010E942510882309F4BAC066206D
:104B200009F4B7C080914603803208F4F9CE809131
:104B30004003909141039A838983FC82EB828091A8
:104B400044038D831E82BF82809147039091480366
:104B500099878887CE0101960E944A1BE1CED090AA
:104B60004603BFE0BD1508F0A5CF552009F4E2CEFD
:104B700090914103F801818198131AC090914003EC
:104B80008081981315C02091470330914803878195
:104B900090852817390761F461100AC0D682C801D0
:104BA0000E944A1B89E0D5011D928A95E9F7C2CE81
:104BB000C8010E942510882309F46BC0662009F4FF
:104BC00068C080914603803208F4AACE80914003E9
:104BD000909141039A838983FC82EB828091440304
:104BE0008D831E82DF82B0CF6701C81AD90A60E0C8
:104BF00080E493E00E9457100E94551AC816D90607
:104C000008F04BC0552009F495CE662009F441C048
:104C100090914103F8018181981331C09091400334
:104C2000808198132CC020914703309148038781DD
:104C300090852817390719F5809142039091430315
:104C4000E81AF90AF8ECEF16F10408F059CF809150
:104C5000460380FD55CF803108F452CFD801169617
:104C60008C931697982F907F903F09F446CF982FFA
:104C7000907F905F8F70892B16968C933ECFC801E2
:104C80000E94251081114CCE809146038160809353
:104C90004603C8010E944A1B4DCE89E0F5011192DE
:104CA0008A95E9F794CE9091DC0490FFA0CE02CFD4
:104CB000A2E1B0E0EEE5F6E20C94E3350A871B874B
:104CC0002C873D874E875F87688B798B8A8BCE01D7
:104CD0000A960E94602481112BC089E0FE013A9659
:104CE000DE01119601900D928A95E1F72091F6026E
:104CF0004091F7028E858823D9F030E0C9010196F2
:104D00008770992750E084179507E9F099E0929F02
:104D1000D001939FB00D1124A850BD4FFE013196D4
:104D200001900D929A95E1F78093F6020E94FD059D
:104D300019E08091F7029091F602891312C06296F1
:104D4000E4E00C94FF350E9406131092F6021092D4
:104D5000F70289E0E0E4F3E0DF011D928A95E9F7CC
:104D6000E7CF189FC001112488509D4F0E946024F6
:104D7000882329F38091F70290E0019687709927A4
:104D80008093F702D6CFA0E0B0E0E9ECF6E20C9415
:104D9000DE358091BB04882369F0C0910602F12CB6
:104DA0008DE0E82E8091BB04C81748F01092BB0438
:104DB00010920602CDB7DEB7E9E00C94FA35BB24B9
:104DC000B394BC0EB0920602CC2ED12CEC9EE00126
:104DD0001124CD5ADB4F8C81882361F18F81988516
:104DE000892B21F489859A85019659F408811981C6
:104DF0002A813B814C815D816E817F8188850E9403
:104E00005826EC9CF001ED9CF00D1124ED5AFB4F5F
:104E1000148210920B04F1100BC0CE010E942510D9
:104E2000811108C08FE39CE90197F1F700C00000F1
:104E3000FF24F394CB2DB6CFA4E0B0E0E2E2F7E29A
:104E40000C94D63520915204298317E0912E01E06D
:104E500010E08DE0382E94E0492E55245394809133
:104E600051049981891308C00E94C3260E94310A07
:104E70002496E1E10C94F2355981452F50E05C8392
:104E80004B83FA01EE0FFF1FE95BFB4F808191819D
:104E9000989ED001999EB00D1124FD01E15FFB4F5A
:104EA000FA83E983248121115DC07090BB04E3E59E
:104EB000F4E060E070E0812C671508F051C0A38435
:104EC000B484A981BA81CD90DC904FEF5FEF612C63
:104ED000262D30E07901EE0CFF1CEC0CFD1CD701F7
:104EE000ED90FC90E114F10439F0AE14BF0409F028
:104EF0009A016394A901ECCF4F3F5407E1F1D80127
:104F000002C0AA0FBB1F4A95E2F78A2AA801062C05
:104F100002C0440F551F0A94E2F79A01215031094B
:104F2000482D50E02417350729F5369EF001379EAD
:104F3000F00D1124ED5AFB4F989ED001999EB00DB3
:104F40001124A15FBB4F12962D913C91139730878E
:104F500027834482108211829287818715965C9202
:104F60000E94420A8B819C8101969A838983837077
:104F7000898375CF14826F5F7F4F3D969DCF1092CE
:104F8000BD041092BC0410921901809151048093C9
:104F900052040E94310A0E94C3260895ACE1B0E099
:104FA000E4EDF7E20C94D5354B8B5C8B6D8B7E8BEF
:104FB0008F8B988F882349F08091E5049091E604C7
:104FC00001969093E6048093E504588C511010925A
:104FD0000B04188A198A1A8A86E0FE017396DE018C
:104FE0001A9601900D928A95E1F78091E40482FF70
:104FF00021C08091C1049091C204892BD9F00E94F4
:10500000CC0A20910D0430910E04821B930B209149
:10501000C1043091C2048217930738F080910C04C8
:1050200082FD03C082E00E9468060E94D80A8111B6
:105030000E9492068E85882379F061E0CE010A965F
:105040000E9457105C0180352CE7920789F45520A7
:1050500011F181E0809319010A851B852C853D851E
:105060004E855F85688979898A890E945826C8C0DB
:1050700081353CE7930729F4552069F00E94BF274A
:10508000EBCF82359C4739F4552029F080911901E6
:105090008111F4CFDECF8FE0E82E84E0F82E412C92
:1050A000812C912C66246394712CD7014D915C91D5
:1050B000CC24CA94DD24DA9420E0822F90E0FC0115
:1050C000EE0FFF1FE40FF51F6081718161157105FF
:1050D00039F0A616B70609F0C6012F5F6C01EDCFB7
:1050E000BFEFCB16DB0609F473C1F701548135819C
:1050F0004681511104C180911901882309F411C11D
:10510000552009F40EC10091D5041091D604311137
:1051100014C081E090E00C2C01C0880F0A94EAF7DB
:10512000482B468380914F0490915004801791073B
:1051300020F41093500400934F04A30102C0440FC5
:10514000551F2A95E2F79A0121503109D701169689
:105150008C9190E02817390781F48091BC049091DC
:10516000BD04009709F450C00E94510B081719079D
:1051700008F04AC081E0F7018483852D482ABFEFFB
:105180008B1A9B0AE7E0EE0EF11CF8E08F169104F3
:1051900009F08BCF552009F42FC1442009F41AC11E
:1051A0000E94CC0A9093BD048093BC048091BB0400
:1051B000883030F591E0980F9093BB0499E0FE01A0
:1051C0003A96DE01119601900D929A95E1F72DE045
:1051D000829FC00111248D5A9B4F29E0FE01319618
:1051E000DC0101900D922A95E1F72FEF3FEFDC01F2
:1051F0001A963C932E9319971C96BC92AE921B97CD
:105200006C96E2E10C94F1352091520480915104A6
:10521000922FE0E0F0E06701281314C0909352044D
:10522000EE15FF0509F4A9CF90E0FC01EE0FFF1F7A
:10523000E95BFB4F9182808201968370992780936E
:1052400051049BCF022F10E0F801EE0FFF1FE95B26
:10525000FB4F60817181F7E0F69FD001F79FB00DA1
:105260001124A15FBB4F4D915C9111975C8F4B8FC7
:1052700050E030E040E0E42FF0E0EE0FFF1F6B8DD8
:105280007C8DE60FF71F2080318021143104E1F07E
:10529000F7010190F081E02DFA8FE98F30E005C031
:1052A0002616370609F4552D3F5FE32FF0E0EE0F89
:1052B000FF1F698D7A8DE60FF71F6081718161157F
:1052C000710571F74F5FD7CF5523B1F0F601341751
:1052D00008F0FD0131E03483EE15FF0509F49ECF9F
:1052E000291305C0EA17FB0711F49F5F937098011B
:1052F0002F5F3F4F237090CFE0E0F0E0F8CF50E019
:1053000031112FC0B30102C0660F771F2A95E2F753
:10531000CB0101974817590799F4C4010E94420A2A
:105320000FC050E031111DC0D30102C0AA0FBB1F36
:105330002A95E2F79D01215031094217530709F0E0
:1053400080E0F30102C0EE0FFF1FCA94E2F76F0185
:10535000C094D70116969C9116979C2116969C9303
:105360000DCFCA010C2C02C0959587950A94E2F7DF
:105370009A012150310924233523232B39F580FF4D
:1053800025C0F70182819381892BD9F087E0FE0146
:105390003196DF011D928A95E9F70E94CC0A9C01A3
:1053A0008B839C8384E08D83F70192818381792FA5
:1053B0009887898709811A8144E05E816F810E9404
:1053C0005826D70115961C9281E0BBCF8170B9CFCA
:1053D00080E0D4CE9091510480915204981309C07A
:1053E0000E94C3261092BD041092BC040E94310A90
:1053F00033CE0E941C2730CE9091520480915104EC
:10540000981729F00E941C274110FACE25CE0E9441
:10541000C3261092BD041092BC040E94310AF4CF3E
:10542000A6E0B0E0E6E1FAE20C94E3350E94CC0A93
:105430008C018091D2029091D3028017910779F06C
:1054400019821A820E94CC0ABC0149815A8180E0EB
:1054500090E00E94CE271093D3020093D2022696AA
:10546000E4E00C94FF35A6E0B0E0E9E3FAE20C9446
:10547000E5359093CF028093CE02811520E292070A
:1054800030F40E9494112696E2E00C94013680EFED
:1054900089838A830E94CC0A8160BC0149815A8138
:1054A00081E091E00E94CE27EECFA6E0B0E0EBE5F0
:1054B000FAE20C94E5359093CF028093CE028115E9
:1054C00020E2920730F40E940B122696E2E00C9440
:1054D000013680EF89838A830E94CC0A8160BC01F7
:1054E00049815A8181E090E00E94CE27EECFCF9390
:1054F000DF93D82FC92F0E94332A8091DD04909129
:10550000DE040E94BE0C8D2F9C2F0E94552ADF9135
:10551000CF9108950F931F93CF93DF938C01862F24
:105520006EE573E00E94401A892BB1F4C0915E03CE
:10553000D0915F03209781F0F8018281833051F48C
:10554000CE010E94772ACE010E94772ACE010E94C6
:10555000772A02C08430D0F7DF91CF911F910F914D
:1055600008950F931F93CF93DF938C01EB016EE5AA
:1055700073E08C2F0E94401A892B09F05AC0FE015B
:10558000FF27D80112968C911297E958FD4F813070
:10559000A9F415968C9182FD51C080FF4FC082E026
:1055A000808380916003909161030097B9F48091AA
:1055B0005E0390915F030097E1F110C08230B9F56E
:1055C00015968C9182FD28C080FD0BC083E08083FE
:1055D0008091620390916303009701F10E94332A46
:1055E00028C084E0808380916403909165030097D4
:1055F000A9F780915E0390915F03009711F10E94DB
:10560000772A8091600390916103009739F7809128
:105610005E0390915F03E2CF85E0808380915E031B
:1056200090915F03009729F00E94772AF0CF86E0DF
:105630008083DF91CF911F910F91089581E0808346
:10564000B6CF8091600390916103B5CF0F931F9304
:10565000CF93DF938C01EB016EE573E08C2F0E94FA
:10566000401A892BA1F48091DD049091DE040E9400
:10567000BE0CDD27C958DD4F8881F80112821882DF
:105680008330F1F048F4813059F0823081F0DF91BD
:10569000CF911F910F9108958430B9F08530B9F7FB
:1056A00080915E0390915F03009789F306C080911B
:1056B000600390916103009799F30E94552AE7CF08
:1056C0008091620390916303F6CF8091640390917F
:1056D0006503009791F720915E0330915F038091FD
:1056E00060039091610321153105F1F2009729F7CC
:1056F000C901E3CF9C01CB01BA01F9013296459172
:1057000054916417750748F0F901349665917491C6
:105710000E94713680E090E008958FEF9FEF08952A
:105720009C01DA010296FC0145915491FC0185919E
:105730009491A817B90758F0F9013496859194917E
:105740000E9471360E94190F80E090E008958FEF5B
:105750009FEF0895A8E0B0E0E0EBFBE20C94D935B0
:10576000FE01319688E0DF011D928A95E9F795E503
:10577000A92E91E0B92E8F0129E5E22E21E0F22E2B
:105780003F01CC24C394D12CF50181915F018F3F5F
:1057900009F447C0F894E82FE295EF70F0E021A1FA
:1057A0008F70A60102C0440F551F8A95E2F7CA0107
:1057B000922F982B91A392A18095892382A378940C
:1057C00000C0E9E5F1E021E030E0812C912C41912D
:1057D0004F3F09F464C0A42FA295AF70A05EB0E063
:1057E0008C9190E04F7002C0959587954A95E2F7AD
:1057F0008170811154C0C901882A992A220F331F50
:1058000051E0E436F50719F7F501319780818F3FB4
:1058100011F00E94AB0880EA8A95F1F7D8018D92C9
:105820009C920E5F1F4FEA14FB0409F0ADCF48E0D5
:1058300050E0B30184EA92E00E946436892B91F132
:1058400088E0F301A4EAB2E001900D928A95E1F7B5
:1058500081E08093CE010E94CC0A9093CD01809389
:10586000CC018091CC019091CD010E94510B059704
:10587000E8F048E050E064EA72E085EC92E00E94D3
:105880006436892B49F088E0E4EAF2E0A5ECB2E066
:1058900001900D928A95E1F71092CE0107C080E049
:1058A00090E0AACF8091CE018111DBCF2896EEE067
:1058B0000C94F535CDB7DEB7C654D1090FB6F894C0
:1058C000DEBF0FBECDBF85B7806885BF85B7806856
:1058D00085BF84B7877F84BF0FB6F894A895809161
:1058E0006000886180936000109260000FBE80E8C5
:1058F00090E00FB6F89480936100909361000FBE22
:1059000089EA98E09093AB018093AA010E94730901
:105910000E94FC190E94360F0E940D0C0E94630C1D
:105920008091E20084608093E20078948091CD02BF
:10593000882399F08091E9001091EC0017951127C8
:1059400017958F70182B1092E9008091E80083FD65
:105950000E9402141F701093E90082E084BD93E05E
:1059600095BD9AEF97BD80936E000E94000F811144
:1059700002C00E947B1981E08093C00257985F9A11
:1059800056985E9A8FE891E00197F1F700C0000009
:105990002091C00241EC52E0FA018E2F841B821745
:1059A00008F458C084E30E94AB0884E90E94AB0865
:1059B00080E30E94AB0887E60E94AB0809E511E08E
:1059C000D8018D918D018F3F11F00E94AB08B1E09D
:1059D00004361B07A9F788E0E5ECF2E0DF01282F89
:1059E0001D922A95E9F7E4EAF2E0DF011D928A951B
:1059F000E9F780E090E00E949F36863E9E4F21F4BA
:105A00000E94000F811102C00E948B1982E090E079
:105A10000E9491368093AF0284E090E00E949F360E
:105A20009093E4048093E3040E94AA2BEFE3FCE943
:105A30003197F1F700C000000E94AA2B8091C502A7
:105A400080FF14C06FEF7FEF80E090E00E94D336BC
:105A50000E94DD0D89B199B196FB992790F9990FB4
:105A6000881F8827881F892B819397CF83E090E038
:105A70000E9491360E942A058091AC02811191C04A
:105A800080E090E00E949F36863E9E4F21F40E9467
:105A9000000F811104C00E948B190E94E11788E059
:105AA00090E00E9499366B017C0184E290E00E94B4
:105AB0009136282F30E040E050E060E070E080E078
:105AC00090E000E20E940C36E22FA32EB42EB52FF8
:105AD000A62FF72F9701860140E050E0BA01EC298C
