:100000000C9459030C94A0030C94A0030C94A0032B
:100010000C94A0030C94A0030C94A0030C94A003D4
:100020000C94A0030C94A0030C94C3280C947F2878
:100030000C94C0290C94A0030C94A0030C94A0036E
:100040000C94A0030C94A0030C94A0030C94A003A4
:100050000C94A0030C949C290C94A0030C94A00372
:100060000C94A0030C94A0030C94A0030C94A00384
:100070000C94A0030C94A0030C94A0030C94A00374
:100080000C94A0030C94A0030C94A0030C94A00364
:100090000C94A0030C94A0030C94A0030C94A00354
:1000A0000C94A0030C94A0030C94A0030501090276
:1000B000A10185020901A100050919012905150001
:1000C00025019505750181029501750381010501E1
:1000D000093009311581257F950275088106093897
:1000E0001581257F950175088106050C0A380215D2
:1000F00081257F950175088106C0C005010980A191
:1001000001850319012AB700150126B7009501756D
:10011000108100C0050C0901A101850419012AA064
:1001200002150126A002950175108100C00660FF2E
:100130000961A1010962150026FF0095207508815B
:10014000020963150026FF00952075089102C0057D
:10015000010906A101050719E029E7150025019508
:1001600008750181029501750881010507190029AB
:10017000FF150026FF009506750881000508190186
:100180002905950575019102950175039101C0003E
:10019000000000000000000000000000000000005F
:1001A000000000000000000000000000000000004F
:1001B0000000007E0F00D4FFFFFFC70000007800A2
:1001C000000000000000002A2B28000000000000B2
:1001D0000000000000000000000029000000002CCA
:1001E0001E3420212224342627252E362D37382769
:1001F0001E1F202122232425263333362E37381F75
:100200000405060708090A0B0C0D0E0F1011121336
:100210001415161718191A1B1C1D2F3130232D35D4
:100220000405060708090A0B0C0D0E0F1011121316
:100230001415161718191A1B1C1D2F3130354CFDBB
:10024000377A585A000004E6D6B446020021011657
:10025000000000742FE5A3E004F9017D5D003D88F6
:1002600089C65436C3174FE4E7E954216F66A345A6
:100270004351D63195C0501472BFB4447A2852B558
:10028000CABBE6D2E337F5BDE72E51FEB8D99B3D98
:10029000B024A5ED723B7DBF22549A1893674F128C
:1002A000EDD3167E425D6B8067A845F02125F5EE03
:1002B000A67835E223790B0D19D89ECBA8200564CA
:1002C000A5629244D028AAF9B142A0EC27299F3216
:1002D00006AE2675B2691461E95FD180AE1E421F79
:1002E0006C054EBF94D22BA955157EF7C1550863F6
:1002F000B72739F69C71CD102BFD01A5327BBA9042
:100300008D36AFEB0F055042E4BB1D8AD7FCF3518D
:1003100044277D20377AE8C76B3E4AA4D7431D1592
:1003200009254750B400FBF8516B5AFF639BE474F6
:100330007C99D4C694F5286AB39987AE0A587ADCBA
:10034000F43CF0020AED3FEA531EE88C11296F15C8
:10035000FEDE69233FA07406AC7E035D8CB10633DC
:100360009F28823445815DA874E2BF8761D76C46BF
:10037000BE821CEB76A88A1F652E1B58EF90249D29
:100380003AB30F64AFEC7BE98D366657BA8BADCECE
:10039000F8B32F7004C089B47B733932B6AAE95818
:1003A0006F3C5D52AE492B089EF885C8D37D18641A
:1003B000EE6219D784E69E381E8A9ACE72FC229A83
:1003C00050C9868D31D565064571D57FA09370DD06
:1003D000994F4B2DF1749ACC734400000000003704
:1003E000704B556F6EDCC700019903FA090000CA13
:1003F000249658B1C467FB020000000004595A1447
:10040000001A000800150017001C0018000C00124C
:100410000013002A0004001600070009000A000B60
:10042000000D000E000F00340000001D001B000630
:1004300000190005001100100036003700380000D8
:10044000000000E30001512A002C002C00025100A2
:100450005C0000000000000100010001000100013B
:100460000001000100010001000100010001000184
:100470000001000100010001000100010001000174
:100480000000000100010001000100010001000165
:100490000001000100010000000000010001000156
:1004A0000001000100010001000000000000000147
:1004B0000001000100010001000100010001000134
:1004C0000001000100010001000100010001000124
:1004D0000001000100010001000000010001000115
:1004E0000001000100010001000100010001000005
:1004F00000000001000100010001000100010001F5
:1005000000000000000000010001000100010001E6
:1005100000010001000100010001000100010001D3
:1005200000010001000100010001000100010001C3
:1005300000000001000100010001000100010001B4
:1005400000010001000100000000000100010001A5
:100550000001000100010001000000000000000196
:100560000001007B0300000200020077030000038B
:100570000001007C030000040002006103F2050595
:100580000001007D03000006000200630300000775
:1005900000020079030000080001007E030000094A
:1005A0000002006503CD050A0002006703CD050BBC
:1005B0000002006903CD050C0002006B03CD050DA0
:1005C0000002006D03CD050E0002006F03CD050F84
:1005D0000002007103CD05100002007303CD051168
:1005E0000002007503CD05120002007F0300001316
:1005F0000002008103000009025B00030100A0FA71
:100600000904000001030101000921110100012278
:1006100040000705810308000A09040100020300E5
:100620000000092111010001222200070582032098
:100630000001070503032000010904020001030073
:100640000000092111010001228100070584032017
:10065000000A1201000200000008464D11000100CE
:10066000010203011C037600690061006C003A007E
:10067000660036003400630032006200330063001D
:10068000000010037600610075006C0074003300F8
:10069000350000001803700072006F006A006500EA
:1006A000630074006300610069006E0000000403D1
:1006B000090411241FBECFEFDAE0DEBFCDBF04B6C0
:1006C00003FE27C08091600490916104A0916204B0
:1006D000B09163048730904BA740B04BD1F4109297
:1006E000600410926104109262041092630414BEBC
:1006F00084B7877F84BF0FB6F894A8958091600077
:10070000886180936000109260000FBEE0E0F8E323
:10071000099511E0A0E0B1E0E0ECF2E602C005903E
:100720000D92A438B107D9F724E0A4E8B1E001C0E4
:100730001D92A036B207E1F70E94E7290C942C31F4
:100740000C940000E8EDF0E080818E7F80831092B1
:10075000E2001092DA001092E100A0EEB0E08C917D
:1007600081608C9380818F77808319BCA7EDB0E086
:100770008C918E7F8C9380818F7E80831092460433
:1007800008952091E4003091E50095E6A9012091BB
:10079000EC00822F817020FF06C08091E80080FF6E
:1007A00006C080E008952091E80022FD1AC08091E3
:1007B0005304882389F0853089F08091EB0085FD12
:1007C0000FC02091E4003091E50042175307F9F281
:1007D0009150E1F684E0089582E0089583E0089561
:1007E00081E00895EF92FF920F931F93CF937C01C6
:1007F0008B010E94C103C82F811117C08091E800AE
:1008000085FD0BC08091E8008E778093E8000E9400
:10081000C103882399F3C82F08C0F70181917F0194
:100820008093F1000150110949F78C2FCF911F914E
:100830000F91FF90EF9008958091550487FF13C0AA
:100840008091E80082FF06C08091E8008B7780935A
:10085000E80004C0809153048111F2CF0895809183
:1008600053048823D9F38091E80080FFF8CF80916A
:10087000E8008E77ECCF982F9093E900242F762F05
:1008800050E0891731F07091EC002091ED0050910B
:10089000F00021FD07C09F5F973071F78093E9005A
:1008A00081E008953091EB003E7F3093EB00309172
:1008B000ED003D7F3093ED003091EB0031603093DF
:1008C000EB007093EC002093ED005093F00020912A
:1008D000EE0027FDE0CF80E00895CF92DF92EF9207
:1008E000FF920F931F93CF93DF93C8EDD0E08881E1
:1008F0008F7E8883E7EDF0E080818160808384E0F3
:1009000082BF81E08093460488818E7F888302EED7
:1009100010E0F80110821092DA0081EEC82ED12C7E
:10092000F601108288818F77888388818068888328
:1009300088818F7D888319BC1092530410925404CF
:10094000109252041092510490EEE92EF12CF7010E
:1009500080818B7F808388818160888342E060E032
:1009600080E00E943B04F60180818E7F8083F80145
:10097000808181608083808188608083F7018081AD
:100980008E7F8083888180618883DF91CF911F91E2
:100990000F91FF90EF90DF90CF900895FC01809130
:1009A0005B0490915C0486179707A0F061157105B0
:1009B00029F49091E8009E779093E80090E061150B
:1009C000710551F4911108C08091E80082FF34C094
:1009D00080E00895BC01F2CF809153048823C1F1D7
:1009E0008530C1F18091E80083FD30C08091E8003E
:1009F00082FDEACF8091E80080FFE1CF8091F30093
:100A00002091F200382F6115710519F02830310559
:100A100058F091E02830310509F090E02091E8008D
:100A20002E772093E800CBCF81918093F100615025
:100A300071092F5F3F4FE7CF80915304882341F026
:100A4000853041F08091E80083FFBECF81E00895BA
:100A500082E0089583E00895089580914804089500
:100A60009C014FB7F89480913F0490914004A0916D
:100A70004104B09142044FBF821B930B08952FB7DE
:100A8000F89480913F0490914004A0914104B0916A
:100A900042042FBF089520913C0430913D04281753
:100AA000390771F090933D0480933C04E0913A043F
:100AB000F0913B04309721F00084F185E02D0994FA
:100AC000089520913804309139042817390771F0BE
:100AD0009093390480933804E0913A04F0913B04F8
:100AE000309721F00680F781E02D09940895E09178
:100AF0003A04F0913B04309721F00190F081E02D11
:100B0000099480E00895452B39F0682381E06F3F18
:100B100009F080E08170089581E0FCCFDC016091F4
:100B20005D0380915E03962F891301C00895292FDC
:100B300030E0F901EE0FFF1FEB5AFC4F408151816D
:100B40004A175B07A1F487E08A9FA0018B9F500D95
:100B50001124435E5C4F81E0FA0184839613E6CF53
:100B60002F5F3F4F2370332720935D0308952F5F3E
:100B70003F4F922F9370D8CF1092BA021092B902C1
:100B8000EDE1F3E08581811102C01482168237966F
:100B900083E0E535F807B1F70895E1E6F3E08481F5
:100BA00095812AE030E0B9010E9477306093170107
:100BB00086818093160182858093150184858093B8
:100BC000140186859785B9010E94773060931301DF
:100BD0008089809312018289809311018489809396
:100BE000100108958091610390916203909319011F
:100BF0008093180108950E943F059C0190912A025C
:100C000080912B02982B21F030932702209326020B
:100C100090912C0280912D02982B21F03093250287
:100C200020932402E0913A04F0913B04309749F07C
:100C300082E0809328020480F581E02D88E292E032
:100C40000994089590912A02803F59F480912B02D3
:100C500087FF0DC010922B0291110BC0109222023F
:100C600008C0813F81F480912B0218169CF39923D0
:100C700081F080912C0290912D02892B09F064C0A3
:100C8000109221020895823F49F497FFF0CF10920D
:100C90002A0280912B028111ECCFE0CF833F19F41F
:100CA0001916ACF3E4CF20912C02893F29F41216D7
:100CB000F4F610922C02DBCF8A3F19F427FFD7CF2E
:100CC000F8CF20912D028B3F29F427FFD0CF10922F
:100CD0002D02CDCF8C3F19F41216CCF3C8CF843F30
:100CE00031F4809129028E7F80932902C0CF853F05
:100CF00021F4809129028D7FF7CF863F21F48091E6
:100D000029028B7FF1CF873F21F480912902877FD1
:100D1000EBCF883F21F4809129028F7EE5CF8D3F74
:100D200031F4809123028E7F80932302A0CF8E3FE7
:100D300021F4809123028D7FF7CF8F3F09F097CF69
:100D4000809123028B7FF0CF08958091230280FF52
:100D50000CC06091110170E0759567957595679568
:100D60006115710549F1862F089581FF06C06091D4
:100D7000110170E075956795F3CF6091110182FDC7
:100D80000BC0909121029923A1F0609110018091F4
:100D90001101961738F0682F70E06038710500F384
:100DA0008FE70895899FC001112470E00E948B3065
:100DB000F4CF61E070E0D7CF81E008958091230205
:100DC0006091690370916A0380FF16C0209115013C
:100DD000269FC001279F900D1124BC017695679531
:100DE000769567956038710508F043C06115710507
:100DF00009F441C0862F089581FF0BC02091150191
:100E0000269FC001279F900D1124BC017695679500
:100E1000E9CF82FF09C0809115019B01829FB0013B
:100E2000839F700D1124DECF209122022223D1F264
:100E30009091140180911501482F50E0291748F036
:100E4000CB01849FB001859F700D949F700D11247C
:100E5000C9CF289F90011124269FA001279F500DE4
:100E6000369F500D1124692F70E0CA010E9477301F
:100E7000B9CF8FE7089581E00895803F31F40E9453
:100E8000DE06819580932B020895813F19F40E941C
:100E9000DE06F8CF823F31F40E94DE068195809312
:100EA0002A020895833F19F40E94DE06F8CF893F95
:100EB00029F40E94A50680932C0208958A3F21F40C
:100EC0000E94A5068195F7CF8B3F31F40E94A506BD
:100ED000819580932D0208958C3F19F40E94A506F8
:100EE000F8CF843F31F480912902816080932902F8
:100EF0000895853F21F4809129028260F7CF863FD3
:100F000021F4809129028460F1CF873F21F4809100
:100F100029028860EBCF883F21F48091290280610B
:100F2000E5CF8D3F31F480912302816080932302CD
:100F300008958E3F21F4809123028260F7CF8F3F86
:100F4000B9F7809123028460F1CF80E00895F8948E
:100F5000E82FE295EF70F0E031A1282F2F7081E0AB
:100F600090E001C0880F2A95EAF7982F9095932377
:100F700091A392A1892B82A3789408959091000265
:100F800092FF06C0282F28712830F9F4877F8460EB
:100F900093FF06C0282F28712831F1F4877E8461E1
:100FA0002091010220FF06C0382F38713830D9F463
:100FB000877F816021FF06C0282F28712831D1F456
:100FC000877E816194FD877E0895282F24712430C7
:100FD000F9F68B7F8860DCCF282F2471243101F74C
:100FE0008B7E8861DDCF382F3171313019F78E7FDC
:100FF0008860E0CF282F2171213121F78E7E886112
:10100000E1CFCF93DF93EC0182389105A9F1D8F5B8
:101010008133910509F496C048F58932910509F4A8
:101020008AC08A9709F495C0C11521E5D20708F056
:10103000BCC0C11530E5D30708F014C1C83ED105C6
:1010400008F09CC0C03ED10560F5C83AD10508F053
:1010500087C0C53AD10508F0FDC0C130D10509F1FE
:101060002097F9F0C430D105E0F440C085339105F4
:1010700009F45AC0C997C1F680910002837089F0C3
:10108000C0EED0E00EC0833E910599F170F4803E31
:10109000910501F1823E910539F68091000282FDB1
:1010A00021C0CE01DF91CF910895863E910561F177
:1010B000873E910571F1843E910509F0B5CF80918D
:1010C000010281FFEECF80910002C7EED0E084FDE7
:1010D0000DC0E7CF8091000280FD12C19091010206
:1010E00090FFDFCFC3EED0E084FFDBCFD0E0C0E0E5
:1010F000D8CF8091000282FD06C19091010290FD3F
:10110000BFCF84FFCECFF2CF8091000283FDDDCF31
:10111000C8CF8091000283FDF9C09091010291FF38
:10112000F0CFC4EED0E0BDCF8091000285FFB9CFF3
:10113000C9E2D0E0B6CF8091000285FFB2CFC5E30F
:10114000D0E0AFCF8091000286FFABCFCAE2D0E003
:10115000A8CF8091000286FFA4CFC1E3D0E0A1CF49
:10116000CF3BD10518F6C85AD0E0CC0FDD1FC85DC3
:10117000DE4F0990D881C02DD46493CFC11540E2D1
:10118000D40758F4C11581E0D80708F08ACFC03FD2
:10119000D10508F4ABCFD06584CFC11590E4D90751
:1011A00008F4A4CFDF70D06A7CCFC11525E5D20743
:1011B00000F5C11534E5D30708F08AC0C11543E531
:1011C000D40708F071C0C11582E5D80708F467C0DC
:1011D000CE018370992721E030E002C0220F331F37
:1011E0008A95E2F7C695C69580E2C89FE001112472
:1011F00052C0C11599E5D907A8F4C11528E5D20751
:1012000008F06BC0C11536E5D30708F06FCF8C2FFF
:101210000E94BE07C82FD0E0DC2FCC27CC27DF717F
:10122000D0623FCFC1154AE5D40708F45BC0CE01B8
:1012300090568115904208F059CF8D2F8F710E94E2
:10124000BE0790E0982F882788279F719C012C2B40
:10125000E901E6CFC55AD0E0CB5DDE4FC881D0E0D2
:10126000D0641FCFCE01E4E096958795EA95E1F72B
:1012700083702C2F26952695237040E2249F9001A1
:101280001124382B8C2F8370C1E0D0E002C0CC0F2A
:10129000DD1F8A95E2F7C22BD32BDC6802CFDC2F4F
:1012A000CC27C16FD06AFDCECE018370992721E093
:1012B00030E002C0220F331F8A95E2F7C695C6952B
:1012C00090E2C99FE0011124C22BD32BDA68E9CE4A
:1012D000DC2FCC27C46FD06AE4CEDC2FCC27C06FC4
:1012E000D06ADFCE8C2F8F700E94BE0734E0D69577
:1012F000C7953A95E1F7CF709C2FEC01D069D1CE1C
:10130000C9E3D0E0CECEC2EED0E0CBCEC6EED0E088
:10131000C8CE8091F401882331F01092F40110922C
:10132000F3011092F2010895CF93C82F809101022A
:1013300082FD0CC08091F4018C1741F00E943F05A2
:101340009093F3018093F201C093F401CF9108953B
:10135000809590915F04982390935F040895809501
:1013600090919402982390939402089590919402FE
:10137000892B8093940208951092F0011092EF014E
:101380001092EE0108958091630390916403892B7C
:1013900089F00E943F052091F2013091F301AC01E8
:1013A000421B530B81E02091630330916403421789
:1013B000530708F480E08170089580919402909121
:1013C0005F04892B9091F101892B80938601809194
:1013D000F401882309F18091630390916403892BC0
:1013E00029F00E94C30981110E9489098091860118
:1013F0009091F401892B8093860120E088E891E0A8
:10140000FC013191CF0131112F5FF1E08E389F0740
:10141000B9F721110E948909E0913A04F0913B0447
:10142000309731F00280F381E02D86E891E0099455
:101430000895EF92FF920F931F93CF93DF93EC01E8
:101440008A85811134C0EB80FC8087E5F81A26E19B
:101450002E9DC0012F9D900D1124DC01A857BC4F7B
:101460001496ED91FC911597309731F054966D914B
:101470007C9182579C4F099586E18E9D80018F9DBE
:10148000100D112408571C4FF80187810E94AF09E5
:10149000F80180850E94A8090E94DD09188219863A
:1014A0001B861E821D821092870310928603DF9195
:1014B000CF911F910F91FF90EF900895CF93DF93FD
:1014C000EC018989811118C081E0898B8F810E948C
:1014D000B60980915F049885892B80935F040E94F0
:1014E000DD09EA81FB81309739F06C897D89CE0175
:1014F0000696DF91CF910994DF91CF910895809165
:101500001A01877F80931A0182E00E94A8098091C6
:101510001A0184FF06C08F7E80931A0182E00E9428
:10152000B60980911A0185FF06C08F7D80931A014C
:1015300080E20E94B6090C94DD098091ED018111D1
:101540001092ED010895E8E8F1E09191891303C04C
:10155000DF0111971C9291E0EE38F907B1F7089579
:10156000A8E8B1E0EFEF90E02D91821751F0EF3F46
:1015700019F4211101C0E92F9F5F9630A9F7EF3FC1
:1015800009F408950E2E000CFF0BEA57FE4F8283DC
:1015900008952091EC019091AB01291302C080E0E5
:1015A000089530E0F90153E0EE0FFF1F5A95E1F77F
:1015B000E455FE4F5181561306C05081581303C0A5
:1015C0005281541304C02F5F3F4F2770E6CF81E054
:1015D00008958091EC019091AB01981301C008959A
:1015E0008F5F8770FACF9E3F49F1E82F2BE0929FE3
:1015F000E00D11249E2F9770E695E695E69583E021
:10160000E89FF0011124EF56FE4F50E040E080E0EB
:10161000219130E0092E02C0369527950A94E2F711
:1016200021703327042E01C0220F0A94EAF7822B7F
:101630004F5F5F4F4330510559F7089580E008959B
:101640009E3F69F1E82F2BE0929FE00D11248E2F31
:10165000877041E001C0440F8A95EAF7E695E69568
:10166000E69583E0E89FF0011124EF56FE4F30E04D
:1016700020E070E05191DF011197CB01022E02C0F2
:10168000969587950A94E2F7817081958527842342
:1016900085278C932F5F3F4F2330310559F70895ED
:1016A000E92FE295EF70E250EE3070F4F0E0E25D89
:1016B000FE4C0C949F30803F19F020F4883E20F4BB
:1016C00081E00895843FE1F380E00895883EC0F30F
:1016D000813FD1F7F5CF93FB882780F9089590E0FB
:1016E00080E00E94610590E080E00E944B0510922E
:1016F0005F041092F1010E94DD0986E0E8E2F2E069
:10170000DF011D928A95E9F71092220210922102C0
:10171000109223020C94FB0580935E040C946F0BD3
:1017200080915E04982F9670963019F488600C941E
:101730008C0B877FFCCF21E030E001C0220F8A951F
:10174000EAF7209580915E0482230C948C0B909193
:10175000F001809589238093F001282F277091F460
:10176000282F082E000C330B9217130659F0909176
:10177000010292FD07C08595859585950E949B0B7A
:101780000C94BC09089521E030E001C0220F8A9535
:10179000EAF780915E04822B0C948C0B90910102ED
:1017A00092FD10C098E0899F90011124622B6093F4
:1017B000F0010E94C30B0E943F059093EF018093BC
:1017C000EE0108950C94C30B80935D040C946F0B91
:1017D000882321F00E94A8090C94DD09089588232C
:1017E00039F090915F04982B90935F040C94DD097D
:1017F0000895882321F00E94AF090C94DD09089513
:10180000882321F00E94B6090C94DD0908958823ED
:1018100009F452C0823871F40E94770581FF4CC0F0
:1018200089E30E94B00A0E94DD0989E30E94A30AAD
:101830000C94DD09833859F40E94770580FF3CC081
:1018400083E50E94B00A0E94DD0983E5EFCF84386A
:1018500059F40E94770582FF2FC087E40E94B00AE6
:101860000E94DD0987E4E2CF9CEF980F913AF0F2F5
:1018700090E2980F983050F4877091E001C0990F72
:101880008A95EAF7892F0E94AF09D2CF9BE5980F7E
:10189000933020F490E080E00C94610598E5980F77
:1018A000973120F490E080E00C944B05803F20F0CD
:1018B0000E9422060C94FB0508959C013A9521157F
:1018C0003F4150F5FC01EE27F170BC0166277270B4
:1018D000AC01442754709C012227387094FF0EC03D
:1018E00080E1EF2B09F480E0672B09F08062452B43
:1018F00009F08064232B89F08068089581E0EF2B44
:1019000009F480E0672B09F08260452B09F08460C0
:10191000232B19F08860089580E00895CF93DF931A
:10192000EC010E94070CCE010E945D0C9E01205E1E
:1019300031092830310510F0CD2B21F4DF91CF9102
:101940000C94F90BDF91CF910C94E80B8093430436
:101950007093450460934404809153048430F9F4F7
:101960008093E9008FEF9091E800815095FD06C0CB
:1019700095ED9A95F1F700008111F5CF8091E8007F
:1019800085FF0DC050E040E063E070E083E494E048
:101990000E94F2038091E8008E778093E80008951A
:1019A000BC0184E00C94A60CBC0183E00C94A60C52
:1019B0009C0184E08093E9009FEF8091E8009150C2
:1019C00085FD06C085ED8A95F1F700009111F5CFF0
:1019D0008091E80085FF0CC050E040E066E070E0D8
:1019E000C9010E94F2038091E8008E778093E8009D
:1019F0000895CF93DF93EC0181E08093E9008FEFAE
:101A00009091E800815095FD06C095ED9A95F1F70B
:101A100000008111F5CF8091E80085FF14C050E0EF
:101A200040E068E070E0CE010E94F2038091E8009F
:101A30008E778093E80088E0FE01A9E4B4E001908D
:101A40000D928A95E1F7DF91CF91089581E080931F
:101A5000E00080E28093D8001092C9008FE19EE4FC
:101A60000197F1F700C0000087E090EBDC01809364
:101A7000600490936104A0936204B093630488E1CE
:101A80009CE00FB6F894A895809360000FBE9093E9
:101A90006000FFCF019708F40895EFE9FFE0319768
:101AA000F1F700C00000F6CFCF93C82F882309F4C8
:101AB0008CC08238C1F40E94770581FD86C089E31D
:101AC0000E94B00A0E94DD092FEF81EE94E02150C0
:101AD00080409040E1F700C0000089E30E94A30A23
:101AE000CF910C94DD098338A1F40E94770580FD25
:101AF0006CC083E50E94B00A0E94DD092FEF81EEE1
:101B000094E0215080409040E1F700C0000083E560
:101B1000E5CF8438A1F40E94770582FD56C087E4A2
:101B20000E94B00A0E94DD092FEF81EE94E021505F
:101B300080409040E1F700C0000087E4CFCF8CEFF9
:101B40008C0F813A68F4E8E8F1E08191C817B9F1A7
:101B500021E0EE38F207C9F78C2F0E94B00AC0CFFF
:101B600080E28C0F883048F4C77081E001C0880F94
:101B7000CA95EAF70E94B609B3CFEBE5EC0FE33064
:101B800040F4F0E0EB5DFE4F808190E0CF910C944B
:101B90006105E8E5EC0FE73150F4F0E0EE0FFF1FD0
:101BA000E85DFE4F80819181CF910C944B05C03F41
:101BB00060F08C2F0E943D07CF910C94FB058C2F79
:101BC0000E94A30A0E94DD09C7CFCF9108951F93F9
:101BD000CF93DF93182FC0918103D0918203893373
:101BE00021F0C0917F03D0918003812F0E94540D7A
:101BF000209731F4812FDF91CF911F910C94070C26
:101C00008FE99FE00197F1F700C000002197F0CF26
:101C10000F931F93CF93DF93C42FD22FFC018281A8
:101C20008823A1F0409385030E943F05909384038D
:101C300080938303C77081E001C0880FCA95EAF7DB
:101C4000DF91CF911F910F910C94000C109185039F
:101C5000141339C080918303909184030E9430054E
:101C60002091790330917A038217930760F5C0E2DF
:101C7000CD0F1D17B9F080E2810F883040F4177046
:101C800081E001C0880F1A95EAF70E94F90BC8306D
:101C900048F481E09D2F977001C0880F9A95EAF76C
:101CA0000E94000C802F0E94E70DC83098F4D77076
:101CB00081E001C0880FDA95EAF7DF91CF911F919B
:101CC0000F910C94F90BC77081E001C0880FCA9581
:101CD000EAF7F3CFDF91CF911F910F910895CF9342
:101CE000DF93EC010E945D0C9E01205E31092830DB
:101CF000310510F0209739F40E94000C8C2FDF91F1
:101D0000CF910C94540D0E94EF0BF8CF662329F06D
:101D100020915F04226020935F049C0130562115BE
:101D200040E2340720F0305E2115304108F4992755
:101D30000C946F0EDF92EF92FF920F931F93CF934D
:101D4000DF937C018B01D42E80911A0182FF8CC01D
:101D5000C091B702D091B802CE15DF0521F0E11491
:101D6000F10409F081C080911A018B7F80931A01E0
:101D700081FD73C08091B5029091B602A801481B05
:101D8000590B81E020911801309119014217530736
:101D900008F480E08170F82E80911A01F0FA81F940
:101DA00080931A01FE0183E0F695E7958A95E1F7A5
:101DB000EE71FF27EB56FD4F20813181AE014F7050
:101DC000552781E090E002C0880F991F4A95E2F7FD
:101DD000FF2009F444C0822B932B91838083809150
:101DE000940281FF08C080911A01806180931A01DA
:101DF00082E00E94AF098091940285FF08C0809123
:101E00001A01806280931A0180E20E94AF096F2D4F
:101E1000CE010E94860EDD2031F080917C0385FF8B
:101E200002C086FF3BC080917F03909180030E9497
:101E30004A0D8091B7029091B8029C01305621154D
:101E400040E2340720F0305E2115304108F4992734
:101E50000E948E0C0E947F0A1DC081E09BCF80955E
:101E6000909582239323B9CFC701992797013056C4
:101E7000211540E2340728F0305E2115304108F08A
:101E8000C7010E948E0C8091B7029091B8028E1506
:101E90009F0501F31093B6020093B502DF91CF9135
:101EA0001F910F91FF90EF90DF900895AF92BF9236
:101EB000CF92DF92EF92FF920F931F93CF93DF9316
:101EC000EC018AE0A82E2881222309F48CC021305D
:101ED000C9F599818A81913021F422960E94E70DFB
:101EE00005C0923029F422960E94540D2196EBCF22
:101EF000933021F422960E94070CF8CF943011F011
:101F00002196F4CF229630E020E0AE014F5F5F4F84
:101F10008053990B8A30910550F02150310930F3EC
:101F20008FE99FE00197F1F700C00000F6CFA29E75
:101F3000B001A39E700D11249C01260F371F8981CB
:101F4000EA01E3CFE22FF0E0E154FE4FB490822F9C
:101F500086958695869590E0FC01E155FE4FE490CC
:101F60002770F12C022E02C0F594E7940A94E2F750
:101F700031E0E322FF24FC01E156FE4FC490D12C56
:101F8000022E02C0D594C7940A94E2F731E0C3222E
:101F9000DD24FC01E157FE4F049110E002C01595CD
:101FA00007952A95E2F701701127E114F10419F061
:101FB00081EE0E94540DC114D10419F086EE0E94E6
:101FC000540D8B2D0E94E70DCD2819F086EE0E944E
:101FD000070CEF2819F081EE0E94070C012B09F481
:101FE00085CF8CE27BCFDF91CF911F910F91FF9036
:101FF000EF90DF90CF90BF90AF9008950F931F9315
:10200000CF93DF9301E613E0C7E9D1E0CE010E9450
:10201000E230F80181938F012196C93BF1E0DF079F
:10202000A9F7C5E6D5E0FE0185919491009711F0DE
:10203000FC0109952896F5E0CD3FDF07A1F7DF9178
:10204000CF911F910F9108950F931F93CF93DF931B
:10205000843000F561111EC024E0829F80011124AC
:1020600050E0440F551F040F151F09571E4FC8019C
:102070000E94E230C82FD0E0DC2FCC27C8010196A7
:102080000E94E2309E01282BC901DF91CF911F9160
:102090000F91089590E080E0F8CF0F931F93CF93B6
:1020A000DF93843030F5643020F54B3010F5C42FC9
:1020B000D0E0CC0FDD1F26E1629FC00DD11D1124A1
:1020C00038E5839FC00DD11D1124CE0187960E9453
:1020D000E230082F10E0102F0027CE0188960E94D2
:1020E000E2309801282BC901DF91CF911F910F9108
:1020F000089590E080E0F8CF462F20919202309131
:102100009302232B91F47E3F39F46E3F71F480915A
:102110009002909191020895843038F4743028F43C
:102120006B3018F4672F0C944D1090E080E0089508
:10213000CF92DF92FF920F931F93CF93DF936C01A7
:1021400000915E0480915D04082BC7E0D0E010E0B0
:10215000FC2EC8010C2E02C0959587950A94E2F7D3
:1021600080FD0CC02197A0F7F12C8F2DDF91CF912E
:102170001F910F91FF90DF90CF900895B6018C2FA3
:102180000E947C100E940108019761F3EECFCF936B
:10219000DF93EC010E949810BE010E947C10DF9139
:1021A000CF910C940108FC0186819781009721F062
:1021B0000E9401080C94500B808191810E94C710ED
:1021C000F9CF1F93CF93DF9300D000D00F92CDB7FC
:1021D000DEB749835A8389819A816623B9F0222325
:1021E000A9F00E949810182F682F89819A810E9467
:1021F000200B69817A81812F0F900F900F900F90A3
:102200000F90DF91CF911F910C947C100E94F30AE4
:10221000182FEFCFFC01262F86819781009739F484
:10222000408151816281738184810C94E110089511
:1022300083E290E00E94E230873C89F484E290E0FF
:102240000E94E2308F3559F485E290E00E94E2303E
:1022500091E0893609F090E0892F8170089580E03F
:10226000FCCFCF9384E090E00E94E230C82F82E25E
:1022700090E00E94E230982F8C2FCF9108950F9319
:102280001F93CF93DF9301E613E0C7E9D1E0CE01BE
:102290000E94E230F80161918F01681719F0CE01B8
:1022A0000E94F0302196C93BF1E0DF0781F7DF9112
:1022B000CF911F910F910895E1E6F3E0128E138EF6
:1022C0008FEA90E09183808385E0848F88E893E1B2
:1022D000938382834CE251E05583448322E330E0D0
:1022E0003783268385E090E0918780878AE090E0BD
:1022F0009387828764E170E0758764875787468794
:1023000044E650E0518B408B48E050E0538B428BC9
:1023100048E250E0558B448B378B268B28EC30E01D
:10232000318F208F158E978F868F80E590E091A357
:1023300080A30E943F110C94FE0FCF93DF93C9E559
:10234000D2E060E0CE010E94F0302196C11584E019
:10235000D807B9F7DF91CF9108950F931F93CF93CB
:10236000DF938901843028F5611123C0423008F5DC
:1023700021153C4531F420910E0130910F01232BA2
:10238000C1F094E0899FE001112450E0440F551FF3
:10239000C40FD51FC957DE4F612FCE010E94F03008
:1023A000602FCE010196DF91CF911F910F910C9478
:1023B000F030DF91CF911F910F9108950F931F93EC
:1023C000CF93DF938901843048F5643038F54B3082
:1023D00028F521153C4531F420910E0130910F0173
:1023E000232BE1F0C42FD0E0CC0FDD1F96E1699FD5
:1023F000C00DD11D112498E5899FC00DD11D112458
:10240000612FCE0187960E94F030602FCE01889612
:10241000DF91CF911F910F910C94F030DF91CF910C
:102420001F910F910895CF93C82F6FEF811167EC23
:1024300083E290E00E94F0306FEFC1116FE584E21B
:1024400090E00E94F0306FEFC11169E685E290E004
:10245000CF910C94F030CF93C0910102C2FB992729
:1024600090F9981799F080FBC2F9C093010260912E
:10247000000284E090E00E94F0306C2F82E290E055
:102480000E94F03082E0CF910C94A70BCF91089579
:102490007F928F929F92AF92BF92CF92DF92EF92F4
:1024A000FF920F931F93CF93DF93CDB7DEB764975F
:1024B0000FB6F894DEBF0FBECDBFA0900E01B09056
:1024C0000F0181E090E090930F0180930E018FEF58
:1024D000C82E83E0D82E10E0760100E015C0F4018C
:1024E00025913491472D602F812F0E94DE1182E0CB
:1024F000880E911C7394EBE07E12F1CFF6E1EF0EA3
:10250000F11C0F5F043019F04701712CE8CF21E076
:1025100030E040E060E0812F0E94AD1121E030E02A
:1025200041E060E0812F0E94AD111F5F88E5C80E79
:10253000D11C143089F60E945C111A8219821C8207
:102540001B821E821D8218861F8288EC90E09A876B
:10255000898709EB11E04AE050E0B801CE0101960D
:102560000E941431065F1F4F0930E2E01E0799F701
:102570007E01FBE0EF0EF11C8AE0F70111928A95D3
:10258000E9F74AE050E0B801C7010E941431065F44
:102590001F4F0935F2E01F07A1F7B0920F01A0927B
:1025A0000E0164960FB6F894DEBF0FBECDBFDF916B
:1025B000CF911F910F91FF90EF90DF90CF90BF9040
:1025C000AF909F908F907F90089580E00E941312AB
:1025D00060E086E290E00E94F0300E9448120E9483
:1025E0009D1181E00C9413129B01883070F49AE0E5
:1025F000899FB001112467547E4F4AE050E0C90121
:102600000E94D23090E080E008958FEF9FEF089510
:102610008F929F92AF92BF92CF92DF92EF92FF92F2
:102620000F931F93CF93DF93CDB7DEB72A970FB6E3
:10263000F894DEBF0FBECDBF08E813E0F12CE12C0B
:1026400089EDC82E87E2D82E93E0A92E98E2B92E04
:1026500021EF822E26E2922EF801D182C082B3822F
:10266000A28295828482F58AE48ABE016F5F7F4FE1
:102670008E2D0E94F412892B29F489859A85F80100
:10268000938B828BFFEFEF1AFF0A0A5E1F4F88E0E1
:10269000E816F10409F72A960FB6F894DEBF0FBECC
:1026A000CDBFDF91CF911F910F91FF90EF90DF9001
:1026B000CF90BF90AF909F908F900895CF92DF9270
:1026C000EF92FF920F931F93CF93DF93CDB7DEB7B7
:1026D0002A970FB6F894DEBF0FBECDBFE0E4F2E05C
:1026E00080E5DF011D928A95E9F7EDE1F3E088E3EB
:1026F000DF011D928A95E9F780E4C82E82E0D82E8A
:102700007F0109E012E0F701D182C0824AE050E087
:10271000B801CE0101960E94D23088E0FE013196C8
:10272000D60101900D928A95E1F789859A85D701A6
:1027300013969C938E931297BAE0CB0ED11CE7E0D0
:10274000EE0EF11C065F1F4F0935F2E01F07D9F6A8
:102750002A960FB6F894DEBF0FBECDBFDF91CF91A2
:102760001F910F91FF90EF90DF90CF9008951092FE
:102770009402E8E8F1E086E0DF011D928A95E9F72E
:102780000C946F0B1F93CF93DF93CDB7DEB7AA974F
:102790000FB6F894DEBF0FBECDBF85E594E0209163
:1027A000F100DC012D93CD01B4E08D359B07B9F725
:1027B00080915604833009F472C0B8F4813009F472
:1027C00049C0823009F4B3C08091E80083FF96C20B
:1027D00080915504909156049A3008F08FC2E92FE9
:1027E000F0E0E45CFE4C0C949F308A3009F48EC01B
:1027F0008B3009F471C0893039F7809155048132EA
:1028000019F78091590490915A04009711F002979A
:10281000D9F68091E800877F8093E8008091E800F6
:1028200082FF38C09091F3008091F200029731F45A
:102830008091F100813011F0863021F48091F10017
:10284000809348048091E8008B778093E8000E9491
:102850001C04BACF80915504813A09F0B5CF80911C
:10286000E800877F8093E8008091590490915A0492
:10287000892B61F468E089E494E070E00E94CE0462
:102880008091E8008B778093E8009ECF60E090E035
:1028900080E0F3CF809153048111C0CF95CF809118
:1028A0005504813A09F090CF8091590490915A04CF
:1028B000892B09F089CF8091E800877F8093E80019
:1028C0008091E80080FFFCCF80911C018093F10093
:1028D0008091E8008E77B9CF80915504813209F05C
:1028E00073CF8091590490915A04892B09F06CCFD1
:1028F0008091E800877F8093E8000E941C0480910B
:10290000570480931C010E94B7135ECF8091550439
:10291000813209F059CF8091E800877F8093E800E9
:102920000E941C0480915804809347044DCF8091ED
:102930005504813A09F048CF8091E800877F809361
:10294000E8008091E80080FFFCCF80914704BECF73
:10295000803899F0823809F0D1C1809159048F7084
:10296000873008F0CBC18093E9008091EB0085FBB4
:10297000882780F91092E90006C080915104909157
:102980005204911182609091E800977F9093E80043
:102990008093F1001092F1008091E8008E77AAC137
:1029A000882309F498C1823009F0A8C180915704A6
:1029B00081119BC1809159048F702FEF280F263011
:1029C00008F09CC18093E9002091EB0020FF8DC1AD
:1029D000933031F48091EB0080628093EB0085C1ED
:1029E0009091EB0090619093EB0021E030E001C00A
:1029F000220F8A95EAF72093EA001092EA0080916C
:102A0000EB008860EACF811179C1109157041F77DC
:102A10008091E3008078812B8093E3008091E8002F
:102A2000877F8093E8000E941C048091E80080FF6B
:102A3000FCCF8091E30080688093E30082E0111175
:102A400083E0809353045AC18058823008F056C105
:102A500020915704309158042C3DE3E03E07A1F546
:102A600083E08A838AE289834FB7F894DE01139664
:102A700020E03EE051E2E32FF0E050935700E49174
:102A800020FF03C0E295EF703F5FEF708E2F90E064
:102A9000EA30C0F0C7968D939D932F5F243159F78C
:102AA0004FBF8091E800877F8093E8006AE270E082
:102AB000CE0101960E94CE048091E8008B7780932E
:102AC000E8001CC1C096E7CF8091590490915A0448
:102AD000432F55274330510509F44AC078F541305A
:102AE000510509F485C08BE590E0E7EFF5E0423051
:102AF000510509F003C12091E800277F2093E800E9
:102B000020915B0430915C048217930708F49C01C8
:102B100040E02115310509F070C041116EC080916F
:102B2000E80082FDC9CF80915304882329F28530C3
:102B300019F28091E80083FFF2CFBECF41325105F8
:102B400009F447C04232510509F0D8C083309105DD
:102B500008F0D4C0FC01EE0FFF1FE858FE4F0190B3
:102B6000F081E02D8B589E4FDC018C9190E01DC0D0
:102B7000332721303105E9F02115310579F0223074
:102B80003105F9F02330310509F0B8C0E4E6F6E08C
:102B9000E4918E2F90E0E4E6F6E007C0EEEAF6E07E
:102BA000E4918E2F90E0EEEAF6E0009709F4A6C0DB
:102BB000A2CFE4E9F6E0E4918E2F90E0E4E9F6E0BC
:102BC000F4CFE2E8F6E0E4918E2F90E0E2E8F6E060
:102BD000ECCF8330910508F091C0880F991FFC015C
:102BE000E258FE4F0190F081E02D89E090E083CF24
:102BF00082E190E0E2E5F6E07ECF80915304882305
:102C000009F45ACF853009F457CF8091E80083FD4D
:102C100053CF8091E80082FD82CF8091E80080FF51
:102C200078CF9091F3008091F2002115310519F0D1
:102C30008830910550F041E0089709F040E080911C
:102C4000E8008E778093E80064CF44914093F100D0
:102C50003196215031090196E8CF803809F04EC0F5
:102C60008091E800877F8093E800809154048093EE
:102C7000F10092CE811142C0109157041230F0F54C
:102C80008091E800877F8093E800109354040E94AD
:102C90001C04112311F084E005C08091E30087FD3E
:102CA000FACF81E08093530442E061EC81E00E941E
:102CB0003B0442E261EC84E00E943B0442E261ECAE
:102CC00082E00E943B0442E260EC83E00E943B040D
:102CD0008091530413C080915704813079F481E0CE
:102CE000933009F080E0809352041092E9008091C3
:102CF000E800877F8093E8000E941C048091E80030
:102D000083FF0AC08091E800877F8093E80080916C
:102D1000EB0080628093EB00AA960FB6F894DEBFBA
:102D20000FBECDBFDF91CF911F9108956AEE7EEF68
:102D300090E080E00E940E3160E082E090E00E942E
:102D4000F03060E083E090E00E94F03010925D048B
:102D500060E084E090E00E94F03060E082E290E089
:102D60000E94F03060E085E090E00E94F03060E08A
:102D700086E090E00E94F0306FEF87E090E00E94E4
:102D8000F03040E050E0BA0188E090E00E9402316B
:102D900060E08DE090E00E94F03040E050E0BA0149
:102DA00088E190E00E94023160E087E190E00E94BB
:102DB000F03040E050E0BA018CE190E00E94023136
:102DC00070E060E080E290E00E940E3140E050E070
:102DD000BA0188E190E00E94023180E00E94131263
:102DE0000E94E51240E050E0BA018FE090E00E94BE
:102DF000023140E050E0BA0183E190E00C940231EE
:102E00008F929F92AF92BF92CF92DF92EF92FF92FA
:102E10000F931F93CF93DF9300D000D0CDB7DEB7D1
:102E20007C01DC0113964D915C91149711966C9185
:102E300011978C910E948305811179C061E0C701CF
:102E40000E940A118C01F7018281811111C0D70102
:102E500012968C91811149C00031FFE51F0709F4DA
:102E6000EEC001312FE5120709F007C782E0E8C084
:102E70008091000190910101019649F368E8C62E06
:102E800063E0D62EB12CA12C99249394809100015B
:102E9000909101018A159B05D4F2F6018681882361
:102EA000E9F0818592850817190739F48091860326
:102EB000909187030817190789F0D6011F969C92F5
:102EC0001F971C961C930E931B97C6010E945E0AC7
:102ED000C60106960E94190A10925F04BFEFAB1A52
:102EE000BB0AE6E1CE0ED11CD1CF980122513F455D
:102EF0002031310508F0B7C68FEF93E00E94E23031
:102F00005EEED52ED00E09E512E0882369F180919E
:102F1000F001877061F0D70112968C91882339F007
:102F20008091010282FD03C082E00E94A70B0F90F6
:102F30000F900F900F90DF91CF911F910F91FF9005
:102F4000EF90DF90CF90BF90AF909F908F900895BB
:102F50000115F4E01F07D9F2C8010E94E230811187
:102F600001C0DA940F5F1F4FD110F2CF19821A827D
:102F70001B821C82CC24CA9448012FEF821A920A29
:102F8000C8010E94E23089831A82882309F4BFCFE6
:102F9000813009F048C0580132E0A30EB11CC401D1
:102FA0000E94E230982E8A83882309F4B0CFC501AD
:102FB0000E94E230D82E8FEF890D833068F45801DB
:102FC00043E0A40EB11CDB82DD2021F0CE0101968E
:102FD0000E94560F8501D0CF54E09512FBCF5801C7
:102FE00084E0A80EB11CC80103960E94E230DD20E7
:102FF00009F48DCF882309F48ACF8150990BC89E9C
:103000009001C99E300D1124AD2DA150BB0BCD01F7
:10301000820F931F0197F0F2EFE9FFE03197F1F78C
:1030200000C00000F7CFCE0101960E94560F540158
:10303000D1CF81E00E94C30B0E94900B68CF81E04A
:103040000E949B0BF9CF82E0F5CF4FEFC416D1045D
:1030500011F008F01EC666E372E08C2D0E94F41297
:10306000892B29F586E18C9DF0018D9DF00D1124B1
:10307000E857FC4F8681813009F062C080913602AA
:1030800090913702892B99F0809138029091390202
:10309000892B69F080913A0290913B0220913C0289
:1030A00030913D02822B932B892B09F453C08091E0
:1030B0000001909101018C159D0524F4D09201012D
:1030C000C0920001F701828196E19C9D50019D9D77
:1030D000B00C1124950128573C4F6901D901509635
:1030E0008C935097928116968C911697992309F498
:1030F0003FC01A961C930E9319978F5F16968C9368
:103100000E943F05F601968785878091F4018783A9
:1031100080915F0490919402892B80870190F081C7
:10312000E02D309741F0D60154966D917C91C50108
:1031300082579C4F09951093870300938603A9C576
:10314000823009F0B4CF80913A0290913B02892BF2
:1031500009F4ADCF26E12C9DC0012D9D900D1124C9
:1031600088579C4FDC0150961C920E945E0A9FCFAC
:10317000882309F48EC5F9018189882309F489C55A
:10318000C50182579C4F0E94190A83C580911A017C
:10319000816080931A01ABC580911A018E7F809364
:1031A0001A010E947F0AA3C580911A018F7E013EF9
:1031B000110531F0053E1105C9F480911A018F7D8A
:1031C00080931A0180911A0180FFA0C5D701129641
:1031D0008C910832110528F50E31110508F074C0E4
:1031E0000430110580F581118DC590C5C801905638
:1031F000811540E2940720F0905E8115904110F710
:1032000080911A0182FF82C580917E0381FD7EC577
:1032100028EF31E040E0B60190E080E00E949A0E95
:1032200075C50933110558F40D32110518F40B3228
:103230001105C9F690917C0392FDD5CF08C00436E4
:103240001105C1F3D0CF90917C0394FDCCCF88239E
:1032500009F4A1C0909194028091F401282F292BA8
:10326000322F3D7FB1F11092B8021092B702309127
:103270007C0331FD2EC0F80143E0F695E7954A95B1
:10328000E1F7EE71FF27EB56FD4F98012F703327C2
:1032900081E090E002C0880F991F2A95E2F780959F
:1032A000909520813181822393239183808360E0F4
:1032B000C8010E94860E8091F4018D7F0E949409BE
:1032C00082E00E94A70B23CE90917C0393FD8BCFCD
:1032D000BECF38E0F701A8EFB1E001900D923A952A
:1032E000E1F71092FA011092FC011092FB01A090FC
:1032F000B702B090B8020A151B05B1F530917C03F6
:1033000035FF32C040911A0141FB992490F841FFEA
:1033100002C036FF29C04091B5025091B602B601F5
:10332000641B750B4091790350917A0364177507FC
:10333000D8F491FF08C080911A01806180931A012E
:1033400082E00E94AF098091940285FF08C08091BD
:103350001A01806280931A0180E20E94AF09692DF0
:10336000C5010E94860ED3CD90911A0121FB91F9DF
:1033700090931A018D7F0E9494091093B8020093D4
:10338000B702D092B602C092B50280911A01846051
:1033900080931A0195CF970140E0B601C8010E94C1
:1033A0009A0EB5CD053F4CE5140709F467C008F443
:1033B0005FC0063F8CE5180709F466C0D701129676
:1033C0003C91332309F4C1C4109285030330BDE559
:1033D0001B0708F065C00A3FECE51E0730F4C80182
:1033E00082509C45449708F060C00E943111909330
:1033F00001028093000200312CE5120709F461C13B
:1034000008F0DDC008304CE5140709F448C108F0A5
:10341000AFC004308CE5180709F433C108F095C03B
:103420000230ACE51A0709F426C1809100028260DF
:1034300003301C4509F422C1609100021091010281
:1034400084E090E00E94F030612F82E290E00E94E0
:10345000F0300E94B7135BCD07E225EE45EE68ED34
:103460007CE56FC406E221EE40EE63EF7CE569C4C3
:1034700007E225EE44EE64EF7CE563C406E221EE4C
:1034800042EE65EF7CE55DC407E225EE46EE66EFB1
:103490007CE557C408E221E045EE69ED7CE551C4C6
:1034A0000136FDE51F0709F4A0CF06315CE51507DD
:1034B00009F44FC40A354DE5140709F453C108F067
:1034C0002FC101158CE5180709F43CC10E3D1C45C0
:1034D00009F445C1F70186819781009709F446C137
:1034E0000E940108182F092FF701D280C580C294CD
:1034F0003FE0C3228091F0018770C1F0AD2CDD2048
:10350000B1F0892F807F803421F080E2810F8830F4
:1035100068F08091010282FD09C082E00E94A70B41
:103520008091F0018770AA24A3948111A12C902E80
:1035300092942FE09222FBE0F91508F4A4C1E92D42
:10354000F0E0EA5BFE4C0C949F30809100028061B9
:103550000630ECE51E0709F491C0809100028860F6
:1035600007301C4508F48AC080910002806286C042
:10357000809100028D7F0C302CE5120709F47EC08B
:1035800070F4809100028C600A304CE5140709F455
:1035900075C008F488C0809100028E7F6FC00E3025
:1035A0008CE5180709F485C0809100028B7F0F30ED
:1035B0001C4508F463C0809100028F7E5FC00C3F01
:1035C000ACE51A0709F479C068F50431ECE51E078B
:1035D00009F48BC080F402312CE5120709F475C0A0
:1035E000809100028F7B03311C4508F447C0809115
:1035F0000002837F43C00A3F4CE5140709F445C02D
:1036000008F049C005311C4509F016CF8091000231
:1036100082FB992790F921E0922790FB82F990FB99
:1036200083F92CC001159DE5190709F454C088F4ED
:103630008091010283600E3FBCE51B0749F1809138
:1036400001028D7F0F3F1C4518F1809101028C7F94
:103650001FC00230FDE51F0709F456C008F44EC034
:1036600001361D4509F0E8CE90910002892F8F7E2A
:1036700094FF806103C0809100028160809300020A
:10368000DBCE809100028460F9CF809101028160DD
:1036900080930102D1CE809101028260F9CF8091A6
:1036A00000028064EBCF0E94B71380910002806813
:1036B000E5CF80910002877FE1CF809101028E7F6C
:1036C000E7CF809100028F7DD9CF0E94B713809100
:1036D00000028F77D3CF80910102982F909591703F
:1036E0008E7F892B90FB81F9D3CF0E94B7139091E5
:1036F0000002892F97FB87F98058C0CF61E08EE0E8
:1037000090E00E94F03098CE60E0F9CF80918E0179
:10371000811104C089E20E94A30A46C385E3FBCF5E
:103720000B35ADE51A0701F10C351D4509F0D2CE78
:103730008091010282FB882780F991E089270E940D
:103740002B12C8CE0E94B713EFEFF4E32CE0E15048
:10375000F0402040E1F700C000000E94260D0E94CA
:103760009616D5CB81E0EBCF80E0E9CF8281008156
:103770001181882369F0C8010E949810D82E682F03
:10378000C8010E94200BB8018D2D0E947C10A8CE8C
:10379000C8010E94F30AD82EF6CF202F2F70B22E28
:1037A000802F807F19F0B29490EFB922DD20A9F02C
:1037B000BB2059F080E2810F883010F0111107C052
:1037C0008B2D0E94B6090E94DD09812F5AC080917D
:1037D0005F04B82AB0925F04F6CF812F0E94070CD5
:1037E000BB2009F450C080E2810F883010F0111125
:1037F00004C08B2D0E94AF0903C08B2D0E94A80925
:103800000E94DD0940C0302F3F70B32E802F807F93
:10381000803219F0B29480EFB822112321F11130D7
:1038200009F4A4C0DD2009F4ADC0CC2009F47DC0AA
:1038300020E0D7014C9111965C91119712966C91F2
:10384000129713967C91139714968C910E94E11015
:1038500080917E0381FDB9CFF701858180FFB5CFCF
:103860008F70858362C08091010282FF40C0DD209D
:10387000C1F1BB2029F08B2D0E94B6090E94DD0901
:1038800080E00E94540DA92DA850BB0B149710F492
:103890000E947705812F902F0E94500B8111C4C187
:1038A0001092900110928F01AA20B1F08091F00146
:1038B00080FD12C0D70112961C928595859585953D
:1038C0000E94C30BC7010E9400178091F0018595EB
:1038D000859585950E949B0B60E0C7010E940A11A7
:1038E00026CB80E00E94070CBB2069F282CFDD204E
:1038F00001F1C11004C08091F4018B2917C041E08F
:10390000C41206C08091F4018B290E949409BBCF98
:1039100080917D03823078F3C812EDCF0E9489092F
:103920008091ED01B812B092ED018B2D0E94000C38
:10393000AACFC11006C00E9489098B2D0E94F90BE5
:10394000A2CF80917D0351E0C5120BC0823008F4F4
:103950009ACF809194028B2109F495CF0E949D0A01
:10396000EACF823040F3C812E6CF8DCFDD2029F0B8
:1039700085E08C1508F487CFD8CF94E09C1508F427
:1039800082CFDBCFCC20C9F280918103909182035A
:10399000193321F080917F03909180030E944A0D9A
:1039A000812F0E94070C6FCF802F8695869583709C
:1039B00069F0813009F067CF812F902F9370D1107B
:1039C00002C090E080E00E944B055DCF812F902FD8
:1039D0009370D11002C090E080E00E94610553CF47
:1039E000812FDD2029F00E943D070E94FB054BCF6F
:1039F0000E942206FACF802F837091F5D11043CF19
:103A0000412F429546954770440F440F812F8F7088
:103A1000042E01C0880F0A94EAF7212F207114FFA9
:103A200007C02FE030E001C0220F4A95EAF7209549
:103A3000302F369536953370323069F050F440911E
:103A40005D04313029F0822B84230E94E40B1BCFCC
:103A5000842B822BFACF282B80915D048227F5CF0F
:103A60008695DD2011F0802F8170882309F40BCF1B
:103A7000412F429546954770440F440F812F8F7018
:103A8000042E01C0880F0A94EAF7212F207114FF39
:103A900007C02FE030E001C0220F4A95EAF72095D9
:103AA000302F369536953370323069F050F44091AE
:103AB0005E04313029F0822B84230E948C0BE3CEEC
:103AC000842B822BFACF282B80915E048227F5CF9E
:103AD000F02FFF70BF2EDD2029F08F2F0E94C30B27
:103AE000812F24CF812F0E94F90B8B2D0E949B0BDD
:103AF000CACE123F89F160F4103FB9F0113F81F056
:103B0000DD2009F48CC0C11060CE802F8F7128C0D9
:103B1000133F49F1143FA1F78091010282FF2FC0AA
:103B2000802F8F71DD2011F31BC0DD2081F024E098
:103B30002C1508F4A8CE202F2F7181E090E001C051
:103B4000880F2A95EAF790915E048927B6CF35E071
:103B50003C1508F498CEEFCF802F8F71D110C6CFCF
:103B60000E94C30B90CE80E0DD2009F4A6CF81E057
:103B7000902F9F7101C0880F9A95EAF79ECF809190
:103B80007D038230A0F18091ED01DD20F1F00E94F3
:103B9000AF098091F0018770843041F40E94BC0924
:103BA000802F8F710E949B0BA12C6DCE80917D0385
:103BB000C816D0F7402F4F71B42E842F0E94C30B2C
:103BC00063E08B2D0E94CE0BEFCF0E94B60980914F
:103BD0007D03C81640F00E94BC090E949D0A64E063
:103BE000802F8F71EFCF81E00E94A70BDDCFDD200A
:103BF00059F0502F5F71B52E852F0E94C30B63E0E3
:103C00008B2D0E94CE0B3FCE81E00E94A70B81E05E
:103C10008C1508F038CE82E00E94A70B34CEC1107C
:103C2000B3CE802F8F7162CFDD2019F0C11038CE56
:103C30003BCEC11035CE20E0F70140815181628139
:103C4000738184810E94E11080917E0383FF28CEDE
:103C500080918F0190919001029709F021CE812FE0
:103C60000E94E70D1DCE0031BFE51B0709F4E1C935
:103C70000131EFE51E0709F4E6C9680127E5D21A0C
:103C8000882309F4E2C93FEFC316D10409F008F410
:103C90000ECA80917C0380FF39C00E943F056C01F1
:103CA000D70112968C91882309F47ECA80911A015B
:103CB00082FF08C028EF31E040E0B60190E080E0EC
:103CC0000E949A0E0B31BCE51B0709F45FCA0C3148
:103CD000ECE51E0709F460CA90911A01892F8E7FC6
:103CE00090FF81600A31FCE51F0709F458CAC8013A
:103CF0009056811520E2920728F0905E8115904140
:103D000008F060CA1092B8021092B702033FBCE5F7
:103D10001B0709F4A7CB08F045CB083DFCE51F07BE
:103D200009F49ACB093D2CE5120709F4B3CB073D02
:103D30003CE5130709F042CB06E221EE41EE67EDC8
:103D40007CE5C7010E94080EE2C806311C4509F057
:103D5000C1CB80919402982F9A7A20917B0320FF07
:103D600004C0482F447409F090E021FF04C0482F9C
:103D7000417109F090E022FF04C0482F487809F013
:103D800090E023FF03C0827209F090E0332309F42E
:103D9000BDCC81E0911101C080E080938E0189E269
:103DA000911185E30E94B00A0E94DD09B0C8CF924C
:103DB000DF92EF92FF920F931F93CF93DF93809147
:103DC000A801807F31F48091A501C091EC0181119F
:103DD0000BC0DF91CF911F910F91FF90EF90DF907B
:103DE000CF9008952196C7708091AB018C1789F30D
:103DF000F090A301E090A401C090A601D090A7018B
:103E0000A6016E2D8F2D0E948305D0E08111EACF8F
:103E10008E0183E0000F111F8A95E1F7F801E45548
:103E2000FE4F81818E11DECF80818F11DBCF8281A9
:103E30008111D8CFE380F480EC18FD0860E083EABC
:103E400091E00E940A118091790390917A03E8161B
:103E5000F90640F68091A8018F7080618093A801D7
:103E6000F801EF54FE4F80818F708061808383EA78
:103E700091E00E940017DF91CF911F910F91FF9069
:103E8000EF90DF90CF900C94E90A3F924F925F92AF
:103E90006F927F928F929F92AF92BF92CF92DF925A
:103EA000EF92FF920F931F93CF93DF93CDB7DEB7BF
:103EB00065970FB6F894DEBF0FBECDBF8C0185E0CD
:103EC000F801DE01519601900D928A95E1F7D80133
:103ED0004C9011965C9011971296EC901297139655
:103EE000CD90DC9060E083EA91E00E940A1183EAC1
:103EF000A82E81E0B82E8090A6019090A701A40181
:103F00006091A4018091A3010E9483058111CAC11F
:103F1000F090A501F601E819F9094F0160E0FF20D2
:103F200009F46DC1C5010E940A1160907903709077
:103F30007A033090A8018614970408F013C14091C9
:103F4000A6015091A701B090A301A090A401832DD8
:103F5000807F6A2D09F0ADC08B2D0E948305FE2C59
:103F600081113BC0D80111968C9111978A1135C0EF
:103F70008C918B1132C02091A9013091AA01169623
:103F80008D919C912817390741F5E11026C0832DAA
:103F90008F7080618093A80183EA91E00E940017EE
:103FA0008091A801F80185838F2D65960FB6F8944E
:103FB000DEBF0FBECDBFDF91CF911F910F91FF905C
:103FC000EF90DF90CF90BF90AF909F908F907F90B9
:103FD0006F905F904F903F900895F4EF6F16F1E06F
:103FE0007F0620F480917E0380FF21C0A601652D0D
:103FF000842D0E948305811118C081E08E2580FFE9
:1040000016C04E2D652D842D0E94C90A882379F093
:1040100083EA91E00E94001788E0E3EAF1E0DF0123
:104020001D928A95E9F7F12CBFCF80E0E8CFA60179
:10403000652D842D0E948305811124C081E08E2589
:10404000B82FB170CB2E80FF2BC04E2D652D842D47
:104050000E94C90AD82E811123C0498A5A8A8989A7
:104060009A890E94C710292F22952F70223060F064
:10407000243088F49F7061F0F8019581907F41F4BD
:10408000FD2C92CF80E0DCCF9F7011F08823C1F32C
:10409000805E8830A8F3C8010E940017DC2CF0CFA6
:1040A000EE2009F481CF8091A80181608093A8015E
:1040B000BACF8B2D0E948305811124C0D80111969F
:1040C0008C9111978A111EC08C918B111BC020916D
:1040D000A9013091AA0116968D919C9117972817E6
:1040E000390781F4E1100EC015963C92C8010E9478
:1040F000001788E0F801A3EAB1E001900D928A95DB
:10410000E1F752CFC8010E94D310882339F1EE2085
:1041100029F18091A8018032A0F02091A301309173
:10412000A4013A8729871B86DD86CC868E878091FD
:10413000A9019091AA01988B8F87CE0109960E94C0
:10414000001788E0F801A3EAB1E001900D928A958A
:10415000E1F70E94D71EFF24F39426CFC8010E94E6
:104160000017F9CF832D807F09F452CF9090A301DF
:104170008090A4014091A6015091A701682D892D3E
:104180000E94830581111CC0F8018181881118C02B
:104190008081891115C02091A9013091AA018681E1
:1041A00097812817390761F4E1100AC03582C801E8
:1041B0000E94001788E0D5011D928A95E9F7F4CE98
:1041C000C8010E94D310882349F2EE2039F2809171
:1041D000A801803208F4B5CF2091A3013091A40149
:1041E0003A8329831B82DD82CC828E838091A90150
:1041F0009091AA0198878F83CE010196A0CF83EA80
:1042000091E00E940A118091790390917A038816B7
:10421000990680F6FE2CEE2009F4A0CFE090A301D1
:10422000D090A4014091A6015091A7016D2D8E2D33
:104230000E948305811128C0F80181818D1124C05D
:1042400080818E1121C02091A9013091AA0186811F
:10425000978128173907C1F480917E0382FD49CFE9
:104260009091A80190FD45CF907F09F442CF8091B5
:10427000A8018583903F09F439CF982F907F905FF4
:104280008F70892B858332CFC8010E94D310811192
:1042900058CF8091A80181608093A801C8010E9435
:1042A000001782CEEE2009F459CFC8010E94D31026
:1042B000F82E882309F452CF88E0F801A3EAB1E090
:1042C00001900D928A95E1F78091A3019091A4014C
:1042D0000E94C7100E94D71E67CECF93DF93CDB741
:1042E000DEB760970FB6F894DEBF0FBECDBF29874B
:1042F0003A874B875C876D877E878F87988BCE0147
:1043000009960E94451F81112FC088E0FE01399651
:10431000DE01119601900D928A95E1F74C855D853D
:104320006A8589850E94830581111EC0A091AB0119
:10433000B0E0CD010196877099272091EC012817F4
:10434000190609F193E0AA0FBB1F9A95E1F7A4554E
:10435000BE4F98E0FE01319601900D929A95E1F7DB
:104360008093AB010E94E90A8091EC019091AB012E
:10437000891317C060960FB6F894DEBF0FBECDBF8D
:10438000DF91CF9108950E94B7131092AB01109264
:10439000EC0188E0E3EAF1E0DF011D928A95E9F79C
:1043A000E3CFB8E08B9FC001112484559E4F0E943B
:1043B000451F8823F9F28091EC0190E00196877007
:1043C00099278093EC01D0CFEF92FF920F931F9328
:1043D000CF93DF938091BC02882361F0C091BB0230
:1043E0008CE0F82E8091BC02C81758F01092BC02E5
:1043F0001092BB02DF91CF911F910F91FF90EF9030
:104400000895EE24E394EC0EE092BB020C2F10E032
:10441000CF9DE0011124C354DD4F4B815C81698144
:1044200088810E94830581111BC08E819F81892B09
:1044300021F488859985019651F4288139814A8132
:104440005B816C817D818E819F810E946D21F09EB8
:10445000F001F19EF00D1124E354FD4F14821382FC
:10446000CE2DC0CF1092600310925F0310921B01FB
:1044700080915E0380935D030E94BC050C94E4214F
:104480003F924F925F926F927F928F929F92AF92E4
:10449000BF92CF92DF92EF92FF920F931F93CF9331
:1044A000DF93C0915D0397E0892E01E010E02CE0DE
:1044B000322E3EEF932E4424439480915E038C135E
:1044C00015C00E94E421DF91CF911F910F91FF90C1
:1044D000EF90DF90CF90BF90AF909F908F907F90A4
:1044E0006F905F904F903F900C94BC05D0E0FE0120
:1044F000EE0FFF1FEB5AFC4F80819181889ED00107
:10450000899EB00D1124A35EBC4F14962C91149774
:10451000211157C05090BC02EDEBF2E030E020E0FA
:10452000712C5D01251508F04AC0E284F384D501A1
:10453000CD90DC906FEF7FEF612C462D50E0DA01DB
:10454000AA0FBB1FAC0DBD1D0D90BC91A02D1097E7
:1045500031F0EA16FB0609F4BA016394EECF6F3F1F
:104560007607A1F1D80102C0AA0FBB1F6A95E2F736
:104570007A2AB80102C0660F771F6A94E2F7AB018E
:104580004150510974161506F9F4329EF001339E1C
:10459000F00D1124E354FD4F889ED001899EB00D8B
:1045A0001124A35EBC4F12962D913C911397378333
:1045B0002683908291829187808715964C920E94E3
:1045C0008E052196C37079CF148213822F5F3F4FDF
:1045D0003C96A8CF4F925F926F927F928F929F925C
:1045E000AF92BF92CF92DF92EF92FF920F931F9301
:1045F000CF93DF93CDB7DEB728970FB6F894DEBF21
:104600000FBECDBF8E010F5F1F4F88E0F8011192E2
:104610008A95E9F796E5E92E91E0F92E68012AE5F9
:10462000422E21E0522E66246394712C45E6842E9E
:1046300041E0942EF70181917F018F3F09F445C03D
:10464000F894E82FE295EF70F0E021A18F70A301BC
:1046500002C0440F551F8A95E2F7CA01922F982B8A
:1046600091A392A18095892382A3789400C0EAE562
:10467000F1E021E030E0B12CA12C41914F3F09F451
:1046800076C0A42FA295AF70B0E090968C9190E088
:104690004F7002C0959587954A95E2F780FD67C0F7
:1046A000C901A82AB92A220F331F8E169F0629F79F
:1046B000F701319780818F3F11F00E94A70750EAE0
:1046C0005A95F1F7F601B182A082F2E0CF0ED11C2B
:1046D0004E145F0409F0AECF48E050E0B80182E02C
:1046E00092E00E94B530DD24D394009709F4D12CD8
:1046F000892B09F43FC088E0F801A2E0B2E0019004
:104700000D928A95E1F781E08093F7010E943F05C1
:104710009093F6018093F5018091F5019091F60157
:104720000E943005059750F180910202909103029A
:1047300090931A02809319028091040290910502CD
:1047400090931C0280931B028091060290910702B5
:1047500090931E0280931D0280910802909109029D
:104760009093200280931F021092F70107C090E0FF
:1047700080E097CF8091F7018111CECF8091000129
:104780009091010110E006E1019609F06DC0809161
:104790001B01811173C080917C0380FF1EC080913A
:1047A0001A0182FF1AC00E943F052091B502309184
:1047B000B602AC01421B530B209118013091190134
:1047C0004217530750F028EF31E041E0BC018091DF
:1047D000B7029091B8020E949A0E8D2D28960FB6BE
:1047E000F894DEBF0FBECDBFDF91CF911F910F9127
:1047F000FF90EF90DF90CF90BF90AF909F908F9001
:104800007F906F905F904F900895089FF001099FEF
:10481000F00D1124E857FC4FE288F388E114F1040D
:1048200021F4E0907903F0907A03089FF001099F4A
:10483000F00D1124E857FC4F86818823A1F085856F
:1048400096850E943005E816F90668F4109F7001FD
:104850001124C70188579C4F0E945E0AC7018257E6
:104860009C4F0E94190A1F5F812F90E02091000148
:10487000309101012817390744F689CF80915F03F1
:1048800090916003009709F486CF0E943005209133
:10489000B9023091BA022817390708F07CCF9091FD
:1048A0005D0380915E03981759F00E944022109298
:1048B000BA021092B9021092600310925F036BCF9C
:1048C0000E94E4211092600310925F030E94BC05D5
:1048D00062CF2F923F924F925F926F927F928F9210
:1048E0009F92AF92BF92CF92DF92EF92FF920F937F
:1048F0001F93CF93DF93CDB7DEB769970FB6F894C8
:10490000DEBF0FBECDBF942F498B252F5A8B6B8BEB
:104910007C8B8D8B4C895D89622F892F0E9483054A
:10492000811109C080918F0190919001019690931F
:10493000900180938F018B89811110925F041D86F5
:104940001E861F86188A85E0FE017196DE01199683
:1049500001900D928A95E1F78091010282FD1EC0BF
:104960008091630390916403892BC1F00E943F05FD
:104970002091EE013091EF01821B930B2091630394
:10498000309164038217930720F08091F00182FF39
:10499000F5C10E94C30981110E9489094C855D857A
:1049A0006A8589850E948305811111C061E0CE016D
:1049B00009960E940A116C018B8527EFC2162CE51F
:1049C000D20681F4882321F181E080931B0129859F
:1049D0003A854B855C856D857E858F8598890E949B
:1049E0006D21C5C038EFC3163CE5D30629F48823F2
:1049F00079F00E943222EBCF49EFC4164CE5D40681
:104A000039F4882329F080911B018111F2CFDCCF8A
:104A10000DE113E0512CB12CA12C22242394312C34
:104A20002EEF422EF8014081518188248A94982CDF
:104A300020E0822F90E0FC01EE0FFF1FE40FF51F36
:104A4000608171816115710531F0C616D70609F4D0
:104A50004C012F5FEECFF12CFFEF8F169F0609F46C
:104A600048C0F8014481F0901B018F2D411180E076
:104A7000F82FF170FF2EF801E58086819B85992340
:104A800009F40CC1FF2009F409C16090770370900C
:104A90007803E11012C0A10101C0440F8A94EAF723
:104AA000842B86838091B9029091BA02861597056E
:104AB00020F47092BA026092B902C10102C0880F5C
:104AC000991F2A95E2F70197F80126812817190600
:104AD00081F480915F0390916003009709F460C0B6
:104AE0000E9430056816790608F05AC021E0F801E6
:104AF00024835F28FFEFAF1ABF0A095F1F4F28E02A
:104B0000A216B10409F08ECF8B85882309F421C148
:104B1000552009F41EC10E943F05909360038093C5
:104B20005F038091BC02883010F591E0980F90935C
:104B3000BC0298E0FE013996DE01119601900D92BB
:104B40009A95E1F73CE0839FC001112483549D4F67
:104B500028E0FE013196DC0101900D922A95E1F7E3
:104B60002FEF3FEFFC0131872087D386C2866996FD
:104B70000FB6F894DEBF0FBECDBFDF91CF911F916E
:104B80000F91FF90EF90DF90CF90BF90AF909F90EC
:104B90008F907F906F905F904F903F902F900895EF
:104BA00080915D0350915E03982FF0E0E0E0851363
:104BB00014C090935D03E017F10709F49ACF90E0D9
:104BC000FC01EE0FFF1FEB5AFC4FB182A082019651
:104BD0008370992780935E038CCF682E712CF3012C
:104BE000EE0FFF1FEB5AFC4F2081318147E0429FBF
:104BF000D001439FB00D1124A35EBC4F6D917C91F9
:104C00001197798F688F40E020E030E0E32FF0E0EB
:104C1000EE0FFF1F688D798DE60FF71F8080918062
:104C200081149104E1F0F8010190F081E02DFF8BF7
:104C3000EE8B20E005C08616970609F44F2D2F5FF6
:104C4000E22FF0E0EE0FFF1F6E897F89E60FF71F5E
:104C5000608171816115710571F73F5FD7CF442382
:104C6000D1F0F801231708F0FD0121E024830E178D
:104C70001F0721F490935D03F42E3BCF981305C0DA
:104C8000AE17BF0711F49F5F937093012F5F3F4FE3
:104C9000822F83708CCFF0E0E0E0F7CF90E0E1105E
:104CA0001FC0B10102C0660F771F2A95E2F79B0172
:104CB000215031098217930731F4442309F447C086
:104CC000C5010E948E05C10101C0880F8A94EAF7D0
:104CD000982F9095F801868189238683FE2C09CF31
:104CE0009C01082C02C0359527950A94E2F7A9018A
:104CF00041705527BC016150710986239723892B88
:104D000011F5452B01F1F80182819381892BC1F0C6
:104D10001B821C821D821E8249824A820E943F059C
:104D20008160582F9D838C83F801828193818F83CA
:104D3000988729813A814B816D817E810E946D2106
:104D4000F8011582C0CFF22FF170EF2EBCCFEF2CFF
:104D5000BACF90915D0380915E03981731F00E9465
:104D60004022552009F433CE02CF0E94E421109254
:104D7000600310925F030E94BC05F3CF82E00E94A3
:104D8000A70B07CECF93DF9300D000D00F92CDB703
:104D9000DEB79093910280939002811520E29207F2
:104DA00048F40F900F900F900F900F90DF91CF91DC
:104DB0000C948E0C8EEF89838A831B820E943F05A0
:104DC0008160782F9D838C8349815A816B818D818D
:104DD0000F900F900F900F900F90DF91CF910C9448
:104DE00069240F931F93CF93DF938C01EB0166E34C
:104DF00072E08C2F0E94F412892BA1F480917F0322
:104E0000909180030E944A0DDD27C25DDD4F8881AD
:104E1000F80110821882833009F148F4813059F08A
:104E2000823081F0DF91CF911F910F9108958430EE
:104E3000D1F08530B9F78091360290913702009712
:104E400089F306C08091380290913902009799F356
:104E5000DF91CF911F910F910C94C22680913A025D
:104E600090913B02F3CF80913C0290913D020097DC
:104E700079F7209136023091370280913802909173
:104E8000390221153105D9F2009711F7C901E0CF98
:104E9000CF93DF9300D000D00F92CDB7DEB79093C1
:104EA000910280939002811520E2920748F40F90BE
:104EB0000F900F900F900F90DF91CF910C946F0E89
:104EC0008EEF89838A8381E08B830E943F05816016
:104ED000782F9D838C8349815A816B818D810F90BE
:104EE0000F900F900F900F90DF91CF910C94692449
:104EF000BF92CF92DF92EF92FF920F931F93CF93C7
:104F0000DF93B82EC0905E0480915D04C82AC7E08C
:104F1000D0E0D12CF12CE12CD701C6010C2E04C01D
:104F2000B695A795979587950A94D2F780FF1FC0ED
:104F30004B2D60E08C2F0E9424108C018130910554
:104F4000B1F00E9448278FE39CE90197F1F700C078
:104F50000000C8010E94C22681E0DF91CF911F911D
:104F60000F91FF90EF90DF90CF90BF900895219721
:104F700098F64B2D60E080E00E942410EC010E9426
:104F800048278FE39CE90197F1F700C00000CE01AC
:104F9000E1CFCF93DF93EC010E94482780917F03FC
:104FA000909180030E944A0DCE01DF91CF910C9425
:104FB000C2260F931F93CF93DF938C01862F66E356
:104FC00072E00E94F412892BC9F4C0913602D0918C
:104FD0003702209799F0F8018081833069F4CE017F
:104FE0000E94C927CE010E94C927CE01DF91CF912F
:104FF0001F910F910C94C9278430B8F7DF91CF919E
:105000001F910F9108950F931F93CF93DF938C01FE
:10501000EB0166E372E08C2F0E94F412892B09F0F9
:1050200064C0FE01FF27D8018C91E25DFD4F813005
:10503000D9F419969C911997992311F080830CC08B
:105040001A969C919923D1F382E080838091380253
:10505000909139020097D9F48091360290913702ED
:10506000009709F442C013C08230E9F519968C917B
:10507000199781112DC01A968C9181110EC083E071
:10508000808380913A0290913B02009719F1DF9161
:10509000CF911F910F910C94482784E080838091D9
:1050A0003C0290913D02009791F7809136029091D9
:1050B00037020097F9F00E94C92780913802909139
:1050C0003902009721F78091360290913702DFCFA5
:1050D00085E080838091360290913702009729F015
:1050E0000E94C927F0CF86E08083DF91CF911F9186
:1050F0000F9108958091380290913902B1CF1F929B
:105100000F920FB60F9211242F933F934F935F93FB
:105110006F937F938F939F93AF93BF93CF93DF93BF
:10512000EF93FF93D091E900DF708091EC00C82FDE
:10513000C17080FDC0E81092E9008091F000877F87
:105140008093F00078940E94C2131092E90080913D
:10515000F00088608093F000CD2BCF70C093E90001
:10516000FF91EF91DF91CF91BF91AF919F918F917F
:105170007F916F915F914F913F912F910F900FBE53
:105180000F901F9018951F920F920FB60F92112437
:105190002F933F934F935F936F937F938F939F933F
:1051A000AF93BF93EF93FF938091E10082FF09C01B
:1051B0008091E20082FF05C08091E1008B7F8093A7
:1051C000E1008091DA0080FF24C08091D80080FF48
:1051D00020C08091DA008E7F8093DA008091D90020
:1051E00080FF9DC080E189BD82E189BD09B400FED8
:1051F000FDCF81E08093530480914604811109C062
:105200000E94A2030E946D048091E200846080935A
:10521000E2008091E10080FF17C08091E20080FFF2
:1052200013C08091E2008E7F8093E2008091E200C3
:1052300080618093E2008091D80080628093D800E2
:1052400019BC85E0809353048091E10084FF2BC05A
:105250008091E20084FF27C080E189BD82E189BDA1
:1052600089B5982F917080FFFBCF8091D8008F7DFA
:105270008093D8008091E1008F7E8093E10080913F
:10528000E2008F7E8093E2008091E2008160809353
:10529000E20080915404882309F447C084E080939D
:1052A0005304809153048091E10083FF27C08091D3
:1052B000E20083FF23C08091E100877F8093E100BB
:1052C00082E080935304109254048091E1008E7F19
:1052D0008093E1008091E2008E7F8093E2008091D4
:1052E000E20080618093E20042E060E080E00E94A2
:1052F0003B048091F00088608093F000FF91EF9173
:10530000BF91AF919F918F917F916F915F914F91DD
:105310003F912F910F900FBE0F901F90189519BCC1
:10532000109253041092460474CF8091E30087FDDD
:1053300093E090935304B5CF78941F921FB61F92B9
:1053400011248F939F93AF93BF9380913F049091CB
:105350004004A0914104B09142040196A11DB11DE9
:1053600080933F0490934004A0934104B09342047F
:10537000BF91AF919F918F911F901FBE1F90189565
:105380001F921FB61F9211248F939F93AF93BF93C9
:1053900080913E04811113C080913F04909140049C
:1053A000A0914104B09142044196A11DB11D80938A
:1053B0003F0490934004A0934104B0934204BF91F2
:1053C000AF919F918F911F901FBE1F901895CDB7E1
:1053D000DEB7E4970FB6F894DEBF0FBECDBF84B73B
:1053E000877F84BF0FB6F894A8958091600088618C
:1053F00080936000109260000FBE80E890E00FB6CE
:10540000F89480936100909361000FBE85B7806827
:1054100085BF85B7806885BF85EA97E09093850151
:10542000809384010E9408130E945E130E94FE0F65
:105430000E94A2030E946D048091E2008460809328
:10544000E2007894809153048823A1F01091E90040
:105450001F709091EC00892F817090FD80E8182BCF
:105460001092E9008091E80083FD0E94C2131F7032
:105470001093E90082E084BD93E095BD9AEF97BD5B
:1054800080936E000E941811811102C00E94E512E3
:1054900084E30E94A70784E90E94A70780E30E9493
:1054A000A70787E60E94A7070AE511E0B5E6EB2EFD
:1054B000B1E0FB2ED8018D918D018F3F11F00E943C
:1054C000A707E016F106B1F788E0E9E1F2E0DF01B5
:1054D000282F1D922A95E9F7E2E0F2E0DF011D9204
:1054E0008A95E9F790E080E00E94EA308A3E9E4F7C
:1054F00021F40E941811811102C00E94961682E0C8
:1055000090E00E94E23080930E020E94311190934D
:105510000102809300020E94EA22EFE3FCE9319746
:10552000F1F700C000000E94EA228091190280FF7A
:1055300008C06FEF7FEF90E080E00E940E310E9484
:10554000260D83E090E00E94E2300E94E40B579821
:105550005F9A56985E9A89B190E0880F892F881FCC
:10556000990B4E9959C120E0822B80930C0282E066
:1055700091E090933B0480933A0478E1672E712C7C
:10558000E0E45E2EF1E2CF2EF2E0DF2E8E010F5F1F
:105590001F4F8091530450E1E52E62E1F62E8530D5
:1055A00009F471C10E94EA22882359F08FB7F89458
:1055B00040913F0450914004609141047091420435
:1055C0008FBFA9E1B2E0EFE0F2E0F12CE12C7E2DFB
:1055D0008D919D91219131912817390709F463C16B
:1055E0002827392760E0AA24A394B12CA9014A21D5
:1055F0005B21452B09F451C16BA77CA79C012A2193
:105600003B2191E0232B09F490E09DA70E943F05E8
:105610008160782F9FA78EA74BA55CA56DA58FA550
:105620000E946924F701EE0FFF1FE15FFD4F8081AB
:105630009181A826B926B182A082E0910C02EE0FDA
:10564000EE0FE0930C0289B190E0880F892F881F3C
:10565000990B4E9941C120E0822BE82BE0930C027C
:10566000EF70F0E0EB59FE4F808190910B02890FB3
:1056700080930B0220E084304CF080910A028F5F0F
:1056800080930A0280E00E94782721E080910B023B
:105690008D3F4CF480910A02815080930A0281E090
:1056A0000E94782721E080910B02082E000C990BB4
:1056B00064E070E00E948B3080930B02222359F04B
:1056C0008FB7F89440913F04509140046091410499
:1056D000709142048FBF86E0E8E2F2E0D8010190C9
:1056E0000D928A95E1F7A0902A02B0902B02E090EB
:1056F0002C02F0902D0210922A0210922B0210928E
:105700002C0210922D028A2D8B2991F08091260275
:10571000909127020E943005AC01909122029923BA
:1057200009F4DDC0809116018417150608F4E5C060
:105730008E2D8F2991F080912402909125020E9454
:105740003005AC0190912102992309F415C1809193
:1057500012018417150608F41DC180912A02909148
:105760002B02892B90912C02892B90912D02892B51
:1057700011F00E94FB0586E0F801A8E2B2E001907A
:105780000D928A95E1F70E94770590910D02891795
:1057900021F00E94770580930D028091530484309C
:1057A00009F0F7CE83E08093E9008091E80082FF62
:1057B000F0CE8091E80090E085FF0AC00E94C1030E
:1057C00070E2A72EB12C7801882309F42CC191E056
:1057D0008091E8008B778093E800992309F4D9CE73
:1057E000E0909202F09093028981E114F10409F4AF
:1057F00028C18E3F09F070C18A81833020F0855026
:10580000833008F069C1EA81EE3008F065C1F0E04C
:10581000EE5AFE4C0C949F3022E0A6CE80915304A9
:10582000843009F110923E040FB6F894A895609266
:1058300060000FBE5092600083B7817F846083BF99
:1058400083B7816083BF7894889583B78E7F83BF49
:105850000FB6F894A89580916000886180936000ED
:10586000109260000FBE80915204882361F00E9464
:10587000EA22E9E1F2E081919191892B09F0E0C3FC
:10588000CE16DF06C1F780915304853009F4C6CFE8
:105890000E94B7130E94770585CE6F5FAA0CBB1CD0
:1058A0006B3009F0A3CE2FEFE21AF20A34E0E316D0
:1058B000F10409F08CCE8FEF88AB89AB1AAA0E9455
:1058C0003F058160782F9CAB8BAB48A959A96AA989
:1058D0008CA90E946924B1CE22E030E0BDCE209197
:1058E00017018AE0289F900111242417350708F03A
:1058F0001FCF9F5F9093220202C09F3FD1F7AA2043
:1059000059F00E94DE069FEF1A140CF491E0899F73
:10591000802D112480932A02BB2059F00E94DE06BC
:105920009FEF1B140CF491E0899F802D112480932C
:105930002B0230912A02332309F4FACE20912B0254
:10594000222309F4F5CE45EB3403C0011124992339
:1059500059F090932A0245EB24039001112433233C
:1059600039F030932B02E4CE81E080932A02F3CF0A
:1059700081E080932B02DCCE209113018AE0289FE6
:10598000900111242417350708F0E7CE9F5F90930C
:10599000210202C09F3FD1F7EE2059F00E94A506D8
:1059A0009FEF1E140CF491E0899F802D11248093A9
:1059B0002C02FF2059F00E94A5069FEF1F140CF443
:1059C00091E0899F802D112480932D0230912C022B
:1059D000332309F4C2CE20912D02222309F4BDCE37
:1059E00045EB3403C0011124992359F090932C0204
:1059F00045EB240390011124332339F030932D0219
:105A0000ACCE81E080932C02F3CF81E080932D0215
:105A1000A4CE8091F100D7018D937D01B1E0AB1A46
:105A2000B10809F4D4CE8091E80085FDF2CF8091D1
:105A3000E8008B778093E8000E94C103882399F3E4
:105A4000C6CE8D3009F4C4C0B0F4843009F4A7C0C8
:105A500040F4823041F108F093C0813001F18FEFC2
:105A60001BC3863009F4B1C008F4A4C08C30B9F768
:105A700080E18A8331C0813109F406C140F48F305E
:105A800009F4D4C008F4A8C00E949D1125C0833138
:105A900009F425C108F4FAC08E3F09F7B4CE1A8282
:105AA00089E08B8319C08A81823009F417C383305F
:105AB000E1F18130A1F62FB7F89460913F04709125
:105AC000400480914104909142042FBF0E94A53070
:105AD0006B837C838D839E8380915304843009F093
