:100000000C945E040C9496040C9496040C94960440
:100010000C9496040C9496040C9496040C949604F8
:100020000C9496040C9496040C94462B0C94022B7E
:100030000C94432C0C9496040C9496040C94960403
:100040000C9496040C9496040C9496040C949604C8
:100050000C9496040C941F2C0C9496040C94960407
:100060000C9496040C9496040C9496040C949604A8
:100070000C9496040C9496040C9496040C94960498
:100080000C9496040C9496040C9496040C94960488
:100090000C9496040C9496040C9496040C94960478
:1000A0000C9496040C9496040C94960400047F3FE0
:1000B0001F643214643214783C1E1E140A05FD3786
:1000C0007A585A000004E6D6B44602002101160010
:1000D0000000742FE5A3E009E402145D003D888967
:1000E000C65436C3174FE4E7E954216F66A345436E
:1000F00051D63195C0501472BFB4447A2852B5CA53
:10010000BBE6D2E337F5BDE72E51FEB8D99B3DB033
:1001100024A5ED723B7DBF22549A1894309528C2D5
:100120006CE4EDF83D7AF2F128BAC625142DAD7BCA
:10013000A99DAB6D6ADBDF9642B910EF16677A288E
:1001400038E9552D0354DA1722791BB32925F3B961
:100150003640BA68E8BFAC4CC3C0A0712A48E14D34
:10016000CB031A917A4E079A336F8D8C2FEE44E5AC
:100170008143F192EC1D60D0F2B1C1B53C3ED4EDAB
:10018000EDFEA9903B221895847879A0EFD198B024
:100190001D0823468122740608A3CF965B75DB53A6
:1001A0005562429B8815949C6905DA76E99BFA634F
:1001B000FCFFF061D9319F0C722E7AAD91A93F56A8
:1001C0002709D2EFF759BF018D97AB1F1E0AE5BD76
:1001D000975F83C0E0CB24CC1ED83378F768A42D7A
:1001E000B7B2612EE7CFE3758F29B1201107CB603D
:1001F00057511C2087AA8D62252C5476CEA9DEF596
:100200003B66413EB2E72FF1FE294D2CB72213FA8F
:100210004A0F283CEE6784A812E9E97DA0576C3E9E
:10022000DA19E22D0972B0A732FEB0C8E6CDA2BA43
:100230003BF1F849A482DA4193279E724032529DE5
:10024000BE035AA9D383202C248144E35B986C44D9
:10025000A0182752BA86C5E0BFB9A225DE67BDE265
:100260001DAAEBDDB23A4F4D88A70A62FBC3B1A7C6
:10027000ABA07AA02713C4E13AD48D5C9F0657E760
:100280002ABBE9D74B1CD164B219056D081DB3A573
:10029000DE3038765A8828F16F5BCAC2746264E730
:1002A00033646409EB8AAD7A7B2F6284024D5A81F4
:1002B0000196055422973F92E808A8390F71E26C25
:1002C0002D24CBECA1463D6BFFFEBE32B59A66A352
:1002D000E023B0BD00ED5A2FACE1548981024133D7
:1002E000ED2D20DAE1AEBD468BAE799D80594EA052
:1002F0000000C23A639E0666CBDF0001B004E5133E
:1003000000004BCDDED3B1C467FB02000000000447
:10031000595A000101010101010101010202020219
:10032000020202020203030303030303030404049F
:100330000404040405050505050606060606070768
:1003400007070708080808090909090A0A0A0B0B20
:100350000B0C0C0C0D0D0D0E0E0E0F0F0F101011BF
:100360001111121213131414151516161717181845
:1003700019191A1A1B1B1C1D1D1E1E1F20202122AD
:1003800022232424252626272829292A2B2C2D2DF3
:100390002E2F30313232333435363738393A3B3C10
:1003A0003D3E3F404142434445464748494A4C4D03
:1003B0004E4F50515354555658595A5B5D5E5F61CC
:1003C0006264656668696B6C6D6F7072737577785F
:1003D0007A7B7D7E8082838587888A8C8E8F9193BD
:1003E0009596989A9C9EA0A2A3A5A7A9ABADAFB1E4
:1003F000B3B5B7BABCBEC0C2C4C6C9CBCDCFD1D4C9
:10040000D6D8DBDDDFE2E4E7E9EBEEF0F3F5F8FA6E
:10041000FDFFFFAA7F55402223252628292A2C2DBF
:100420002F3032333536383A3B3D3E404243454724
:10043000494A4C4E5051535557595A5C5E6062645C
:100440006668696B6D6F71737577797B7D7F81836A
:100450008587898A8C8E90929496989A9C9E9FA16B
:10046000A3A5A7A8AAACAEAFB1B3B4B6B8B9BBBC8C
:10047000BEBFC1C2C3C5C6C7C9CACBCCCDCED0D101
:10048000D2D2D3D4D5D6D7D7D8D9D9DADADBDBDBF9
:10049000DCDCDCDCDCDDDDDDDDDCDCDCDCDCDBDB9A
:1004A000DBDADAD9D9D8D7D7D6D5D4D3D2D2D1D0EE
:1004B000CECDCCCBCAC9C7C6C5C3C2C1BFBEBCBBEB
:1004C000B9B8B6B4B3B1AFAEACAAA8A7A5A3A19F63
:1004D0009E9C9A98969492908E8C8A898785838127
:1004E0007F7D7B79777573716F6D6B696866646208
:1004F000605E5C5A5957555351504E4C4A494745D6
:100500004342403E3D3B3A3836353332302F2D2C76
:100510002A29282625232214001A0008001500176E
:10052000001C0018000C00120013002A0004001622
:1005300000070009000A000B000D000E000F003438
:100540000000001D001B000600190005001100102E
:100550000036003700380000000000E30001512A97
:10056000002C002C000251005C0000000000000183
:100570000001000100010001000100010001000173
:100580000001000100010001000100010001000163
:100590000001000100010001000000010001000154
:1005A0000001000100010001000100010001000044
:1005B0000000000100010001000100010001000134
:1005C0000000000000000001000100010001000126
:1005D0000001000100010001000100010001000113
:1005E0000001000100010001000100010001000103
:1005F00000000001000100010001000100010001F4
:1006000000010001000100000000000100010001E4
:1006100000010001000100010000000000000001D5
:1006200000010001000100010001000100010001C2
:1006300000010001000100010001000100010001B2
:1006400000010001000100010000000100010001A3
:100650000001000100010001000100010001000093
:100660000000000100010001000100010001000183
:1006700000000000000000010001006203DF0E1214
:100680000F0000020002005E03DF0E120F000003E5
:100690000001006303DF0E120F0000040002004897
:1006A00003DF0E120F1C07050001006403DF0E12AA
:1006B0000F0000060002004A03DF0E120F000007C1
:1006C0000002006003DF0E120F0000080001006549
:1006D00003DF0E120F0000120002006603DF0E128D
:1006E0000F0000130002006803DF0E120F00001459
:1006F0000001006A03DF0E120F0000150000000069
:1007000000A206BF1600000660FF0961A101096290
:10071000150026FF00952075088102096315002643
:10072000FF00952075089102C005010906A1010589
:100730000719E029E7150025019508750181029543
:1007400001750881010507190029FF150026FF0022
:10075000950675088100050819012905950575019B
:100760009102950175039101C00902420002010046
:10077000A0FA090400000103010100092111010090
:10078000012240000705810308000109040100025D
:100790000300000009211101000122220007058247
:1007A00003200001070503032000011201000200DD
:1007B000000008464D11000100010203011C0376F0
:1007C00000690061006C003A006600360034006386
:1007D0000032006200330063000000100376006105
:1007E0000075006C007400330035000000180370C1
:1007F0000072006F006A00650063007400630061AE
:100800000069006E000000040309040000000000FD
:1008100000000000000000000000000000000000D8
:100820000000000000000000000000000000007E4A
:100830000F00D4FFFFFFC700000078000000000099
:100840000000002A2B28000000000000000000002B
:1008500000000000000029000000002C1E342021B0
:100860002224342627252E362D3738271E1F2021F7
:1008700022232425263333362E37381F0405060756
:1008800008090A0B0C0D0E0F101112131415161770
:1008900018191A1B1C1D2F3130232D35040506078E
:1008A00008090A0B0C0D0E0F101112131415161750
:1008B00018191A1B1C1D2F3130354C0011241FBE76
:1008C000CFEFDAE0DEBFCDBF04B603FE18C08091E3
:1008D0003D0490913E04A0913F04B09140048730C4
:1008E000904BA740B04B59F410923D0410923E0437
:1008F00010923F0410924004E0E0F8E3099511E003
:10090000A0E0B1E0ECEDFAE602C005900D92AE3643
:10091000B107D9F724E0AEE6B1E001C01D92AD33D6
:10092000B207E1F70E946A2C0C9448350C94000041
:10093000E8EDF0E080818E7F80831092E2001092DB
:10094000DA001092E100A0EEB0E08C9181608C930F
:1009500080818F77808319BCA7EDB0E08C918E7F6A
:100960008C9380818F7E808310922404089520913F
:10097000E4003091E50095E6A9012091EC00822F7A
:10098000817020FF06C08091E80080FF06C080E0F3
:1009900008952091E80022FD1AC080913104882337
:1009A00089F0853089F08091EB0085FD0FC02091A2
:1009B000E4003091E50042175307F9F29150E1F657
:1009C00084E0089582E0089583E0089581E0089529
:1009D000EF92FF920F931F93CF937C018B010E94A4
:1009E000B704C82F811117C08091E80085FD0BC0A6
:1009F0008091E8008E778093E8000E94B7048823F6
:100A000099F3C82F08C0F70181917F018093F1000D
:100A10000150110949F78C2FCF911F910F91FF9031
:100A2000EF9008958091330487FF13C08091E80010
:100A300082FF06C08091E8008B778093E80004C0B5
:100A4000809131048111F2CF08958091310488237F
:100A5000D9F38091E80080FFF8CF8091E8008E778D
:100A6000ECCF982F9093E900242F762F50E0891730
:100A700031F07091EC002091ED005091F00021FDDB
:100A800007C09F5F973071F78093E90081E0089578
:100A90003091EB003E7F3093EB003091ED003D7FD5
:100AA0003093ED003091EB0031603093EB007093A8
:100AB000EC002093ED005093F0002091EE0027FD14
:100AC000E0CF80E00895B0E0A0E0E9E6F5E00C9426
:100AD0007C34C8EDD0E088818F7E8883E7EDF0E03C
:100AE00080818160808384E082BF81E080932404E0
:100AF00088818E7F888302EE10E0F80110821092C8
:100B0000DA0081EEC82ED12CF601108288818F7711
:100B1000888388818068888388818F7D888319BCD9
:100B200010923104109232041092300410922F046B
:100B300090EEE92EF12CF70180818B7F80838881F4
:100B40008160888342E060E080E00E943105F60128
:100B500080818E7F8083F8018081816080838081A5
:100B600088608083F70180818E7F808388818061A7
:100B70008883CDB7DEB7E8E00C949834FC0180910F
:100B8000390490913A0486179707A0F06115710512
:100B900029F49091E8009E779093E80090E0611529
:100BA000710551F4911108C08091E80082FF34C0B2
:100BB00080E00895BC01F2CF809131048823C1F117
:100BC0008530C1F18091E80083FD30C08091E8005C
:100BD00082FDEACF8091E80080FFE1CF8091F300B1
:100BE0002091F200382F6115710519F02830310578
:100BF00058F091E02830310509F090E02091E800AC
:100C00002E772093E800CBCF81918093F100615043
:100C100071092F5F3F4FE7CF80913104882341F066
:100C2000853041F08091E80083FFBECF81E00895D8
:100C300082E0089583E00895089508950895089541
:100C400008958091260408959C014FB7F8948091EF
:100C5000200490912104A0912204B09123044FBF5D
:100C6000821B930B08952FB7F89460912004709124
:100C7000210480912204909123042FBF08952FB75F
:100C8000F8948091200490912104A0912204B091C5
:100C900023042FBF0895E0911D04F0911E043097A6
:100CA00029F00190F081E02D0995089580E00895E4
:100CB000452B39F0682381E06F3F09F080E08170B7
:100CC000089581E0FCCFDC0160911404809115044B
:100CD000962F891301C00895292F30E0F901EE0FF6
:100CE000FF1FE45FFB4F408151814A175B07A1F46E
:100CF00087E08A9FA0018B9F500D11244C525C4FBE
:100D000081E0FA0184839613E6CF2F5F3F4F237073
:100D100033272093140408952F5F3F4F922F937031
:100D2000D8CF1092710310927003E4EDF3E0858147
:100D3000811102C014821682379684E0EC30F807E5
:100D4000B1F70895B0E0A0E0E8EAF6E00C947A3458
:100D50008FEF9FEF4430510508F469C0409125039F
:100D600041FB882780F990E0880F991F42FB0027FC
:100D700000F910E0000F111F000F111F802B912BA5
:100D800040FBCC24C0F8D12C8C299D2943FB222781
:100D900020F9C22FE0E0DE2F53E0CC0FDD1F5A9583
:100DA000E1F78C2B9D2B44FBAA27A0F9B0E0E4E0EF
:100DB000AA0FBB1FEA95E1F78A2B9B2B45FBEE2779
:100DC000E0F9F0E0A5E0EE0FFF1FAA95E1F78E2B0A
:100DD0009F2B46FB222720F930E0B6E0220F331F7D
:100DE000BA95E1F7822B932B47FB222720F930E0BD
:100DF0003695322F222737952795822B932B2091DA
:100E00002603322F3170F32EE82EF92A2695217011
:100E1000B22EBB0CA82EBF28C501BB0CAA0BBB0B66
:100E2000FB0180839183A283B38390E080E0CDB700
:100E3000DEB7EAE00C949634809148039091490320
:100E400090931D0180931C010895E1E6F2E090E08B
:100E500080E06BE57AE242E85AE220ED39E27783FE
:100E600066835187408733872287958784870196D9
:100E70003E968830910599F7089581152CE59207E3
:100E800041F420911A0130911B01232B11F490E0C1
:100E900080E00895FA01811101C0FB0109950895D0
:100EA00080914A02982F9E7F29F4817082608093FE
:100EB0004A0208958A34E8F381708864F8CFAF92CB
:100EC000BF92DF92EF92FF920F931F93CF93DF9326
:100ED000082F162FE901E42FF0E0EE5EFC4F6111C0
:100EE00010C0E4915E2F4E2F4983E8835A83DF912F
:100EF000CF911F910F91FF90EF90DF90BF90AF9037
:100F00000895E62EF12C4491D42EE42FF0E026E053
:100F1000829FC00111242FEF30E0B9010E94EA3313
:100F2000802F90E0880F991F55E5569FD001579F5D
:100F3000B00D11248A1B9B0B982F990F890F590113
:100F4000AE18BF08AE9ED001AF9EB00DBE9EB00DD4
:100F500011245B2F189F80011124012F11275901A3
:100F6000A01AB10AAE9E8001AF9E100DBE9E100D5C
:100F700011245901A81AB108AE9CC001AF9C900D74
:100F8000BE9C900D1124892F9927281B390B2E9F69
:100F9000C0012F9F900D3E9F900D1124E92F6230CC
:100FA0007105A1F050F46115710509F49DCF613010
:100FB000710581F0EB2F512F97CF6430710569F0E7
:100FC00080F06630710509F48FCFF4CFE42F4B2FFA
:100FD000592F8ACFE42F412F87CFEB2F542F492F42
:100FE00083CF4B2F5D2DE12F7FCF80E00895F894C4
:100FF000E82FE295EF70F0E031A1282F2F7081E00B
:1010000090E001C0880F2A95EAF7982F90959323D6
:1010100091A392A1892B82A378940895909125039E
:1010200092FF06C0282F28712830F9F4877F84604A
:1010300093FF06C0282F28712831F1F4877E846140
:101040002091260320FF06C0382F38713830D9F49C
:10105000877F816021FF06C0282F28712831D1F4B5
:10106000877E816194FD877E0895282F2471243026
:10107000F9F68B7F8860DCCF282F2471243101F7AB
:101080008B7E8861DDCF382F3171313019F78E7F3B
:101090008860E0CF282F2171213121F78E7E886171
:1010A000E1CFCF93DF93EC018238910589F1E0F530
:1010B0008133910509F499C028F58932910509F425
:1010C00089C08A9709F498C0C11523E5D20708F0B2
:1010D000B3C0C11532E5D30708F010C1C11540E215
:1010E000D40708F097C0C11581E0D80758F5C53A74
:1010F000D10508F088C0C430D10520F5C130D10534
:1011000009F145C08533910509F45FC0C997E1F63F
:1011100080912503837009F026C18091260383FF07
:1011200011C0C9E2D0E00EC0833E910599F170F480
:10113000803E910501F1823E910531F680912503B3
:1011400082FD21C0CE01DF91CF910895863E9105A9
:1011500061F1873E910571F1843E910509F0B4CFAC
:101160008091260381FFEECF80912503C7EED0E06A
:1011700084FD0DC0E7CF8091250380FD33C09091A1
:10118000260390FFDFCFC3EED0E084FFDBCFD0E0BB
:10119000C0E0D8CF8091250382FDE2C09091260364
:1011A00090FDE1C084FFCECFF2CF8091250383FD77
:1011B000DDCFC8CF8091250383FDD8C09091260351
:1011C00091FFF0CFC4EED0E0BDCF8091250385FF25
:1011D000B9CFA7CF8091250385FDCBC08091260391
:1011E00083FFB0CFC9E3D0E0ADCF8091250386FF68
:1011F000A9CFCAE2D0E0A6CF8091250386FFA2CF77
:10120000C1E3D0E09FCFCE01815E9109079708F43A
:1012100099CFBDCFC11521E5D20708F06AC0C1152D
:1012200030E5D30708F050C0C11540E4D40708F4F6
:10123000AECFDF70D06A86CFC11586E5D807F0F44F
:10124000C11525E5D20708F072C0C11534E5D307F2
:1012500008F068C0CE018370992721E030E002C019
:10126000220F331F8A95E2F7C695C69540E2C49FC8
:10127000E0011124C22BD32BDA6864CFC1154AE5F3
:10128000D40778F4C11589E5D80708F05BC0C1150B
:1012900028E5D20708F47BCFDC2FCC27C06FD06ABB
:1012A00051CFCE0190568115904208F070CF8D2F0E
:1012B0008F710E940E0890E0982F882788279F71D1
:1012C0009C012C2BE9013CC02C2F269526952370E0
:1012D00040E2249F900111248C2F8370C1E0D0E064
:1012E00002C0CC0FDD1F8A95E2F7C22BD32BDD683D
:1012F00029CFDC2FCC27C16FD06A24CFCE018370D9
:10130000992721E030E002C0220F331F8A95E2F7CF
:10131000C695C69580E2C89FE0011124C22BD32B4D
:10132000DC6810CFDC2FCC27C46FD06A0BCF8C2F9A
:101330000E940E08C82FD0E0DC2FCC27CC27DF710D
:10134000D06200CF8C2F8F700E940E0834E0D695AB
:10135000C7953A95E1F7CF709C2FEC01D069F2CE9A
:10136000C2EED0E0EFCEC0EED0E0ECCEC6EED0E0E4
:10137000E9CEC5E3D0E0E6CE8091E901882331F0E3
:101380001092E9011092E8011092E7010895CF93BD
:10139000C82F8091260382FF0CC08091E9018C1731
:1013A00041F00E943F069093E8018093E701C093CB
:1013B000E901CF910895809590913C0498239093F2
:1013C0003C040895809590912703982390932703D8
:1013D000089590912703892B8093270308951092F5
:1013E000DE011092DD011092DC01089580914A0324
:1013F00090914B03892B89F00E943F062091E701D1
:101400003091E801AC01421B530B81E020914A036B
:1014100030914B034217530708F480E08170089520
:10142000E2E7F1E09191891303C0DF0111971C926B
:1014300091E0E837F907B1F70895A2E7B1E0EFEFDF
:1014400090E02D91821751F0EF3F19F4211101C066
:10145000E92F9F5F9630A9F7EF3F09F408950E2E0C
:10146000000CFF0BE059FE4F828308952091DB01B1
:1014700090919A01291302C080E0089530E0F901AB
:1014800053E0EE0FFF1F5A95E1F7E556FE4F5181ED
:10149000561306C05081581303C05281541304C020
:1014A0002F5F3F4F2770E6CF81E008958091DB01E9
:1014B00090919A01981301C008958F5F8770FACFB9
:1014C000292F943078F58B3068F590E03BE0239F2E
:1014D000800D911D1124682F677023E096958795E4
:1014E0002A95E1F7FC01EE0FFF1FE80FF91FE05806
:1014F000FE4F50E040E080E0219130E0062E02C037
:10150000369527950A94E2F721703327042E01C0FF
:10151000220F0A94EAF7822B4F5F5F4F4330510549
:1015200059F7089580E00895292F943098F58B306D
:1015300088F590E03BE0239F800D911D1124282F1A
:10154000277041E001C0440F2A95EAF723E0969501
:1015500087952A95E1F7FC01EE0FFF1FE80FF91FB1
:10156000E058FE4F30E020E070E05191DF0111972C
:10157000CB01022E02C0969587950A94E2F78170FE
:1015800081958527842385278C932F5F3F4F2330B8
:10159000310559F7089592959F70963091F058F45F
:1015A000925F9F70923058F4803F19F030F4883E7B
:1015B00030F481E008959A5FF4CF843FD1F380E066
:1015C0000895883EB0F3813FD1F7F3CF9C013A955F
:1015D00021153F4150F5FC01EE27F170BC01662753
:1015E0007270AC01442754709C012227387094FF1C
:1015F0000EC080E1EF2B09F480E0672B09F08062D8
:10160000452B09F08064232B89F08068089581E0E0
:10161000EF2B09F480E0672B09F08260452B09F07D
:101620008460232B19F08860089580E00895CF939B
:10163000DF93EC0181E08093E9008FEF9091E80067
:10164000815095FD06C095ED9A95F1F70000811146
:10165000F5CF8091E80085FF14C050E040E068E0DD
:1016600070E0CE010E94E8048091E8008E778093BC
:10167000E80088E0FE01A7E2B4E001900D928A95AF
:10168000E1F7DF91CF91089581E08093E00080E25F
:101690008093D8001092C9008FE19EE40197F1F782
:1016A00000C0000087E090EBDC0180933D04909344
:1016B0003E04A0933F04B093400488E19CE00FB641
:1016C000F894A895809360000FBE90936000FFCFC0
:1016D000019708F40895EFE9FFE03197F1F700C0B2
:1016E0000000F6CF80914A0280FD0AC0E6E2F2E0F7
:1016F000118210821282339652E0EA34F507C1F764
:10170000559A3BB13F7D2BB120624FB7F89486E2EA
:1017100092E0FC015191CF0168E02BB9000000C0BC
:1017200057FF3BB9550F000000C000C000C03BB9D7
:1017300000C06A9591F7F2E08A349F0751F74FBFD6
:101740008FE594E00197F1F700C000000895EF9253
:10175000FF920F931F93CF93DF938C01C6E2D2E0E9
:10176000F12CE12CF801948160914C0280914B02A4
:10177000F6E0EF16F104ECF49923E9F09E014091B4
:101780004D020E945F072FEFE21AF20A23968CE0C7
:10179000E816F10439F70E94720BF801848190E099
:1017A0000196817099278483CDB7DEB7E6E00C946B
:1017B0009A34992319F39E0140E0E3CFB0E0A0E012
:1017C000E4EEFBE00C947834EC014C81042F10E043
:1017D0009801D8010E9449349B01AC010E945F34FA
:1017E0004B015C01E0E2F0E0E01BF10BA5E5B0E0AD
:1017F000AC019B010E945F346B017C019F01DF0102
:101800000E9441349B01AC010E946A349B01AC01EF
:10181000280D391D4A1D5B1DC701B6010E941234F7
:10182000F22E822F90E039E23F1598F143E0249F99
:101830009001112435952795122F109596E2C92E07
:1018400092E0D92E00E085E5E82EEF188E2D01FDFF
:101850008F2D9601412F60914C020E945F070F5F10
:1018600053E0C50ED11C0C3089F70E94720B9C818D
:1018700081E0992319F0903219F48FEF80931901C8
:1018800080911901890F8C83CDB7DEB7ECE00C9401
:10189000943425E530E0A901481B590BCA019A018F
:1018A000220F331F280F391F37FFC4CF2F5F3F4F41
:1018B000C1CF0F931F93CF93DF93C6E2D2E0FE0117
:1018C000118210821282339682E0EA34F807C1F75F
:1018D00010E000E080912402082E000C990B0817FC
:1018E00019078CF180911801082E000C990B8017B4
:1018F00091074CF19E0140914D0260914C02809104
:101900004B020E945F070F5F1F4F23960C3011059B
:1019100009F70E94720B8091170190912402980F91
:101920009093240220911801280F20931801121679
:1019300014F49B301CF0819580931701DF91CF91B7
:101940001F910F910895198218821A82DCCFB0E09E
:10195000A0E0EDEAFCE00C947B34FC018281DD2404
:10196000DA9480FD02C0DD24D39406E212E0D0E0D8
:10197000C0E02CE0B22EF80111821082128294E0B5
:10198000E92EF12CC12C809123028C0D8D30C4F1F5
:101990006B2D0E94DC33892F082E000C990B8C17BD
:1019A0009D0791F480914D028E9DA0018F9D500D59
:1019B00011245595479555954795980160914C028E
:1019C00080914B020E945F07CD0CF1E0EF1AF10805
:1019D000D1F621960D5F1F4FCC30D10561F60E94E4
:1019E000720B8091230291E0D91210C081110CC0BA
:1019F0008BE080932302CDB7DEB7E9E00C949734F7
:101A000087FFCACF845FC8CF8150F3CF90E00196A3
:101A1000BE010E94FE33EDCFEF92FF921F93CF9352
:101A2000DF93EC0186E2E82E82E0F82E10E08C8154
:101A3000970140914D0260914C02810F0E945F0717
:101A40001B5E83E0E80EF11C1C3F89F70E94720BBD
:101A50009A818C8190FF08C08F5F8C83DF91CF913A
:101A60001F91FF90EF9008958150F7CF90914A0217
:101A700090FF0CC0E6E2F2E08183608342833396FC
:101A800092E0EA34F907C1F70E94720B0895A3E0CF
:101A9000B0E0EDE4FDE00C9480348C0180912502EF
:101AA00081110AC09E012F5F3F4F4FEF6FEF0E94E1
:101AB0005F078A8180932502F8016481613069F0B3
:101AC0008091250240E0662361F040E0623011F42D
:101AD0004091250280E060E004C06091250240E072
:101AE00080E00E94360DF801848190E0019663E069
:101AF00070E00E94FE3384832396E4E00C949C34CF
:101B0000A3E0B0E0E6E8FDE00C94823490914A0254
:101B100090FF0AC09E012F5F3F4F0E945F074B81DD
:101B200069818A810E94360D2396E2E00C949E34EE
:101B3000CF93DF93EC01EAE4F2E0438162818C8190
:101B40000E94800D8C818F5F8C83DF91CF910895EF
:101B5000CF93DF93EC01EC81F0E0E95EFB4F449121
:101B6000EAE4F2E0628181810E94800D8C818F5FC6
:101B70008C83DF91CF9108950F931F93CF93DF93C1
:101B800008E413E0C7E9D1E0CE010E94F834F8017F
:101B900081938F012196CB3BF1E0DF07A9F7C1E8E4
:101BA000D6E0FE0185919491009711F0FC01099512
:101BB0002C96F7E0C131DF07A1F7DF91CF911F919C
:101BC0000F9108950F931F93CF93DF93843030F5D7
:101BD000643020F54B3010F5C42FD0E0CC0FDD1F62
:101BE00026E1629FC00DD11D112438E5839FC00DF1
:101BF000D11D1124CE0187960E94F834082F10E0E1
:101C0000102F0027CE0188960E94F8349801282BC7
:101C1000C901DF91CF911F910F91089590E080E06D
:101C2000F8CF462F2091230330912403232B99F4DE
:101C3000703F39F4603F79F4809121039091220341
:101C40000895843040F4743030F46B3020F4672F02
:101C50000E94E20D089590E080E00895CF92DF9217
:101C6000FF920F931F93CF93DF936C0100913B047E
:101C70008091EA01082BC7E0D0E010E0FC2EC801FB
:101C80000C2E02C0959587950A94E2F780FD0CC052
:101C90002197A0F7F12C8F2DDF91CF911F910F91FC
:101CA000FF90DF90CF900895B6018C2F0E94110E07
:101CB0000E945108019761F3EECFCF93DF93EC01BF
:101CC0000E942E0EBE010E94110E0E945108DF914B
:101CD000CF910895CF93DF93EC014B815C816981B3
:101CE00088810E945806811110C08E819F810097C3
:101CF00039F00E9451080E94CB0ADF91CF910895DC
:101D0000888199810E945D0EF6CF80E0F6CFA5E034
:101D1000B0E0EDE8FEE00C94813449835A83898178
:101D20009A81662399F0222389F00E942E0E182FA3
:101D3000682F89819A810E94940A69817A81812F12
:101D40000E94110E2596E3E00C949D340E94600AD7
:101D5000182FF3CFFC01262F86819781009739F445
:101D6000408151816281738184810E94870E089530
:101D700083E290E00E94F8348E3A89F484E290E0A5
:101D80000E94F834883659F485E290E00E94F834D5
:101D900091E0843109F090E0892F8170089580E00E
:101DA000FCCFCF9384E090E00E94F834C82F82E209
:101DB00090E00E94F834982F8C2FCF910895DB018A
:101DC000FC013296259134914217530758F0FC01DB
:101DD000349665917491A901CD010E94D83490E0A8
:101DE00080E008958FEF9FEF08950F931F93CF9397
:101DF000DF9308E413E0C7E9D1E0CE010E94F83494
:101E0000F80161918F01681719F0CE010E940C351D
:101E10002196CB3BF1E0DF0781F7DF91CF911F9156
:101E20000F910895DA019C012E5F3F4FF901459112
:101E30005491F90125913491A217B30758F0FC0190
:101E40003496859194910E94D8340E94F50E90E0CA
:101E500080E008958FEF9FEF0895CF93DF93CBE558
:101E6000D2E060E0CE010E940C352196C11584E0DD
:101E7000D807B9F7DF91CF9108951F93CF93DF93E0
:101E8000122F8430E0F46430D0F44B30C0F4C42F0F
:101E9000D0E0CC0FDD1F96E1699FC00DD11D11244C
:101EA00098E5899FC00DD11D1124632FCE0187961F
:101EB0000E940C35612FCE0188960E940C35DF916F
:101EC000CF911F910895CF93C82F6FEF81116EEAC4
:101ED00083E290E00E940C356FEFC11168E684E266
:101EE00090E00E940C356FEFC11164E185E290E053
:101EF0000E940C35CF910895CF93C92F682F84E0AD
:101F000090E00E940C356C2F82E290E00E940C352C
:101F1000CF9108959B01883070F49AE0899FB001B9
:101F2000112465547E4F4AE050E0C9010E94E83414
:101F300090E080E008958FEF9FEF0895AAE0B0E071
:101F4000E4EAFFE00C9482349C0137552F3F3105C1
:101F500009F068F4BE016F5F7F4F0E948A0F892BE2
:101F600031F489859A852A96E2E00C949E3480911A
:101F7000600390916103F7CFAAE0B0E0E2ECFFE0EC
:101F80000C947C34E1EDF2E080E5DF011D928A954E
:101F9000E9F7E4EDF3E088E3DF011D928A95E9F7C4
:101FA00081EDC82E82E0D82E7F010BE012E0F70110
:101FB000D182C0824AE050E0B801CE0101960E9471
:101FC000E83488E0FE013196D60101900D928A95A1
:101FD000E1F789859A85D70113969C938E93129782
:101FE000BAE0CB0ED11CE7E0EE0EF11C065F1F4FEE
:101FF0000B35F2E01F07D9F62A96E8E00C949834E6
:10200000CF92DF92EF92FF926B017C010E9450070A
:10201000B701A60188E090E00E941E35FF90EF9086
:10202000DF90CF900895A3E0B0E0E9E1F0E10C94F7
:102030007534F82E762EE42E622E90914A0290FF8F
:1020400029C0E92FE695AE2FB0E0A85BBE4F8C917A
:10205000809321029E7F923009F59E012F5F3F4FB2
:102060008F2D0E945F074B8169818A810E94360D06
:10207000F0924B0270924C02E0924D02662051F0B9
:1020800060914A0270914B0280914C0290914D02F6
:102090000E9400102396EFE00C949134823019F4E2
:1020A000E0904D02E5CF863019F4F0904B02E0CF7E
:1020B0008930D9F38931E1F6E9518E2F8170582E9C
:1020C000E695F0E0EE5EFB4FE4910E2F10E086E225
:1020D000C82E82E0D82EB12CA12C9CE0892E912C08
:1020E000C501B4010E94EA338F2D511013C0860F31
:1020F00096014E2D672D0E945F07A00EB11E83E052
:10210000C80ED11C8AE4C81682E0D80649F70E949E
:10211000720BAECF861BECCFEAE4F2E0438121E103
:10212000421B08F440E021E0628181810E9413108B
:102130000895EAE4F2E0438121E1420F08F44FEF11
:1021400021E0628181810E9413100895EAE4F2E0A7
:10215000628121E1621B08F460E021E0438181811A
:102160000E9413100895EAE4F2E0628121E1620F17
:1021700008F46FEF21E0438181810E9413100895DC
:10218000EAE4F2E0818121E04381628188500E948B
:1021900013100895EAE4F2E0818121E04381628135
:1021A000885F0E941310089580914E02882319F0D1
:1021B000815080934E0260914A0270914B0280914F
:1021C0004C0290914D020E940010089580914E02A1
:1021D000833018F48F5F80934E0260914A027091B1
:1021E0004B0280914C0290914D020E940010089584
:1021F00090914A0290FF2CC0917081112AC0926088
:1022000090934A02662351F060914A0270914B020A
:1022100080914C0290914D020E94001060914A0200
:10222000669570E04BE050E08CE091E00E94BE3497
:10223000892BB1F01092220281E080931E0220E0EF
:1022400040914D0260914C0280914B020E9413100C
:102250000895853210F09864D3CF880F982BD0CF93
:1022600081E0809322020E943F0690931C0280939B
:102270001B02E2CF80914A028695815009F484E2E4
:1022800061E00E94F810089580914A0286958F5F60
:10229000853208F081E061E00E94F8100895909185
:1022A0004A0290FF08C09695981728F0961718F4E0
:1022B0000E944411089561E00E94F8100895EAE434
:1022C000F2E083E0808311828FEF82838383148224
:1022D00060817181828193810E9400100895A8E03D
:1022E000B0E0E5E7F1E10C9478348E010F5F1F4F09
:1022F00088E0F80111928A95E9F799E2E92E91E0D8
:10230000F92E6801AA24A394B12CF70181917F01D1
:102310008F3F09F446C0F894E82FE295EF70F0E0A3
:1023200021A18F70A50102C0440F551F8A95E2F7C5
:10233000CA01922F982B91A392A18095892382A301
:10234000789400C0EDE2F1E021E030E0912C812CA6
:1023500041914F3F09F467C0A42FA295AF70B0E040
:1023600090968C9190E04F7002C0959587954A9514
:10237000E2F780FD58C0C901882A992A220F331F2D
:1023800051E0E833F50721F7F701319780818F3F5E
:1023900011F00E94F70780EA8A95F1F7F601918221
:1023A0008082F2E0CF0ED11C4DE2E41641E0F4064B
:1023B00009F0ABCF48E050E0B8018EEE91E00E940A
:1023C000CB34892B99F188E0F801AEEEB1E00190B1
:1023D0000D928A95E1F781E08093ED010E943F061E
:1023E0009093EC018093EB018091EB019091EC01D3
:1023F0000E9424060597F0F048E050E06EEE71E090
:1024000083E192E00E94CB34892BC9F088E0EEEEA4
:10241000F1E0A3E1B2E001900D928A95E1F781E04D
:102420001092ED0108C090E080E0A6CF8091ED0110
:102430008111DACF80E02896ECE00C94943480E0AF
:10244000EFCF8091270390913C04892B80937001FA
:102450008091E901882309F180914A0390914B030F
:10246000892B29F00E94F60981110E94BC098091F4
:1024700070019091E901892B8093700120E082E73F
:1024800091E0FC013191CF0131112F5FF1E08837EC
:102490009F07B9F721110E94BC0948E050E06FED99
:1024A00071E080E791E00E94CB34892BA9F088E0AD
:1024B000E0E7F1E0AFEDB1E001900D928A95E1F730
:1024C000E0911D04F0911E04309731F00280F381F9
:1024D000E02D80E791E009950895CF93DF93EC011B
:1024E000EA85FB85309719F06C857D8509958B8190
:1024F0000E94DB098C810E94E2090E94211286E081
:10250000FE0111928A95E9F7DF91CF910895CF935B
:10251000DF93EC018D8181FD15C082608D838091F8
:102520003C049B81892B80933C048C810E94E909A7
:102530000E942112E885F985309721F06C857D8510
:10254000CE01099510921C0410921B048D8180FD10
:1025500003C0CE010E946D12DF91CF91089580914A
:102560001E01877F80931E0182E00E94DB0980911B
:102570001E0184FF06C08F7E80931E0182E00E94B0
:10258000E90980911E0185FF06C08F7D80931E01A1
:1025900080E20E94E9090E94211208951092270307
:1025A000E2E7F1E086E0DF011D928A95E9F71092FB
:1025B0003C040E9421120895AAE2B0E0E2EEF2E1AA
:1025C0000C94813483E394E02091F100FC01219389
:1025D000CF01F4E08B339F07B9F780913404833047
:1025E00009F470C0B8F4813009F447C0823009F4AE
:1025F000B1C08091E80083FF91C280913304909133
:1026000034049A3008F08AC2E92FF0E0E65BFA4C15
:102610000C9434348A3009F48CC08B3009F46FC0C8
:10262000893039F780913304813219F7809137046A
:1026300090913804892BE9F68091E800877F809398
:10264000E8008091E80082FF38C09091F30080910B
:10265000F200029731F48091F100813011F0863060
:1026600021F48091F100809326048091E8008B771B
:102670008093E8000E941205BCCF80913304813A18
:1026800009F0B7CF8091E800877F8093E8008091C0
:10269000370490913804892B61F468E087E294E074
:1026A00070E00E94BE058091E8008B778093E8007F
:1026B000A0CF60E090E080E0F3CF80913104811101
:1026C000C0CF97CF80913304813A09F092CF8091A7
:1026D000370490913804892B09F08BCF8091E80062
:1026E000877F8093E8008091E80080FFFCCF809195
:1026F00020018093F1008091E8008E77B9CF80911E
:102700003304813209F075CF8091370490913804F9
:10271000892B09F06ECF8091E800877F8093E800D5
:102720000E94120580913504809320010E94CE12F0
:1027300060CF80913304813209F05BCF8091E80053
:10274000877F8093E8000E94120580913604809371
:1027500025044FCF80913304813A09F04ACF80910C
:10276000E800877F8093E8008091E80080FFFCCF3D
:1027700080912504BECF803899F0823809F0CEC10F
:10278000809137048F70873008F0C8C18093E900CA
:102790008091EB0085FB882780F91092E90006C044
:1027A00080912F0490913004911182609091E80003
:1027B000977F9093E8008093F1001092F100809150
:1027C000E8008E77A7C1882309F495C1823009F00B
:1027D000A5C180913504811198C1809137048F7013
:1027E0002FEF280F263008F099C18093E90020913F
:1027F000EB0020FF8AC1933031F48091EB008062BE
:102800008093EB0082C19091EB0090619093EB007C
:1028100021E030E001C0220F8A95EAF72093EA0018
:102820001092EA008091EB008860EACF811176C1B6
:10283000109135041F778091E3008078812B80937D
:10284000E3008091E800877F8093E8000E941205F2
:102850008091E80080FFFCCF8091E3008068809346
:10286000E30082E0111183E08093310457C1805866
:10287000823008F053C120913504309136042C3D4C
:1028800083E03807A1F583E08A838AE289834FB722
:10289000F894DE01139620E03EE051E2E32FF0E0F1
:1028A00050935700E49120FF03C0E295EF703F5F23
:1028B000EF708E2F90E0EA30C0F0C7968D939D9315
:1028C0002F5F243159F74FBF8091E800877F8093B5
:1028D000E8006AE270E0CE0101960E94BE05809198
:1028E000E8008B778093E80019C1C096E7CF40914C
:1028F000370450913804832F99278330910501F1D3
:1029000060F48130910509F47EC0029709F006C198
:1029100082E490E0E9E6F7E035C08132910509F400
:1029200066C08232910509F0F9C04115510509F4DC
:1029300074C04130510509F0F1C0E7E0F7E022C072
:1029400033272130310509F442C02115310581F0CA
:102950002230310509F443C02330310509F0DEC0CF
:10296000EDEBF7E0E4918E2F90E0EDEBF7E007C0A0
:10297000E7E0F8E0E4918E2F90E0E7E0F8E00097E0
:1029800009F4CCC02091E800277F2093E800209133
:10299000390430913A048217930708F49C0140E00F
:1029A0002115310509F03EC041113CC08091E8007D
:1029B00082FD95CF80913104882309F490CF853032
:1029C00009F48DCF8091E80083FFF0CF88CFEDEE42
:1029D000F7E0E4918E2F90E0EDEEF7E0D0CFEBED55
:1029E000F7E0E4918E2F90E0EBEDF7E0C8CF4115D2
:1029F000510571F04130510509F090C089E090E037
:102A0000E4E9F7E0BFCF82E190E0EBEAF7E0BACF8C
:102A100089E090E0EBE7F7E0B5CF80E490E0E9E211
:102A2000F7E0B0CF80913104882309F458CF853086
:102A300009F455CF8091E80083FD51CF8091E800E3
:102A400082FDB4CF8091E80080FFAACF9091F3007F
:102A50008091F2002115310519F08830910550F070
:102A600041E0089709F040E08091E8008E7780937C
:102A7000E80096CF44914093F100319621503109FE
:102A80000196E8CF803809F049C08091E800877F3F
:102A90008093E800809132048093F10090CE811100
:102AA0003DC0109135041230C8F58091E800877F51
:102AB0008093E800109332040E941205112311F054
:102AC00084E005C08091E30087FDFACF81E0809328
:102AD000310442E061EC81E00E94310542E261ECA8
:102AE00082E00E94310542E260EC83E00E94310501
:102AF0008091310413C080913504813079F481E0F4
:102B0000933009F080E0809330041092E9008091C6
:102B1000E800877F8093E8000E9412058091E8001A
:102B200083FF0AC08091E800877F8093E80080914E
:102B3000EB0080628093EB00AA96E3E00C949D3456
:102B4000E8E4F3E0128E138E8FEA90E091838083A5
:102B500085E0848F28E833E13383228322E330E069
:102B6000378B268B28EC30E0318F208F158E178E17
:102B7000168E20E530E031A320A382A30E94F50E3B
:102B80000E94CE121092260310922503E6E2F3E093
:102B900080818460808380912503909126030E9428
:102BA0007C0F0E94BC0D0895A4E1B0E0EAEDF5E1D0
:102BB0000C947734A0901A01B0901B0181E090E052
:102BC00090931B0180931A0187E1C82E85E0D82ECF
:102BD00000E0760110E015C0F40125913491472DF5
:102BE000612F802F0E943D0F82E0880E911C73940C
:102BF000EBE07E12F1CFF6E1EF0EF11C1F5F143017
:102C000019F04701712CE8CF0F5F88E5C80ED11C81
:102C10000430F9F60E94A0151A8219821C821B82C8
:102C20001E821D8218861F8288EC90E09A87898711
:102C30000BEB11E04AE050E0B801CE0101960E9492
:102C40003035065F1F4F0B30E2E01E0799F77E011B
:102C5000FBE0EF0EF11C8AE0F70111928A95E9F78B
:102C60004AE050E0B801C7010E943035065F1F4FAF
:102C70000B35F2E01F07A1F7B0921B01A0921A01D9
:102C80006496EDE00C94933480E00E94630F60E062
:102C900086E290E00E940C350E94D4150E942D0F10
:102CA00081E00E94630F089568EE7EEF90E080E07F
:102CB0000E942A3560E082E090E00E940C3560E0DE
:102CC00083E090E00E940C351092EA0160E084E01D
:102CD00090E00E940C3564E082E290E00E940C35A6
:102CE00060E085E090E00E940C3560E086E090E0D6
:102CF0000E940C356FEF87E090E00E940C3540E0B9
:102D000050E0BA0188E090E00E941E3560E08DE05E
:102D100090E00E940C3540E050E0BA0188E190E07C
:102D20000E941E3560E087E190E00E940C3540E093
:102D300050E0BA018CE190E00E941E3570E060E046
:102D400080E290E00E942A3540E050E0BA0188E13C
:102D500090E00E941E3580E00E94630F0E9444169E
:102D600040E050E0BA018FE090E00E941E3540E064
:102D700050E0BA0183E190E00E941E350895CF92A1
:102D8000DF92EF92FF928FEF9FEF4430510508F4EE
:102D90006AC0FB01C080D180E280F3800E94CE1225
:102DA00080912503C0FA80F9B701A6017695679551
:102DB0005795479540FB81F9B701A60122E076952A
:102DC0006795579547952A95D1F740FB82F9B7014A
:102DD000A60133E076956795579547953A95D1F7D3
:102DE00040FB83F9B701A601E4E076956795579516
:102DF0004795EA95D1F740FB84F9B701A601F5E0C4
:102E00007695679557954795FA95D1F740FB85F9E3
:102E1000B701A601A6E07695679557954795AA95BF
:102E2000D1F740FB86F9B701A601B7E07695679523
:102E300057954795BA95D1F740FB87F980932503BD
:102E400080912603D0FA80F9D1FACC24C0F8C0FAD8
:102E500081F98093260380912503909126030E9497
:102E60007C0F90E080E0FF90EF90DF90CF9008958E
:102E70000E94CE122FEF84E39CE0215080409040CE
:102E8000E1F700C0000088E19CE00FB6F894A89537
:102E9000809360000FBE90936000FFCF80933B044F
:102EA00010923C040E942112089580913B04982FB7
:102EB0009670963021F488600E944E170895877F9F
:102EC000FBCF21E030E001C0220F8A95EAF7209580
:102ED00080913B0482230E944E1708959091DE0159
:102EE000809589238093DE01282F277091F4282F65
:102EF000082E000C330B9217130659F090912603FD
:102F000092FF07C08595859585950E9461170E945F
:102F1000EF0908959091260392FB222720F92817A4
:102F200069F080FB92F9909326038091250390919C
:102F300026030E947C0F82E00E946E17089521E014
:102F400030E001C0220F8A95EAF780913B04822B82
:102F50000E944E1708959091260392FF10C098E0AA
:102F6000899F90011124622B6093DE010E949F17BC
:102F70000E943F069093DD018093DC0108950E943A
:102F80009F1708958093EA0110923C040E94211239
:102F90000895882321F00E94DB090E9421120895E0
:102FA000882339F090913C04982B90933C040E9424
:102FB00021120895882321F00E94E2090E94211223
:102FC0000895882321F00E94E9090E9421120895A2
:102FD000882309F457C0823879F40E944B0681FF98
:102FE00051C089E30E941D0A0E94211289E30E94B8
:102FF000100A0E9421120895833859F40E944B064A
:1030000080FF40C083E50E941D0A0E94211283E5D3
:10301000EECF843859F40E944B0682FF33C087E418
:103020000E941D0A0E94211287E4E1CF9CEF980FB5
:10303000913AE8F290E2980F983050F4877091E05E
:1030400001C0990F8A95EAF7892F0E94E209D1CF32
:103050009BE5980F9330B8F480917C0190917D01AD
:10306000892B81F010927D0110927C01E0911D046A
:10307000F0911E04309731F00680F781E02D90E04A
:1030800080E009950895885A8731E0F780917E01A4
:1030900090917F01892BB1F310927F0110927E01F4
:1030A000E0911D04F0911E04309761F30084F185D6
:1030B000E02DE5CFCF93DF93EC010E94E817CE011E
:1030C0000E94E60A9E01205E31092830310510F089
:1030D000CD2B29F40E94DA17DF91CF9108950E9439
:1030E000C917FACFCF93C82F8823C9F08238C9F403
:1030F0000E944B0681FD13C089E30E941D0A0E94B5
:1031000021122FEF87EE93E0215080409040E1F7AD
:1031100000C0000089E30E94100A0E942112CF9192
:1031200008958338A1F40E944B0680FDF8CF83E513
:103130000E941D0A0E9421122FEF81EE94E021507F
:1031400080409040E1F700C0000083E5E4CF843880
:10315000A1F40E944B0682FDE2CF87E40E941D0A83
:103160000E9421122FEF81EE94E021508040904088
:10317000E1F700C0000087E4CECF8CEF8C0F813ADE
:1031800068F4E2E7F1E08191C817B1F021E0E83797
:10319000F207C9F78C2F0E941D0ABFCF80E28C0F67
:1031A000883008F0BCCFC77081E001C0880FCA9595
:1031B000EAF70E94E909B1CF8C2F0E94100A0E9401
:1031C0002112E8CF1F93CF93DF93182FC09168038C
:1031D000D0916903893321F0C0916603D0916703D0
:1031E000812F0E947218209739F4812F0E94E817CE
:1031F000DF91CF911F9108958FE99FE00197F1F73B
:1032000000C000002197EFCFB0E0A0E0EAE0F9E1D4
:103210000C947A34EC018AE0A82E2881222309F448
:103220008FC02130C9F599818A81913021F422968D
:103230000E94E21805C0923029F422960E9472186A
:103240002196EBCF933021F422960E94E817F8CF15
:10325000943011F02196F4CF229630E020E0AE01B8
:103260004F5F5F4F8053990B8A30910550F021508A
:10327000310930F38FE99FE00197F1F700C00000BA
:10328000F6CFA29EB001A39E700D11249C01260FC3
:10329000371F8981EA01E3CFE22FF0E0E55CF74FC9
:1032A000B490822F86958695869590E0FC01E55D29
:1032B000F74FE4902770F12C022E02C0F594E794AA
:1032C0000A94E2F731E0E322FF24FC01E55EF74FC8
:1032D000C490D12C022E02C0D594C7940A94E2F770
:1032E00031E0C322DD24FC01E55FF74F049110E0DB
:1032F00002C0159507952A95E2F701701127E11490
:10330000F10419F081EE0E947218C114D10419F071
:1033100086EE0E9472188B2D0E94E218C114D1040F
:1033200019F086EE0E94E817E114F10419F081EE1D
:103330000E94E8170115110509F482CF8CE278CFBD
:10334000CDB7DEB7EAE00C949634B0E0A0E0EBEA4B
:10335000F9E10C947A347C015B01C42FD22FFC017B
:1033600082818823A9F040931A040E943F0690931B
:10337000190480931804C77081E001C0880FCA95B2
:10338000EAF70E94E117CDB7DEB7EAE00C94963475
:1033900010911A04141338C08091180490911904E4
:1033A0000E9424066C01B701C5010E949E0FC81639
:1033B000D90650F5C0E2CD0F1D17C1F080E2810F94
:1033C000883048F4177081E0012E01C0880F0A94FC
:1033D000EAF70E94DA17C83048F481E09D2F977011
:1033E00001C0880F9A95EAF70E94E117802F0E948A
:1033F000E218C83040F6D77081E001C0880FDA9536
:10340000EAF70E94DA17BFCFC77081E001C0880FCA
:10341000CA95EAF7F6CFCF93DF93EC010E94E60A54
:103420009E01205E31092830310510F0209741F4CB
:103430000E94E1178C2F0E947218DF91CF9108959E
:103440000E94D017F7CF662329F020913C04226018
:1034500020933C049C013056211540E2340720F0B3
:10346000305E2115304108F499270E940B1A089507
:10347000B0E0A0E0EEE3FAE10C947D347C018B0136
:10348000D42E80911E0182FF8CC0C0916E03D0911A
:103490006F03CE15DF0521F0E114F10409F081C0BE
:1034A00080911E018B7F80931E0181FD73C08091EE
:1034B0006C0390916D03A801481B590B81E020918A
:1034C0001C0130911D014217530708F480E0817000
:1034D000F82E80911E01F0FA81F980931E01FE0101
:1034E00083E0F695E7958A95E1F7EE71FF27E85DB1
:1034F000FC4F20813181AE014F70552781E090E073
:1035000002C0880F991F4A95E2F7FF2009F444C0D2
:10351000822B932B918380838091270381FF08C0A6
:1035200080911E01806180931E0182E00E94E20969
:103530008091270385FF08C080911E0180628093DF
:103540001E0180E20E94E2096F2DCE010E94231A23
:10355000DD2031F08091630385FF02C086FF3BC010
:1035600080916603909167030E94680B80916E03BF
:1035700090916F039C013056211540E2340720F0F2
:10358000305E2115304108F499270E945A180E9494
:10359000AF121DC081E09BCF80959095822393232D
:1035A000B9CFC701992797013056211540E234075A
:1035B00028F0305E2115304108F0C7010E945A18EA
:1035C00080916E0390916F038E159F0501F3109308
:1035D0006D0300936C03CDB7DEB7E7E00C9499342C
:1035E000A4E0B0E0E6EFFAE10C9479347C01DC0170
:1035F00013964D915C91149711966C9111978C9143
:103600000E9458068111EEC061E0C7010E94AA0E17
:103610008C01F70182818823E1F080911B04909155
:103620001C040097B1F00817190799F0FEE08F9F6E
:10363000C0011124FC01EA59FD4F20812460208340
:103640008F599D4FDC010D931C930E94871210929D
:103650003C04F7018281882311F40C945D239801C6
:1036600022513F452031310508F098C78FEF93E094
:103670000E94F8348111A6C06EEED62ED00E0BE556
:1036800012E0D11036C019821A821B821C82992442
:103690009A9468012FEFC21AD20AC8010E94F83426
:1036A00089831A82882309F48DC0813009F07FC094
:1036B000580132E0A30EB11CC6010E94F834C82E96
:1036C0008A83882309F47EC0C5010E94F834D82E6D
:1036D0008FEF8C0D8330D8F4580143E0A40EB11C59
:1036E000DB82DD2021F0CE0101960E9404198501C4
:1036F000D0CF0115F4E01F0709F464C0C8010E948F
:10370000F834811101C0DA940F5F1F4FBACF8BEFED
:103710008C0D833030F5C8010396DB825C01DD201F
:1037200031F3580154E0A50EB11C0E94F8348C838B
:103730008823E9F28B819C818130AFEF9A0710F0EA
:10374000982F8827B6E0CB1631F0E7E0CE1631F09F
:103750000E944A2ACCCF0E94242AC9CF0E94AB29BA
:10376000C6CFF4E0CF12C3CF580124E0A20EB11CA3
:10377000C80103960E94F834DD2021F1882311F15D
:103780008150990B989E9001999E300D11244D2DDA
:103790004150550BCA01820F931F019708F4A7CF20
:1037A000AFE9BFE01197F1F700C00000F6CFCE01FE
:1037B00001960E94041956019ACF81E00E949F173A
:1037C0000E9455178091DE01877061F0D701129633
:1037D0008C91882339F08091260382FF03C082E018
:1037E0000E946E172496EBE00C94953481E00E94C1
:1037F0006117E6CF82E0E2CF823009F010C78091F6
:103800005B0290915C02892B09F409C72EE02C9D84
:10381000C0012D9D900D1124FC01EA59FD4F20811E
:103820002E7F20838F599D4F0E948712F8C62FEF5D
:10383000C216D10409F008F4F2C68091630380FF38
:1038400039C00E943F066C01D70112968C918823E3
:1038500009F468C080911E0182FF08C024E032E0B4
:1038600040E0B60190E080E00E94381A0B31BCE5E0
:103870001B0709F449C00C31ECE51E0709F44AC0E6
:1038800090911E01892F8E7F90FF81600A31FCE5A7
:103890001F0709F442C0C8019056811520E2920723
:1038A00028F0905E8115904108F04AC010926F0395
:1038B00010926E03033FBCE51B0709F494C108F0A6
:1038C00036C1083DFCE51F0709F487C1093D2CE519
:1038D000120709F4A0C1073D3CE5130709F033C105
:1038E00006E221EE41EE67ED7CE5C7010E94A519D5
:1038F00069CF902F812FDCC6F601858181FF9DCF96
:10390000C6010E946D1299CF80911E018160809343
:103910001E01C1CF80911E018E7F80931E010E94E7
:10392000AF12B9CF80911E018F7E013E110531F09B
:10393000053E1105C9F480911E018F7D80931E0103
:1039400080911E0180FFB6CFD70112968C9108326C
:10395000110528F50E31110508F072C0043011056B
:1039600080F58111A3CFA6CFC8019056811540E202
:10397000940720F0905E8115904110F780911E0110
:1039800082FF98CF8091650381FD94CF24E032E0DF
:1039900040E0B60190E080E00E94381A8BCF0933F6
:1039A000110558F40D32110518F40B321105C9F642
:1039B0009091630392FDD5CF08C004361105C1F381
:1039C000D0CF9091630394FDCCCF882309F4A8C095
:1039D0008091E90190912703892B8D7FB1F110929D
:1039E0006F0310926E038091630381FD2EC0F80176
:1039F00043E0F695E7954A95E1F7EE71FF27E85D1C
:103A0000FC4F98012F70332781E090E002C0880FAF
:103A1000991F2A95E2F78095909520813181822324
:103A200093239183808360E0C8010E94231A8091D0
:103A3000E9018D7F0E94C70982E00E946E17C2CE05
:103A40009091630393FD8DCFC0CF88E0F701A4E090
:103A5000B2E001900D928A95E1F710920602109261
:103A600008021092070280916E0390916F0308176D
:103A70001907D1F52091630325FF36C030911E014F
:103A800031FF02C026FF30C020916C0330916D03DE
:103A90005601A21AB30AB7010E949E0FA816B906D2
:103AA00018F58091270381FF08C080911E01806175
:103AB00080931E0182E00E94E2098091270385FF26
:103AC00008C080911E01806280931E0180E20E94E6
:103AD000E20960911E016695617080916E0390917C
:103AE0006F030E94231A6ECE8091E9019091270303
:103AF000982B20911E0191FB21F920931E018D7FAF
:103B00000E94C70910936F0300936E03D0926D0358
:103B1000C0926C0380911E01846080931E018CCF43
:103B2000970140E0B601C8010E94381A4BCE053F0C
:103B30004CE5140709F463C008F45BC0063F8CE54C
:103B4000180709F462C0D70112963C91332309F497
:103B5000C0C510921A040330BDE51B0708F061C010
:103B60000A3FECE51E0730F4C80182509C4544979B
:103B700008F062C00E94D10E909326038093250323
:103B800002315CE5150709F47FC108F0CFC00930A8
:103B90009CE5190709F456C108F099C00530BCE549
:103BA0001B0709F443C108F080C00330FCE51F0780
:103BB00009F434C108F036C18091250381600230D8
:103BC0003CE5130709F4AFC08091250390912603CB
:103BD0000E947C0F0E94CE12F5CD07E225EE45EE45
:103BE00068ED7CE582CE06E221EE40EE63EF7CE5F7
:103BF0007CCE07E225EE44EE64EF7CE576CE06E26D
:103C000021EE42EE65EF7CE570CE07E225EE46EE52
:103C100066EF7CE56ACE08E221E045EE69ED7CE5E1
:103C200064CE053AFDE51F0709F4A4CFC0F50136BF
:103C30004DE5140709F49ECF06315CE5150709F040
:103C400023C280912703982F9A7A2091620320FF44
:103C500004C0482F447409F090E021FF04C0482FAD
:103C6000417109F090E022FF04C0482F487809F024
:103C700090E023FF03C0827209F090E0332309F43F
:103C80002DC181E0911101C080E08093780189E22B
:103C9000911185E30E941D0A0E94211293CDC80153
:103CA0008D5A9D45039740F665CF8091250380622C
:103CB00007304CE51407B9F1809125038061083085
:103CC0005CE5150780F18091250380642CC00D30E0
:103CD0008CE5180709F4C0C090F4809125038E7F0D
:103CE0000B30ACE51A07F9F0809125038C600C309D
:103CF000BCE51B07C0F0809125038D7F14C00F30F9
:103D0000ECE51E0709F4B8C008F4AAC000312CE5A0
:103D1000120709F4B5C0809125038F7B01313CE582
:103D2000130709F051CF809325034ECF0F3F4CE589
:103D3000140709F4B3C0A8F50A3F8CE5180709F485
:103D400079C0C0F40431ACE51A0709F4B5C008F431
:103D5000A1C00531ECE51E0709F036CF809125039F
:103D600082FB992790F921E0922790FB82F990FB42
:103D700083F9D9CF0C3FFCE51F0709F475C008F49F
:103D80005DC00D3F3CE5130709F472C08091260326
:103D900083600E3F4CE5140709F016CF809326038D
:103DA00013CF01365DE5150709F491C090F4013099
:103DB0009DE5190709F489C008F474C060E0023079
:103DC000BDE51B0709F000CF8EE090E00E940C35A6
:103DD000FBCE0D3AEDE51E07E9F060F49091250366
:103DE000892F8E7F90FF8160053A2DE5120709F437
:103DF0009ACFEACE0E3A3DE5130751F10F3A4DE561
:103E0000140709F0E1CE90912603892F877F93FF55
:103E10008860C4CF809126038860C0CF809125033D
:103E2000826081CF8091250384607DCF80912503BE
:103E3000886079CF809126038160B0CF809126037E
:103E40008260ACCF0E94CE128091250380686BCF38
:103E500080912603877FA2CF809125038B7F63CF3C
:103E600080912503877F5FCF809126038E7F96CF39
:103E7000809126038D7F92CF809125038F7E53CF33
:103E8000809125038F7D4FCF0E94CE128091250314
:103E90008F7749CF80912503837F45CF809126037B
:103EA0008C7F7CCF80912603982F909591708E7F88
:103EB000892B90FB81F972CF0E94CE12909125033D
:103EC000892F97FB87F980582ECF61E07DCF9091A5
:103ED0002503892F8F7E94FF806125CF8091780103
:103EE000811104C089E20E94100AD6CE85E3FBCF7F
:103EF000043C4CE5140709F494C0053C5CE5150747
:103F000009F009C440EC50E16AEC70E114C0093CCE
:103F10009CE5190709F494C088F4073CBCE51B072D
:103F200009F489C043EB50E166EA70E1083CECE536
:103F30001E0709F0F0C30E944A0744CC0A3CFCE586
:103F40001F0709F482C044ED50E166EE70E10B3CBE
:103F50002CE5120781F3DFC3013D3CE5130709F4AB
:103F600087C0B0F40E3C5CE5150709F47BC008F48B
:103F700076C00F3C9CE5190709F477C06EE089E034
:103F8000003DACE51A0709F0C6C30E944F111ACCD8
:103F9000043DBCE51B0709F471C078F4023DFCE563
:103FA0001F0709F468C061E088E1033D2CE51207B2
:103FB00009F0B1C30E94F81005CC053D3CE513079C
:103FC00009F45FC00D35100709F4FCCBA4C3809140
:103FD0004A0280FF1BC08E7F80934A0260914A0292
:103FE00070914B0280914C0290914D020E94001002
:103FF000109222025FEF80E792E0515080409040A3
:10400000E1F700C000000E94720BDCCB816080935E
:104010004A0261E08695CECF4AE351E164E471E162
:104020008ACF44E451E16AE371E185CF4AEC50E183
:1040300060EC70E180CF46EA50E163EB70E17BCF4A
:104040004CE850E169E970E176CF49E950E16CE86C
:1040500070E171CF46EE50E164ED70E16CCF61E04C
:1040600081E0A8CF65E082E090CF68E086E08DCF68
:1040700064E18FE08ACF67E185E187CF62E289E181
:1040800084CF61E083E296CF0A35ADE51A0771F17E
:1040900058F40115ECE51E0791F00E3D1C4509F0A2
:1040A0003AC30E94541609C00C352DE51207A1F041
:1040B000F8F0073A1D4509F02EC30E9438170E94F8
:1040C000CE125FEF84E39CE0515080409040E1F7D6
:1040D00000C000000E94440B8091260382FB8827C9
:1040E00080F991E089270E948A1715C381E0FBCFF0
:1040F00080E0F9CF828100811181882369F0C801B5
:104100000E942E0ED82E682FC8010E94940AB80172
:104110008D2D0E94110E05C3C8010E94600AD82E81
:10412000F6CF202F2F70C22E802F807F19F0C294DF
:1041300090EFC922BB20A9F0CC2059F080E2810F7A
:10414000883010F0111107C08C2D0E94E9090E94DF
:104150002112812F5AC080913C04C82AC0923C048D
:10416000F6CF812F0E94E817CC2009F450C080E2DE
:10417000810F883010F0111104C08C2D0E94E209CB
:1041800003C08C2D0E94DB090E94211240C0302FF9
:104190003F70C32E802F807F803219F0C29480EF51
:1041A000C822112321F1113009F4AEC0BB2009F45B
:1041B000B7C0DD2009F47FC020E0D7014C911196F3
:1041C0005C91119712966C91129713967C911397AC
:1041D00014968C910E94870E8091650381FDB9CF62
:1041E000F701858180FFB5CF8F70858364C0809192
:1041F000260382FD40C0BB20C1F1CC2029F08C2DCC
:104200000E94E9090E94211280E00E947218A92DE3
:10421000A850BB0B149710F40E944B06812F902FCF
:104220000E94CB0A81119BC110927B0110927A01EE
:10423000AA20B1F08091DE0180FD12C0D701129654
:104240001C928595859585950E949F17C7010E94B0
:10425000F01A8091DE018595859585950E946117FC
:1042600060E0C7010E94AA0EBDCA80E00E94E81764
:10427000CC2069F282CFBB2011F1D11004C0809113
:10428000E9018C2919C041E0D41206C08091E901EE
:104290008C290E94C709BBCF80916403823078F3D8
:1042A000D812EDCF0E94BC09909179018C2D892BF9
:1042B0008913809379018C2D0E94E117A8CFD1102A
:1042C00003C00E94BC0917C08091640351E0D5125D
:1042D00016C0823008F49BCF809127038C2109F40B
:1042E00096CF0E94BC09909179018C2D80958923ED
:1042F0008913809379018C2D0E94DA1788CF823040
:1043000000F3D812DECF83CF80916A03BB2021F067
:104310008D1508F47CCFCFCFD81608F078CFEBCF2F
:10432000DD2049F38091680390916903193321F0EE
:1043300080916603909167030E94680B812F0E9411
:10434000E81765CF802F837091F5B11060CF412FB2
:10435000429546954770440F440F812F8F70042E6D
:1043600001C0880F0A94EAF7212F207114FF07C0BB
:104370002FE030E001C0220F4A95EAF72095302F58
:10438000369536953370323069F050F44091EA0139
:10439000313029F0822B84230E94C21738CF842B1E
:1043A000822BFACF282B8091EA018227F5CF8695C0
:1043B000BB2011F0802F8170882309F428CF412F72
:1043C000429546954770440F440F812F8F70042EFD
:1043D00001C0880F0A94EAF7212F207114FF07C04B
:1043E0002FE030E001C0220F4A95EAF72095302FE8
:1043F000369536953370323069F050F440913B0475
:10440000313029F0822B84230E944E1700CF842B59
:10441000822BFACF282B80913B048227F5CFF02FF7
:10442000FF70CF2EBB2029F08F2F0E949F17812F66
:1044300043CF812F0E94DA178C2D0E946117E7CE9F
:10444000123F89F160F4103FB9F0113F81F0BB20B9
:1044500009F480C0D1107DCE802F8F7128C0133F0A
:1044600049F1143FA1F78091260382FD2FC0802FD0
:104470008F71BB2011F31BC080916A03BB2079F0C0
:10448000D81608F0C4CE202F2F7181E090E001C033
:10449000880F2A95EAF790913B048927B5CF8D15AF
:1044A00008F4B5CEF0CF802F8F71B110C6CF0E9427
:1044B0009F17ADCE80E0BB2009F4A6CF81E0902FFE
:1044C0009F7101C0880F9A95EAF79ECF809164038F
:1044D000823040F1BB20D1F09091DE019770943092
:1044E00041F40E94EF09802F8F710E946117A12C67
:1044F0008ECED816E0F7202F2F71C22E822F0E9469
:104500009F1763E08C2D0E94AB17F1CFD81630F0C7
:104510000E94EF0964E0802F8F71F5CF81E00E9447
:104520006E17E5CFBB2059F0302F3F71C32E832F7C
:104530000E949F1763E08C2D0E94AB1768CE81E02C
:104540000E946E1741E04D1508F061CE82E00E9496
:104550006E175DCED110E6CE802F8F716ECFBB204F
:1045600019F0D11061CE64CED1105ECE20E0F701FB
:10457000408151816281738184810E94870E809184
:10458000650383FF51CE80917A0190917B01029760
:1045900009F04ACE812F0E94E21846CE0031BFE5D5
:1045A0001B0709F40AC90131EFE51E0709F422C906
:1045B0006801E7E5DE1A81113AC9FFEFCF16D10491
:1045C00011F008F03AC967E572E08C2D0E948A0F5D
:1045D000892B29F58EE08C9DF0018D9DF00D112425
:1045E000EF59FD4F8281813009F006C98091570251
:1045F00090915802892B99F08091590290915A021A
:10460000892B69F080915B0290915C0220915D02A0
:1046100030915E02822B932B892B09F4F7C8580145
:10462000BB243EE0039FF0011124AF014F595D4FC1
:104630006A01D70112968C91EA59FD4F908180FB57
:1046400090F99083882309F457C90E943F069093FC
:10465000030280930202D60112968C9112978F5F0B
:1046600012968C93129780913C0490912703892B8A
:1046700013968C9313978091E90114968C93149759
:104680001696ED91FC911797309729F01C966D9135
:104690007C91C60109958EE08A9DF0018B9DF00DFD
:1046A0001124EF59FD4F858181FF23C990E080E0FF
:1046B00090931B0480931C04C0C80031FFE51F07C2
:1046C00009F494C801312FE5120709F071CF82E097
:1046D0008EC80631BCE51B0709F4B3CA80912703D5
:1046E00082720C3C9CE5190709F4B4CC08F034CC78
:1046F000063CBCE51B0709F499CC08F008CC033C48
:10470000FCE51F0709F488CC08F0F2CB023C3CE53D
:10471000130709F45CCCF70186819781009709F4AF
:10472000E9CC0E945108182F092FF701B280D580DB
:10473000D2943FE0D3228091DE018770C1F0AB2C90
:10474000BB20B1F0892F807F803421F080E2810F7F
:10475000883068F08091260382FF09C082E00E94C1
:104760006E178091DE018770AA24A3948111A12C79
:10477000902E92942FE09222FBE0F91508F447CD99
:10478000E92DF0E0EC5AFA4C0C943434B0E0A0E09F
:10479000ECECF3E20C947C3480919701807F31F44F
:1047A00080919401C091DB01811107C0CDB7DEB7C4
:1047B000E8E00C9498342196C77080919A018C1788
:1047C000A9F3F0909201E0909301C0909501D090F0
:1047D0009601A6016E2D8F2D0E945806D0E0811102
:1047E000EACF8E0183E0000F111F8A95E1F7F801EF
:1047F000E556FE4F81818E11DECF80818F11DBCF98
:1048000082818111D8CFE380F480EC18FD0860E04C
:1048100082E991E00E94AA0E62E971E00E949E0F77
:10482000E816F90640F6809197018F7080618093B9
:104830009701F801E056FE4F80818F708061808380
:1048400082E991E00E94F01A0E94560AAFCFA5E1DA
:10485000B0E0EDE2F4E20C9475348C0185E0F801EF
:10486000DE01519601900D928A95E1F7D8015C9096
:1048700011966C9011971296EC9012971396CD901A
:10488000DC9060E082E991E00E94AA0E82E9A82E05
:1048900081E0B82E8090950190909601A4016091DE
:1048A0009301809192010E9458068111A8C1F09055
:1048B0009401F601E819F9094F0160E0FF2009F4BD
:1048C0004BC1C5010E94AA0EB5010E949E0F7090B7
:1048D00097018816990608F0F2C040919501509111
:1048E0009601B0909201A0909301872D807F6A2D50
:1048F00009F08CC08B2D0E945806FE2C811127C018
:10490000D80111968C9111978A1121C08C918B112D
:104910001EC0209198013091990116968D919C911D
:1049200028173907A1F4E11012C0872D8F7080611C
:104930008093970182E991E00E94F01A809197019B
:10494000F80185838F2D6596EFE00C949134A601D4
:10495000662D852D0E945806D82E81E08E25D11017
:1049600080E080FF18C04E2D662D852D0E94360AEE
:10497000882389F08091650380FF0DC082E991E072
:104980000E94F01A88E0E2E9F1E0DF011D928A95C9
:10499000E9F7F12CD7CF81E08E25D11080E0B82F38
:1049A000B170CB2E80FF29C04E2D662D852D0E9423
:1049B000360AD82E811121C0598A6A8A89899A8932
:1049C0000E945D0E292F22952F70223050F0243046
:1049D00078F49F7051F0F8019581907F31F4FD2CAF
:1049E000B1CF9F7011F08823D1F3805E8830B8F387
:1049F000C8010E94F01ADC2CF2CFEE2009F4A2CFFD
:104A000080919701816080939701C3CF8B2D0E9485
:104A10005806811124C0D80111968C9111978A11E2
:104A20001EC08C918B111BC020919801309199016F
:104A300016968D919C9117972817390781F4E110EC
:104A40000EC015967C92C8010E94F01A88E0F80109
:104A5000A2E9B1E001900D928A95E1F773CFC80108
:104A60000E946A0E882339F1EE2029F18091970186
:104A70008032A0F020919201309193013A872987EA
:104A80001B86DD86CC868E87809198019091990156
:104A9000988B8F87CE0109960E94F01A88E0F80162
:104AA000A2E9B1E001900D928A95E1F70E94C62338
:104AB000FF24F39447CFC8010E94F01AF9CF872D45
:104AC000807F09F45BCF9090920180909301409198
:104AD000950150919601682D892D0E9458068111EB
:104AE0001CC0F8018181881118C08081891115C00E
:104AF0002091980130919901868197812817390773
:104B000061F4E1100AC07582C8010E94F01A88E0C1
:104B1000D5011D928A95E9F715CFC8010E946A0E4A
:104B2000882349F2EE2039F280919701803208F40F
:104B3000B5CF20919201309193013A8329831B8252
:104B4000DD82CC828E838091980190919901988723
:104B50008F83CE010196A0CF82E991E00E94AA0E38
:104B600062E971E00E949E0F8816990680F6FE2C7D
:104B7000EE2009F4A0CFE0909201D09093014091F3
:104B80009501509196016D2D8E2D0E945806811130
:104B900028C0F80181818D1124C080818E1121C02F
:104BA00020919801309199018681978128173907C2
:104BB000C1F48091650382FD49CF9091970190FDEA
:104BC00045CF907F09F442CF809197018583903F34
:104BD00009F439CF982F907F905F8F70892B858350
:104BE00032CFC8010E946A0E811158CF809197017F
:104BF000816080939701C8010E94F01AA3CEEE2035
:104C000009F459CFC8010E946A0EF82E882309F4CE
:104C100052CF88E0F801A2E9B1E001900D928A95A7
:104C2000E1F780919201909193010E945D0E0E94A4
:104C3000C62388CEA0E1B0E0E0E2F6E20C94823434
:104C400029873A874B875C876D877E878F87988B0C
:104C5000CE0109960E94272481112FC088E0FE0111
:104C60003996DE01119601900D928A95E1F74C85F7
:104C70005D856A8589850E94580681111EC0A091B4
:104C80009A01B0E0CD010196877099272091DB0150
:104C900028171906E1F093E0AA0FBB1F9A95E1F7D8
:104CA000A556BE4F98E0FE01319601900D929A955F
:104CB000E1F780939A010E94560A8091DB0190915E
:104CC0009A01891312C06096E2E00C949E340E940F
:104CD000CE1210929A011092DB0188E0E2E9F1E035
:104CE000DF011D928A95E9F7E8CFB8E08B9FC001FC
:104CF000112485569E4F0E942724882321F38091FA
:104D0000DB0190E00196877099278093DB01D5CF76
:104D1000EF92FF920F931F93CF93DF9380917303D2
:104D2000882361F0C09172038CE0F82E80917303A8
:104D3000C81748F01092730310927203CDB7DEB714
:104D4000E6E00C949A34EE24E394EC0EE0927203C5
:104D50000C2F10E0CF9DE0011124CC58DC4F4B818B
:104D60005C81698188810E94580681111DC08E81F5
:104D70009F81892B21F488859985019651F428819A
:104D800039814A815B816C817D818E819F810E9406
:104D90001A26F09EF001F19EF00D1124EC58FC4F04
:104DA0001482138210923C04CE2DC0CF10921704AF
:104DB0001092160410921F01809115048093140420
:104DC0000E9491060E9488260895B0E0A0E0EBEED4
:104DD000F6E20C947334C091140497E0892E01E03C
:104DE00010E02CE0322E3EEF932E44244394809129
:104DF00015048C1309C00E9488260E949106CDB725
:104E0000DEB7E1E10C948F34D0E0FE01EE0FFF1F1E
:104E1000E45FFB4F80819181889ED001899EB00D17
:104E20001124AC52BC4F14962C911497211158C0E8
:104E300050907303E4E7F3E030E020E0712C5D0173
:104E4000251508F04BC0E284F384D501CD90DC90A9
:104E50006FEF7FEF612C462D50E0DA01AA0FBB1FE8
:104E6000AC0DBD1D0D90BC91A02D109731F0EA1630
:104E7000FB0609F4BA016394EECF6F3F7607A9F100
:104E8000D80102C0AA0FBB1F6A95E2F77A2AB801BF
:104E9000062C02C0660F771F0A94E2F7AB0141505F
:104EA000510974161506F9F4329EF001339EF00D87
:104EB0001124EC58FC4F889ED001899EB00D11241E
:104EC000AC52BC4F12962D913C9113973783268399
:104ED000908291829187808715964C920E946306FA
:104EE0002196C37084CF148213822F5F3F4F3C966C
:104EF000A7CFA9E1B0E0EFE7F7E20C947234942F6A
:104F0000498B252F5A8B6B8B7C8B8D8B4C895D89C4
:104F1000622F892F0E945806811109C080917A0161
:104F200090917B01019690937B0180937A018B890C
:104F3000811110923C041D861E861F86188A85E00A
:104F4000FE017196DE01199601900D928A95E1F7A6
:104F50008091260382FF1EC080914A0390914B03EB
:104F6000892BC1F00E943F062091DC013091DD01C8
:104F7000821B930B20914A0330914B0382179307B6
:104F800020F08091DE0182FFE2C10E94F6098111CA
:104F90000E94BC094C855D856A8589850E945806FA
:104FA000811111C061E0CE0109960E94AA0E6C0128
:104FB0008B8527EFC2162CE5D20681F4882321F1D8
:104FC00081E080931F0129853A854B855C856D853D
:104FD0007E858F8598890E941A26C6C038EFC31631
:104FE0003CE5D30629F4882379F00E94D626EBCF3E
:104FF00049EFC4164CE5D40639F4882329F0809192
:105000001F018111F2CFDCCF04ED13E0512CB12C44
:10501000A12C22242394312C2EEF422EF801408122
:10502000518188248A94982C20E0822F90E0FC0102
:10503000EE0FFF1FE40FF51F60817181611571058F
:1050400031F0C616D70609F44C012F5FEECFF12CD4
:10505000FFEF8F169F0609F449C0F8014481F090D4
:105060001F018F2D411180E0F82FF170FF2EF80104
:10507000E58086819B85992309F4F8C0FF2009F417
:10508000F5C060905E0370905F03E11013C0A10152
:10509000082C01C0440F0A94EAF7842B8683809180
:1050A0007003909171038615970520F47092710337
:1050B00060927003C10102C0880F991F2A95E2F720
:1050C0000197F80126812817190681F480911604AA
:1050D00090911704009709F44BC00E9424066816AB
:1050E000790608F045C021E0F80124835F28FFEF2E
:1050F000AF1ABF0A095F1F4F28E0A216B10409F0DA
:105100008DCF8B85882309F40DC1552009F40AC180
:105110000E943F06909317048093160480917303B6
:10512000883010F591E0980F9093730398E0FE019A
:105130003996DE01119601900D929A95E1F73CE0C7
:10514000839FC00111248C589C4F28E0FE013196AA
:10515000DC0101900D922A95E1F72FEF3FEFFC0162
:1051600031872087D386C2866996E2E10C948E341B
:105170008091140450911504982FF0E0E0E085131D
:1051800014C090931404E017F10709F4AFCF90E036
:10519000FC01EE0FFF1FE45FFB4FB182A08201967E
:1051A0008370992780931504A1CF682E712CF30189
:1051B000EE0FFF1FE45FFB4F2081318147E0429FEC
:1051C000D001439FB00D1124AC52BC4F6D917C9126
:1051D0001197798F688F40E020E030E0E32FF0E016
:1051E000EE0FFF1F688D798DE60FF71F808091808D
:1051F00081149104E1F0F8010190F081E02DFF8B22
:10520000EE8B20E005C08616970609F44F2D2F5F20
:10521000E22FF0E0EE0FFF1F6E897F89E60FF71F88
:10522000608171816115710571F73F5FD7CF4423AC
:10523000D1F0F801231708F0FD0121E024830E17B7
:105240001F0721F490931404F42E50CF981305C037
:10525000AE17BF0711F49F5F937093012F5F3F4F0D
:10526000822F83708CCFF0E0E0E0F7CF90E0E11088
:1052700020C0B10102C0660F771F2A95E2F79B019B
:10528000215031098217930731F4442309F448C0AF
:10529000C5010E946306C101082C01C0880F0A9451
:1052A000EAF7982F9095F801868189238683FE2C52
:1052B0001DCF9C01082C02C0359527950A94E2F772
:1052C000A90141705527BC016150710986239723BC
:1052D000892B11F5452B01F1F80182819381892BEE
:1052E000C1F01B821C821D821E8249824A820E945A
:1052F0003F068160582F9D838C83F80182819381C2
:105300008F83988729813A814B816D817E810E94AC
:105310001A26F8011582BFCFF22FF170EF2EBBCF06
:10532000EF2CB9CF9091140480911504981731F0A7
:105330000E94E526552009F446CE16CF0E94882605
:1053400010921704109216040E949106F3CF82E087
:105350000E946E171ACEA5E0B0E0E1EBF9E20C94E2
:1053600082349093220380932103811520E29207D7
:1053700030F40E945A182596E2E00C949E3480EF97
:1053800089838A831B820E943F068160782F9D83D8
:105390008C8349815A816B818D810E947927EBCF63
:1053A0000F931F93CF93DF938C01EB0167E572E0BE
:1053B0008C2F0E948A0F892BA1F480916603909113
:1053C00067030E94680BDD27C15BDD4F8881F80110
:1053D000128218828330F1F048F4813059F0823023
:1053E00081F0DF91CF911F910F9108958430B9F032
:1053F0008530B9F78091570290915802009789F350
:1054000006C08091590290915A02009799F30E9428
:10541000AB29E7CF80915B0290915C02F6CF80913F
:105420005D0290915E02009791F7209157023091B2
:1054300058028091590290915A0221153105F1F2DA
:10544000009729F7C901E3CFA5E0B0E0EAE2FAE26C
:105450000C9482349093220380932103811520E2DF
:10546000920730F40E940B1A2596E2E00C949E34C9
:1054700080EF89838A8381E08B830E943F0681606D
:10548000782F9D838C8349815A816B818D810E9405
:105490007927EACFCF93DF93EC010E94242A8091F1
:1054A0006603909167030E94680BCE010E94AB29AE
:1054B000DF91CF9108950F931F93CF93DF938C01CA
:1054C000862F67E572E00E948A0F892BB1F4C091A4
:1054D0005702D0915802209781F0F80182818330E1
:1054E00051F4CE010E944A2ACE010E944A2ACE01DE
:1054F0000E944A2A02C08430D0F7DF91CF911F91D9
:105500000F9108950F931F93CF93DF938C01EB01BD
:1055100067E572E08C2F0E948A0F892B09F05CC02E
:10552000FE01FF27D80112968C911297E15BFD4F87
:105530008130B9F415969C9192FF02C080830AC015
:1055400090FFFCCF82E080838091590290915A02B3
:105550000097B9F480915702909158020097E1F1B9
:1055600010C08230B9F515968C9182FD28C080FD5F
:105570000BC083E0808380915B0290915C02009776
:1055800001F10E94242A28C084E0808380915D027A
:1055900090915E020097A9F780915702909158026E
:1055A0000097F9F00E944A2A8091590290915A027C
:1055B000009739F78091570290915802E2CF85E029
:1055C00080838091570290915802009729F00E94A1
:1055D0004A2AF0CF86E08083DF91CF911F910F910F
:1055E00008958091590290915A02B8CF90E080E0DE
:1055F0000E940635883E9E4F19F40E94B80E089509
:1056000080E008951F920F920FB60F9211242F93EE
:105610003F934F935F936F937F938F939F93AF933A
:10562000BF93CF93DF93EF93FF93D091E900DF70A7
:105630008091EC00C82FC17080FDC0E81092E90095
:105640008091F000877F8093F00078940E94DC12B4
:105650001092E9008091F00088608093F000CD2BDB
:10566000CF70C093E900FF91EF91DF91CF91BF918F
:10567000AF919F918F917F916F915F914F913F91EA
:105680002F910F900FBE0F901F9018951F920F92A1
:105690000FB60F9211242F933F934F935F936F9305
:1056A0007F938F939F93AF93BF93EF93FF938091DB
:1056B000E10082FF09C08091E20082FF05C0809175
:1056C000E1008B7F8093E1008091DA0080FF24C0AD
:1056D0008091D80080FF20C08091DA008E7F809377
:1056E000DA008091D90080FF9DC080E189BD82E110
:1056F00089BD09B400FEFDCF81E080933104809123
:105700002404811109C00E9498040E9463058091BD
:10571000E20084608093E2008091E10080FF17C086
:105720008091E20080FF13C08091E2008E7F809321
:10573000E2008091E20080618093E2008091D800D5
:1057400080628093D80019BC85E0809331048091F9
:10575000E10084FF2BC08091E20084FF27C080E13C
:1057600089BD82E189BD89B5982F917080FFFBCFFB
:105770008091D8008F7D8093D8008091E1008F7E4A
:105780008093E1008091E2008F7E8093E20080911F
:10579000E20081608093E20080913204882309F462
:1057A00047C084E080933104809131048091E1000E
:1057B00083FF27C08091E20083FF23C08091E10036
:1057C000877F8093E10082E080933104109232045D
:1057D0008091E1008E7F8093E1008091E2008E7FD6
:1057E0008093E2008091E20080618093E20042E0D9
:1057F00060E080E00E9431058091F0008860809335
:10580000F000FF91EF91BF91AF919F918F917F91A8
:105810006F915F914F913F912F910F900FBE0F901D
:105820001F90189519BC109231041092240474CF63
:105830008091E30087FD93E090933104B5CF789495
:105840001F921FB61F9211248F939F93AF93BF9304
:105850008091200490912104A0912204B09123040E
:105860000196A11DB11D8093200490932104A09363
:105870002204B0932304BF91AF919F918F911F9009
:105880001FBE1F9018951F921FB61F9211248F9351
:105890009F93AF93BF9380911F04811113C0809198
:1058A000200490912104A0912204B09123044196F8
:1058B000A11DB11D8093200490932104A093220484
:1058C000B0932304BF91AF919F918F911F901FBE02
:1058D0001F901895CDB7DEB7EC970FB6F894DEBFE2
:1058E0000FBECDBF85B7806885BF85B7806885BF8F
:1058F00084B7877F84BF0FB6F894A8958091600025
:10590000886180936000109260000FBE80E890E094
:105910000FB6F89480936100909361000FBE85EFFD
:1059200097E090936F0180936E010E9425070E947B
:10593000BC0F0E94BC0D0E9498040E9463058091D8
:10594000E20084608093E20078948091310488239F
:10595000A1F01091E9001F709091EC00892F8170E7
:1059600090FD80E8182B1092E9008091E80083FDFB
:105970000E94DC121F701093E90082E084BD93E066
:1059800095BD9AEF97BD80936E000E94B80E81116D
:1059900002C00E94441684E30E94F70784E90E9433
:1059A000F70780E30E94F70787E60E94F7070DE2FA
:1059B00011E0D8018D918D018F3F11F00E94F70702
:1059C000B1E008331B07A9F788E0E3E1F2E0DF016B
:1059D000282F1D922A95E9F7EEEEF1E0DF011D92E6
:1059E0008A95E9F70E94F62A811102C00E94541696
:1059F00082E090E00E94F8348093F9010E94D10E79
:105A000090932603809325030E946F11EFE3FCE936
:105A10003197F1F700C000000E946F1180911302CE
:105A200080FF08C06FEF7FEF90E080E00E942A3592
:105A30000E94440B83E090E00E94F8340E94C21759
:105A40008091F601811133C00E94F62A811104C0B1
:105A50000E9454160E945F1188E090E00E94003579
:105A600060934A0270934B0280934C0290934D02D4
:105A70006E7F71F40E945F1188E090E00E94003513
:105A800060934A0270934B0280934C0290934D02B4
:105A90000E9450071092220280914A0280FF04C0A7
:105AA00060E086950E94F81081E08093F60181E025
:105AB00080930E0257985F9A56985E9A8FE891E00D
:105AC0000197F1F700C0000030910E024FE052E064
:105AD000FA018E2F841B831708F46AC080E091E0DE
