:100000000C948D040C94C5040C94C5040C94C50484
:100010000C94C5040C94C5040C94C5040C94C5043C
:100020000C94C5040C94C5040C94BB290C9477293A
:100030000C94B82A0C94C5040C94C5040C94C50403
:100040000C94C5040C94C5040C94C5040C94C5040C
:100050000C94C5040C94942A0C94C5040C94C50407
:100060000C94C5040C94C5040C94C5040C94C504EC
:100070000C94C5040C94C5040C94C5040C94C504DC
:100080000C94C5040C94C5040C94C5040C94C504CC
:100090000C94C5040C94C5040C94C5040C94C504BC
:1000A0000C94C5040C94C5040C94C5040501098086
:1000B000A101850319012AB700150126B700950192
:1000C00075108100C0050C0901A101850419012AE0
:1000D000A002150126A002950175108100C00660DE
:1000E000FF0961A1010962150026FF00952075082E
:1000F00081020963150026FF00952075089102C052
:1001000005010906A101050719E029E715002501E8
:10011000950875018102950175088101050719008F
:1001200029FF150026FF00950675088100050819AE
:1001300001290515002501950575019102950175A7
:10014000039101C07F3F1F643214643214783C1E57
:100150001E140A05FD377A585A000004E6D6B44644
:100160000200210116000000742FE5A3E009E4025B
:10017000145D003D8889C65436C3174FE4E7E9543F
:10018000216F66A3454351D63195C0501472BFB458
:10019000447A2852B5CABBE6D2E337F5BDE72E5103
:1001A000FEB8D99B3DB024A5ED723B7DBF22549A89
:1001B0001894309528C26CE4EDF83D7AF2F128BA33
:1001C000C625142DAD7BA99DAB6D6ADBDF9642B9C8
:1001D00010EF16677A2838E9552D0354DA1722797B
:1001E0001BB32925F3B93640BA68E8BFAC4CC3C08D
:1001F000A0712A48E14DCB031A917A4E079A336FCA
:100200008D8C2FEE44E58143F192EC1D60D0F2B16C
:10021000C1B53C3ED4EDEDFEA9903B221895847803
:1002200079A0EFD198B01D0823468122740608A357
:10023000CF965B75DB535562429B8815949C69058C
:10024000DA76E99BFA63FCFFF061D9319F0C722EDC
:100250007AAD91A93F562709D2EFF759BF018D9783
:10026000AB1F1E0AE5BD975F83C0E0CB24CC1ED830
:100270003378F768A42DB7B2612EE7CFE3758F29E5
:10028000B1201107CB6057511C2087AA8D62252C05
:100290005476CEA9DEF53B66413EB2E72FF1FE294A
:1002A0004D2CB72213FA4A0F283CEE6784A812E9B6
:1002B000E97DA0576C3EDA19E22D0972B0A732FE33
:1002C000B0C8E6CDA2BA3BF1F849A482DA4193273F
:1002D0009E724032529DBE035AA9D383202C2481A2
:1002E00044E35B986C44A0182752BA86C5E0BFB9B6
:1002F000A225DE67BDE21DAAEBDDB23A4F4D88A70D
:100300000A62FBC3B1A7ABA07AA02713C4E13AD419
:100310008D5C9F0657E72ABBE9D74B1CD164B21905
:10032000056D081DB3A5DE3038765A8828F16F5B5D
:10033000CAC2746264E733646409EB8AAD7A7B2FC6
:100340006284024D5A810196055422973F92E80833
:10035000A8390F71E26C2D24CBECA1463D6BFFFE5A
:10036000BE32B59A66A3E023B0BD00ED5A2FACE1D2
:10037000548981024133ED2D20DAE1AEBD468BAECA
:10038000799D80594EA00000C23A639E0666CBDF7D
:100390000001B004E51300004BCDDED3B1C467FB10
:1003A000020000000004595A00010101010101018D
:1003B000010102020202020202020203030303031A
:1003C00003030304040404040404050505050506E9
:1003D00006060606070707070708080808090909A7
:1003E000090A0A0A0B0B0B0C0C0C0D0D0D0E0E0E50
:1003F0000F0F0F10101111111212131314141515E1
:1004000016161717181819191A1A1B1B1C1D1D1E52
:100410001E1F2020212222232424252626272829A6
:10042000292A2B2C2D2D2E2F3031323233343536D4
:100430003738393A3B3C3D3E3F40414243444546D4
:100440004748494A4C4D4E4F5051535455565859B0
:100450005A5B5D5E5F616264656668696B6C6D6F57
:100460007072737577787A7B7D7E808283858788CA
:100470008A8C8E8F91939596989A9C9EA0A2A3A504
:10048000A7A9ABADAFB1B3B5B7BABCBEC0C2C4C605
:10049000C9CBCDCFD1D4D6D8DBDDDFE2E4E7E9EBC1
:1004A000EEF0F3F5F8FAFDFFFFAA7F554022232571
:1004B0002628292A2C2D2F3032333536383A3B3D29
:1004C0003E4042434547494A4C4E50515355575977
:1004D0005A5C5E6062646668696B6D6F7173757794
:1004E000797B7D7F81838587898A8C8E9092949693
:1004F000989A9C9E9FA1A3A5A7A8AAACAEAFB1B3A2
:10050000B4B6B8B9BBBCBEBFC1C2C3C5C6C7C9CAF1
:10051000CBCCCDCED0D1D2D2D3D4D5D6D7D7D8D9B3
:10052000D9DADADBDBDBDCDCDCDCDCDDDDDDDDDC11
:10053000DCDCDCDCDBDBDBDADAD9D9D8D7D7D6D523
:10054000D4D3D2D2D1D0CECDCCCBCAC9C7C6C5C3E5
:10055000C2C1BFBEBCBBB9B8B6B4B3B1AFAEACAA32
:10056000A8A7A5A3A19F9E9C9A98969492908E8CE2
:100570008A89878583817F7D7B79777573716F6DBC
:100580006B6968666462605E5C5A59575553515096
:100590004E4C4A4947454342403E3D3B3A3836354A
:1005A0003332302F2D2C2A29282625232201000121
:1005B000007303D410B9100000020002006F03D4CE
:1005C00010B9100000030001007403D410B910002A
:1005D00000040002005903D410B91082070500017D
:1005E000007503D410B9100000060002005B03D4AC
:1005F00010B9100000070002007103D410B91000F8
:1006000000080001007603D410B9100000120002A7
:10061000007703D410B9100000130002007903D44E
:1006200010B9100000140001007B03D410B91000B1
:10063000001500000000000807E817000014001A69
:10064000000800150017001C0018000C0012001311
:10065000002A0004001600070009000A000B000D24
:10066000000E000F00340000001D001B00060019E2
:1006700000050011001000360037003800000000AF
:1006800000E30021522A002C002C002252E000003E
:100690000000000000010001000100010001000154
:1006A0000001000100010001000100010001000142
:1006B0000001000100010001000100010001000033
:1006C0000001000100010001000100010001000122
:1006D0000001000100000000000100010001000114
:1006E0000001000100010000000000000001000105
:1006F00000010001000100010001000100010001F2
:1007000000010001000100010001000100010001E1
:1007100000010001000100000001000100010001D2
:1007200000010001000100010001000100000000C3
:1007300000010001000100010001000100010000B2
:1007400000000000000100010001000100010001A3
:100750000001000100010001000100010001000191
:100760000001000100010001000100010001000082
:100770000001000100010001000100010001000171
:100780000001000100000000000100010001000163
:1007900000010001000100000000000000510052B3
:1007A0000001000100010001000100010009025BDD
:1007B00000030100A0FA090400000103010100097F
:1007C00021110100012244000705810308000109ED
:1007D000040100020300000009211101000122228E
:1007E000000705820320000107050303200001091B
:1007F000040200010300000009211101000122325E
:100800000007058403200001120100020000000817
:10081000464D23000100010203011C03760069001C
:1008200061006C003A00660036003400630032005C
:10083000620033006300000012035600610075007F
:100840006C007400200033003500000018037000B5
:1008500072006F006A00650063007400630061004D
:1008600069006E000000040309040000000000009D
:100870000000000000000000000000000000000078
:1008800000000000000000000000000000007E0FDB
:1008900000D4FFFFFFC70000007800000000000048
:1008A00000002A2B280000000000000000000000CB
:1008B000000000000029000000002C1E342021222E
:1008C00024342627252E362D3738271E1F20212297
:1008D000232425263333362E37381F040506070810
:1008E000090A0B0C0D0E0F10111213141516171800
:1008F000191A1B1C1D2F3130232D3504050607083E
:10090000090A0B0C0D0E0F101112131415161718DF
:10091000191A1B1C1D2F3130354C11241FBECFEF6F
:10092000DAE0DEBFCDBF04B603FE18C08091A0049C
:100930009091A104A091A204B091A3048730904BA0
:10094000A740B04B59F41092A0041092A104109249
:10095000A2041092A304E0E0F8E3099511E0A0E0FE
:10096000B1E0E4E0F9E602C005900D92AE3AB107BD
:10097000D9F724E0AEEAB1E001C01D92A03AB20777
:10098000E1F70E94DF2A0C9447340C940000482FB2
:1009900020919E049091550459E0291302C080E0F3
:1009A000089530E0529FF001539FF00D1124EA5A50
:1009B000FB4F8181681306C08081481303C0858185
:1009C0008111EECF2F5F3F4F2770E7CFE8EDF0E0CA
:1009D00080818E7F80831092E2001092DA00109264
:1009E000E100A0EEB0E08C9181608C9380818F77E4
:1009F000808319BCA7EDB0E08C918E7F8C938081B1
:100A00008F7E808310923E0408952091E4003091FF
:100A1000E50095E6A9012091EC00822F817020FF6E
:100A200006C08091E80080FF06C080E00895209114
:100A3000E80022FD1AC080914B04882389F085309C
:100A400089F08091EB0085FD0FC02091E40030918A
:100A5000E50042175307F9F29150E1F684E008955A
:100A600082E0089583E0089581E0089580914D0427
:100A700087FF13C08091E80082FF06C08091E800E4
:100A80008B778093E80004C080914B048111F2CFF2
:100A9000089580914B048823D9F38091E80080FF6A
:100AA000F8CF8091E8008E77ECCF982F9093E900F3
:100AB000242F762F50E0891731F07091EC002091AF
:100AC000ED005091F00021FD07C09F5F973071F756
:100AD0008093E90081E008953091EB003E7F3093F0
:100AE000EB003091ED003D7F3093ED003091EB0055
:100AF00031603093EB007093EC002093ED00509345
:100B0000F0002091EE0027FDE0CF80E00895B0E0F6
:100B1000A0E0EDE8F5E00C943533C8EDD0E0888135
:100B20008F7E8883E7EDF0E080818160808384E0C0
:100B300082BF81E080933E0488818E7F888302EEAD
:100B400010E0F80110821092DA0081EEC82ED12C4C
:100B5000F601108288818F778883888180688883F6
:100B600088818F7D888319BC10924B0410924C04AD
:100B700010924A041092490490EEE92EF12CF701EC
:100B800080818B7F808388818160888342E060E000
:100B900080E00E945505F60180818E7F8083F801F8
:100BA000808181608083808188608083F70180817B
:100BB0008E7F8083888180618883CDB7DEB7E8E04F
:100BC0000C945133FC018091530490915404861786
:100BD0009707A0F06115710529F49091E8009E77C0
:100BE0009093E80090E06115710551F4911108C0EF
:100BF0008091E80082FF34C080E00895BC01F2CF0C
:100C000080914B048823C1F18530C1F18091E800C7
:100C100083FD30C08091E80082FDEACF8091E8003A
:100C200080FFE1CF8091F3002091F200382F611511
:100C3000710519F02830310558F091E02830310560
:100C400009F090E02091E8002E772093E800CBCFC8
:100C500081918093F100615071092F5F3F4FE7CF81
:100C600080914B04882341F0853041F08091E80069
:100C700083FFBECF81E0089582E0089583E0089568
:100C8000089508958091400408959C014FB7F89409
:100C900080913A0490913B04A0913C04B0913D04B2
:100CA0004FBF821B930B08952FB7F89460913A04BD
:100CB00070913B0480913C0490913D042FBF0895B6
:100CC0002FB7F89480913A0490913B04A0913C0492
:100CD000B0913D042FBF0895A3E0B0E0E2E7F6E055
:100CE0000C943B332091370430913804281739078E
:100CF000A1F09093380480933704E0913504F0918B
:100D00003604309751F024E029839B838A83068040
:100D1000F781E02DCE01019609952396E2E00C942F
:100D20005733A3E0B0E0E7E9F6E00C943B332091C1
:100D300033043091340428173907A1F09093340418
:100D400080933304E0913504F0913604309751F0EC
:100D500023E029839B838A830680F781E02DCE01DF
:100D6000019609952396E2E00C945733E0913504FF
:100D7000F0913604309729F00190F081E02D09952B
:100D8000089580E008954115510511F0FA01099583
:100D90000895DC0160912D0480912E04962F891313
:100DA00001C00895292F30E0F901EE0FFF1FEB5D20
:100DB000FB4F408151814A175B07A1F487E08A9F6E
:100DC000A0018B9F500D11244C575C4F81E0FA011C
:100DD00084839613E6CF2F5F3F4F237033272093F2
:100DE0002D0408952F5F3F4F922F9370D8CF10920C
:100DF000820310928103E4E8F3E08581811102C04F
:100E000014821682379683E0EC3BF807B1F7089519
:100E1000B0E0A0E0EEE0F7E00C9433338FEF9FEF0B
:100E20004430510508F469C04091360341FB8827DE
:100E300080F990E0880F991F42FB002700F910E02D
:100E4000000F111F000F111F802B912B40FBCC2492
:100E5000C0F8D12C8C299D2943FB222720F9C22FD1
:100E6000E0E0DE2F53E0CC0FDD1F5A95E1F78C2B2D
:100E70009D2B44FBAA27A0F9B0E0E4E0AA0FBB1F1A
:100E8000EA95E1F78A2B9B2B45FBEE27E0F9F0E092
:100E9000A5E0EE0FFF1FAA95E1F78E2B9F2B46FBD7
:100EA000222720F930E0B6E0220F331FBA95E1F790
:100EB000822B932B47FB222720F930E03695322FE7
:100EC000222737952795822B932B20913703322F9A
:100ED0003170F32EE82EF92A26952170B22EBB0C24
:100EE000A82EBF28C501BB0CAA0BBB0BFB0180833E
:100EF0009183A283B38390E080E0CDB7DEB7EAE0D0
:100F00000C944F338091590390915A03909316019A
:100F1000809315010895E6E6F2E090E080E067E452
:100F200078E24EE658E22DEB37E27783668351870D
:100F30004087338722879787868701967096883007
:100F4000910599F7089581152CE7920741F42091B6
:100F5000190130911A01232B11F490E080E00895DB
:100F6000FA01811101C0FB010995089580914A029F
:100F7000982F9E7F29F48170826080934A020895A1
:100F80008634E8F381708464F8CFAF92BF92DF9229
:100F9000EF92FF920F931F93CF93DF93082F162F9B
:100FA000E901E42FF0E0E855FC4F611110C0E49135
:100FB0005E2F4E2F4983E8835A83DF91CF911F9193
:100FC0000F91FF90EF90DF90BF90AF900895E62EC5
:100FD000F12C4491D42EE42FF0E026E0829FC00152
:100FE00011242FEF30E0B9010E94F632802F90E0FB
:100FF000880F991F55E5569FD001579FB00D1124BA
:101000008A1B9B0B982F990F890F5901AE18BF08A7
:10101000AE9ED001AF9EB00DBE9EB00D11245B2FD1
:10102000189F80011124012F11275901A01AB10A1C
:10103000AE9E8001AF9E100DBE9E100D1124590171
:10104000A81AB108AE9CC001AF9C900DBE9C900D3B
:101050001124892F9927281B390B2E9FC0012F9F00
:10106000900D3E9F900D1124E92F62307105A1F083
:1010700050F46115710509F49DCF6130710581F05F
:10108000EB2F512F97CF6430710569F080F06630F7
:10109000710509F48FCFF4CFE42F4B2F592F8ACF4E
:1010A000E42F412F87CFEB2F542F492F83CF4B2F86
:1010B0005D2DE12F7FCF80E00895F894E82FE29531
:1010C000EF70F0E031A1282F2F7081E090E001C097
:1010D000880F2A95EAF7982F9095932391A392A1D0
:1010E000892B82A3789408959091360392FF10C0C3
:1010F00041E0282F2471243009F040E031E0282F0E
:101100002871283009F030E0431711F02CE08227D5
:1011100093FF10C041E0282F2471243109F040E0F2
:1011200031E0282F2871283109F030E0431711F001
:101130002CE082273091370330FF10C051E0282F78
:101140002171213009F050E041E0282F287128302A
:1011500009F040E0541711F029E0822731FF10C058
:1011600041E0282F2171213109F040E031E0282FA2
:101170002871283109F030E0431711F029E0822767
:1011800094FD877E089582389105B9F1B0F48133DA
:10119000910509F47DC048F48932910509F46DC0C8
:1011A0008A32910509F47BC008958533910509F4CD
:1011B0005FC08933910509F10895833E9105D9F106
:1011C00038F4803E910529F1823E910579F1089528
:1011D000863E9105D9F1873E910509F43EC0843ED3
:1011E000910541F52091370321FF24C080913603FA
:1011F00084FD19C087EE90E0089520913603237096
:1012000009F05AC02091370323FF14C089E290E00F
:1012100008952091360320FD38C03091370330FF08
:1012200009C024FF43C090E080E008952091360378
:1012300022FDF7CF08952091360322FD3AC0309168
:10124000370330FD39C024FFF5CFEDCF20913603B1
:1012500023FFF0CF24FDE7CFCDCF2091360323FD30
:101260002EC03091370331FFEECF84EE90E0089529
:101270002091360325FFDECFC9CF2091360325FD0F
:1012800021C02091370323FFD5CF89E390E0D2CF4F
:101290002091360326FFCECF8AE290E00895209178
:1012A000360326FFC7CF81E390E0089583EE90E0F8
:1012B000089582EE90E0089580EE90E0089586EE25
:1012C00090E0089585E390E008951F93CF93DF9316
:1012D0000E94C308EC01C11580E5D807F0F5C115DF
:1012E00080E4D80708F09CC0C03ED10520F5CD3C75
:1012F000D10508F082C0C83AD10578F4C53AD105C5
:1013000008F073C0C130D10519F1209709F1C4303C
:10131000D105F0F4D0E0C0E01BC0C33CD105D0F74C
:10132000C85AD0E0CC0FDD1FC95DDE4F0990D881CF
:10133000C02DD4640DC0C11580E2D80708F0D1C01B
:10134000C11581E0D80708F05AC0C83ED10510F792
:10135000CE01DF91CF911F910895C03682E5D80765
:1013600018F5C03482E5D80708F06BC0C03282E5BA
:10137000D80708F05FC0C11582E5D80708F497C008
:101380002C2F2695269580E2289F900111248C2FE2
:101390008370C1E0D0E002C0CC0FDD1F8A95E2F778
:1013A000C22BD32BDD68D4CFC03A82E5D80760F4D6
:1013B000C03882E5D80708F459C0CF71D0E0DC2FDF
:1013C000CC27C46FD06AC4CFC03C82E5D80708F4EC
:1013D00062C0C03E82E5D80708F09CCFDC2FCC2746
:1013E000CC27DF71C06FD06AB3CFC55AD0E0CC5DD7
:1013F000DE4FC881D0E0D064ABCFD065A9CF8D2FB0
:101400000E947408182FCE0199270E94C308C12F8B
:10141000D0E0DC2FCC27CC27DF71C82BD92B98CF7D
:10142000CE0199270E94C308CC27DF70C82BD92B87
:10143000D06A8ECFCF71D0E0DC2FCC27C16FD06ABD
:1014400087CF2C2F26952695277080E2289F900124
:1014500011248C2F8370C1E0D0E002C0CC0FDD1FBF
:101460008A95E2F7C22BD32BDC6872CF2C2F2695FE
:101470002695277080E2289F900111248C2F83707D
:10148000C1E0D0E002C0CC0FDD1F8A95E2F7C22B8D
:10149000D32BDA685DCF8C2F8F710E947408C82F10
:1014A000D0E0DC2FCC27CC27DF71D06251CF8C2F3E
:1014B0008F710E94740855E0D695C7955A95E1F74B
:1014C000CF70D0E0DC2FCC27282F30E084FF05C080
:1014D00044E0220F331F4A95E1F7C22BD32BD0698A
:1014E00037CF8D2F8F710E947408182FCE01992746
:1014F0000E94C308C12FD0E0DC2FCC27CC27DF719E
:10150000C82BD92BD2CF8091E601882331F01092DD
:10151000E6011092E5011092E4010895CF93C82FDF
:101520008091370382FF0CC08091E6018C1741F057
:101530000E9460069093E5018093E401C093E60168
:10154000CF9108959091E601292F282361F080958D
:1015500089238093E601882339F00E9460069093E6
:10156000E5018093E401089590E080E0F8CF809554
:1015700090919F04982390939F0408958095909153
:101580003803982390933803089590913803892B5A
:101590008093380308951092DB011092DA011092C3
:1015A000D901089580915B0390915C03892B89F0A8
:1015B0000E9460062091E4013091E501AC01421BDC
:1015C000530B81E020915B0330915C03421753077A
:1015D00008F480E0817008959091D801292F282384
:1015E00021F0809589238093D8010895E2EBF1E002
:1015F0009191891303C0DF0111971C9291E0E83BA0
:10160000F907B1F70895A2EBB1E0EFEF90E02D916B
:10161000821751F0EF3F19F4211101C0E92F9F5FAC
:101620009630A9F7EF3F09F408950E2E000CFF0B3A
:10163000E055FE4F8283089580919E049091550459
:10164000981301C008958F5F8770FACFA82FA770F5
:1016500023E0969587952A95E1F7FC01EE0FFF1F91
:10166000E80FF91FE60FF71F50E040E080E02191FE
:1016700030E00A2E02C0369527950A94E2F72170D1
:101680003327042E01C0220F0A94EAF7822B4F5F02
:101690005F4F4330510559F70895903FC9F094309A
:1016A00080F48B30A8F4282F30E06DEB71E0A901B5
:1016B000EBE09E9F400D511D1124CA010E94260B94
:1016C00008959C5F923020F46AEB71E090E0F6CFD1
:1016D00080E00895262F277091E001C0990F2A9588
:1016E000EAF723E0769567952A95E1F7FB01EE0F7F
:1016F000FF1FE60FF71FE40FF51F50E040E0682FD3
:1017000070E08191DF0111979B01042E02C0369594
:1017100027950A94E2F72170219528272923282765
:101720002C934F5F5F4F4330510559F70895282F91
:10173000862F903F79F0943070F42B3058F4622F5C
:1017400070E02BE0929F600D711D11244DEB51E074
:101750000E946A0B08959C5F9230E0F7622F70E060
:101760004AEB51E0F5CF8093F50108959091F50192
:1017700021E030E0F90101C0EE0F8A95EAF7D901C6
:1017800002C0AA0FBB1F6A95E2F7EA2B01C0220F25
:101790004A95EAF7892F8E23E81305C0292B822F5B
:1017A0000E94B30B089520952923F9CF21E030E062
:1017B00001C0220F8A95EAF720958091F5018223D6
:1017C0000E94B30B08959091DB018095892380934B
:1017D000DB01282F277069F4891759F0909137039E
:1017E00092FF07C08695869586950E94D60B0E942B
:1017F000CB0A089521E030E001C0220F8A95EAF774
:101800008091F501822B0E94B30B089590913703CC
:1018100092FF10C098E0899F90011124622B609381
:10182000DB010E94FA0B0E9460069093DA0180931C
:10183000D90108950E94FA0B08958093E701089555
:1018400092959F70963091F058F4925F9F7092300D
:1018500058F4803F19F030F4883E30F481E0089568
:101860009A5FF4CF843FD1F380E00895883EB0F3CF
:10187000813FD1F7F3CF9C013A9521153F4150F5B7
:10188000FC01EE27F170BC0166277270AC014427A1
:1018900054709C012227387094FF0EC080E1EF2B1A
:1018A00009F480E0672B09F08062452B09F0806421
:1018B000232B89F08068089581E0EF2B09F480E004
:1018C000672B09F08260452B09F08460232B19F007
:1018D0008860089580E008950F931F93CF93DF935E
:1018E0008B01EA0190914B04943061F58093E900FB
:1018F0008FEF9091E800815095FD06C095ED9A9587
:10190000F1F700008111F5CF8091E80085FF1AC042
:101910000E940505811111C08091E80085FD06C077
:101920008091E8008E778093E800F2CFF8018191F2
:101930008F018093F100219779F78091E8008E77ED
:101940008093E800DF91CF911F910F91089543E0BC
:1019500050E0BC0184E00E946C0C0895CF93DF93AB
:10196000EC0148E050E0BC0181E00E946C0C88E092
:10197000FE01A1E4B4E001900D928A95E1F7DF91B8
:10198000CF91089581E08093E00080E28093D800B9
:101990001092C9008FE19EE40197F1F700C00000AA
:1019A00087E090EBDC018093A0049093A104A093C6
:1019B000A204B093A30488E19CE00FB6F894A89524
:1019C000809360000FBE90936000FFCF019708F4F2
:1019D0000895EFE9FFE03197F1F700C00000F6CF7E
:1019E00080914A0280FD0AC0E6E2F2E01182108294
:1019F0001282339652E0EA34F507C1F7559A3BB1AB
:101A00003F7D2BB120624FB7F89486E292E0FC0153
:101A10005191CF0168E02BB9000000C057FF3BB9DE
:101A2000550F000000C000C000C03BB900C06A955F
:101A300091F7F2E08A349F0751F74FBF8FE594E0AA
:101A40000197F1F700C000000895EF92FF920F9305
:101A50001F93CF93DF938C01C6E2D2E0F12CE12CEF
:101A6000F801948160914C0280914B02F6E0EF16F0
:101A7000F104ECF49923E9F09E0140914D020E949B
:101A8000C5072FEFE21AF20A23968CE0E816F1045C
:101A900039F70E94F00CF801848190E00196817082
:101AA00099278483CDB7DEB7E6E00C9453339923AE
:101AB00019F39E0140E0E3CF0F931F93CF93DF9381
:101AC000C6E2D2E0FE01118210821282339682E0D9
:101AD000EA34F807C1F710E000E080912502082EF3
:101AE000000C990B081719078CF180911401082E2E
:101AF000000C990B801791074CF19E0140914D020B
:101B000060914C0280914B020E94C5070F5F1F4FEE
:101B100023960C30110509F70E94F00C80911301F7
:101B200090912502980F9093250220911401280F7F
:101B300020931401121614F49B301CF081958093AD
:101B40001301DF91CF911F910F910895198218828F
:101B50001A82DCCFB0E0A0E0E0EBFDE00C9434337F
:101B6000FC018281DD24DA9480FD02C0DD24D3945F
:101B700006E212E0D0E0C0E02CE0B22EF8011182C3
:101B80001082128294E0E92EF12CC12C8091240263
:101B90008C0D8D30C4F16B2D0E94E832892F082EF8
:101BA000000C990B8C179D0791F480914D028E9D2E
:101BB000A0018F9D500D112455954795559547953A
:101BC000980160914C0280914B020E94C507CD0C98
:101BD000F1E0EF1AF108D1F621960D5F1F4FCC30DE
:101BE000D10561F60E94F00C8091240291E0D91297
:101BF00010C081110CC08BE080932402CDB7DEB7FA
:101C0000E9E00C94503387FFCACF845FC8CF81507E
:101C1000F3CF90E00196BE010E940A33EDCFEF9220
:101C2000FF921F93CF93DF93EC0186E2E82E82E0D0
:101C3000F82E10E08C81970140914D0260914C028A
:101C4000810F0E94C5071B5E83E0E80EF11C1C3F5C
:101C500089F70E94F00C9A818C8190FF08C08F5FF9
:101C60008C83DF91CF911F91FF90EF900895815069
:101C7000F7CF90914A0290FF0CC0E6E2F2E0818338
:101C800060834283339692E0EA34F907C1F70E94F9
:101C9000F00C0895A3E0B0E0E0E5FEE00C943B33E7
:101CA00090914A0290FF0AC09E012F5F3F4F0E9411
:101CB000C5074B8169818A810E94390E2396E2E033
:101CC0000C945733CF93DF93EC01EAE4F2E04381C5
:101CD00062818C810E944A0E8C818F5F8C83DF91A0
:101CE000CF910895CF93DF93EC01EC81F0E0E355C1
:101CF000FB4F4491EAE4F2E0628181810E944A0E46
:101D00008C818F5F8C83DF91CF910895CF93DF9388
:101D1000CDE5D2E060E0CE010E940B342196C115E2
:101D200084E0D807B9F7DF91CF9108950F931F93FF
:101D3000CF93DF93142F022F8430F0F461111CC075
:101D400094E0899FE0011124C757DE4F82E090E0C4
:101D5000442311F090E080E0632F8C0F9D1F0E94C0
:101D60000B3483E090E0112311F081E090E0602FCC
:101D70008C0F9D1F0E940B34DF91CF911F910F910B
:101D800008951F93CF93DF93122F8430E0F46430D3
:101D9000D0F44B30C0F4C42FD0E0CC0FDD1F96E15F
:101DA000699FC00DD11D112498E5899FC00DD11DDB
:101DB0001124632FCE0189960E940B34612FCE012E
:101DC0008A960E940B34DF91CF911F910895CF9393
:101DD000C82F6FEF811167E985E290E00E940B3414
:101DE0006FEFC11164E886E290E00E940B346FEF60
:101DF000C1116EE087E290E00E940B34CF9108950C
:101E00009B01883070F49AE0899FB00111246354DB
:101E10007E4F4AE050E0C9010E94D73390E080E055
:101E200008958FEF9FEF0895AAE0B0E0EAE1FFE0A8
:101E30000C943B339C0137552F3F310509F068F472
:101E4000BE016F5F7F4F0E94000F892B31F489859F
:101E50009A852A96E2E00C94573380917103909111
:101E60007203F7CFFF920F931F93CF93DF93F42E5C
:101E7000843040F5611126C024E0829F8001112446
:101E800007571E4F82E090E0442311F090E080E07D
:101E9000800F911F0E94E733C82FD0E0DC2FCC27A2
:101EA00083E090E0FF2011F081E090E0800F911F2F
:101EB0000E94E7339E01282BC901CDB7DEB7E5E0CC
:101EC0000C94543390E080E0F8CF0F931F93CF939E
:101ED000DF93843030F5643020F54B3010F5C42F9B
:101EE000D0E0CC0FDD1F26E1629FC00DD11D112473
:101EF00038E5839FC00DD11D1124CE0189960E9423
:101F0000E733082F10E0102F0027CE018A960E9499
:101F1000E7339801282BC901DF91CF911F910F91D1
:101F2000089590E080E0F8CF462F672F20911A02A5
:101F300030911B02232BC9F4703F39F4403FA9F4C0
:101F400080915202909153020895743038F44B30CE
:101F500060F4843050F40E94650F08957D3F41F491
:101F6000411103C041E0843048F090E080E00895E2
:101F70007C3FD9F74111F9CF8430B8F760E00E9477
:101F8000320F0895CF92DF92FF920F931F93CF935A
:101F9000DF936C010091F5018091E701082BC3E00C
:101FA000D0E010E0FC2EC8010C2E02C0959587955C
:101FB0000A94E2F780FD0CC02197A0F7F12C8F2D39
:101FC000DF91CF911F910F91FF90DF90CF900895F7
:101FD000B6018C2F0E94940F0E946509019761F34E
:101FE000EECFCF93DF93EC010E94C20FBE010E949F
:101FF000940F0E946509DF91CF910895FC018481BF
:10200000882371F087819085009729F00E946509E7
:102010000E94200C0895808191810E94F10FF8CFD9
:1020200080E00895A6E0B0E0E8E1F0E10C943A33F6
:1020300049835A8349815A819923A1F0222391F03F
:10204000CA010E94C20F182F682F89819A810E94AD
:10205000970B69817A81812F0E94940F2696E3E085
:102060000C945633CA010E944D0B182FF2CFFC017D
:10207000262F87819085009741F4408151816281AC
:102080007381848195810E94121008950F931F938C
:10209000CF93DF9309E513E0C9E9D1E0CE010E94B7
:1020A000E733F80161918F01681719F0CE010E94A2
:1020B0000B342196CD3BF1E0DF0781F7DF91CF9123
:1020C0001F910F9108950F931F93CF93DF9309E50D
:1020D00013E0C9E9D1E0CE010E94E733F801819312
:1020E0008F012196CD3BF1E0DF07A9F7C7EBD5E0E3
:1020F000FE0185919491009711F0FC0109952C96B1
:10210000F6E0C734DF07A1F7DF91CF911F910F9160
:10211000089585E290E00E94E733873989F486E2EA
:1021200090E00E94E733843859F487E290E00E94FF
:10213000E73391E08E3009F090E0892F81700895A7
:1021400080E0FCCF9091370392FB222720F92817DB
:1021500079F080FB92F99093370360913603709188
:10216000370384E090E00E94293482E00E94E30B70
:102170000895DA019C012E5F3F4FF901459154917A
:10218000F90125913491A217B30758F0FC01349658
:10219000859194910E94C7330E94461090E080E0A0
:1021A00008958FEF9FEF0895DB01FC013296259192
:1021B00034914217530758F0FC013496659174919D
:1021C000A901CD010E94C73390E080E008958FEF10
:1021D0009FEF0895AAE0B0E0E0EFF0E10C94353312
:1021E000E6EEF2E080E5DF011D928A95E9F7E4E88A
:1021F000F3E088E3DF011D928A95E9F786EEC82EA9
:1022000082E0D82E7F010DE012E0F701D182C0827A
:102210004AE050E0B801CE0101960E94D73388E031
:10222000FE013196D60101900D928A95E1F78985DC
:102230009A85D70113969C938E931297BAE0CB0E92
:10224000D11CE7E0EE0EF11C065F1F4F0D35F2E0EA
:102250001F07D9F62A96E8E00C945133B0E0A0E0CD
:10226000E4E3F1E10C94313349015A016B017C0143
:102270000E94B6078401A4016A2D7B2D88E090E0BE
:102280000E941D3494014A2D5B2DB601C70100E266
:102290000E947D33622F84E290E00E940B34CDB720
:1022A000DEB7ECE00C944D33A3E0B0E0EAE5F1E1F9
:1022B0000C942E33F82E762EE42E622E90914A0244
:1022C00090FF2EC0E92FE695AE2FB0E0A458BE4F88
:1022D0008C91809322029E7F923031F59E012F5F78
:1022E0003F4F8F2D0E94C5074B8169818A810E94D3
:1022F000390EF0924B0270924C02E0924D02662031
:1023000079F020914A0260914E0270914F023F2D68
:10231000472D5E2D80915002909151020E942E1106
:102320002396EFE00C944A33823019F4E0904D028A
:10233000E0CF863019F4F0904B02DBCF8930D9F32F
:102340008831B9F6E8518E2F8170582EE695F0E06D
:10235000E855FB4FE4910E2F10E086E2C82E82E094
:10236000D82EB12CA12C9CE0892E912CC501B40152
:102370000E94F6328F2D511013C0860F96014E2DFC
:10238000672D0E94C507A00EB11E83E0C80ED11CA8
:102390008AE4C81682E0D80649F70E94F00CA9CF5B
:1023A000861BECCFEAE4F2E0438121E1421B08F412
:1023B00040E021E0628181810E9454110895EAE4A5
:1023C000F2E0438121E1420F08F44FEF21E0628106
:1023D00081810E9454110895EAE4F2E0628121E1D2
:1023E000621B08F460E021E0438181810E94541166
:1023F0000895EAE4F2E0628121E1620F08F46FEFF0
:1024000021E0438181810E9454110895EAE4F2E0C1
:10241000818121E04381628188500E945411089596
:10242000EAE4F2E0818121E043816281885F0E94D9
:102430005411089580914E02882319F081508093A1
:102440004E0220914A0230914B0240914C02509131
:102450004D0260914E0270914F0280915002909116
:1024600051020E942E11089580914E02833018F47B
:102470008F5F80934E0220914A0230914B0240912F
:102480004C0250914D0260914E0270914F0280912A
:102490005002909151020E942E11089590914A028B
:1024A00090FF34C09170811132C0926090934A02C3
:1024B000662391F020914A0230914B0240914C02E8
:1024C00050914D0260914E0270914F0280915002E6
:1024D000909151020E942E1160914A02669570E01F
:1024E0004BE050E088E091E00E94AD33892BB1F0E1
:1024F0001092230281E080931F0220E040914D0260
:1025000060914C0280914B020E94541108958332D5
:1025100010F09464CBCF880F982BC8CF81E08093C4
:1025200023020E94600690931D0280931C02E2CF5A
:1025300080914A028695815009F482E261E00E940E
:102540004E12089580914A0286958F5F833208F07B
:1025500081E061E00E944E12089590914A0290FF3E
:1025600008C09695981728F0961718F40E94A212A2
:10257000089561E00E944E120895EAE4F2E083E0DB
:10258000808311828FEF828383831482758123E09D
:1025900030E04FEF5FEF60E0868197810E942E115F
:1025A000089590E080E00E94F533863E9E4F19F436
:1025B0000E948910089580E00895A8E0B0E0E3EE5D
:1025C000F2E10C9431338E010F5F1F4F88E0F80168
:1025D00011928A95E9F79DE5E92E91E0F92E6801BF
:1025E000AA24A394B12CF70181917F018F3F09F4B4
:1025F00046C0F894E82FE295EF70F0E021A18F70CB
:10260000A50102C0440F551F8A95E2F7CA01922F17
:10261000982B91A392A18095892382A3789400C0DE
:10262000E1E6F1E021E030E0912C812C41914F3F37
:1026300009F467C0A42FA295AF70B0E090968C917A
:1026400090E04F7002C0959587954A95E2F780FD1E
:1026500058C0C901882A992A220F331F51E0EC364D
:10266000F50721F7F701319780818F3F11F00E9424
:102670005D0880EA8A95F1F7F60191828082F2E0A6
:10268000CF0ED11C41E6E41641E0F40609F0ABCFD1
:1026900048E050E0B8018DEE91E00E94BA33892BFA
:1026A00099F188E0F801ADEEB1E001900D928A95C4
:1026B000E1F781E08093EC010E9460069093EB01CA
:1026C0008093EA018091EA019091EB010E94450616
:1026D0000597F0F048E050E06DEE71E082E192E0A5
:1026E0000E94BA33892BC9F088E0EDEEF1E0A2E157
:1026F000B2E001900D928A95E1F781E01092EC0131
:1027000008C090E080E0A6CF8091EC018111DACF83
:1027100080E02896ECE00C944D3380E0EFCF809180
:10272000380390919F04892B8093B0018091E6013A
:10273000882309F180915B0390915C03892B29F038
:102740000E94D20A81110E94830A8091B001909167
:10275000E601892B8093B00120E082EB91E0FC013F
:102760003191CF0131112F5FF1E0883B9F07B9F71D
:1027700021110E94830A48E050E06CED71E080EB8B
:1027800091E00E94BA33892BA9F088E0E0EBF1E0F8
:10279000ACEDB1E001900D928A95E1F7E09135043E
:1027A000F0913604309731F00280F381E02D80EB18
:1027B00091E009950895CF93DF93EC014A855B85FD
:1027C0006E857F850E94C3068B810E94B70A8C812B
:1027D0000E94BE0A0E948F1386E0FE0111928A9524
:1027E000E9F7DF91CF910895CF93DF93EC018D81CD
:1027F00081FD14C082608D8380919F049B81892B11
:1028000080939F048C810E94C50A0E948F13488583
:1028100059856E857F85CE010E94C30610923204D1
:10282000109231048D8180FD03C0CE010E94DB1324
:10283000DF91CF91089580911701877F80931701D1
:1028400082E00E94B70A8091170184FF06C08F7E44
:102850008093170182E00E94C50A8091170185FFCD
:1028600006C08F7D8093170180E20E94C50A0E94F6
:102870008F13089510923803E2EBF1E086E0DF0158
:102880001D928A95E9F790E080E00E94910690E021
:1028900080E00E946C0610929F040E948F1308959E
:1028A000AAE2B0E0E6E5F4E10C943A338DE494E07A
:1028B0002091F100DC012D93CD01B4E085359B071B
:1028C000B9F780914E04833009F472C0B8F48130B6
:1028D00009F449C0823009F4B3C08091E80083FF55
:1028E00096C280914D0490914E049A3008F08FC2A8
:1028F000E92FF0E0E75BFB4C0C941E338A3009F4BF
:102900008EC08B3009F471C0893039F780914D0445
:10291000813219F78091510490915204009711F07F
:102920000297D9F68091E800877F8093E800809134
:10293000E80082FF38C09091F3008091F200029786
:1029400031F48091F100813011F0863021F48091D2
:10295000F100809340048091E8008B778093E80039
:102960000E943605BACF80914D04813A09F0B5CF67
:102970008091E800877F8093E800809151049091D6
:102980005204892B61F468E081E494E070E00E94D5
:10299000E2058091E8008B778093E8009ECF60E0AD
:1029A00090E080E0F3CF80914B048111C0CF95CFB0
:1029B00080914D04813A09F090CF8091510490911B
:1029C0005204892B09F089CF8091E800877F80939A
:1029D000E8008091E80080FFFCCF80911B0180938C
:1029E000F1008091E8008E77B9CF80914D0481325B
:1029F00009F073CF8091510490915204892B09F012
:102A00006CCF8091E800877F8093E8000E943605B4
:102A100080914F0480931B010E943A145ECF8091F5
:102A20004D04813209F059CF8091E800877F80936F
:102A3000E8000E9436058091500480933F044DCFFA
:102A400080914D04813A09F048CF8091E800877F5A
:102A50008093E8008091E80080FFFCCF80913F04E4
:102A6000BECF803899F0823809F0D1C180915104ED
:102A70008F70873008F0CBC18093E9008091EB0024
:102A800085FB882780F91092E90006C080914904EF
:102A900090914A04911182609091E800977F909301
:102AA000E8008093F1001092F1008091E8008E77A9
:102AB000AAC1882309F498C1823009F0A8C1809185
:102AC0004F0481119BC1809151048F702FEF280F0B
:102AD000263008F09CC18093E9002091EB0020FF94
:102AE0008DC1933031F48091EB0080628093EB00D4
:102AF00085C19091EB0090619093EB0021E030E074
:102B000001C0220F8A95EAF72093EA001092EA00AA
:102B10008091EB008860EACF811179C110914F0458
:102B20001F778091E3008078812B8093E300809170
:102B3000E800877F8093E8000E9436058091E800D6
:102B400080FFFCCF8091E30080688093E30082E007
:102B5000111183E080934B045AC18058823008F0F1
:102B600056C120914F04309150042C3DE3E03E07C4
:102B7000A1F583E08A838AE289834FB7F894DE0166
:102B8000139620E03EE051E2E32FF0E0509357002F
:102B9000E49120FF03C0E295EF703F5FEF708E2F4E
:102BA00090E0EA30C0F0C7968D939D932F5F24315B
:102BB00059F74FBF8091E800877F8093E8006AE271
:102BC00070E0CE0101960E94E2058091E8008B77CB
:102BD0008093E8001CC1C096E7CF8091510490918A
:102BE0005204432F55274330510509F44AC078F564
:102BF0004130510509F485C08BE590E0EDEAF7E03E
:102C00004230510509F003C12091E800277F20934D
:102C1000E80020915304309154048217930708F47C
:102C20009C0140E02115310509F070C041116EC0D2
:102C30008091E80082FDC9CF80914B04882329F25E
:102C4000853019F28091E80083FFF2CFBECF413288
:102C5000510509F447C04232510509F0D8C083300C
:102C6000910508F0D4C0FC01EE0FFF1FEE55FE4F9A
:102C70000190F081E02D81569E4FDC018C9190E017
:102C80001DC0332721303105E9F02115310579F0D8
:102C900022303105F9F02330310509F0B8C0EAE1FE
:102CA000F8E0E4918E2F90E0EAE1F8E007C0E6E674
:102CB000F8E0E4918E2F90E0E6E6F8E0009709F462
:102CC000A6C0A2CFECE4F8E0E4918E2F90E0ECE413
:102CD000F8E0F4CFE8E3F8E0E4918E2F90E0E8E349
:102CE000F8E0ECCF8330910508F091C0880F991F70
:102CF000FC01E855FE4F0190F081E02D89E090E065
:102D000083CF82E190E0E8E0F8E07ECF80914B0451
:102D1000882309F45ACF853009F457CF8091E80011
:102D200083FD53CF8091E80082FD82CF8091E8003F
:102D300080FF78CF9091F3008091F200211531054A
:102D400019F08830910550F041E0089709F040E013
:102D50008091E8008E778093E80064CF449140939F
:102D6000F1003196215031090196E8CF803809F001
:102D70004EC08091E800877F8093E80080914C04EA
:102D80008093F10092CE811142C010914F04123015
:102D9000F0F58091E800877F8093E80010934C0461
:102DA0000E943605112311F084E005C08091E300F4
:102DB00087FDFACF81E080934B0442E061EC81E033
:102DC0000E94550542E261EC84E00E94550542E212
:102DD00061EC82E00E94550542E260EC83E00E94D3
:102DE000550580914B0413C080914F04813079F4D4
:102DF00081E0933009F080E080934A041092E9006A
:102E00008091E800877F8093E8000E9436058091DA
:102E1000E80083FF0AC08091E800877F8093E80084
:102E20008091EB0080628093EB00AA96E3E00C9423
:102E30005633E9E5F3E0128E138E8FEA90E091832A
:102E4000808385E0848F28E833E13383228322E383
:102E500030E0378B268B28EC30E0318F208F158EB9
:102E6000178E168E20E530E031A320A382A30E94A6
:102E700046100E943A141092370310923603E7E38B
:102E8000F3E0808184608083609136037091370322
:102E900084E090E00E9429340E9463100895A4E128
:102EA000B0E0E5E5F7E10C942E33C0901901D09025
:102EB0001A0181E090E090931A01809319018DE945
:102EC000E82E87E0F82E9DE3A92E96E0B92E10E0BB
:102ED000450100E015C0F30125913491452D602F87
:102EE000812F0E94C10E82E0680E711C5394EBE0AA
:102EF0005E12F1CFF6E18F0E911C0F5F043019F0D6
:102F00003401512CE8CFF7012591349141E060E084
:102F1000812F0E94960EF70132962591349140E060
:102F200060E0812F0E94960E84E0E80EF11C1F5F86
:102F3000E8E5AE0EB11C143009F0CACF0E94191793
:102F40001A8219821C821B821E821D8218861F8291
:102F500088EC90E09A8789870DEB11E04AE050E019
:102F6000B801CE0101960E942F34065F1F4F0D302D
:102F7000F2E01F0799F77E018BE0E80EF11C8AE072
:102F8000F70111928A95E9F74AE050E0B801C701CC
:102F90000E942F34065F1F4F0D35F2E01F07A1F787
:102FA000D0921A01C09219016496EFE00C944A3352
:102FB00080E00E94E70E60E088E290E00E940B341F
:102FC0000E944F170E94860E81E00E94E70E08952E
:102FD000CF92DF92EF92FF928FEF9FEF4430510537
:102FE00008F46CC0FB01C080D180E280F3800E94B5
:102FF0003A1480913603C0FA80F9B701A60176959C
:1030000067955795479540FB81F9B701A60122E0E6
:1030100076956795579547952A95D1F740FB82F9A4
:10302000B701A60133E076956795579547953A9590
:10303000D1F740FB83F9B701A601E4E076956795E7
:1030400057954795EA95D1F740FB84F9B701A6015A
:10305000F5E07695679557954795FA95D1F740FB3A
:1030600085F9B701A601A6E076956795579547952E
:10307000AA95D1F740FB86F9B701A601B7E076958E
:10308000679557954795BA95D1F740FB87F9809397
:10309000360380913703D0FA80F9D1FACC24C0F8F6
:1030A000C0FA81F98093370360913603709137033A
:1030B00084E090E00E94293490E080E0FF90EF905F
:1030C000DF90CF9008950E943A142FEF84E39CE0A4
:1030D000215080409040E1F700C0000088E19CE072
:1030E0000FB6F894A895809360000FBE909360008F
:1030F000FFCF882321F00E94B70A0E948F13089502
:10310000882339F090919F04982B90939F040E94FC
:103110008F130895882321F00E94BE0A0E948F1306
:103120000895882321F00E94C50A0E948F130895F4
:10313000882309F44DC0823879F40E94B60681FFD5
:1031400047C089E30E94030B0E948F1389E30E940A
:10315000F60A0E948F130895833859F40E94B60628
:1031600080FF36C083E50E94030B0E948F1383E526
:10317000EECF843859F40E94B60682FF29C087E456
:103180000E94030B0E948F1387E4E1CF9CEF980FFE
:10319000913AE8F290E2980F983050F4877091E0FD
:1031A00001C0990F8A95EAF7892F0E94BE0AD1CFF4
:1031B0009BE5980F933028F490E080E00E94910600
:1031C0000895885A8B3120F490E080E00E946C06CC
:1031D0000895CF93DF93EC010E949818CE010E94CE
:1031E0003B0C9E01205E31092830310510F0CD2BBB
:1031F00029F40E948A18DF91CF9108950E947918CE
:10320000FACFCF93C82F8823C9F08238C9F40E941F
:10321000B60681FD13C089E30E94030B0E948F1341
:103220002FEF87EE93E0215080409040E1F700C0FF
:10323000000089E30E94F60A0E948F13CF9108953F
:103240008338A1F40E94B60680FDF8CF83E50E9482
:10325000030B0E948F132FEF81EE94E021508040EA
:103260009040E1F700C0000083E5E4CF8438A1F48A
:103270000E94B60682FDE2CF87E40E94030B0E9403
:103280008F132FEF81EE94E0215080409040E1F7C2
:1032900000C0000087E4CECF8CEF8C0F813A70F431
:1032A000E2EBF1E088EB91E02191C21779F18E1702
:1032B0009F07D1F78C2F0E94030BBECF80E28C0FAB
:1032C000883048F4C77081E001C0880FCA95EAF7DA
:1032D0000E94C50AB1CFEBE5EC0FE33040F4F0E01B
:1032E000EC5DFE4F808190E00E949106A7CFC85A06
:1032F000CB3108F0A3CFEC2FF0E0EE0FFF1FE95D1C
:10330000FE4F808191810E946C0698CF8C2F0E9485
:10331000F60A0E948F13CECF1F93CF93DF93182FFF
:10332000C0917903D0917A03893321F0C09177035A
:10333000D0917803812F0E940119209739F4812FB1
:103340000E949818DF91CF911F9108958FE99FE017
:103350000197F1F700C000002197EFCFB0E0A0E0A7
:10336000E4EBF9E10C943333EC018AE0A82E2881D8
:10337000222309F48FC02130C9F599818A819130C7
:1033800021F422960E948C1905C0923029F42296CD
:103390000E9401192196EBCF933021F422960E94CE
:1033A0009818F8CF943011F02196F4CF229630E09F
:1033B00020E0AE014F5F5F4F8053990B8A3091053B
:1033C00050F02150310930F38FE99FE00197F1F778
:1033D00000C00000F6CFA29EB001A39E700D112484
:1033E0009C01260F371F8981EA01E3CFE22FF0E02D
:1033F000E656F74FB490822F86958695869590E095
:10340000FC01E657F74FE4902770F12C022E02C022
:10341000F594E7940A94E2F731E0E322FF24FC01FB
:10342000E658F74FC490D12C022E02C0D594C79411
:103430000A94E2F731E0C322DD24FC01E659F74F9C
:10344000049110E002C0159507952A95E2F70170E6
:103450001127E114F10419F081EE0E940119C11441
:10346000D10419F086EE0E9401198B2D0E948C194F
:10347000C114D10419F086EE0E949818E114F104E9
:1034800019F081EE0E9498180115110509F482CFF8
:103490008CE278CFCDB7DEB7EAE00C944F33CF9310
:1034A000DF93EC010E943B0C9E01205E3109283025
:1034B000310510F0209741F40E9491188C2F0E9442
:1034C0000119DF91CF9108950E948018F7CF6623EC
:1034D00029F020919F04226020939F049C01305288
:1034E0002115304308F499270E944F1A0895B0E03F
:1034F000A0E0EDE7FAE10C9435336C018B01E42E8A
:103500008091170182FF87C0C0917F03D091800313
:10351000CC15DD0521F0C114D10409F07CC08091E7
:1035200017018B7F8093170181FD6EC080917D0311
:1035300090917E03A801481B590B81E02091150151
:10354000309116014217530708F480E08170F82E7D
:1035500080911701F0FA81F980931701FE0183E051
:10356000F695E7958A95E1F7EE71FF27E75CFC4F4A
:1035700020813181AE014F70552781E090E002C07B
:10358000880F991F4A95E2F7FF2009F43FC0822B6C
:10359000932B918380838091380381FF08C08091B1
:1035A000170180618093170182E00E94BE0A80911A
:1035B000380385FF08C0809117018062809317014E
:1035C00080E20E94BE0A6F2DCE010E94671AEE2093
:1035D00031F08091740385FF02C086FF30C0809176
:1035E0007703909178030E94E60C80917F0390917D
:1035F00080039C0130522115304308F499270E9422
:10360000E9180E941B1417C081E0A0CF8095909507
:1036100082239323BECFC601905281159043A0F41C
:10362000C60199270E94E91880917F039091800339
:103630008C159D0531F310937E0300937D03CDB768
:10364000DEB7E8E00C945133C601ECCFA4E0B0E063
:10365000ECE2FBE10C9431337C01DC0114968C919B
:10366000882309F4DDC261E0C7010E9437108C0194
:10367000F7018581882319F18091310490913204FA
:103680000097E9F008171907D1F09927E4E0880FAF
:10369000991FEA95E1F7FC01E559FD4F208124606F
:1036A00020838A599D4FDC010D931C930E94F413D3
:1036B00010929F0461E0C7010E9437108C01F7014E
:1036C0008581882309F4B1C0980137572038310526
:1036D00008F0ABC0D02EFFE0F01708F491C28FEFD6
:1036E00093E00E94E73381118BC20DE512E0D11007
:1036F00036C019821A821B821C8299249A9468010E
:103700003FEFC31AD30AC8010E94E73389831A82A4
:10371000882309F475C2813009F081C0580142E064
:10372000A40EB11CC6010E94E733C82E8A838823E9
:1037300009F466C2C5010E94E733D82E8FEF8C0DC5
:103740008330D8F4580153E0A50EB11CDB82DD2094
:1037500021F0CE0101960E94AE198501D0CF01154E
:1037600024E0120709F44CC2C8010E94E73381111A
:1037700001C0DA940F5F1F4FBACF8BEF8C0D8330EF
:1037800030F5C8010396DB825C01DD2031F358017E
:10379000A4E0AA0EB11C0E94E7338C838823E9F2CF
:1037A0008B819C818130BFEF9B0710F0982F882779
:1037B000E6E0CE1631F0F7E0CF1631F00E94362861
:1037C000CCCF0E941128C9CF0E949827C6CF24E0F1
:1037D000C212C3CF580134E0A30EB11CC801039636
:1037E0000E94E733DD2009F40BC2882309F408C2E4
:1037F0008150990B989E9001999E300D11244D2D6A
:103800004150550BCA01820F931F019708F4A5CFB1
:10381000AFE9BFE01197F1F700C00000F6CFCE018D
:1038200001960E94AE19560198CF6801E7E5DE1AAD
:10383000811179C0FFEFCF16D10411F008F079C0E3
:103840006CE572E08C2D0E94000F892B29F5C601D2
:1038500064E0880F991F6A95E1F7FC01EA59FD4F72
:103860002281213009F04CC020915C0230915D0230
:10387000232B91F020915E0230915F02232B61F0A7
:103880002091600230916102409162025091630286
:10389000242B352B232BE1F1F801FF2784E0EE0FD9
:1038A000FF1F8A95E1F79F012A593D4F6901D70112
:1038B00015968C91E559FD4F908180FB90F990838E
:1038C00081117FC0D6011C964D915C911D971E966B
:1038D0006D917C91C6010E94C306F601858181FF2E
:1038E00028C0C6010E94DB138091310490913204FC
:1038F00008171907F1F4109232041092310419C01C
:10390000223051F62091600230916102232B21F286
:10391000FC01E559FD4F20812E7F20838A599D4F60
:103920000E94F413B9CF2FEFC216D10409F008F4A6
:10393000B3CF8091740380FF32C00E9460066C0197
:10394000D70115968C91882309F47DC080911701C9
:1039500082FF08C022E032E040E0B60190E080E063
:103960000E94771A0431BCE71B0709F468C00531CF
:10397000ECE71E0709F458C00331FCE71F0729F4E0
:1039800080911701816080931701C80190528115C1
:10399000904308F066C01092800310927F03F701F5
:1039A00085818111D8C4809138038272F801E05278
:1039B000F847E531F10508F0CAC1ED5AFB4C0C940B
:1039C0001E330E9460069093010280930002D6018C
:1039D00012968C9112978F5F12968C93129780910A
:1039E0009F0490913803892B13968C9313978091A1
:1039F000E60114968C93149716964D915C91179747
:103A00001E966D917C91C6010E94C306F6018581C8
:103A100081FF07C090E080E09093310480933204EE
:103A200088CF902F812FF8CF90911701892F8E7F0B
:103A300090FF8160809317010E941B14A6CF809194
:103A400017018E7FF7CF809117018F7E013E110500
:103A500031F0053E1105C9F4809117018F7D8093E7
:103A600017018091170180FF9ACFD70115968C918D
:103A70000832110500F50E31110508F06DC0043053
:103A8000110558F5811187CF8ACFC8019052811551
:103A9000904338F78091170182FF81CF80917603A0
:103AA00081FD7DCF22E032E040E0B60190E080E091
:103AB0000E94771A74CF0933110558F40D3211059D
:103AC00018F40B321105F1F69091740392FDDACFE0
:103AD00008C004361105C1F3D5CF9091740394FD4D
:103AE000D1CF882309F4BCC08091E60190913803BE
:103AF000892B8D7FB1F11092800310927F0380910A
:103B0000740381FD2EC0F80153E0F695E7955A95B0
:103B1000E1F7EE71FF27E75CFC4F98012F70332728
:103B200081E090E002C0880F991F2A95E2F7809506
:103B3000909520813181822393239183808360E05B
:103B4000C8010E94671A8091E6018D7F0E948E0A4B
:103B500082E00E94E30B54C09091740393FD92CFD6
:103B6000C0CF89E0F701A2E0B2E001900D928A9502
:103B7000E1F7109207021092050210920402809160
:103B80007F03909180030817190709F04DC0209119
:103B9000740325FF49C03091170131FF02C026FF91
:103BA00043C020917D0330917E035601A21AB30ACF
:103BB000B7010E94140FA816B906B0F5809138031A
:103BC00081FF08C08091170180618093170182E016
:103BD0000E94BE0A8091380385FF08C080911701BA
:103BE00080628093170180E20E94BE0A60911701F3
:103BF0006695617080917F03909180030E94671A9F
:103C00008091DB01877061F0D70115968C91882334
:103C100039F08091370382FF03C082E00E94E30BFA
:103C20002496ECE00C944D338091E601909138039A
:103C3000982B2091170191FB21F9209317018D7F7B
:103C40000E948E0A1093800300937F03D0927E031C
:103C5000C0927D038091170184608093170178CF13
:103C6000970140E0B601C8010E94771AC9CF809140
:103C70004A0280FF19C0282F2E7F20934A023091DC
:103C80004B0240914C0250914D0260914E02709156
:103C90004F0280915002909151020E942E11109279
:103CA00023020E94F00CACCF816080934A0261E055
:103CB00086950E944E12A4CF48E952E162EA72E171
:103CC0000E94B0079DCF42EA52E168E972E1F8CF65
:103CD00046E052E160E172E1F3CF40E152E166E09B
:103CE00072E1EECF4CEE51E169EF71E1E9CF49EFBE
:103CF00051E16CEE71E1E4CF42ED51E16FED71E124
:103D0000DFCF4FED51E162ED71E1DACF4AE152E1EF
:103D100064E372E1D5CF44E352E16AE172E1D0CFCE
:103D200061E081E0C6CF65E082E00E94AD1268CF1D
:103D300068E086E0FACF6EE089E0F7CF64E18FE0DB
:103D4000F4CF67E185E1F1CF61E288E1EECF07379B
:103D5000FCE71F0709F44FC008372CE7120709F4E6
:103D60004EC0F70187819085009709F478C00E94C2
:103D70006509182F092FF701B580C680C2944FE05E
:103D8000C4228091DB018770F1F0AB2CBB20E1F005
:103D9000892F807F803451F080E2810F883098F045
:103DA000C11004C0892F807E803269F08091370372
:103DB00082FF09C082E00E94E30B8091DB018770E3
:103DC000AA24A3948111A12C902E92943FE09322D7
:103DD000FBE0F91508F4D3C0E92DF0E0E859FB4CFD
:103DE0000C941E3381E00E94FA0B43E062E081E014
:103DF0000E94B60B05CF81E00E94D60BF6CF82E081
:103E0000FBCF0B359CE7190741F10C35ACE71A07DE
:103E1000D1F00A351C4709F0A4CF81E01BC00E94F5
:103E20003A14EFEFF4E32CE0E150F0402040E1F7EA
:103E300000C000000E94C20C6FEF7FEF90E080E0B6
:103E40000E942934A3C28091370382FB882780F91E
:103E500091E089270E94A21084CF80E0FBCF85816A
:103E600000811181882369F0C8010E94C20FD82EF9
:103E7000682FC8010E94970BB8018D2D0E94940FE6
:103E800076CFC8010E944D0BD82EF6CF202F2F7071
:103E9000D22E802F807F19F0D29420EFD222BB2027
:103EA000A9F0DD2059F080E2810F883010F0111167
:103EB00007C08D2D0E94C50A0E948F13812F5DC0FF
:103EC00080919F04D82AD0929F04F6CF812F0E9420
:103ED0009818DD2009F453C080E2810F883010F07B
:103EE000111104C08D2D0E94BE0A03C08D2D0E94A9
:103EF000B70A0E948F1343C0302F3F70D32E802FFC
:103F0000807F803219F0D29490EFD922112339F1B9
:103F1000113009F4B6C0BB2009F4C2C0CC2009F4AA
:103F200066C020E0D7014C9111965C9111971296D2
:103F30006C91129713967C91139714968C91149709
:103F400015969C910E9412108091760381FDB6CF48
:103F5000F701868180FFB2CF8F70868348C0809141
:103F6000370382FD40C0BB20C1F1DD2029F08D2D3B
:103F70000E94C50A0E948F1380E00E940119A92D9A
:103F8000A850BB0B149710F40E94B606812F902FF7
:103F90000E94200C8111BFC11092B9011092B8018A
:103FA000AA20B1F08091DB0180FD12C0D7011596E7
:103FB0001C928695869586950E94FA0BC7010E94F1
:103FC000261B8091DB018695869586950E94D60BEF
:103FD00060E0C7010E94371023CE80E00E9498184D
:103FE000DD2069F27FCFBB2091F1C11004C08D2D7F
:103FF0000E949118C4CF41E0C41211C08090E60124
:104000008D2D8821D81609F4BACF0E9460069093AE
:10401000E5018093E401D828D092E601B0CF8091E9
:104020007503823008F4ABCFC812A9CF8D2D0E9442
:1040300091188D2D0E94A20A8091D8019D2D982360
:10404000D91609F49CCFD82AD092D80198CFC110A4
:104050000AC08D2D0E948A188D2D0E94A20A8D2DD6
:104060000E94EC0A8CCF80917503823008F487CFD0
:1040700051E0C51284CF809138038D2109F47FCFA0
:10408000E8CF80917B03BB2021F08C1508F477CF1B
:10409000AECFC81608F073CF8D2D0E948A186FCF4F
:1040A000CC20D1F38091790390917A03193321F0D8
:1040B00080917703909178030E94E60C812F0E94F3
:1040C00098185DCF802F86958695837069F0813032
:1040D00009F055CF812F902F9370B11002C080E06E
:1040E00090E00E946C064BCF812F902F9370B110FF
:1040F00002C080E090E00E94910641CF802F837043
:1041000091F5B1103CCF412F429546954770440F31
:10411000440F812F8F70042E01C0880F0A94EAF794
:10412000212F207114FF07C02FE030E001C0220FC3
:104130004A95EAF72095302F369536953370323010
:1041400069F050F44091E701313029F0822B84234B
:104150000E941D0C14CF842B822BFACF282B809128
:10416000E7018227F5CF8695BB2011F0802F817063
:10417000882309F404CF412F429546954770440F98
:10418000440F812F8F70042E01C0880F0A94EAF724
:10419000212F207114FF07C02FE030E001C0220F53
:1041A0004A95EAF72095302F3695369533703230A0
:1041B00069F050F44091F501313029F0822B8423CD
:1041C0000E94B30BDCCE842B822BFACF282B80915C
:1041D000F5018227F5CFF02FFF70DF2EBB2029F0ED
:1041E0008F2F0E94FA0B812F03CF812F0E948A18F4
:1041F0008D2D0E94D60BC3CE123F89F160F4103F83
:10420000B9F0113F81F0BB2009F480C0C11056CE37
:10421000802F8F7128C0133F49F1143FA1F780917F
:10422000370382FD2FC0802F8F71BB2011F31BC07D
:1042300080917B03BB2079F0C81608F0A0CE202F18
:104240002F7181E090E001C0880F2A95EAF79091E4
:10425000F5018927B5CF8C1508F491CEF0CF802FCA
:104260008F71B110C6CF0E94FA0B89CE80E0BB20BF
:1042700009F4A6CF81E0902F9F7101C0880F9A9515
:10428000EAF79ECF80917503823040F1BB20D1F0D8
:104290009091DB019770943041F40E94CB0A802FFB
:1042A0008F710E94D60BA12C6ACEC816E0F7202F82
:1042B0002F71D22E822F0E94FA0B63E08D2D0E9467
:1042C000060CF1CFC81630F00E94CB0A64E0802FB4
:1042D0008F71F5CF81E00E94E30BE5CFBB2059F051
:1042E000302F3F71D32E832F0E94FA0B63E08D2D68
:1042F0000E94060C44CE81E00E94E30B41E04C1585
:1043000008F03DCE82E00E94E30B39CEC110CACE48
:10431000802F8F716ECFBB2019F0C1103DCE40CEE3
:10432000C1103ACE20E0F701408151816281738152
:10433000848195810E9412108091760383FF2CCE98
:104340008091B8019091B901029709F025CE812F93
:104350000E948C1921CE0737BCE71B0709F442CD18
:1043600082E00837ECE71E0709F43DCD03303CE757
:10437000130709F461CD08F044CD01155CE715077A
:1043800009F44DCD01301C4709F0EBCC0E946318B5
:10439000B0E0A0E0EEECF1E20C9436338091D50170
:1043A000807F09F054C08091D401882309F44FC064
:1043B000E0919E0489E0D82E809155048E1709F46F
:1043C00046C00E2F10E0ED9DF0011124EA5AFB4F7C
:1043D0008481882309F440C0D09EE001D19ED00D95
:1043E0001124FE01EA5AFB4F91818091D00198136C
:1043F00033C090818091CF0198132EC085818111A7
:104400002BC0E280F3808091D1019091D201E81A13
:10441000F90A60E08FEC91E00E9437106FEC71E0D8
:104420000E94140FE816F906B8F48091D5018F7038
:1044300080618093D501C45ADB4F88818F70806181
:1044400088838FEC91E00E94261B0E941C0BCDB745
:10445000DEB7E7E00C945233F8013196E770ACCF49
:10446000A8E1B0E0E6E3F2E20C942E338C0186E0A2
:10447000F801DE01539601900D928A95E1F7D8017B
:1044800014967C9014971596EC908FECA82E81E0F2
:10449000B82E8091D30181112AC0711003C0FF246E
:1044A000F3941CC0EE20F9F0C8010E94FE0FF82E14
:1044B0008823C9F089E0F801AFECB1E001900D92DA
:1044C0008A95E1F78091D301813031F48091CF0159
:1044D0009091D0010E94F10F0E94C8218F2D689603
:1044E000EFE00C944A33C8010E94261BD8CFF80194
:1044F00050806180C280D38060E08FEC91E00E94A8
:104500003710F090D4018091D1019091D2014601F1
:10451000881A990A60E08FEC91E0FF2009F428C125
:104520000E9437106FEC71E00E94140F88169906F4
:1045300008F0D1C0772009F4B2CF8091D501382F8F
:10454000307F2091D001D80111969C9111973111A3
:1045500071C029131FC02091CF019C9129131AC04B
:104560004091D6015091D70117962D913C91421759
:10457000530781F4E11054C08F7080618093D5019E
:104580008FEC91E00E94261B8091D501F801868373
:10459000F12CA4CFE11044C0662D852D0E94C704E4
:1045A000E82E882381F08091760380FFF1CF8FEC95
:1045B00091E00E94261B89E0EFECF1E0DF011D9203
:1045C0008A95E9F7E5CF5B8A6C8A8B899C890E9482
:1045D000F10F292F22952F70243058F49F7022302C
:1045E00088F0992399F0F8019681907F79F4FE2C58
:1045F00075CF2A5F2F70223068F0C8010E94261BF9
:10460000EF2CF5CF992311F0882389F3805E883051
:1046100070F3F3CF803F58F3815F833070F7E7CFBB
:104620008091D50181608093D5018091760381FDD1
:10463000AFCFBDCF291320C02091CF019C9129136A
:104640001BC04091D6015091D70117962D913C91F6
:1046500018974217530781F4E1100EC016968C93F9
:10466000C8010E94261B89E0F801AFECB1E001907F
:104670000D928A95E1F732CFC8010E94FE0F882380
:1046800009F431CFEE2009F42ECF8091D50180328C
:10469000B8F02091CF013091D0013B872A87DD8689
:1046A000CC869091D3019E871F86888B8091D601FE
:1046B0009091D7019A8B898BCE010A960E94261B76
:1046C00089E0F801AFECB1E001900D928A95E1F735
:1046D0000E94C821E4CE8091D501982F907F09F4E3
:1046E00066CF772009F4DBCE2091D001F8019181CB
:1046F00029131AC02091CF019081291315C0409130
:10470000D6015091D701278130854217530761F4B4
:10471000E1100AC08683C8010E94261B89E0D501EA
:104720001D928A95E9F7DACEC8010E94FE0F882310
:1047300009F4D9CEEE2009F4D6CE8091D50180328D
:1047400008F4BECF2091CF013091D0013A83298364
:10475000DC82CB829091D3019D831E828F838091D6
:10476000D6019091D70199878887CE010196A6CF6F
:104770000E9437106FEC71E00E94140F88169906A2
:1047800008F04AC0772009F48ACEFE2CEE2009F406
:10479000AACE9091D001F801818198132FC09091F9
:1047A000CF01808198132AC02091D6013091D70182
:1047B000878190852817390709F58091D10190915B
:1047C000D201C81AD90AF8ECCF16D10408F04BCFA1
:1047D0009091D50190FD47CF907F09F444CF80910F
:1047E000D501D80116968C931697903F09F438CFCF
:1047F000982F907F905F8F70892B30CFC8010E94D7
:10480000FE0F81115DCF8091D50181608093D5012C
:10481000C8010E94261B62CE89E0F50111928A959B
:10482000E9F75CCEA2E1B0E0E8E1F4E20C943933C0
:104830000A871B872C873D874E875F87688B798B1C
:104840008A8BCE010A960E94302281110CC089E029
:10485000FE013A96DE01119601900D928A95E1F7DC
:104860008E8581110BC019E080919E0490915504B2
:10487000891331C06296E4E00C94553320915504BD
:1048800030E0C90101968770992740919E0448172E
:10489000190699F099E0929FD001939FB00D1124D1
:1048A000AA5ABB4FFE01319601900D929A95E1F7FD
:1048B000809355040E941C0BD6CF0E943A1410928C
:1048C000550410929E0489E0EFECF1E0DF011D92A7
:1048D0008A95E9F7C8CF819FC00111248A5A9B4F5E
:1048E0000E943022882331F280919E0490E001964C
:1048F0008770992780939E04B7CFEF92FF920F9312
:104900001F93CF93DF938091BC03882361F0E091E4
:1049100083038DE0F82E8091BC03E81748F01092D5
:10492000BC0310928303CDB7DEB7E6E00C9453339B
:10493000EE24E394EE0EE0928303CE2FD0E0EF9DC1
:10494000F0011124E354FC4F84818823E9F087812E
:104950009085892B21F481859285019659F40081F7
:1049600011812281338144815581668177818085DF
:104970000E941224FC9EF001FD9EF00D1124E354D0
:10498000FC4F148210929F04EE2DC5CF109230047C
:1049900010922F041092180180912E0480932D0400
:1049A0000E94F7060E947D240895B0E0A0E0EBEDA0
:1049B000F4E20C942C33C0912D0497E0992E01E081
:1049C00010E02DE0322E34E0432E55245394809194
:1049D0002E048C1309C00E947D240E94F706CDB7D7
:1049E000DEB7E1E10C944833D0E0FE01EE0FFF1F8B
:1049F000EB5DFB4F80819181989ED001999EB00D17
:104A00001124AC57BC4F14962C911497211159C006
:104A10006090BC03EDEBF3E030E020E0812C5D0121
:104A2000261508F04CC0E384F484D501CD90DC90C9
:104A30006FEF7FEF712C472D50E0DA01AA0FBB1FFB
:104A4000AC0DBD1D0D90BC91A02D109731F0EA1654
:104A5000FB0609F4BA017394EECF6F3F7607A9F114
:104A6000D80102C0AA0FBB1F6A95E2F78A2AB801D3
:104A7000072C02C0660F771F0A94E2F7AB01415082
:104A800051098416150601F5329EF001339EF00D92
:104A90001124E354FC4F989ED001999EB00D11242F
:104AA000AC57BC4F12962D913C91139730872783BA
:104AB0004482108211829287818715965C920E94AF
:104AC000C9062196C37083CF14822F5F3F4F3D9656
:104AD000A7CFAEE1B0E0EFE6F5E20C942B334B8BC1
:104AE0005C8B6D8B7E8B8F8B988F882349F08091A8
:104AF000B8019091B90101969093B9018093B801E2
:104B0000888D811110929F04188A198A1A8A86E06A
:104B1000FE017396DE011A9601900D928A95E1F7D7
:104B20008091370382FF1EC080915B0390915C03EC
:104B3000892BC1F00E9460062091D9013091DA01E1
:104B4000821B930B20915B0330915C0382179307C8
:104B500020F08091DB0182FFE7C10E94D20A81111F
:104B60000E94830A8E85882389F061E0CE010A962F
:104B70000E9437106C018F8520E5C2162CE7D20603
:104B800089F4882329F181E0809318010A851B8527
:104B90002C853D854E855F85688979898A890E9443
:104BA0001224CDC031E5C3163CE7D30629F488238F
:104BB00079F00E94C624EACF42E5C4164CE7D40639
:104BC00039F4882329F0809118018111F2CFDBCFCD
:104BD00094E8E92E93E0F92E412CB12CA12C8824E5
:104BE0008394912CBE016F5F7F4F7A8F698F22244F
:104BF0002394F7014081518166246A94762C20E049
:104C0000822F90E0FC01EE0FFF1FE40FF51F608183
:104C100071816115710531F0C616D70609F43C01A2
:104C20002F5FEECF312CFFEF6F167F0609F448C0DF
:104C3000F701448130901801832D411180E0F82F55
:104C4000F1703F2EF701558086819F85992309F4E5
:104C5000F7C0332009F4F4C000916F031091700382
:104C6000511013C0A401062C01C0440F0A94EAF7A6
:104C7000842B868380918103909182038017910712
:104C800020F41093820300938103C40102C0880FB3
:104C9000991F2A95E2F70197F7012681281719062F
:104CA00079F480912F0490913004009709F44BC05F
:104CB0000E9445060817190708F045C0F70124822D
:104CC0004328FFEFAF1ABF0A27E0E20EF11C38E0DD
:104CD000A316B10409F08DCF8F85882309F410C184
:104CE000442009F40DC10E94600690933004809323
:104CF0002F048091BC03883010F591E0980F9093B9
:104D0000BC0399E0FE013A96DE01119601900D92E6
:104D10009A95E1F74DE0849FC001112483549C4F84
:104D200029E0FE013196DC0101900D922A95E1F710
:104D30002FEF3FEFFC0132872187D486C3866E9622
:104D4000E2E10C94473380912D0450912E04982F6A
:104D5000F0E0E0E0851314C090932D04EE16FF06FA
:104D600009F4AECF90E0FC01EE0FFF1FEB5DFB4FAF
:104D7000B182A08201968370992780932E04A0CFE0
:104D8000682E712CF301EE0FFF1FEB5DFB4F2081AE
:104D90003181F7E0F29FD001F39FB00D1124AC57A1
:104DA000BC4F2D913C9111973E8F2D8F40E020E01C
:104DB00030E0E32FF0E0EE0FFF1F6D8D7E8DE60FEC
:104DC000F71F0081118101151105E1F0F701019034
:104DD000F081E02DFC8FEB8F20E005C00617170750
:104DE00009F4432D2F5FE22FF0E0EE0FFF1F6B8DD4
:104DF0007C8DE60FF71F608171816115710571F778
:104E00003F5FD7CF4423C9F0F701231708F0FD0116
:104E10002482EE16FF0621F490932D04342E50CFF9
:104E2000981305C0AE17BF0711F49F5F93709301ED
:104E30002F5F3F4F822F83708DCFF0E0E0E0F7CF00
:104E400090E0511020C0B40102C0660F771F2A9570
:104E5000E2F79B01215031098217930731F4442373
:104E600009F44CC0C5010E94C906C401062C01C04A
:104E7000880F0A94EAF7982F9095F7018681892385
:104E80008683352C1DCFAC01062C02C05595479565
:104E90000A94E2F7BA01617077279C012150310929
:104EA00082239323892B31F5672B21F1F70182812E
:104EB0009381892BE1F0E98DFA8D27E011922A95F3
:104EC000E9F70E946006282F8B839C8334E03D83A2
:104ED000F70182819381782F8887998709811A81C8
:104EE0003C8144E05E816F81892F0E941224F7018A
:104EF0001582BBCFF42FF1705F2EB7CF532CB5CFF7
:104F000090912D0480912E04981729F00E94D524A9
:104F1000411015CF3BCE0E947D2410923004109298
:104F20002F040E94F706F4CF82E00E94E30B15CE17
:104F3000A6E0B0E0EEE9F7E20C943B339093530225
:104F400080935202811520E2920730F40E94E91802
:104F50002696E2E00C94573380EF89838A830E947F
:104F600060068160682F9C838B8349815A817C8194
:104F700081E090E00E946925EBCF0F931F93CF93C0
:104F8000DF938C01EB016CE572E08C2F0E94000F27
:104F9000892BA1F480917703909178030E94E60C0D
:104FA000DD27CC5ADD4F8881F801128218828330C8
:104FB000F1F048F4813059F0823081F0DF91CF91E7
:104FC0001F910F9108958430B9F08530B9F7809121
:104FD0005C0290915D02009789F306C080915E02A9
:104FE00090915F02009799F30E949827E7CF8091F4
:104FF000600290916102F6CF80916202909163020B
:10500000009791F720915C0230915D0280915E02E1
:1050100090915F0221153105F1F2009729F7C9013E
:10502000E3CFA6E0B0E0E7E1F8E20C943B339093E5
:10503000530280935202811520E2920730F40E94BD
:105040004F1A2696E2E00C94573380EF89838A83C7
:105050000E9460068160682F9C838B8349815A81FE
:105060007C8181E091E00E946925EBCFCF93DF93B3
:10507000EC010E94112880917703909178030E949F
:10508000E60CCE010E949827DF91CF9108950F93EF
:105090001F93CF93DF938C01862F6CE572E00E9403
:1050A000000F892BB1F4C0915C02D0915D02209772
:1050B00081F0F8018281833051F4CE010E943628BC
:1050C000CE010E943628CE010E94362802C08430CC
:1050D000D0F7DF91CF911F910F9108950F931F93F8
:1050E000CF93DF938C01EB016CE572E08C2F0E9473
:1050F000000F892B09F05CC0FE01FF27D801129632
:105100008C911297EC5AFD4F8130B9F415969C9111
:1051100092FF02C080830AC090FFFCCF82E08083B0
:1051200080915E0290915F020097B9F480915C02D9
:1051300090915D020097E1F110C08230B9F51596AB
:105140008C9182FD28C080FD0BC083E0808380911C
:10515000600290916102009701F10E94112828C01D
:1051600084E0808380916202909163020097A9F7A6
:1051700080915C0290915D020097F9F00E943628C0
:1051800080915E0290915F02009739F780915C02F6
:1051900090915D02E2CF85E0808380915C029091E6
:1051A0005D02009729F00E943628F0CF86E08083C8
:1051B000DF91CF911F910F91089580915E029091A0
:1051C0005F02B8CFA6E0B0E0E8EEF8E20C94393325
:1051D0000E9460068C018091E8019091E90180179E
:1051E000910781F019821A820E946006682F498116
:1051F0005A81792F80E090E00E9469251093E9019F
:105200000093E8012696E4E00C945533A8E0B0E062
:10521000ECE0F9E20C943B3366EE7EEF90E080E048
:105220000E94293460E082E090E00E940B3460E04C
:1052300083E090E00E940B341092E70160E074E19B
:1052400084E090E00E94293460E086E090E00E94D3
:105250000B346FEF87E090E00E940B3440E050E0A9
:10526000BA0188E090E00E941D3460E084E290E0A2
:105270000E940B3460E087E190E00E940B3460E014
:105280008CE090E00E940B3460E08DE090E00E94A2
:105290000B3419821A821B821C821D821E821F827D
:1052A000188648E050E068E170E0CE0101960E9467
:1052B000FB3340E050E0BA0180E290E00E941D34F0
:1052C00080E00E94E70E0E94D81740E050E0BA014B
:1052D0008FE090E00E941D3440E050E0BA0183E18D
:1052E00090E00E941D342896E2E00C9457331F9200
:1052F0000F920FB60F9211242F933F934F935F930A
:105300006F937F938F939F93AF93BF93CF93DF93CD
:10531000EF93FF93D091E900DF708091EC00C82FEC
:10532000C17080FDC0E81092E9008091F000877F95
:105330008093F00078940E9450141092E9008091BC
:10534000F00088608093F000CD2BCF70C093E9000F
:10535000FF91EF91DF91CF91BF91AF919F918F918D
:105360007F916F915F914F913F912F910F900FBE61
:105370000F901F9018951F920F920FB60F92112445
:105380002F933F934F935F936F937F938F939F934D
:10539000AF93BF93EF93FF938091E10082FF09C029
:1053A0008091E20082FF05C08091E1008B7F8093B5
:1053B000E1008091DA0080FF24C08091D80080FF56
:1053C00020C08091DA008E7F8093DA008091D9002E
:1053D00080FF9DC080E189BD82E189BD09B400FEE6
:1053E000FDCF81E080934B0480913E04811109C080
:1053F0000E94E6040E9487058091E2008460809309
:10540000E2008091E10080FF17C08091E20080FF00
:1054100013C08091E2008E7F8093E2008091E200D1
:1054200080618093E2008091D80080628093D800F0
:1054300019BC85E080934B048091E10084FF2BC070
:105440008091E20084FF27C080E189BD82E189BDAF
:1054500089B5982F917080FFFBCF8091D8008F7D08
:105460008093D8008091E1008F7E8093E10080914D
:10547000E2008F7E8093E2008091E2008160809361
:10548000E20080914C04882309F447C084E08093B3
:105490004B0480914B048091E10083FF27C08091F1
:1054A000E20083FF23C08091E100877F8093E100C9
:1054B00082E080934B0410924C048091E1008E7F37
:1054C0008093E1008091E2008E7F8093E2008091E2
:1054D000E20080618093E20042E060E080E00E94B0
:1054E00055058091F00088608093F000FF91EF9166
:1054F000BF91AF919F918F917F916F915F914F91EC
:105500003F912F910F900FBE0F901F90189519BCCF
:1055100010924B0410923E0474CF8091E30087FDFB
:1055200093E090934B04B5CF78941F921FB61F92CF
:1055300011248F939F93AF93BF9380913A049091DE
:105540003B04A0913C04B0913D040196A11DB11D06
:1055500080933A0490933B04A0933C04B0933D04A1
:10556000BF91AF919F918F911F901FBE1F90189573
:105570001F921FB61F9211248F939F93AF93BF93D7
:1055800080913904811113C080913A0490913B04B9
:10559000A0913C04B0913D044196A11DB11D8093A2
:1055A0003A0490933B04A0933C04B0933D04BF9114
:1055B000AF919F918F911F901FBE1F901895CDB7EF
:1055C000DEB7C155D1090FB6F894DEBF0FBECDBF0F
:1055D00085B7806885BF85B7806885BF84B7877FBA
:1055E00084BF0FB6F894A89580916000886180937D
:1055F0006000109260000FBE80E890E00FB6F89453
:1056000080936100909361000FBE8BE598E09093CA
:10561000AF018093AE010E948B070E94EA100E94A6
:1056200063100E94E6040E9487058091E200846076
:105630008093E200789480914B048823A1F010912C
:10564000E9001F709091EC00892F817090FD80E837
:10565000182B1092E9008091E80083FD0E945014FD
:105660001F701093E90082E084BD93E095BD9AEF2E
:1056700097BD80936E000E948910811102C00E9424
:10568000D81781E080930D0257985F9A56985E9ADA
:105690008FE891E00197F1F700C0000030910D0212
:1056A0004EE052E0FA018E2F841B831708F451C09C
:1056B00084E30E945D0884E90E945D0880E30E9403
:1056C0005D0887E60E945D0801E611E0D8018D9132
:1056D0008D018F3F11F00E945D08B1E00C361B0771
:1056E000A9F788E0E2E1F2E0DF01282F1D922A9578
:1056F000E9F7EDEEF1E0DF011D928A95E9F70E94EE
:10570000D112811102C00E94062982E090E00E941D
:10571000E7338093F70184E090E00E94F5339093A3
:105720003703809336030E94DD12EFE3FCE93197E3
:10573000F1F700C000000E94DD128091120280FF8C
:1057400016C06FEF7FEF90E080E00E9429340E9446
:10575000C20C89B190E0880F892F881F990B4E9950
:1057600004C020E0822B81939ECF22E0FBCF83E018
:1057700090E00E94E7330E941D0C8091F601811198
:1057800073C00E94D112811104C00E9406290E9498
:10579000BD1288E090E00E94EF334B015C0184E28F
:1057A00090E00E94E733282F30E040E050E060E0D6
:1057B00070E080E090E000E20E94623328293929FD
:1057C0004A295B2920934A0230934B0240934C02B2
:1057D00050934D0260934E0270934F02809350029B
:1057E000909351022E7F89F50E94BD1288E090E0CF
:1057F0000E94EF336B017C0184E290E00E94E7336A
:10580000282F30E040E050E060E070E080E090E081
:105810000E946233B22FA32FF42FE52F5B01970173
:105820008601BC29A12BFE29E32BB0934A02A09349
:105830004B02F0934C02E0934D0260934E02B09203
:105840004F0280935002909351020E94B60710922B
:10585000230280914A0280FF04C060E086950E9486
:105860004E1281E08093F60180E091E0909336043F
:1058700080933504A8E16A2E712C80914B04F0E4EA
:10588000FF2E00E112E1853009F4A4C00E94DD1270
:1058900078EFA72E71E0B72EE2E18E2EE2E09E2E89
:1058A00040E052E0D401F501219131918D919D911B
:1058B0004E175F0709F498C028173907A9F3512C30
:1058C00033243394D4010D911D914D01F501C19004
:1058D000D1905F01C016D10609F43FC0C026D12681
:1058E000412CEE24E394F12CC6018E219F21892BBB
:1058F00051F12D964FAE2D972E965FAE2E970E94AA
:10590000600660969FAF8EAF609761963FAE6197DD
:1059100091E098012E213F21232B09F490E062961B
:105920009FAF62972D964FAD2D972E965FAD2E9718
:105930002F966FAD2F9760967FAD609761968FAD74
:1059400061970E9469254394EE0CFF1CFBE04F1207
:10595000CBCFF501329711830083539424E0521288
:10596000B1CF0E94540646C080914B04843009F1A7
:10597000109239040FB6F894A895609260000FBE9B
:10598000F092600083B7817F846083BF83B78160BA
:1059900083BF7894889583B78E7F83BF0FB6F894C2
:1059A000A8958091600088618093600010926000EB
:1059B0000FBE80914A04882369F00E94DD12E2E163
:1059C000F2E081919191892B09F0B5C522E0EA318D
:1059D000F207B9F780914B04853009F4C5CF0E94D6
:1059E0003A140E94B60652CF2817390709F067CF3C
:1059F0000E94E22800913104109132040115110532
:105A000049F180910002909101020E9445067C01BB
:105A1000BE01655D7F4F89E0DB011D928A95E9F744
:105A2000C8010E94140F8E159F05A0F480913104C7
:105A300090913204992744E0880F991F4A95E1F725
:105A4000FC01E559FD4F208122FD04C08A599D4F7C
:105A50000E94F41380911801882301F180912F0492
:105A6000909130040097D1F00E9445062091810367
:105A7000309182032817390788F490912D04809182
:105A80002E04981709F478C00E94D524109282033E
:105A9000109281031092300410922F0480917403AD
:105AA00080FF1EC08091170182FF1AC00E9460060D
:105AB00020917D0330917E03AC01421B530B20915A
:105AC0001501309116014217530750F022E032E0E1
:105AD00041E0BC0180917F03909180030E94771A7E
