:100000000C94E5040C941D050C941D050C941D0521
:100010000C941D050C941D050C941D050C941D05D8
:100020000C941D050C941D050C94952E0C94512ECA
:100030000C94922F0C941D050C941D050C941D0519
:100040000C941D050C941D050C941D050C941D05A8
:100050000C941D050C946E2F0C941D050C941D051D
:100060000C941D050C941D050C941D050C941D0588
:100070000C941D050C941D050C941D050C941D0578
:100080000C941D050C941D050C941D050C941D0568
:100090000C941D050C941D050C941D050C941D0558
:1000A0000C941D050C941D050C941D0505010902F9
:1000B000A10185020901A100050919012905150001
:1000C00025019505750181029501750381010501E1
:1000D000093009311581257F950275088106093897
:1000E0001581257F950175088106050C0A380215D2
:1000F00081257F950175088106C0C005010906A10B
:10010000018506050719E029E71500250195087501
:100110000181020507190029EF1500250195F075E9
:1001200001810205081901290595057501910295BE
:100130000175039101C00660FF0961A10109621503
:100140000026FF009520750881020963150026FF2F
:1001500000952075089102C005010906A101050757
:1001600019E029E71500250195087501810295011F
:10017000750881010507190029FF150026FF009564
:100180000675088100050819012905950575019175
:1001900002950175039101C000047F3F1F64321472
:1001A000643214783C1E1E140A05FD377A585A0032
:1001B0000004E6D6B4460200210116000000742FA8
:1001C000E5A3E009E402145D003D8889C65436C306
:1001D000174FE4E7E954216F66A3454351D63195A3
:1001E000C0501472BFB4447A2852B5CABBE6D2E3F9
:1001F00037F5BDE72E51FEB8D99B3DB024A5ED7271
:100200003B7DBF22549A1894309528C26CE4EDF8D7
:100210003D7AF2F128BAC625142DAD7BA99DAB6DB0
:100220006ADBDF9642B910EF16677A2838E9552D58
:100230000354DA1722791BB32925F3B93640BA687B
:10024000E8BFAC4CC3C0A0712A48E14DCB031A9162
:100250007A4E079A336F8D8C2FEE44E58143F192ED
:10026000EC1D60D0F2B1C1B53C3ED4EDEDFEA990DD
:100270003B221895847879A0EFD198B01D082346C9
:100280008122740608A3CF965B75DB535562429BAF
:100290008815949C6905DA76E99BFA63FCFFF061A6
:1002A000D9319F0C722E7AAD91A93F562709D2EF12
:1002B000F759BF018D97AB1F1E0AE5BD975F83C03D
:1002C000E0CB24CC1ED83378F768A42DB7B2612ECA
:1002D000E7CFE3758F29B1201107CB6057511C2060
:1002E00087AA8D62252C5476CEA9DEF53B66413E69
:1002F000B2E72FF1FE294D2CB72213FA4A0F283C02
:10030000EE6784A812E9E97DA0576C3EDA19E22D68
:100310000972B0A732FEB0C8E6CDA2BA3BF1F849E7
:10032000A482DA4193279E724032529DBE035AA99D
:10033000D383202C248144E35B986C44A01827527B
:10034000BA86C5E0BFB9A225DE67BDE21DAAEBDD16
:10035000B23A4F4D88A70A62FBC3B1A7ABA07AA0FF
:100360002713C4E13AD48D5C9F0657E72ABBE9D72F
:100370004B1CD164B219056D081DB3A5DE3038766B
:100380005A8828F16F5BCAC2746264E733646409F7
:10039000EB8AAD7A7B2F6284024D5A810196055417
:1003A00022973F92E808A8390F71E26C2D24CBEC1C
:1003B000A1463D6BFFFEBE32B59A66A3E023B0BDF9
:1003C00000ED5A2FACE1548981024133ED2D20DA42
:1003D000E1AEBD468BAE799D80594EA00000C23A79
:1003E000639E0666CBDF0001B004E51300004BCD31
:1003F000DED3B1C467FB020000000004595A0001BB
:1004000001010101010101010202020202020202D4
:1004100002030303030303030304040404040404A6
:10042000050505050506060606060707070707086A
:10043000080808090909090A0A0A0B0B0B0C0C0C1D
:100440000D0D0D0E0E0E0F0F0F10101111111212B7
:1004500013131414151516161717181819191A1A34
:100460001B1B1C1D1D1E1E1F202021222223242495
:10047000252626272829292A2B2C2D2D2E2F3031D1
:100480003232333435363738393A3B3C3D3E3F40E3
:100490004142434445464748494A4C4D4E4F5051CE
:1004A0005354555658595A5B5D5E5F616264656688
:1004B00068696B6C6D6F7072737577787A7B7D7E0F
:1004C0008082838587888A8C8E8F91939596989A5F
:1004D0009C9EA0A2A3A5A7A9ABADAFB1B3B5B7BA77
:1004E000BCBEC0C2C4C6C9CBCDCFD1D4D6D8DBDD4B
:1004F000DFE2E4E7E9EBEEF0F3F5F8FAFDFFFFAA3F
:100500007F55402223252628292A2C2D2F303233AF
:100510003536383A3B3D3E4042434547494A4C4ECA
:100520005051535557595A5C5E6062646668696BF6
:100530006D6F71737577797B7D7F81838587898AFC
:100540008C8E90929496989A9C9E9FA1A3A5A7A802
:10055000AAACAEAFB1B3B4B6B8B9BBBCBEBFC1C232
:10056000C3C5C6C7C9CACBCCCDCED0D1D2D2D3D4C5
:10057000D5D6D7D7D8D9D9DADADBDBDBDCDCDCDCE3
:10058000DCDDDDDDDDDCDCDCDCDCDBDBDBDADAD9B1
:10059000D9D8D7D7D6D5D4D3D2D2D1D0CECDCCCB33
:1005A000CAC9C7C6C5C3C2C1BFBEBCBBB9B8B6B451
:1005B000B3B1AFAEACAAA8A7A5A3A19F9E9C9A98E1
:1005C000969492908E8C8A89878583817F7D7B79B2
:1005D000777573716F6D6B6968666462605E5C5A93
:1005E0005957555351504E4C4A4947454342403E56
:1005F0003D3B3A3836353332302F2D2C2A292826E8
:1006000025232214001A000800150017001C0018EA
:10061000000C00120013002A000400160007000955
:10062000000A000B000D000E000F00340000001D3A
:10063000001B0006001900050011001000360037ED
:1006400000380000000000E30001512A002C002CBB
:10065000000251005C0000000000000100010001E8
:100660000001000100010001000100010001000182
:100670000001000100010001000100010001000172
:100680000001000100000001000100010001000163
:100690000001000100010001000100000000000154
:1006A0000001000100010001000100010000000044
:1006B0000000000100010001000100010001000133
:1006C0000001000100010001000100010001000122
:1006D0000001000100010001000100010000000113
:1006E0000001000100010001000100010001000102
:1006F00000010000000000010001000100010001F4
:1007000000010001000000000000000100010001E4
:1007100000010001000100010001000100010001D1
:1007200000010001000100010001000100010001C1
:1007300000010001000000010001000100010001B2
:1007400000010001000100010001000000000001A3
:100750000001000100010001000100010000000093
:1007600000000001000100B303A411D71100000232
:10077000000200AF03A411D711000003000100B470
:1007800003A411D7110000040002009903A411D79B
:1007900011C60705000100B503A411D7110000061A
:1007A0000002009B03A411D711000007000200B152
:1007B00003A411D711000008000100B603A411D74B
:1007C000110000090002009D03A411D711A1070A1E
:1007D0000002009F03A411D711A1070B000200A182
:1007E00003A411D711A1070C000200A303A411D781
:1007F00011A1070D000200A503A411D711A1070E36
:10080000000200A703A411D711A1070F000200A93D
:1008100003A411D711A10710000200AB03A411D744
:1008200011A10711000200AD03A411D711A10712F5
:10083000000200B703A411D711000013000200B991
:1008400003A411D711000014000100BB03A411D7A9
:100850001100001500000000002707E5190000093D
:10086000025B00030100A0FA09040000010301017A
:100870000009211101000122400007058103080041
:100880000109040100020300000009211101000117
:100890002222000705820320000107050303200030
:1008A00001090402000103000000092111010001F7
:1008B000228A0007058403200001120100020000C3
:1008C0000008464D11000100010203011C037600DF
:1008D000690061006C003A00660036003400630075
:1008E00032006200330063000000100376006100F4
:1008F00075006C00740033003500000018037000B0
:1009000072006F006A00650063007400630061009C
:1009100069006E00000004030904000000000000EC
:1009200000000000000000000000000000000000C7
:1009300000000000000000000000000000007E0F2A
:1009400000D4FFFFFFC70000007800000000000097
:1009500000002A2B2800000000000000000000001A
:10096000000000000029000000002C1E342021227D
:1009700024342627252E362D3738271E1F202122E6
:10098000232425263333362E37381F04050607085F
:10099000090A0B0C0D0E0F1011121314151617184F
:1009A000191A1B1C1D2F3130232D3504050607088D
:1009B000090A0B0C0D0E0F1011121314151617182F
:1009C000191A1B1C1D2F3130354C11241FBECFEFBF
:1009D000DAE0DEBFCDBF04B603FE18C08091A804E4
:1009E0009091A904A091AA04B091AB048730904BD8
:1009F000A740B04B59F41092A8041092A904109289
:100A0000AA041092AB04E0E0F8E3099511E0A0E03D
:100A1000B1E0E2E8F3E702C005900D92A438B10717
:100A2000D9F724E0A4E8B1E001C01D92A83AB207CA
:100A3000E1F70E94B92F0C949B390C940000E8ED6B
:100A4000F0E080818E7F80831092E2001092DA00C5
:100A50001092E100A0EEB0E08C9181608C938081D7
:100A60008F77808319BCA7EDB0E08C918E7F8C933B
:100A700080818F7E80831092770408952091E40016
:100A80003091E50095E6A9012091EC00822F81705C
:100A900020FF06C08091E80080FF06C080E0089536
:100AA0002091E80022FD1AC080919C04882389F0DF
:100AB000853089F08091EB0085FD0FC02091E40026
:100AC0003091E50042175307F9F29150E1F684E0C6
:100AD000089582E0089583E0089581E00895EF92FB
:100AE000FF920F931F93CF937C018B010E943E05D1
:100AF000C82F811117C08091E80085FD0BC080913F
:100B0000E8008E778093E8000E943E05882399F3E1
:100B1000C82F08C0F70181917F018093F100015037
:100B2000110949F78C2FCF911F910F91FF90EF90F2
:100B3000089580919E0487FF13C08091E80082FF92
:100B400006C08091E8008B778093E80004C0809114
:100B50009C048111F2CF089580919C048823D9F3DD
:100B60008091E80080FFF8CF8091E8008E77ECCF8D
:100B7000982F9093E900242F762F50E0891731F0B9
:100B80007091EC002091ED005091F00021FD07C024
:100B90009F5F973071F78093E90081E0089530916D
:100BA000EB003E7F3093EB003091ED003D7F3093C2
:100BB000ED003091EB0031603093EB007093EC006E
:100BC0002093ED005093F0002091EE0027FDE0CF40
:100BD00080E00895B0E0A0E0E0EFF5E00C94CF38BD
:100BE000C8EDD0E088818F7E8883E7EDF0E08081DA
:100BF0008160808384E082BF81E080937704888174
:100C00008E7F888302EE10E0F80110821092DA00E5
:100C100081EEC82ED12CF601108288818F778883CF
:100C200088818068888388818F7D888319BC109231
:100C30009C0410929D0410929B0410929A0490EED2
:100C4000E92EF12CF70180818B7F80838881816080
:100C5000888342E060E080E00E94B805F601808170
:100C60008E7F8083F80180818160808380818860AD
:100C70008083F70180818E7F808388818061888373
:100C8000CDB7DEB7E8E00C94EB38FC018091A4040A
:100C90009091A50486179707A0F06115710529F4B6
:100CA0009091E8009E779093E80090E061157105BF
:100CB00051F4911108C08091E80082FF34C080E0B7
:100CC0000895BC01F2CF80919C048823C1F1853046
:100CD000C1F18091E80083FD30C08091E80082FD81
:100CE000EACF8091E80080FFE1CF8091F30020916E
:100CF000F200382F6115710519F02830310558F0D0
:100D000091E02830310509F090E02091E8002E773D
:100D10002093E800CBCF81918093F100615071095D
:100D20002F5F3F4FE7CF80919C04882341F08530AF
:100D300041F08091E80083FFBECF81E0089582E01A
:100D4000089583E0089508950895089580917904A1
:100D500008959C014FB7F8948091710490917204AA
:100D6000A0917304B09174044FBF821B930B08953C
:100D70002FB7F8946091710470917204809173049C
:100D8000909174042FBF08952FB7F8948091710447
:100D900090917204A0917304B09174042FBF0895D0
:100DA000E0916E04F0916F04309729F00190F0818A
:100DB000E02D0995089580E00895452B39F06823CA
:100DC00081E06F3F09F080E08170089581E0FCCF01
:100DD000DC016091650480916604962F891301C03F
:100DE0000895292F30E0F901EE0FFF1FE35AFB4F62
:100DF000408151814A175B07A1F487E08A9FA001D7
:100E00008B9F500D11244B5D5B4F81E0FA01848371
:100E10009613E6CF2F5F3F4F23703327209365044F
:100E200008952F5F3F4F922F9370D8CF1092C20337
:100E30001092C103E5E2F4E08581811102C01482C1
:100E40001682379684E0ED35F807B1F70895B0E0E3
:100E5000A0E0EDE2F7E00C94CD388FEF9FEF443047
:100E6000510508F469C04091750441FB882780F959
:100E700090E0880F991F42FB002700F910E0000F57
:100E8000111F000F111F802B912B40FBCC24C0F8A9
:100E9000D12C8C299D2943FB222720F9C22FE0E089
:100EA000DE2F53E0CC0FDD1F5A95E1F78C2B9D2BE5
:100EB00044FBAA27A0F9B0E0E4E0AA0FBB1FEA9523
:100EC000E1F78A2B9B2B45FBEE27E0F9F0E0A5E04C
:100ED000EE0FFF1FAA95E1F78E2B9F2B46FB2227D3
:100EE00020F930E0B6E0220F331FBA95E1F7822BEC
:100EF000932B47FB222720F930E03695322F22270B
:100F000037952795822B932B20917604322F3170C1
:100F1000F32EE82EF92A26952170B22EBB0CA82EAE
:100F2000BF28C501BB0CAA0BBB0BFB0180839183BF
:100F3000A283B38390E080E0CDB7DEB7EAE00C9403
:100F4000E938E9E9F3E0848195812AE030E0B901EC
:100F50000E943D386093230186818093220182851F
:100F60008093210184858093200186859785B9012E
:100F70000E943D3860931F01808980931E01828901
:100F800080931D01848980931C01089580919903A9
:100F900090919A0390932501809324010895E4EBA6
:100FA000F2E090E080E06AEA7DE241ED5DE22FE16F
:100FB0003DE2778366835187408733872287958711
:100FC000848701963E968830910599F7089581159A
:100FD0002CE5920741F420911A0130911B01232B3B
:100FE00011F490E080E00895FA01811101C0FB0145
:100FF00009950895089580919D02982F9E7F29F468
:101000008170826080939D0208958A34E8F3817034
:101010008864F8CFAF92BF92DF92EF92FF920F9366
:101020001F93CF93DF93082F162FE901E42FF0E0F1
:10103000E250FC4F611110C0E4915E2F4E2F4983A6
:10104000E8835A83DF91CF911F910F91FF90EF902A
:10105000DF90BF90AF900895E62EF12C4491D42EEE
:10106000E42FF0E026E0829FC00111242FEF30E052
:10107000B9010E943D38802F90E0880F991F55E5F7
:10108000569FD001579FB00D11248A1B9B0B982FA0
:10109000990F890F5901AE18BF08AE9ED001AF9EBF
:1010A000B00DBE9EB00D11245B2F189F800111243E
:1010B000012F11275901A01AB10AAE9E8001AF9EDF
:1010C000100DBE9E100D11245901A81AB108AE9C36
:1010D000C001AF9C900DBE9C900D1124892F9927C3
:1010E000281B390B2E9FC0012F9F900D3E9F900D06
:1010F0001124E92F62307105A1F050F461157105DA
:1011000009F49DCF6130710581F0EB2F512F97CFFE
:101110006430710569F080F06630710509F48FCF95
:10112000F4CFE42F4B2F592F8ACFE42F412F87CFB5
:10113000EB2F542F492F83CF4B2F5D2DE12F7FCFE6
:101140000E94C4069C0190916A0280916B02982BC8
:1011500021F0309367022093660290916C02809197
:101160006D02982B21F03093650220936402E09188
:101170006E04F0916F04309749F082E0809368022A
:101180000480F581E02D88E692E00995089590911C
:101190006A02803F59F480916B0287FF0DC0109264
:1011A0006B0291110BC01092620208C0813F81F462
:1011B00080916B0218169CF3992381F080916C0248
:1011C00090916D02892B09F064C01092610208951C
:1011D000823F49F497FFF0CF10926A0280916B0230
:1011E0008111ECCFE0CF833F19F41916ACF3E4CFB3
:1011F00020916C02893F29F41216F4F610926C02C9
:10120000DBCF8A3F19F427FFD7CFF8CF20916D02AB
:101210008B3F29F427FFD0CF10926D02CDCF8C3FAA
:1012200019F41216CCF3C8CF843F31F480916902CF
:101230008E7F80936902C0CF853F21F4809169023F
:101240008D7FF7CF863F21F4809169028B7FF1CFAC
:10125000873F21F480916902877FEBCF883F21F49B
:10126000809169028F7EE5CF8D3F31F480916302DA
:101270008E7F80936302A0CF8E3F21F48091630222
:101280008D7FF7CF8F3F09F097CF809163028B7FDF
:10129000F0CF08958091630280FF0CC060911D0122
:1012A00070E075956795759567956115710549F1BC
:1012B000862F089581FF06C060911D0170E075952D
:1012C0006795F3CF60911D0182FD0BC09091610283
:1012D0009923A1F060911C0180911D01961738F0AF
:1012E000682F70E06038710500F38FE70895899FDB
:1012F000C001112470E00E945138F4CF61E070E029
:10130000D7CF81E00895809163026091A10370912D
:10131000A20380FF16C020912101269FC001279FB4
:10132000900D1124BC017695679576956795603888
:10133000710508F043C06115710509F441C0862F9D
:10134000089581FF0BC020912101269FC001279F96
:10135000900D1124BC0176956795E9CF82FF09C0F5
:10136000809121019B01829FB001839F700D112408
:10137000DECF209162022223D1F290912001809150
:101380002101482F50E0291748F0CB01849FB0017C
:10139000859F700D949F700D1124C9CF289F9001D7
:1013A0001124269FA001279F500D369F500D112418
:1013B000692F70E0CA010E943D38B9CF8FE70895C8
:1013C00081E00895803F31F40E94830981958093E4
:1013D0006B020895813F19F40E948309F8CF823F80
:1013E00031F40E948309819580936A020895833FB6
:1013F00019F40E948309F8CF893F29F40E944A0911
:1014000080936C0208958A3F21F40E944A098195D5
:10141000F7CF8B3F31F40E944A09819580936D028A
:1014200008958C3F19F40E944A09F8CF843F31F4A3
:10143000809169028160809369020895853F21F45B
:10144000809169028260F7CF863F21F48091690222
:101450008460F1CF873F21F4809169028860EBCFEF
:10146000883F21F4809169028061E5CF8D3F31F49E
:101470008091630281608093630208958E3F21F41E
:10148000809163028260F7CF8F3FB9F7809163024A
:101490008460F1CF80E00895F894E82FE295EF7032
:1014A000F0E031A1282F2F7081E090E001C0880F7B
:1014B0002A95EAF7982F9095932391A392A1892BCF
:1014C00082A3789408959091750492FF06C0282F06
:1014D00028712830F9F4877F846093FF06C0282F95
:1014E00028712831F1F4877E84612091760420FFF1
:1014F00006C0382F38713830D9F4877F816021FFDA
:1015000006C0282F28712831D1F4877E816194FD8F
:10151000877E0895282F24712430F9F68B7F886008
:10152000DCCF282F2471243101F78B7E8861DDCF39
:10153000382F3171313019F78E7F8860E0CF282F36
:101540002171213121F78E7E8861E1CFCF93DF9326
:10155000EC018238910589F1E0F58133910509F4B8
:1015600099C028F58932910509F489C08A9709F450
:1015700098C0C11522E5D20708F0B1C0C11531E508
:10158000D30708F013C1CF3FD10511F008F097C081
:10159000C03FD10508F0F0C0C53AD10508F088C0B9
:1015A000C430D10520F5C130D10509F145C08533DE
:1015B000910509F45FC0C997E1F6809175048370C5
:1015C00009F029C18091760483FF11C0C9E2D0E0FF
:1015D0000EC0833E910599F170F4803E910501F1B2
:1015E000823E910531F68091750482FD21C0CE01C5
:1015F000DF91CF910895863E910561F1873E910577
:1016000071F1843E910509F0B4CF8091760481FF99
:10161000EECF80917504C7EED0E084FD0DC0E7CF1A
:101620008091750480FD33C09091760490FFDFCFE8
:10163000C3EED0E084FFDBCFD0E0C0E0D8CF809114
:10164000750482FDE5C09091760490FDE4C084FFAE
:10165000CECFF2CF8091750483FDDDCFC8CF8091CE
:10166000750483FDDBC09091760491FFF0CFC4EE4A
:10167000D0E0BDCF8091750485FFB9CFA7CF809111
:10168000750485FDCEC08091760483FFB0CFC9E399
:10169000D0E0ADCF8091750486FFA9CFCAE2D0E03B
:1016A000A6CF8091750486FFA2CFC1E3D0E09FCF83
:1016B000CE01815E9109079708F499CFBDCFC1157E
:1016C00040E5D40708F05DC0C11580E4D80708F0F4
:1016D00055C0C11520E2D20708F489CFADCFC1159E
:1016E00036E5D30718F5C11545E5D40708F077C0EE
:1016F000C11584E5D80708F06DC09C2F9695969586
:101700009E0123703327C115D34508F454C0C1E0AE
:10171000D0E002C0CC0FDD1F2A95E2F730E2939FA4
:10172000C0011124C82BD92BDA6861CFC1158AE515
:10173000D80778F4C11529E5D20708F05BC0C115B8
:1017400038E5D30708F478CFDC2FCC27C06FD06AF8
:101750004ECFCE0190568115904208F06DCF8D2F5F
:101760008F710E94630A90E0982F882788279F71C5
:101770009C012C2BE9013CC0D06539CFDF70D06AC9
:1017800036CF2C2F26952695237080E2289F900136
:1017900011248C2F8370C1E0D0E002C0CC0FDD1F7C
:1017A0008A95E2F7C22BD32BDD6821CFDC2FCC2723
:1017B000C16FD06A1CCFC1E0D0E002C0CC0FDD1FEA
:1017C0002A95E2F720E2929FC0011124C82BD92B61
:1017D000DC680DCFDC2FCC27C46FD06A08CF8C2FEC
:1017E0000E94630AC82FD0E0DC2FCC27CC27DF7102
:1017F000D062FDCE8C2F8F700E94630A34E0D695A4
:10180000C7953A95E1F7CF709C2FEC01D069EFCEE8
:10181000C2EED0E0ECCEC0EED0E0E9CEC6EED0E035
:10182000E6CEC5E3D0E0E3CE80912F02882331F0ED
:1018300010922F0210922E0210922D020895CF9333
:10184000C82F8091760482FF0CC080912F028C17E4
:1018500041F00E94C40690932E0280932D02C09303
:101860002F02CF91089580959091A704982390938B
:10187000A704089580959091780398239093780316
:10188000089590917803892B80937803089510929E
:101890000C0210920B0210920A02089580919B0391
:1018A00090919C03892B89F00E94C40620912D02FF
:1018B00030912E02AC01421B530B81E020919B031F
:1018C00030919C034217530708F480E0817008951B
:1018D000909128019923D1F09091750497FF16C03B
:1018E000E82FE695E695E695EE31E0F4F0E0EA576C
:1018F000FE4F282F277081E090E001C0880F2A95C5
:10190000EAF780959281892382830895E8E8F1E0DF
:101910009191891303C0DF0111971C9291E0EE3879
:10192000F907B1F70895909128019923C1F090919A
:10193000750497FF14C0E82FE695E695E695EE311D
:10194000F8F4F0E0EA57FE4F877021E030E001C084
:10195000220F8A95EAF78281822B82830895A8E874
:10196000B1E0EFEF90E02D91821751F0EF3F19F4C5
:10197000211101C0E92F9F5F9630A9F7EF3F09F4CD
:1019800008950E2E000CFF0BEA57FE4FE6CF209174
:1019900009029091C801291302C080E0089530E047
:1019A000F90153E0EE0FFF1F5A95E1F7E753FE4FA1
:1019B0005181561306C05081581303C052815413ED
:1019C00004C02F5F3F4F2770E6CF81E008958091DC
:1019D00009029091C801981301C008958F5F877024
:1019E000FACF292F943078F58B3068F590E03BE002
:1019F000239F800D911D1124682F677023E0969519
:101A000087952A95E1F7FC01EE0FFF1FE80FF91FFC
:101A1000E255FE4F50E040E080E0219130E0062E9C
:101A200002C0369527950A94E2F721703327042ED9
:101A300001C0220F0A94EAF7822B4F5F5F4F4330B9
:101A4000510559F7089580E00895292F943098F5AD
:101A50008B3088F590E03BE0239F800D911D112491
:101A6000282F277041E001C0440F2A95EAF723E0B0
:101A7000969587952A95E1F7FC01EE0FFF1FE80F79
:101A8000F91FE255FE4F30E020E070E05191DF0198
:101A90001197CB01022E02C0969587950A94E2F722
:101AA000817081958527842385278C932F5F3F4FF5
:101AB0002330310559F7089592959F70963091F033
:101AC00058F4925F9F70923058F4803F19F030F4D0
:101AD000883E30F481E008959A5FF4CF843FD1F3DB
:101AE00080E00895883EB0F3813FD1F7F3CF9C01A9
:101AF0003A9521153F4150F5FC01EE27F170BC01EC
:101B000066277270AC01442754709C0122273870FC
:101B100094FF0EC080E1EF2B09F480E0672B09F001
:101B20008062452B09F08064232B89F0806808953A
:101B300081E0EF2B09F480E0672B09F08260452BF0
:101B400009F08460232B19F08860089580E00895DF
:101B50009C0184E08093E9009FEF8091E800915020
:101B600085FD06C085ED8A95F1F700009111F5CF4E
:101B70008091E80085FF0CC050E040E066E070E036
:101B8000C9010E946F058091E8008E778093E8007C
:101B90000895CF93DF93EC01809128018823B1F160
:101BA0008091750487FF32C060E284E08093E90091
:101BB0008FEF9091E800815095FD06C095ED9A95C4
:101BC000F1F700008111F5CF8091E80085FF1BC07F
:101BD0008091280170E050E040E0811104C050E0A5
:101BE00040E068E070E0CE010E946F058091E8005F
:101BF0008E778093E80080E2FE01AAE7B4E00190CE
:101C00000D928A95E1F7DF91CF91089568E081E028
:101C1000CDCF81E08093E00080E28093D8001092E5
:101C2000C9008FE19EE40197F1F700C0000087E052
:101C300090EBDC018093A8049093A904A093AA04DC
:101C4000B093AB0488E19CE00FB6F894A89580931C
:101C500060000FBE90936000FFCF019708F40895D5
:101C6000EFE9FFE03197F1F700C00000F6CF809177
:101C70009D0280FD0AC0E9E7F2E011821082128223
:101C8000339652E0ED39F507C1F7559A3BB13F7DE8
:101C90002BB120624FB7F89489E792E0FC01519193
:101CA000CF0168E02BB9000000C057FF3BB9550FCA
:101CB000000000C000C000C03BB900C06A9591F7A9
:101CC000F2E08D399F0751F74FBF8FE594E0019700
:101CD000F1F700C000000895EF92FF920F931F9359
:101CE000CF93DF938C01C9E7D2E0F12CE12CF8010E
:101CF000948160919F0280919E02F6E0EF16F104BC
:101D0000ECF49923E9F09E014091A0020E940A0898
:101D10002FEFE21AF20A23968CE0E816F10439F765
:101D20000E94370EF801848190E001968170992716
:101D30008483CDB7DEB7E6E00C94ED38992319F330
:101D40009E0140E0E3CFB0E0A0E0E9EAFEE00C94C1
:101D5000CB38EC014C81042F10E09801D8010E948F
:101D60009C389B01AC010E94B2384B015C01E0E25F
:101D7000F0E0E01BF10BA5E5B0E0AC019B010E9497
:101D8000B2386B017C019F01DF010E9494389B01F6
:101D9000AC010E94BD389B01AC01280D391D4A1DC4
:101DA0005B1DC701B6010E946538F22E822F90E0BC
:101DB00039E23F1598F143E0249F900111243595B5
:101DC0002795122F109599E7C92E92E0D92E00E0A1
:101DD00085E5E82EEF188E2D01FD8F2D9601412F00
:101DE00060919F020E940A080F5F53E0C50ED11C4C
:101DF0000C3089F70E94370E9C8181E0992319F0FD
:101E0000903219F48FEF8093190180911901890F95
:101E10008C83CDB7DEB7ECE00C94E73825E530E0F5
:101E2000A901481B590BCA019A01220F331F280F21
:101E3000391F37FFC4CF2F5F3F4FC1CF0F931F9381
:101E4000CF93DF93C9E7D2E0FE01118210821282A4
:101E5000339682E0ED39F807C1F710E000E0809199
:101E60007702082E000C990B081719078CF1809146
:101E70001801082E000C990B801791074CF19E0158
:101E80004091A00260919F0280919E020E940A08E8
:101E90000F5F1F4F23960C30110509F70E94370E74
:101EA0008091170190917702980F9093770220917B
:101EB0001801280F20931801121614F49B301CF0FF
:101EC000819580931701DF91CF911F910F91089514
:101ED000198218821A82DCCFB0E0A0E0E2E7FFE0CE
:101EE0000C94CE38FC018281DD24DA9480FD02C09E
:101EF000DD24D39409E712E0D0E0C0E02CE0B22E5C
:101F0000F80111821082128294E0E92EF12CC12C8A
:101F1000809176028C0D8D30C4F16B2D0E942F388C
:101F2000892F082E000C990B8C179D0791F4809136
:101F3000A0028E9DA0018F9D500D112455954795AF
:101F400055954795980160919F0280919E020E944D
:101F50000A08CD0CF1E0EF1AF108D1F621960D5FD9
:101F60001F4FCC30D10561F60E94370E809176026A
:101F700091E0D91210C081110CC08BE080937602E1
:101F8000CDB7DEB7E9E00C94EA3887FFCACF845FAB
:101F9000C8CF8150F3CF90E00196BE010E94513826
:101FA000EDCFEF92FF921F93CF93DF93EC0189E780
:101FB000E82E82E0F82E10E08C8197014091A0027B
:101FC00060919F02810F0E940A081B5E83E0E80E69
:101FD000F11C1C3F89F70E94370E9A818C8190FF7B
:101FE00008C08F5F8C83DF91CF911F91FF90EF909E
:101FF00008958150F7CF90919D0290FF0CC0E9E7C2
:10200000F2E0818360834283339692E0ED39F907F1
:10201000C1F70E94370E0895A3E0B0E0E2E1F0E1DD
:102020000C94D3388C018091780281110AC09E01F2
:102030002F5F3F4F4FEF6FEF0E940A088A81809316
:102040007802F8016481613069F08091780240E0A3
:10205000662361F040E0623011F44091780280E044
:1020600060E004C06091780240E080E00E94FB0FD5
:10207000F801848190E0019663E070E00E9451389D
:1020800084832396E4E00C94EF38A3E0B0E0EBE423
:10209000F0E10C94D53890919D0290FF0AC09E010A
:1020A0002F5F3F4F0E940A084B8169818A810E94FD
:1020B000FB0F2396E2E00C94F138CF93DF93EC0111
:1020C000EDE9F2E0438162818C810E9445108C81B0
:1020D0008F5F8C83DF91CF910895CF93DF93EC01D5
:1020E000EC81F0E0ED5FFA4F4491EDE9F2E06281BE
:1020F00081810E9445108C818F5F8C83DF91CF910D
:1021000008950F931F93CF93DF9309E913E0C7E975
:10211000D1E0CE010E944B39F80181938F012196C5
:10212000CB3BF1E0DF07A9F7CDE6D7E0FE018591D3
:102130009491009711F0FC0109952C96F8E0C936AE
:10214000DF07A1F7DF91CF911F910F9108950F93B2
:102150001F93CF93DF93843030F5643020F54B30FC
:1021600010F5C42FD0E0CC0FDD1F26E1629FC00D1B
:10217000D11D112438E5839FC00DD11D1124CE013E
:1021800087960E944B39082F10E0102F0027CE01B0
:1021900088960E944B399801282BC901DF91CF9175
:1021A0001F910F91089590E080E0F8CF462F209185
:1021B000760330917703232B99F4703F39F4603F15
:1021C00079F480917403909175030895843040F4FC
:1021D000743030F46B3020F4672F0E94A7100895FC
:1021E00090E080E00895CF92DF92FF920F931F93CB
:1021F000CF93DF936C010091A60480913002082BED
:10220000C7E0D0E010E0FC2EC8010C2E02C095956E
:1022100087950A94E2F780FD0CC02197A0F7F12C76
:102220008F2DDF91CF911F910F91FF90DF90CF9075
:102230000895B6018C2F0E94D6100E94A60A01971D
:1022400061F3EECFCF93DF93EC010E94F310BE0158
:102250000E94D6100E94A60ADF91CF910895CF93D5
:10226000DF93EC014B815C81698188810E94DD06EE
:10227000811110C08E819F81009739F00E94A60ABB
:102280000E945C0DDF91CF910895888199810E9411
:102290002211F6CF80E0F6CFA5E0B0E0E2E5F1E173
:1022A0000C94D43849835A8389819A81662399F0A2
:1022B000222389F00E94F310182F682F89819A81B8
:1022C0000E94250D69817A81812F0E94D610259662
:1022D000E3E00C94F0380E94F10C182FF3CFFC01CE
:1022E000262F86819781009739F440815181628140
:1022F000738184810E944C11089583E290E00E94D2
:102300004B398D3089F484E290E00E944B39883B50
:1023100059F485E290E00E944B3991E08E3D09F03E
:1023200090E0892F8170089580E0FCCFCF9384E006
:1023300090E00E944B39C82F82E290E00E944B3916
:10234000982F8C2FCF910895DB01FC0132962591B7
:1023500034914217530758F0FC01349665917491FB
:10236000A901CD010E942B3990E080E008958FEF04
:102370009FEF08950F931F93CF93DF9309E913E025
:10238000C7E9D1E0CE010E944B39F80161918F017C
:10239000681719F0CE010E945F392196CB3BF1E01E
:1023A000DF0781F7DF91CF911F910F910895DA0137
:1023B0009C012E5F3F4FF90145915491F901259100
:1023C0003491A217B30758F0FC013496859194918B
:1023D0000E942B390E94BA1190E080E008958FEF9F
:1023E0009FEF0895CF93DF93CBE5D2E060E0CE017D
:1023F0000E945F392196C11584E0D807B9F7DF91B3
:10240000CF9108951F93CF93DF93122F8430E0F480
:102410006430D0F44B30C0F4C42FD0E0CC0FDD1FBB
:1024200096E1699FC00DD11D112498E5899FC00DCB
:10243000D11D1124632FCE0187960E945F39612F31
:10244000CE0188960E945F39DF91CF911F91089548
:10245000CF93C82F6FEF81116DE083E290E00E946F
:102460005F396FEFC11168EB84E290E00E945F3941
:102470006FEFC1116EED85E290E00E945F39CF9160
:102480000895CF93C92F682F84E090E00E945F39B0
:102490006C2F82E290E00E945F39CF9108959B01FA
:1024A000883070F49AE0899FB001112465547E4F02
:1024B0004AE050E0C9010E943B3990E080E0089575
:1024C0008FEF9FEF0895AAE0B0E0E9E6F2E10C9407
:1024D000D5389C0137552F3F310509F068F4BE010E
:1024E0006F5F7F4F0E944F12892B31F489859A8547
:1024F0002A96E2E00C94F1388091B1039091B203F6
:10250000F7CFAAE0B0E0E7E8F2E10C94CF38E4E2DC
:10251000F3E080E5DF011D928A95E9F7E5E2F4E05A
:1025200088E3DF011D928A95E9F784E2C82E83E0F3
:10253000D82E7F010BE012E0F701D182C0824AE081
:1025400050E0B801CE0101960E943B3988E0FE01BF
:102550003196D60101900D928A95E1F789859A8589
:10256000D70113969C938E931297BAE0CB0ED11C91
:10257000E7E0EE0EF11C065F1F4F0B35F2E01F0780
:10258000D9F62A96E8E00C94EB38CF92DF92EF92DE
:10259000FF926B017C010E94FB07B701A60188E056
:1025A00090E00E947139FF90EF90DF90CF900895F6
:1025B000A3E0B0E0EEEDF2E10C94C838F82E762EF0
:1025C000E42E622E90919D0290FF29C0E92FE6959E
:1025D000AE2FB0E0A05BBE4F8C91809374029E7FC3
:1025E000923009F59E012F5F3F4F8F2D0E940A0800
:1025F0004B8169818A810E94FB0FF0929E0270924A
:102600009F02E092A002662051F060919D027091BD
:102610009E0280919F029091A0020E94C512239673
:10262000EFE00C94E438823019F4E090A002E5CF9A
:10263000863019F4F0909E02E0CF8930D9F38931C9
:10264000E1F6E9518E2F8170582EE695F0E0E250C8
:10265000FB4FE4910E2F10E089E7C82E82E0D82EC0
:10266000B12CA12C9CE0892E912CC501B4010E94B3
:102670003D388F2D511013C0860F96014E2D672DBA
:102680000E940A08A00EB11E83E0C80ED11C8DE97D
:10269000C81682E0D80649F70E94370EAECF861BD7
:1026A000ECCFEDE9F2E0438121E1421B08F440E088
:1026B00021E0628181810E94D8120895EDE9F2E063
:1026C000438121E1420F08F44FEF21E062818181D3
:1026D0000E94D8120895EDE9F2E0628121E1621BC7
:1026E00008F460E021E0438181810E94D8120895BE
:1026F000EDE9F2E0628121E1620F08F46FEF21E081
:10270000438181810E94D8120895EDE9F2E0818130
:1027100021E04381628188500E94D8120895EDE93A
:10272000F2E0818121E043816281885F0E94D812BA
:1027300008958091A102882319F081508093A1020D
:1027400060919D0270919E0280919F029091A002E3
:102750000E94C51208958091A102833018F48F5F02
:102760008093A10260919D0270919E0280919F02D0
:102770009091A0020E94C512089590919D0290FF31
:102780002CC0917081112AC0926090939D026623A3
:1027900051F060919D0270919E0280919F029091F4
:1027A000A0020E94C51260919D02669570E04BE008
:1027B00050E08CE091E00E941139892BB1F0109229
:1027C000750281E08093710220E04091A002609147
:1027D0009F0280919E020E94D8120895853210F0C7
:1027E0009864D3CF880F982BD0CF81E08093750267
:1027F0000E94C40690936F0280936E02E2CF809194
:102800009D028695815009F484E261E00E94BD1327
:10281000089580919D0286958F5F853208F081E052
:1028200061E00E94BD13089590919D0290FF08C041
:102830009695981728F0961718F40E940914089591
:1028400061E00E94BD130895EDE9F2E083E080832A
:1028500011828FEF828383831482608171818281F0
:1028600093810E94C5120895A8E0B0E0EAE3F4E184
:102870000C94CB388E010F5F1F4F88E0F801119246
:102880008A95E9F791E3E92E91E0F92E6801AA24EF
:10289000A394B12CF70181917F018F3F09F446C0C9
:1028A000F894E82FE295EF70F0E021A18F70A50178
:1028B00002C0440F551F8A95E2F7CA01922F982B48
:1028C00091A392A18095892382A3789400C0E5E327
:1028D000F1E021E030E0912C812C41914F3F09F44F
:1028E00067C0A42FA295AF70B0E090968C9190E055
:1028F0004F7002C0959587954A95E2F780FD58C0C4
:10290000C901882A992A220F331F51E0E034F507C4
:1029100021F7F701319780818F3F11F00E944C0A17
:1029200080EA8A95F1F7F60191828082F2E0CF0E7B
:10293000D11C45E3E41641E0F40609F0ABCF48E0D2
:1029400050E0B80184E392E00E941E39892B99F18E
:1029500088E0F801A4E3B2E001900D928A95E1F7D6
:1029600081E0809333020E94C406909332028093E8
:10297000310280913102909132020E94A90605979E
:10298000F0F048E050E064E372E089E592E00E94F4
:102990001E39892BC9F088E0E4E3F2E0A9E5B2E052
:1029A00001900D928A95E1F781E01092330208C000
:1029B00090E080E0A6CF809133028111DACF80E0F1
:1029C0002896ECE00C94E73880E0EFCF8091780314
:1029D0009091A704892B8093860180912F028823F0
:1029E00019F180919B0390919C03892B29F00E94FF
:1029F0004E0C81110E94140C8091860190912F023F
:102A0000892B80938601809128018823E1F18091B0
:102A1000750487FF38C08EE1E8E8F1E090E081506E
:102A2000A0F591110E94140C40E250E06DE072E0BC
:102A300086E891E00E941E39892B21F180E2E6E8C8
:102A4000F1E0ADE0B2E001900D928A95E1F7E091FE
:102A50006E04F0916F043097A9F0809128018823CB
:102A600059F08091750487FF07C08091860180939B
:102A7000870186E0809386010280F381E02D86E85D
:102A800091E00995089586E0C7CF2191222339F27C
:102A90009F5FC5CFCF93DF93EC01EA85FB8530972D
:102AA00019F06C857D8509958B810E94330C8C8192
:102AB0000E943A0C0E94E61486E0FE0111928A956B
:102AC000E9F7DF91CF910895CF93DF93EC018D81EA
:102AD00081FD15C082608D838091A7049B81892B25
:102AE0008093A7048C810E94410C0E94E614E88523
:102AF000F985309721F06C857D85CE01099510927E
:102B00006D0410926C048D8180FD03C0CE010E9483
:102B10004A15DF91CF91089580912601877F809398
:102B2000260182E00E94330C8091260184FF06C0BA
:102B30008F7E8093260182E00E94410C80912601C5
:102B400085FF06C08F7D8093260180E20E94410CA4
:102B50000E94E61408951092A7040E94E61486E0ED
:102B6000E8E6F2E0DF011D928A95E9F71092620231
:102B700010926102109263020E94A008089580934F
:102B8000A6040E94AB1508958091A604982F967014
:102B9000963021F488600E94BF150895877FFBCF8F
:102BA00021E030E001C0220F8A95EAF7209580915C
:102BB000A60482230E94BF15089590910C0280956F
:102BC000892380930C02282F277091F4282F082E38
:102BD000000C330B9217130659F09091760492FF74
:102BE00007C08595859585950E94D0150E94470C54
:102BF00008959091760492FB222720F9281769F016
:102C000080FB92F9909376048091750490917604FC
:102C10000E94411282E00E94DD15089521E030E01B
:102C200001C0220F8A95EAF78091A604822B0E94A8
:102C3000BF1508959091760492FF10C098E0899F87
:102C400090011124622B60930C020E940E160E94C8
:102C5000C40690930B0280930A0208950E940E16F8
:102C60000895809330020E94AB1508951092780366
:102C700080912801E8E8F1E0882361F080917504F3
:102C800087FF08C08EE1DF011D928A95E9F70E9457
:102C9000AB15089586E0F7CFAAE2B0E0E2E5F6E1F1
:102CA0000C94D4388EE994E02091F100DC012D934E
:102CB000CD01B4E0863A9B07B9F780919F04833039
:102CC00009F472C0B8F4813009F449C0823009F4C3
:102CD000B3C08091E80083FF96C280919E049091DA
:102CE0009F049A3008F08FC2E92FF0E0E356F64CCB
:102CF0000C9487388A3009F48EC08B3009F471C087
:102D0000893039F780919E04813219F78091A204AD
:102D10009091A304009711F00297D9F68091E800F2
:102D2000877F8093E8008091E80082FF38C090910F
:102D3000F3008091F200029731F48091F10081302C
:102D400011F0863021F48091F10080937904809114
:102D5000E8008B778093E8000E949905BACF8091B4
:102D60009E04813A09F0B5CF8091E800877F809377
:102D7000E8008091A2049091A304892B61F460E2A1
:102D80008AE794E070E00E9445068091E8008B7726
:102D90008093E8009ECF60E090E080E0F3CF8091E8
:102DA0009C048111C0CF95CF80919E04813A09F097
:102DB00090CF8091A2049091A304892B09F089CF30
:102DC0008091E800877F8093E8008091E80080FF91
:102DD000FCCF809128018093F1008091E8008E77EC
:102DE000B9CF80919E04813209F073CF8091A20403
:102DF0009091A304892B09F06CCF8091E800877F24
:102E00008093E8000E9499058091A0048093280196
:102E10000E9436165ECF80919E04813209F059CF10
:102E20008091E800877F8093E8000E949905809157
:102E3000A104809378044DCF80919E04813A09F0DB
:102E400048CF8091E800877F8093E8008091E80078
:102E500080FFFCCF80917804BECF803899F0823813
:102E600009F0D1C18091A2048F70873008F0CBC1E6
:102E70008093E9008091EB0085FB882780F9109210
:102E8000E90006C080919A0490919B0491118260A0
:102E90009091E800977F9093E8008093F100109262
:102EA000F1008091E8008E77AAC1882309F498C1C7
:102EB000823009F0A8C18091A00481119BC180914A
:102EC000A2048F702FEF280F263008F09CC180934A
:102ED000E9002091EB0020FF8DC1933031F4809107
:102EE000EB0080628093EB0085C19091EB009061D4
:102EF0009093EB0021E030E001C0220F8A95EAF7C1
:102F00002093EA001092EA008091EB008860EACFFB
:102F1000811179C11091A0041F778091E30080781E
:102F2000812B8093E3008091E800877F8093E80005
:102F30000E9499058091E80080FFFCCF8091E3001A
:102F400080688093E30082E0111183E080939C0409
:102F50005AC18058823008F056C12091A0043091A7
:102F6000A1042C3DE3E03E07A1F583E08A838AE2D9
:102F700089834FB7F894DE01139620E03EE051E2DA
:102F8000E32FF0E050935700E49120FF03C0E29557
:102F9000EF703F5FEF708E2F90E0EA30C0F0C79681
:102FA0008D939D932F5F243159F74FBF8091E80097
:102FB000877F8093E8006AE270E0CE0101960E946C
:102FC00045068091E8008B778093E8001CC1C0968D
:102FD000E7CF8091A2049091A304432F552743305B
:102FE000510509F44AC078F54130510509F485C00E
:102FF0008BE590E0EFE5F8E04230510509F003C1C0
:103000002091E800277F2093E8002091A4043091CC
:10301000A5048217930708F49C0140E021153105AF
:1030200009F070C041116EC08091E80082FDC9CFE7
:1030300080919C04882329F2853019F28091E80060
:1030400083FFF2CFBECF4132510509F447C042326F
:10305000510509F0D8C08330910508F0D4C0FC01B7
:10306000EE0FFF1FE858FE4F0190F081E02D8B58C6
:103070009E4FDC018C9190E01DC03327213031053B
:10308000E9F02115310579F022303105F9F02330CE
:10309000310509F0B8C0ECECF8E0E4918E2F90E037
:1030A000ECECF8E007C0E6E1F9E0E4918E2F90E067
:1030B000E6E1F9E0009709F4A6C0A2CFECEFF8E052
:1030C000E4918E2F90E0ECEFF8E0F4CFEAEEF8E038
:1030D000E4918E2F90E0EAEEF8E0ECCF833091059A
:1030E00008F091C0880F991FFC01E258FE4F019033
:1030F000F081E02D89E090E083CF82E190E0EAEB7F
:10310000F8E07ECF80919C04882309F45ACF853063
:1031100009F457CF8091E80083FD53CF8091E800F8
:1031200082FD82CF8091E80080FF78CF9091F300FC
:103130008091F2002115310519F08830910550F089
:1031400041E0089709F040E08091E8008E77809395
:10315000E80064CF44914093F10031962150310949
:103160000196E8CF803809F04EC08091E800877F53
:103170008093E80080919D048093F10092CE8111AC
:1031800042C01091A0041230F0F58091E800877FD2
:103190008093E80010939D040E949905112311F07B
:1031A00084E005C08091E30087FDFACF81E0809341
:1031B0009C0442E061EC81E00E94B80542E261ECCF
:1031C00084E00E94B80542E261EC82E00E94B8050A
:1031D00042E260EC83E00E94B80580919C0413C039
:1031E0008091A004813079F481E0933009F080E08F
:1031F00080939B041092E9008091E800877F809380
:10320000E8000E9499058091E80083FF0AC0809140
:10321000E800877F8093E8008091EB0080628093D4
:10322000EB00AA96E3E00C94F038E9E9F3E0128EA3
:10323000138E8FEA90E09183808325E0248F88E8C5
:1032400093E1938382838AE090E09583848344E1D1
:1032500050E05783468348E050E05187408793878A
:1032600082876EE170E0758764879787868780E53F
:1032700090E0918B808B538B428B48E250E0558BD2
:10328000448B42E350E0578B468B48EC50E0518F23
:10329000408F158E178E168E91A380A322A30E94B5
:1032A000BA110E9436161092760410927504E6E761
:1032B000F4E080818460808380917504909176042D
:1032C0000E9441120E9481100895A4E1B0E0EBE653
:1032D000F9E10C94CA38A0901A01B0901B0181E06A
:1032E00090E090931B0180931A0183E0C82E86E042
:1032F000D82E00E0760110E015C0F401259134913C
:10330000472D612F802F0E94021282E0880E911CAF
:103310007394EBE07E12F1CFF6E1EF0EF11C1F5F2C
:10332000143019F04701712CE8CF0F5F88E5C80E03
:10333000D11C0430F9F60E9415191A8219821C82D8
:103340001B821E821D8218861F8288EC90E09A875D
:1033500089870BEB11E04AE050E0B801CE010196FD
:103360000E948339065F1F4F0B30E2E01E0799F77A
:103370007E01FBE0EF0EF11C8AE0F70111928A95C5
:10338000E9F74AE050E0B801C7010E948339065FBF
:103390001F4F0B35F2E01F07A1F7B0921B01A0925F
:1033A0001A016496EDE00C94E63880E00E94281241
:1033B00060E086E290E00E945F390E9465190E94F9
:1033C000F21181E00E9428120895CF92DF92EF92CD
:1033D000FF928FEF9FEF4430510508F46AC0FB0164
:1033E000C080D180E280F3800E94361680917504FF
:1033F000C0FA80F9B701A60176956795579547956C
:1034000040FB81F9B701A60122E0769567955795B3
:1034100047952A95D1F740FB82F9B701A60133E021
:1034200076956795579547953A95D1F740FB83F97F
:10343000B701A601E4E07695679557954795EA951B
:10344000D1F740FB84F9B701A601F5E076956795C1
:1034500057954795FA95D1F740FB85F9B701A60135
:10346000A6E07695679557954795AA95D1F740FBC5
:1034700086F9B701A601B7E0769567955795479508
:10348000BA95D1F740FB87F9809375048091760453
:10349000D0FA80F9D1FACC24C0F8C0FA81F980932F
:1034A000760480917504909176040E94411290E018
:1034B00080E0FF90EF90DF90CF9008950E94361645
:1034C0002FEF84E39CE0215080409040E1F700C062
:1034D000000088E19CE00FB6F894A8958093600006
:1034E0000FBE90936000FFCF882321F00E94330C21
:1034F0000E94E6140895882339F09091A704982B30
:103500009093A7040E94E6140895882321F00E9456
:103510003A0C0E94E6140895882321F00E94410C81
:103520000E94E6140895882309F476C0823879F45D
:103530000E94D00681FF70C089E30E94930C0E9414
:10354000E61489E30E94680C0E94E614089583380B
:1035500059F40E94D00680FF5FC083E50E94930C5F
:103560000E94E61483E5EECF843859F40E94D00619
:1035700082FF52C087E40E94930C0E94E61487E405
:10358000E1CF9CEF980F913AE8F290E2980F9830D3
:1035900050F4877091E001C0990F8A95EAF7892F5E
:1035A0000E943A0CD1CF9BE5980F9330B8F48091EC
:1035B000AA019091AB01892B79F11092AB01109285
:1035C000AA01E0916E04F0916F04309729F1068012
:1035D000F781E02D90E080E00995089598E5980F37
:1035E0009731A0F48091AC019091AD01892BA1F0AD
:1035F0001092AD011092AC01E0916E04F0916F0455
:10360000309751F00084F185E02DE4CF803F20F029
:103610000E94C7080E94A0080895CF93DF93EC0191
:103620000E94931ACE010E94770D9E01205E3109FF
:103630002830310510F0CD2B29F40E94851ADF9136
:10364000CF9108950E94741AFACFCF93C82F882380
:10365000C9F08238C9F40E94D00681FD13C089E305
:103660000E94930C0E94E6142FEF87EE93E0215006
:1036700080409040E1F700C0000089E30E94680CA0
:103680000E94E614CF9108958338A1F40E94D006D9
:1036900080FDF8CF83E50E94930C0E94E6142FEF83
:1036A00081EE94E0215080409040E1F700C000009E
:1036B00083E5E4CF8438A1F40E94D00682FDE2CFF6
:1036C00087E40E94930C0E94E6142FEF81EE94E0B1
:1036D000215080409040E1F700C0000087E4CECF49
:1036E0008CEF8C0F813A88F580912801882301F1B5
:1036F0008091750487FF1CC0EC2FE695E695E69552
:10370000F0E0EA57FE4F828190E04C2F477021E0B5
:1037100030E002C0220F331F4A95E2F78223932341
:10372000892B79F08C2F0E94680C0E94E61409C046
:10373000E8E8F1E08191C817A9F321E0EE38F2073B
:10374000C9F78C2F0E94930C9BCF80E28C0F88309E
:1037500048F4C77081E001C0880FCA95EAF70E945B
:10376000410C8ECFC03F08F48DCF8C2F0E94E20910
:103770000E94A00887CF1F93CF93DF93182FC0918B
:10378000B903D091BA03893321F0C091B703D09126
:10379000B803812F0E94251B209739F4812F0E94A6
:1037A000931ADF91CF911F9108958FE99FE00197C0
:1037B000F1F700C000002197EFCFB0E0A0E0E3EE0A
:1037C000FBE10C94CD38EC018AE0A82E288122235D
:1037D00009F48FC02130C9F599818A81913021F493
:1037E00022960E94BB1B05C0923029F422960E94AB
:1037F000251B2196EBCF933021F422960E94931A39
:10380000F8CF943011F02196F4CF229630E020E0EA
:10381000AE014F5F5F4F8053990B8A30910550F096
:103820002150310930F38FE99FE00197F1F700C093
:103830000000F6CFA29EB001A39E700D11249C0142
:10384000260F371F8981EA01E3CFE22FF0E0E65B24
:10385000F64FB490822F86958695869590E0FC0170
:10386000E65CF64FE4902770F12C022E02C0F5942E
:10387000E7940A94E2F731E0E322FF24FC01E65DDD
:10388000F64FC490D12C022E02C0D594C7940A944E
:10389000E2F731E0C322DD24FC01E65EF64F04913D
:1038A00010E002C0159507952A95E2F701701127DF
:1038B000E114F10419F081EE0E94251BC114D1041A
:1038C00019F086EE0E94251B8B2D0E94BB1BC11494
:1038D000D10419F086EE0E94931AE114F10419F054
:1038E00081EE0E94931A0115110509F482CF8CE232
:1038F00078CFCDB7DEB7EAE00C94E938B0E0A0E0CD
:10390000E4E8FCE10C94CD387C015B01C42FD22F9C
:10391000FC0182818823A9F040936B040E94C406B5
:1039200090936A0480936904C77081E001C0880F96
:10393000CA95EAF70E948C1ACDB7DEB7EAE00C947C
:10394000E93810916B04141338C080916904909188
:103950006A040E94A9066C01B701C5010E946312A6
:10396000C816D90650F5C0E2CD0F1D17C1F080E290
:10397000810F883048F4177081E0012E01C0880F54
:103980000A94EAF70E94851AC83048F481E09D2F16
:10399000977001C0880F9A95EAF70E948C1A802FC1
:1039A0000E94BB1BC83040F6D77081E001C0880F71
:1039B000DA95EAF70E94851ABFCFC77081E001C08F
:1039C000880FCA95EAF7F6CFCF93DF93EC010E94F8
:1039D000770D9E01205E31092830310510F02097C7
:1039E00041F40E948C1A8C2F0E94251BDF91CF91ED
:1039F00008950E947B1AF7CF662329F02091A7042F
:103A000022602093A7049C013056211540E2340720
:103A100020F0305E2115304108F499270E94E41C03
:103A20000895B0E0A0E0E7E1FDE10C94D0387C011E
:103A30008B01D42E8091260182FF8CC0C091BF03E0
:103A4000D091C003CE15DF0521F0E114F10409F097
:103A500081C0809126018B7F8093260181FD73C0F8
:103A60008091BD039091BE03A801481B590B81E0D2
:103A700020912401309125014217530708F480E07A
:103A80008170F82E80912601F0FA81F98093260149
:103A9000FE0183E0F695E7958A95E1F7EE71FF2741
:103AA000E758FC4F20813181AE014F70552781E0EE
:103AB00090E002C0880F991F4A95E2F7FF2009F4B1
:103AC00044C0822B932B918380838091780381FF64
:103AD00008C08091260180618093260182E00E94C7
:103AE0003A0C8091780385FF08C08091260180629E
:103AF0008093260180E20E943A0C6F2DCE010E9435
:103B0000FC1CDD2031F08091B40385FF02C086FFEC
:103B10003BC08091B7039091B8030E942D0E809115
:103B2000BF039091C0039C013056211540E2340739
:103B300020F0305E2115304108F499270E940D1BBA
:103B40000E948C151DC081E09BCF809590958223AB
:103B50009323B9CFC701992797013056211540E229
:103B6000340728F0305E2115304108F0C7010E946B
:103B70000D1B8091BF039091C0038E159F0501F32B
:103B80001093BE030093BD03CDB7DEB7E7E00C94FE
:103B9000EC3868EE7EEF90E080E00E947D3960E0D6
:103BA00082E090E00E945F3960E083E090E00E9454
:103BB0005F391092300260E084E090E00E945F394B
:103BC00064E082E290E00E945F3960E085E090E08E
:103BD0000E945F3960E086E090E00E945F396FEFFD
:103BE00087E090E00E945F3940E050E0BA0188E051
:103BF00090E00E94713960E08DE090E00E945F39B2
:103C000040E050E0BA0188E190E00E94713960E044
:103C100087E190E00E945F3940E050E0BA018CE11A
:103C200090E00E94713970E060E080E290E00E94D4
:103C30007D3940E050E0BA0188E190E00E9471399E
:103C400080E00E9428120E94D51940E050E0BA019D
:103C50008FE090E00E94713940E050E0BA0183E1CA
:103C600090E00E9471390895A4E0B0E0EAE3FEE13B
:103C70000C94CC387C01DC0113964D915C91149727
:103C800011966C9111978C910E94DD068111EEC006
:103C900061E0C7010E946F118C01F70182818823C6
:103CA000E1F080916C0490916D040097B1F00817D9
:103CB000190799F0FEE08F9FC0011124FC01E75421
:103CC000FD4F2081246020838C549D4FDC010D9397
:103CD0001C930E9464151092A704F7018281882327
:103CE00011F40C94AC26980122513F452031310546
:103CF00008F0A3C78FEF93E00E944B398111A6C053
:103D00006EEED62ED00E0BE512E0D11036C0198221
:103D10001A821B821C8299249A9468012FEFC21A7E
:103D2000D20AC8010E944B3989831A82882309F478
:103D30008DC0813009F07FC0580132E0A30EB11C64
:103D4000C6010E944B39C82E8A83882309F47EC09D
:103D5000C5010E944B39D82E8FEF8C0D8330D8F4DB
:103D6000580143E0A40EB11CDB82DD2021F0CE011E
:103D700001960E94DD1B8501D0CF0115F4E01F07DD
:103D800009F464C0C8010E944B39811101C0DA9462
:103D90000F5F1F4FBACF8BEF8C0D833030F5C8010A
:103DA0000396DB825C01DD2031F3580154E0A50E5F
:103DB000B11C0E944B398C838823E9F28B819C8152
:103DC0008130AFEF9A0710F0982F8827B6E0CB1616
:103DD00031F0E7E0CE1631F00E94992DCCCF0E9451
:103DE000732DC9CF0E94FA2CC6CFF4E0CF12C3CFF7
:103DF000580124E0A20EB11CC80103960E944B3961
:103E0000DD2021F1882311F18150990B989E9001BA
:103E1000999E300D11244D2D4150550BCA01820F32
:103E2000931F019708F4A7CFAFE9BFE01197F1F70F
:103E300000C00000F6CFCE0101960E94DD1B5601A6
:103E40009ACF81E00E940E160E94C41580910C0248
:103E5000877061F0D70112968C91882339F0809198
:103E6000760482FF03C082E00E94DD152496EBE019
:103E70000C94E83881E00E94D015E6CF82E0E2CFD2
:103E8000823009F01BC78091AE029091AF02892B5E
:103E900009F414C72EE02C9DC0012D9D900D112416
:103EA000FC01E754FD4F20812E7F20838C549D4FD1
:103EB0000E94641503C72FEFC216D10409F008F45D
:103EC000FDC68091B40380FF39C00E94C4066C0116
:103ED000D70112968C91882309F468C0809126013D
:103EE00082FF08C02AE432E040E0B60190E080E0C2
:103EF0000E94111D0B31BCE51B0709F449C00C31B0
:103F0000ECE51E0709F44AC090912601892F8E7FA7
:103F100090FF81600A31FCE51F0709F442C0C80127
:103F20009056811520E2920728F0905E811590410D
:103F300008F04AC01092C0031092BF03033FBCE5D3
:103F40001B0709F494C108F036C1083DFCE51F07C2
:103F500009F487C1093D2CE5120709F4A0C1073D0A
:103F60003CE5130709F033C106E221EE41EE67EDAF
:103F70007CE5C7010E947E1C69CF902F812FE7C688
:103F8000F601858181FF9DCFC6010E944A1599CF18
:103F900080912601816080932601C1CF8091260106
:103FA0008E7F809326010E948C15B9CF80912601C7
:103FB0008F7E013E110531F0053E1105C9F4809157
:103FC00026018F7D809326018091260180FFB6CF48
:103FD000D70112968C910832110528F50E31110582
:103FE00008F072C00430110580F58111A3CFA6CF6F
:103FF000C8019056811540E2940720F0905E81152B
:10400000904110F78091260182FF98CF8091B603EE
:1040100081FD94CF2AE432E040E0B60190E080E0F8
:104020000E94111D8BCF0933110558F40D32110573
:1040300018F40B321105C9F69091B40392FDD5CF57
:1040400008C004361105C1F3D0CF9091B40394FD9C
:10405000CCCF882309F4A8C080912F0290917803D7
:10406000892B8D7FB1F11092C0031092BF03809114
:10407000B40381FD2EC0F80143E0F695E7954A951B
:10408000E1F7EE71FF27E758FC4F98012F703327B7
:1040900081E090E002C0880F991F2A95E2F7809591
:1040A000909520813181822393239183808360E0E6
:1040B000C8010E94FC1C80912F028D7F0E941F0C62
:1040C00082E00E94DD15C2CE9091B40393FD8DCFA6
:1040D000C0CF88E0F701AAE4B2E001900D928A9582
:1040E000E1F710924C0210924E0210924D02809114
:1040F000BF039091C00308171907D1F52091B403AD
:1041000025FF36C03091260131FF02C026FF30C0A6
:104110002091BD033091BE035601A21AB30AB70124
:104120000E946312A816B90618F58091780381FFE2
:1041300008C08091260180618093260182E00E9460
:104140003A0C8091780385FF08C080912601806237
:104150008093260180E20E943A0C609126016695C8
:1041600061708091BF039091C0030E94FC1C6ECED1
:1041700080912F0290917803982B2091260191FB3A
:1041800021F9209326018D7F0E941F0C1093C003FC
:104190000093BF03D092BE03C092BD03809126015D
:1041A0008460809326018CCF970140E0B601C8015E
:1041B0000E94111D4BCE053F4CE5140709F463C066
:1041C00008F45BC0063F8CE5180709F462C0D7010C
:1041D00012963C91332309F4CBC510926B04033043
:1041E000BDE51B0708F061C00A3FECE51E0730F48F
:1041F000C80182509C45449708F062C00E94961105
:10420000909376048093750402315CE5150709F4F8
:104210007FC108F0CFC009309CE5190709F456C1E9
:1042200008F099C00530BCE51B0709F443C108F04C
:1042300080C00330FCE51F0709F434C108F036C123
:1042400080917504816002303CE5130709F4AFC02A
:1042500080917504909176040E9441120E94361656
:10426000F5CD07E225EE45EE68ED7CE582CE06E26F
:1042700021EE40EE63EF7CE57CCE07E225EE44EED6
:1042800064EF7CE576CE06E221EE42EE65EF7CE55A
:1042900070CE07E225EE46EE66EF7CE56ACE08E2D8
:1042A00021E045EE69ED7CE564CE053AFDE51F07AA
:1042B00009F4A4CFC0F501364DE5140709F49ECFEB
:1042C00006315CE5150709F023C280917803982F29
:1042D0009A7A2091B30320FF04C0482F447409F058
:1042E00090E021FF04C0482F417109F090E022FFC7
:1042F00004C0482F487809F090E023FF03C0827281
:1043000009F090E0332309F42DC181E0911101C03F
:1043100080E08093A60189E2911185E30E94930CCD
:104320000E94E61493CDC8018D5A9D45039740F62F
:1043300065CF80917504806207304CE51407B9F1B0
:1043400080917504806108305CE5150780F18091EB
:10435000750480642CC00D308CE5180709F4C0C0CA
:1043600090F4809175048E7F0B30ACE51A07F9F05C
:10437000809175048C600C30BCE51B07C0F0809107
:1043800075048D7F14C00F30ECE51E0709F4B8C02A
:1043900008F4AAC000312CE5120709F4B5C08091D9
:1043A00075048F7B01313CE5130709F051CF8093F1
:1043B00075044ECF0F3F4CE5140709F4B3C0A8F5C0
:1043C0000A3F8CE5180709F479C0C0F40431ACE564
:1043D0001A0709F4B5C008F4A1C00531ECE51E07C1
:1043E00009F036CF8091750482FB992790F921E07E
:1043F000922790FB82F990FB83F9D9CF0C3FFCE523
:104400001F0709F475C008F45DC00D3F3CE51307B4
:1044100009F472C08091760483600E3F4CE5140766
:1044200009F016CF8093760413CF01365DE51507AA
:1044300009F491C090F401309DE5190709F489C091
:1044400008F474C060E00230BDE51B0709F000CF3E
:104450008EE090E00E945F39FBCE0D3AEDE51E073D
:10446000E9F060F490917504892F8E7F90FF816050
:10447000053A2DE5120709F49ACFEACE0E3A3DE54A
:10448000130751F10F3A4DE5140709F0E1CE909171
:104490007604892F877F93FF8860C4CF809176044C
:1044A0008860C0CF80917504826081CF809175044F
:1044B00084607DCF80917504886079CF8091760487
:1044C0008160B0CF809176048260ACCF0E943616B6
:1044D0008091750480686BCF80917604877FA2CF2E
:1044E000809175048B7F63CF80917504877F5FCF48
:1044F000809176048E7F96CF809176048D7F92CFC7
:10450000809175048F7E53CF809175048F7D4FCF3E
:104510000E943616809175048F7749CF809175047B
:10452000837F45CF809176048C7F7CCF8091760409
:10453000982F909591708E7F892B90FB81F972CF87
:104540000E94361690917504892F97FB87F9805841
:104550002ECF61E07DCF90917504892F8F7E94FFDF
:10456000806125CF8091A601811104C089E20E945B
:10457000680CD6CE85E3FBCF043C4CE5140709F468
:1045800094C0053C5CE5150709F014C445E853E107
:104590006FE873E114C0093C9CE5190709F494C065
:1045A00088F4073CBCE51B0709F489C048E753E1E0
:1045B0006BE673E1083CECE51E0709F0FBC30E94C3
:1045C000F40744CC0A3CFCE51F0709F482C049E922
:1045D00053E16BEA73E10B3C2CE5120781F3EAC36C
:1045E000013D3CE5130709F487C0B0F40E3C5CE5DF
:1045F000150709F47BC008F476C00F3C9CE5190749
:1046000009F477C06EE089E0003DACE51A0709F0D7
:10461000D1C30E9414141ACC043DBCE51B0709F455
:1046200071C078F4023DFCE51F0709F468C061E041
:1046300088E1033D2CE5120709F0BCC30E94BD13BD
:1046400005CC053D3CE5130709F45FC00D351007A7
:1046500009F4FCCBAFC380919D0280FF1BC08E7F0D
:1046600080939D0260919D0270919E0280919F02B5
:104670009091A0020E94C512109275025FEF80E730
:1046800092E0515080409040E1F700C000000E944D
:10469000370EDCCB816080939D0261E08695CECFA2
:1046A0004FEF53E169E074E18ACF49E054E16FEFE5
:1046B00073E185CF4FE853E165E873E180CF4BE6C6
:1046C00053E168E773E17BCF41E553E16EE573E1C8
:1046D00076CF4EE553E161E573E171CF4BEA53E1EB
:1046E00069E973E16CCF61E081E0A8CF65E082E029
:1046F00090CF68E086E08DCF64E18FE08ACF67E1FC
:1047000085E187CF62E289E184CF61E083E296CFE1
:104710000A35ADE51A0771F158F40115ECE51E07ED
:1047200091F00E3D1C4509F045C30E94C91D09C00A
:104730000C352DE51207A1F0F8F0073A1D4509F0F8
:1047400039C30E945E1A0E9436165FEF84E39CE034
:10475000515080409040E1F700C000000E94090ED7
:104760008091760482FB882780F991E089270E9456
:10477000F91520C381E0FBCF80E0F9CF8281008171
:104780001181882369F0C8010E94F310D82E682F88
:10479000C8010E94250DB8018D2D0E94D61010C3AE
:1047A000C8010E94F10CD82EF6CF202F2F70C22EF8
:1047B000802F807F19F0C29490EFC922BB20A9F00E
:1047C000CC2059F080E2810F883010F0111107C021
:1047D0008C2D0E94410C0E94E614812F5AC08091BA
:1047E000A704C82AC092A704F6CF812F0E94931A6B
:1047F000CC2009F450C080E2810F883010F01111F4
:1048000004C08C2D0E943A0C03C08C2D0E94330CE6
:104810000E94E61440C0302F3F70C32E802F807F4F
:10482000803219F0C29480EFC822112321F1113097
:1048300009F4AEC0BB2009F4B7C0DD2009F47FC085
:1048400020E0D7014C9111965C91119712966C91D2
:10485000129713967C91139714968C910E944C1189
:104860008091B60381FDB9CFF701858180FFB5CF77
:104870008F70858364C08091760482FD40C0BB2028
:10488000C1F1CC2029F08C2D0E94410C0E94E6142D
:1048900080E00E94251BA92DA850BB0B149710F493
:1048A0000E94D006812F902F0E945C0D8111A6C11D
:1048B0001092A9011092A801AA20B1F080910C02D7
:1048C00080FD12C0D70112961C928595859585951D
:1048D0000E940E16C7010E94341E80910C0285951D
:1048E000859585950E94D01560E0C7010E946F11E3
:1048F000BDCA80E00E94931ACC2069F282CFBB200F
:1049000011F1D11004C080912F028C2919C041E00F
:10491000D41206C080912F028C290E941F0CBBCF9D
:104920008091B503823078F3D812EDCF0E94140C39
:104930009091A7018C2D892B89138093A7018C2D31
:104940000E948C1AA8CFD11003C00E94140C17C06B
:104950008091B50351E0D51216C0823008F49BCF88
:10496000809178038C2109F496CF0E94140C9091C9
:10497000A7018C2D8095892389138093A7018C2D05
:104980000E94851A88CF823000F3D812DECF83CF01
:104990008091BB03BB2021F08D1508F47CCFCFCFD5
:1049A000D81608F078CFEBCFDD2049F38091B9031A
:1049B0009091BA03193321F08091B7039091B80315
:1049C0000E942D0E812F0E94931A65CF812FBB204C
:1049D00029F00E94E2090E94A0085DCF0E94C7084A
:1049E000FACF802F837091F5B11055CF412F4295AA
:1049F00046954770440F440F812F8F70042E01C0DD
:104A0000880F0A94EAF7212F207114FF07C02FE0C6
:104A100030E001C0220F4A95EAF72095302F3695F5
:104A200036953370323069F050F4409130023130B5
:104A300029F0822B84230E9431162DCF842B822BC8
:104A4000FACF282B809130028227F5CF8695BB20A4
:104A500011F0802F8170882309F41DCF412F4295DA
:104A600046954770440F440F812F8F70042E01C06C
:104A7000880F0A94EAF7212F207114FF07C02FE056
:104A800030E001C0220F4A95EAF72095302F369585
:104A900036953370323069F050F44091A6043130CD
:104AA00029F0822B84230E94BF15F5CE842B822B04
:104AB000FACF282B8091A6048227F5CFF02FFF7024
:104AC000CF2EBB2029F08F2F0E940E16812F38CFBA
:104AD000812F0E94851A8C2D0E94D015DCCE123FAA
:104AE00089F160F4103FB9F0113F81F0BB2009F467
:104AF00080C0D11072CE802F8F7128C0133F49F132
:104B0000143FA1F78091760482FD2FC0802F8F7112
:104B1000BB2011F31BC08091BB03BB2079F0D816DA
:104B200008F0B9CE202F2F7181E090E001C0880FEE
:104B30002A95EAF79091A6048927B5CF8D1508F438
:104B4000AACEF0CF802F8F71B110C6CF0E940E1663
:104B5000A2CE80E0BB2009F4A6CF81E0902F9F7108
:104B600001C0880F9A95EAF79ECF8091B5038230F5
:104B700040F1BB20D1F090910C029770943041F439
:104B80000E94470C802F8F710E94D015A12C83CEDC
:104B9000D816E0F7202F2F71C22E822F0E940E16FA
:104BA00063E08C2D0E941A16F1CFD81630F00E94C7
:104BB000470C64E0802F8F71F5CF81E00E94DD15F6
:104BC000E5CFBB2059F0302F3F71C32E832F0E94B9
:104BD0000E1663E08C2D0E941A165DCE81E00E94B5
:104BE000DD1541E04D1508F056CE82E00E94DD153E
:104BF00052CED110DBCE802F8F716ECFBB2019F03B
:104C0000D11056CE59CED11053CE20E0F7014081BD
:104C100051816281738184810E944C118091B6031D
:104C200083FF46CE8091A8019091A901029709F0D7
:104C30003FCE812F0E94BB1B3BCE0031BFE51B073F
:104C400009F4FFC80131EFE51E0709F417C968012F
:104C5000E7E5DE1A81112FC9FFEFCF16D10411F05D
:104C600008F02FC96AEA72E08C2D0E944F12892B3E
:104C700029F58EE08C9DF0018D9DF00D1124EC54F2
:104C8000FD4F8281813009F0FBC88091AA0290918A
:104C9000AB02892B99F08091AC029091AD02892BE7
:104CA00069F08091AE029091AF022091B0023091F4
:104CB000B102822B932B892B09F4ECC85801BB2439
:104CC0003EE0039FF0011124AF014C545D4F6A0197
:104CD000D70112968C91E754FD4F908180FB90F99B
:104CE0009083882309F44CC90E94C406909349021A
:104CF00080934802D60112968C9112978F5F12967C
:104D00008C9312978091A70490917803892B139626
:104D10008C93139780912F0214968C931497169668
:104D2000ED91FC911797309729F01C966D917C912D
:104D3000C60109958EE08A9DF0018B9DF00D11242E
:104D4000EC54FD4F858181FF18C990E080E090937D
:104D50006C0480936D04B5C80031FFE51F0709F4AA
:104D600089C801312FE5120709F071CF82E083C8AD
:104D70000631BCE51B0709F4A8CA8091780382724A
:104D80000C3C9CE5190709F4A9CC08F029CC063C99
:104D9000BCE51B0709F48ECC08F0FDCB033CFCE519
:104DA0001F0709F47DCC08F0E7CB023C3CE5130774
:104DB00009F451CCF70186819781009709F4DECC84
:104DC0000E94A60A182F092FF701B280D580D2942D
:104DD0003FE0D32280910C028770C1F0AB2CBB2046
:104DE000B1F0892F807F803421F080E2810F8830FC
:104DF00068F08091760482FF09C082E00E94DD1590
:104E000080910C028770AA24A3948111A12C902E6A
:104E100092942FE09222FBE0F91508F43CCDE92DA5
:104E2000F0E0E955F64C0C948738B0E0A0E0EBE1F7
:104E3000F7E20C94CF388091C501807F31F48091E6
:104E4000C201C0910902811107C0CDB7DEB7E8E009
:104E50000C94EB382196C7708091C8018C17A9F388
:104E6000F090C001E090C101C090C301D090C40196
:104E7000A6016E2D8F2D0E94DD06D0E08111EACFB4
:104E80008E0183E0000F111F8A95E1F7F801E753C7
:104E9000FE4F81818E11DECF80818F11DBCF828129
:104EA0008111D8CFE380F480EC18FD0860E080EC3D
:104EB00091E00E946F1160EC71E00E946312E816AD
:104EC000F90640F68091C5018F7080618093C5011D
:104ED000F801E253FE4F80818F708061808380EC07
:104EE00091E00E94341E0E94E70CAFCFA5E1B0E034
:104EF000ECE7F7E20C94C8388C0185E0F801DE019C
:104F0000519601900D928A95E1F7D8015C90119627
:104F10006C9011971296EC9012971396CD90DC90AE
:104F200060E080EC91E00E946F1180ECA82E81E09F
:104F3000B82E8090C3019090C401A4016091C1017A
:104F40008091C0010E94DD068111A8C1F090C201CC
:104F5000F601E819F9094F0160E0FF2009F44BC19F
:104F6000C5010E946F11B5010E9463127090C501C6
:104F70008816990608F0F2C04091C3015091C4010F
:104F8000B090C001A090C101872D807F6A2D09F0EB
:104F90008CC08B2D0E94DD06FE2C811127C0D8010C
:104FA00011968C9111978A1121C08C918B111EC082
:104FB0002091C6013091C70116968D919C912817BA
:104FC0003907A1F4E11012C0872D8F7080618093A2
:104FD000C50180EC91E00E94341E8091C501F8016A
:104FE00085838F2D6596EFE00C94E438A601662D3D
:104FF000852D0E94DD06D82E81E08E25D11080E01F
:1050000080FF18C04E2D662D852D0E94C70C882369
:1050100089F08091B60380FF0DC080EC91E00E9482
:10502000341E88E0E0ECF1E0DF011D928A95E9F79B
:10503000F12CD7CF81E08E25D11080E0B82FB17050
:10504000CB2E80FF29C04E2D662D852D0E94C70CCA
:10505000D82E811121C0598A6A8A89899A890E9429
:105060002211292F22952F70223050F0243078F40D
:105070009F7051F0F8019581907F31F4FD2CB1CFF4
:105080009F7011F08823D1F3805E8830B8F3C80197
:105090000E94341EDC2CF2CFEE2009F4A2CF8091C6
:1050A000C50181608093C501C3CF8B2D0E94DD06B1
:1050B000811124C0D80111968C9111978A111EC0BC
:1050C0008C918B111BC02091C6013091C70116969F
:1050D0008D919C9117972817390781F4E1100EC024
:1050E00015967C92C8010E94341E88E0F801A0EC5D
:1050F000B1E001900D928A95E1F773CFC8010E944B
:105100002F11882339F1EE2029F18091C5018032D9
:10511000A0F02091C0013091C1013A8729871B86F8
:10512000DD86CC868E878091C6019091C701988BD1
:105130008F87CE0109960E94341E88E0F801A0EC0A
:10514000B1E001900D928A95E1F70E941527FF24A6
:10515000F39447CFC8010E94341EF9CF872D807F7A
:1051600009F45BCF9090C0018090C1014091C301D0
:105170005091C401682D892D0E94DD0681111CC04B
:10518000F8018181881118C08081891115C0209192
:10519000C6013091C701868197812817390761F4CC
:1051A000E1100AC07582C8010E94341E88E0D50152
:1051B0001D928A95E9F715CFC8010E942F11882307
:1051C00049F2EE2039F28091C501803208F4B5CF62
:1051D0002091C0013091C1013A8329831B82DD8275
:1051E000CC828E838091C6019091C70198878F836E
:1051F000CE010196A0CF80EC91E00E946F1160EC8F
:1052000071E00E9463128816990680F6FE2CEE204B
:1052100009F4A0CFE090C001D090C1014091C3013A
:105220005091C4016D2D8E2D0E94DD06811128C084
:10523000F80181818D1124C080818E1121C02091BF
:10524000C6013091C7018681978128173907C1F4BB
:105250008091B60382FD49CF9091C50190FD45CF65
:10526000907F09F442CF8091C5018583903F09F476
:1052700039CF982F907F905F8F70892B858332CFA5
:10528000C8010E942F11811158CF8091C501816002
:105290008093C501C8010E94341EA3CEEE2009F4FC
:1052A00059CFC8010E942F11F82E882309F452CF3C
:1052B00088E0F801A0ECB1E001900D928A95E1F749
:1052C0008091C0019091C1010E9422110E94152776
:1052D00088CEA0E1B0E0EFE6F9E20C94D53829875A
:1052E0003A874B875C876D877E878F87988BCE0147
:1052F00009960E94762781112FC088E0FE01399619
:10530000DE01119601900D928A95E1F74C855D853D
:105310006A8589850E94DD0681111EC0A091C801A1
:10532000B0E0CD01019687709927209109022817D6
:105330001906E1F093E0AA0FBB1F9A95E1F7A75376
:10534000BE4F98E0FE01319601900D929A95E1F7DB
:105350008093C8010E94E70C809109029091C801D6
:10536000891312C06096E2E00C94F1380E94361660
:105370001092C8011092090288E0E0ECF1E0DF0130
:105380001D928A95E9F7E8CFB8E08B9FC001112400
:1053900087539E4F0E947627882321F3809109022C
:1053A00090E001968770992780930902D5CFEF92FC
:1053B000FF920F931F93CF93DF938091C4038823B1
:1053C00061F0C091C3038CE0F82E8091C403C8172C
:1053D00048F01092C4031092C303CDB7DEB7E6E0E5
:1053E0000C94ED38EE24E394EC0EE092C3030C2F02
:1053F00010E0CF9DE0011124CB53DC4F4B815C8149
:10540000698188810E94DD0681111DC08E819F8186
:10541000892B21F488859985019651F42881398159
:105420004A815B816C817D818E819F810E94692987
:10543000F09EF001F19EF00D1124EB53FC4F14820D
:1054400013821092A704CE2DC0CF10926804109240
:1054500067041092270180916604809365040E947E
:1054600016070E94D7290895B0E0A0E0EAE3FAE227
:105470000C94C638C091650497E0892E01E010E0D5
:105480002CE0322E3EEF932E442443948091660408
:105490008C1309C00E94D7290E941607CDB7DEB72A
:1054A000E1E10C94E238D0E0FE01EE0FFF1FE35A79
:1054B000FB4F80819181889ED001899EB00D11247F
:1054C000AB5DBB4F14962C911497211158C050908E
:1054D000C403E5ECF3E030E020E0712C5D0125151C
:1054E00008F04BC0E284F384D501CD90DC906FEFDF
:1054F0007FEF612C462D50E0DA01AA0FBB1FAC0DE7
:10550000BD1D0D90BC91A02D109731F0EA16FB0641
:1055100009F4BA016394EECF6F3F7607A9F1D80181
:1055200002C0AA0FBB1F6A95E2F77A2AB801062CBF
:1055300002C0660F771F0A94E2F7AB014150510990
:1055400074161506F9F4329EF001339EF00D112405
:10555000EB53FC4F889ED001899EB00D1124AB5DAA
:10556000BB4F12962D913C911397378326839082DF
:1055700091829187808715964C920E94E806219629
:10558000C37084CF148213822F5F3F4F3C96A7CF06
:10559000A9E1B0E0EEECFAE20C94C538942F498B07
:1055A000252F5A8B6B8B7C8B8D8B4C895D89622F61
:1055B000892F0E94DD06811109C08091A801909178
:1055C000A90101969093A9018093A8018B8981116B
:1055D0001092A7041D861E861F86188A85E0FE018C
:1055E0007196DE01199601900D928A95E1F78091EE
:1055F000760482FF1EC080919B0390919C03892BAF
:10560000C1F00E94C40620910A0230910B02821B55
:10561000930B20919B0330919C038217930720F0FA
:1056200080910C0282FFE2C10E944E0C81110E9407
:10563000140C4C855D856A8589850E94DD06811183
:1056400011C061E0CE0109960E946F116C018B853B
:1056500027EFC2162CE5D20681F4882321F181E0E0
:105660008093270129853A854B855C856D857E85EC
:105670008F8598890E946929C6C038EFC3163CE51A
:10568000D30629F4882379F00E94252AEBCF49EF2D
:10569000C4164CE5D40639F4882329F080912701FB
:1056A0008111F2CFDCCF05E214E0512CB12CA12CFA
:1056B00022242394312C2EEF422EF8014081518177
:1056C00088248A94982C20E0822F90E0FC01EE0F31
:1056D000FF1FE40FF51F608171816115710531F0C5
:1056E000C616D70609F44C012F5FEECFF12CFFEF61
:1056F0008F169F0609F449C0F8014481F0902701F4
:105700008F2D411180E0F82FF170FF2EF801E58018
:1057100086819B85992309F4F8C0FF2009F4F5C020
:105720006090AF037090B003E11013C0A101082C8A
:1057300001C0440F0A94EAF7842B86838091C10349
:105740009091C2038615970520F47092C20360926F
:10575000C103C10102C0880F991F2A95E2F7019782
:10576000F80126812817190681F480916704909129
:105770006804009709F44BC00E94A90668167906D0
:1057800008F045C021E0F80124835F28FFEFAF1A3D
:10579000BF0A095F1F4F28E0A216B10409F08DCFA0
:1057A0008B85882309F40DC1552009F40AC10E9494
:1057B000C40690936804809367048091C403883082
:1057C00010F591E0980F9093C40398E0FE0139968C
:1057D000DE01119601900D929A95E1F73CE0839FCE
:1057E000C00111248B539C4F28E0FE013196DC014F
:1057F00001900D922A95E1F72FEF3FEFFC013187E1
:105800002087D386C2866996E2E10C94E1388091C4
:10581000650450916604982FF0E0E0E0851314C011
:1058200090936504E017F10709F4AFCF90E0FC0115
:10583000EE0FFF1FE35AFB4FB182A08201968370E7
:10584000992780936604A1CF682E712CF301EE0F87
:10585000FF1FE35AFB4F2081318147E0429FD00177
:10586000439FB00D1124AB5DBB4F6D917C9111979F
:10587000798F688F40E020E030E0E32FF0E0EE0F1A
:10588000FF1F688D798DE60FF71F8080918081144E
:105890009104E1F0F8010190F081E02DFF8BEE8B97
:1058A00020E005C08616970609F44F2D2F5FE22FE2
:1058B000F0E0EE0FFF1F6E897F89E60FF71F608112
:1058C00071816115710571F73F5FD7CF4423D1F026
:1058D000F801231708F0FD0121E024830E171F07AC
:1058E00021F490936504F42E50CF981305C0AE17A1
:1058F000BF0711F49F5F937093012F5F3F4F822F7B
:1059000083708CCFF0E0E0E0F7CF90E0E11020C0B2
:10591000B10102C0660F771F2A95E2F79B01215063
:1059200031098217930731F4442309F448C0C501B3
:105930000E94E806C101082C01C0880F0A94EAF70A
:10594000982F9095F801868189238683FE2C1DCFA0
:105950009C01082C02C0359527950A94E2F7A9010D
:1059600041705527BC016150710986239723892B0B
:1059700011F5452B01F1F80182819381892BC1F04A
:105980001B821C821D821E8249824A820E94C4069A
:105990008160582F9D838C83F801828193818F834E
:1059A000988729813A814B816D817E810E94692986
:1059B000F8011582BFCFF22FF170EF2EBBCFEF2C85
:1059C000B9CF9091650480916604981731F00E94D8
:1059D000342A552009F446CE16CF0E94D7291092BA
:1059E0006804109267040E941607F3CF82E00E94B9
:1059F000DD151ACEA5E0B0E0E0E0FDE20C94D5386C
:105A00009093750380937403811520E2920730F41C
:105A10000E940D1B2596E2E00C94F13880EF8983FB
:105A20008A831B820E94C4068160782F9D838C83A9
:105A300049815A816B818D810E94C82AEBCF0F93D7
:105A40001F93CF93DF938C01EB016AEA72E08C2FF6
:105A50000E944F12892BA1F48091B7039091B80353
:105A60000E942D0EDD27CE55DD4F8881F801128270
:105A700018828330F1F048F4813059F0823081F09F
:105A8000DF91CF911F910F9108958430B9F0853047
:105A9000B9F78091AA029091AB02009789F306C0F2
:105AA0008091AC029091AD02009799F30E94FA2C7C
:105AB000E7CF8091AE029091AF02F6CF8091B00215
:105AC0009091B102009791F72091AA023091AB0218
:105AD0008091AC029091AD0221153105F1F2009751
